{
  "_format": "hh-sol-artifact-1",
  "contractName": "Matching",
  "sourceName": "contracts/Matching.sol",
  "abi": [
    {
      "inputs": [
        {
          "internalType": "address",
          "name": "_profileNFT",
          "type": "address"
        }
      ],
      "stateMutability": "nonpayable",
      "type": "constructor"
    },
    {
      "inputs": [
        {
          "internalType": "address",
          "name": "target",
          "type": "address"
        }
      ],
      "name": "AddressEmptyCode",
      "type": "error"
    },
    {
      "inputs": [
        {
          "internalType": "address",
          "name": "implementation",
          "type": "address"
        }
      ],
      "name": "ERC1967InvalidImplementation",
      "type": "error"
    },
    {
      "inputs": [],
      "name": "ERC1967NonPayable",
      "type": "error"
    },
    {
      "inputs": [],
      "name": "FailedCall",
      "type": "error"
    },
    {
      "inputs": [],
      "name": "InvalidInitialization",
      "type": "error"
    },
    {
      "inputs": [],
      "name": "NotInitializing",
      "type": "error"
    },
    {
      "inputs": [
        {
          "internalType": "address",
          "name": "owner",
          "type": "address"
        }
      ],
      "name": "OwnableInvalidOwner",
      "type": "error"
    },
    {
      "inputs": [
        {
          "internalType": "address",
          "name": "account",
          "type": "address"
        }
      ],
      "name": "OwnableUnauthorizedAccount",
      "type": "error"
    },
    {
      "inputs": [],
      "name": "UUPSUnauthorizedCallContext",
      "type": "error"
    },
    {
      "inputs": [
        {
          "internalType": "bytes32",
          "name": "slot",
          "type": "bytes32"
        }
      ],
      "name": "UUPSUnsupportedProxiableUUID",
      "type": "error"
    },
    {
      "anonymous": false,
      "inputs": [
        {
          "indexed": false,
          "internalType": "uint64",
          "name": "version",
          "type": "uint64"
        }
      ],
      "name": "Initialized",
      "type": "event"
    },
    {
      "anonymous": false,
      "inputs": [
        {
          "indexed": true,
          "internalType": "address",
          "name": "from",
          "type": "address"
        },
        {
          "indexed": true,
          "internalType": "address",
          "name": "to",
          "type": "address"
        }
      ],
      "name": "InterestExpressed",
      "type": "event"
    },
    {
      "anonymous": false,
      "inputs": [
        {
          "indexed": true,
          "internalType": "address",
          "name": "user1",
          "type": "address"
        },
        {
          "indexed": true,
          "internalType": "address",
          "name": "user2",
          "type": "address"
        },
        {
          "indexed": false,
          "internalType": "uint256",
          "name": "matchId",
          "type": "uint256"
        }
      ],
      "name": "MatchCreated",
      "type": "event"
    },
    {
      "anonymous": false,
      "inputs": [
        {
          "indexed": true,
          "internalType": "address",
          "name": "previousOwner",
          "type": "address"
        },
        {
          "indexed": true,
          "internalType": "address",
          "name": "newOwner",
          "type": "address"
        }
      ],
      "name": "OwnershipTransferred",
      "type": "event"
    },
    {
      "anonymous": false,
      "inputs": [
        {
          "indexed": true,
          "internalType": "address",
          "name": "user",
          "type": "address"
        },
        {
          "indexed": false,
          "internalType": "uint256",
          "name": "matchesCleared",
          "type": "uint256"
        }
      ],
      "name": "ProfileDeleted",
      "type": "event"
    },
    {
      "anonymous": false,
      "inputs": [
        {
          "indexed": true,
          "internalType": "address",
          "name": "implementation",
          "type": "address"
        }
      ],
      "name": "Upgraded",
      "type": "event"
    },
    {
      "inputs": [],
      "name": "UPGRADE_INTERFACE_VERSION",
      "outputs": [
        {
          "internalType": "string",
          "name": "",
          "type": "string"
        }
      ],
      "stateMutability": "view",
      "type": "function"
    },
    {
      "inputs": [
        {
          "internalType": "address",
          "name": "targetUser",
          "type": "address"
        }
      ],
      "name": "expressInterest",
      "outputs": [],
      "stateMutability": "nonpayable",
      "type": "function"
    },
    {
      "inputs": [
        {
          "internalType": "address",
          "name": "user",
          "type": "address"
        }
      ],
      "name": "getMatches",
      "outputs": [
        {
          "internalType": "address[]",
          "name": "",
          "type": "address[]"
        }
      ],
      "stateMutability": "view",
      "type": "function"
    },
    {
      "inputs": [
        {
          "internalType": "address",
          "name": "from",
          "type": "address"
        },
        {
          "internalType": "address",
          "name": "to",
          "type": "address"
        }
      ],
      "name": "hasExpressedInterest",
      "outputs": [
        {
          "internalType": "bool",
          "name": "",
          "type": "bool"
        }
      ],
      "stateMutability": "view",
      "type": "function"
    },
    {
      "inputs": [
        {
          "internalType": "address",
          "name": "_profileNFT",
          "type": "address"
        }
      ],
      "name": "initialize",
      "outputs": [],
      "stateMutability": "nonpayable",
      "type": "function"
    },
    {
      "inputs": [
        {
          "internalType": "address",
          "name": "",
          "type": "address"
        },
        {
          "internalType": "address",
          "name": "",
          "type": "address"
        }
      ],
      "name": "interests",
      "outputs": [
        {
          "internalType": "bool",
          "name": "",
          "type": "bool"
        }
      ],
      "stateMutability": "view",
      "type": "function"
    },
    {
      "inputs": [
        {
          "internalType": "address",
          "name": "",
          "type": "address"
        },
        {
          "internalType": "address",
          "name": "",
          "type": "address"
        }
      ],
      "name": "isMatched",
      "outputs": [
        {
          "internalType": "bool",
          "name": "",
          "type": "bool"
        }
      ],
      "stateMutability": "view",
      "type": "function"
    },
    {
      "inputs": [
        {
          "internalType": "address",
          "name": "deletedUser",
          "type": "address"
        }
      ],
      "name": "notifyProfileDeleted",
      "outputs": [],
      "stateMutability": "nonpayable",
      "type": "function"
    },
    {
      "inputs": [],
      "name": "owner",
      "outputs": [
        {
          "internalType": "address",
          "name": "",
          "type": "address"
        }
      ],
      "stateMutability": "view",
      "type": "function"
    },
    {
      "inputs": [],
      "name": "profileNFT",
      "outputs": [
        {
          "internalType": "contract IProfileNFT",
          "name": "",
          "type": "address"
        }
      ],
      "stateMutability": "view",
      "type": "function"
    },
    {
      "inputs": [],
      "name": "profileNFTContract",
      "outputs": [
        {
          "internalType": "address",
          "name": "",
          "type": "address"
        }
      ],
      "stateMutability": "view",
      "type": "function"
    },
    {
      "inputs": [],
      "name": "proxiableUUID",
      "outputs": [
        {
          "internalType": "bytes32",
          "name": "",
          "type": "bytes32"
        }
      ],
      "stateMutability": "view",
      "type": "function"
    },
    {
      "inputs": [],
      "name": "renounceOwnership",
      "outputs": [],
      "stateMutability": "nonpayable",
      "type": "function"
    },
    {
      "inputs": [
        {
          "internalType": "address",
          "name": "newOwner",
          "type": "address"
        }
      ],
      "name": "transferOwnership",
      "outputs": [],
      "stateMutability": "nonpayable",
      "type": "function"
    },
    {
      "inputs": [
        {
          "internalType": "address",
          "name": "newImplementation",
          "type": "address"
        },
        {
          "internalType": "bytes",
          "name": "data",
          "type": "bytes"
        }
      ],
      "name": "upgradeToAndCall",
      "outputs": [],
      "stateMutability": "payable",
      "type": "function"
    },
    {
      "inputs": [
        {
          "internalType": "address",
          "name": "",
          "type": "address"
        },
        {
          "internalType": "uint256",
          "name": "",
          "type": "uint256"
        }
      ],
      "name": "userMatches",
      "outputs": [
        {
          "internalType": "address",
          "name": "",
          "type": "address"
        }
      ],
      "stateMutability": "view",
      "type": "function"
    }
  ],
  "bytecode": "0x60a06040523060805234801561001457600080fd5b506040516200183138038062001831833981016040819052610035916100f5565b61003d610043565b50610125565b7ff0c57e16840df040f15088dc2f81fe391c3923bec73e23a9662efc9c229c6a00805468010000000000000000900460ff16156100935760405163f92ee8a960e01b815260040160405180910390fd5b80546001600160401b03908116146100f25780546001600160401b0319166001600160401b0390811782556040519081527fc7f505b2f371ae2175ee4913f4499e1f2633a7b5936321eed1cdaeb6115181d29060200160405180910390a15b50565b60006020828403121561010757600080fd5b81516001600160a01b038116811461011e57600080fd5b9392505050565b6080516116e26200014f60003960008181610ce001528181610d090152610e8c01526116e26000f3fe6080604052600436106100f35760003560e01c8063949675e91161008a578063c4d66de811610059578063c4d66de814610328578063f2fde38b14610348578063f569f82f14610368578063fd7fef9c1461038857600080fd5b8063949675e91461023c578063a5b748751461025c578063ad3cb1cc14610297578063b9eb69f6146102ed57600080fd5b806352d1902d116100c657806352d1902d1461019a578063715018a6146101bd57806377795778146101d25780638da5cb5b146101ff57600080fd5b80630fe3d326146100f85780633442d3741461012d5780634e55427f1461014f5780634f1ef28614610187575b600080fd5b34801561010457600080fd5b506101186101133660046113f3565b6103a8565b60405190151581526020015b60405180910390f35b34801561013957600080fd5b5061014d610148366004611426565b6103d8565b005b34801561015b57600080fd5b5060015461016f906001600160a01b031681565b6040516001600160a01b039091168152602001610124565b61014d610195366004611457565b610744565b3480156101a657600080fd5b506101af610763565b604051908152602001610124565b3480156101c957600080fd5b5061014d610792565b3480156101de57600080fd5b506101f26101ed366004611426565b6107a6565b6040516101249190611519565b34801561020b57600080fd5b507f9016d09d72d40fdae2fd8ceac6b6234c7706214fd39c1cd1e609a0528c199300546001600160a01b031661016f565b34801561024857600080fd5b5060005461016f906001600160a01b031681565b34801561026857600080fd5b506101186102773660046113f3565b600560209081526000928352604080842090915290825290205460ff1681565b3480156102a357600080fd5b506102e06040518060400160405280600581526020017f352e302e3000000000000000000000000000000000000000000000000000000081525081565b604051610124919061158a565b3480156102f957600080fd5b506101186103083660046113f3565b600360209081526000928352604080842090915290825290205460ff1681565b34801561033457600080fd5b5061014d610343366004611426565b61081c565b34801561035457600080fd5b5061014d610363366004611426565b610978565b34801561037457600080fd5b5061014d610383366004611426565b6109cc565b34801561039457600080fd5b5061016f6103a33660046115bd565b610bb8565b6001600160a01b0380831660009081526003602090815260408083209385168352929052205460ff165b92915050565b6001600160a01b038116330361045b5760405162461bcd60e51b815260206004820152602360248201527f43616e6e6f74206578707265737320696e74657265737420696e20796f75727360448201527f656c66000000000000000000000000000000000000000000000000000000000060648201526084015b60405180910390fd5b6000546040516305cfa06f60e01b81523360048201526001600160a01b03909116906305cfa06f90602401602060405180830381865afa1580156104a3573d6000803e3d6000fd5b505050506040513d601f19601f820116820180604052508101906104c791906115e7565b6105135760405162461bcd60e51b815260206004820152601d60248201527f53656e6465722070726f66696c6520646f6573206e6f742065786973740000006044820152606401610452565b6000546040516305cfa06f60e01b81526001600160a01b038381166004830152909116906305cfa06f90602401602060405180830381865afa15801561055d573d6000803e3d6000fd5b505050506040513d601f19601f8201168201806040525081019061058191906115e7565b6105cd5760405162461bcd60e51b815260206004820152601d60248201527f5461726765742070726f66696c6520646f6573206e6f742065786973740000006044820152606401610452565b3360009081526003602090815260408083206001600160a01b038516845290915290205460ff16156106415760405162461bcd60e51b815260206004820152601a60248201527f416c72656164792065787072657373656420696e7465726573740000000000006044820152606401610452565b3360009081526005602090815260408083206001600160a01b038516845290915290205460ff16156106b55760405162461bcd60e51b815260206004820152600f60248201527f416c7265616479206d61746368656400000000000000000000000000000000006044820152606401610452565b3360008181526003602090815260408083206001600160a01b0386168085529252808320805460ff19166001179055519092917fc56874b4f38eef16fc70b90012a49f0dc1e695cd837f1c58dbadbb7d21ac991091a36001600160a01b038116600090815260036020908152604080832033845290915290205460ff1615610741576107413382610bf0565b50565b61074c610cd5565b61075582610d8c565b61075f8282610d94565b5050565b600061076d610e81565b507f360894a13ba1a3210667c828492db98dca3e2076cc3735a920a3ca505d382bbc90565b61079a610eca565b6107a46000610f3e565b565b6001600160a01b03811660009081526004602090815260409182902080548351818402810184019094528084526060939283018282801561081057602002820191906000526020600020905b81546001600160a01b031681526001909101906020018083116107f2575b50505050509050919050565b6000610826610faf565b805490915060ff68010000000000000000820416159067ffffffffffffffff166000811580156108535750825b905060008267ffffffffffffffff1660011480156108705750303b155b90508115801561087e575080155b156108b5576040517ff92ee8a900000000000000000000000000000000000000000000000000000000815260040160405180910390fd5b845467ffffffffffffffff1916600117855583156108e957845468ff00000000000000001916680100000000000000001785555b6108f233610fd8565b6108fa610fe9565b600080546001600160a01b0388166001600160a01b03199182168117909255600180549091169091179055831561097057845468ff000000000000000019168555604051600181527fc7f505b2f371ae2175ee4913f4499e1f2633a7b5936321eed1cdaeb6115181d29060200160405180910390a15b505050505050565b610980610eca565b6001600160a01b0381166109c3576040517f1e4fbdf700000000000000000000000000000000000000000000000000000000815260006004820152602401610452565b61074181610f3e565b6001546001600160a01b03163314610a265760405162461bcd60e51b815260206004820152601d60248201527f4f6e6c792050726f66696c654e46542063616e2063616c6c20746869730000006044820152606401610452565b6001600160a01b038116600090815260046020908152604080832080548251818502810185019093528083529192909190830182828015610a9057602002820191906000526020600020905b81546001600160a01b03168152600190910190602001808311610a72575b505083519394506000925050505b81811015610b4e576000838281518110610aba57610aba611609565b6020908102919091018101516001600160a01b03808816600081815260058086526040808320948616808452948752808320805460ff199081169091559187528083208484528752808320805483169055600380885281842095845294875280832080548316905593865283822092825291909452922080549092169091559050610b458186610ff1565b50600101610a9e565b506001600160a01b0383166000908152600460205260408120610b70916113a5565b826001600160a01b03167f236eb7515b00733d8ade7456155d53d63c2fa66bec6437ddff6ab3fc71e1e32482604051610bab91815260200190565b60405180910390a2505050565b60046020528160005260406000208181548110610bd457600080fd5b6000918252602090912001546001600160a01b03169150829050565b60028054906000610c0083611635565b90915550506002546001600160a01b0383811660008181526004602090815260408083208054600180820183559185528385200180546001600160a01b0319908116978a16978817909155868552828520805480840182559086528486200180549091168617905584845260058084528285208786528452828520805460ff19908116841790915590845282852086865284529382902080549094161790925590518481527fab8add8f62f43e57de17a59ddf8165cdae8775f9a896edbc3f82cc10883f023a910160405180910390a3505050565b306001600160a01b037f0000000000000000000000000000000000000000000000000000000000000000161480610d6e57507f00000000000000000000000000000000000000000000000000000000000000006001600160a01b0316610d627f360894a13ba1a3210667c828492db98dca3e2076cc3735a920a3ca505d382bbc546001600160a01b031690565b6001600160a01b031614155b156107a45760405163703e46dd60e11b815260040160405180910390fd5b610741610eca565b816001600160a01b03166352d1902d6040518163ffffffff1660e01b8152600401602060405180830381865afa925050508015610dee575060408051601f3d908101601f19168201909252610deb9181019061164e565b60015b610e1657604051634c9c8ce360e01b81526001600160a01b0383166004820152602401610452565b7f360894a13ba1a3210667c828492db98dca3e2076cc3735a920a3ca505d382bbc8114610e72576040517faa1d49a400000000000000000000000000000000000000000000000000000000815260048101829052602401610452565b610e7c838361110c565b505050565b306001600160a01b037f000000000000000000000000000000000000000000000000000000000000000016146107a45760405163703e46dd60e11b815260040160405180910390fd5b33610efc7f9016d09d72d40fdae2fd8ceac6b6234c7706214fd39c1cd1e609a0528c199300546001600160a01b031690565b6001600160a01b0316146107a4576040517f118cdaa7000000000000000000000000000000000000000000000000000000008152336004820152602401610452565b7f9016d09d72d40fdae2fd8ceac6b6234c7706214fd39c1cd1e609a0528c19930080546001600160a01b031981166001600160a01b03848116918217845560405192169182907f8be0079c531659141344cd1fd0a4f28419497f9722a3daafe3b4186f6b6457e090600090a3505050565b6000807ff0c57e16840df040f15088dc2f81fe391c3923bec73e23a9662efc9c229c6a006103d2565b610fe0611162565b610741816111a0565b6107a4611162565b6001600160a01b0382166000908152600460205260408120805490915b8181101561110557836001600160a01b031683828154811061103257611032611609565b6000918252602090912001546001600160a01b0316036110fd5782611058600184611667565b8154811061106857611068611609565b9060005260206000200160009054906101000a90046001600160a01b031683828154811061109857611098611609565b9060005260206000200160006101000a8154816001600160a01b0302191690836001600160a01b03160217905550828054806110d6576110d661167a565b600082815260209020810160001990810180546001600160a01b0319169055019055611105565b60010161100e565b5050505050565b611115826111a8565b6040516001600160a01b038316907fbc7cd75a20ee27fd9adebab32041f755214dbc6bffa90cc0225b39da2e5c2d3b90600090a280511561115a57610e7c828261121f565b61075f611295565b61116a6112cd565b6107a4576040517fd7e6bcf800000000000000000000000000000000000000000000000000000000815260040160405180910390fd5b610980611162565b806001600160a01b03163b6000036111de57604051634c9c8ce360e01b81526001600160a01b0382166004820152602401610452565b7f360894a13ba1a3210667c828492db98dca3e2076cc3735a920a3ca505d382bbc80546001600160a01b0319166001600160a01b0392909216919091179055565b6060600080846001600160a01b03168460405161123c9190611690565b600060405180830381855af49150503d8060008114611277576040519150601f19603f3d011682016040523d82523d6000602084013e61127c565b606091505b509150915061128c8583836112ec565b95945050505050565b34156107a4576040517fb398979f00000000000000000000000000000000000000000000000000000000815260040160405180910390fd5b60006112d7610faf565b5468010000000000000000900460ff16919050565b606082611301576112fc82611364565b61135d565b815115801561131857506001600160a01b0384163b155b1561135a576040517f9996b3150000000000000000000000000000000000000000000000000000000081526001600160a01b0385166004820152602401610452565b50805b9392505050565b80511561137357805160208201fd5b6040517fd6bda27500000000000000000000000000000000000000000000000000000000815260040160405180910390fd5b508054600082559060005260206000209081019061074191905b808211156113d357600081556001016113bf565b5090565b80356001600160a01b03811681146113ee57600080fd5b919050565b6000806040838503121561140657600080fd5b61140f836113d7565b915061141d602084016113d7565b90509250929050565b60006020828403121561143857600080fd5b61135d826113d7565b634e487b7160e01b600052604160045260246000fd5b6000806040838503121561146a57600080fd5b611473836113d7565b9150602083013567ffffffffffffffff8082111561149057600080fd5b818501915085601f8301126114a457600080fd5b8135818111156114b6576114b6611441565b604051601f8201601f19908116603f011681019083821181831017156114de576114de611441565b816040528281528860208487010111156114f757600080fd5b8260208601602083013760006020848301015280955050505050509250929050565b6020808252825182820181905260009190848201906040850190845b8181101561155a5783516001600160a01b031683529284019291840191600101611535565b50909695505050505050565b60005b83811015611581578181015183820152602001611569565b50506000910152565b60208152600082518060208401526115a9816040850160208701611566565b601f01601f19169190910160400192915050565b600080604083850312156115d057600080fd5b6115d9836113d7565b946020939093013593505050565b6000602082840312156115f957600080fd5b8151801515811461135d57600080fd5b634e487b7160e01b600052603260045260246000fd5b634e487b7160e01b600052601160045260246000fd5b6000600182016116475761164761161f565b5060010190565b60006020828403121561166057600080fd5b5051919050565b818103818111156103d2576103d261161f565b634e487b7160e01b600052603160045260246000fd5b600082516116a2818460208701611566565b919091019291505056fea2646970667358221220831dd4536857876718f7c6eb2b72cc96b2f554110b866c1336eb564668f54dae64736f6c63430008160033",
  "linkReferences": {},
  "deployedLinkReferences": {}
}