{
  "_format": "hh-sol-artifact-1",
  "contractName": "Matching",
  "sourceName": "contracts/Matching.sol",
  "abi": [
    {
      "inputs": [
        {
          "internalType": "address",
          "name": "_profileNFT",
          "type": "address"
        }
      ],
      "stateMutability": "nonpayable",
      "type": "constructor"
    },
    {
      "anonymous": false,
      "inputs": [
        {
          "indexed": true,
          "internalType": "address",
          "name": "from",
          "type": "address"
        },
        {
          "indexed": true,
          "internalType": "address",
          "name": "to",
          "type": "address"
        }
      ],
      "name": "InterestExpressed",
      "type": "event"
    },
    {
      "anonymous": false,
      "inputs": [
        {
          "indexed": true,
          "internalType": "address",
          "name": "user1",
          "type": "address"
        },
        {
          "indexed": true,
          "internalType": "address",
          "name": "user2",
          "type": "address"
        },
        {
          "indexed": false,
          "internalType": "uint256",
          "name": "matchId",
          "type": "uint256"
        }
      ],
      "name": "MatchCreated",
      "type": "event"
    },
    {
      "anonymous": false,
      "inputs": [
        {
          "indexed": true,
          "internalType": "address",
          "name": "user",
          "type": "address"
        },
        {
          "indexed": false,
          "internalType": "uint256",
          "name": "matchesCleared",
          "type": "uint256"
        }
      ],
      "name": "ProfileDeleted",
      "type": "event"
    },
    {
      "inputs": [
        {
          "internalType": "address",
          "name": "targetUser",
          "type": "address"
        }
      ],
      "name": "expressInterest",
      "outputs": [],
      "stateMutability": "nonpayable",
      "type": "function"
    },
    {
      "inputs": [
        {
          "internalType": "address",
          "name": "user",
          "type": "address"
        }
      ],
      "name": "getMatches",
      "outputs": [
        {
          "internalType": "address[]",
          "name": "",
          "type": "address[]"
        }
      ],
      "stateMutability": "view",
      "type": "function"
    },
    {
      "inputs": [
        {
          "internalType": "address",
          "name": "from",
          "type": "address"
        },
        {
          "internalType": "address",
          "name": "to",
          "type": "address"
        }
      ],
      "name": "hasExpressedInterest",
      "outputs": [
        {
          "internalType": "bool",
          "name": "",
          "type": "bool"
        }
      ],
      "stateMutability": "view",
      "type": "function"
    },
    {
      "inputs": [
        {
          "internalType": "address",
          "name": "",
          "type": "address"
        },
        {
          "internalType": "address",
          "name": "",
          "type": "address"
        }
      ],
      "name": "interests",
      "outputs": [
        {
          "internalType": "bool",
          "name": "",
          "type": "bool"
        }
      ],
      "stateMutability": "view",
      "type": "function"
    },
    {
      "inputs": [
        {
          "internalType": "address",
          "name": "",
          "type": "address"
        },
        {
          "internalType": "address",
          "name": "",
          "type": "address"
        }
      ],
      "name": "isMatched",
      "outputs": [
        {
          "internalType": "bool",
          "name": "",
          "type": "bool"
        }
      ],
      "stateMutability": "view",
      "type": "function"
    },
    {
      "inputs": [
        {
          "internalType": "address",
          "name": "deletedUser",
          "type": "address"
        }
      ],
      "name": "notifyProfileDeleted",
      "outputs": [],
      "stateMutability": "nonpayable",
      "type": "function"
    },
    {
      "inputs": [],
      "name": "profileNFT",
      "outputs": [
        {
          "internalType": "contract IProfileNFT",
          "name": "",
          "type": "address"
        }
      ],
      "stateMutability": "view",
      "type": "function"
    },
    {
      "inputs": [],
      "name": "profileNFTContract",
      "outputs": [
        {
          "internalType": "address",
          "name": "",
          "type": "address"
        }
      ],
      "stateMutability": "view",
      "type": "function"
    },
    {
      "inputs": [
        {
          "internalType": "address",
          "name": "",
          "type": "address"
        },
        {
          "internalType": "uint256",
          "name": "",
          "type": "uint256"
        }
      ],
      "name": "userMatches",
      "outputs": [
        {
          "internalType": "address",
          "name": "",
          "type": "address"
        }
      ],
      "stateMutability": "view",
      "type": "function"
    }
  ],
  "bytecode": "0x608060405234801561001057600080fd5b50604051610ca6380380610ca683398101604081905261002f9161005e565b600080546001600160a01b039092166001600160a01b031992831681179091556001805490921617905561008e565b60006020828403121561007057600080fd5b81516001600160a01b038116811461008757600080fd5b9392505050565b610c098061009d6000396000f3fe608060405234801561001057600080fd5b50600436106100a35760003560e01c8063949675e911610076578063b9eb69f61161005b578063b9eb69f614610171578063f569f82f1461019f578063fd7fef9c146101b257600080fd5b8063949675e914610130578063a5b748751461014357600080fd5b80630fe3d326146100a85780633442d374146100d05780634e55427f146100e55780637779577814610110575b600080fd5b6100bb6100b6366004610a77565b6101c5565b60405190151581526020015b60405180910390f35b6100e36100de366004610aaa565b6101f5565b005b6001546100f8906001600160a01b031681565b6040516001600160a01b0390911681526020016100c7565b61012361011e366004610aaa565b610561565b6040516100c79190610acc565b6000546100f8906001600160a01b031681565b6100bb610151366004610a77565b600560209081526000928352604080842090915290825290205460ff1681565b6100bb61017f366004610a77565b600360209081526000928352604080842090915290825290205460ff1681565b6100e36101ad366004610aaa565b6105d7565b6100f86101c0366004610b19565b6107cd565b6001600160a01b0380831660009081526003602090815260408083209385168352929052205460ff165b92915050565b6001600160a01b03811633036102785760405162461bcd60e51b815260206004820152602360248201527f43616e6e6f74206578707265737320696e74657265737420696e20796f75727360448201527f656c66000000000000000000000000000000000000000000000000000000000060648201526084015b60405180910390fd5b6000546040516305cfa06f60e01b81523360048201526001600160a01b03909116906305cfa06f90602401602060405180830381865afa1580156102c0573d6000803e3d6000fd5b505050506040513d601f19601f820116820180604052508101906102e49190610b43565b6103305760405162461bcd60e51b815260206004820152601d60248201527f53656e6465722070726f66696c6520646f6573206e6f74206578697374000000604482015260640161026f565b6000546040516305cfa06f60e01b81526001600160a01b038381166004830152909116906305cfa06f90602401602060405180830381865afa15801561037a573d6000803e3d6000fd5b505050506040513d601f19601f8201168201806040525081019061039e9190610b43565b6103ea5760405162461bcd60e51b815260206004820152601d60248201527f5461726765742070726f66696c6520646f6573206e6f74206578697374000000604482015260640161026f565b3360009081526003602090815260408083206001600160a01b038516845290915290205460ff161561045e5760405162461bcd60e51b815260206004820152601a60248201527f416c72656164792065787072657373656420696e746572657374000000000000604482015260640161026f565b3360009081526005602090815260408083206001600160a01b038516845290915290205460ff16156104d25760405162461bcd60e51b815260206004820152600f60248201527f416c7265616479206d6174636865640000000000000000000000000000000000604482015260640161026f565b3360008181526003602090815260408083206001600160a01b0386168085529252808320805460ff19166001179055519092917fc56874b4f38eef16fc70b90012a49f0dc1e695cd837f1c58dbadbb7d21ac991091a36001600160a01b038116600090815260036020908152604080832033845290915290205460ff161561055e5761055e3382610805565b50565b6001600160a01b0381166000908152600460209081526040918290208054835181840281018401909452808452606093928301828280156105cb57602002820191906000526020600020905b81546001600160a01b031681526001909101906020018083116105ad575b50505050509050919050565b6001546001600160a01b031633146106315760405162461bcd60e51b815260206004820152601d60248201527f4f6e6c792050726f66696c654e46542063616e2063616c6c2074686973000000604482015260640161026f565b6001600160a01b03811660009081526004602090815260408083208054825181850281018501909352808352919290919083018282801561069b57602002820191906000526020600020905b81546001600160a01b0316815260019091019060200180831161067d575b505083519394506000925050505b818110156107635760008382815181106106c5576106c5610b65565b6020908102919091018101516001600160a01b03808816600081815260058086526040808320948616808452948752808320805460ff19908116909155918752808320848452875280832080548316905560038088528184209584529487528083208054831690559386528382209282529190945292208054909216909155905061075081866108f7565b508061075b81610b91565b9150506106a9565b506001600160a01b038316600090815260046020526040812061078591610a29565b826001600160a01b03167f236eb7515b00733d8ade7456155d53d63c2fa66bec6437ddff6ab3fc71e1e324826040516107c091815260200190565b60405180910390a2505050565b600460205281600052604060002081815481106107e957600080fd5b6000918252602090912001546001600160a01b03169150829050565b6002805490600061081583610b91565b90915550506002546001600160a01b03838116600081815260046020908152604080832080546001808201835591855283852001805473ffffffffffffffffffffffffffffffffffffffff19908116978a16978817909155868552828520805480840182559086528486200180549091168617905584845260058084528285208786528452828520805460ff19908116841790915590845282852086865284529382902080549094161790925590518481527fab8add8f62f43e57de17a59ddf8165cdae8775f9a896edbc3f82cc10883f023a910160405180910390a3505050565b6001600160a01b0382166000908152600460205260408120805490915b81811015610a2257836001600160a01b031683828154811061093857610938610b65565b6000918252602090912001546001600160a01b031603610a10578261095e600184610baa565b8154811061096e5761096e610b65565b9060005260206000200160009054906101000a90046001600160a01b031683828154811061099e5761099e610b65565b9060005260206000200160006101000a8154816001600160a01b0302191690836001600160a01b03160217905550828054806109dc576109dc610bbd565b6000828152602090208101600019908101805473ffffffffffffffffffffffffffffffffffffffff19169055019055610a22565b80610a1a81610b91565b915050610914565b5050505050565b508054600082559060005260206000209081019061055e91905b80821115610a575760008155600101610a43565b5090565b80356001600160a01b0381168114610a7257600080fd5b919050565b60008060408385031215610a8a57600080fd5b610a9383610a5b565b9150610aa160208401610a5b565b90509250929050565b600060208284031215610abc57600080fd5b610ac582610a5b565b9392505050565b6020808252825182820181905260009190848201906040850190845b81811015610b0d5783516001600160a01b031683529284019291840191600101610ae8565b50909695505050505050565b60008060408385031215610b2c57600080fd5b610b3583610a5b565b946020939093013593505050565b600060208284031215610b5557600080fd5b81518015158114610ac557600080fd5b634e487b7160e01b600052603260045260246000fd5b634e487b7160e01b600052601160045260246000fd5b600060018201610ba357610ba3610b7b565b5060010190565b818103818111156101ef576101ef610b7b565b634e487b7160e01b600052603160045260246000fdfea2646970667358221220c23a776451c2a183d091c64d32562c40622c8d91f49f201e34836cc2945bc84264736f6c63430008140033",
  "linkReferences": {},
  "deployedLinkReferences": {}
}