{
  "_format": "hh-sol-artifact-1",
  "contractName": "Matching",
  "sourceName": "contracts/Matching.sol",
  "abi": [
    {
      "inputs": [
        {
          "internalType": "address",
          "name": "_profileNFT",
          "type": "address"
        }
      ],
      "stateMutability": "nonpayable",
      "type": "constructor"
    },
    {
      "anonymous": false,
      "inputs": [
        {
          "indexed": true,
          "internalType": "address",
          "name": "from",
          "type": "address"
        },
        {
          "indexed": true,
          "internalType": "address",
          "name": "to",
          "type": "address"
        }
      ],
      "name": "InterestExpressed",
      "type": "event"
    },
    {
      "anonymous": false,
      "inputs": [
        {
          "indexed": true,
          "internalType": "address",
          "name": "user1",
          "type": "address"
        },
        {
          "indexed": true,
          "internalType": "address",
          "name": "user2",
          "type": "address"
        },
        {
          "indexed": false,
          "internalType": "uint256",
          "name": "matchId",
          "type": "uint256"
        }
      ],
      "name": "MatchCreated",
      "type": "event"
    },
    {
      "inputs": [
        {
          "internalType": "address",
          "name": "targetUser",
          "type": "address"
        }
      ],
      "name": "expressInterest",
      "outputs": [],
      "stateMutability": "nonpayable",
      "type": "function"
    },
    {
      "inputs": [
        {
          "internalType": "address",
          "name": "user",
          "type": "address"
        }
      ],
      "name": "getMatches",
      "outputs": [
        {
          "internalType": "address[]",
          "name": "",
          "type": "address[]"
        }
      ],
      "stateMutability": "view",
      "type": "function"
    },
    {
      "inputs": [
        {
          "internalType": "address",
          "name": "from",
          "type": "address"
        },
        {
          "internalType": "address",
          "name": "to",
          "type": "address"
        }
      ],
      "name": "hasExpressedInterest",
      "outputs": [
        {
          "internalType": "bool",
          "name": "",
          "type": "bool"
        }
      ],
      "stateMutability": "view",
      "type": "function"
    },
    {
      "inputs": [
        {
          "internalType": "address",
          "name": "",
          "type": "address"
        },
        {
          "internalType": "address",
          "name": "",
          "type": "address"
        }
      ],
      "name": "interests",
      "outputs": [
        {
          "internalType": "bool",
          "name": "",
          "type": "bool"
        }
      ],
      "stateMutability": "view",
      "type": "function"
    },
    {
      "inputs": [
        {
          "internalType": "address",
          "name": "",
          "type": "address"
        },
        {
          "internalType": "address",
          "name": "",
          "type": "address"
        }
      ],
      "name": "isMatched",
      "outputs": [
        {
          "internalType": "bool",
          "name": "",
          "type": "bool"
        }
      ],
      "stateMutability": "view",
      "type": "function"
    },
    {
      "inputs": [],
      "name": "profileNFT",
      "outputs": [
        {
          "internalType": "contract IProfileNFT",
          "name": "",
          "type": "address"
        }
      ],
      "stateMutability": "view",
      "type": "function"
    },
    {
      "inputs": [
        {
          "internalType": "address",
          "name": "",
          "type": "address"
        },
        {
          "internalType": "uint256",
          "name": "",
          "type": "uint256"
        }
      ],
      "name": "userMatches",
      "outputs": [
        {
          "internalType": "address",
          "name": "",
          "type": "address"
        }
      ],
      "stateMutability": "view",
      "type": "function"
    }
  ],
  "bytecode": "0x608060405234801561001057600080fd5b506040516108d33803806108d383398101604081905261002f91610054565b600080546001600160a01b0319166001600160a01b0392909216919091179055610084565b60006020828403121561006657600080fd5b81516001600160a01b038116811461007d57600080fd5b9392505050565b610840806100936000396000f3fe608060405234801561001057600080fd5b506004361061007d5760003560e01c8063949675e91161005b578063949675e914610108578063a5b7487514610133578063b9eb69f614610161578063fd7fef9c1461018f57600080fd5b80630fe3d326146100825780633442d374146100d357806377795778146100e8575b600080fd5b6100be6100903660046106dc565b6001600160a01b03918216600090815260026020908152604080832093909416825291909152205460ff1690565b60405190151581526020015b60405180910390f35b6100e66100e136600461070f565b6101a2565b005b6100fb6100f636600461070f565b61050e565b6040516100ca9190610731565b60005461011b906001600160a01b031681565b6040516001600160a01b0390911681526020016100ca565b6100be6101413660046106dc565b600460209081526000928352604080842090915290825290205460ff1681565b6100be61016f3660046106dc565b600260209081526000928352604080842090915290825290205460ff1681565b61011b61019d36600461077e565b610584565b6001600160a01b03811633036102255760405162461bcd60e51b815260206004820152602360248201527f43616e6e6f74206578707265737320696e74657265737420696e20796f75727360448201527f656c66000000000000000000000000000000000000000000000000000000000060648201526084015b60405180910390fd5b6000546040516305cfa06f60e01b81523360048201526001600160a01b03909116906305cfa06f90602401602060405180830381865afa15801561026d573d6000803e3d6000fd5b505050506040513d601f19601f8201168201806040525081019061029191906107a8565b6102dd5760405162461bcd60e51b815260206004820152601d60248201527f53656e6465722070726f66696c6520646f6573206e6f74206578697374000000604482015260640161021c565b6000546040516305cfa06f60e01b81526001600160a01b038381166004830152909116906305cfa06f90602401602060405180830381865afa158015610327573d6000803e3d6000fd5b505050506040513d601f19601f8201168201806040525081019061034b91906107a8565b6103975760405162461bcd60e51b815260206004820152601d60248201527f5461726765742070726f66696c6520646f6573206e6f74206578697374000000604482015260640161021c565b3360009081526002602090815260408083206001600160a01b038516845290915290205460ff161561040b5760405162461bcd60e51b815260206004820152601a60248201527f416c72656164792065787072657373656420696e746572657374000000000000604482015260640161021c565b3360009081526004602090815260408083206001600160a01b038516845290915290205460ff161561047f5760405162461bcd60e51b815260206004820152600f60248201527f416c7265616479206d6174636865640000000000000000000000000000000000604482015260640161021c565b3360008181526002602090815260408083206001600160a01b0386168085529252808320805460ff19166001179055519092917fc56874b4f38eef16fc70b90012a49f0dc1e695cd837f1c58dbadbb7d21ac991091a36001600160a01b038116600090815260026020908152604080832033845290915290205460ff161561050b5761050b33826105bc565b50565b6001600160a01b03811660009081526003602090815260409182902080548351818402810184019094528084526060939283018282801561057857602002820191906000526020600020905b81546001600160a01b0316815260019091019060200180831161055a575b50505050509050919050565b600360205281600052604060002081815481106105a057600080fd5b6000918252602090912001546001600160a01b03169150829050565b600180549060006105cc836107ca565b9091555050600180546001600160a01b038481166000818152600360209081526040808320805480890182559084528284200180547fffffffffffffffffffffffff0000000000000000000000000000000000000000908116968a169687179091558584528184208054808a0182559085528385200180549091168517905583835260048083528184208685528352818420805460ff199081168a17909155908352818420858552835292819020805490931690961790915593518381529293919290917fab8add8f62f43e57de17a59ddf8165cdae8775f9a896edbc3f82cc10883f023a910160405180910390a3505050565b80356001600160a01b03811681146106d757600080fd5b919050565b600080604083850312156106ef57600080fd5b6106f8836106c0565b9150610706602084016106c0565b90509250929050565b60006020828403121561072157600080fd5b61072a826106c0565b9392505050565b6020808252825182820181905260009190848201906040850190845b818110156107725783516001600160a01b03168352928401929184019160010161074d565b50909695505050505050565b6000806040838503121561079157600080fd5b61079a836106c0565b946020939093013593505050565b6000602082840312156107ba57600080fd5b8151801515811461072a57600080fd5b600060018201610803577f4e487b7100000000000000000000000000000000000000000000000000000000600052601160045260246000fd5b506001019056fea2646970667358221220b7b29a6172f57f5d29c30098c9876c66f4cb636d1d78e07936bdce53120ad9ff64736f6c63430008140033",
  "linkReferences": {},
  "deployedLinkReferences": {}
}