{
  "_format": "hh-sol-artifact-1",
  "contractName": "Matching",
  "sourceName": "contracts/Matching.sol",
  "abi": [
    {
      "inputs": [
        {
          "internalType": "address",
          "name": "target",
          "type": "address"
        }
      ],
      "name": "AddressEmptyCode",
      "type": "error"
    },
    {
      "inputs": [
        {
          "internalType": "address",
          "name": "implementation",
          "type": "address"
        }
      ],
      "name": "ERC1967InvalidImplementation",
      "type": "error"
    },
    {
      "inputs": [],
      "name": "ERC1967NonPayable",
      "type": "error"
    },
    {
      "inputs": [],
      "name": "FailedCall",
      "type": "error"
    },
    {
      "inputs": [],
      "name": "InvalidInitialization",
      "type": "error"
    },
    {
      "inputs": [],
      "name": "NotInitializing",
      "type": "error"
    },
    {
      "inputs": [
        {
          "internalType": "address",
          "name": "owner",
          "type": "address"
        }
      ],
      "name": "OwnableInvalidOwner",
      "type": "error"
    },
    {
      "inputs": [
        {
          "internalType": "address",
          "name": "account",
          "type": "address"
        }
      ],
      "name": "OwnableUnauthorizedAccount",
      "type": "error"
    },
    {
      "inputs": [],
      "name": "UUPSUnauthorizedCallContext",
      "type": "error"
    },
    {
      "inputs": [
        {
          "internalType": "bytes32",
          "name": "slot",
          "type": "bytes32"
        }
      ],
      "name": "UUPSUnsupportedProxiableUUID",
      "type": "error"
    },
    {
      "anonymous": false,
      "inputs": [
        {
          "indexed": false,
          "internalType": "uint64",
          "name": "version",
          "type": "uint64"
        }
      ],
      "name": "Initialized",
      "type": "event"
    },
    {
      "anonymous": false,
      "inputs": [
        {
          "indexed": true,
          "internalType": "address",
          "name": "from",
          "type": "address"
        },
        {
          "indexed": true,
          "internalType": "address",
          "name": "to",
          "type": "address"
        }
      ],
      "name": "InterestExpressed",
      "type": "event"
    },
    {
      "anonymous": false,
      "inputs": [
        {
          "indexed": true,
          "internalType": "address",
          "name": "user1",
          "type": "address"
        },
        {
          "indexed": true,
          "internalType": "address",
          "name": "user2",
          "type": "address"
        },
        {
          "indexed": false,
          "internalType": "uint256",
          "name": "matchId",
          "type": "uint256"
        }
      ],
      "name": "MatchCreated",
      "type": "event"
    },
    {
      "anonymous": false,
      "inputs": [
        {
          "indexed": true,
          "internalType": "address",
          "name": "user1",
          "type": "address"
        },
        {
          "indexed": true,
          "internalType": "address",
          "name": "user2",
          "type": "address"
        }
      ],
      "name": "MatchRemoved",
      "type": "event"
    },
    {
      "anonymous": false,
      "inputs": [
        {
          "indexed": true,
          "internalType": "address",
          "name": "previousOwner",
          "type": "address"
        },
        {
          "indexed": true,
          "internalType": "address",
          "name": "newOwner",
          "type": "address"
        }
      ],
      "name": "OwnershipTransferred",
      "type": "event"
    },
    {
      "anonymous": false,
      "inputs": [
        {
          "indexed": true,
          "internalType": "address",
          "name": "user",
          "type": "address"
        },
        {
          "indexed": false,
          "internalType": "uint256",
          "name": "matchesCleared",
          "type": "uint256"
        }
      ],
      "name": "ProfileDeleted",
      "type": "event"
    },
    {
      "anonymous": false,
      "inputs": [
        {
          "indexed": true,
          "internalType": "address",
          "name": "implementation",
          "type": "address"
        }
      ],
      "name": "Upgraded",
      "type": "event"
    },
    {
      "inputs": [],
      "name": "UPGRADE_INTERFACE_VERSION",
      "outputs": [
        {
          "internalType": "string",
          "name": "",
          "type": "string"
        }
      ],
      "stateMutability": "view",
      "type": "function"
    },
    {
      "inputs": [
        {
          "internalType": "address",
          "name": "targetUser",
          "type": "address"
        }
      ],
      "name": "expressInterest",
      "outputs": [],
      "stateMutability": "nonpayable",
      "type": "function"
    },
    {
      "inputs": [
        {
          "internalType": "address",
          "name": "user",
          "type": "address"
        }
      ],
      "name": "getMatches",
      "outputs": [
        {
          "internalType": "address[]",
          "name": "",
          "type": "address[]"
        }
      ],
      "stateMutability": "view",
      "type": "function"
    },
    {
      "inputs": [
        {
          "internalType": "address",
          "name": "from",
          "type": "address"
        },
        {
          "internalType": "address",
          "name": "to",
          "type": "address"
        }
      ],
      "name": "hasExpressedInterest",
      "outputs": [
        {
          "internalType": "bool",
          "name": "",
          "type": "bool"
        }
      ],
      "stateMutability": "view",
      "type": "function"
    },
    {
      "inputs": [
        {
          "internalType": "address",
          "name": "_profileNFT",
          "type": "address"
        }
      ],
      "name": "initialize",
      "outputs": [],
      "stateMutability": "nonpayable",
      "type": "function"
    },
    {
      "inputs": [
        {
          "internalType": "address",
          "name": "",
          "type": "address"
        },
        {
          "internalType": "address",
          "name": "",
          "type": "address"
        }
      ],
      "name": "interests",
      "outputs": [
        {
          "internalType": "bool",
          "name": "",
          "type": "bool"
        }
      ],
      "stateMutability": "view",
      "type": "function"
    },
    {
      "inputs": [
        {
          "internalType": "address",
          "name": "",
          "type": "address"
        },
        {
          "internalType": "address",
          "name": "",
          "type": "address"
        }
      ],
      "name": "isMatched",
      "outputs": [
        {
          "internalType": "bool",
          "name": "",
          "type": "bool"
        }
      ],
      "stateMutability": "view",
      "type": "function"
    },
    {
      "inputs": [
        {
          "internalType": "address",
          "name": "deletedUser",
          "type": "address"
        }
      ],
      "name": "notifyProfileDeleted",
      "outputs": [],
      "stateMutability": "nonpayable",
      "type": "function"
    },
    {
      "inputs": [],
      "name": "owner",
      "outputs": [
        {
          "internalType": "address",
          "name": "",
          "type": "address"
        }
      ],
      "stateMutability": "view",
      "type": "function"
    },
    {
      "inputs": [],
      "name": "profileNFT",
      "outputs": [
        {
          "internalType": "contract IProfileNFT",
          "name": "",
          "type": "address"
        }
      ],
      "stateMutability": "view",
      "type": "function"
    },
    {
      "inputs": [],
      "name": "profileNFTContract",
      "outputs": [
        {
          "internalType": "address",
          "name": "",
          "type": "address"
        }
      ],
      "stateMutability": "view",
      "type": "function"
    },
    {
      "inputs": [],
      "name": "proxiableUUID",
      "outputs": [
        {
          "internalType": "bytes32",
          "name": "",
          "type": "bytes32"
        }
      ],
      "stateMutability": "view",
      "type": "function"
    },
    {
      "inputs": [
        {
          "internalType": "address",
          "name": "matchedUser",
          "type": "address"
        }
      ],
      "name": "removeMatch",
      "outputs": [],
      "stateMutability": "nonpayable",
      "type": "function"
    },
    {
      "inputs": [],
      "name": "renounceOwnership",
      "outputs": [],
      "stateMutability": "nonpayable",
      "type": "function"
    },
    {
      "inputs": [
        {
          "internalType": "address",
          "name": "newOwner",
          "type": "address"
        }
      ],
      "name": "transferOwnership",
      "outputs": [],
      "stateMutability": "nonpayable",
      "type": "function"
    },
    {
      "inputs": [
        {
          "internalType": "address",
          "name": "newImplementation",
          "type": "address"
        },
        {
          "internalType": "bytes",
          "name": "data",
          "type": "bytes"
        }
      ],
      "name": "upgradeToAndCall",
      "outputs": [],
      "stateMutability": "payable",
      "type": "function"
    },
    {
      "inputs": [
        {
          "internalType": "address",
          "name": "",
          "type": "address"
        },
        {
          "internalType": "uint256",
          "name": "",
          "type": "uint256"
        }
      ],
      "name": "userMatches",
      "outputs": [
        {
          "internalType": "address",
          "name": "",
          "type": "address"
        }
      ],
      "stateMutability": "view",
      "type": "function"
    }
  ],
  "bytecode": "0x60a060405230608052348015610013575f80fd5b5060805161182e61003a5f395f8181610f7401528181610f9d0152611120015261182e5ff3fe608060405260043610610109575f3560e01c80638da5cb5b116100a1578063b9eb69f611610071578063f2fde38b11610057578063f2fde38b1461036d578063f569f82f1461038c578063fd7fef9c146103ab575f80fd5b8063b9eb69f614610315578063c4d66de81461034e575f80fd5b80638da5cb5b1461022d578063949675e914610269578063a5b7487514610287578063ad3cb1cc146102c0575f80fd5b80634f1ef286116100dc5780634f1ef286146101b857806352d1902d146101cb578063715018a6146101ed5780637779577814610201575f80fd5b80630fe3d3261461010d5780633442d37414610141578063356674e4146101625780634e55427f14610181575b5f80fd5b348015610118575f80fd5b5061012c61012736600461155e565b6103ca565b60405190151581526020015b60405180910390f35b34801561014c575f80fd5b5061016061015b36600461158f565b6103f9565b005b34801561016d575f80fd5b5061016061017c36600461158f565b61075b565b34801561018c575f80fd5b506001546101a0906001600160a01b031681565b6040516001600160a01b039091168152602001610138565b6101606101c63660046115bc565b6108de565b3480156101d6575f80fd5b506101df6108fd565b604051908152602001610138565b3480156101f8575f80fd5b5061016061092b565b34801561020c575f80fd5b5061022061021b36600461158f565b61093e565b6040516101389190611678565b348015610238575f80fd5b507f9016d09d72d40fdae2fd8ceac6b6234c7706214fd39c1cd1e609a0528c199300546001600160a01b03166101a0565b348015610274575f80fd5b505f546101a0906001600160a01b031681565b348015610292575f80fd5b5061012c6102a136600461155e565b600560209081525f928352604080842090915290825290205460ff1681565b3480156102cb575f80fd5b506103086040518060400160405280600581526020017f352e302e3000000000000000000000000000000000000000000000000000000081525081565b60405161013891906116e6565b348015610320575f80fd5b5061012c61032f36600461155e565b600360209081525f928352604080842090915290825290205460ff1681565b348015610359575f80fd5b5061016061036836600461158f565b6109b1565b348015610378575f80fd5b5061016061038736600461158f565b610b09565b348015610397575f80fd5b506101606103a636600461158f565b610b5c565b3480156103b6575f80fd5b506101a06103c5366004611718565b610d41565b6001600160a01b038083165f9081526003602090815260408083209385168352929052205460ff165b92915050565b6001600160a01b038116330361047c5760405162461bcd60e51b815260206004820152602360248201527f43616e6e6f74206578707265737320696e74657265737420696e20796f75727360448201527f656c66000000000000000000000000000000000000000000000000000000000060648201526084015b60405180910390fd5b5f546040516305cfa06f60e01b81523360048201526001600160a01b03909116906305cfa06f90602401602060405180830381865afa1580156104c1573d5f803e3d5ffd5b505050506040513d601f19601f820116820180604052508101906104e59190611740565b6105315760405162461bcd60e51b815260206004820152601d60248201527f53656e6465722070726f66696c6520646f6573206e6f742065786973740000006044820152606401610473565b5f546040516305cfa06f60e01b81526001600160a01b038381166004830152909116906305cfa06f90602401602060405180830381865afa158015610578573d5f803e3d5ffd5b505050506040513d601f19601f8201168201806040525081019061059c9190611740565b6105e85760405162461bcd60e51b815260206004820152601d60248201527f5461726765742070726f66696c6520646f6573206e6f742065786973740000006044820152606401610473565b335f9081526003602090815260408083206001600160a01b038516845290915290205460ff161561065b5760405162461bcd60e51b815260206004820152601a60248201527f416c72656164792065787072657373656420696e7465726573740000000000006044820152606401610473565b335f9081526005602090815260408083206001600160a01b038516845290915290205460ff16156106ce5760405162461bcd60e51b815260206004820152600f60248201527f416c7265616479206d61746368656400000000000000000000000000000000006044820152606401610473565b335f8181526003602090815260408083206001600160a01b0386168085529252808320805460ff19166001179055519092917fc56874b4f38eef16fc70b90012a49f0dc1e695cd837f1c58dbadbb7d21ac991091a36001600160a01b0381165f90815260036020908152604080832033845290915290205460ff1615610758576107583382610d75565b50565b6001600160a01b0381166107b15760405162461bcd60e51b815260206004820152600f60248201527f496e76616c6964206164647265737300000000000000000000000000000000006044820152606401610473565b335f9081526005602090815260408083206001600160a01b038516845290915290205460ff166108235760405162461bcd60e51b815260206004820152601a60248201527f4e6f74206d6174636865642077697468207468697320757365720000000000006044820152606401610473565b335f8181526005602081815260408084206001600160a01b038716808652908352818520805460ff199081169091559383528185208686528352818520805485169055600380845282862091865290835281852080548516905582528084208585529091529091208054909116905561089c9082610e58565b6108a68133610e58565b6040516001600160a01b0382169033907ff2477fd45f6785a68a2cbf07527a247088b0c4832b61085e209b41e936222993905f90a350565b6108e6610f69565b6108ef82611020565b6108f98282611028565b5050565b5f610906611115565b507f360894a13ba1a3210667c828492db98dca3e2076cc3735a920a3ca505d382bbc90565b61093361115e565b61093c5f6111d2565b565b6001600160a01b0381165f908152600460209081526040918290208054835181840281018401909452808452606093928301828280156109a557602002820191905f5260205f20905b81546001600160a01b03168152600190910190602001808311610987575b50505050509050919050565b5f6109ba611242565b805490915060ff68010000000000000000820416159067ffffffffffffffff165f811580156109e65750825b90505f8267ffffffffffffffff166001148015610a025750303b155b905081158015610a10575080155b15610a47576040517ff92ee8a900000000000000000000000000000000000000000000000000000000815260040160405180910390fd5b845467ffffffffffffffff191660011785558315610a7b57845468ff00000000000000001916680100000000000000001785555b610a843361126a565b610a8c61127b565b5f80546001600160a01b0388166001600160a01b031991821681179092556001805490911690911790558315610b0157845468ff000000000000000019168555604051600181527fc7f505b2f371ae2175ee4913f4499e1f2633a7b5936321eed1cdaeb6115181d29060200160405180910390a15b505050505050565b610b1161115e565b6001600160a01b038116610b53576040517f1e4fbdf70000000000000000000000000000000000000000000000000000000081525f6004820152602401610473565b610758816111d2565b6001546001600160a01b03163314610bb65760405162461bcd60e51b815260206004820152601d60248201527f4f6e6c792050726f66696c654e46542063616e2063616c6c20746869730000006044820152606401610473565b6001600160a01b0381165f90815260046020908152604080832080548251818502810185019093528083529192909190830182828015610c1d57602002820191905f5260205f20905b81546001600160a01b03168152600190910190602001808311610bff575b505083519394505f925050505b81811015610cd8575f838281518110610c4557610c4561175f565b6020908102919091018101516001600160a01b038088165f81815260058086526040808320948616808452948752808320805460ff199081169091559187528083208484528752808320805483169055600380885281842095845294875280832080548316905593865283822092825291909452922080549092169091559050610ccf8186610e58565b50600101610c2a565b506001600160a01b0383165f908152600460205260408120610cf991611515565b826001600160a01b03167f236eb7515b00733d8ade7456155d53d63c2fa66bec6437ddff6ab3fc71e1e32482604051610d3491815260200190565b60405180910390a2505050565b6004602052815f5260405f208181548110610d5a575f80fd5b5f918252602090912001546001600160a01b03169150829050565b60028054905f610d8483611787565b90915550506002546001600160a01b038381165f8181526004602090815260408083208054600180820183559185528385200180546001600160a01b0319908116978a16978817909155868552828520805480840182559086528486200180549091168617905584845260058084528285208786528452828520805460ff19908116841790915590845282852086865284529382902080549094161790925590518481527fab8add8f62f43e57de17a59ddf8165cdae8775f9a896edbc3f82cc10883f023a910160405180910390a3505050565b6001600160a01b0382165f908152600460205260408120805490915b81811015610f6257836001600160a01b0316838281548110610e9857610e9861175f565b5f918252602090912001546001600160a01b031603610f5a5782610ebd60018461179f565b81548110610ecd57610ecd61175f565b905f5260205f20015f9054906101000a90046001600160a01b0316838281548110610efa57610efa61175f565b905f5260205f20015f6101000a8154816001600160a01b0302191690836001600160a01b0316021790555082805480610f3557610f356117b2565b5f8281526020902081015f1990810180546001600160a01b0319169055019055610f62565b600101610e74565b5050505050565b306001600160a01b037f000000000000000000000000000000000000000000000000000000000000000016148061100257507f00000000000000000000000000000000000000000000000000000000000000006001600160a01b0316610ff67f360894a13ba1a3210667c828492db98dca3e2076cc3735a920a3ca505d382bbc546001600160a01b031690565b6001600160a01b031614155b1561093c5760405163703e46dd60e11b815260040160405180910390fd5b61075861115e565b816001600160a01b03166352d1902d6040518163ffffffff1660e01b8152600401602060405180830381865afa925050508015611082575060408051601f3d908101601f1916820190925261107f918101906117c6565b60015b6110aa57604051634c9c8ce360e01b81526001600160a01b0383166004820152602401610473565b7f360894a13ba1a3210667c828492db98dca3e2076cc3735a920a3ca505d382bbc8114611106576040517faa1d49a400000000000000000000000000000000000000000000000000000000815260048101829052602401610473565b6111108383611283565b505050565b306001600160a01b037f0000000000000000000000000000000000000000000000000000000000000000161461093c5760405163703e46dd60e11b815260040160405180910390fd5b336111907f9016d09d72d40fdae2fd8ceac6b6234c7706214fd39c1cd1e609a0528c199300546001600160a01b031690565b6001600160a01b03161461093c576040517f118cdaa7000000000000000000000000000000000000000000000000000000008152336004820152602401610473565b7f9016d09d72d40fdae2fd8ceac6b6234c7706214fd39c1cd1e609a0528c19930080546001600160a01b031981166001600160a01b03848116918217845560405192169182907f8be0079c531659141344cd1fd0a4f28419497f9722a3daafe3b4186f6b6457e0905f90a3505050565b5f807ff0c57e16840df040f15088dc2f81fe391c3923bec73e23a9662efc9c229c6a006103f3565b6112726112d8565b61075881611316565b61093c6112d8565b61128c8261131e565b6040516001600160a01b038316907fbc7cd75a20ee27fd9adebab32041f755214dbc6bffa90cc0225b39da2e5c2d3b905f90a28051156112d0576111108282611394565b6108f9611406565b6112e061143e565b61093c576040517fd7e6bcf800000000000000000000000000000000000000000000000000000000815260040160405180910390fd5b610b116112d8565b806001600160a01b03163b5f0361135357604051634c9c8ce360e01b81526001600160a01b0382166004820152602401610473565b7f360894a13ba1a3210667c828492db98dca3e2076cc3735a920a3ca505d382bbc80546001600160a01b0319166001600160a01b0392909216919091179055565b60605f80846001600160a01b0316846040516113b091906117dd565b5f60405180830381855af49150503d805f81146113e8576040519150601f19603f3d011682016040523d82523d5f602084013e6113ed565b606091505b50915091506113fd85838361145c565b95945050505050565b341561093c576040517fb398979f00000000000000000000000000000000000000000000000000000000815260040160405180910390fd5b5f611447611242565b5468010000000000000000900460ff16919050565b6060826114715761146c826114d4565b6114cd565b815115801561148857506001600160a01b0384163b155b156114ca576040517f9996b3150000000000000000000000000000000000000000000000000000000081526001600160a01b0385166004820152602401610473565b50805b9392505050565b8051156114e357805160208201fd5b6040517fd6bda27500000000000000000000000000000000000000000000000000000000815260040160405180910390fd5b5080545f8255905f5260205f209081019061075891905b8082111561153f575f815560010161152c565b5090565b80356001600160a01b0381168114611559575f80fd5b919050565b5f806040838503121561156f575f80fd5b61157883611543565b915061158660208401611543565b90509250929050565b5f6020828403121561159f575f80fd5b6114cd82611543565b634e487b7160e01b5f52604160045260245ffd5b5f80604083850312156115cd575f80fd5b6115d683611543565b9150602083013567ffffffffffffffff808211156115f2575f80fd5b818501915085601f830112611605575f80fd5b813581811115611617576116176115a8565b604051601f8201601f19908116603f0116810190838211818310171561163f5761163f6115a8565b81604052828152886020848701011115611657575f80fd5b826020860160208301375f6020848301015280955050505050509250929050565b602080825282518282018190525f9190848201906040850190845b818110156116b85783516001600160a01b031683529284019291840191600101611693565b50909695505050505050565b5f5b838110156116de5781810151838201526020016116c6565b50505f910152565b602081525f82518060208401526117048160408501602087016116c4565b601f01601f19169190910160400192915050565b5f8060408385031215611729575f80fd5b61173283611543565b946020939093013593505050565b5f60208284031215611750575f80fd5b815180151581146114cd575f80fd5b634e487b7160e01b5f52603260045260245ffd5b634e487b7160e01b5f52601160045260245ffd5b5f6001820161179857611798611773565b5060010190565b818103818111156103f3576103f3611773565b634e487b7160e01b5f52603160045260245ffd5b5f602082840312156117d6575f80fd5b5051919050565b5f82516117ee8184602087016116c4565b919091019291505056fea26469706673582212205484b922e9c706194db7f4ce93858bc41a4cbea8006347d6121f207720f1f4c464736f6c63430008160033",
  "linkReferences": {},
  "deployedLinkReferences": {}
}