{"contracts/Achievement.sol":{"Achievement":{"abi":[{"inputs":[{"internalType":"address","name":"target","type":"address"}],"name":"AddressEmptyCode","type":"error"},{"inputs":[{"internalType":"address","name":"implementation","type":"address"}],"name":"ERC1967InvalidImplementation","type":"error"},{"inputs":[],"name":"ERC1967NonPayable","type":"error"},{"inputs":[{"internalType":"address","name":"sender","type":"address"},{"internalType":"uint256","name":"tokenId","type":"uint256"},{"internalType":"address","name":"owner","type":"address"}],"name":"ERC721IncorrectOwner","type":"error"},{"inputs":[{"internalType":"address","name":"operator","type":"address"},{"internalType":"uint256","name":"tokenId","type":"uint256"}],"name":"ERC721InsufficientApproval","type":"error"},{"inputs":[{"internalType":"address","name":"approver","type":"address"}],"name":"ERC721InvalidApprover","type":"error"},{"inputs":[{"internalType":"address","name":"operator","type":"address"}],"name":"ERC721InvalidOperator","type":"error"},{"inputs":[{"internalType":"address","name":"owner","type":"address"}],"name":"ERC721InvalidOwner","type":"error"},{"inputs":[{"internalType":"address","name":"receiver","type":"address"}],"name":"ERC721InvalidReceiver","type":"error"},{"inputs":[{"internalType":"address","name":"sender","type":"address"}],"name":"ERC721InvalidSender","type":"error"},{"inputs":[{"internalType":"uint256","name":"tokenId","type":"uint256"}],"name":"ERC721NonexistentToken","type":"error"},{"inputs":[],"name":"FailedCall","type":"error"},{"inputs":[],"name":"InvalidInitialization","type":"error"},{"inputs":[],"name":"NotInitializing","type":"error"},{"inputs":[{"internalType":"address","name":"owner","type":"address"}],"name":"OwnableInvalidOwner","type":"error"},{"inputs":[{"internalType":"address","name":"account","type":"address"}],"name":"OwnableUnauthorizedAccount","type":"error"},{"inputs":[],"name":"UUPSUnauthorizedCallContext","type":"error"},{"inputs":[{"internalType":"bytes32","name":"slot","type":"bytes32"}],"name":"UUPSUnsupportedProxiableUUID","type":"error"},{"anonymous":false,"inputs":[{"indexed":true,"internalType":"address","name":"user","type":"address"},{"indexed":false,"internalType":"uint256","name":"tokenId","type":"uint256"},{"indexed":false,"internalType":"string","name":"achievementType","type":"string"}],"name":"AchievementMinted","type":"event"},{"anonymous":false,"inputs":[{"indexed":true,"internalType":"address","name":"owner","type":"address"},{"indexed":true,"internalType":"address","name":"approved","type":"address"},{"indexed":true,"internalType":"uint256","name":"tokenId","type":"uint256"}],"name":"Approval","type":"event"},{"anonymous":false,"inputs":[{"indexed":true,"internalType":"address","name":"owner","type":"address"},{"indexed":true,"internalType":"address","name":"operator","type":"address"},{"indexed":false,"internalType":"bool","name":"approved","type":"bool"}],"name":"ApprovalForAll","type":"event"},{"anonymous":false,"inputs":[{"indexed":false,"internalType":"uint64","name":"version","type":"uint64"}],"name":"Initialized","type":"event"},{"anonymous":false,"inputs":[{"indexed":true,"internalType":"address","name":"previousOwner","type":"address"},{"indexed":true,"internalType":"address","name":"newOwner","type":"address"}],"name":"OwnershipTransferred","type":"event"},{"anonymous":false,"inputs":[{"indexed":true,"internalType":"address","name":"from","type":"address"},{"indexed":true,"internalType":"address","name":"to","type":"address"},{"indexed":true,"internalType":"uint256","name":"tokenId","type":"uint256"}],"name":"Transfer","type":"event"},{"anonymous":false,"inputs":[{"indexed":true,"internalType":"address","name":"implementation","type":"address"}],"name":"Upgraded","type":"event"},{"inputs":[],"name":"UPGRADE_INTERFACE_VERSION","outputs":[{"internalType":"string","name":"","type":"string"}],"stateMutability":"view","type":"function"},{"inputs":[{"internalType":"uint256","name":"","type":"uint256"}],"name":"achievementMetadataURI","outputs":[{"internalType":"string","name":"","type":"string"}],"stateMutability":"view","type":"function"},{"inputs":[{"internalType":"address","name":"to","type":"address"},{"internalType":"uint256","name":"tokenId","type":"uint256"}],"name":"approve","outputs":[],"stateMutability":"nonpayable","type":"function"},{"inputs":[{"internalType":"address","name":"owner","type":"address"}],"name":"balanceOf","outputs":[{"internalType":"uint256","name":"","type":"uint256"}],"stateMutability":"view","type":"function"},{"inputs":[],"name":"baseMetadataURI","outputs":[{"internalType":"string","name":"","type":"string"}],"stateMutability":"view","type":"function"},{"inputs":[{"internalType":"uint256","name":"tokenId","type":"uint256"}],"name":"getApproved","outputs":[{"internalType":"address","name":"","type":"address"}],"stateMutability":"view","type":"function"},{"inputs":[{"internalType":"string","name":"achievementType","type":"string"}],"name":"getTokenIdFromType","outputs":[{"internalType":"uint256","name":"","type":"uint256"}],"stateMutability":"pure","type":"function"},{"inputs":[{"internalType":"address","name":"user","type":"address"}],"name":"getUserAchievements","outputs":[{"internalType":"uint256[]","name":"","type":"uint256[]"}],"stateMutability":"view","type":"function"},{"inputs":[{"internalType":"address","name":"user","type":"address"},{"internalType":"uint256","name":"tokenId","type":"uint256"}],"name":"hasEarnedAchievement","outputs":[{"internalType":"bool","name":"","type":"bool"}],"stateMutability":"view","type":"function"},{"inputs":[],"name":"initialize","outputs":[],"stateMutability":"nonpayable","type":"function"},{"inputs":[{"internalType":"address","name":"owner","type":"address"},{"internalType":"address","name":"operator","type":"address"}],"name":"isApprovedForAll","outputs":[{"internalType":"bool","name":"","type":"bool"}],"stateMutability":"view","type":"function"},{"inputs":[{"internalType":"address","name":"user","type":"address"},{"internalType":"string","name":"achievementType","type":"string"}],"name":"mintAchievement","outputs":[{"internalType":"bool","name":"","type":"bool"}],"stateMutability":"nonpayable","type":"function"},{"inputs":[],"name":"name","outputs":[{"internalType":"string","name":"","type":"string"}],"stateMutability":"view","type":"function"},{"inputs":[],"name":"owner","outputs":[{"internalType":"address","name":"","type":"address"}],"stateMutability":"view","type":"function"},{"inputs":[{"internalType":"uint256","name":"tokenId","type":"uint256"}],"name":"ownerOf","outputs":[{"internalType":"address","name":"","type":"address"}],"stateMutability":"view","type":"function"},{"inputs":[],"name":"proxiableUUID","outputs":[{"internalType":"bytes32","name":"","type":"bytes32"}],"stateMutability":"view","type":"function"},{"inputs":[],"name":"renounceOwnership","outputs":[],"stateMutability":"nonpayable","type":"function"},{"inputs":[{"internalType":"address","name":"from","type":"address"},{"internalType":"address","name":"to","type":"address"},{"internalType":"uint256","name":"tokenId","type":"uint256"}],"name":"safeTransferFrom","outputs":[],"stateMutability":"nonpayable","type":"function"},{"inputs":[{"internalType":"address","name":"","type":"address"},{"internalType":"address","name":"","type":"address"},{"internalType":"uint256","name":"","type":"uint256"},{"internalType":"bytes","name":"","type":"bytes"}],"name":"safeTransferFrom","outputs":[],"stateMutability":"pure","type":"function"},{"inputs":[{"internalType":"address","name":"operator","type":"address"},{"internalType":"bool","name":"approved","type":"bool"}],"name":"setApprovalForAll","outputs":[],"stateMutability":"nonpayable","type":"function"},{"inputs":[{"internalType":"string","name":"newBaseURI","type":"string"}],"name":"setBaseMetadataURI","outputs":[],"stateMutability":"nonpayable","type":"function"},{"inputs":[{"internalType":"bytes4","name":"interfaceId","type":"bytes4"}],"name":"supportsInterface","outputs":[{"internalType":"bool","name":"","type":"bool"}],"stateMutability":"view","type":"function"},{"inputs":[],"name":"symbol","outputs":[{"internalType":"string","name":"","type":"string"}],"stateMutability":"view","type":"function"},{"inputs":[{"internalType":"uint256","name":"tokenId","type":"uint256"}],"name":"tokenURI","outputs":[{"internalType":"string","name":"","type":"string"}],"stateMutability":"view","type":"function"},{"inputs":[{"internalType":"address","name":"","type":"address"},{"internalType":"address","name":"","type":"address"},{"internalType":"uint256","name":"","type":"uint256"}],"name":"transferFrom","outputs":[],"stateMutability":"pure","type":"function"},{"inputs":[{"internalType":"address","name":"newOwner","type":"address"}],"name":"transferOwnership","outputs":[],"stateMutability":"nonpayable","type":"function"},{"inputs":[{"internalType":"address","name":"newImplementation","type":"address"},{"internalType":"bytes","name":"data","type":"bytes"}],"name":"upgradeToAndCall","outputs":[],"stateMutability":"payable","type":"function"},{"inputs":[{"internalType":"address","name":"","type":"address"},{"internalType":"uint256","name":"","type":"uint256"}],"name":"userAchievements","outputs":[{"internalType":"uint256","name":"","type":"uint256"}],"stateMutability":"view","type":"function"},{"inputs":[{"internalType":"address","name":"","type":"address"},{"internalType":"uint256","name":"","type":"uint256"}],"name":"userHasEarnedAchievement","outputs":[{"internalType":"bool","name":"","type":"bool"}],"stateMutability":"view","type":"function"}],"evm":{"bytecode":{"linkReferences":{},"object":"60a060405230608052348015610013575f80fd5b5060805161285b61003a5f395f8181611280015281816112a90152611427015261285b5ff3fe6080604052600436106101ba575f3560e01c80636352211e116100f2578063a22cb46511610092578063e500f31c11610062578063e500f31c1461051c578063e985e9c514610560578063f09153c4146105c6578063f2fde38b146105f2575f80fd5b8063a22cb4651461047c578063ad3cb1cc1461049b578063b88d4fde146104e3578063c87b56dd146104fd575f80fd5b80637e518ec8116100cd5780637e518ec8146103f95780638129fc1c146104185780638da5cb5b1461042c57806395d89b4114610468575f80fd5b80636352211e146103a757806370a08231146103c6578063715018a6146103e5575f80fd5b806323b872dd1161015d5780634f1ef286116101385780634f1ef2861461034d5780634fcca15f1461036057806352d1902d1461037f5780635b2bd79e14610393575f80fd5b806323b872dd146102e257806324548c601461030157806342842e0e1461032e575f80fd5b8063095ea7b311610198578063095ea7b31461024a5780630fc7e0c31461026b578063155d07061461028a5780631e244808146102c3575f80fd5b806301ffc9a7146101be57806306fdde03146101f2578063081812fc14610213575b5f80fd5b3480156101c9575f80fd5b506101dd6101d83660046120e1565b610611565b60405190151581526020015b60405180910390f35b3480156101fd575f80fd5b506102066106ad565b6040516101e99190612149565b34801561021e575f80fd5b5061023261022d36600461215b565b610761565b6040516001600160a01b0390911681526020016101e9565b348015610255575f80fd5b5061026961026436600461218d565b6107a7565b005b348015610276575f80fd5b506101dd610285366004612252565b6107b6565b348015610295575f80fd5b506101dd6102a436600461218d565b600360209081525f928352604080842090915290825290205460ff1681565b3480156102ce575f80fd5b506102066102dd36600461215b565b6108f5565b3480156102ed575f80fd5b506102696102fc36600461229d565b61098c565b34801561030c575f80fd5b5061032061031b36600461218d565b6109fa565b6040519081526020016101e9565b348015610339575f80fd5b5061026961034836600461229d565b610a25565b61026961035b366004612252565b610a44565b34801561036b575f80fd5b5061032061037a3660046122d6565b610a5f565b34801561038a575f80fd5b50610320610c7f565b34801561039e575f80fd5b50610206610cad565b3480156103b2575f80fd5b506102326103c136600461215b565b610cba565b3480156103d1575f80fd5b506103206103e0366004612308565b610cc4565b3480156103f0575f80fd5b50610269610d48565b348015610404575f80fd5b506102696104133660046122d6565b610d5b565b348015610423575f80fd5b50610269610d7b565b348015610437575f80fd5b507f9016d09d72d40fdae2fd8ceac6b6234c7706214fd39c1cd1e609a0528c199300546001600160a01b0316610232565b348015610473575f80fd5b50610206610f4d565b348015610487575f80fd5b50610269610496366004612321565b610f9e565b3480156104a6575f80fd5b506102066040518060400160405280600581526020017f352e302e3000000000000000000000000000000000000000000000000000000081525081565b3480156104ee575f80fd5b506102696102fc36600461235a565b348015610508575f80fd5b5061020661051736600461215b565b610fa9565b348015610527575f80fd5b506101dd61053636600461218d565b6001600160a01b03919091165f908152600360209081526040808320938352929052205460ff1690565b34801561056b575f80fd5b506101dd61057a3660046123be565b6001600160a01b039182165f9081527f80bb2b638cc20bc4d0a60d66940f3ab4a00c1d7b313497ca82fb0b4ab00793056020908152604080832093909416825291909152205460ff1690565b3480156105d1575f80fd5b506105e56105e0366004612308565b6110c9565b6040516101e991906123ef565b3480156105fd575f80fd5b5061026961060c366004612308565b611131565b5f6001600160e01b031982167f80ac58cd00000000000000000000000000000000000000000000000000000000148061067357506001600160e01b031982167f5b5e139f00000000000000000000000000000000000000000000000000000000145b806106a757507f01ffc9a7000000000000000000000000000000000000000000000000000000006001600160e01b03198316145b92915050565b7f80bb2b638cc20bc4d0a60d66940f3ab4a00c1d7b313497ca82fb0b4ab007930080546060919081906106df90612432565b80601f016020809104026020016040519081016040528092919081815260200182805461070b90612432565b80156107565780601f1061072d57610100808354040283529160200191610756565b820191905f5260205f20905b81548152906001019060200180831161073957829003601f168201915b505050505091505090565b5f61076b82611184565b505f8281527f80bb2b638cc20bc4d0a60d66940f3ab4a00c1d7b313497ca82fb0b4ab007930460205260409020546001600160a01b03166106a7565b6107b28282336111db565b5050565b5f6107bf6111e8565b5f6107c983610a5f565b90505f811161081f5760405162461bcd60e51b815260206004820152601860248201527f496e76616c696420616368696576656d656e742074797065000000000000000060448201526064015b60405180910390fd5b6001600160a01b0384165f90815260036020908152604080832084845290915290205460ff1615610853575f9150506106a7565b6001600160a01b0384165f9081526003602090815260408083208484529091529020805460ff1916600117905561088a848261125c565b6001600160a01b0384165f818152600160208181526040808420805493840181558452922001839055517f2a61f547ba5bf846cf758fdf30cfbada376ff8325ca400d2bb5ce0970ca406d8906108e3908490879061246a565b60405180910390a25060019392505050565b60026020525f90815260409020805461090d90612432565b80601f016020809104026020016040519081016040528092919081815260200182805461093990612432565b80156109845780601f1061095b57610100808354040283529160200191610984565b820191905f5260205f20905b81548152906001019060200180831161096757829003601f168201915b505050505081565b60405162461bcd60e51b815260206004820152602960248201527f416368696576656d656e743a204e6f6e2d7472616e7366657261626c6520285360448201527f6f756c626f756e642900000000000000000000000000000000000000000000006064820152608401610816565b6001602052815f5260405f208181548110610a13575f80fd5b905f5260205f20015f91509150505481565b610a3f83838360405180602001604052805f81525061098c565b505050565b610a4c611275565b610a558261132c565b6107b28282611334565b5f8082604051602001610a729190612482565b604051602081830303815290604052805190602001209050604051602001610abd907f46697273742044617465000000000000000000000000000000000000000000008152600a0190565b604051602081830303815290604052805190602001208103610ae25750600192915050565b6040517f35204461746573000000000000000000000000000000000000000000000000006020820152602701604051602081830303815290604052805190602001208103610b335750600292915050565b6040517f31302044617465730000000000000000000000000000000000000000000000006020820152602801604051602081830303815290604052805190602001208103610b845750600392915050565b6040517f35205374617220526174696e67000000000000000000000000000000000000006020820152602d01604051602081830303815290604052805190602001208103610bd55750600492915050565b6040517f50657266656374205765656b00000000000000000000000000000000000000006020820152602c01604051602081830303815290604052805190602001208103610c265750600592915050565b6040517f4d61746368204d616b65720000000000000000000000000000000000000000006020820152602b01604051602081830303815290604052805190602001208103610c775750600692915050565b505f92915050565b5f610c8861141c565b507f360894a13ba1a3210667c828492db98dca3e2076cc3735a920a3ca505d382bbc90565b6004805461090d90612432565b5f6106a782611184565b5f7f80bb2b638cc20bc4d0a60d66940f3ab4a00c1d7b313497ca82fb0b4ab00793006001600160a01b038316610d28576040517f89c62b640000000000000000000000000000000000000000000000000000000081525f6004820152602401610816565b6001600160a01b039092165f908152600390920160205250604090205490565b610d506111e8565b610d595f611465565b565b610d636111e8565b6004610d6f82826124e1565b50610d786114e2565b50565b5f610d846116f1565b805490915060ff68010000000000000000820416159067ffffffffffffffff165f81158015610db05750825b90505f8267ffffffffffffffff166001148015610dcc5750303b155b905081158015610dda575080155b15610e11576040517ff92ee8a900000000000000000000000000000000000000000000000000000000815260040160405180910390fd5b845467ffffffffffffffff191660011785558315610e4557845468ff00000000000000001916680100000000000000001785555b610eb96040518060400160405280601581526020017f426173654d6174636820416368696576656d656e7400000000000000000000008152506040518060400160405280600581526020017f424d414348000000000000000000000000000000000000000000000000000000815250611719565b610ec23361172b565b610eca61173c565b5f80556040805160808101909152605c8082526127ca6020830139600490610ef290826124e1565b50610efb6114e2565b8315610f4657845468ff000000000000000019168555604051600181527fc7f505b2f371ae2175ee4913f4499e1f2633a7b5936321eed1cdaeb6115181d29060200160405180910390a15b5050505050565b7f80bb2b638cc20bc4d0a60d66940f3ab4a00c1d7b313497ca82fb0b4ab007930180546060917f80bb2b638cc20bc4d0a60d66940f3ab4a00c1d7b313497ca82fb0b4ab0079300916106df90612432565b6107b2338383611744565b5f8181527f80bb2b638cc20bc4d0a60d66940f3ab4a00c1d7b313497ca82fb0b4ab007930260205260409020546060906001600160a01b031661102e5760405162461bcd60e51b815260206004820152601860248201527f4552433732313a20496e76616c696420746f6b656e20494400000000000000006044820152606401610816565b5f828152600260205260409020805461104690612432565b80601f016020809104026020016040519081016040528092919081815260200182805461107290612432565b80156110bd5780601f10611094576101008083540402835291602001916110bd565b820191905f5260205f20905b8154815290600101906020018083116110a057829003601f168201915b50505050509050919050565b6001600160a01b0381165f908152600160209081526040918290208054835181840281018401909452808452606093928301828280156110bd57602002820191905f5260205f20905b8154815260200190600101908083116111125750505050509050919050565b6111396111e8565b6001600160a01b03811661117b576040517f1e4fbdf70000000000000000000000000000000000000000000000000000000081525f6004820152602401610816565b610d7881611465565b5f8181527f80bb2b638cc20bc4d0a60d66940f3ab4a00c1d7b313497ca82fb0b4ab007930260205260408120546001600160a01b0316806106a757604051637e27328960e01b815260048101849052602401610816565b610a3f838383600161181f565b3361121a7f9016d09d72d40fdae2fd8ceac6b6234c7706214fd39c1cd1e609a0528c199300546001600160a01b031690565b6001600160a01b031614610d59576040517f118cdaa7000000000000000000000000000000000000000000000000000000008152336004820152602401610816565b6107b2828260405180602001604052805f8152506119a8565b306001600160a01b037f000000000000000000000000000000000000000000000000000000000000000016148061130e57507f00000000000000000000000000000000000000000000000000000000000000006001600160a01b03166113027f360894a13ba1a3210667c828492db98dca3e2076cc3735a920a3ca505d382bbc546001600160a01b031690565b6001600160a01b031614155b15610d595760405163703e46dd60e11b815260040160405180910390fd5b610d786111e8565b816001600160a01b03166352d1902d6040518163ffffffff1660e01b8152600401602060405180830381865afa92505050801561138e575060408051601f3d908101601f1916820190925261138b9181019061259d565b60015b6113b657604051634c9c8ce360e01b81526001600160a01b0383166004820152602401610816565b7f360894a13ba1a3210667c828492db98dca3e2076cc3735a920a3ca505d382bbc8114611412576040517faa1d49a400000000000000000000000000000000000000000000000000000000815260048101829052602401610816565b610a3f83836119bf565b306001600160a01b037f00000000000000000000000000000000000000000000000000000000000000001614610d595760405163703e46dd60e11b815260040160405180910390fd5b7f9016d09d72d40fdae2fd8ceac6b6234c7706214fd39c1cd1e609a0528c199300805473ffffffffffffffffffffffffffffffffffffffff1981166001600160a01b03848116918217845560405192169182907f8be0079c531659141344cd1fd0a4f28419497f9722a3daafe3b4186f6b6457e0905f90a3505050565b60046040516020016114f49190612623565b60408051601f1981840301815291905260015f5260026020527fe90b7bceb6e7df5418fb78d8ee546e97c83a08bbccc01a0644d599ccd2a7c2e09061153990826124e1565b50600460405160200161154c919061265b565b60408051601f1981840301815291905260025f8190526020527f679795a0195a1b76cdebb7c51d74e058aee92919b8c3389af86ef24535e8a28c9061159190826124e1565b5060046040516020016115a49190612693565b60408051601f1981840301815291905260035f5260026020527f88601476d11616a71c5be67555bd1dff4b1cbf21533d2669b768b61518cfe1c3906115e990826124e1565b5060046040516020016115fc91906126cb565b60408051601f1981840301815291905260045f5260026020527fee60d0579bcffd98e668647d59fec1ff86a7fb340ce572e844f234ae73a6918f9061164190826124e1565b5060046040516020016116549190612703565b60408051601f1981840301815291905260055f5260026020527fb98b78633099fa36ed8b8680c4f8092689e1e04080eb9cbb077ca38a14d7e3849061169990826124e1565b5060046040516020016116ac919061273b565b60408051601f1981840301815291905260065f5260026020527f59dd4b18488d12f51eda69757a0ed42a2010c14b564330cc74a06895e60c077b90610d7890826124e1565b5f807ff0c57e16840df040f15088dc2f81fe391c3923bec73e23a9662efc9c229c6a006106a7565b611721611a14565b6107b28282611a52565b611733611a14565b610d7881611a9b565b610d59611a14565b7f80bb2b638cc20bc4d0a60d66940f3ab4a00c1d7b313497ca82fb0b4ab00793006001600160a01b0383166117b0576040517f5b08ba180000000000000000000000000000000000000000000000000000000081526001600160a01b0384166004820152602401610816565b6001600160a01b038481165f818152600584016020908152604080832094881680845294825291829020805460ff191687151590811790915591519182527f17307eab39ab6107e8899845ad3d59bd9653f200f220920489ca2b5937696c31910160405180910390a350505050565b7f80bb2b638cc20bc4d0a60d66940f3ab4a00c1d7b313497ca82fb0b4ab0079300818061185457506001600160a01b03831615155b1561196b575f61186385611184565b90506001600160a01b0384161580159061188f5750836001600160a01b0316816001600160a01b031614155b80156118df57506001600160a01b038082165f9081527f80bb2b638cc20bc4d0a60d66940f3ab4a00c1d7b313497ca82fb0b4ab0079305602090815260408083209388168352929052205460ff16155b15611921576040517fa9fbf51f0000000000000000000000000000000000000000000000000000000081526001600160a01b0385166004820152602401610816565b82156119695784866001600160a01b0316826001600160a01b03167f8c5be1e5ebec7d5bd14f71427d1e84f3dd0314c0f7b2291e5b200ac8c7c3b92560405160405180910390a45b505b5f938452600401602052505060409020805473ffffffffffffffffffffffffffffffffffffffff19166001600160a01b0392909216919091179055565b6119b28383611aa3565b610a3f335f858585611b1d565b6119c882611c44565b6040516001600160a01b038316907fbc7cd75a20ee27fd9adebab32041f755214dbc6bffa90cc0225b39da2e5c2d3b905f90a2805115611a0c57610a3f8282611cc7565b6107b2611d39565b611a1c611d71565b610d59576040517fd7e6bcf800000000000000000000000000000000000000000000000000000000815260040160405180910390fd5b611a5a611a14565b7f80bb2b638cc20bc4d0a60d66940f3ab4a00c1d7b313497ca82fb0b4ab007930080611a8684826124e1565b5060018101611a9583826124e1565b50505050565b611139611a14565b6001600160a01b038216611acc57604051633250574960e11b81525f6004820152602401610816565b5f611ad883835f611d8f565b90506001600160a01b03811615610a3f576040517f73c6ac6e0000000000000000000000000000000000000000000000000000000081525f6004820152602401610816565b6001600160a01b0383163b15610f4657604051630a85bd0160e11b81526001600160a01b0384169063150b7a0290611b5f908890889087908790600401612773565b6020604051808303815f875af1925050508015611b99575060408051601f3d908101601f19168201909252611b96918101906127ae565b60015b611c00573d808015611bc6576040519150601f19603f3d011682016040523d82523d5f602084013e611bcb565b606091505b5080515f03611bf857604051633250574960e11b81526001600160a01b0385166004820152602401610816565b805160208201fd5b6001600160e01b03198116630a85bd0160e11b14611c3c57604051633250574960e11b81526001600160a01b0385166004820152602401610816565b505050505050565b806001600160a01b03163b5f03611c7957604051634c9c8ce360e01b81526001600160a01b0382166004820152602401610816565b7f360894a13ba1a3210667c828492db98dca3e2076cc3735a920a3ca505d382bbc805473ffffffffffffffffffffffffffffffffffffffff19166001600160a01b0392909216919091179055565b60605f80846001600160a01b031684604051611ce39190612482565b5f60405180830381855af49150503d805f8114611d1b576040519150601f19603f3d011682016040523d82523d5f602084013e611d20565b606091505b5091509150611d30858383611ed8565b95945050505050565b3415610d59576040517fb398979f00000000000000000000000000000000000000000000000000000000815260040160405180910390fd5b5f611d7a6116f1565b5468010000000000000000900460ff16919050565b5f8281527f80bb2b638cc20bc4d0a60d66940f3ab4a00c1d7b313497ca82fb0b4ab007930260205260408120547f80bb2b638cc20bc4d0a60d66940f3ab4a00c1d7b313497ca82fb0b4ab0079300906001600160a01b0390811690841615611dfc57611dfc818587611f4d565b6001600160a01b03811615611e3857611e175f865f8061181f565b6001600160a01b0381165f908152600383016020526040902080545f190190555b6001600160a01b03861615611e68576001600160a01b0386165f9081526003830160205260409020805460010190555b5f858152600283016020526040808220805473ffffffffffffffffffffffffffffffffffffffff19166001600160a01b038a811691821790925591518893918516917fddf252ad1be2c89b69c2b068fc378daa952ba7f163c4a11628f55a4df523b3ef91a49150505b9392505050565b606082611eed57611ee882611fca565b611ed1565b8151158015611f0457506001600160a01b0384163b155b15611f46576040517f9996b3150000000000000000000000000000000000000000000000000000000081526001600160a01b0385166004820152602401610816565b5080611ed1565b611f5883838361200b565b610a3f576001600160a01b038316611f8657604051637e27328960e01b815260048101829052602401610816565b6040517f177e802f0000000000000000000000000000000000000000000000000000000081526001600160a01b038316600482015260248101829052604401610816565b805115611fd957805160208201fd5b6040517fd6bda27500000000000000000000000000000000000000000000000000000000815260040160405180910390fd5b5f6001600160a01b038316158015906120c45750826001600160a01b0316846001600160a01b0316148061208257506001600160a01b038085165f9081527f80bb2b638cc20bc4d0a60d66940f3ab4a00c1d7b313497ca82fb0b4ab0079305602090815260408083209387168352929052205460ff165b806120c457505f8281527f80bb2b638cc20bc4d0a60d66940f3ab4a00c1d7b313497ca82fb0b4ab007930460205260409020546001600160a01b038481169116145b949350505050565b6001600160e01b031981168114610d78575f80fd5b5f602082840312156120f1575f80fd5b8135611ed1816120cc565b5f5b838110156121165781810151838201526020016120fe565b50505f910152565b5f81518084526121358160208601602086016120fc565b601f01601f19169290920160200192915050565b602081525f611ed1602083018461211e565b5f6020828403121561216b575f80fd5b5035919050565b80356001600160a01b0381168114612188575f80fd5b919050565b5f806040838503121561219e575f80fd5b6121a783612172565b946020939093013593505050565b634e487b7160e01b5f52604160045260245ffd5b5f82601f8301126121d8575f80fd5b813567ffffffffffffffff808211156121f3576121f36121b5565b604051601f8301601f19908116603f0116810190828211818310171561221b5761221b6121b5565b81604052838152866020858801011115612233575f80fd5b836020870160208301375f602085830101528094505050505092915050565b5f8060408385031215612263575f80fd5b61226c83612172565b9150602083013567ffffffffffffffff811115612287575f80fd5b612293858286016121c9565b9150509250929050565b5f805f606084860312156122af575f80fd5b6122b884612172565b92506122c660208501612172565b9150604084013590509250925092565b5f602082840312156122e6575f80fd5b813567ffffffffffffffff8111156122fc575f80fd5b6120c4848285016121c9565b5f60208284031215612318575f80fd5b611ed182612172565b5f8060408385031215612332575f80fd5b61233b83612172565b91506020830135801515811461234f575f80fd5b809150509250929050565b5f805f806080858703121561236d575f80fd5b61237685612172565b935061238460208601612172565b925060408501359150606085013567ffffffffffffffff8111156123a6575f80fd5b6123b2878288016121c9565b91505092959194509250565b5f80604083850312156123cf575f80fd5b6123d883612172565b91506123e660208401612172565b90509250929050565b602080825282518282018190525f9190848201906040850190845b818110156124265783518352928401929184019160010161240a565b50909695505050505050565b600181811c9082168061244657607f821691505b60208210810361246457634e487b7160e01b5f52602260045260245ffd5b50919050565b828152604060208201525f6120c4604083018461211e565b5f82516124938184602087016120fc565b9190910192915050565b601f821115610a3f57805f5260205f20601f840160051c810160208510156124c25750805b601f840160051c820191505b81811015610f46575f81556001016124ce565b815167ffffffffffffffff8111156124fb576124fb6121b5565b61250f816125098454612432565b8461249d565b602080601f831160018114612542575f841561252b5750858301515b5f19600386901b1c1916600185901b178555611c3c565b5f85815260208120601f198616915b8281101561257057888601518255948401946001909101908401612551565b508582101561258d57878501515f19600388901b60f8161c191681555b5050505050600190811b01905550565b5f602082840312156125ad575f80fd5b5051919050565b5f81546125c081612432565b600182811680156125d857600181146125ed57612619565b60ff1984168752821515830287019450612619565b855f526020805f205f5b858110156126105781548a8201529084019082016125f7565b50505082870194505b5050505092915050565b5f61262e82846125b4565b7f66697273742d646174652e6a736f6e00000000000000000000000000000000008152600f019392505050565b5f61266682846125b4565b7f352d64617465732e6a736f6e00000000000000000000000000000000000000008152600c019392505050565b5f61269e82846125b4565b7f31302d64617465732e6a736f6e000000000000000000000000000000000000008152600d019392505050565b5f6126d682846125b4565b7f352d737461722e6a736f6e0000000000000000000000000000000000000000008152600b019392505050565b5f61270e82846125b4565b7f706572666563742d7765656b2e6a736f6e00000000000000000000000000000081526011019392505050565b5f61274682846125b4565b7f6d617463682d6d616b65722e6a736f6e0000000000000000000000000000000081526010019392505050565b5f6001600160a01b038087168352808616602084015250836040830152608060608301526127a4608083018461211e565b9695505050505050565b5f602082840312156127be575f80fd5b8151611ed1816120cc56fe68747470733a2f2f657175616c2d62726f6e7a652d6261742e6d7966696c65626173652e636f6d2f697066732f516d55614b56466f735566476167596d7545396654716b7731394c4b4a3946334a6f6237514574726e555a4a64572fa26469706673582212204eb1ba1d2a349b1abad7825fc371d82059718bcb77507bbfcf2b86bdd405fe6164736f6c63430008160033","opcodes":"PUSH1 0xA0 PUSH1 0x40 MSTORE ADDRESS PUSH1 0x80 MSTORE CALLVALUE DUP1 ISZERO PUSH2 0x13 JUMPI PUSH0 DUP1 REVERT JUMPDEST POP PUSH1 0x80 MLOAD PUSH2 0x285B PUSH2 0x3A PUSH0 CODECOPY PUSH0 DUP2 DUP2 PUSH2 0x1280 ADD MSTORE DUP2 DUP2 PUSH2 0x12A9 ADD MSTORE PUSH2 0x1427 ADD MSTORE PUSH2 0x285B PUSH0 RETURN INVALID PUSH1 0x80 PUSH1 0x40 MSTORE PUSH1 0x4 CALLDATASIZE LT PUSH2 0x1BA JUMPI PUSH0 CALLDATALOAD PUSH1 0xE0 SHR DUP1 PUSH4 0x6352211E GT PUSH2 0xF2 JUMPI DUP1 PUSH4 0xA22CB465 GT PUSH2 0x92 JUMPI DUP1 PUSH4 0xE500F31C GT PUSH2 0x62 JUMPI DUP1 PUSH4 0xE500F31C EQ PUSH2 0x51C JUMPI DUP1 PUSH4 0xE985E9C5 EQ PUSH2 0x560 JUMPI DUP1 PUSH4 0xF09153C4 EQ PUSH2 0x5C6 JUMPI DUP1 PUSH4 0xF2FDE38B EQ PUSH2 0x5F2 JUMPI PUSH0 DUP1 REVERT JUMPDEST DUP1 PUSH4 0xA22CB465 EQ PUSH2 0x47C JUMPI DUP1 PUSH4 0xAD3CB1CC EQ PUSH2 0x49B JUMPI DUP1 PUSH4 0xB88D4FDE EQ PUSH2 0x4E3 JUMPI DUP1 PUSH4 0xC87B56DD EQ PUSH2 0x4FD JUMPI PUSH0 DUP1 REVERT JUMPDEST DUP1 PUSH4 0x7E518EC8 GT PUSH2 0xCD JUMPI DUP1 PUSH4 0x7E518EC8 EQ PUSH2 0x3F9 JUMPI DUP1 PUSH4 0x8129FC1C EQ PUSH2 0x418 JUMPI DUP1 PUSH4 0x8DA5CB5B EQ PUSH2 0x42C JUMPI DUP1 PUSH4 0x95D89B41 EQ PUSH2 0x468 JUMPI PUSH0 DUP1 REVERT JUMPDEST DUP1 PUSH4 0x6352211E EQ PUSH2 0x3A7 JUMPI DUP1 PUSH4 0x70A08231 EQ PUSH2 0x3C6 JUMPI DUP1 PUSH4 0x715018A6 EQ PUSH2 0x3E5 JUMPI PUSH0 DUP1 REVERT JUMPDEST DUP1 PUSH4 0x23B872DD GT PUSH2 0x15D JUMPI DUP1 PUSH4 0x4F1EF286 GT PUSH2 0x138 JUMPI DUP1 PUSH4 0x4F1EF286 EQ PUSH2 0x34D JUMPI DUP1 PUSH4 0x4FCCA15F EQ PUSH2 0x360 JUMPI DUP1 PUSH4 0x52D1902D EQ PUSH2 0x37F JUMPI DUP1 PUSH4 0x5B2BD79E EQ PUSH2 0x393 JUMPI PUSH0 DUP1 REVERT JUMPDEST DUP1 PUSH4 0x23B872DD EQ PUSH2 0x2E2 JUMPI DUP1 PUSH4 0x24548C60 EQ PUSH2 0x301 JUMPI DUP1 PUSH4 0x42842E0E EQ PUSH2 0x32E JUMPI PUSH0 DUP1 REVERT JUMPDEST DUP1 PUSH4 0x95EA7B3 GT PUSH2 0x198 JUMPI DUP1 PUSH4 0x95EA7B3 EQ PUSH2 0x24A JUMPI DUP1 PUSH4 0xFC7E0C3 EQ PUSH2 0x26B JUMPI DUP1 PUSH4 0x155D0706 EQ PUSH2 0x28A JUMPI DUP1 PUSH4 0x1E244808 EQ PUSH2 0x2C3 JUMPI PUSH0 DUP1 REVERT JUMPDEST DUP1 PUSH4 0x1FFC9A7 EQ PUSH2 0x1BE JUMPI DUP1 PUSH4 0x6FDDE03 EQ PUSH2 0x1F2 JUMPI DUP1 PUSH4 0x81812FC EQ PUSH2 0x213 JUMPI JUMPDEST PUSH0 DUP1 REVERT JUMPDEST CALLVALUE DUP1 ISZERO PUSH2 0x1C9 JUMPI PUSH0 DUP1 REVERT JUMPDEST POP PUSH2 0x1DD PUSH2 0x1D8 CALLDATASIZE PUSH1 0x4 PUSH2 0x20E1 JUMP JUMPDEST PUSH2 0x611 JUMP JUMPDEST PUSH1 0x40 MLOAD SWAP1 ISZERO ISZERO DUP2 MSTORE PUSH1 0x20 ADD JUMPDEST PUSH1 0x40 MLOAD DUP1 SWAP2 SUB SWAP1 RETURN JUMPDEST CALLVALUE DUP1 ISZERO PUSH2 0x1FD JUMPI PUSH0 DUP1 REVERT JUMPDEST POP PUSH2 0x206 PUSH2 0x6AD JUMP JUMPDEST PUSH1 0x40 MLOAD PUSH2 0x1E9 SWAP2 SWAP1 PUSH2 0x2149 JUMP JUMPDEST CALLVALUE DUP1 ISZERO PUSH2 0x21E JUMPI PUSH0 DUP1 REVERT JUMPDEST POP PUSH2 0x232 PUSH2 0x22D CALLDATASIZE PUSH1 0x4 PUSH2 0x215B JUMP JUMPDEST PUSH2 0x761 JUMP JUMPDEST PUSH1 0x40 MLOAD PUSH1 0x1 PUSH1 0x1 PUSH1 0xA0 SHL SUB SWAP1 SWAP2 AND DUP2 MSTORE PUSH1 0x20 ADD PUSH2 0x1E9 JUMP JUMPDEST CALLVALUE DUP1 ISZERO PUSH2 0x255 JUMPI PUSH0 DUP1 REVERT JUMPDEST POP PUSH2 0x269 PUSH2 0x264 CALLDATASIZE PUSH1 0x4 PUSH2 0x218D JUMP JUMPDEST PUSH2 0x7A7 JUMP JUMPDEST STOP JUMPDEST CALLVALUE DUP1 ISZERO PUSH2 0x276 JUMPI PUSH0 DUP1 REVERT JUMPDEST POP PUSH2 0x1DD PUSH2 0x285 CALLDATASIZE PUSH1 0x4 PUSH2 0x2252 JUMP JUMPDEST PUSH2 0x7B6 JUMP JUMPDEST CALLVALUE DUP1 ISZERO PUSH2 0x295 JUMPI PUSH0 DUP1 REVERT JUMPDEST POP PUSH2 0x1DD PUSH2 0x2A4 CALLDATASIZE PUSH1 0x4 PUSH2 0x218D JUMP JUMPDEST PUSH1 0x3 PUSH1 0x20 SWAP1 DUP2 MSTORE PUSH0 SWAP3 DUP4 MSTORE PUSH1 0x40 DUP1 DUP5 KECCAK256 SWAP1 SWAP2 MSTORE SWAP1 DUP3 MSTORE SWAP1 KECCAK256 SLOAD PUSH1 0xFF AND DUP2 JUMP JUMPDEST CALLVALUE DUP1 ISZERO PUSH2 0x2CE JUMPI PUSH0 DUP1 REVERT JUMPDEST POP PUSH2 0x206 PUSH2 0x2DD CALLDATASIZE PUSH1 0x4 PUSH2 0x215B JUMP JUMPDEST PUSH2 0x8F5 JUMP JUMPDEST CALLVALUE DUP1 ISZERO PUSH2 0x2ED JUMPI PUSH0 DUP1 REVERT JUMPDEST POP PUSH2 0x269 PUSH2 0x2FC CALLDATASIZE PUSH1 0x4 PUSH2 0x229D JUMP JUMPDEST PUSH2 0x98C JUMP JUMPDEST CALLVALUE DUP1 ISZERO PUSH2 0x30C JUMPI PUSH0 DUP1 REVERT JUMPDEST POP PUSH2 0x320 PUSH2 0x31B CALLDATASIZE PUSH1 0x4 PUSH2 0x218D JUMP JUMPDEST PUSH2 0x9FA JUMP JUMPDEST PUSH1 0x40 MLOAD SWAP1 DUP2 MSTORE PUSH1 0x20 ADD PUSH2 0x1E9 JUMP JUMPDEST CALLVALUE DUP1 ISZERO PUSH2 0x339 JUMPI PUSH0 DUP1 REVERT JUMPDEST POP PUSH2 0x269 PUSH2 0x348 CALLDATASIZE PUSH1 0x4 PUSH2 0x229D JUMP JUMPDEST PUSH2 0xA25 JUMP JUMPDEST PUSH2 0x269 PUSH2 0x35B CALLDATASIZE PUSH1 0x4 PUSH2 0x2252 JUMP JUMPDEST PUSH2 0xA44 JUMP JUMPDEST CALLVALUE DUP1 ISZERO PUSH2 0x36B JUMPI PUSH0 DUP1 REVERT JUMPDEST POP PUSH2 0x320 PUSH2 0x37A CALLDATASIZE PUSH1 0x4 PUSH2 0x22D6 JUMP JUMPDEST PUSH2 0xA5F JUMP JUMPDEST CALLVALUE DUP1 ISZERO PUSH2 0x38A JUMPI PUSH0 DUP1 REVERT JUMPDEST POP PUSH2 0x320 PUSH2 0xC7F JUMP JUMPDEST CALLVALUE DUP1 ISZERO PUSH2 0x39E JUMPI PUSH0 DUP1 REVERT JUMPDEST POP PUSH2 0x206 PUSH2 0xCAD JUMP JUMPDEST CALLVALUE DUP1 ISZERO PUSH2 0x3B2 JUMPI PUSH0 DUP1 REVERT JUMPDEST POP PUSH2 0x232 PUSH2 0x3C1 CALLDATASIZE PUSH1 0x4 PUSH2 0x215B JUMP JUMPDEST PUSH2 0xCBA JUMP JUMPDEST CALLVALUE DUP1 ISZERO PUSH2 0x3D1 JUMPI PUSH0 DUP1 REVERT JUMPDEST POP PUSH2 0x320 PUSH2 0x3E0 CALLDATASIZE PUSH1 0x4 PUSH2 0x2308 JUMP JUMPDEST PUSH2 0xCC4 JUMP JUMPDEST CALLVALUE DUP1 ISZERO PUSH2 0x3F0 JUMPI PUSH0 DUP1 REVERT JUMPDEST POP PUSH2 0x269 PUSH2 0xD48 JUMP JUMPDEST CALLVALUE DUP1 ISZERO PUSH2 0x404 JUMPI PUSH0 DUP1 REVERT JUMPDEST POP PUSH2 0x269 PUSH2 0x413 CALLDATASIZE PUSH1 0x4 PUSH2 0x22D6 JUMP JUMPDEST PUSH2 0xD5B JUMP JUMPDEST CALLVALUE DUP1 ISZERO PUSH2 0x423 JUMPI PUSH0 DUP1 REVERT JUMPDEST POP PUSH2 0x269 PUSH2 0xD7B JUMP JUMPDEST CALLVALUE DUP1 ISZERO PUSH2 0x437 JUMPI PUSH0 DUP1 REVERT JUMPDEST POP PUSH32 0x9016D09D72D40FDAE2FD8CEAC6B6234C7706214FD39C1CD1E609A0528C199300 SLOAD PUSH1 0x1 PUSH1 0x1 PUSH1 0xA0 SHL SUB AND PUSH2 0x232 JUMP JUMPDEST CALLVALUE DUP1 ISZERO PUSH2 0x473 JUMPI PUSH0 DUP1 REVERT JUMPDEST POP PUSH2 0x206 PUSH2 0xF4D JUMP JUMPDEST CALLVALUE DUP1 ISZERO PUSH2 0x487 JUMPI PUSH0 DUP1 REVERT JUMPDEST POP PUSH2 0x269 PUSH2 0x496 CALLDATASIZE PUSH1 0x4 PUSH2 0x2321 JUMP JUMPDEST PUSH2 0xF9E JUMP JUMPDEST CALLVALUE DUP1 ISZERO PUSH2 0x4A6 JUMPI PUSH0 DUP1 REVERT JUMPDEST POP PUSH2 0x206 PUSH1 0x40 MLOAD DUP1 PUSH1 0x40 ADD PUSH1 0x40 MSTORE DUP1 PUSH1 0x5 DUP2 MSTORE PUSH1 0x20 ADD PUSH32 0x352E302E30000000000000000000000000000000000000000000000000000000 DUP2 MSTORE POP DUP2 JUMP JUMPDEST CALLVALUE DUP1 ISZERO PUSH2 0x4EE JUMPI PUSH0 DUP1 REVERT JUMPDEST POP PUSH2 0x269 PUSH2 0x2FC CALLDATASIZE PUSH1 0x4 PUSH2 0x235A JUMP JUMPDEST CALLVALUE DUP1 ISZERO PUSH2 0x508 JUMPI PUSH0 DUP1 REVERT JUMPDEST POP PUSH2 0x206 PUSH2 0x517 CALLDATASIZE PUSH1 0x4 PUSH2 0x215B JUMP JUMPDEST PUSH2 0xFA9 JUMP JUMPDEST CALLVALUE DUP1 ISZERO PUSH2 0x527 JUMPI PUSH0 DUP1 REVERT JUMPDEST POP PUSH2 0x1DD PUSH2 0x536 CALLDATASIZE PUSH1 0x4 PUSH2 0x218D JUMP JUMPDEST PUSH1 0x1 PUSH1 0x1 PUSH1 0xA0 SHL SUB SWAP2 SWAP1 SWAP2 AND PUSH0 SWAP1 DUP2 MSTORE PUSH1 0x3 PUSH1 0x20 SWAP1 DUP2 MSTORE PUSH1 0x40 DUP1 DUP4 KECCAK256 SWAP4 DUP4 MSTORE SWAP3 SWAP1 MSTORE KECCAK256 SLOAD PUSH1 0xFF AND SWAP1 JUMP JUMPDEST CALLVALUE DUP1 ISZERO PUSH2 0x56B JUMPI PUSH0 DUP1 REVERT JUMPDEST POP PUSH2 0x1DD PUSH2 0x57A CALLDATASIZE PUSH1 0x4 PUSH2 0x23BE JUMP JUMPDEST PUSH1 0x1 PUSH1 0x1 PUSH1 0xA0 SHL SUB SWAP2 DUP3 AND PUSH0 SWAP1 DUP2 MSTORE PUSH32 0x80BB2B638CC20BC4D0A60D66940F3AB4A00C1D7B313497CA82FB0B4AB0079305 PUSH1 0x20 SWAP1 DUP2 MSTORE PUSH1 0x40 DUP1 DUP4 KECCAK256 SWAP4 SWAP1 SWAP5 AND DUP3 MSTORE SWAP2 SWAP1 SWAP2 MSTORE KECCAK256 SLOAD PUSH1 0xFF AND SWAP1 JUMP JUMPDEST CALLVALUE DUP1 ISZERO PUSH2 0x5D1 JUMPI PUSH0 DUP1 REVERT JUMPDEST POP PUSH2 0x5E5 PUSH2 0x5E0 CALLDATASIZE PUSH1 0x4 PUSH2 0x2308 JUMP JUMPDEST PUSH2 0x10C9 JUMP JUMPDEST PUSH1 0x40 MLOAD PUSH2 0x1E9 SWAP2 SWAP1 PUSH2 0x23EF JUMP JUMPDEST CALLVALUE DUP1 ISZERO PUSH2 0x5FD JUMPI PUSH0 DUP1 REVERT JUMPDEST POP PUSH2 0x269 PUSH2 0x60C CALLDATASIZE PUSH1 0x4 PUSH2 0x2308 JUMP JUMPDEST PUSH2 0x1131 JUMP JUMPDEST PUSH0 PUSH1 0x1 PUSH1 0x1 PUSH1 0xE0 SHL SUB NOT DUP3 AND PUSH32 0x80AC58CD00000000000000000000000000000000000000000000000000000000 EQ DUP1 PUSH2 0x673 JUMPI POP PUSH1 0x1 PUSH1 0x1 PUSH1 0xE0 SHL SUB NOT DUP3 AND PUSH32 0x5B5E139F00000000000000000000000000000000000000000000000000000000 EQ JUMPDEST DUP1 PUSH2 0x6A7 JUMPI POP PUSH32 0x1FFC9A700000000000000000000000000000000000000000000000000000000 PUSH1 0x1 PUSH1 0x1 PUSH1 0xE0 SHL SUB NOT DUP4 AND EQ JUMPDEST SWAP3 SWAP2 POP POP JUMP JUMPDEST PUSH32 0x80BB2B638CC20BC4D0A60D66940F3AB4A00C1D7B313497CA82FB0B4AB0079300 DUP1 SLOAD PUSH1 0x60 SWAP2 SWAP1 DUP2 SWAP1 PUSH2 0x6DF SWAP1 PUSH2 0x2432 JUMP JUMPDEST DUP1 PUSH1 0x1F ADD PUSH1 0x20 DUP1 SWAP2 DIV MUL PUSH1 0x20 ADD PUSH1 0x40 MLOAD SWAP1 DUP2 ADD PUSH1 0x40 MSTORE DUP1 SWAP3 SWAP2 SWAP1 DUP2 DUP2 MSTORE PUSH1 0x20 ADD DUP3 DUP1 SLOAD PUSH2 0x70B SWAP1 PUSH2 0x2432 JUMP JUMPDEST DUP1 ISZERO PUSH2 0x756 JUMPI DUP1 PUSH1 0x1F LT PUSH2 0x72D JUMPI PUSH2 0x100 DUP1 DUP4 SLOAD DIV MUL DUP4 MSTORE SWAP2 PUSH1 0x20 ADD SWAP2 PUSH2 0x756 JUMP JUMPDEST DUP3 ADD SWAP2 SWAP1 PUSH0 MSTORE PUSH1 0x20 PUSH0 KECCAK256 SWAP1 JUMPDEST DUP2 SLOAD DUP2 MSTORE SWAP1 PUSH1 0x1 ADD SWAP1 PUSH1 0x20 ADD DUP1 DUP4 GT PUSH2 0x739 JUMPI DUP3 SWAP1 SUB PUSH1 0x1F AND DUP3 ADD SWAP2 JUMPDEST POP POP POP POP POP SWAP2 POP POP SWAP1 JUMP JUMPDEST PUSH0 PUSH2 0x76B DUP3 PUSH2 0x1184 JUMP JUMPDEST POP PUSH0 DUP3 DUP2 MSTORE PUSH32 0x80BB2B638CC20BC4D0A60D66940F3AB4A00C1D7B313497CA82FB0B4AB0079304 PUSH1 0x20 MSTORE PUSH1 0x40 SWAP1 KECCAK256 SLOAD PUSH1 0x1 PUSH1 0x1 PUSH1 0xA0 SHL SUB AND PUSH2 0x6A7 JUMP JUMPDEST PUSH2 0x7B2 DUP3 DUP3 CALLER PUSH2 0x11DB JUMP JUMPDEST POP POP JUMP JUMPDEST PUSH0 PUSH2 0x7BF PUSH2 0x11E8 JUMP JUMPDEST PUSH0 PUSH2 0x7C9 DUP4 PUSH2 0xA5F JUMP JUMPDEST SWAP1 POP PUSH0 DUP2 GT PUSH2 0x81F JUMPI PUSH1 0x40 MLOAD PUSH3 0x461BCD PUSH1 0xE5 SHL DUP2 MSTORE PUSH1 0x20 PUSH1 0x4 DUP3 ADD MSTORE PUSH1 0x18 PUSH1 0x24 DUP3 ADD MSTORE PUSH32 0x496E76616C696420616368696576656D656E7420747970650000000000000000 PUSH1 0x44 DUP3 ADD MSTORE PUSH1 0x64 ADD JUMPDEST PUSH1 0x40 MLOAD DUP1 SWAP2 SUB SWAP1 REVERT JUMPDEST PUSH1 0x1 PUSH1 0x1 PUSH1 0xA0 SHL SUB DUP5 AND PUSH0 SWAP1 DUP2 MSTORE PUSH1 0x3 PUSH1 0x20 SWAP1 DUP2 MSTORE PUSH1 0x40 DUP1 DUP4 KECCAK256 DUP5 DUP5 MSTORE SWAP1 SWAP2 MSTORE SWAP1 KECCAK256 SLOAD PUSH1 0xFF AND ISZERO PUSH2 0x853 JUMPI PUSH0 SWAP2 POP POP PUSH2 0x6A7 JUMP JUMPDEST PUSH1 0x1 PUSH1 0x1 PUSH1 0xA0 SHL SUB DUP5 AND PUSH0 SWAP1 DUP2 MSTORE PUSH1 0x3 PUSH1 0x20 SWAP1 DUP2 MSTORE PUSH1 0x40 DUP1 DUP4 KECCAK256 DUP5 DUP5 MSTORE SWAP1 SWAP2 MSTORE SWAP1 KECCAK256 DUP1 SLOAD PUSH1 0xFF NOT AND PUSH1 0x1 OR SWAP1 SSTORE PUSH2 0x88A DUP5 DUP3 PUSH2 0x125C JUMP JUMPDEST PUSH1 0x1 PUSH1 0x1 PUSH1 0xA0 SHL SUB DUP5 AND PUSH0 DUP2 DUP2 MSTORE PUSH1 0x1 PUSH1 0x20 DUP2 DUP2 MSTORE PUSH1 0x40 DUP1 DUP5 KECCAK256 DUP1 SLOAD SWAP4 DUP5 ADD DUP2 SSTORE DUP5 MSTORE SWAP3 KECCAK256 ADD DUP4 SWAP1 SSTORE MLOAD PUSH32 0x2A61F547BA5BF846CF758FDF30CFBADA376FF8325CA400D2BB5CE0970CA406D8 SWAP1 PUSH2 0x8E3 SWAP1 DUP5 SWAP1 DUP8 SWAP1 PUSH2 0x246A JUMP JUMPDEST PUSH1 0x40 MLOAD DUP1 SWAP2 SUB SWAP1 LOG2 POP PUSH1 0x1 SWAP4 SWAP3 POP POP POP JUMP JUMPDEST PUSH1 0x2 PUSH1 0x20 MSTORE PUSH0 SWAP1 DUP2 MSTORE PUSH1 0x40 SWAP1 KECCAK256 DUP1 SLOAD PUSH2 0x90D SWAP1 PUSH2 0x2432 JUMP JUMPDEST DUP1 PUSH1 0x1F ADD PUSH1 0x20 DUP1 SWAP2 DIV MUL PUSH1 0x20 ADD PUSH1 0x40 MLOAD SWAP1 DUP2 ADD PUSH1 0x40 MSTORE DUP1 SWAP3 SWAP2 SWAP1 DUP2 DUP2 MSTORE PUSH1 0x20 ADD DUP3 DUP1 SLOAD PUSH2 0x939 SWAP1 PUSH2 0x2432 JUMP JUMPDEST DUP1 ISZERO PUSH2 0x984 JUMPI DUP1 PUSH1 0x1F LT PUSH2 0x95B JUMPI PUSH2 0x100 DUP1 DUP4 SLOAD DIV MUL DUP4 MSTORE SWAP2 PUSH1 0x20 ADD SWAP2 PUSH2 0x984 JUMP JUMPDEST DUP3 ADD SWAP2 SWAP1 PUSH0 MSTORE PUSH1 0x20 PUSH0 KECCAK256 SWAP1 JUMPDEST DUP2 SLOAD DUP2 MSTORE SWAP1 PUSH1 0x1 ADD SWAP1 PUSH1 0x20 ADD DUP1 DUP4 GT PUSH2 0x967 JUMPI DUP3 SWAP1 SUB PUSH1 0x1F AND DUP3 ADD SWAP2 JUMPDEST POP POP POP POP POP DUP2 JUMP JUMPDEST PUSH1 0x40 MLOAD PUSH3 0x461BCD PUSH1 0xE5 SHL DUP2 MSTORE PUSH1 0x20 PUSH1 0x4 DUP3 ADD MSTORE PUSH1 0x29 PUSH1 0x24 DUP3 ADD MSTORE PUSH32 0x416368696576656D656E743A204E6F6E2D7472616E7366657261626C65202853 PUSH1 0x44 DUP3 ADD MSTORE PUSH32 0x6F756C626F756E64290000000000000000000000000000000000000000000000 PUSH1 0x64 DUP3 ADD MSTORE PUSH1 0x84 ADD PUSH2 0x816 JUMP JUMPDEST PUSH1 0x1 PUSH1 0x20 MSTORE DUP2 PUSH0 MSTORE PUSH1 0x40 PUSH0 KECCAK256 DUP2 DUP2 SLOAD DUP2 LT PUSH2 0xA13 JUMPI PUSH0 DUP1 REVERT JUMPDEST SWAP1 PUSH0 MSTORE PUSH1 0x20 PUSH0 KECCAK256 ADD PUSH0 SWAP2 POP SWAP2 POP POP SLOAD DUP2 JUMP JUMPDEST PUSH2 0xA3F DUP4 DUP4 DUP4 PUSH1 0x40 MLOAD DUP1 PUSH1 0x20 ADD PUSH1 0x40 MSTORE DUP1 PUSH0 DUP2 MSTORE POP PUSH2 0x98C JUMP JUMPDEST POP POP POP JUMP JUMPDEST PUSH2 0xA4C PUSH2 0x1275 JUMP JUMPDEST PUSH2 0xA55 DUP3 PUSH2 0x132C JUMP JUMPDEST PUSH2 0x7B2 DUP3 DUP3 PUSH2 0x1334 JUMP JUMPDEST PUSH0 DUP1 DUP3 PUSH1 0x40 MLOAD PUSH1 0x20 ADD PUSH2 0xA72 SWAP2 SWAP1 PUSH2 0x2482 JUMP JUMPDEST PUSH1 0x40 MLOAD PUSH1 0x20 DUP2 DUP4 SUB SUB DUP2 MSTORE SWAP1 PUSH1 0x40 MSTORE DUP1 MLOAD SWAP1 PUSH1 0x20 ADD KECCAK256 SWAP1 POP PUSH1 0x40 MLOAD PUSH1 0x20 ADD PUSH2 0xABD SWAP1 PUSH32 0x4669727374204461746500000000000000000000000000000000000000000000 DUP2 MSTORE PUSH1 0xA ADD SWAP1 JUMP JUMPDEST PUSH1 0x40 MLOAD PUSH1 0x20 DUP2 DUP4 SUB SUB DUP2 MSTORE SWAP1 PUSH1 0x40 MSTORE DUP1 MLOAD SWAP1 PUSH1 0x20 ADD KECCAK256 DUP2 SUB PUSH2 0xAE2 JUMPI POP PUSH1 0x1 SWAP3 SWAP2 POP POP JUMP JUMPDEST PUSH1 0x40 MLOAD PUSH32 0x3520446174657300000000000000000000000000000000000000000000000000 PUSH1 0x20 DUP3 ADD MSTORE PUSH1 0x27 ADD PUSH1 0x40 MLOAD PUSH1 0x20 DUP2 DUP4 SUB SUB DUP2 MSTORE SWAP1 PUSH1 0x40 MSTORE DUP1 MLOAD SWAP1 PUSH1 0x20 ADD KECCAK256 DUP2 SUB PUSH2 0xB33 JUMPI POP PUSH1 0x2 SWAP3 SWAP2 POP POP JUMP JUMPDEST PUSH1 0x40 MLOAD PUSH32 0x3130204461746573000000000000000000000000000000000000000000000000 PUSH1 0x20 DUP3 ADD MSTORE PUSH1 0x28 ADD PUSH1 0x40 MLOAD PUSH1 0x20 DUP2 DUP4 SUB SUB DUP2 MSTORE SWAP1 PUSH1 0x40 MSTORE DUP1 MLOAD SWAP1 PUSH1 0x20 ADD KECCAK256 DUP2 SUB PUSH2 0xB84 JUMPI POP PUSH1 0x3 SWAP3 SWAP2 POP POP JUMP JUMPDEST PUSH1 0x40 MLOAD PUSH32 0x35205374617220526174696E6700000000000000000000000000000000000000 PUSH1 0x20 DUP3 ADD MSTORE PUSH1 0x2D ADD PUSH1 0x40 MLOAD PUSH1 0x20 DUP2 DUP4 SUB SUB DUP2 MSTORE SWAP1 PUSH1 0x40 MSTORE DUP1 MLOAD SWAP1 PUSH1 0x20 ADD KECCAK256 DUP2 SUB PUSH2 0xBD5 JUMPI POP PUSH1 0x4 SWAP3 SWAP2 POP POP JUMP JUMPDEST PUSH1 0x40 MLOAD PUSH32 0x50657266656374205765656B0000000000000000000000000000000000000000 PUSH1 0x20 DUP3 ADD MSTORE PUSH1 0x2C ADD PUSH1 0x40 MLOAD PUSH1 0x20 DUP2 DUP4 SUB SUB DUP2 MSTORE SWAP1 PUSH1 0x40 MSTORE DUP1 MLOAD SWAP1 PUSH1 0x20 ADD KECCAK256 DUP2 SUB PUSH2 0xC26 JUMPI POP PUSH1 0x5 SWAP3 SWAP2 POP POP JUMP JUMPDEST PUSH1 0x40 MLOAD PUSH32 0x4D61746368204D616B6572000000000000000000000000000000000000000000 PUSH1 0x20 DUP3 ADD MSTORE PUSH1 0x2B ADD PUSH1 0x40 MLOAD PUSH1 0x20 DUP2 DUP4 SUB SUB DUP2 MSTORE SWAP1 PUSH1 0x40 MSTORE DUP1 MLOAD SWAP1 PUSH1 0x20 ADD KECCAK256 DUP2 SUB PUSH2 0xC77 JUMPI POP PUSH1 0x6 SWAP3 SWAP2 POP POP JUMP JUMPDEST POP PUSH0 SWAP3 SWAP2 POP POP JUMP JUMPDEST PUSH0 PUSH2 0xC88 PUSH2 0x141C JUMP JUMPDEST POP PUSH32 0x360894A13BA1A3210667C828492DB98DCA3E2076CC3735A920A3CA505D382BBC SWAP1 JUMP JUMPDEST PUSH1 0x4 DUP1 SLOAD PUSH2 0x90D SWAP1 PUSH2 0x2432 JUMP JUMPDEST PUSH0 PUSH2 0x6A7 DUP3 PUSH2 0x1184 JUMP JUMPDEST PUSH0 PUSH32 0x80BB2B638CC20BC4D0A60D66940F3AB4A00C1D7B313497CA82FB0B4AB0079300 PUSH1 0x1 PUSH1 0x1 PUSH1 0xA0 SHL SUB DUP4 AND PUSH2 0xD28 JUMPI PUSH1 0x40 MLOAD PUSH32 0x89C62B6400000000000000000000000000000000000000000000000000000000 DUP2 MSTORE PUSH0 PUSH1 0x4 DUP3 ADD MSTORE PUSH1 0x24 ADD PUSH2 0x816 JUMP JUMPDEST PUSH1 0x1 PUSH1 0x1 PUSH1 0xA0 SHL SUB SWAP1 SWAP3 AND PUSH0 SWAP1 DUP2 MSTORE PUSH1 0x3 SWAP1 SWAP3 ADD PUSH1 0x20 MSTORE POP PUSH1 0x40 SWAP1 KECCAK256 SLOAD SWAP1 JUMP JUMPDEST PUSH2 0xD50 PUSH2 0x11E8 JUMP JUMPDEST PUSH2 0xD59 PUSH0 PUSH2 0x1465 JUMP JUMPDEST JUMP JUMPDEST PUSH2 0xD63 PUSH2 0x11E8 JUMP JUMPDEST PUSH1 0x4 PUSH2 0xD6F DUP3 DUP3 PUSH2 0x24E1 JUMP JUMPDEST POP PUSH2 0xD78 PUSH2 0x14E2 JUMP JUMPDEST POP JUMP JUMPDEST PUSH0 PUSH2 0xD84 PUSH2 0x16F1 JUMP JUMPDEST DUP1 SLOAD SWAP1 SWAP2 POP PUSH1 0xFF PUSH9 0x10000000000000000 DUP3 DIV AND ISZERO SWAP1 PUSH8 0xFFFFFFFFFFFFFFFF AND PUSH0 DUP2 ISZERO DUP1 ISZERO PUSH2 0xDB0 JUMPI POP DUP3 JUMPDEST SWAP1 POP PUSH0 DUP3 PUSH8 0xFFFFFFFFFFFFFFFF AND PUSH1 0x1 EQ DUP1 ISZERO PUSH2 0xDCC JUMPI POP ADDRESS EXTCODESIZE ISZERO JUMPDEST SWAP1 POP DUP2 ISZERO DUP1 ISZERO PUSH2 0xDDA JUMPI POP DUP1 ISZERO JUMPDEST ISZERO PUSH2 0xE11 JUMPI PUSH1 0x40 MLOAD PUSH32 0xF92EE8A900000000000000000000000000000000000000000000000000000000 DUP2 MSTORE PUSH1 0x4 ADD PUSH1 0x40 MLOAD DUP1 SWAP2 SUB SWAP1 REVERT JUMPDEST DUP5 SLOAD PUSH8 0xFFFFFFFFFFFFFFFF NOT AND PUSH1 0x1 OR DUP6 SSTORE DUP4 ISZERO PUSH2 0xE45 JUMPI DUP5 SLOAD PUSH9 0xFF0000000000000000 NOT AND PUSH9 0x10000000000000000 OR DUP6 SSTORE JUMPDEST PUSH2 0xEB9 PUSH1 0x40 MLOAD DUP1 PUSH1 0x40 ADD PUSH1 0x40 MSTORE DUP1 PUSH1 0x15 DUP2 MSTORE PUSH1 0x20 ADD PUSH32 0x426173654D6174636820416368696576656D656E740000000000000000000000 DUP2 MSTORE POP PUSH1 0x40 MLOAD DUP1 PUSH1 0x40 ADD PUSH1 0x40 MSTORE DUP1 PUSH1 0x5 DUP2 MSTORE PUSH1 0x20 ADD PUSH32 0x424D414348000000000000000000000000000000000000000000000000000000 DUP2 MSTORE POP PUSH2 0x1719 JUMP JUMPDEST PUSH2 0xEC2 CALLER PUSH2 0x172B JUMP JUMPDEST PUSH2 0xECA PUSH2 0x173C JUMP JUMPDEST PUSH0 DUP1 SSTORE PUSH1 0x40 DUP1 MLOAD PUSH1 0x80 DUP2 ADD SWAP1 SWAP2 MSTORE PUSH1 0x5C DUP1 DUP3 MSTORE PUSH2 0x27CA PUSH1 0x20 DUP4 ADD CODECOPY PUSH1 0x4 SWAP1 PUSH2 0xEF2 SWAP1 DUP3 PUSH2 0x24E1 JUMP JUMPDEST POP PUSH2 0xEFB PUSH2 0x14E2 JUMP JUMPDEST DUP4 ISZERO PUSH2 0xF46 JUMPI DUP5 SLOAD PUSH9 0xFF0000000000000000 NOT AND DUP6 SSTORE PUSH1 0x40 MLOAD PUSH1 0x1 DUP2 MSTORE PUSH32 0xC7F505B2F371AE2175EE4913F4499E1F2633A7B5936321EED1CDAEB6115181D2 SWAP1 PUSH1 0x20 ADD PUSH1 0x40 MLOAD DUP1 SWAP2 SUB SWAP1 LOG1 JUMPDEST POP POP POP POP POP JUMP JUMPDEST PUSH32 0x80BB2B638CC20BC4D0A60D66940F3AB4A00C1D7B313497CA82FB0B4AB0079301 DUP1 SLOAD PUSH1 0x60 SWAP2 PUSH32 0x80BB2B638CC20BC4D0A60D66940F3AB4A00C1D7B313497CA82FB0B4AB0079300 SWAP2 PUSH2 0x6DF SWAP1 PUSH2 0x2432 JUMP JUMPDEST PUSH2 0x7B2 CALLER DUP4 DUP4 PUSH2 0x1744 JUMP JUMPDEST PUSH0 DUP2 DUP2 MSTORE PUSH32 0x80BB2B638CC20BC4D0A60D66940F3AB4A00C1D7B313497CA82FB0B4AB0079302 PUSH1 0x20 MSTORE PUSH1 0x40 SWAP1 KECCAK256 SLOAD PUSH1 0x60 SWAP1 PUSH1 0x1 PUSH1 0x1 PUSH1 0xA0 SHL SUB AND PUSH2 0x102E JUMPI PUSH1 0x40 MLOAD PUSH3 0x461BCD PUSH1 0xE5 SHL DUP2 MSTORE PUSH1 0x20 PUSH1 0x4 DUP3 ADD MSTORE PUSH1 0x18 PUSH1 0x24 DUP3 ADD MSTORE PUSH32 0x4552433732313A20496E76616C696420746F6B656E2049440000000000000000 PUSH1 0x44 DUP3 ADD MSTORE PUSH1 0x64 ADD PUSH2 0x816 JUMP JUMPDEST PUSH0 DUP3 DUP2 MSTORE PUSH1 0x2 PUSH1 0x20 MSTORE PUSH1 0x40 SWAP1 KECCAK256 DUP1 SLOAD PUSH2 0x1046 SWAP1 PUSH2 0x2432 JUMP JUMPDEST DUP1 PUSH1 0x1F ADD PUSH1 0x20 DUP1 SWAP2 DIV MUL PUSH1 0x20 ADD PUSH1 0x40 MLOAD SWAP1 DUP2 ADD PUSH1 0x40 MSTORE DUP1 SWAP3 SWAP2 SWAP1 DUP2 DUP2 MSTORE PUSH1 0x20 ADD DUP3 DUP1 SLOAD PUSH2 0x1072 SWAP1 PUSH2 0x2432 JUMP JUMPDEST DUP1 ISZERO PUSH2 0x10BD JUMPI DUP1 PUSH1 0x1F LT PUSH2 0x1094 JUMPI PUSH2 0x100 DUP1 DUP4 SLOAD DIV MUL DUP4 MSTORE SWAP2 PUSH1 0x20 ADD SWAP2 PUSH2 0x10BD JUMP JUMPDEST DUP3 ADD SWAP2 SWAP1 PUSH0 MSTORE PUSH1 0x20 PUSH0 KECCAK256 SWAP1 JUMPDEST DUP2 SLOAD DUP2 MSTORE SWAP1 PUSH1 0x1 ADD SWAP1 PUSH1 0x20 ADD DUP1 DUP4 GT PUSH2 0x10A0 JUMPI DUP3 SWAP1 SUB PUSH1 0x1F AND DUP3 ADD SWAP2 JUMPDEST POP POP POP POP POP SWAP1 POP SWAP2 SWAP1 POP JUMP JUMPDEST PUSH1 0x1 PUSH1 0x1 PUSH1 0xA0 SHL SUB DUP2 AND PUSH0 SWAP1 DUP2 MSTORE PUSH1 0x1 PUSH1 0x20 SWAP1 DUP2 MSTORE PUSH1 0x40 SWAP2 DUP3 SWAP1 KECCAK256 DUP1 SLOAD DUP4 MLOAD DUP2 DUP5 MUL DUP2 ADD DUP5 ADD SWAP1 SWAP5 MSTORE DUP1 DUP5 MSTORE PUSH1 0x60 SWAP4 SWAP3 DUP4 ADD DUP3 DUP3 DUP1 ISZERO PUSH2 0x10BD JUMPI PUSH1 0x20 MUL DUP3 ADD SWAP2 SWAP1 PUSH0 MSTORE PUSH1 0x20 PUSH0 KECCAK256 SWAP1 JUMPDEST DUP2 SLOAD DUP2 MSTORE PUSH1 0x20 ADD SWAP1 PUSH1 0x1 ADD SWAP1 DUP1 DUP4 GT PUSH2 0x1112 JUMPI POP POP POP POP POP SWAP1 POP SWAP2 SWAP1 POP JUMP JUMPDEST PUSH2 0x1139 PUSH2 0x11E8 JUMP JUMPDEST PUSH1 0x1 PUSH1 0x1 PUSH1 0xA0 SHL SUB DUP2 AND PUSH2 0x117B JUMPI PUSH1 0x40 MLOAD PUSH32 0x1E4FBDF700000000000000000000000000000000000000000000000000000000 DUP2 MSTORE PUSH0 PUSH1 0x4 DUP3 ADD MSTORE PUSH1 0x24 ADD PUSH2 0x816 JUMP JUMPDEST PUSH2 0xD78 DUP2 PUSH2 0x1465 JUMP JUMPDEST PUSH0 DUP2 DUP2 MSTORE PUSH32 0x80BB2B638CC20BC4D0A60D66940F3AB4A00C1D7B313497CA82FB0B4AB0079302 PUSH1 0x20 MSTORE PUSH1 0x40 DUP2 KECCAK256 SLOAD PUSH1 0x1 PUSH1 0x1 PUSH1 0xA0 SHL SUB AND DUP1 PUSH2 0x6A7 JUMPI PUSH1 0x40 MLOAD PUSH4 0x7E273289 PUSH1 0xE0 SHL DUP2 MSTORE PUSH1 0x4 DUP2 ADD DUP5 SWAP1 MSTORE PUSH1 0x24 ADD PUSH2 0x816 JUMP JUMPDEST PUSH2 0xA3F DUP4 DUP4 DUP4 PUSH1 0x1 PUSH2 0x181F JUMP JUMPDEST CALLER PUSH2 0x121A PUSH32 0x9016D09D72D40FDAE2FD8CEAC6B6234C7706214FD39C1CD1E609A0528C199300 SLOAD PUSH1 0x1 PUSH1 0x1 PUSH1 0xA0 SHL SUB AND SWAP1 JUMP JUMPDEST PUSH1 0x1 PUSH1 0x1 PUSH1 0xA0 SHL SUB AND EQ PUSH2 0xD59 JUMPI PUSH1 0x40 MLOAD PUSH32 0x118CDAA700000000000000000000000000000000000000000000000000000000 DUP2 MSTORE CALLER PUSH1 0x4 DUP3 ADD MSTORE PUSH1 0x24 ADD PUSH2 0x816 JUMP JUMPDEST PUSH2 0x7B2 DUP3 DUP3 PUSH1 0x40 MLOAD DUP1 PUSH1 0x20 ADD PUSH1 0x40 MSTORE DUP1 PUSH0 DUP2 MSTORE POP PUSH2 0x19A8 JUMP JUMPDEST ADDRESS PUSH1 0x1 PUSH1 0x1 PUSH1 0xA0 SHL SUB PUSH32 0x0 AND EQ DUP1 PUSH2 0x130E JUMPI POP PUSH32 0x0 PUSH1 0x1 PUSH1 0x1 PUSH1 0xA0 SHL SUB AND PUSH2 0x1302 PUSH32 0x360894A13BA1A3210667C828492DB98DCA3E2076CC3735A920A3CA505D382BBC SLOAD PUSH1 0x1 PUSH1 0x1 PUSH1 0xA0 SHL SUB AND SWAP1 JUMP JUMPDEST PUSH1 0x1 PUSH1 0x1 PUSH1 0xA0 SHL SUB AND EQ ISZERO JUMPDEST ISZERO PUSH2 0xD59 JUMPI PUSH1 0x40 MLOAD PUSH4 0x703E46DD PUSH1 0xE1 SHL DUP2 MSTORE PUSH1 0x4 ADD PUSH1 0x40 MLOAD DUP1 SWAP2 SUB SWAP1 REVERT JUMPDEST PUSH2 0xD78 PUSH2 0x11E8 JUMP JUMPDEST DUP2 PUSH1 0x1 PUSH1 0x1 PUSH1 0xA0 SHL SUB AND PUSH4 0x52D1902D PUSH1 0x40 MLOAD DUP2 PUSH4 0xFFFFFFFF AND PUSH1 0xE0 SHL DUP2 MSTORE PUSH1 0x4 ADD PUSH1 0x20 PUSH1 0x40 MLOAD DUP1 DUP4 SUB DUP2 DUP7 GAS STATICCALL SWAP3 POP POP POP DUP1 ISZERO PUSH2 0x138E JUMPI POP PUSH1 0x40 DUP1 MLOAD PUSH1 0x1F RETURNDATASIZE SWAP1 DUP2 ADD PUSH1 0x1F NOT AND DUP3 ADD SWAP1 SWAP3 MSTORE PUSH2 0x138B SWAP2 DUP2 ADD SWAP1 PUSH2 0x259D JUMP JUMPDEST PUSH1 0x1 JUMPDEST PUSH2 0x13B6 JUMPI PUSH1 0x40 MLOAD PUSH4 0x4C9C8CE3 PUSH1 0xE0 SHL DUP2 MSTORE PUSH1 0x1 PUSH1 0x1 PUSH1 0xA0 SHL SUB DUP4 AND PUSH1 0x4 DUP3 ADD MSTORE PUSH1 0x24 ADD PUSH2 0x816 JUMP JUMPDEST PUSH32 0x360894A13BA1A3210667C828492DB98DCA3E2076CC3735A920A3CA505D382BBC DUP2 EQ PUSH2 0x1412 JUMPI PUSH1 0x40 MLOAD PUSH32 0xAA1D49A400000000000000000000000000000000000000000000000000000000 DUP2 MSTORE PUSH1 0x4 DUP2 ADD DUP3 SWAP1 MSTORE PUSH1 0x24 ADD PUSH2 0x816 JUMP JUMPDEST PUSH2 0xA3F DUP4 DUP4 PUSH2 0x19BF JUMP JUMPDEST ADDRESS PUSH1 0x1 PUSH1 0x1 PUSH1 0xA0 SHL SUB PUSH32 0x0 AND EQ PUSH2 0xD59 JUMPI PUSH1 0x40 MLOAD PUSH4 0x703E46DD PUSH1 0xE1 SHL DUP2 MSTORE PUSH1 0x4 ADD PUSH1 0x40 MLOAD DUP1 SWAP2 SUB SWAP1 REVERT JUMPDEST PUSH32 0x9016D09D72D40FDAE2FD8CEAC6B6234C7706214FD39C1CD1E609A0528C199300 DUP1 SLOAD PUSH20 0xFFFFFFFFFFFFFFFFFFFFFFFFFFFFFFFFFFFFFFFF NOT DUP2 AND PUSH1 0x1 PUSH1 0x1 PUSH1 0xA0 SHL SUB DUP5 DUP2 AND SWAP2 DUP3 OR DUP5 SSTORE PUSH1 0x40 MLOAD SWAP3 AND SWAP2 DUP3 SWAP1 PUSH32 0x8BE0079C531659141344CD1FD0A4F28419497F9722A3DAAFE3B4186F6B6457E0 SWAP1 PUSH0 SWAP1 LOG3 POP POP POP JUMP JUMPDEST PUSH1 0x4 PUSH1 0x40 MLOAD PUSH1 0x20 ADD PUSH2 0x14F4 SWAP2 SWAP1 PUSH2 0x2623 JUMP JUMPDEST PUSH1 0x40 DUP1 MLOAD PUSH1 0x1F NOT DUP2 DUP5 SUB ADD DUP2 MSTORE SWAP2 SWAP1 MSTORE PUSH1 0x1 PUSH0 MSTORE PUSH1 0x2 PUSH1 0x20 MSTORE PUSH32 0xE90B7BCEB6E7DF5418FB78D8EE546E97C83A08BBCCC01A0644D599CCD2A7C2E0 SWAP1 PUSH2 0x1539 SWAP1 DUP3 PUSH2 0x24E1 JUMP JUMPDEST POP PUSH1 0x4 PUSH1 0x40 MLOAD PUSH1 0x20 ADD PUSH2 0x154C SWAP2 SWAP1 PUSH2 0x265B JUMP JUMPDEST PUSH1 0x40 DUP1 MLOAD PUSH1 0x1F NOT DUP2 DUP5 SUB ADD DUP2 MSTORE SWAP2 SWAP1 MSTORE PUSH1 0x2 PUSH0 DUP2 SWAP1 MSTORE PUSH1 0x20 MSTORE PUSH32 0x679795A0195A1B76CDEBB7C51D74E058AEE92919B8C3389AF86EF24535E8A28C SWAP1 PUSH2 0x1591 SWAP1 DUP3 PUSH2 0x24E1 JUMP JUMPDEST POP PUSH1 0x4 PUSH1 0x40 MLOAD PUSH1 0x20 ADD PUSH2 0x15A4 SWAP2 SWAP1 PUSH2 0x2693 JUMP JUMPDEST PUSH1 0x40 DUP1 MLOAD PUSH1 0x1F NOT DUP2 DUP5 SUB ADD DUP2 MSTORE SWAP2 SWAP1 MSTORE PUSH1 0x3 PUSH0 MSTORE PUSH1 0x2 PUSH1 0x20 MSTORE PUSH32 0x88601476D11616A71C5BE67555BD1DFF4B1CBF21533D2669B768B61518CFE1C3 SWAP1 PUSH2 0x15E9 SWAP1 DUP3 PUSH2 0x24E1 JUMP JUMPDEST POP PUSH1 0x4 PUSH1 0x40 MLOAD PUSH1 0x20 ADD PUSH2 0x15FC SWAP2 SWAP1 PUSH2 0x26CB JUMP JUMPDEST PUSH1 0x40 DUP1 MLOAD PUSH1 0x1F NOT DUP2 DUP5 SUB ADD DUP2 MSTORE SWAP2 SWAP1 MSTORE PUSH1 0x4 PUSH0 MSTORE PUSH1 0x2 PUSH1 0x20 MSTORE PUSH32 0xEE60D0579BCFFD98E668647D59FEC1FF86A7FB340CE572E844F234AE73A6918F SWAP1 PUSH2 0x1641 SWAP1 DUP3 PUSH2 0x24E1 JUMP JUMPDEST POP PUSH1 0x4 PUSH1 0x40 MLOAD PUSH1 0x20 ADD PUSH2 0x1654 SWAP2 SWAP1 PUSH2 0x2703 JUMP JUMPDEST PUSH1 0x40 DUP1 MLOAD PUSH1 0x1F NOT DUP2 DUP5 SUB ADD DUP2 MSTORE SWAP2 SWAP1 MSTORE PUSH1 0x5 PUSH0 MSTORE PUSH1 0x2 PUSH1 0x20 MSTORE PUSH32 0xB98B78633099FA36ED8B8680C4F8092689E1E04080EB9CBB077CA38A14D7E384 SWAP1 PUSH2 0x1699 SWAP1 DUP3 PUSH2 0x24E1 JUMP JUMPDEST POP PUSH1 0x4 PUSH1 0x40 MLOAD PUSH1 0x20 ADD PUSH2 0x16AC SWAP2 SWAP1 PUSH2 0x273B JUMP JUMPDEST PUSH1 0x40 DUP1 MLOAD PUSH1 0x1F NOT DUP2 DUP5 SUB ADD DUP2 MSTORE SWAP2 SWAP1 MSTORE PUSH1 0x6 PUSH0 MSTORE PUSH1 0x2 PUSH1 0x20 MSTORE PUSH32 0x59DD4B18488D12F51EDA69757A0ED42A2010C14B564330CC74A06895E60C077B SWAP1 PUSH2 0xD78 SWAP1 DUP3 PUSH2 0x24E1 JUMP JUMPDEST PUSH0 DUP1 PUSH32 0xF0C57E16840DF040F15088DC2F81FE391C3923BEC73E23A9662EFC9C229C6A00 PUSH2 0x6A7 JUMP JUMPDEST PUSH2 0x1721 PUSH2 0x1A14 JUMP JUMPDEST PUSH2 0x7B2 DUP3 DUP3 PUSH2 0x1A52 JUMP JUMPDEST PUSH2 0x1733 PUSH2 0x1A14 JUMP JUMPDEST PUSH2 0xD78 DUP2 PUSH2 0x1A9B JUMP JUMPDEST PUSH2 0xD59 PUSH2 0x1A14 JUMP JUMPDEST PUSH32 0x80BB2B638CC20BC4D0A60D66940F3AB4A00C1D7B313497CA82FB0B4AB0079300 PUSH1 0x1 PUSH1 0x1 PUSH1 0xA0 SHL SUB DUP4 AND PUSH2 0x17B0 JUMPI PUSH1 0x40 MLOAD PUSH32 0x5B08BA1800000000000000000000000000000000000000000000000000000000 DUP2 MSTORE PUSH1 0x1 PUSH1 0x1 PUSH1 0xA0 SHL SUB DUP5 AND PUSH1 0x4 DUP3 ADD MSTORE PUSH1 0x24 ADD PUSH2 0x816 JUMP JUMPDEST PUSH1 0x1 PUSH1 0x1 PUSH1 0xA0 SHL SUB DUP5 DUP2 AND PUSH0 DUP2 DUP2 MSTORE PUSH1 0x5 DUP5 ADD PUSH1 0x20 SWAP1 DUP2 MSTORE PUSH1 0x40 DUP1 DUP4 KECCAK256 SWAP5 DUP9 AND DUP1 DUP5 MSTORE SWAP5 DUP3 MSTORE SWAP2 DUP3 SWAP1 KECCAK256 DUP1 SLOAD PUSH1 0xFF NOT AND DUP8 ISZERO ISZERO SWAP1 DUP2 OR SWAP1 SWAP2 SSTORE SWAP2 MLOAD SWAP2 DUP3 MSTORE PUSH32 0x17307EAB39AB6107E8899845AD3D59BD9653F200F220920489CA2B5937696C31 SWAP2 ADD PUSH1 0x40 MLOAD DUP1 SWAP2 SUB SWAP1 LOG3 POP POP POP POP JUMP JUMPDEST PUSH32 0x80BB2B638CC20BC4D0A60D66940F3AB4A00C1D7B313497CA82FB0B4AB0079300 DUP2 DUP1 PUSH2 0x1854 JUMPI POP PUSH1 0x1 PUSH1 0x1 PUSH1 0xA0 SHL SUB DUP4 AND ISZERO ISZERO JUMPDEST ISZERO PUSH2 0x196B JUMPI PUSH0 PUSH2 0x1863 DUP6 PUSH2 0x1184 JUMP JUMPDEST SWAP1 POP PUSH1 0x1 PUSH1 0x1 PUSH1 0xA0 SHL SUB DUP5 AND ISZERO DUP1 ISZERO SWAP1 PUSH2 0x188F JUMPI POP DUP4 PUSH1 0x1 PUSH1 0x1 PUSH1 0xA0 SHL SUB AND DUP2 PUSH1 0x1 PUSH1 0x1 PUSH1 0xA0 SHL SUB AND EQ ISZERO JUMPDEST DUP1 ISZERO PUSH2 0x18DF JUMPI POP PUSH1 0x1 PUSH1 0x1 PUSH1 0xA0 SHL SUB DUP1 DUP3 AND PUSH0 SWAP1 DUP2 MSTORE PUSH32 0x80BB2B638CC20BC4D0A60D66940F3AB4A00C1D7B313497CA82FB0B4AB0079305 PUSH1 0x20 SWAP1 DUP2 MSTORE PUSH1 0x40 DUP1 DUP4 KECCAK256 SWAP4 DUP9 AND DUP4 MSTORE SWAP3 SWAP1 MSTORE KECCAK256 SLOAD PUSH1 0xFF AND ISZERO JUMPDEST ISZERO PUSH2 0x1921 JUMPI PUSH1 0x40 MLOAD PUSH32 0xA9FBF51F00000000000000000000000000000000000000000000000000000000 DUP2 MSTORE PUSH1 0x1 PUSH1 0x1 PUSH1 0xA0 SHL SUB DUP6 AND PUSH1 0x4 DUP3 ADD MSTORE PUSH1 0x24 ADD PUSH2 0x816 JUMP JUMPDEST DUP3 ISZERO PUSH2 0x1969 JUMPI DUP5 DUP7 PUSH1 0x1 PUSH1 0x1 PUSH1 0xA0 SHL SUB AND DUP3 PUSH1 0x1 PUSH1 0x1 PUSH1 0xA0 SHL SUB AND PUSH32 0x8C5BE1E5EBEC7D5BD14F71427D1E84F3DD0314C0F7B2291E5B200AC8C7C3B925 PUSH1 0x40 MLOAD PUSH1 0x40 MLOAD DUP1 SWAP2 SUB SWAP1 LOG4 JUMPDEST POP JUMPDEST PUSH0 SWAP4 DUP5 MSTORE PUSH1 0x4 ADD PUSH1 0x20 MSTORE POP POP PUSH1 0x40 SWAP1 KECCAK256 DUP1 SLOAD PUSH20 0xFFFFFFFFFFFFFFFFFFFFFFFFFFFFFFFFFFFFFFFF NOT AND PUSH1 0x1 PUSH1 0x1 PUSH1 0xA0 SHL SUB SWAP3 SWAP1 SWAP3 AND SWAP2 SWAP1 SWAP2 OR SWAP1 SSTORE JUMP JUMPDEST PUSH2 0x19B2 DUP4 DUP4 PUSH2 0x1AA3 JUMP JUMPDEST PUSH2 0xA3F CALLER PUSH0 DUP6 DUP6 DUP6 PUSH2 0x1B1D JUMP JUMPDEST PUSH2 0x19C8 DUP3 PUSH2 0x1C44 JUMP JUMPDEST PUSH1 0x40 MLOAD PUSH1 0x1 PUSH1 0x1 PUSH1 0xA0 SHL SUB DUP4 AND SWAP1 PUSH32 0xBC7CD75A20EE27FD9ADEBAB32041F755214DBC6BFFA90CC0225B39DA2E5C2D3B SWAP1 PUSH0 SWAP1 LOG2 DUP1 MLOAD ISZERO PUSH2 0x1A0C JUMPI PUSH2 0xA3F DUP3 DUP3 PUSH2 0x1CC7 JUMP JUMPDEST PUSH2 0x7B2 PUSH2 0x1D39 JUMP JUMPDEST PUSH2 0x1A1C PUSH2 0x1D71 JUMP JUMPDEST PUSH2 0xD59 JUMPI PUSH1 0x40 MLOAD PUSH32 0xD7E6BCF800000000000000000000000000000000000000000000000000000000 DUP2 MSTORE PUSH1 0x4 ADD PUSH1 0x40 MLOAD DUP1 SWAP2 SUB SWAP1 REVERT JUMPDEST PUSH2 0x1A5A PUSH2 0x1A14 JUMP JUMPDEST PUSH32 0x80BB2B638CC20BC4D0A60D66940F3AB4A00C1D7B313497CA82FB0B4AB0079300 DUP1 PUSH2 0x1A86 DUP5 DUP3 PUSH2 0x24E1 JUMP JUMPDEST POP PUSH1 0x1 DUP2 ADD PUSH2 0x1A95 DUP4 DUP3 PUSH2 0x24E1 JUMP JUMPDEST POP POP POP POP JUMP JUMPDEST PUSH2 0x1139 PUSH2 0x1A14 JUMP JUMPDEST PUSH1 0x1 PUSH1 0x1 PUSH1 0xA0 SHL SUB DUP3 AND PUSH2 0x1ACC JUMPI PUSH1 0x40 MLOAD PUSH4 0x32505749 PUSH1 0xE1 SHL DUP2 MSTORE PUSH0 PUSH1 0x4 DUP3 ADD MSTORE PUSH1 0x24 ADD PUSH2 0x816 JUMP JUMPDEST PUSH0 PUSH2 0x1AD8 DUP4 DUP4 PUSH0 PUSH2 0x1D8F JUMP JUMPDEST SWAP1 POP PUSH1 0x1 PUSH1 0x1 PUSH1 0xA0 SHL SUB DUP2 AND ISZERO PUSH2 0xA3F JUMPI PUSH1 0x40 MLOAD PUSH32 0x73C6AC6E00000000000000000000000000000000000000000000000000000000 DUP2 MSTORE PUSH0 PUSH1 0x4 DUP3 ADD MSTORE PUSH1 0x24 ADD PUSH2 0x816 JUMP JUMPDEST PUSH1 0x1 PUSH1 0x1 PUSH1 0xA0 SHL SUB DUP4 AND EXTCODESIZE ISZERO PUSH2 0xF46 JUMPI PUSH1 0x40 MLOAD PUSH4 0xA85BD01 PUSH1 0xE1 SHL DUP2 MSTORE PUSH1 0x1 PUSH1 0x1 PUSH1 0xA0 SHL SUB DUP5 AND SWAP1 PUSH4 0x150B7A02 SWAP1 PUSH2 0x1B5F SWAP1 DUP9 SWAP1 DUP9 SWAP1 DUP8 SWAP1 DUP8 SWAP1 PUSH1 0x4 ADD PUSH2 0x2773 JUMP JUMPDEST PUSH1 0x20 PUSH1 0x40 MLOAD DUP1 DUP4 SUB DUP2 PUSH0 DUP8 GAS CALL SWAP3 POP POP POP DUP1 ISZERO PUSH2 0x1B99 JUMPI POP PUSH1 0x40 DUP1 MLOAD PUSH1 0x1F RETURNDATASIZE SWAP1 DUP2 ADD PUSH1 0x1F NOT AND DUP3 ADD SWAP1 SWAP3 MSTORE PUSH2 0x1B96 SWAP2 DUP2 ADD SWAP1 PUSH2 0x27AE JUMP JUMPDEST PUSH1 0x1 JUMPDEST PUSH2 0x1C00 JUMPI RETURNDATASIZE DUP1 DUP1 ISZERO PUSH2 0x1BC6 JUMPI PUSH1 0x40 MLOAD SWAP2 POP PUSH1 0x1F NOT PUSH1 0x3F RETURNDATASIZE ADD AND DUP3 ADD PUSH1 0x40 MSTORE RETURNDATASIZE DUP3 MSTORE RETURNDATASIZE PUSH0 PUSH1 0x20 DUP5 ADD RETURNDATACOPY PUSH2 0x1BCB JUMP JUMPDEST PUSH1 0x60 SWAP2 POP JUMPDEST POP DUP1 MLOAD PUSH0 SUB PUSH2 0x1BF8 JUMPI PUSH1 0x40 MLOAD PUSH4 0x32505749 PUSH1 0xE1 SHL DUP2 MSTORE PUSH1 0x1 PUSH1 0x1 PUSH1 0xA0 SHL SUB DUP6 AND PUSH1 0x4 DUP3 ADD MSTORE PUSH1 0x24 ADD PUSH2 0x816 JUMP JUMPDEST DUP1 MLOAD PUSH1 0x20 DUP3 ADD REVERT JUMPDEST PUSH1 0x1 PUSH1 0x1 PUSH1 0xE0 SHL SUB NOT DUP2 AND PUSH4 0xA85BD01 PUSH1 0xE1 SHL EQ PUSH2 0x1C3C JUMPI PUSH1 0x40 MLOAD PUSH4 0x32505749 PUSH1 0xE1 SHL DUP2 MSTORE PUSH1 0x1 PUSH1 0x1 PUSH1 0xA0 SHL SUB DUP6 AND PUSH1 0x4 DUP3 ADD MSTORE PUSH1 0x24 ADD PUSH2 0x816 JUMP JUMPDEST POP POP POP POP POP POP JUMP JUMPDEST DUP1 PUSH1 0x1 PUSH1 0x1 PUSH1 0xA0 SHL SUB AND EXTCODESIZE PUSH0 SUB PUSH2 0x1C79 JUMPI PUSH1 0x40 MLOAD PUSH4 0x4C9C8CE3 PUSH1 0xE0 SHL DUP2 MSTORE PUSH1 0x1 PUSH1 0x1 PUSH1 0xA0 SHL SUB DUP3 AND PUSH1 0x4 DUP3 ADD MSTORE PUSH1 0x24 ADD PUSH2 0x816 JUMP JUMPDEST PUSH32 0x360894A13BA1A3210667C828492DB98DCA3E2076CC3735A920A3CA505D382BBC DUP1 SLOAD PUSH20 0xFFFFFFFFFFFFFFFFFFFFFFFFFFFFFFFFFFFFFFFF NOT AND PUSH1 0x1 PUSH1 0x1 PUSH1 0xA0 SHL SUB SWAP3 SWAP1 SWAP3 AND SWAP2 SWAP1 SWAP2 OR SWAP1 SSTORE JUMP JUMPDEST PUSH1 0x60 PUSH0 DUP1 DUP5 PUSH1 0x1 PUSH1 0x1 PUSH1 0xA0 SHL SUB AND DUP5 PUSH1 0x40 MLOAD PUSH2 0x1CE3 SWAP2 SWAP1 PUSH2 0x2482 JUMP JUMPDEST PUSH0 PUSH1 0x40 MLOAD DUP1 DUP4 SUB DUP2 DUP6 GAS DELEGATECALL SWAP2 POP POP RETURNDATASIZE DUP1 PUSH0 DUP2 EQ PUSH2 0x1D1B JUMPI PUSH1 0x40 MLOAD SWAP2 POP PUSH1 0x1F NOT PUSH1 0x3F RETURNDATASIZE ADD AND DUP3 ADD PUSH1 0x40 MSTORE RETURNDATASIZE DUP3 MSTORE RETURNDATASIZE PUSH0 PUSH1 0x20 DUP5 ADD RETURNDATACOPY PUSH2 0x1D20 JUMP JUMPDEST PUSH1 0x60 SWAP2 POP JUMPDEST POP SWAP2 POP SWAP2 POP PUSH2 0x1D30 DUP6 DUP4 DUP4 PUSH2 0x1ED8 JUMP JUMPDEST SWAP6 SWAP5 POP POP POP POP POP JUMP JUMPDEST CALLVALUE ISZERO PUSH2 0xD59 JUMPI PUSH1 0x40 MLOAD PUSH32 0xB398979F00000000000000000000000000000000000000000000000000000000 DUP2 MSTORE PUSH1 0x4 ADD PUSH1 0x40 MLOAD DUP1 SWAP2 SUB SWAP1 REVERT JUMPDEST PUSH0 PUSH2 0x1D7A PUSH2 0x16F1 JUMP JUMPDEST SLOAD PUSH9 0x10000000000000000 SWAP1 DIV PUSH1 0xFF AND SWAP2 SWAP1 POP JUMP JUMPDEST PUSH0 DUP3 DUP2 MSTORE PUSH32 0x80BB2B638CC20BC4D0A60D66940F3AB4A00C1D7B313497CA82FB0B4AB0079302 PUSH1 0x20 MSTORE PUSH1 0x40 DUP2 KECCAK256 SLOAD PUSH32 0x80BB2B638CC20BC4D0A60D66940F3AB4A00C1D7B313497CA82FB0B4AB0079300 SWAP1 PUSH1 0x1 PUSH1 0x1 PUSH1 0xA0 SHL SUB SWAP1 DUP2 AND SWAP1 DUP5 AND ISZERO PUSH2 0x1DFC JUMPI PUSH2 0x1DFC DUP2 DUP6 DUP8 PUSH2 0x1F4D JUMP JUMPDEST PUSH1 0x1 PUSH1 0x1 PUSH1 0xA0 SHL SUB DUP2 AND ISZERO PUSH2 0x1E38 JUMPI PUSH2 0x1E17 PUSH0 DUP7 PUSH0 DUP1 PUSH2 0x181F JUMP JUMPDEST PUSH1 0x1 PUSH1 0x1 PUSH1 0xA0 SHL SUB DUP2 AND PUSH0 SWAP1 DUP2 MSTORE PUSH1 0x3 DUP4 ADD PUSH1 0x20 MSTORE PUSH1 0x40 SWAP1 KECCAK256 DUP1 SLOAD PUSH0 NOT ADD SWAP1 SSTORE JUMPDEST PUSH1 0x1 PUSH1 0x1 PUSH1 0xA0 SHL SUB DUP7 AND ISZERO PUSH2 0x1E68 JUMPI PUSH1 0x1 PUSH1 0x1 PUSH1 0xA0 SHL SUB DUP7 AND PUSH0 SWAP1 DUP2 MSTORE PUSH1 0x3 DUP4 ADD PUSH1 0x20 MSTORE PUSH1 0x40 SWAP1 KECCAK256 DUP1 SLOAD PUSH1 0x1 ADD SWAP1 SSTORE JUMPDEST PUSH0 DUP6 DUP2 MSTORE PUSH1 0x2 DUP4 ADD PUSH1 0x20 MSTORE PUSH1 0x40 DUP1 DUP3 KECCAK256 DUP1 SLOAD PUSH20 0xFFFFFFFFFFFFFFFFFFFFFFFFFFFFFFFFFFFFFFFF NOT AND PUSH1 0x1 PUSH1 0x1 PUSH1 0xA0 SHL SUB DUP11 DUP2 AND SWAP2 DUP3 OR SWAP1 SWAP3 SSTORE SWAP2 MLOAD DUP9 SWAP4 SWAP2 DUP6 AND SWAP2 PUSH32 0xDDF252AD1BE2C89B69C2B068FC378DAA952BA7F163C4A11628F55A4DF523B3EF SWAP2 LOG4 SWAP2 POP POP JUMPDEST SWAP4 SWAP3 POP POP POP JUMP JUMPDEST PUSH1 0x60 DUP3 PUSH2 0x1EED JUMPI PUSH2 0x1EE8 DUP3 PUSH2 0x1FCA JUMP JUMPDEST PUSH2 0x1ED1 JUMP JUMPDEST DUP2 MLOAD ISZERO DUP1 ISZERO PUSH2 0x1F04 JUMPI POP PUSH1 0x1 PUSH1 0x1 PUSH1 0xA0 SHL SUB DUP5 AND EXTCODESIZE ISZERO JUMPDEST ISZERO PUSH2 0x1F46 JUMPI PUSH1 0x40 MLOAD PUSH32 0x9996B31500000000000000000000000000000000000000000000000000000000 DUP2 MSTORE PUSH1 0x1 PUSH1 0x1 PUSH1 0xA0 SHL SUB DUP6 AND PUSH1 0x4 DUP3 ADD MSTORE PUSH1 0x24 ADD PUSH2 0x816 JUMP JUMPDEST POP DUP1 PUSH2 0x1ED1 JUMP JUMPDEST PUSH2 0x1F58 DUP4 DUP4 DUP4 PUSH2 0x200B JUMP JUMPDEST PUSH2 0xA3F JUMPI PUSH1 0x1 PUSH1 0x1 PUSH1 0xA0 SHL SUB DUP4 AND PUSH2 0x1F86 JUMPI PUSH1 0x40 MLOAD PUSH4 0x7E273289 PUSH1 0xE0 SHL DUP2 MSTORE PUSH1 0x4 DUP2 ADD DUP3 SWAP1 MSTORE PUSH1 0x24 ADD PUSH2 0x816 JUMP JUMPDEST PUSH1 0x40 MLOAD PUSH32 0x177E802F00000000000000000000000000000000000000000000000000000000 DUP2 MSTORE PUSH1 0x1 PUSH1 0x1 PUSH1 0xA0 SHL SUB DUP4 AND PUSH1 0x4 DUP3 ADD MSTORE PUSH1 0x24 DUP2 ADD DUP3 SWAP1 MSTORE PUSH1 0x44 ADD PUSH2 0x816 JUMP JUMPDEST DUP1 MLOAD ISZERO PUSH2 0x1FD9 JUMPI DUP1 MLOAD PUSH1 0x20 DUP3 ADD REVERT JUMPDEST PUSH1 0x40 MLOAD PUSH32 0xD6BDA27500000000000000000000000000000000000000000000000000000000 DUP2 MSTORE PUSH1 0x4 ADD PUSH1 0x40 MLOAD DUP1 SWAP2 SUB SWAP1 REVERT JUMPDEST PUSH0 PUSH1 0x1 PUSH1 0x1 PUSH1 0xA0 SHL SUB DUP4 AND ISZERO DUP1 ISZERO SWAP1 PUSH2 0x20C4 JUMPI POP DUP3 PUSH1 0x1 PUSH1 0x1 PUSH1 0xA0 SHL SUB AND DUP5 PUSH1 0x1 PUSH1 0x1 PUSH1 0xA0 SHL SUB AND EQ DUP1 PUSH2 0x2082 JUMPI POP PUSH1 0x1 PUSH1 0x1 PUSH1 0xA0 SHL SUB DUP1 DUP6 AND PUSH0 SWAP1 DUP2 MSTORE PUSH32 0x80BB2B638CC20BC4D0A60D66940F3AB4A00C1D7B313497CA82FB0B4AB0079305 PUSH1 0x20 SWAP1 DUP2 MSTORE PUSH1 0x40 DUP1 DUP4 KECCAK256 SWAP4 DUP8 AND DUP4 MSTORE SWAP3 SWAP1 MSTORE KECCAK256 SLOAD PUSH1 0xFF AND JUMPDEST DUP1 PUSH2 0x20C4 JUMPI POP PUSH0 DUP3 DUP2 MSTORE PUSH32 0x80BB2B638CC20BC4D0A60D66940F3AB4A00C1D7B313497CA82FB0B4AB0079304 PUSH1 0x20 MSTORE PUSH1 0x40 SWAP1 KECCAK256 SLOAD PUSH1 0x1 PUSH1 0x1 PUSH1 0xA0 SHL SUB DUP5 DUP2 AND SWAP2 AND EQ JUMPDEST SWAP5 SWAP4 POP POP POP POP JUMP JUMPDEST PUSH1 0x1 PUSH1 0x1 PUSH1 0xE0 SHL SUB NOT DUP2 AND DUP2 EQ PUSH2 0xD78 JUMPI PUSH0 DUP1 REVERT JUMPDEST PUSH0 PUSH1 0x20 DUP3 DUP5 SUB SLT ISZERO PUSH2 0x20F1 JUMPI PUSH0 DUP1 REVERT JUMPDEST DUP2 CALLDATALOAD PUSH2 0x1ED1 DUP2 PUSH2 0x20CC JUMP JUMPDEST PUSH0 JUMPDEST DUP4 DUP2 LT ISZERO PUSH2 0x2116 JUMPI DUP2 DUP2 ADD MLOAD DUP4 DUP3 ADD MSTORE PUSH1 0x20 ADD PUSH2 0x20FE JUMP JUMPDEST POP POP PUSH0 SWAP2 ADD MSTORE JUMP JUMPDEST PUSH0 DUP2 MLOAD DUP1 DUP5 MSTORE PUSH2 0x2135 DUP2 PUSH1 0x20 DUP7 ADD PUSH1 0x20 DUP7 ADD PUSH2 0x20FC JUMP JUMPDEST PUSH1 0x1F ADD PUSH1 0x1F NOT AND SWAP3 SWAP1 SWAP3 ADD PUSH1 0x20 ADD SWAP3 SWAP2 POP POP JUMP JUMPDEST PUSH1 0x20 DUP2 MSTORE PUSH0 PUSH2 0x1ED1 PUSH1 0x20 DUP4 ADD DUP5 PUSH2 0x211E JUMP JUMPDEST PUSH0 PUSH1 0x20 DUP3 DUP5 SUB SLT ISZERO PUSH2 0x216B JUMPI PUSH0 DUP1 REVERT JUMPDEST POP CALLDATALOAD SWAP2 SWAP1 POP JUMP JUMPDEST DUP1 CALLDATALOAD PUSH1 0x1 PUSH1 0x1 PUSH1 0xA0 SHL SUB DUP2 AND DUP2 EQ PUSH2 0x2188 JUMPI PUSH0 DUP1 REVERT JUMPDEST SWAP2 SWAP1 POP JUMP JUMPDEST PUSH0 DUP1 PUSH1 0x40 DUP4 DUP6 SUB SLT ISZERO PUSH2 0x219E JUMPI PUSH0 DUP1 REVERT JUMPDEST PUSH2 0x21A7 DUP4 PUSH2 0x2172 JUMP JUMPDEST SWAP5 PUSH1 0x20 SWAP4 SWAP1 SWAP4 ADD CALLDATALOAD SWAP4 POP POP POP JUMP JUMPDEST PUSH4 0x4E487B71 PUSH1 0xE0 SHL PUSH0 MSTORE PUSH1 0x41 PUSH1 0x4 MSTORE PUSH1 0x24 PUSH0 REVERT JUMPDEST PUSH0 DUP3 PUSH1 0x1F DUP4 ADD SLT PUSH2 0x21D8 JUMPI PUSH0 DUP1 REVERT JUMPDEST DUP2 CALLDATALOAD PUSH8 0xFFFFFFFFFFFFFFFF DUP1 DUP3 GT ISZERO PUSH2 0x21F3 JUMPI PUSH2 0x21F3 PUSH2 0x21B5 JUMP JUMPDEST PUSH1 0x40 MLOAD PUSH1 0x1F DUP4 ADD PUSH1 0x1F NOT SWAP1 DUP2 AND PUSH1 0x3F ADD AND DUP2 ADD SWAP1 DUP3 DUP3 GT DUP2 DUP4 LT OR ISZERO PUSH2 0x221B JUMPI PUSH2 0x221B PUSH2 0x21B5 JUMP JUMPDEST DUP2 PUSH1 0x40 MSTORE DUP4 DUP2 MSTORE DUP7 PUSH1 0x20 DUP6 DUP9 ADD ADD GT ISZERO PUSH2 0x2233 JUMPI PUSH0 DUP1 REVERT JUMPDEST DUP4 PUSH1 0x20 DUP8 ADD PUSH1 0x20 DUP4 ADD CALLDATACOPY PUSH0 PUSH1 0x20 DUP6 DUP4 ADD ADD MSTORE DUP1 SWAP5 POP POP POP POP POP SWAP3 SWAP2 POP POP JUMP JUMPDEST PUSH0 DUP1 PUSH1 0x40 DUP4 DUP6 SUB SLT ISZERO PUSH2 0x2263 JUMPI PUSH0 DUP1 REVERT JUMPDEST PUSH2 0x226C DUP4 PUSH2 0x2172 JUMP JUMPDEST SWAP2 POP PUSH1 0x20 DUP4 ADD CALLDATALOAD PUSH8 0xFFFFFFFFFFFFFFFF DUP2 GT ISZERO PUSH2 0x2287 JUMPI PUSH0 DUP1 REVERT JUMPDEST PUSH2 0x2293 DUP6 DUP3 DUP7 ADD PUSH2 0x21C9 JUMP JUMPDEST SWAP2 POP POP SWAP3 POP SWAP3 SWAP1 POP JUMP JUMPDEST PUSH0 DUP1 PUSH0 PUSH1 0x60 DUP5 DUP7 SUB SLT ISZERO PUSH2 0x22AF JUMPI PUSH0 DUP1 REVERT JUMPDEST PUSH2 0x22B8 DUP5 PUSH2 0x2172 JUMP JUMPDEST SWAP3 POP PUSH2 0x22C6 PUSH1 0x20 DUP6 ADD PUSH2 0x2172 JUMP JUMPDEST SWAP2 POP PUSH1 0x40 DUP5 ADD CALLDATALOAD SWAP1 POP SWAP3 POP SWAP3 POP SWAP3 JUMP JUMPDEST PUSH0 PUSH1 0x20 DUP3 DUP5 SUB SLT ISZERO PUSH2 0x22E6 JUMPI PUSH0 DUP1 REVERT JUMPDEST DUP2 CALLDATALOAD PUSH8 0xFFFFFFFFFFFFFFFF DUP2 GT ISZERO PUSH2 0x22FC JUMPI PUSH0 DUP1 REVERT JUMPDEST PUSH2 0x20C4 DUP5 DUP3 DUP6 ADD PUSH2 0x21C9 JUMP JUMPDEST PUSH0 PUSH1 0x20 DUP3 DUP5 SUB SLT ISZERO PUSH2 0x2318 JUMPI PUSH0 DUP1 REVERT JUMPDEST PUSH2 0x1ED1 DUP3 PUSH2 0x2172 JUMP JUMPDEST PUSH0 DUP1 PUSH1 0x40 DUP4 DUP6 SUB SLT ISZERO PUSH2 0x2332 JUMPI PUSH0 DUP1 REVERT JUMPDEST PUSH2 0x233B DUP4 PUSH2 0x2172 JUMP JUMPDEST SWAP2 POP PUSH1 0x20 DUP4 ADD CALLDATALOAD DUP1 ISZERO ISZERO DUP2 EQ PUSH2 0x234F JUMPI PUSH0 DUP1 REVERT JUMPDEST DUP1 SWAP2 POP POP SWAP3 POP SWAP3 SWAP1 POP JUMP JUMPDEST PUSH0 DUP1 PUSH0 DUP1 PUSH1 0x80 DUP6 DUP8 SUB SLT ISZERO PUSH2 0x236D JUMPI PUSH0 DUP1 REVERT JUMPDEST PUSH2 0x2376 DUP6 PUSH2 0x2172 JUMP JUMPDEST SWAP4 POP PUSH2 0x2384 PUSH1 0x20 DUP7 ADD PUSH2 0x2172 JUMP JUMPDEST SWAP3 POP PUSH1 0x40 DUP6 ADD CALLDATALOAD SWAP2 POP PUSH1 0x60 DUP6 ADD CALLDATALOAD PUSH8 0xFFFFFFFFFFFFFFFF DUP2 GT ISZERO PUSH2 0x23A6 JUMPI PUSH0 DUP1 REVERT JUMPDEST PUSH2 0x23B2 DUP8 DUP3 DUP9 ADD PUSH2 0x21C9 JUMP JUMPDEST SWAP2 POP POP SWAP3 SWAP6 SWAP2 SWAP5 POP SWAP3 POP JUMP JUMPDEST PUSH0 DUP1 PUSH1 0x40 DUP4 DUP6 SUB SLT ISZERO PUSH2 0x23CF JUMPI PUSH0 DUP1 REVERT JUMPDEST PUSH2 0x23D8 DUP4 PUSH2 0x2172 JUMP JUMPDEST SWAP2 POP PUSH2 0x23E6 PUSH1 0x20 DUP5 ADD PUSH2 0x2172 JUMP JUMPDEST SWAP1 POP SWAP3 POP SWAP3 SWAP1 POP JUMP JUMPDEST PUSH1 0x20 DUP1 DUP3 MSTORE DUP3 MLOAD DUP3 DUP3 ADD DUP2 SWAP1 MSTORE PUSH0 SWAP2 SWAP1 DUP5 DUP3 ADD SWAP1 PUSH1 0x40 DUP6 ADD SWAP1 DUP5 JUMPDEST DUP2 DUP2 LT ISZERO PUSH2 0x2426 JUMPI DUP4 MLOAD DUP4 MSTORE SWAP3 DUP5 ADD SWAP3 SWAP2 DUP5 ADD SWAP2 PUSH1 0x1 ADD PUSH2 0x240A JUMP JUMPDEST POP SWAP1 SWAP7 SWAP6 POP POP POP POP POP POP JUMP JUMPDEST PUSH1 0x1 DUP2 DUP2 SHR SWAP1 DUP3 AND DUP1 PUSH2 0x2446 JUMPI PUSH1 0x7F DUP3 AND SWAP2 POP JUMPDEST PUSH1 0x20 DUP3 LT DUP2 SUB PUSH2 0x2464 JUMPI PUSH4 0x4E487B71 PUSH1 0xE0 SHL PUSH0 MSTORE PUSH1 0x22 PUSH1 0x4 MSTORE PUSH1 0x24 PUSH0 REVERT JUMPDEST POP SWAP2 SWAP1 POP JUMP JUMPDEST DUP3 DUP2 MSTORE PUSH1 0x40 PUSH1 0x20 DUP3 ADD MSTORE PUSH0 PUSH2 0x20C4 PUSH1 0x40 DUP4 ADD DUP5 PUSH2 0x211E JUMP JUMPDEST PUSH0 DUP3 MLOAD PUSH2 0x2493 DUP2 DUP5 PUSH1 0x20 DUP8 ADD PUSH2 0x20FC JUMP JUMPDEST SWAP2 SWAP1 SWAP2 ADD SWAP3 SWAP2 POP POP JUMP JUMPDEST PUSH1 0x1F DUP3 GT ISZERO PUSH2 0xA3F JUMPI DUP1 PUSH0 MSTORE PUSH1 0x20 PUSH0 KECCAK256 PUSH1 0x1F DUP5 ADD PUSH1 0x5 SHR DUP2 ADD PUSH1 0x20 DUP6 LT ISZERO PUSH2 0x24C2 JUMPI POP DUP1 JUMPDEST PUSH1 0x1F DUP5 ADD PUSH1 0x5 SHR DUP3 ADD SWAP2 POP JUMPDEST DUP2 DUP2 LT ISZERO PUSH2 0xF46 JUMPI PUSH0 DUP2 SSTORE PUSH1 0x1 ADD PUSH2 0x24CE JUMP JUMPDEST DUP2 MLOAD PUSH8 0xFFFFFFFFFFFFFFFF DUP2 GT ISZERO PUSH2 0x24FB JUMPI PUSH2 0x24FB PUSH2 0x21B5 JUMP JUMPDEST PUSH2 0x250F DUP2 PUSH2 0x2509 DUP5 SLOAD PUSH2 0x2432 JUMP JUMPDEST DUP5 PUSH2 0x249D JUMP JUMPDEST PUSH1 0x20 DUP1 PUSH1 0x1F DUP4 GT PUSH1 0x1 DUP2 EQ PUSH2 0x2542 JUMPI PUSH0 DUP5 ISZERO PUSH2 0x252B JUMPI POP DUP6 DUP4 ADD MLOAD JUMPDEST PUSH0 NOT PUSH1 0x3 DUP7 SWAP1 SHL SHR NOT AND PUSH1 0x1 DUP6 SWAP1 SHL OR DUP6 SSTORE PUSH2 0x1C3C JUMP JUMPDEST PUSH0 DUP6 DUP2 MSTORE PUSH1 0x20 DUP2 KECCAK256 PUSH1 0x1F NOT DUP7 AND SWAP2 JUMPDEST DUP3 DUP2 LT ISZERO PUSH2 0x2570 JUMPI DUP9 DUP7 ADD MLOAD DUP3 SSTORE SWAP5 DUP5 ADD SWAP5 PUSH1 0x1 SWAP1 SWAP2 ADD SWAP1 DUP5 ADD PUSH2 0x2551 JUMP JUMPDEST POP DUP6 DUP3 LT ISZERO PUSH2 0x258D JUMPI DUP8 DUP6 ADD MLOAD PUSH0 NOT PUSH1 0x3 DUP9 SWAP1 SHL PUSH1 0xF8 AND SHR NOT AND DUP2 SSTORE JUMPDEST POP POP POP POP POP PUSH1 0x1 SWAP1 DUP2 SHL ADD SWAP1 SSTORE POP JUMP JUMPDEST PUSH0 PUSH1 0x20 DUP3 DUP5 SUB SLT ISZERO PUSH2 0x25AD JUMPI PUSH0 DUP1 REVERT JUMPDEST POP MLOAD SWAP2 SWAP1 POP JUMP JUMPDEST PUSH0 DUP2 SLOAD PUSH2 0x25C0 DUP2 PUSH2 0x2432 JUMP JUMPDEST PUSH1 0x1 DUP3 DUP2 AND DUP1 ISZERO PUSH2 0x25D8 JUMPI PUSH1 0x1 DUP2 EQ PUSH2 0x25ED JUMPI PUSH2 0x2619 JUMP JUMPDEST PUSH1 0xFF NOT DUP5 AND DUP8 MSTORE DUP3 ISZERO ISZERO DUP4 MUL DUP8 ADD SWAP5 POP PUSH2 0x2619 JUMP JUMPDEST DUP6 PUSH0 MSTORE PUSH1 0x20 DUP1 PUSH0 KECCAK256 PUSH0 JUMPDEST DUP6 DUP2 LT ISZERO PUSH2 0x2610 JUMPI DUP2 SLOAD DUP11 DUP3 ADD MSTORE SWAP1 DUP5 ADD SWAP1 DUP3 ADD PUSH2 0x25F7 JUMP JUMPDEST POP POP POP DUP3 DUP8 ADD SWAP5 POP JUMPDEST POP POP POP POP SWAP3 SWAP2 POP POP JUMP JUMPDEST PUSH0 PUSH2 0x262E DUP3 DUP5 PUSH2 0x25B4 JUMP JUMPDEST PUSH32 0x66697273742D646174652E6A736F6E0000000000000000000000000000000000 DUP2 MSTORE PUSH1 0xF ADD SWAP4 SWAP3 POP POP POP JUMP JUMPDEST PUSH0 PUSH2 0x2666 DUP3 DUP5 PUSH2 0x25B4 JUMP JUMPDEST PUSH32 0x352D64617465732E6A736F6E0000000000000000000000000000000000000000 DUP2 MSTORE PUSH1 0xC ADD SWAP4 SWAP3 POP POP POP JUMP JUMPDEST PUSH0 PUSH2 0x269E DUP3 DUP5 PUSH2 0x25B4 JUMP JUMPDEST PUSH32 0x31302D64617465732E6A736F6E00000000000000000000000000000000000000 DUP2 MSTORE PUSH1 0xD ADD SWAP4 SWAP3 POP POP POP JUMP JUMPDEST PUSH0 PUSH2 0x26D6 DUP3 DUP5 PUSH2 0x25B4 JUMP JUMPDEST PUSH32 0x352D737461722E6A736F6E000000000000000000000000000000000000000000 DUP2 MSTORE PUSH1 0xB ADD SWAP4 SWAP3 POP POP POP JUMP JUMPDEST PUSH0 PUSH2 0x270E DUP3 DUP5 PUSH2 0x25B4 JUMP JUMPDEST PUSH32 0x706572666563742D7765656B2E6A736F6E000000000000000000000000000000 DUP2 MSTORE PUSH1 0x11 ADD SWAP4 SWAP3 POP POP POP JUMP JUMPDEST PUSH0 PUSH2 0x2746 DUP3 DUP5 PUSH2 0x25B4 JUMP JUMPDEST PUSH32 0x6D617463682D6D616B65722E6A736F6E00000000000000000000000000000000 DUP2 MSTORE PUSH1 0x10 ADD SWAP4 SWAP3 POP POP POP JUMP JUMPDEST PUSH0 PUSH1 0x1 PUSH1 0x1 PUSH1 0xA0 SHL SUB DUP1 DUP8 AND DUP4 MSTORE DUP1 DUP7 AND PUSH1 0x20 DUP5 ADD MSTORE POP DUP4 PUSH1 0x40 DUP4 ADD MSTORE PUSH1 0x80 PUSH1 0x60 DUP4 ADD MSTORE PUSH2 0x27A4 PUSH1 0x80 DUP4 ADD DUP5 PUSH2 0x211E JUMP JUMPDEST SWAP7 SWAP6 POP POP POP POP POP POP JUMP JUMPDEST PUSH0 PUSH1 0x20 DUP3 DUP5 SUB SLT ISZERO PUSH2 0x27BE JUMPI PUSH0 DUP1 REVERT JUMPDEST DUP2 MLOAD PUSH2 0x1ED1 DUP2 PUSH2 0x20CC JUMP INVALID PUSH9 0x747470733A2F2F6571 PUSH22 0x616C2D62726F6E7A652D6261742E6D7966696C656261 PUSH20 0x652E636F6D2F697066732F516D55614B56466F73 SSTORE PUSH7 0x476167596D7545 CODECOPY PUSH7 0x54716B7731394C 0x4B 0x4A CODECOPY CHAINID CALLER 0x4A PUSH16 0x6237514574726E555A4A64572FA26469 PUSH17 0x6673582212204EB1BA1D2A349B1ABAD782 PUSH0 0xC3 PUSH18 0xD82059718BCB77507BBFCF2B86BDD405FE61 PUSH5 0x736F6C6343 STOP ADDMOD AND STOP CALLER "},"methodIdentifiers":{"UPGRADE_INTERFACE_VERSION()":"ad3cb1cc","achievementMetadataURI(uint256)":"1e244808","approve(address,uint256)":"095ea7b3","balanceOf(address)":"70a08231","baseMetadataURI()":"5b2bd79e","getApproved(uint256)":"081812fc","getTokenIdFromType(string)":"4fcca15f","getUserAchievements(address)":"f09153c4","hasEarnedAchievement(address,uint256)":"e500f31c","initialize()":"8129fc1c","isApprovedForAll(address,address)":"e985e9c5","mintAchievement(address,string)":"0fc7e0c3","name()":"06fdde03","owner()":"8da5cb5b","ownerOf(uint256)":"6352211e","proxiableUUID()":"52d1902d","renounceOwnership()":"715018a6","safeTransferFrom(address,address,uint256)":"42842e0e","safeTransferFrom(address,address,uint256,bytes)":"b88d4fde","setApprovalForAll(address,bool)":"a22cb465","setBaseMetadataURI(string)":"7e518ec8","supportsInterface(bytes4)":"01ffc9a7","symbol()":"95d89b41","tokenURI(uint256)":"c87b56dd","transferFrom(address,address,uint256)":"23b872dd","transferOwnership(address)":"f2fde38b","upgradeToAndCall(address,bytes)":"4f1ef286","userAchievements(address,uint256)":"24548c60","userHasEarnedAchievement(address,uint256)":"155d0706"}},"storageLayout":{"storage":[{"astId":7941,"contract":"contracts/Achievement.sol:Achievement","label":"_tokenIdCounter","offset":0,"slot":"0","type":"t_uint256"},{"astId":7946,"contract":"contracts/Achievement.sol:Achievement","label":"userAchievements","offset":0,"slot":"1","type":"t_mapping(t_address,t_array(t_uint256)dyn_storage)"},{"astId":7950,"contract":"contracts/Achievement.sol:Achievement","label":"achievementMetadataURI","offset":0,"slot":"2","type":"t_mapping(t_uint256,t_string_storage)"},{"astId":7956,"contract":"contracts/Achievement.sol:Achievement","label":"userHasEarnedAchievement","offset":0,"slot":"3","type":"t_mapping(t_address,t_mapping(t_uint256,t_bool))"},{"astId":7958,"contract":"contracts/Achievement.sol:Achievement","label":"baseMetadataURI","offset":0,"slot":"4","type":"t_string_storage"}],"types":{"t_address":{"encoding":"inplace","label":"address","numberOfBytes":"20"},"t_array(t_uint256)dyn_storage":{"base":"t_uint256","encoding":"dynamic_array","label":"uint256[]","numberOfBytes":"32"},"t_bool":{"encoding":"inplace","label":"bool","numberOfBytes":"1"},"t_mapping(t_address,t_array(t_uint256)dyn_storage)":{"encoding":"mapping","key":"t_address","label":"mapping(address => uint256[])","numberOfBytes":"32","value":"t_array(t_uint256)dyn_storage"},"t_mapping(t_address,t_mapping(t_uint256,t_bool))":{"encoding":"mapping","key":"t_address","label":"mapping(address => mapping(uint256 => bool))","numberOfBytes":"32","value":"t_mapping(t_uint256,t_bool)"},"t_mapping(t_uint256,t_bool)":{"encoding":"mapping","key":"t_uint256","label":"mapping(uint256 => bool)","numberOfBytes":"32","value":"t_bool"},"t_mapping(t_uint256,t_string_storage)":{"encoding":"mapping","key":"t_uint256","label":"mapping(uint256 => string)","numberOfBytes":"32","value":"t_string_storage"},"t_string_storage":{"encoding":"bytes","label":"string","numberOfBytes":"32"},"t_uint256":{"encoding":"inplace","label":"uint256","numberOfBytes":"32"}}}}}}