{"contracts/Staking.sol":{"Staking":{"abi":[{"inputs":[{"internalType":"address","name":"target","type":"address"}],"name":"AddressEmptyCode","type":"error"},{"inputs":[{"internalType":"address","name":"implementation","type":"address"}],"name":"ERC1967InvalidImplementation","type":"error"},{"inputs":[],"name":"ERC1967NonPayable","type":"error"},{"inputs":[],"name":"FailedCall","type":"error"},{"inputs":[],"name":"InvalidInitialization","type":"error"},{"inputs":[],"name":"NotInitializing","type":"error"},{"inputs":[{"internalType":"address","name":"owner","type":"address"}],"name":"OwnableInvalidOwner","type":"error"},{"inputs":[{"internalType":"address","name":"account","type":"address"}],"name":"OwnableUnauthorizedAccount","type":"error"},{"inputs":[],"name":"ReentrancyGuardReentrantCall","type":"error"},{"inputs":[],"name":"UUPSUnauthorizedCallContext","type":"error"},{"inputs":[{"internalType":"bytes32","name":"slot","type":"bytes32"}],"name":"UUPSUnsupportedProxiableUUID","type":"error"},{"anonymous":false,"inputs":[{"indexed":false,"internalType":"uint64","name":"version","type":"uint64"}],"name":"Initialized","type":"event"},{"anonymous":false,"inputs":[{"indexed":true,"internalType":"uint256","name":"stakeId","type":"uint256"},{"indexed":true,"internalType":"address","name":"confirmer","type":"address"},{"indexed":false,"internalType":"bool","name":"iShowedUp","type":"bool"},{"indexed":false,"internalType":"bool","name":"theyShowedUp","type":"bool"}],"name":"MeetingConfirmed","type":"event"},{"anonymous":false,"inputs":[{"indexed":true,"internalType":"address","name":"previousOwner","type":"address"},{"indexed":true,"internalType":"address","name":"newOwner","type":"address"}],"name":"OwnershipTransferred","type":"event"},{"anonymous":false,"inputs":[{"indexed":true,"internalType":"uint256","name":"stakeId","type":"uint256"},{"indexed":true,"internalType":"address","name":"user2","type":"address"},{"indexed":false,"internalType":"uint256","name":"amount","type":"uint256"}],"name":"StakeAccepted","type":"event"},{"anonymous":false,"inputs":[{"indexed":true,"internalType":"uint256","name":"stakeId","type":"uint256"},{"indexed":true,"internalType":"address","name":"user1","type":"address"},{"indexed":true,"internalType":"address","name":"user2","type":"address"},{"indexed":false,"internalType":"uint256","name":"amount","type":"uint256"},{"indexed":false,"internalType":"uint256","name":"meetingTime","type":"uint256"}],"name":"StakeCreated","type":"event"},{"anonymous":false,"inputs":[{"indexed":true,"internalType":"uint256","name":"stakeId","type":"uint256"},{"indexed":false,"internalType":"uint256","name":"user1Payout","type":"uint256"},{"indexed":false,"internalType":"uint256","name":"user2Payout","type":"uint256"},{"indexed":false,"internalType":"uint256","name":"platformFee","type":"uint256"},{"indexed":false,"internalType":"string","name":"outcome","type":"string"}],"name":"StakeProcessed","type":"event"},{"anonymous":false,"inputs":[{"indexed":true,"internalType":"address","name":"implementation","type":"address"}],"name":"UpgradeCancelled","type":"event"},{"anonymous":false,"inputs":[{"indexed":true,"internalType":"address","name":"implementation","type":"address"}],"name":"UpgradeExecuted","type":"event"},{"anonymous":false,"inputs":[{"indexed":true,"internalType":"address","name":"implementation","type":"address"},{"indexed":false,"internalType":"uint256","name":"eta","type":"uint256"}],"name":"UpgradeProposed","type":"event"},{"anonymous":false,"inputs":[{"indexed":true,"internalType":"address","name":"implementation","type":"address"}],"name":"Upgraded","type":"event"},{"inputs":[],"name":"COMPASSION_REFUND_PERCENT","outputs":[{"internalType":"uint256","name":"","type":"uint256"}],"stateMutability":"view","type":"function"},{"inputs":[],"name":"CONFIRMATION_WINDOW","outputs":[{"internalType":"uint256","name":"","type":"uint256"}],"stateMutability":"view","type":"function"},{"inputs":[],"name":"PLATFORM_FEE_PERCENT","outputs":[{"internalType":"uint256","name":"","type":"uint256"}],"stateMutability":"view","type":"function"},{"inputs":[],"name":"UPGRADE_DELAY","outputs":[{"internalType":"uint256","name":"","type":"uint256"}],"stateMutability":"view","type":"function"},{"inputs":[],"name":"UPGRADE_INTERFACE_VERSION","outputs":[{"internalType":"string","name":"","type":"string"}],"stateMutability":"view","type":"function"},{"inputs":[{"internalType":"uint256","name":"stakeId","type":"uint256"}],"name":"acceptStake","outputs":[],"stateMutability":"nonpayable","type":"function"},{"inputs":[{"internalType":"uint256","name":"stakeId","type":"uint256"}],"name":"cancelStake","outputs":[],"stateMutability":"nonpayable","type":"function"},{"inputs":[],"name":"cancelUpgrade","outputs":[],"stateMutability":"nonpayable","type":"function"},{"inputs":[{"internalType":"uint256","name":"stakeId","type":"uint256"},{"internalType":"bool","name":"iShowedUp","type":"bool"},{"internalType":"bool","name":"theyShowedUp","type":"bool"}],"name":"confirmMeeting","outputs":[],"stateMutability":"nonpayable","type":"function"},{"inputs":[{"internalType":"uint256","name":"","type":"uint256"},{"internalType":"address","name":"","type":"address"}],"name":"confirmations","outputs":[{"internalType":"bool","name":"hasConfirmed","type":"bool"},{"internalType":"bool","name":"iShowedUp","type":"bool"},{"internalType":"bool","name":"theyShowedUp","type":"bool"}],"stateMutability":"view","type":"function"},{"inputs":[{"internalType":"address","name":"user2","type":"address"},{"internalType":"uint256","name":"amount","type":"uint256"},{"internalType":"uint256","name":"meetingTime","type":"uint256"}],"name":"createStake","outputs":[{"internalType":"uint256","name":"","type":"uint256"}],"stateMutability":"nonpayable","type":"function"},{"inputs":[{"internalType":"uint256","name":"stakeId","type":"uint256"},{"internalType":"address","name":"user","type":"address"}],"name":"getConfirmation","outputs":[{"components":[{"internalType":"bool","name":"hasConfirmed","type":"bool"},{"internalType":"bool","name":"iShowedUp","type":"bool"},{"internalType":"bool","name":"theyShowedUp","type":"bool"}],"internalType":"struct Staking.MeetingConfirmation","name":"","type":"tuple"}],"stateMutability":"view","type":"function"},{"inputs":[{"internalType":"uint256","name":"stakeId","type":"uint256"}],"name":"getStake","outputs":[{"components":[{"internalType":"address","name":"user1","type":"address"},{"internalType":"address","name":"user2","type":"address"},{"internalType":"uint256","name":"user1Amount","type":"uint256"},{"internalType":"uint256","name":"user2Amount","type":"uint256"},{"internalType":"uint256","name":"totalStaked","type":"uint256"},{"internalType":"uint256","name":"meetingTime","type":"uint256"},{"internalType":"bool","name":"user1Staked","type":"bool"},{"internalType":"bool","name":"user2Staked","type":"bool"},{"internalType":"bool","name":"processed","type":"bool"},{"internalType":"uint256","name":"createdAt","type":"uint256"}],"internalType":"struct Staking.Stake","name":"","type":"tuple"}],"stateMutability":"view","type":"function"},{"inputs":[{"internalType":"address","name":"_usdc","type":"address"}],"name":"initialize","outputs":[],"stateMutability":"nonpayable","type":"function"},{"inputs":[],"name":"owner","outputs":[{"internalType":"address","name":"","type":"address"}],"stateMutability":"view","type":"function"},{"inputs":[],"name":"pendingImplementation","outputs":[{"internalType":"address","name":"","type":"address"}],"stateMutability":"view","type":"function"},{"inputs":[{"internalType":"uint256","name":"stakeId","type":"uint256"}],"name":"processExpiredStake","outputs":[],"stateMutability":"nonpayable","type":"function"},{"inputs":[{"internalType":"address","name":"newImplementation","type":"address"}],"name":"proposeUpgrade","outputs":[],"stateMutability":"nonpayable","type":"function"},{"inputs":[],"name":"proxiableUUID","outputs":[{"internalType":"bytes32","name":"","type":"bytes32"}],"stateMutability":"view","type":"function"},{"inputs":[],"name":"renounceOwnership","outputs":[],"stateMutability":"nonpayable","type":"function"},{"inputs":[],"name":"stakeCounter","outputs":[{"internalType":"uint256","name":"","type":"uint256"}],"stateMutability":"view","type":"function"},{"inputs":[{"internalType":"uint256","name":"","type":"uint256"}],"name":"stakes","outputs":[{"internalType":"address","name":"user1","type":"address"},{"internalType":"address","name":"user2","type":"address"},{"internalType":"uint256","name":"user1Amount","type":"uint256"},{"internalType":"uint256","name":"user2Amount","type":"uint256"},{"internalType":"uint256","name":"totalStaked","type":"uint256"},{"internalType":"uint256","name":"meetingTime","type":"uint256"},{"internalType":"bool","name":"user1Staked","type":"bool"},{"internalType":"bool","name":"user2Staked","type":"bool"},{"internalType":"bool","name":"processed","type":"bool"},{"internalType":"uint256","name":"createdAt","type":"uint256"}],"stateMutability":"view","type":"function"},{"inputs":[{"internalType":"address","name":"newOwner","type":"address"}],"name":"transferOwnership","outputs":[],"stateMutability":"nonpayable","type":"function"},{"inputs":[],"name":"upgradeETA","outputs":[{"internalType":"uint256","name":"","type":"uint256"}],"stateMutability":"view","type":"function"},{"inputs":[{"internalType":"address","name":"newImplementation","type":"address"},{"internalType":"bytes","name":"data","type":"bytes"}],"name":"upgradeToAndCall","outputs":[],"stateMutability":"payable","type":"function"},{"inputs":[],"name":"usdc","outputs":[{"internalType":"contract IERC20","name":"","type":"address"}],"stateMutability":"view","type":"function"}],"evm":{"bytecode":{"linkReferences":{},"object":"60a060405230608052348015610013575f80fd5b5060805161314261003a5f395f81816126520152818161267b015261294301526131425ff3fe608060405260043610610199575f3560e01c8063715018a6116100dc578063c915fc9311610087578063d5a44f8611610062578063d5a44f86146105bc578063d8de948014610699578063f2fde38b146106b8578063f7b17d10146106d7575f80fd5b8063c915fc9314610440578063ce325bf81461045f578063d0192e3714610575575f80fd5b80638da5cb5b116100b75780638da5cb5b14610390578063ad3cb1cc146103cc578063c4d66de814610421575f80fd5b8063715018a61461035d57806381a4952e1461037157806386e2d5df146102a3575f80fd5b80634e5548ce1161014757806352d1902d1161012257806352d1902d1461030c57806355f2916614610320578063560d52d41461033457806367a9e64c14610348575f80fd5b80634e5548ce146102b95780634ed11ea5146102da5780634f1ef286146102f9575f80fd5b80633e413bee116101775780633e413bee1461027157806341ab38571461028f57806347fe8b1d146102a3575f80fd5b80633411c81c1461019d578063396f7b231461020d5780633c09cfc614610244575b5f80fd5b3480156101a8575f80fd5b506101e96101b7366004612d68565b600260209081525f928352604080842090915290825290205460ff808216916101008104821691620100009091041683565b60408051931515845291151560208401521515908201526060015b60405180910390f35b348015610218575f80fd5b5060045461022c906001600160a01b031681565b6040516001600160a01b039091168152602001610204565b34801561024f575f80fd5b5061026361025e366004612d92565b6106ec565b604051908152602001610204565b34801561027c575f80fd5b505f5461022c906001600160a01b031681565b34801561029a575f80fd5b50610263601481565b3480156102ae575f80fd5b506102636202a30081565b3480156102c4575f80fd5b506102d86102d3366004612dc2565b610b07565b005b3480156102e5575f80fd5b506102d86102f4366004612de6565b610fc4565b6102d8610307366004612e39565b611370565b348015610317575f80fd5b5061026361138f565b34801561032b575f80fd5b506102d86113bd565b34801561033f575f80fd5b50610263600581565b348015610353575f80fd5b5061026360055481565b348015610368575f80fd5b506102d861146c565b34801561037c575f80fd5b506102d861038b366004612dc2565b61147f565b34801561039b575f80fd5b507f9016d09d72d40fdae2fd8ceac6b6234c7706214fd39c1cd1e609a0528c199300546001600160a01b031661022c565b3480156103d7575f80fd5b506104146040518060400160405280600581526020017f352e302e3000000000000000000000000000000000000000000000000000000081525081565b6040516102049190612f42565b34801561042c575f80fd5b506102d861043b366004612f54565b611799565b34801561044b575f80fd5b506102d861045a366004612f54565b6118e9565b34801561046a575f80fd5b50610568610479366004612dc2565b60408051610140810182525f80825260208201819052918101829052606081018290526080810182905260a0810182905260c0810182905260e081018290526101008101829052610120810191909152505f9081526001602081815260409283902083516101408101855281546001600160a01b03908116825293820154909316918301919091526002810154928201929092526003820154606082015260048201546080820152600582015460a0820152600682015460ff808216151560c08401526101008083048216151560e0850152620100009092041615159082015260079091015461012082015290565b6040516102049190612f6d565b348015610580575f80fd5b5061059461058f366004612d68565b6119b5565b6040805182511515815260208084015115159082015291810151151590820152606001610204565b3480156105c7575f80fd5b5061063e6105d6366004612dc2565b600160208190525f9182526040909120805491810154600282015460038301546004840154600585015460068601546007909601546001600160a01b039788169790951695939492939192909160ff808216926101008304821692620100009004909116908a565b604080516001600160a01b039b8c1681529a90991660208b0152978901969096526060880194909452608087019290925260a0860152151560c0850152151560e0840152151561010083015261012082015261014001610204565b3480156106a4575f80fd5b506102d86106b3366004612dc2565b611a27565b3480156106c3575f80fd5b506102d86106d2366004612f54565b611d11565b3480156106e2575f80fd5b5061026360035481565b5f6106f5611d64565b6001600160a01b0384166107505760405162461bcd60e51b815260206004820152601560248201527f496e76616c69642075736572322061646472657373000000000000000000000060448201526064015b60405180910390fd5b336001600160a01b038516036107a85760405162461bcd60e51b815260206004820152601a60248201527f43616e6e6f74207374616b65207769746820796f757273656c660000000000006044820152606401610747565b624c4b408310156107fb5760405162461bcd60e51b815260206004820152601760248201527f4d696e696d756d207374616b65206973203520555344430000000000000000006044820152606401610747565b42821161084a5760405162461bcd60e51b815260206004820152601960248201527f4d656574696e67206d75737420626520696e20667574757265000000000000006044820152606401610747565b600380545f918261085a8361301d565b909155505f546040516323b872dd60e01b8152336004820152306024820152604481018790529192506001600160a01b0316906323b872dd906064016020604051808303815f875af11580156108b2573d5f803e3d5ffd5b505050506040513d601f19601f820116820180604052508101906108d69190613035565b6109225760405162461bcd60e51b815260206004820152600f60248201527f5472616e73666572206661696c656400000000000000000000000000000000006044820152606401610747565b604051806101400160405280336001600160a01b03168152602001866001600160a01b031681526020018581526020015f81526020018581526020018481526020016001151581526020015f151581526020015f151581526020014281525060015f8381526020019081526020015f205f820151815f015f6101000a8154816001600160a01b0302191690836001600160a01b031602179055506020820151816001015f6101000a8154816001600160a01b0302191690836001600160a01b0316021790555060408201518160020155606082015181600301556080820151816004015560a0820151816005015560c0820151816006015f6101000a81548160ff02191690831515021790555060e08201518160060160016101000a81548160ff0219169083151502179055506101008201518160060160026101000a81548160ff0219169083151502179055506101208201518160070155905050846001600160a01b0316336001600160a01b0316827f8663756ecd3b02533219d14493197b44f4a0311d1dc833a2e3573ecdd6cd5bd88787604051610acd929190918252602082015260400190565b60405180910390a49050610b0060017f9b779b17422d0df92223018b32b4d1fa46e071723d6817e2486d003becc55f0055565b9392505050565b610b0f611d64565b5f818152600160205260409020600681015460ff168015610b3957506006810154610100900460ff165b610b855760405162461bcd60e51b815260206004820152601260248201527f5374616b65206e6f7420636f6d706c65746500000000000000000000000000006044820152606401610747565b600681015462010000900460ff1615610bd45760405162461bcd60e51b8152602060048201526011602482015270105b1c9958591e481c1c9bd8d95cdcd959607a1b6044820152606401610747565b6202a3008160050154610be79190613050565b4211610c355760405162461bcd60e51b815260206004820152601e60248201527f436f6e6669726d6174696f6e2077696e646f77207374696c6c206f70656e00006044820152606401610747565b5f60648260040154600a610c499190613063565b610c53919061307a565b90505f6002828460040154610c689190613099565b610c72919061307a565b60068401805462ff00001916620100001790555f54845460405163a9059cbb60e01b81526001600160a01b03918216600482015260248101849052929350169063a9059cbb906044016020604051808303815f875af1158015610cd7573d5f803e3d5ffd5b505050506040513d601f19601f82011682018060405250810190610cfb9190613035565b610d475760405162461bcd60e51b815260206004820152601560248201527f5573657231207472616e73666572206661696c656400000000000000000000006044820152606401610747565b5f54600184015460405163a9059cbb60e01b81526001600160a01b0391821660048201526024810184905291169063a9059cbb906044016020604051808303815f875af1158015610d9a573d5f803e3d5ffd5b505050506040513d601f19601f82011682018060405250810190610dbe9190613035565b610e0a5760405162461bcd60e51b815260206004820152601560248201527f5573657232207472616e73666572206661696c656400000000000000000000006044820152606401610747565b5f546001600160a01b031663a9059cbb610e4b7f9016d09d72d40fdae2fd8ceac6b6234c7706214fd39c1cd1e609a0528c199300546001600160a01b031690565b6040517fffffffff0000000000000000000000000000000000000000000000000000000060e084901b1681526001600160a01b039091166004820152602481018590526044016020604051808303815f875af1158015610ead573d5f803e3d5ffd5b505050506040513d601f19601f82011682018060405250810190610ed19190613035565b610f1d5760405162461bcd60e51b815260206004820152601360248201527f466565207472616e73666572206661696c6564000000000000000000000000006044820152606401610747565b60408051828152602081018390529081018390526080606082018190526007908201527f74696d656f75740000000000000000000000000000000000000000000000000060a082015284907ff46a7b5e78bde6aca13cbf04933204950fb860b4c1645abdc8dbf2d067dc17869060c00160405180910390a2505050610fc160017f9b779b17422d0df92223018b32b4d1fa46e071723d6817e2486d003becc55f0055565b50565b610fcc611d64565b5f83815260016020526040902080546001600160a01b0316331480610ffd575060018101546001600160a01b031633145b6110495760405162461bcd60e51b815260206004820152601160248201527f4e6f742061207061727469636970616e740000000000000000000000000000006044820152606401610747565b600681015460ff16801561106657506006810154610100900460ff165b6110b25760405162461bcd60e51b815260206004820152601260248201527f5374616b65206e6f7420636f6d706c65746500000000000000000000000000006044820152606401610747565b600681015462010000900460ff16156111015760405162461bcd60e51b8152602060048201526011602482015270105b1c9958591e481c1c9bd8d95cdcd959607a1b6044820152606401610747565b80600501544210156111555760405162461bcd60e51b815260206004820152601b60248201527f4d656574696e67206861736e2774206f636375727265642079657400000000006044820152606401610747565b6202a30081600501546111689190613050565b4211156111b75760405162461bcd60e51b815260206004820152601a60248201527f436f6e6669726d6174696f6e2077696e646f7720636c6f7365640000000000006044820152606401610747565b5f84815260026020908152604080832033845290915290205460ff16156112205760405162461bcd60e51b815260206004820152601160248201527f416c726561647920636f6e6669726d65640000000000000000000000000000006044820152606401610747565b604080516060810182526001815284151560208083019182528515158385019081525f8981526002835285812033808352935285902093518454935191511515620100000262ff0000199215156101000261ff00199215159290921661ffff1990951694909417171691909117909155905185907fc3f614fc872697fb99df5635708f7fb73e68af9e9e89a3ffc09206bb002501e1906112d0908790879091151582521515602082015260400190565b60405180910390a380545f906001600160a01b031633146112fb5781546001600160a01b031661130a565b60018201546001600160a01b03165b5f8681526002602090815260408083206001600160a01b038516845290915290205490915060ff16156113405761134085611ded565b505061136b60017f9b779b17422d0df92223018b32b4d1fa46e071723d6817e2486d003becc55f0055565b505050565b611378612647565b611381826126fe565b61138b8282612850565b5050565b5f611398612938565b507f360894a13ba1a3210667c828492db98dca3e2076cc3735a920a3ca505d382bbc90565b6113c5612981565b6004546001600160a01b031661141d5760405162461bcd60e51b815260206004820152601260248201527f4e6f2070656e64696e67207570677261646500000000000000000000000000006044820152606401610747565b600480546001600160a01b031981169091555f60058190556040516001600160a01b039092169182917f3198dc80249fcfedbd0d06e1ff49a7695a51b006592328ce0b127cdeab77e93691a250565b611474612981565b61147d5f6129f5565b565b611487611d64565b5f818152600160208190526040909120908101546001600160a01b031633146114f25760405162461bcd60e51b815260206004820152601460248201527f4e6f7420746865206d61746368656420757365720000000000000000000000006044820152606401610747565b600681015460ff166115465760405162461bcd60e51b815260206004820152601160248201527f5374616b65206e6f7420637265617465640000000000000000000000000000006044820152606401610747565b6006810154610100900460ff16156115a05760405162461bcd60e51b815260206004820152601060248201527f416c7265616479206163636570746564000000000000000000000000000000006044820152606401610747565b600681015462010000900460ff16156115ef5760405162461bcd60e51b8152602060048201526011602482015270105b1c9958591e481c1c9bd8d95cdcd959607a1b6044820152606401610747565b806005015442106116425760405162461bcd60e51b815260206004820152601360248201527f4d656574696e672074696d6520706173736564000000000000000000000000006044820152606401610747565b60028101545f546040516323b872dd60e01b8152336004820152306024820152604481018390526001600160a01b03909116906323b872dd906064016020604051808303815f875af115801561169a573d5f803e3d5ffd5b505050506040513d601f19601f820116820180604052508101906116be9190613035565b61170a5760405162461bcd60e51b815260206004820152600f60248201527f5472616e73666572206661696c656400000000000000000000000000000000006044820152606401610747565b6003820181905560068201805461ff0019166101001790556002820154611732908290613050565b6004830155604051818152339084907faf84b9a32c98be0e06d5f11733fed35e270c58d34c6986070b6f05d3cd9399779060200160405180910390a35050610fc160017f9b779b17422d0df92223018b32b4d1fa46e071723d6817e2486d003becc55f0055565b5f6117a2612a65565b805490915060ff68010000000000000000820416159067ffffffffffffffff165f811580156117ce5750825b90505f8267ffffffffffffffff1660011480156117ea5750303b155b9050811580156117f8575080155b1561182f576040517ff92ee8a900000000000000000000000000000000000000000000000000000000815260040160405180910390fd5b845467ffffffffffffffff19166001178555831561186357845468ff00000000000000001916680100000000000000001785555b61186c33612a8d565b611874612a9e565b61187c612aa6565b5f80546001600160a01b0319166001600160a01b03881617905583156118e157845468ff000000000000000019168555604051600181527fc7f505b2f371ae2175ee4913f4499e1f2633a7b5936321eed1cdaeb6115181d29060200160405180910390a15b505050505050565b6118f1612981565b6001600160a01b0381166119475760405162461bcd60e51b815260206004820152601660248201527f496e76616c696420696d706c656d656e746174696f6e000000000000000000006044820152606401610747565b600480546001600160a01b0319166001600160a01b03831617905561196f6202a30042613050565b60058190556040519081526001600160a01b038216907fea80d7bcdb5b960a75976c0e94d2d4b2077378cfea983c73b49501b8613da2249060200160405180910390a250565b60408051606080820183525f8083526020808401829052928401819052858152600283528381206001600160a01b03861682528352839020835191820184525460ff80821615158352610100820481161515938301939093526201000090049091161515918101919091525b92915050565b611a2f611d64565b5f81815260016020526040902080546001600160a01b03163314611a955760405162461bcd60e51b815260206004820152601760248201527f4f6e6c792063726561746f722063616e2063616e63656c0000000000000000006044820152606401610747565b600681015460ff16611ae95760405162461bcd60e51b815260206004820152601160248201527f5374616b65206e6f7420637265617465640000000000000000000000000000006044820152606401610747565b6006810154610100900460ff1615611b435760405162461bcd60e51b815260206004820152601060248201527f416c7265616479206163636570746564000000000000000000000000000000006044820152606401610747565b600681015462010000900460ff1615611b925760405162461bcd60e51b8152602060048201526011602482015270105b1c9958591e481c1c9bd8d95cdcd959607a1b6044820152606401610747565b60068101805462ff00001916620100001790555f548154600283015460405163a9059cbb60e01b81526001600160a01b039283166004820152602481019190915291169063a9059cbb906044016020604051808303815f875af1158015611bfb573d5f803e3d5ffd5b505050506040513d601f19601f82011682018060405250810190611c1f9190613035565b611c6b5760405162461bcd60e51b815260206004820152600d60248201527f526566756e64206661696c6564000000000000000000000000000000000000006044820152606401610747565b6002810154604080519182525f60208301819052908201526080606082018190526009908201527f63616e63656c6c6564000000000000000000000000000000000000000000000060a082015282907ff46a7b5e78bde6aca13cbf04933204950fb860b4c1645abdc8dbf2d067dc17869060c00160405180910390a250610fc160017f9b779b17422d0df92223018b32b4d1fa46e071723d6817e2486d003becc55f0055565b611d19612981565b6001600160a01b038116611d5b576040517f1e4fbdf70000000000000000000000000000000000000000000000000000000081525f6004820152602401610747565b610fc1816129f5565b7f9b779b17422d0df92223018b32b4d1fa46e071723d6817e2486d003becc55f00805460011901611dc1576040517f3ee5aeb500000000000000000000000000000000000000000000000000000000815260040160405180910390fd5b60029055565b60017f9b779b17422d0df92223018b32b4d1fa46e071723d6817e2486d003becc55f0055565b5f8181526001602081815260408084206002835281852081546001600160a01b039081168752818552838720845160608082018752915460ff8082161515835261010080830482161515848b01908152620100009384900483161515858b01529a8801549095168b52948852868a2087518085018952905480871615158252948504861615159881019890985290920490921615159385019390935293519094919382918291908015611ea1575085604001515b8015611eae575084602001515b8015611ebb575084604001515b15611f3f57606460058860040154611ed39190613063565b611edd919061307a565b91505f6002838960040154611ef29190613099565b611efc919061307a565b60408051808201909152600b81527f626f74685f73686f776564000000000000000000000000000000000000000000602082015290955085945091506123449050565b85602001518015611f5257508560400151155b8015611f6057508460200151155b8015611f6d575084604001515b1561204557606460148860030154611f859190613063565b611f8f919061307a565b92505f60028860030154611fa3919061307a565b90505f818960020154611fb69190613050565b90505f6064611fc6600584613063565b611fd0919061307a565b9050611fdc8183613099565b965085878b60040154611fef9190613099565b611ff99190613099565b6120039082613050565b94506040518060400160405280600c81526020017f75736572315f73686f77656400000000000000000000000000000000000000008152509350505050612344565b8560200151158015612058575085604001515b8015612065575084602001515b801561207357508460400151155b1561214b5760646014886002015461208b9190613063565b612095919061307a565b93505f600288600201546120a9919061307a565b90505f8189600301546120bc9190613050565b90505f60646120cc600584613063565b6120d6919061307a565b90506120e28183613099565b955085878b600401546120f59190613099565b6120ff9190613099565b6121099082613050565b94506040518060400160405280600c81526020017f75736572325f73686f77656400000000000000000000000000000000000000008152509350505050612344565b856020015115801561215f57508460200151155b801561216d57508560400151155b801561217b57508460400151155b15612218576064601488600201546121939190613063565b61219d919061307a565b93506064601488600301546121b29190613063565b6121bc919061307a565b9250828488600401546121cf9190613099565b6121d99190613099565b91506040518060400160405280600e81526020017f6e6569746865725f73686f7765640000000000000000000000000000000000008152509050612344565b8560200151801561222b57508560400151155b8015612238575084602001515b801561224657508460400151155b156122ca5760648760040154600a61225e9190613063565b612268919061307a565b91505f600283896004015461227d9190613099565b612287919061307a565b60408051808201909152600881527f636f6e666c696374000000000000000000000000000000000000000000000000602082015290955085945091506123449050565b60648760040154600a6122dd9190613063565b6122e7919061307a565b91505f60028389600401546122fc9190613099565b612306919061307a565b60408051808201909152600881527f6d69736d6174636800000000000000000000000000000000000000000000000060208201529095508594509150505b60068701805462ff0000191662010000179055831561241d575f54875460405163a9059cbb60e01b81526001600160a01b0391821660048201526024810187905291169063a9059cbb906044016020604051808303815f875af11580156123ad573d5f803e3d5ffd5b505050506040513d601f19601f820116820180604052508101906123d19190613035565b61241d5760405162461bcd60e51b815260206004820152601560248201527f5573657231207472616e73666572206661696c656400000000000000000000006044820152606401610747565b82156124e6575f54600188015460405163a9059cbb60e01b81526001600160a01b0391821660048201526024810186905291169063a9059cbb906044016020604051808303815f875af1158015612476573d5f803e3d5ffd5b505050506040513d601f19601f8201168201806040525081019061249a9190613035565b6124e65760405162461bcd60e51b815260206004820152601560248201527f5573657232207472616e73666572206661696c656400000000000000000000006044820152606401610747565b81156125ff575f546001600160a01b031663a9059cbb61252d7f9016d09d72d40fdae2fd8ceac6b6234c7706214fd39c1cd1e609a0528c199300546001600160a01b031690565b6040517fffffffff0000000000000000000000000000000000000000000000000000000060e084901b1681526001600160a01b039091166004820152602481018590526044016020604051808303815f875af115801561258f573d5f803e3d5ffd5b505050506040513d601f19601f820116820180604052508101906125b39190613035565b6125ff5760405162461bcd60e51b815260206004820152601360248201527f466565207472616e73666572206661696c6564000000000000000000000000006044820152606401610747565b877ff46a7b5e78bde6aca13cbf04933204950fb860b4c1645abdc8dbf2d067dc17868585858560405161263594939291906130ac565b60405180910390a25050505050505050565b306001600160a01b037f00000000000000000000000000000000000000000000000000000000000000001614806126e057507f00000000000000000000000000000000000000000000000000000000000000006001600160a01b03166126d47f360894a13ba1a3210667c828492db98dca3e2076cc3735a920a3ca505d382bbc546001600160a01b031690565b6001600160a01b031614155b1561147d5760405163703e46dd60e11b815260040160405180910390fd5b612706612981565b6004546001600160a01b038281169116146127635760405162461bcd60e51b815260206004820152601f60248201527f4e6f74207468652070726f706f73656420696d706c656d656e746174696f6e006044820152606401610747565b6005544210156127b55760405162461bcd60e51b815260206004820152601560248201527f557067726164652064656c6179206e6f74206d657400000000000000000000006044820152606401610747565b6005545f036128065760405162461bcd60e51b815260206004820152601360248201527f4e6f20757067726164652070726f706f736564000000000000000000000000006044820152606401610747565b600480546001600160a01b03191690555f60058190556040516001600160a01b038316917ffd5a9ae7c73c11fde86dd61704e937a04c99e7eef668050f685aabc5d8a6b2e491a250565b816001600160a01b03166352d1902d6040518163ffffffff1660e01b8152600401602060405180830381865afa9250505080156128aa575060408051601f3d908101601f191682019092526128a7918101906130da565b60015b6128d257604051634c9c8ce360e01b81526001600160a01b0383166004820152602401610747565b7f360894a13ba1a3210667c828492db98dca3e2076cc3735a920a3ca505d382bbc811461292e576040517faa1d49a400000000000000000000000000000000000000000000000000000000815260048101829052602401610747565b61136b8383612ab6565b306001600160a01b037f0000000000000000000000000000000000000000000000000000000000000000161461147d5760405163703e46dd60e11b815260040160405180910390fd5b336129b37f9016d09d72d40fdae2fd8ceac6b6234c7706214fd39c1cd1e609a0528c199300546001600160a01b031690565b6001600160a01b03161461147d576040517f118cdaa7000000000000000000000000000000000000000000000000000000008152336004820152602401610747565b7f9016d09d72d40fdae2fd8ceac6b6234c7706214fd39c1cd1e609a0528c19930080546001600160a01b031981166001600160a01b03848116918217845560405192169182907f8be0079c531659141344cd1fd0a4f28419497f9722a3daafe3b4186f6b6457e0905f90a3505050565b5f807ff0c57e16840df040f15088dc2f81fe391c3923bec73e23a9662efc9c229c6a00611a21565b612a95612b0b565b610fc181612b49565b61147d612b0b565b612aae612b0b565b61147d612b51565b612abf82612b59565b6040516001600160a01b038316907fbc7cd75a20ee27fd9adebab32041f755214dbc6bffa90cc0225b39da2e5c2d3b905f90a2805115612b035761136b8282612bcf565b61138b612c41565b612b13612c79565b61147d576040517fd7e6bcf800000000000000000000000000000000000000000000000000000000815260040160405180910390fd5b611d19612b0b565b611dc7612b0b565b806001600160a01b03163b5f03612b8e57604051634c9c8ce360e01b81526001600160a01b0382166004820152602401610747565b7f360894a13ba1a3210667c828492db98dca3e2076cc3735a920a3ca505d382bbc80546001600160a01b0319166001600160a01b0392909216919091179055565b60605f80846001600160a01b031684604051612beb91906130f1565b5f60405180830381855af49150503d805f8114612c23576040519150601f19603f3d011682016040523d82523d5f602084013e612c28565b606091505b5091509150612c38858383612c97565b95945050505050565b341561147d576040517fb398979f00000000000000000000000000000000000000000000000000000000815260040160405180910390fd5b5f612c82612a65565b5468010000000000000000900460ff16919050565b606082612cac57612ca782612d0c565b610b00565b8151158015612cc357506001600160a01b0384163b155b15612d05576040517f9996b3150000000000000000000000000000000000000000000000000000000081526001600160a01b0385166004820152602401610747565b5080610b00565b805115612d1b57805160208201fd5b6040517fd6bda27500000000000000000000000000000000000000000000000000000000815260040160405180910390fd5b80356001600160a01b0381168114612d63575f80fd5b919050565b5f8060408385031215612d79575f80fd5b82359150612d8960208401612d4d565b90509250929050565b5f805f60608486031215612da4575f80fd5b612dad84612d4d565b95602085013595506040909401359392505050565b5f60208284031215612dd2575f80fd5b5035919050565b8015158114610fc1575f80fd5b5f805f60608486031215612df8575f80fd5b833592506020840135612e0a81612dd9565b91506040840135612e1a81612dd9565b809150509250925092565b634e487b7160e01b5f52604160045260245ffd5b5f8060408385031215612e4a575f80fd5b612e5383612d4d565b9150602083013567ffffffffffffffff80821115612e6f575f80fd5b818501915085601f830112612e82575f80fd5b813581811115612e9457612e94612e25565b604051601f8201601f19908116603f01168101908382118183101715612ebc57612ebc612e25565b81604052828152886020848701011115612ed4575f80fd5b826020860160208301375f6020848301015280955050505050509250929050565b5f5b83811015612f0f578181015183820152602001612ef7565b50505f910152565b5f8151808452612f2e816020860160208601612ef5565b601f01601f19169290920160200192915050565b602081525f610b006020830184612f17565b5f60208284031215612f64575f80fd5b610b0082612d4d565b81516001600160a01b0316815261014081016020830151612f9960208401826001600160a01b03169052565b5060408301516040830152606083015160608301526080830151608083015260a083015160a083015260c0830151612fd560c084018215159052565b5060e0830151612fe960e084018215159052565b506101008381015180151584830152505061012092830151919092015290565b634e487b7160e01b5f52601160045260245ffd5b5f6001820161302e5761302e613009565b5060010190565b5f60208284031215613045575f80fd5b8151610b0081612dd9565b80820180821115611a2157611a21613009565b8082028115828204841417611a2157611a21613009565b5f8261309457634e487b7160e01b5f52601260045260245ffd5b500490565b81810381811115611a2157611a21613009565b848152836020820152826040820152608060608201525f6130d06080830184612f17565b9695505050505050565b5f602082840312156130ea575f80fd5b5051919050565b5f8251613102818460208701612ef5565b919091019291505056fea264697066735822122089c18a0a0ed601dbee9d45f69119c65c355402ab1f009cdb3165449def58c43264736f6c63430008160033","opcodes":"PUSH1 0xA0 PUSH1 0x40 MSTORE ADDRESS PUSH1 0x80 MSTORE CALLVALUE DUP1 ISZERO PUSH2 0x13 JUMPI PUSH0 DUP1 REVERT JUMPDEST POP PUSH1 0x80 MLOAD PUSH2 0x3142 PUSH2 0x3A PUSH0 CODECOPY PUSH0 DUP2 DUP2 PUSH2 0x2652 ADD MSTORE DUP2 DUP2 PUSH2 0x267B ADD MSTORE PUSH2 0x2943 ADD MSTORE PUSH2 0x3142 PUSH0 RETURN INVALID PUSH1 0x80 PUSH1 0x40 MSTORE PUSH1 0x4 CALLDATASIZE LT PUSH2 0x199 JUMPI PUSH0 CALLDATALOAD PUSH1 0xE0 SHR DUP1 PUSH4 0x715018A6 GT PUSH2 0xDC JUMPI DUP1 PUSH4 0xC915FC93 GT PUSH2 0x87 JUMPI DUP1 PUSH4 0xD5A44F86 GT PUSH2 0x62 JUMPI DUP1 PUSH4 0xD5A44F86 EQ PUSH2 0x5BC JUMPI DUP1 PUSH4 0xD8DE9480 EQ PUSH2 0x699 JUMPI DUP1 PUSH4 0xF2FDE38B EQ PUSH2 0x6B8 JUMPI DUP1 PUSH4 0xF7B17D10 EQ PUSH2 0x6D7 JUMPI PUSH0 DUP1 REVERT JUMPDEST DUP1 PUSH4 0xC915FC93 EQ PUSH2 0x440 JUMPI DUP1 PUSH4 0xCE325BF8 EQ PUSH2 0x45F JUMPI DUP1 PUSH4 0xD0192E37 EQ PUSH2 0x575 JUMPI PUSH0 DUP1 REVERT JUMPDEST DUP1 PUSH4 0x8DA5CB5B GT PUSH2 0xB7 JUMPI DUP1 PUSH4 0x8DA5CB5B EQ PUSH2 0x390 JUMPI DUP1 PUSH4 0xAD3CB1CC EQ PUSH2 0x3CC JUMPI DUP1 PUSH4 0xC4D66DE8 EQ PUSH2 0x421 JUMPI PUSH0 DUP1 REVERT JUMPDEST DUP1 PUSH4 0x715018A6 EQ PUSH2 0x35D JUMPI DUP1 PUSH4 0x81A4952E EQ PUSH2 0x371 JUMPI DUP1 PUSH4 0x86E2D5DF EQ PUSH2 0x2A3 JUMPI PUSH0 DUP1 REVERT JUMPDEST DUP1 PUSH4 0x4E5548CE GT PUSH2 0x147 JUMPI DUP1 PUSH4 0x52D1902D GT PUSH2 0x122 JUMPI DUP1 PUSH4 0x52D1902D EQ PUSH2 0x30C JUMPI DUP1 PUSH4 0x55F29166 EQ PUSH2 0x320 JUMPI DUP1 PUSH4 0x560D52D4 EQ PUSH2 0x334 JUMPI DUP1 PUSH4 0x67A9E64C EQ PUSH2 0x348 JUMPI PUSH0 DUP1 REVERT JUMPDEST DUP1 PUSH4 0x4E5548CE EQ PUSH2 0x2B9 JUMPI DUP1 PUSH4 0x4ED11EA5 EQ PUSH2 0x2DA JUMPI DUP1 PUSH4 0x4F1EF286 EQ PUSH2 0x2F9 JUMPI PUSH0 DUP1 REVERT JUMPDEST DUP1 PUSH4 0x3E413BEE GT PUSH2 0x177 JUMPI DUP1 PUSH4 0x3E413BEE EQ PUSH2 0x271 JUMPI DUP1 PUSH4 0x41AB3857 EQ PUSH2 0x28F JUMPI DUP1 PUSH4 0x47FE8B1D EQ PUSH2 0x2A3 JUMPI PUSH0 DUP1 REVERT JUMPDEST DUP1 PUSH4 0x3411C81C EQ PUSH2 0x19D JUMPI DUP1 PUSH4 0x396F7B23 EQ PUSH2 0x20D JUMPI DUP1 PUSH4 0x3C09CFC6 EQ PUSH2 0x244 JUMPI JUMPDEST PUSH0 DUP1 REVERT JUMPDEST CALLVALUE DUP1 ISZERO PUSH2 0x1A8 JUMPI PUSH0 DUP1 REVERT JUMPDEST POP PUSH2 0x1E9 PUSH2 0x1B7 CALLDATASIZE PUSH1 0x4 PUSH2 0x2D68 JUMP JUMPDEST PUSH1 0x2 PUSH1 0x20 SWAP1 DUP2 MSTORE PUSH0 SWAP3 DUP4 MSTORE PUSH1 0x40 DUP1 DUP5 KECCAK256 SWAP1 SWAP2 MSTORE SWAP1 DUP3 MSTORE SWAP1 KECCAK256 SLOAD PUSH1 0xFF DUP1 DUP3 AND SWAP2 PUSH2 0x100 DUP2 DIV DUP3 AND SWAP2 PUSH3 0x10000 SWAP1 SWAP2 DIV AND DUP4 JUMP JUMPDEST PUSH1 0x40 DUP1 MLOAD SWAP4 ISZERO ISZERO DUP5 MSTORE SWAP2 ISZERO ISZERO PUSH1 0x20 DUP5 ADD MSTORE ISZERO ISZERO SWAP1 DUP3 ADD MSTORE PUSH1 0x60 ADD JUMPDEST PUSH1 0x40 MLOAD DUP1 SWAP2 SUB SWAP1 RETURN JUMPDEST CALLVALUE DUP1 ISZERO PUSH2 0x218 JUMPI PUSH0 DUP1 REVERT JUMPDEST POP PUSH1 0x4 SLOAD PUSH2 0x22C SWAP1 PUSH1 0x1 PUSH1 0x1 PUSH1 0xA0 SHL SUB AND DUP2 JUMP JUMPDEST PUSH1 0x40 MLOAD PUSH1 0x1 PUSH1 0x1 PUSH1 0xA0 SHL SUB SWAP1 SWAP2 AND DUP2 MSTORE PUSH1 0x20 ADD PUSH2 0x204 JUMP JUMPDEST CALLVALUE DUP1 ISZERO PUSH2 0x24F JUMPI PUSH0 DUP1 REVERT JUMPDEST POP PUSH2 0x263 PUSH2 0x25E CALLDATASIZE PUSH1 0x4 PUSH2 0x2D92 JUMP JUMPDEST PUSH2 0x6EC JUMP JUMPDEST PUSH1 0x40 MLOAD SWAP1 DUP2 MSTORE PUSH1 0x20 ADD PUSH2 0x204 JUMP JUMPDEST CALLVALUE DUP1 ISZERO PUSH2 0x27C JUMPI PUSH0 DUP1 REVERT JUMPDEST POP PUSH0 SLOAD PUSH2 0x22C SWAP1 PUSH1 0x1 PUSH1 0x1 PUSH1 0xA0 SHL SUB AND DUP2 JUMP JUMPDEST CALLVALUE DUP1 ISZERO PUSH2 0x29A JUMPI PUSH0 DUP1 REVERT JUMPDEST POP PUSH2 0x263 PUSH1 0x14 DUP2 JUMP JUMPDEST CALLVALUE DUP1 ISZERO PUSH2 0x2AE JUMPI PUSH0 DUP1 REVERT JUMPDEST POP PUSH2 0x263 PUSH3 0x2A300 DUP2 JUMP JUMPDEST CALLVALUE DUP1 ISZERO PUSH2 0x2C4 JUMPI PUSH0 DUP1 REVERT JUMPDEST POP PUSH2 0x2D8 PUSH2 0x2D3 CALLDATASIZE PUSH1 0x4 PUSH2 0x2DC2 JUMP JUMPDEST PUSH2 0xB07 JUMP JUMPDEST STOP JUMPDEST CALLVALUE DUP1 ISZERO PUSH2 0x2E5 JUMPI PUSH0 DUP1 REVERT JUMPDEST POP PUSH2 0x2D8 PUSH2 0x2F4 CALLDATASIZE PUSH1 0x4 PUSH2 0x2DE6 JUMP JUMPDEST PUSH2 0xFC4 JUMP JUMPDEST PUSH2 0x2D8 PUSH2 0x307 CALLDATASIZE PUSH1 0x4 PUSH2 0x2E39 JUMP JUMPDEST PUSH2 0x1370 JUMP JUMPDEST CALLVALUE DUP1 ISZERO PUSH2 0x317 JUMPI PUSH0 DUP1 REVERT JUMPDEST POP PUSH2 0x263 PUSH2 0x138F JUMP JUMPDEST CALLVALUE DUP1 ISZERO PUSH2 0x32B JUMPI PUSH0 DUP1 REVERT JUMPDEST POP PUSH2 0x2D8 PUSH2 0x13BD JUMP JUMPDEST CALLVALUE DUP1 ISZERO PUSH2 0x33F JUMPI PUSH0 DUP1 REVERT JUMPDEST POP PUSH2 0x263 PUSH1 0x5 DUP2 JUMP JUMPDEST CALLVALUE DUP1 ISZERO PUSH2 0x353 JUMPI PUSH0 DUP1 REVERT JUMPDEST POP PUSH2 0x263 PUSH1 0x5 SLOAD DUP2 JUMP JUMPDEST CALLVALUE DUP1 ISZERO PUSH2 0x368 JUMPI PUSH0 DUP1 REVERT JUMPDEST POP PUSH2 0x2D8 PUSH2 0x146C JUMP JUMPDEST CALLVALUE DUP1 ISZERO PUSH2 0x37C JUMPI PUSH0 DUP1 REVERT JUMPDEST POP PUSH2 0x2D8 PUSH2 0x38B CALLDATASIZE PUSH1 0x4 PUSH2 0x2DC2 JUMP JUMPDEST PUSH2 0x147F JUMP JUMPDEST CALLVALUE DUP1 ISZERO PUSH2 0x39B JUMPI PUSH0 DUP1 REVERT JUMPDEST POP PUSH32 0x9016D09D72D40FDAE2FD8CEAC6B6234C7706214FD39C1CD1E609A0528C199300 SLOAD PUSH1 0x1 PUSH1 0x1 PUSH1 0xA0 SHL SUB AND PUSH2 0x22C JUMP JUMPDEST CALLVALUE DUP1 ISZERO PUSH2 0x3D7 JUMPI PUSH0 DUP1 REVERT JUMPDEST POP PUSH2 0x414 PUSH1 0x40 MLOAD DUP1 PUSH1 0x40 ADD PUSH1 0x40 MSTORE DUP1 PUSH1 0x5 DUP2 MSTORE PUSH1 0x20 ADD PUSH32 0x352E302E30000000000000000000000000000000000000000000000000000000 DUP2 MSTORE POP DUP2 JUMP JUMPDEST PUSH1 0x40 MLOAD PUSH2 0x204 SWAP2 SWAP1 PUSH2 0x2F42 JUMP JUMPDEST CALLVALUE DUP1 ISZERO PUSH2 0x42C JUMPI PUSH0 DUP1 REVERT JUMPDEST POP PUSH2 0x2D8 PUSH2 0x43B CALLDATASIZE PUSH1 0x4 PUSH2 0x2F54 JUMP JUMPDEST PUSH2 0x1799 JUMP JUMPDEST CALLVALUE DUP1 ISZERO PUSH2 0x44B JUMPI PUSH0 DUP1 REVERT JUMPDEST POP PUSH2 0x2D8 PUSH2 0x45A CALLDATASIZE PUSH1 0x4 PUSH2 0x2F54 JUMP JUMPDEST PUSH2 0x18E9 JUMP JUMPDEST CALLVALUE DUP1 ISZERO PUSH2 0x46A JUMPI PUSH0 DUP1 REVERT JUMPDEST POP PUSH2 0x568 PUSH2 0x479 CALLDATASIZE PUSH1 0x4 PUSH2 0x2DC2 JUMP JUMPDEST PUSH1 0x40 DUP1 MLOAD PUSH2 0x140 DUP2 ADD DUP3 MSTORE PUSH0 DUP1 DUP3 MSTORE PUSH1 0x20 DUP3 ADD DUP2 SWAP1 MSTORE SWAP2 DUP2 ADD DUP3 SWAP1 MSTORE PUSH1 0x60 DUP2 ADD DUP3 SWAP1 MSTORE PUSH1 0x80 DUP2 ADD DUP3 SWAP1 MSTORE PUSH1 0xA0 DUP2 ADD DUP3 SWAP1 MSTORE PUSH1 0xC0 DUP2 ADD DUP3 SWAP1 MSTORE PUSH1 0xE0 DUP2 ADD DUP3 SWAP1 MSTORE PUSH2 0x100 DUP2 ADD DUP3 SWAP1 MSTORE PUSH2 0x120 DUP2 ADD SWAP2 SWAP1 SWAP2 MSTORE POP PUSH0 SWAP1 DUP2 MSTORE PUSH1 0x1 PUSH1 0x20 DUP2 DUP2 MSTORE PUSH1 0x40 SWAP3 DUP4 SWAP1 KECCAK256 DUP4 MLOAD PUSH2 0x140 DUP2 ADD DUP6 MSTORE DUP2 SLOAD PUSH1 0x1 PUSH1 0x1 PUSH1 0xA0 SHL SUB SWAP1 DUP2 AND DUP3 MSTORE SWAP4 DUP3 ADD SLOAD SWAP1 SWAP4 AND SWAP2 DUP4 ADD SWAP2 SWAP1 SWAP2 MSTORE PUSH1 0x2 DUP2 ADD SLOAD SWAP3 DUP3 ADD SWAP3 SWAP1 SWAP3 MSTORE PUSH1 0x3 DUP3 ADD SLOAD PUSH1 0x60 DUP3 ADD MSTORE PUSH1 0x4 DUP3 ADD SLOAD PUSH1 0x80 DUP3 ADD MSTORE PUSH1 0x5 DUP3 ADD SLOAD PUSH1 0xA0 DUP3 ADD MSTORE PUSH1 0x6 DUP3 ADD SLOAD PUSH1 0xFF DUP1 DUP3 AND ISZERO ISZERO PUSH1 0xC0 DUP5 ADD MSTORE PUSH2 0x100 DUP1 DUP4 DIV DUP3 AND ISZERO ISZERO PUSH1 0xE0 DUP6 ADD MSTORE PUSH3 0x10000 SWAP1 SWAP3 DIV AND ISZERO ISZERO SWAP1 DUP3 ADD MSTORE PUSH1 0x7 SWAP1 SWAP2 ADD SLOAD PUSH2 0x120 DUP3 ADD MSTORE SWAP1 JUMP JUMPDEST PUSH1 0x40 MLOAD PUSH2 0x204 SWAP2 SWAP1 PUSH2 0x2F6D JUMP JUMPDEST CALLVALUE DUP1 ISZERO PUSH2 0x580 JUMPI PUSH0 DUP1 REVERT JUMPDEST POP PUSH2 0x594 PUSH2 0x58F CALLDATASIZE PUSH1 0x4 PUSH2 0x2D68 JUMP JUMPDEST PUSH2 0x19B5 JUMP JUMPDEST PUSH1 0x40 DUP1 MLOAD DUP3 MLOAD ISZERO ISZERO DUP2 MSTORE PUSH1 0x20 DUP1 DUP5 ADD MLOAD ISZERO ISZERO SWAP1 DUP3 ADD MSTORE SWAP2 DUP2 ADD MLOAD ISZERO ISZERO SWAP1 DUP3 ADD MSTORE PUSH1 0x60 ADD PUSH2 0x204 JUMP JUMPDEST CALLVALUE DUP1 ISZERO PUSH2 0x5C7 JUMPI PUSH0 DUP1 REVERT JUMPDEST POP PUSH2 0x63E PUSH2 0x5D6 CALLDATASIZE PUSH1 0x4 PUSH2 0x2DC2 JUMP JUMPDEST PUSH1 0x1 PUSH1 0x20 DUP2 SWAP1 MSTORE PUSH0 SWAP2 DUP3 MSTORE PUSH1 0x40 SWAP1 SWAP2 KECCAK256 DUP1 SLOAD SWAP2 DUP2 ADD SLOAD PUSH1 0x2 DUP3 ADD SLOAD PUSH1 0x3 DUP4 ADD SLOAD PUSH1 0x4 DUP5 ADD SLOAD PUSH1 0x5 DUP6 ADD SLOAD PUSH1 0x6 DUP7 ADD SLOAD PUSH1 0x7 SWAP1 SWAP7 ADD SLOAD PUSH1 0x1 PUSH1 0x1 PUSH1 0xA0 SHL SUB SWAP8 DUP9 AND SWAP8 SWAP1 SWAP6 AND SWAP6 SWAP4 SWAP5 SWAP3 SWAP4 SWAP2 SWAP3 SWAP1 SWAP2 PUSH1 0xFF DUP1 DUP3 AND SWAP3 PUSH2 0x100 DUP4 DIV DUP3 AND SWAP3 PUSH3 0x10000 SWAP1 DIV SWAP1 SWAP2 AND SWAP1 DUP11 JUMP JUMPDEST PUSH1 0x40 DUP1 MLOAD PUSH1 0x1 PUSH1 0x1 PUSH1 0xA0 SHL SUB SWAP12 DUP13 AND DUP2 MSTORE SWAP11 SWAP1 SWAP10 AND PUSH1 0x20 DUP12 ADD MSTORE SWAP8 DUP10 ADD SWAP7 SWAP1 SWAP7 MSTORE PUSH1 0x60 DUP9 ADD SWAP5 SWAP1 SWAP5 MSTORE PUSH1 0x80 DUP8 ADD SWAP3 SWAP1 SWAP3 MSTORE PUSH1 0xA0 DUP7 ADD MSTORE ISZERO ISZERO PUSH1 0xC0 DUP6 ADD MSTORE ISZERO ISZERO PUSH1 0xE0 DUP5 ADD MSTORE ISZERO ISZERO PUSH2 0x100 DUP4 ADD MSTORE PUSH2 0x120 DUP3 ADD MSTORE PUSH2 0x140 ADD PUSH2 0x204 JUMP JUMPDEST CALLVALUE DUP1 ISZERO PUSH2 0x6A4 JUMPI PUSH0 DUP1 REVERT JUMPDEST POP PUSH2 0x2D8 PUSH2 0x6B3 CALLDATASIZE PUSH1 0x4 PUSH2 0x2DC2 JUMP JUMPDEST PUSH2 0x1A27 JUMP JUMPDEST CALLVALUE DUP1 ISZERO PUSH2 0x6C3 JUMPI PUSH0 DUP1 REVERT JUMPDEST POP PUSH2 0x2D8 PUSH2 0x6D2 CALLDATASIZE PUSH1 0x4 PUSH2 0x2F54 JUMP JUMPDEST PUSH2 0x1D11 JUMP JUMPDEST CALLVALUE DUP1 ISZERO PUSH2 0x6E2 JUMPI PUSH0 DUP1 REVERT JUMPDEST POP PUSH2 0x263 PUSH1 0x3 SLOAD DUP2 JUMP JUMPDEST PUSH0 PUSH2 0x6F5 PUSH2 0x1D64 JUMP JUMPDEST PUSH1 0x1 PUSH1 0x1 PUSH1 0xA0 SHL SUB DUP5 AND PUSH2 0x750 JUMPI PUSH1 0x40 MLOAD PUSH3 0x461BCD PUSH1 0xE5 SHL DUP2 MSTORE PUSH1 0x20 PUSH1 0x4 DUP3 ADD MSTORE PUSH1 0x15 PUSH1 0x24 DUP3 ADD MSTORE PUSH32 0x496E76616C696420757365723220616464726573730000000000000000000000 PUSH1 0x44 DUP3 ADD MSTORE PUSH1 0x64 ADD JUMPDEST PUSH1 0x40 MLOAD DUP1 SWAP2 SUB SWAP1 REVERT JUMPDEST CALLER PUSH1 0x1 PUSH1 0x1 PUSH1 0xA0 SHL SUB DUP6 AND SUB PUSH2 0x7A8 JUMPI PUSH1 0x40 MLOAD PUSH3 0x461BCD PUSH1 0xE5 SHL DUP2 MSTORE PUSH1 0x20 PUSH1 0x4 DUP3 ADD MSTORE PUSH1 0x1A PUSH1 0x24 DUP3 ADD MSTORE PUSH32 0x43616E6E6F74207374616B65207769746820796F757273656C66000000000000 PUSH1 0x44 DUP3 ADD MSTORE PUSH1 0x64 ADD PUSH2 0x747 JUMP JUMPDEST PUSH3 0x4C4B40 DUP4 LT ISZERO PUSH2 0x7FB JUMPI PUSH1 0x40 MLOAD PUSH3 0x461BCD PUSH1 0xE5 SHL DUP2 MSTORE PUSH1 0x20 PUSH1 0x4 DUP3 ADD MSTORE PUSH1 0x17 PUSH1 0x24 DUP3 ADD MSTORE PUSH32 0x4D696E696D756D207374616B6520697320352055534443000000000000000000 PUSH1 0x44 DUP3 ADD MSTORE PUSH1 0x64 ADD PUSH2 0x747 JUMP JUMPDEST TIMESTAMP DUP3 GT PUSH2 0x84A JUMPI PUSH1 0x40 MLOAD PUSH3 0x461BCD PUSH1 0xE5 SHL DUP2 MSTORE PUSH1 0x20 PUSH1 0x4 DUP3 ADD MSTORE PUSH1 0x19 PUSH1 0x24 DUP3 ADD MSTORE PUSH32 0x4D656574696E67206D75737420626520696E2066757475726500000000000000 PUSH1 0x44 DUP3 ADD MSTORE PUSH1 0x64 ADD PUSH2 0x747 JUMP JUMPDEST PUSH1 0x3 DUP1 SLOAD PUSH0 SWAP2 DUP3 PUSH2 0x85A DUP4 PUSH2 0x301D JUMP JUMPDEST SWAP1 SWAP2 SSTORE POP PUSH0 SLOAD PUSH1 0x40 MLOAD PUSH4 0x23B872DD PUSH1 0xE0 SHL DUP2 MSTORE CALLER PUSH1 0x4 DUP3 ADD MSTORE ADDRESS PUSH1 0x24 DUP3 ADD MSTORE PUSH1 0x44 DUP2 ADD DUP8 SWAP1 MSTORE SWAP2 SWAP3 POP PUSH1 0x1 PUSH1 0x1 PUSH1 0xA0 SHL SUB AND SWAP1 PUSH4 0x23B872DD SWAP1 PUSH1 0x64 ADD PUSH1 0x20 PUSH1 0x40 MLOAD DUP1 DUP4 SUB DUP2 PUSH0 DUP8 GAS CALL ISZERO DUP1 ISZERO PUSH2 0x8B2 JUMPI RETURNDATASIZE PUSH0 DUP1 RETURNDATACOPY RETURNDATASIZE PUSH0 REVERT JUMPDEST POP POP POP POP PUSH1 0x40 MLOAD RETURNDATASIZE PUSH1 0x1F NOT PUSH1 0x1F DUP3 ADD AND DUP3 ADD DUP1 PUSH1 0x40 MSTORE POP DUP2 ADD SWAP1 PUSH2 0x8D6 SWAP2 SWAP1 PUSH2 0x3035 JUMP JUMPDEST PUSH2 0x922 JUMPI PUSH1 0x40 MLOAD PUSH3 0x461BCD PUSH1 0xE5 SHL DUP2 MSTORE PUSH1 0x20 PUSH1 0x4 DUP3 ADD MSTORE PUSH1 0xF PUSH1 0x24 DUP3 ADD MSTORE PUSH32 0x5472616E73666572206661696C65640000000000000000000000000000000000 PUSH1 0x44 DUP3 ADD MSTORE PUSH1 0x64 ADD PUSH2 0x747 JUMP JUMPDEST PUSH1 0x40 MLOAD DUP1 PUSH2 0x140 ADD PUSH1 0x40 MSTORE DUP1 CALLER PUSH1 0x1 PUSH1 0x1 PUSH1 0xA0 SHL SUB AND DUP2 MSTORE PUSH1 0x20 ADD DUP7 PUSH1 0x1 PUSH1 0x1 PUSH1 0xA0 SHL SUB AND DUP2 MSTORE PUSH1 0x20 ADD DUP6 DUP2 MSTORE PUSH1 0x20 ADD PUSH0 DUP2 MSTORE PUSH1 0x20 ADD DUP6 DUP2 MSTORE PUSH1 0x20 ADD DUP5 DUP2 MSTORE PUSH1 0x20 ADD PUSH1 0x1 ISZERO ISZERO DUP2 MSTORE PUSH1 0x20 ADD PUSH0 ISZERO ISZERO DUP2 MSTORE PUSH1 0x20 ADD PUSH0 ISZERO ISZERO DUP2 MSTORE PUSH1 0x20 ADD TIMESTAMP DUP2 MSTORE POP PUSH1 0x1 PUSH0 DUP4 DUP2 MSTORE PUSH1 0x20 ADD SWAP1 DUP2 MSTORE PUSH1 0x20 ADD PUSH0 KECCAK256 PUSH0 DUP3 ADD MLOAD DUP2 PUSH0 ADD PUSH0 PUSH2 0x100 EXP DUP2 SLOAD DUP2 PUSH1 0x1 PUSH1 0x1 PUSH1 0xA0 SHL SUB MUL NOT AND SWAP1 DUP4 PUSH1 0x1 PUSH1 0x1 PUSH1 0xA0 SHL SUB AND MUL OR SWAP1 SSTORE POP PUSH1 0x20 DUP3 ADD MLOAD DUP2 PUSH1 0x1 ADD PUSH0 PUSH2 0x100 EXP DUP2 SLOAD DUP2 PUSH1 0x1 PUSH1 0x1 PUSH1 0xA0 SHL SUB MUL NOT AND SWAP1 DUP4 PUSH1 0x1 PUSH1 0x1 PUSH1 0xA0 SHL SUB AND MUL OR SWAP1 SSTORE POP PUSH1 0x40 DUP3 ADD MLOAD DUP2 PUSH1 0x2 ADD SSTORE PUSH1 0x60 DUP3 ADD MLOAD DUP2 PUSH1 0x3 ADD SSTORE PUSH1 0x80 DUP3 ADD MLOAD DUP2 PUSH1 0x4 ADD SSTORE PUSH1 0xA0 DUP3 ADD MLOAD DUP2 PUSH1 0x5 ADD SSTORE PUSH1 0xC0 DUP3 ADD MLOAD DUP2 PUSH1 0x6 ADD PUSH0 PUSH2 0x100 EXP DUP2 SLOAD DUP2 PUSH1 0xFF MUL NOT AND SWAP1 DUP4 ISZERO ISZERO MUL OR SWAP1 SSTORE POP PUSH1 0xE0 DUP3 ADD MLOAD DUP2 PUSH1 0x6 ADD PUSH1 0x1 PUSH2 0x100 EXP DUP2 SLOAD DUP2 PUSH1 0xFF MUL NOT AND SWAP1 DUP4 ISZERO ISZERO MUL OR SWAP1 SSTORE POP PUSH2 0x100 DUP3 ADD MLOAD DUP2 PUSH1 0x6 ADD PUSH1 0x2 PUSH2 0x100 EXP DUP2 SLOAD DUP2 PUSH1 0xFF MUL NOT AND SWAP1 DUP4 ISZERO ISZERO MUL OR SWAP1 SSTORE POP PUSH2 0x120 DUP3 ADD MLOAD DUP2 PUSH1 0x7 ADD SSTORE SWAP1 POP POP DUP5 PUSH1 0x1 PUSH1 0x1 PUSH1 0xA0 SHL SUB AND CALLER PUSH1 0x1 PUSH1 0x1 PUSH1 0xA0 SHL SUB AND DUP3 PUSH32 0x8663756ECD3B02533219D14493197B44F4A0311D1DC833A2E3573ECDD6CD5BD8 DUP8 DUP8 PUSH1 0x40 MLOAD PUSH2 0xACD SWAP3 SWAP2 SWAP1 SWAP2 DUP3 MSTORE PUSH1 0x20 DUP3 ADD MSTORE PUSH1 0x40 ADD SWAP1 JUMP JUMPDEST PUSH1 0x40 MLOAD DUP1 SWAP2 SUB SWAP1 LOG4 SWAP1 POP PUSH2 0xB00 PUSH1 0x1 PUSH32 0x9B779B17422D0DF92223018B32B4D1FA46E071723D6817E2486D003BECC55F00 SSTORE JUMP JUMPDEST SWAP4 SWAP3 POP POP POP JUMP JUMPDEST PUSH2 0xB0F PUSH2 0x1D64 JUMP JUMPDEST PUSH0 DUP2 DUP2 MSTORE PUSH1 0x1 PUSH1 0x20 MSTORE PUSH1 0x40 SWAP1 KECCAK256 PUSH1 0x6 DUP2 ADD SLOAD PUSH1 0xFF AND DUP1 ISZERO PUSH2 0xB39 JUMPI POP PUSH1 0x6 DUP2 ADD SLOAD PUSH2 0x100 SWAP1 DIV PUSH1 0xFF AND JUMPDEST PUSH2 0xB85 JUMPI PUSH1 0x40 MLOAD PUSH3 0x461BCD PUSH1 0xE5 SHL DUP2 MSTORE PUSH1 0x20 PUSH1 0x4 DUP3 ADD MSTORE PUSH1 0x12 PUSH1 0x24 DUP3 ADD MSTORE PUSH32 0x5374616B65206E6F7420636F6D706C6574650000000000000000000000000000 PUSH1 0x44 DUP3 ADD MSTORE PUSH1 0x64 ADD PUSH2 0x747 JUMP JUMPDEST PUSH1 0x6 DUP2 ADD SLOAD PUSH3 0x10000 SWAP1 DIV PUSH1 0xFF AND ISZERO PUSH2 0xBD4 JUMPI PUSH1 0x40 MLOAD PUSH3 0x461BCD PUSH1 0xE5 SHL DUP2 MSTORE PUSH1 0x20 PUSH1 0x4 DUP3 ADD MSTORE PUSH1 0x11 PUSH1 0x24 DUP3 ADD MSTORE PUSH17 0x105B1C9958591E481C1C9BD8D95CDCD959 PUSH1 0x7A SHL PUSH1 0x44 DUP3 ADD MSTORE PUSH1 0x64 ADD PUSH2 0x747 JUMP JUMPDEST PUSH3 0x2A300 DUP2 PUSH1 0x5 ADD SLOAD PUSH2 0xBE7 SWAP2 SWAP1 PUSH2 0x3050 JUMP JUMPDEST TIMESTAMP GT PUSH2 0xC35 JUMPI PUSH1 0x40 MLOAD PUSH3 0x461BCD PUSH1 0xE5 SHL DUP2 MSTORE PUSH1 0x20 PUSH1 0x4 DUP3 ADD MSTORE PUSH1 0x1E PUSH1 0x24 DUP3 ADD MSTORE PUSH32 0x436F6E6669726D6174696F6E2077696E646F77207374696C6C206F70656E0000 PUSH1 0x44 DUP3 ADD MSTORE PUSH1 0x64 ADD PUSH2 0x747 JUMP JUMPDEST PUSH0 PUSH1 0x64 DUP3 PUSH1 0x4 ADD SLOAD PUSH1 0xA PUSH2 0xC49 SWAP2 SWAP1 PUSH2 0x3063 JUMP JUMPDEST PUSH2 0xC53 SWAP2 SWAP1 PUSH2 0x307A JUMP JUMPDEST SWAP1 POP PUSH0 PUSH1 0x2 DUP3 DUP5 PUSH1 0x4 ADD SLOAD PUSH2 0xC68 SWAP2 SWAP1 PUSH2 0x3099 JUMP JUMPDEST PUSH2 0xC72 SWAP2 SWAP1 PUSH2 0x307A JUMP JUMPDEST PUSH1 0x6 DUP5 ADD DUP1 SLOAD PUSH3 0xFF0000 NOT AND PUSH3 0x10000 OR SWAP1 SSTORE PUSH0 SLOAD DUP5 SLOAD PUSH1 0x40 MLOAD PUSH4 0xA9059CBB PUSH1 0xE0 SHL DUP2 MSTORE PUSH1 0x1 PUSH1 0x1 PUSH1 0xA0 SHL SUB SWAP2 DUP3 AND PUSH1 0x4 DUP3 ADD MSTORE PUSH1 0x24 DUP2 ADD DUP5 SWAP1 MSTORE SWAP3 SWAP4 POP AND SWAP1 PUSH4 0xA9059CBB SWAP1 PUSH1 0x44 ADD PUSH1 0x20 PUSH1 0x40 MLOAD DUP1 DUP4 SUB DUP2 PUSH0 DUP8 GAS CALL ISZERO DUP1 ISZERO PUSH2 0xCD7 JUMPI RETURNDATASIZE PUSH0 DUP1 RETURNDATACOPY RETURNDATASIZE PUSH0 REVERT JUMPDEST POP POP POP POP PUSH1 0x40 MLOAD RETURNDATASIZE PUSH1 0x1F NOT PUSH1 0x1F DUP3 ADD AND DUP3 ADD DUP1 PUSH1 0x40 MSTORE POP DUP2 ADD SWAP1 PUSH2 0xCFB SWAP2 SWAP1 PUSH2 0x3035 JUMP JUMPDEST PUSH2 0xD47 JUMPI PUSH1 0x40 MLOAD PUSH3 0x461BCD PUSH1 0xE5 SHL DUP2 MSTORE PUSH1 0x20 PUSH1 0x4 DUP3 ADD MSTORE PUSH1 0x15 PUSH1 0x24 DUP3 ADD MSTORE PUSH32 0x5573657231207472616E73666572206661696C65640000000000000000000000 PUSH1 0x44 DUP3 ADD MSTORE PUSH1 0x64 ADD PUSH2 0x747 JUMP JUMPDEST PUSH0 SLOAD PUSH1 0x1 DUP5 ADD SLOAD PUSH1 0x40 MLOAD PUSH4 0xA9059CBB PUSH1 0xE0 SHL DUP2 MSTORE PUSH1 0x1 PUSH1 0x1 PUSH1 0xA0 SHL SUB SWAP2 DUP3 AND PUSH1 0x4 DUP3 ADD MSTORE PUSH1 0x24 DUP2 ADD DUP5 SWAP1 MSTORE SWAP2 AND SWAP1 PUSH4 0xA9059CBB SWAP1 PUSH1 0x44 ADD PUSH1 0x20 PUSH1 0x40 MLOAD DUP1 DUP4 SUB DUP2 PUSH0 DUP8 GAS CALL ISZERO DUP1 ISZERO PUSH2 0xD9A JUMPI RETURNDATASIZE PUSH0 DUP1 RETURNDATACOPY RETURNDATASIZE PUSH0 REVERT JUMPDEST POP POP POP POP PUSH1 0x40 MLOAD RETURNDATASIZE PUSH1 0x1F NOT PUSH1 0x1F DUP3 ADD AND DUP3 ADD DUP1 PUSH1 0x40 MSTORE POP DUP2 ADD SWAP1 PUSH2 0xDBE SWAP2 SWAP1 PUSH2 0x3035 JUMP JUMPDEST PUSH2 0xE0A JUMPI PUSH1 0x40 MLOAD PUSH3 0x461BCD PUSH1 0xE5 SHL DUP2 MSTORE PUSH1 0x20 PUSH1 0x4 DUP3 ADD MSTORE PUSH1 0x15 PUSH1 0x24 DUP3 ADD MSTORE PUSH32 0x5573657232207472616E73666572206661696C65640000000000000000000000 PUSH1 0x44 DUP3 ADD MSTORE PUSH1 0x64 ADD PUSH2 0x747 JUMP JUMPDEST PUSH0 SLOAD PUSH1 0x1 PUSH1 0x1 PUSH1 0xA0 SHL SUB AND PUSH4 0xA9059CBB PUSH2 0xE4B PUSH32 0x9016D09D72D40FDAE2FD8CEAC6B6234C7706214FD39C1CD1E609A0528C199300 SLOAD PUSH1 0x1 PUSH1 0x1 PUSH1 0xA0 SHL SUB AND SWAP1 JUMP JUMPDEST PUSH1 0x40 MLOAD PUSH32 0xFFFFFFFF00000000000000000000000000000000000000000000000000000000 PUSH1 0xE0 DUP5 SWAP1 SHL AND DUP2 MSTORE PUSH1 0x1 PUSH1 0x1 PUSH1 0xA0 SHL SUB SWAP1 SWAP2 AND PUSH1 0x4 DUP3 ADD MSTORE PUSH1 0x24 DUP2 ADD DUP6 SWAP1 MSTORE PUSH1 0x44 ADD PUSH1 0x20 PUSH1 0x40 MLOAD DUP1 DUP4 SUB DUP2 PUSH0 DUP8 GAS CALL ISZERO DUP1 ISZERO PUSH2 0xEAD JUMPI RETURNDATASIZE PUSH0 DUP1 RETURNDATACOPY RETURNDATASIZE PUSH0 REVERT JUMPDEST POP POP POP POP PUSH1 0x40 MLOAD RETURNDATASIZE PUSH1 0x1F NOT PUSH1 0x1F DUP3 ADD AND DUP3 ADD DUP1 PUSH1 0x40 MSTORE POP DUP2 ADD SWAP1 PUSH2 0xED1 SWAP2 SWAP1 PUSH2 0x3035 JUMP JUMPDEST PUSH2 0xF1D JUMPI PUSH1 0x40 MLOAD PUSH3 0x461BCD PUSH1 0xE5 SHL DUP2 MSTORE PUSH1 0x20 PUSH1 0x4 DUP3 ADD MSTORE PUSH1 0x13 PUSH1 0x24 DUP3 ADD MSTORE PUSH32 0x466565207472616E73666572206661696C656400000000000000000000000000 PUSH1 0x44 DUP3 ADD MSTORE PUSH1 0x64 ADD PUSH2 0x747 JUMP JUMPDEST PUSH1 0x40 DUP1 MLOAD DUP3 DUP2 MSTORE PUSH1 0x20 DUP2 ADD DUP4 SWAP1 MSTORE SWAP1 DUP2 ADD DUP4 SWAP1 MSTORE PUSH1 0x80 PUSH1 0x60 DUP3 ADD DUP2 SWAP1 MSTORE PUSH1 0x7 SWAP1 DUP3 ADD MSTORE PUSH32 0x74696D656F757400000000000000000000000000000000000000000000000000 PUSH1 0xA0 DUP3 ADD MSTORE DUP5 SWAP1 PUSH32 0xF46A7B5E78BDE6ACA13CBF04933204950FB860B4C1645ABDC8DBF2D067DC1786 SWAP1 PUSH1 0xC0 ADD PUSH1 0x40 MLOAD DUP1 SWAP2 SUB SWAP1 LOG2 POP POP POP PUSH2 0xFC1 PUSH1 0x1 PUSH32 0x9B779B17422D0DF92223018B32B4D1FA46E071723D6817E2486D003BECC55F00 SSTORE JUMP JUMPDEST POP JUMP JUMPDEST PUSH2 0xFCC PUSH2 0x1D64 JUMP JUMPDEST PUSH0 DUP4 DUP2 MSTORE PUSH1 0x1 PUSH1 0x20 MSTORE PUSH1 0x40 SWAP1 KECCAK256 DUP1 SLOAD PUSH1 0x1 PUSH1 0x1 PUSH1 0xA0 SHL SUB AND CALLER EQ DUP1 PUSH2 0xFFD JUMPI POP PUSH1 0x1 DUP2 ADD SLOAD PUSH1 0x1 PUSH1 0x1 PUSH1 0xA0 SHL SUB AND CALLER EQ JUMPDEST PUSH2 0x1049 JUMPI PUSH1 0x40 MLOAD PUSH3 0x461BCD PUSH1 0xE5 SHL DUP2 MSTORE PUSH1 0x20 PUSH1 0x4 DUP3 ADD MSTORE PUSH1 0x11 PUSH1 0x24 DUP3 ADD MSTORE PUSH32 0x4E6F742061207061727469636970616E74000000000000000000000000000000 PUSH1 0x44 DUP3 ADD MSTORE PUSH1 0x64 ADD PUSH2 0x747 JUMP JUMPDEST PUSH1 0x6 DUP2 ADD SLOAD PUSH1 0xFF AND DUP1 ISZERO PUSH2 0x1066 JUMPI POP PUSH1 0x6 DUP2 ADD SLOAD PUSH2 0x100 SWAP1 DIV PUSH1 0xFF AND JUMPDEST PUSH2 0x10B2 JUMPI PUSH1 0x40 MLOAD PUSH3 0x461BCD PUSH1 0xE5 SHL DUP2 MSTORE PUSH1 0x20 PUSH1 0x4 DUP3 ADD MSTORE PUSH1 0x12 PUSH1 0x24 DUP3 ADD MSTORE PUSH32 0x5374616B65206E6F7420636F6D706C6574650000000000000000000000000000 PUSH1 0x44 DUP3 ADD MSTORE PUSH1 0x64 ADD PUSH2 0x747 JUMP JUMPDEST PUSH1 0x6 DUP2 ADD SLOAD PUSH3 0x10000 SWAP1 DIV PUSH1 0xFF AND ISZERO PUSH2 0x1101 JUMPI PUSH1 0x40 MLOAD PUSH3 0x461BCD PUSH1 0xE5 SHL DUP2 MSTORE PUSH1 0x20 PUSH1 0x4 DUP3 ADD MSTORE PUSH1 0x11 PUSH1 0x24 DUP3 ADD MSTORE PUSH17 0x105B1C9958591E481C1C9BD8D95CDCD959 PUSH1 0x7A SHL PUSH1 0x44 DUP3 ADD MSTORE PUSH1 0x64 ADD PUSH2 0x747 JUMP JUMPDEST DUP1 PUSH1 0x5 ADD SLOAD TIMESTAMP LT ISZERO PUSH2 0x1155 JUMPI PUSH1 0x40 MLOAD PUSH3 0x461BCD PUSH1 0xE5 SHL DUP2 MSTORE PUSH1 0x20 PUSH1 0x4 DUP3 ADD MSTORE PUSH1 0x1B PUSH1 0x24 DUP3 ADD MSTORE PUSH32 0x4D656574696E67206861736E2774206F63637572726564207965740000000000 PUSH1 0x44 DUP3 ADD MSTORE PUSH1 0x64 ADD PUSH2 0x747 JUMP JUMPDEST PUSH3 0x2A300 DUP2 PUSH1 0x5 ADD SLOAD PUSH2 0x1168 SWAP2 SWAP1 PUSH2 0x3050 JUMP JUMPDEST TIMESTAMP GT ISZERO PUSH2 0x11B7 JUMPI PUSH1 0x40 MLOAD PUSH3 0x461BCD PUSH1 0xE5 SHL DUP2 MSTORE PUSH1 0x20 PUSH1 0x4 DUP3 ADD MSTORE PUSH1 0x1A PUSH1 0x24 DUP3 ADD MSTORE PUSH32 0x436F6E6669726D6174696F6E2077696E646F7720636C6F736564000000000000 PUSH1 0x44 DUP3 ADD MSTORE PUSH1 0x64 ADD PUSH2 0x747 JUMP JUMPDEST PUSH0 DUP5 DUP2 MSTORE PUSH1 0x2 PUSH1 0x20 SWAP1 DUP2 MSTORE PUSH1 0x40 DUP1 DUP4 KECCAK256 CALLER DUP5 MSTORE SWAP1 SWAP2 MSTORE SWAP1 KECCAK256 SLOAD PUSH1 0xFF AND ISZERO PUSH2 0x1220 JUMPI PUSH1 0x40 MLOAD PUSH3 0x461BCD PUSH1 0xE5 SHL DUP2 MSTORE PUSH1 0x20 PUSH1 0x4 DUP3 ADD MSTORE PUSH1 0x11 PUSH1 0x24 DUP3 ADD MSTORE PUSH32 0x416C726561647920636F6E6669726D6564000000000000000000000000000000 PUSH1 0x44 DUP3 ADD MSTORE PUSH1 0x64 ADD PUSH2 0x747 JUMP JUMPDEST PUSH1 0x40 DUP1 MLOAD PUSH1 0x60 DUP2 ADD DUP3 MSTORE PUSH1 0x1 DUP2 MSTORE DUP5 ISZERO ISZERO PUSH1 0x20 DUP1 DUP4 ADD SWAP2 DUP3 MSTORE DUP6 ISZERO ISZERO DUP4 DUP6 ADD SWAP1 DUP2 MSTORE PUSH0 DUP10 DUP2 MSTORE PUSH1 0x2 DUP4 MSTORE DUP6 DUP2 KECCAK256 CALLER DUP1 DUP4 MSTORE SWAP4 MSTORE DUP6 SWAP1 KECCAK256 SWAP4 MLOAD DUP5 SLOAD SWAP4 MLOAD SWAP2 MLOAD ISZERO ISZERO PUSH3 0x10000 MUL PUSH3 0xFF0000 NOT SWAP3 ISZERO ISZERO PUSH2 0x100 MUL PUSH2 0xFF00 NOT SWAP3 ISZERO ISZERO SWAP3 SWAP1 SWAP3 AND PUSH2 0xFFFF NOT SWAP1 SWAP6 AND SWAP5 SWAP1 SWAP5 OR OR AND SWAP2 SWAP1 SWAP2 OR SWAP1 SWAP2 SSTORE SWAP1 MLOAD DUP6 SWAP1 PUSH32 0xC3F614FC872697FB99DF5635708F7FB73E68AF9E9E89A3FFC09206BB002501E1 SWAP1 PUSH2 0x12D0 SWAP1 DUP8 SWAP1 DUP8 SWAP1 SWAP2 ISZERO ISZERO DUP3 MSTORE ISZERO ISZERO PUSH1 0x20 DUP3 ADD MSTORE PUSH1 0x40 ADD SWAP1 JUMP JUMPDEST PUSH1 0x40 MLOAD DUP1 SWAP2 SUB SWAP1 LOG3 DUP1 SLOAD PUSH0 SWAP1 PUSH1 0x1 PUSH1 0x1 PUSH1 0xA0 SHL SUB AND CALLER EQ PUSH2 0x12FB JUMPI DUP2 SLOAD PUSH1 0x1 PUSH1 0x1 PUSH1 0xA0 SHL SUB AND PUSH2 0x130A JUMP JUMPDEST PUSH1 0x1 DUP3 ADD SLOAD PUSH1 0x1 PUSH1 0x1 PUSH1 0xA0 SHL SUB AND JUMPDEST PUSH0 DUP7 DUP2 MSTORE PUSH1 0x2 PUSH1 0x20 SWAP1 DUP2 MSTORE PUSH1 0x40 DUP1 DUP4 KECCAK256 PUSH1 0x1 PUSH1 0x1 PUSH1 0xA0 SHL SUB DUP6 AND DUP5 MSTORE SWAP1 SWAP2 MSTORE SWAP1 KECCAK256 SLOAD SWAP1 SWAP2 POP PUSH1 0xFF AND ISZERO PUSH2 0x1340 JUMPI PUSH2 0x1340 DUP6 PUSH2 0x1DED JUMP JUMPDEST POP POP PUSH2 0x136B PUSH1 0x1 PUSH32 0x9B779B17422D0DF92223018B32B4D1FA46E071723D6817E2486D003BECC55F00 SSTORE JUMP JUMPDEST POP POP POP JUMP JUMPDEST PUSH2 0x1378 PUSH2 0x2647 JUMP JUMPDEST PUSH2 0x1381 DUP3 PUSH2 0x26FE JUMP JUMPDEST PUSH2 0x138B DUP3 DUP3 PUSH2 0x2850 JUMP JUMPDEST POP POP JUMP JUMPDEST PUSH0 PUSH2 0x1398 PUSH2 0x2938 JUMP JUMPDEST POP PUSH32 0x360894A13BA1A3210667C828492DB98DCA3E2076CC3735A920A3CA505D382BBC SWAP1 JUMP JUMPDEST PUSH2 0x13C5 PUSH2 0x2981 JUMP JUMPDEST PUSH1 0x4 SLOAD PUSH1 0x1 PUSH1 0x1 PUSH1 0xA0 SHL SUB AND PUSH2 0x141D JUMPI PUSH1 0x40 MLOAD PUSH3 0x461BCD PUSH1 0xE5 SHL DUP2 MSTORE PUSH1 0x20 PUSH1 0x4 DUP3 ADD MSTORE PUSH1 0x12 PUSH1 0x24 DUP3 ADD MSTORE PUSH32 0x4E6F2070656E64696E6720757067726164650000000000000000000000000000 PUSH1 0x44 DUP3 ADD MSTORE PUSH1 0x64 ADD PUSH2 0x747 JUMP JUMPDEST PUSH1 0x4 DUP1 SLOAD PUSH1 0x1 PUSH1 0x1 PUSH1 0xA0 SHL SUB NOT DUP2 AND SWAP1 SWAP2 SSTORE PUSH0 PUSH1 0x5 DUP2 SWAP1 SSTORE PUSH1 0x40 MLOAD PUSH1 0x1 PUSH1 0x1 PUSH1 0xA0 SHL SUB SWAP1 SWAP3 AND SWAP2 DUP3 SWAP2 PUSH32 0x3198DC80249FCFEDBD0D06E1FF49A7695A51B006592328CE0B127CDEAB77E936 SWAP2 LOG2 POP JUMP JUMPDEST PUSH2 0x1474 PUSH2 0x2981 JUMP JUMPDEST PUSH2 0x147D PUSH0 PUSH2 0x29F5 JUMP JUMPDEST JUMP JUMPDEST PUSH2 0x1487 PUSH2 0x1D64 JUMP JUMPDEST PUSH0 DUP2 DUP2 MSTORE PUSH1 0x1 PUSH1 0x20 DUP2 SWAP1 MSTORE PUSH1 0x40 SWAP1 SWAP2 KECCAK256 SWAP1 DUP2 ADD SLOAD PUSH1 0x1 PUSH1 0x1 PUSH1 0xA0 SHL SUB AND CALLER EQ PUSH2 0x14F2 JUMPI PUSH1 0x40 MLOAD PUSH3 0x461BCD PUSH1 0xE5 SHL DUP2 MSTORE PUSH1 0x20 PUSH1 0x4 DUP3 ADD MSTORE PUSH1 0x14 PUSH1 0x24 DUP3 ADD MSTORE PUSH32 0x4E6F7420746865206D6174636865642075736572000000000000000000000000 PUSH1 0x44 DUP3 ADD MSTORE PUSH1 0x64 ADD PUSH2 0x747 JUMP JUMPDEST PUSH1 0x6 DUP2 ADD SLOAD PUSH1 0xFF AND PUSH2 0x1546 JUMPI PUSH1 0x40 MLOAD PUSH3 0x461BCD PUSH1 0xE5 SHL DUP2 MSTORE PUSH1 0x20 PUSH1 0x4 DUP3 ADD MSTORE PUSH1 0x11 PUSH1 0x24 DUP3 ADD MSTORE PUSH32 0x5374616B65206E6F742063726561746564000000000000000000000000000000 PUSH1 0x44 DUP3 ADD MSTORE PUSH1 0x64 ADD PUSH2 0x747 JUMP JUMPDEST PUSH1 0x6 DUP2 ADD SLOAD PUSH2 0x100 SWAP1 DIV PUSH1 0xFF AND ISZERO PUSH2 0x15A0 JUMPI PUSH1 0x40 MLOAD PUSH3 0x461BCD PUSH1 0xE5 SHL DUP2 MSTORE PUSH1 0x20 PUSH1 0x4 DUP3 ADD MSTORE PUSH1 0x10 PUSH1 0x24 DUP3 ADD MSTORE PUSH32 0x416C726561647920616363657074656400000000000000000000000000000000 PUSH1 0x44 DUP3 ADD MSTORE PUSH1 0x64 ADD PUSH2 0x747 JUMP JUMPDEST PUSH1 0x6 DUP2 ADD SLOAD PUSH3 0x10000 SWAP1 DIV PUSH1 0xFF AND ISZERO PUSH2 0x15EF JUMPI PUSH1 0x40 MLOAD PUSH3 0x461BCD PUSH1 0xE5 SHL DUP2 MSTORE PUSH1 0x20 PUSH1 0x4 DUP3 ADD MSTORE PUSH1 0x11 PUSH1 0x24 DUP3 ADD MSTORE PUSH17 0x105B1C9958591E481C1C9BD8D95CDCD959 PUSH1 0x7A SHL PUSH1 0x44 DUP3 ADD MSTORE PUSH1 0x64 ADD PUSH2 0x747 JUMP JUMPDEST DUP1 PUSH1 0x5 ADD SLOAD TIMESTAMP LT PUSH2 0x1642 JUMPI PUSH1 0x40 MLOAD PUSH3 0x461BCD PUSH1 0xE5 SHL DUP2 MSTORE PUSH1 0x20 PUSH1 0x4 DUP3 ADD MSTORE PUSH1 0x13 PUSH1 0x24 DUP3 ADD MSTORE PUSH32 0x4D656574696E672074696D652070617373656400000000000000000000000000 PUSH1 0x44 DUP3 ADD MSTORE PUSH1 0x64 ADD PUSH2 0x747 JUMP JUMPDEST PUSH1 0x2 DUP2 ADD SLOAD PUSH0 SLOAD PUSH1 0x40 MLOAD PUSH4 0x23B872DD PUSH1 0xE0 SHL DUP2 MSTORE CALLER PUSH1 0x4 DUP3 ADD MSTORE ADDRESS PUSH1 0x24 DUP3 ADD MSTORE PUSH1 0x44 DUP2 ADD DUP4 SWAP1 MSTORE PUSH1 0x1 PUSH1 0x1 PUSH1 0xA0 SHL SUB SWAP1 SWAP2 AND SWAP1 PUSH4 0x23B872DD SWAP1 PUSH1 0x64 ADD PUSH1 0x20 PUSH1 0x40 MLOAD DUP1 DUP4 SUB DUP2 PUSH0 DUP8 GAS CALL ISZERO DUP1 ISZERO PUSH2 0x169A JUMPI RETURNDATASIZE PUSH0 DUP1 RETURNDATACOPY RETURNDATASIZE PUSH0 REVERT JUMPDEST POP POP POP POP PUSH1 0x40 MLOAD RETURNDATASIZE PUSH1 0x1F NOT PUSH1 0x1F DUP3 ADD AND DUP3 ADD DUP1 PUSH1 0x40 MSTORE POP DUP2 ADD SWAP1 PUSH2 0x16BE SWAP2 SWAP1 PUSH2 0x3035 JUMP JUMPDEST PUSH2 0x170A JUMPI PUSH1 0x40 MLOAD PUSH3 0x461BCD PUSH1 0xE5 SHL DUP2 MSTORE PUSH1 0x20 PUSH1 0x4 DUP3 ADD MSTORE PUSH1 0xF PUSH1 0x24 DUP3 ADD MSTORE PUSH32 0x5472616E73666572206661696C65640000000000000000000000000000000000 PUSH1 0x44 DUP3 ADD MSTORE PUSH1 0x64 ADD PUSH2 0x747 JUMP JUMPDEST PUSH1 0x3 DUP3 ADD DUP2 SWAP1 SSTORE PUSH1 0x6 DUP3 ADD DUP1 SLOAD PUSH2 0xFF00 NOT AND PUSH2 0x100 OR SWAP1 SSTORE PUSH1 0x2 DUP3 ADD SLOAD PUSH2 0x1732 SWAP1 DUP3 SWAP1 PUSH2 0x3050 JUMP JUMPDEST PUSH1 0x4 DUP4 ADD SSTORE PUSH1 0x40 MLOAD DUP2 DUP2 MSTORE CALLER SWAP1 DUP5 SWAP1 PUSH32 0xAF84B9A32C98BE0E06D5F11733FED35E270C58D34C6986070B6F05D3CD939977 SWAP1 PUSH1 0x20 ADD PUSH1 0x40 MLOAD DUP1 SWAP2 SUB SWAP1 LOG3 POP POP PUSH2 0xFC1 PUSH1 0x1 PUSH32 0x9B779B17422D0DF92223018B32B4D1FA46E071723D6817E2486D003BECC55F00 SSTORE JUMP JUMPDEST PUSH0 PUSH2 0x17A2 PUSH2 0x2A65 JUMP JUMPDEST DUP1 SLOAD SWAP1 SWAP2 POP PUSH1 0xFF PUSH9 0x10000000000000000 DUP3 DIV AND ISZERO SWAP1 PUSH8 0xFFFFFFFFFFFFFFFF AND PUSH0 DUP2 ISZERO DUP1 ISZERO PUSH2 0x17CE JUMPI POP DUP3 JUMPDEST SWAP1 POP PUSH0 DUP3 PUSH8 0xFFFFFFFFFFFFFFFF AND PUSH1 0x1 EQ DUP1 ISZERO PUSH2 0x17EA JUMPI POP ADDRESS EXTCODESIZE ISZERO JUMPDEST SWAP1 POP DUP2 ISZERO DUP1 ISZERO PUSH2 0x17F8 JUMPI POP DUP1 ISZERO JUMPDEST ISZERO PUSH2 0x182F JUMPI PUSH1 0x40 MLOAD PUSH32 0xF92EE8A900000000000000000000000000000000000000000000000000000000 DUP2 MSTORE PUSH1 0x4 ADD PUSH1 0x40 MLOAD DUP1 SWAP2 SUB SWAP1 REVERT JUMPDEST DUP5 SLOAD PUSH8 0xFFFFFFFFFFFFFFFF NOT AND PUSH1 0x1 OR DUP6 SSTORE DUP4 ISZERO PUSH2 0x1863 JUMPI DUP5 SLOAD PUSH9 0xFF0000000000000000 NOT AND PUSH9 0x10000000000000000 OR DUP6 SSTORE JUMPDEST PUSH2 0x186C CALLER PUSH2 0x2A8D JUMP JUMPDEST PUSH2 0x1874 PUSH2 0x2A9E JUMP JUMPDEST PUSH2 0x187C PUSH2 0x2AA6 JUMP JUMPDEST PUSH0 DUP1 SLOAD PUSH1 0x1 PUSH1 0x1 PUSH1 0xA0 SHL SUB NOT AND PUSH1 0x1 PUSH1 0x1 PUSH1 0xA0 SHL SUB DUP9 AND OR SWAP1 SSTORE DUP4 ISZERO PUSH2 0x18E1 JUMPI DUP5 SLOAD PUSH9 0xFF0000000000000000 NOT AND DUP6 SSTORE PUSH1 0x40 MLOAD PUSH1 0x1 DUP2 MSTORE PUSH32 0xC7F505B2F371AE2175EE4913F4499E1F2633A7B5936321EED1CDAEB6115181D2 SWAP1 PUSH1 0x20 ADD PUSH1 0x40 MLOAD DUP1 SWAP2 SUB SWAP1 LOG1 JUMPDEST POP POP POP POP POP POP JUMP JUMPDEST PUSH2 0x18F1 PUSH2 0x2981 JUMP JUMPDEST PUSH1 0x1 PUSH1 0x1 PUSH1 0xA0 SHL SUB DUP2 AND PUSH2 0x1947 JUMPI PUSH1 0x40 MLOAD PUSH3 0x461BCD PUSH1 0xE5 SHL DUP2 MSTORE PUSH1 0x20 PUSH1 0x4 DUP3 ADD MSTORE PUSH1 0x16 PUSH1 0x24 DUP3 ADD MSTORE PUSH32 0x496E76616C696420696D706C656D656E746174696F6E00000000000000000000 PUSH1 0x44 DUP3 ADD MSTORE PUSH1 0x64 ADD PUSH2 0x747 JUMP JUMPDEST PUSH1 0x4 DUP1 SLOAD PUSH1 0x1 PUSH1 0x1 PUSH1 0xA0 SHL SUB NOT AND PUSH1 0x1 PUSH1 0x1 PUSH1 0xA0 SHL SUB DUP4 AND OR SWAP1 SSTORE PUSH2 0x196F PUSH3 0x2A300 TIMESTAMP PUSH2 0x3050 JUMP JUMPDEST PUSH1 0x5 DUP2 SWAP1 SSTORE PUSH1 0x40 MLOAD SWAP1 DUP2 MSTORE PUSH1 0x1 PUSH1 0x1 PUSH1 0xA0 SHL SUB DUP3 AND SWAP1 PUSH32 0xEA80D7BCDB5B960A75976C0E94D2D4B2077378CFEA983C73B49501B8613DA224 SWAP1 PUSH1 0x20 ADD PUSH1 0x40 MLOAD DUP1 SWAP2 SUB SWAP1 LOG2 POP JUMP JUMPDEST PUSH1 0x40 DUP1 MLOAD PUSH1 0x60 DUP1 DUP3 ADD DUP4 MSTORE PUSH0 DUP1 DUP4 MSTORE PUSH1 0x20 DUP1 DUP5 ADD DUP3 SWAP1 MSTORE SWAP3 DUP5 ADD DUP2 SWAP1 MSTORE DUP6 DUP2 MSTORE PUSH1 0x2 DUP4 MSTORE DUP4 DUP2 KECCAK256 PUSH1 0x1 PUSH1 0x1 PUSH1 0xA0 SHL SUB DUP7 AND DUP3 MSTORE DUP4 MSTORE DUP4 SWAP1 KECCAK256 DUP4 MLOAD SWAP2 DUP3 ADD DUP5 MSTORE SLOAD PUSH1 0xFF DUP1 DUP3 AND ISZERO ISZERO DUP4 MSTORE PUSH2 0x100 DUP3 DIV DUP2 AND ISZERO ISZERO SWAP4 DUP4 ADD SWAP4 SWAP1 SWAP4 MSTORE PUSH3 0x10000 SWAP1 DIV SWAP1 SWAP2 AND ISZERO ISZERO SWAP2 DUP2 ADD SWAP2 SWAP1 SWAP2 MSTORE JUMPDEST SWAP3 SWAP2 POP POP JUMP JUMPDEST PUSH2 0x1A2F PUSH2 0x1D64 JUMP JUMPDEST PUSH0 DUP2 DUP2 MSTORE PUSH1 0x1 PUSH1 0x20 MSTORE PUSH1 0x40 SWAP1 KECCAK256 DUP1 SLOAD PUSH1 0x1 PUSH1 0x1 PUSH1 0xA0 SHL SUB AND CALLER EQ PUSH2 0x1A95 JUMPI PUSH1 0x40 MLOAD PUSH3 0x461BCD PUSH1 0xE5 SHL DUP2 MSTORE PUSH1 0x20 PUSH1 0x4 DUP3 ADD MSTORE PUSH1 0x17 PUSH1 0x24 DUP3 ADD MSTORE PUSH32 0x4F6E6C792063726561746F722063616E2063616E63656C000000000000000000 PUSH1 0x44 DUP3 ADD MSTORE PUSH1 0x64 ADD PUSH2 0x747 JUMP JUMPDEST PUSH1 0x6 DUP2 ADD SLOAD PUSH1 0xFF AND PUSH2 0x1AE9 JUMPI PUSH1 0x40 MLOAD PUSH3 0x461BCD PUSH1 0xE5 SHL DUP2 MSTORE PUSH1 0x20 PUSH1 0x4 DUP3 ADD MSTORE PUSH1 0x11 PUSH1 0x24 DUP3 ADD MSTORE PUSH32 0x5374616B65206E6F742063726561746564000000000000000000000000000000 PUSH1 0x44 DUP3 ADD MSTORE PUSH1 0x64 ADD PUSH2 0x747 JUMP JUMPDEST PUSH1 0x6 DUP2 ADD SLOAD PUSH2 0x100 SWAP1 DIV PUSH1 0xFF AND ISZERO PUSH2 0x1B43 JUMPI PUSH1 0x40 MLOAD PUSH3 0x461BCD PUSH1 0xE5 SHL DUP2 MSTORE PUSH1 0x20 PUSH1 0x4 DUP3 ADD MSTORE PUSH1 0x10 PUSH1 0x24 DUP3 ADD MSTORE PUSH32 0x416C726561647920616363657074656400000000000000000000000000000000 PUSH1 0x44 DUP3 ADD MSTORE PUSH1 0x64 ADD PUSH2 0x747 JUMP JUMPDEST PUSH1 0x6 DUP2 ADD SLOAD PUSH3 0x10000 SWAP1 DIV PUSH1 0xFF AND ISZERO PUSH2 0x1B92 JUMPI PUSH1 0x40 MLOAD PUSH3 0x461BCD PUSH1 0xE5 SHL DUP2 MSTORE PUSH1 0x20 PUSH1 0x4 DUP3 ADD MSTORE PUSH1 0x11 PUSH1 0x24 DUP3 ADD MSTORE PUSH17 0x105B1C9958591E481C1C9BD8D95CDCD959 PUSH1 0x7A SHL PUSH1 0x44 DUP3 ADD MSTORE PUSH1 0x64 ADD PUSH2 0x747 JUMP JUMPDEST PUSH1 0x6 DUP2 ADD DUP1 SLOAD PUSH3 0xFF0000 NOT AND PUSH3 0x10000 OR SWAP1 SSTORE PUSH0 SLOAD DUP2 SLOAD PUSH1 0x2 DUP4 ADD SLOAD PUSH1 0x40 MLOAD PUSH4 0xA9059CBB PUSH1 0xE0 SHL DUP2 MSTORE PUSH1 0x1 PUSH1 0x1 PUSH1 0xA0 SHL SUB SWAP3 DUP4 AND PUSH1 0x4 DUP3 ADD MSTORE PUSH1 0x24 DUP2 ADD SWAP2 SWAP1 SWAP2 MSTORE SWAP2 AND SWAP1 PUSH4 0xA9059CBB SWAP1 PUSH1 0x44 ADD PUSH1 0x20 PUSH1 0x40 MLOAD DUP1 DUP4 SUB DUP2 PUSH0 DUP8 GAS CALL ISZERO DUP1 ISZERO PUSH2 0x1BFB JUMPI RETURNDATASIZE PUSH0 DUP1 RETURNDATACOPY RETURNDATASIZE PUSH0 REVERT JUMPDEST POP POP POP POP PUSH1 0x40 MLOAD RETURNDATASIZE PUSH1 0x1F NOT PUSH1 0x1F DUP3 ADD AND DUP3 ADD DUP1 PUSH1 0x40 MSTORE POP DUP2 ADD SWAP1 PUSH2 0x1C1F SWAP2 SWAP1 PUSH2 0x3035 JUMP JUMPDEST PUSH2 0x1C6B JUMPI PUSH1 0x40 MLOAD PUSH3 0x461BCD PUSH1 0xE5 SHL DUP2 MSTORE PUSH1 0x20 PUSH1 0x4 DUP3 ADD MSTORE PUSH1 0xD PUSH1 0x24 DUP3 ADD MSTORE PUSH32 0x526566756E64206661696C656400000000000000000000000000000000000000 PUSH1 0x44 DUP3 ADD MSTORE PUSH1 0x64 ADD PUSH2 0x747 JUMP JUMPDEST PUSH1 0x2 DUP2 ADD SLOAD PUSH1 0x40 DUP1 MLOAD SWAP2 DUP3 MSTORE PUSH0 PUSH1 0x20 DUP4 ADD DUP2 SWAP1 MSTORE SWAP1 DUP3 ADD MSTORE PUSH1 0x80 PUSH1 0x60 DUP3 ADD DUP2 SWAP1 MSTORE PUSH1 0x9 SWAP1 DUP3 ADD MSTORE PUSH32 0x63616E63656C6C65640000000000000000000000000000000000000000000000 PUSH1 0xA0 DUP3 ADD MSTORE DUP3 SWAP1 PUSH32 0xF46A7B5E78BDE6ACA13CBF04933204950FB860B4C1645ABDC8DBF2D067DC1786 SWAP1 PUSH1 0xC0 ADD PUSH1 0x40 MLOAD DUP1 SWAP2 SUB SWAP1 LOG2 POP PUSH2 0xFC1 PUSH1 0x1 PUSH32 0x9B779B17422D0DF92223018B32B4D1FA46E071723D6817E2486D003BECC55F00 SSTORE JUMP JUMPDEST PUSH2 0x1D19 PUSH2 0x2981 JUMP JUMPDEST PUSH1 0x1 PUSH1 0x1 PUSH1 0xA0 SHL SUB DUP2 AND PUSH2 0x1D5B JUMPI PUSH1 0x40 MLOAD PUSH32 0x1E4FBDF700000000000000000000000000000000000000000000000000000000 DUP2 MSTORE PUSH0 PUSH1 0x4 DUP3 ADD MSTORE PUSH1 0x24 ADD PUSH2 0x747 JUMP JUMPDEST PUSH2 0xFC1 DUP2 PUSH2 0x29F5 JUMP JUMPDEST PUSH32 0x9B779B17422D0DF92223018B32B4D1FA46E071723D6817E2486D003BECC55F00 DUP1 SLOAD PUSH1 0x1 NOT ADD PUSH2 0x1DC1 JUMPI PUSH1 0x40 MLOAD PUSH32 0x3EE5AEB500000000000000000000000000000000000000000000000000000000 DUP2 MSTORE PUSH1 0x4 ADD PUSH1 0x40 MLOAD DUP1 SWAP2 SUB SWAP1 REVERT JUMPDEST PUSH1 0x2 SWAP1 SSTORE JUMP JUMPDEST PUSH1 0x1 PUSH32 0x9B779B17422D0DF92223018B32B4D1FA46E071723D6817E2486D003BECC55F00 SSTORE JUMP JUMPDEST PUSH0 DUP2 DUP2 MSTORE PUSH1 0x1 PUSH1 0x20 DUP2 DUP2 MSTORE PUSH1 0x40 DUP1 DUP5 KECCAK256 PUSH1 0x2 DUP4 MSTORE DUP2 DUP6 KECCAK256 DUP2 SLOAD PUSH1 0x1 PUSH1 0x1 PUSH1 0xA0 SHL SUB SWAP1 DUP2 AND DUP8 MSTORE DUP2 DUP6 MSTORE DUP4 DUP8 KECCAK256 DUP5 MLOAD PUSH1 0x60 DUP1 DUP3 ADD DUP8 MSTORE SWAP2 SLOAD PUSH1 0xFF DUP1 DUP3 AND ISZERO ISZERO DUP4 MSTORE PUSH2 0x100 DUP1 DUP4 DIV DUP3 AND ISZERO ISZERO DUP5 DUP12 ADD SWAP1 DUP2 MSTORE PUSH3 0x10000 SWAP4 DUP5 SWAP1 DIV DUP4 AND ISZERO ISZERO DUP6 DUP12 ADD MSTORE SWAP11 DUP9 ADD SLOAD SWAP1 SWAP6 AND DUP12 MSTORE SWAP5 DUP9 MSTORE DUP7 DUP11 KECCAK256 DUP8 MLOAD DUP1 DUP6 ADD DUP10 MSTORE SWAP1 SLOAD DUP1 DUP8 AND ISZERO ISZERO DUP3 MSTORE SWAP5 DUP6 DIV DUP7 AND ISZERO ISZERO SWAP9 DUP2 ADD SWAP9 SWAP1 SWAP9 MSTORE SWAP1 SWAP3 DIV SWAP1 SWAP3 AND ISZERO ISZERO SWAP4 DUP6 ADD SWAP4 SWAP1 SWAP4 MSTORE SWAP4 MLOAD SWAP1 SWAP5 SWAP2 SWAP4 DUP3 SWAP2 DUP3 SWAP2 SWAP1 DUP1 ISZERO PUSH2 0x1EA1 JUMPI POP DUP6 PUSH1 0x40 ADD MLOAD JUMPDEST DUP1 ISZERO PUSH2 0x1EAE JUMPI POP DUP5 PUSH1 0x20 ADD MLOAD JUMPDEST DUP1 ISZERO PUSH2 0x1EBB JUMPI POP DUP5 PUSH1 0x40 ADD MLOAD JUMPDEST ISZERO PUSH2 0x1F3F JUMPI PUSH1 0x64 PUSH1 0x5 DUP9 PUSH1 0x4 ADD SLOAD PUSH2 0x1ED3 SWAP2 SWAP1 PUSH2 0x3063 JUMP JUMPDEST PUSH2 0x1EDD SWAP2 SWAP1 PUSH2 0x307A JUMP JUMPDEST SWAP2 POP PUSH0 PUSH1 0x2 DUP4 DUP10 PUSH1 0x4 ADD SLOAD PUSH2 0x1EF2 SWAP2 SWAP1 PUSH2 0x3099 JUMP JUMPDEST PUSH2 0x1EFC SWAP2 SWAP1 PUSH2 0x307A JUMP JUMPDEST PUSH1 0x40 DUP1 MLOAD DUP1 DUP3 ADD SWAP1 SWAP2 MSTORE PUSH1 0xB DUP2 MSTORE PUSH32 0x626F74685F73686F776564000000000000000000000000000000000000000000 PUSH1 0x20 DUP3 ADD MSTORE SWAP1 SWAP6 POP DUP6 SWAP5 POP SWAP2 POP PUSH2 0x2344 SWAP1 POP JUMP JUMPDEST DUP6 PUSH1 0x20 ADD MLOAD DUP1 ISZERO PUSH2 0x1F52 JUMPI POP DUP6 PUSH1 0x40 ADD MLOAD ISZERO JUMPDEST DUP1 ISZERO PUSH2 0x1F60 JUMPI POP DUP5 PUSH1 0x20 ADD MLOAD ISZERO JUMPDEST DUP1 ISZERO PUSH2 0x1F6D JUMPI POP DUP5 PUSH1 0x40 ADD MLOAD JUMPDEST ISZERO PUSH2 0x2045 JUMPI PUSH1 0x64 PUSH1 0x14 DUP9 PUSH1 0x3 ADD SLOAD PUSH2 0x1F85 SWAP2 SWAP1 PUSH2 0x3063 JUMP JUMPDEST PUSH2 0x1F8F SWAP2 SWAP1 PUSH2 0x307A JUMP JUMPDEST SWAP3 POP PUSH0 PUSH1 0x2 DUP9 PUSH1 0x3 ADD SLOAD PUSH2 0x1FA3 SWAP2 SWAP1 PUSH2 0x307A JUMP JUMPDEST SWAP1 POP PUSH0 DUP2 DUP10 PUSH1 0x2 ADD SLOAD PUSH2 0x1FB6 SWAP2 SWAP1 PUSH2 0x3050 JUMP JUMPDEST SWAP1 POP PUSH0 PUSH1 0x64 PUSH2 0x1FC6 PUSH1 0x5 DUP5 PUSH2 0x3063 JUMP JUMPDEST PUSH2 0x1FD0 SWAP2 SWAP1 PUSH2 0x307A JUMP JUMPDEST SWAP1 POP PUSH2 0x1FDC DUP2 DUP4 PUSH2 0x3099 JUMP JUMPDEST SWAP7 POP DUP6 DUP8 DUP12 PUSH1 0x4 ADD SLOAD PUSH2 0x1FEF SWAP2 SWAP1 PUSH2 0x3099 JUMP JUMPDEST PUSH2 0x1FF9 SWAP2 SWAP1 PUSH2 0x3099 JUMP JUMPDEST PUSH2 0x2003 SWAP1 DUP3 PUSH2 0x3050 JUMP JUMPDEST SWAP5 POP PUSH1 0x40 MLOAD DUP1 PUSH1 0x40 ADD PUSH1 0x40 MSTORE DUP1 PUSH1 0xC DUP2 MSTORE PUSH1 0x20 ADD PUSH32 0x75736572315F73686F7765640000000000000000000000000000000000000000 DUP2 MSTORE POP SWAP4 POP POP POP POP PUSH2 0x2344 JUMP JUMPDEST DUP6 PUSH1 0x20 ADD MLOAD ISZERO DUP1 ISZERO PUSH2 0x2058 JUMPI POP DUP6 PUSH1 0x40 ADD MLOAD JUMPDEST DUP1 ISZERO PUSH2 0x2065 JUMPI POP DUP5 PUSH1 0x20 ADD MLOAD JUMPDEST DUP1 ISZERO PUSH2 0x2073 JUMPI POP DUP5 PUSH1 0x40 ADD MLOAD ISZERO JUMPDEST ISZERO PUSH2 0x214B JUMPI PUSH1 0x64 PUSH1 0x14 DUP9 PUSH1 0x2 ADD SLOAD PUSH2 0x208B SWAP2 SWAP1 PUSH2 0x3063 JUMP JUMPDEST PUSH2 0x2095 SWAP2 SWAP1 PUSH2 0x307A JUMP JUMPDEST SWAP4 POP PUSH0 PUSH1 0x2 DUP9 PUSH1 0x2 ADD SLOAD PUSH2 0x20A9 SWAP2 SWAP1 PUSH2 0x307A JUMP JUMPDEST SWAP1 POP PUSH0 DUP2 DUP10 PUSH1 0x3 ADD SLOAD PUSH2 0x20BC SWAP2 SWAP1 PUSH2 0x3050 JUMP JUMPDEST SWAP1 POP PUSH0 PUSH1 0x64 PUSH2 0x20CC PUSH1 0x5 DUP5 PUSH2 0x3063 JUMP JUMPDEST PUSH2 0x20D6 SWAP2 SWAP1 PUSH2 0x307A JUMP JUMPDEST SWAP1 POP PUSH2 0x20E2 DUP2 DUP4 PUSH2 0x3099 JUMP JUMPDEST SWAP6 POP DUP6 DUP8 DUP12 PUSH1 0x4 ADD SLOAD PUSH2 0x20F5 SWAP2 SWAP1 PUSH2 0x3099 JUMP JUMPDEST PUSH2 0x20FF SWAP2 SWAP1 PUSH2 0x3099 JUMP JUMPDEST PUSH2 0x2109 SWAP1 DUP3 PUSH2 0x3050 JUMP JUMPDEST SWAP5 POP PUSH1 0x40 MLOAD DUP1 PUSH1 0x40 ADD PUSH1 0x40 MSTORE DUP1 PUSH1 0xC DUP2 MSTORE PUSH1 0x20 ADD PUSH32 0x75736572325F73686F7765640000000000000000000000000000000000000000 DUP2 MSTORE POP SWAP4 POP POP POP POP PUSH2 0x2344 JUMP JUMPDEST DUP6 PUSH1 0x20 ADD MLOAD ISZERO DUP1 ISZERO PUSH2 0x215F JUMPI POP DUP5 PUSH1 0x20 ADD MLOAD ISZERO JUMPDEST DUP1 ISZERO PUSH2 0x216D JUMPI POP DUP6 PUSH1 0x40 ADD MLOAD ISZERO JUMPDEST DUP1 ISZERO PUSH2 0x217B JUMPI POP DUP5 PUSH1 0x40 ADD MLOAD ISZERO JUMPDEST ISZERO PUSH2 0x2218 JUMPI PUSH1 0x64 PUSH1 0x14 DUP9 PUSH1 0x2 ADD SLOAD PUSH2 0x2193 SWAP2 SWAP1 PUSH2 0x3063 JUMP JUMPDEST PUSH2 0x219D SWAP2 SWAP1 PUSH2 0x307A JUMP JUMPDEST SWAP4 POP PUSH1 0x64 PUSH1 0x14 DUP9 PUSH1 0x3 ADD SLOAD PUSH2 0x21B2 SWAP2 SWAP1 PUSH2 0x3063 JUMP JUMPDEST PUSH2 0x21BC SWAP2 SWAP1 PUSH2 0x307A JUMP JUMPDEST SWAP3 POP DUP3 DUP5 DUP9 PUSH1 0x4 ADD SLOAD PUSH2 0x21CF SWAP2 SWAP1 PUSH2 0x3099 JUMP JUMPDEST PUSH2 0x21D9 SWAP2 SWAP1 PUSH2 0x3099 JUMP JUMPDEST SWAP2 POP PUSH1 0x40 MLOAD DUP1 PUSH1 0x40 ADD PUSH1 0x40 MSTORE DUP1 PUSH1 0xE DUP2 MSTORE PUSH1 0x20 ADD PUSH32 0x6E6569746865725F73686F776564000000000000000000000000000000000000 DUP2 MSTORE POP SWAP1 POP PUSH2 0x2344 JUMP JUMPDEST DUP6 PUSH1 0x20 ADD MLOAD DUP1 ISZERO PUSH2 0x222B JUMPI POP DUP6 PUSH1 0x40 ADD MLOAD ISZERO JUMPDEST DUP1 ISZERO PUSH2 0x2238 JUMPI POP DUP5 PUSH1 0x20 ADD MLOAD JUMPDEST DUP1 ISZERO PUSH2 0x2246 JUMPI POP DUP5 PUSH1 0x40 ADD MLOAD ISZERO JUMPDEST ISZERO PUSH2 0x22CA JUMPI PUSH1 0x64 DUP8 PUSH1 0x4 ADD SLOAD PUSH1 0xA PUSH2 0x225E SWAP2 SWAP1 PUSH2 0x3063 JUMP JUMPDEST PUSH2 0x2268 SWAP2 SWAP1 PUSH2 0x307A JUMP JUMPDEST SWAP2 POP PUSH0 PUSH1 0x2 DUP4 DUP10 PUSH1 0x4 ADD SLOAD PUSH2 0x227D SWAP2 SWAP1 PUSH2 0x3099 JUMP JUMPDEST PUSH2 0x2287 SWAP2 SWAP1 PUSH2 0x307A JUMP JUMPDEST PUSH1 0x40 DUP1 MLOAD DUP1 DUP3 ADD SWAP1 SWAP2 MSTORE PUSH1 0x8 DUP2 MSTORE PUSH32 0x636F6E666C696374000000000000000000000000000000000000000000000000 PUSH1 0x20 DUP3 ADD MSTORE SWAP1 SWAP6 POP DUP6 SWAP5 POP SWAP2 POP PUSH2 0x2344 SWAP1 POP JUMP JUMPDEST PUSH1 0x64 DUP8 PUSH1 0x4 ADD SLOAD PUSH1 0xA PUSH2 0x22DD SWAP2 SWAP1 PUSH2 0x3063 JUMP JUMPDEST PUSH2 0x22E7 SWAP2 SWAP1 PUSH2 0x307A JUMP JUMPDEST SWAP2 POP PUSH0 PUSH1 0x2 DUP4 DUP10 PUSH1 0x4 ADD SLOAD PUSH2 0x22FC SWAP2 SWAP1 PUSH2 0x3099 JUMP JUMPDEST PUSH2 0x2306 SWAP2 SWAP1 PUSH2 0x307A JUMP JUMPDEST PUSH1 0x40 DUP1 MLOAD DUP1 DUP3 ADD SWAP1 SWAP2 MSTORE PUSH1 0x8 DUP2 MSTORE PUSH32 0x6D69736D61746368000000000000000000000000000000000000000000000000 PUSH1 0x20 DUP3 ADD MSTORE SWAP1 SWAP6 POP DUP6 SWAP5 POP SWAP2 POP POP JUMPDEST PUSH1 0x6 DUP8 ADD DUP1 SLOAD PUSH3 0xFF0000 NOT AND PUSH3 0x10000 OR SWAP1 SSTORE DUP4 ISZERO PUSH2 0x241D JUMPI PUSH0 SLOAD DUP8 SLOAD PUSH1 0x40 MLOAD PUSH4 0xA9059CBB PUSH1 0xE0 SHL DUP2 MSTORE PUSH1 0x1 PUSH1 0x1 PUSH1 0xA0 SHL SUB SWAP2 DUP3 AND PUSH1 0x4 DUP3 ADD MSTORE PUSH1 0x24 DUP2 ADD DUP8 SWAP1 MSTORE SWAP2 AND SWAP1 PUSH4 0xA9059CBB SWAP1 PUSH1 0x44 ADD PUSH1 0x20 PUSH1 0x40 MLOAD DUP1 DUP4 SUB DUP2 PUSH0 DUP8 GAS CALL ISZERO DUP1 ISZERO PUSH2 0x23AD JUMPI RETURNDATASIZE PUSH0 DUP1 RETURNDATACOPY RETURNDATASIZE PUSH0 REVERT JUMPDEST POP POP POP POP PUSH1 0x40 MLOAD RETURNDATASIZE PUSH1 0x1F NOT PUSH1 0x1F DUP3 ADD AND DUP3 ADD DUP1 PUSH1 0x40 MSTORE POP DUP2 ADD SWAP1 PUSH2 0x23D1 SWAP2 SWAP1 PUSH2 0x3035 JUMP JUMPDEST PUSH2 0x241D JUMPI PUSH1 0x40 MLOAD PUSH3 0x461BCD PUSH1 0xE5 SHL DUP2 MSTORE PUSH1 0x20 PUSH1 0x4 DUP3 ADD MSTORE PUSH1 0x15 PUSH1 0x24 DUP3 ADD MSTORE PUSH32 0x5573657231207472616E73666572206661696C65640000000000000000000000 PUSH1 0x44 DUP3 ADD MSTORE PUSH1 0x64 ADD PUSH2 0x747 JUMP JUMPDEST DUP3 ISZERO PUSH2 0x24E6 JUMPI PUSH0 SLOAD PUSH1 0x1 DUP9 ADD SLOAD PUSH1 0x40 MLOAD PUSH4 0xA9059CBB PUSH1 0xE0 SHL DUP2 MSTORE PUSH1 0x1 PUSH1 0x1 PUSH1 0xA0 SHL SUB SWAP2 DUP3 AND PUSH1 0x4 DUP3 ADD MSTORE PUSH1 0x24 DUP2 ADD DUP7 SWAP1 MSTORE SWAP2 AND SWAP1 PUSH4 0xA9059CBB SWAP1 PUSH1 0x44 ADD PUSH1 0x20 PUSH1 0x40 MLOAD DUP1 DUP4 SUB DUP2 PUSH0 DUP8 GAS CALL ISZERO DUP1 ISZERO PUSH2 0x2476 JUMPI RETURNDATASIZE PUSH0 DUP1 RETURNDATACOPY RETURNDATASIZE PUSH0 REVERT JUMPDEST POP POP POP POP PUSH1 0x40 MLOAD RETURNDATASIZE PUSH1 0x1F NOT PUSH1 0x1F DUP3 ADD AND DUP3 ADD DUP1 PUSH1 0x40 MSTORE POP DUP2 ADD SWAP1 PUSH2 0x249A SWAP2 SWAP1 PUSH2 0x3035 JUMP JUMPDEST PUSH2 0x24E6 JUMPI PUSH1 0x40 MLOAD PUSH3 0x461BCD PUSH1 0xE5 SHL DUP2 MSTORE PUSH1 0x20 PUSH1 0x4 DUP3 ADD MSTORE PUSH1 0x15 PUSH1 0x24 DUP3 ADD MSTORE PUSH32 0x5573657232207472616E73666572206661696C65640000000000000000000000 PUSH1 0x44 DUP3 ADD MSTORE PUSH1 0x64 ADD PUSH2 0x747 JUMP JUMPDEST DUP2 ISZERO PUSH2 0x25FF JUMPI PUSH0 SLOAD PUSH1 0x1 PUSH1 0x1 PUSH1 0xA0 SHL SUB AND PUSH4 0xA9059CBB PUSH2 0x252D PUSH32 0x9016D09D72D40FDAE2FD8CEAC6B6234C7706214FD39C1CD1E609A0528C199300 SLOAD PUSH1 0x1 PUSH1 0x1 PUSH1 0xA0 SHL SUB AND SWAP1 JUMP JUMPDEST PUSH1 0x40 MLOAD PUSH32 0xFFFFFFFF00000000000000000000000000000000000000000000000000000000 PUSH1 0xE0 DUP5 SWAP1 SHL AND DUP2 MSTORE PUSH1 0x1 PUSH1 0x1 PUSH1 0xA0 SHL SUB SWAP1 SWAP2 AND PUSH1 0x4 DUP3 ADD MSTORE PUSH1 0x24 DUP2 ADD DUP6 SWAP1 MSTORE PUSH1 0x44 ADD PUSH1 0x20 PUSH1 0x40 MLOAD DUP1 DUP4 SUB DUP2 PUSH0 DUP8 GAS CALL ISZERO DUP1 ISZERO PUSH2 0x258F JUMPI RETURNDATASIZE PUSH0 DUP1 RETURNDATACOPY RETURNDATASIZE PUSH0 REVERT JUMPDEST POP POP POP POP PUSH1 0x40 MLOAD RETURNDATASIZE PUSH1 0x1F NOT PUSH1 0x1F DUP3 ADD AND DUP3 ADD DUP1 PUSH1 0x40 MSTORE POP DUP2 ADD SWAP1 PUSH2 0x25B3 SWAP2 SWAP1 PUSH2 0x3035 JUMP JUMPDEST PUSH2 0x25FF JUMPI PUSH1 0x40 MLOAD PUSH3 0x461BCD PUSH1 0xE5 SHL DUP2 MSTORE PUSH1 0x20 PUSH1 0x4 DUP3 ADD MSTORE PUSH1 0x13 PUSH1 0x24 DUP3 ADD MSTORE PUSH32 0x466565207472616E73666572206661696C656400000000000000000000000000 PUSH1 0x44 DUP3 ADD MSTORE PUSH1 0x64 ADD PUSH2 0x747 JUMP JUMPDEST DUP8 PUSH32 0xF46A7B5E78BDE6ACA13CBF04933204950FB860B4C1645ABDC8DBF2D067DC1786 DUP6 DUP6 DUP6 DUP6 PUSH1 0x40 MLOAD PUSH2 0x2635 SWAP5 SWAP4 SWAP3 SWAP2 SWAP1 PUSH2 0x30AC JUMP JUMPDEST PUSH1 0x40 MLOAD DUP1 SWAP2 SUB SWAP1 LOG2 POP POP POP POP POP POP POP POP JUMP JUMPDEST ADDRESS PUSH1 0x1 PUSH1 0x1 PUSH1 0xA0 SHL SUB PUSH32 0x0 AND EQ DUP1 PUSH2 0x26E0 JUMPI POP PUSH32 0x0 PUSH1 0x1 PUSH1 0x1 PUSH1 0xA0 SHL SUB AND PUSH2 0x26D4 PUSH32 0x360894A13BA1A3210667C828492DB98DCA3E2076CC3735A920A3CA505D382BBC SLOAD PUSH1 0x1 PUSH1 0x1 PUSH1 0xA0 SHL SUB AND SWAP1 JUMP JUMPDEST PUSH1 0x1 PUSH1 0x1 PUSH1 0xA0 SHL SUB AND EQ ISZERO JUMPDEST ISZERO PUSH2 0x147D JUMPI PUSH1 0x40 MLOAD PUSH4 0x703E46DD PUSH1 0xE1 SHL DUP2 MSTORE PUSH1 0x4 ADD PUSH1 0x40 MLOAD DUP1 SWAP2 SUB SWAP1 REVERT JUMPDEST PUSH2 0x2706 PUSH2 0x2981 JUMP JUMPDEST PUSH1 0x4 SLOAD PUSH1 0x1 PUSH1 0x1 PUSH1 0xA0 SHL SUB DUP3 DUP2 AND SWAP2 AND EQ PUSH2 0x2763 JUMPI PUSH1 0x40 MLOAD PUSH3 0x461BCD PUSH1 0xE5 SHL DUP2 MSTORE PUSH1 0x20 PUSH1 0x4 DUP3 ADD MSTORE PUSH1 0x1F PUSH1 0x24 DUP3 ADD MSTORE PUSH32 0x4E6F74207468652070726F706F73656420696D706C656D656E746174696F6E00 PUSH1 0x44 DUP3 ADD MSTORE PUSH1 0x64 ADD PUSH2 0x747 JUMP JUMPDEST PUSH1 0x5 SLOAD TIMESTAMP LT ISZERO PUSH2 0x27B5 JUMPI PUSH1 0x40 MLOAD PUSH3 0x461BCD PUSH1 0xE5 SHL DUP2 MSTORE PUSH1 0x20 PUSH1 0x4 DUP3 ADD MSTORE PUSH1 0x15 PUSH1 0x24 DUP3 ADD MSTORE PUSH32 0x557067726164652064656C6179206E6F74206D65740000000000000000000000 PUSH1 0x44 DUP3 ADD MSTORE PUSH1 0x64 ADD PUSH2 0x747 JUMP JUMPDEST PUSH1 0x5 SLOAD PUSH0 SUB PUSH2 0x2806 JUMPI PUSH1 0x40 MLOAD PUSH3 0x461BCD PUSH1 0xE5 SHL DUP2 MSTORE PUSH1 0x20 PUSH1 0x4 DUP3 ADD MSTORE PUSH1 0x13 PUSH1 0x24 DUP3 ADD MSTORE PUSH32 0x4E6F20757067726164652070726F706F73656400000000000000000000000000 PUSH1 0x44 DUP3 ADD MSTORE PUSH1 0x64 ADD PUSH2 0x747 JUMP JUMPDEST PUSH1 0x4 DUP1 SLOAD PUSH1 0x1 PUSH1 0x1 PUSH1 0xA0 SHL SUB NOT AND SWAP1 SSTORE PUSH0 PUSH1 0x5 DUP2 SWAP1 SSTORE PUSH1 0x40 MLOAD PUSH1 0x1 PUSH1 0x1 PUSH1 0xA0 SHL SUB DUP4 AND SWAP2 PUSH32 0xFD5A9AE7C73C11FDE86DD61704E937A04C99E7EEF668050F685AABC5D8A6B2E4 SWAP2 LOG2 POP JUMP JUMPDEST DUP2 PUSH1 0x1 PUSH1 0x1 PUSH1 0xA0 SHL SUB AND PUSH4 0x52D1902D PUSH1 0x40 MLOAD DUP2 PUSH4 0xFFFFFFFF AND PUSH1 0xE0 SHL DUP2 MSTORE PUSH1 0x4 ADD PUSH1 0x20 PUSH1 0x40 MLOAD DUP1 DUP4 SUB DUP2 DUP7 GAS STATICCALL SWAP3 POP POP POP DUP1 ISZERO PUSH2 0x28AA JUMPI POP PUSH1 0x40 DUP1 MLOAD PUSH1 0x1F RETURNDATASIZE SWAP1 DUP2 ADD PUSH1 0x1F NOT AND DUP3 ADD SWAP1 SWAP3 MSTORE PUSH2 0x28A7 SWAP2 DUP2 ADD SWAP1 PUSH2 0x30DA JUMP JUMPDEST PUSH1 0x1 JUMPDEST PUSH2 0x28D2 JUMPI PUSH1 0x40 MLOAD PUSH4 0x4C9C8CE3 PUSH1 0xE0 SHL DUP2 MSTORE PUSH1 0x1 PUSH1 0x1 PUSH1 0xA0 SHL SUB DUP4 AND PUSH1 0x4 DUP3 ADD MSTORE PUSH1 0x24 ADD PUSH2 0x747 JUMP JUMPDEST PUSH32 0x360894A13BA1A3210667C828492DB98DCA3E2076CC3735A920A3CA505D382BBC DUP2 EQ PUSH2 0x292E JUMPI PUSH1 0x40 MLOAD PUSH32 0xAA1D49A400000000000000000000000000000000000000000000000000000000 DUP2 MSTORE PUSH1 0x4 DUP2 ADD DUP3 SWAP1 MSTORE PUSH1 0x24 ADD PUSH2 0x747 JUMP JUMPDEST PUSH2 0x136B DUP4 DUP4 PUSH2 0x2AB6 JUMP JUMPDEST ADDRESS PUSH1 0x1 PUSH1 0x1 PUSH1 0xA0 SHL SUB PUSH32 0x0 AND EQ PUSH2 0x147D JUMPI PUSH1 0x40 MLOAD PUSH4 0x703E46DD PUSH1 0xE1 SHL DUP2 MSTORE PUSH1 0x4 ADD PUSH1 0x40 MLOAD DUP1 SWAP2 SUB SWAP1 REVERT JUMPDEST CALLER PUSH2 0x29B3 PUSH32 0x9016D09D72D40FDAE2FD8CEAC6B6234C7706214FD39C1CD1E609A0528C199300 SLOAD PUSH1 0x1 PUSH1 0x1 PUSH1 0xA0 SHL SUB AND SWAP1 JUMP JUMPDEST PUSH1 0x1 PUSH1 0x1 PUSH1 0xA0 SHL SUB AND EQ PUSH2 0x147D JUMPI PUSH1 0x40 MLOAD PUSH32 0x118CDAA700000000000000000000000000000000000000000000000000000000 DUP2 MSTORE CALLER PUSH1 0x4 DUP3 ADD MSTORE PUSH1 0x24 ADD PUSH2 0x747 JUMP JUMPDEST PUSH32 0x9016D09D72D40FDAE2FD8CEAC6B6234C7706214FD39C1CD1E609A0528C199300 DUP1 SLOAD PUSH1 0x1 PUSH1 0x1 PUSH1 0xA0 SHL SUB NOT DUP2 AND PUSH1 0x1 PUSH1 0x1 PUSH1 0xA0 SHL SUB DUP5 DUP2 AND SWAP2 DUP3 OR DUP5 SSTORE PUSH1 0x40 MLOAD SWAP3 AND SWAP2 DUP3 SWAP1 PUSH32 0x8BE0079C531659141344CD1FD0A4F28419497F9722A3DAAFE3B4186F6B6457E0 SWAP1 PUSH0 SWAP1 LOG3 POP POP POP JUMP JUMPDEST PUSH0 DUP1 PUSH32 0xF0C57E16840DF040F15088DC2F81FE391C3923BEC73E23A9662EFC9C229C6A00 PUSH2 0x1A21 JUMP JUMPDEST PUSH2 0x2A95 PUSH2 0x2B0B JUMP JUMPDEST PUSH2 0xFC1 DUP2 PUSH2 0x2B49 JUMP JUMPDEST PUSH2 0x147D PUSH2 0x2B0B JUMP JUMPDEST PUSH2 0x2AAE PUSH2 0x2B0B JUMP JUMPDEST PUSH2 0x147D PUSH2 0x2B51 JUMP JUMPDEST PUSH2 0x2ABF DUP3 PUSH2 0x2B59 JUMP JUMPDEST PUSH1 0x40 MLOAD PUSH1 0x1 PUSH1 0x1 PUSH1 0xA0 SHL SUB DUP4 AND SWAP1 PUSH32 0xBC7CD75A20EE27FD9ADEBAB32041F755214DBC6BFFA90CC0225B39DA2E5C2D3B SWAP1 PUSH0 SWAP1 LOG2 DUP1 MLOAD ISZERO PUSH2 0x2B03 JUMPI PUSH2 0x136B DUP3 DUP3 PUSH2 0x2BCF JUMP JUMPDEST PUSH2 0x138B PUSH2 0x2C41 JUMP JUMPDEST PUSH2 0x2B13 PUSH2 0x2C79 JUMP JUMPDEST PUSH2 0x147D JUMPI PUSH1 0x40 MLOAD PUSH32 0xD7E6BCF800000000000000000000000000000000000000000000000000000000 DUP2 MSTORE PUSH1 0x4 ADD PUSH1 0x40 MLOAD DUP1 SWAP2 SUB SWAP1 REVERT JUMPDEST PUSH2 0x1D19 PUSH2 0x2B0B JUMP JUMPDEST PUSH2 0x1DC7 PUSH2 0x2B0B JUMP JUMPDEST DUP1 PUSH1 0x1 PUSH1 0x1 PUSH1 0xA0 SHL SUB AND EXTCODESIZE PUSH0 SUB PUSH2 0x2B8E JUMPI PUSH1 0x40 MLOAD PUSH4 0x4C9C8CE3 PUSH1 0xE0 SHL DUP2 MSTORE PUSH1 0x1 PUSH1 0x1 PUSH1 0xA0 SHL SUB DUP3 AND PUSH1 0x4 DUP3 ADD MSTORE PUSH1 0x24 ADD PUSH2 0x747 JUMP JUMPDEST PUSH32 0x360894A13BA1A3210667C828492DB98DCA3E2076CC3735A920A3CA505D382BBC DUP1 SLOAD PUSH1 0x1 PUSH1 0x1 PUSH1 0xA0 SHL SUB NOT AND PUSH1 0x1 PUSH1 0x1 PUSH1 0xA0 SHL SUB SWAP3 SWAP1 SWAP3 AND SWAP2 SWAP1 SWAP2 OR SWAP1 SSTORE JUMP JUMPDEST PUSH1 0x60 PUSH0 DUP1 DUP5 PUSH1 0x1 PUSH1 0x1 PUSH1 0xA0 SHL SUB AND DUP5 PUSH1 0x40 MLOAD PUSH2 0x2BEB SWAP2 SWAP1 PUSH2 0x30F1 JUMP JUMPDEST PUSH0 PUSH1 0x40 MLOAD DUP1 DUP4 SUB DUP2 DUP6 GAS DELEGATECALL SWAP2 POP POP RETURNDATASIZE DUP1 PUSH0 DUP2 EQ PUSH2 0x2C23 JUMPI PUSH1 0x40 MLOAD SWAP2 POP PUSH1 0x1F NOT PUSH1 0x3F RETURNDATASIZE ADD AND DUP3 ADD PUSH1 0x40 MSTORE RETURNDATASIZE DUP3 MSTORE RETURNDATASIZE PUSH0 PUSH1 0x20 DUP5 ADD RETURNDATACOPY PUSH2 0x2C28 JUMP JUMPDEST PUSH1 0x60 SWAP2 POP JUMPDEST POP SWAP2 POP SWAP2 POP PUSH2 0x2C38 DUP6 DUP4 DUP4 PUSH2 0x2C97 JUMP JUMPDEST SWAP6 SWAP5 POP POP POP POP POP JUMP JUMPDEST CALLVALUE ISZERO PUSH2 0x147D JUMPI PUSH1 0x40 MLOAD PUSH32 0xB398979F00000000000000000000000000000000000000000000000000000000 DUP2 MSTORE PUSH1 0x4 ADD PUSH1 0x40 MLOAD DUP1 SWAP2 SUB SWAP1 REVERT JUMPDEST PUSH0 PUSH2 0x2C82 PUSH2 0x2A65 JUMP JUMPDEST SLOAD PUSH9 0x10000000000000000 SWAP1 DIV PUSH1 0xFF AND SWAP2 SWAP1 POP JUMP JUMPDEST PUSH1 0x60 DUP3 PUSH2 0x2CAC JUMPI PUSH2 0x2CA7 DUP3 PUSH2 0x2D0C JUMP JUMPDEST PUSH2 0xB00 JUMP JUMPDEST DUP2 MLOAD ISZERO DUP1 ISZERO PUSH2 0x2CC3 JUMPI POP PUSH1 0x1 PUSH1 0x1 PUSH1 0xA0 SHL SUB DUP5 AND EXTCODESIZE ISZERO JUMPDEST ISZERO PUSH2 0x2D05 JUMPI PUSH1 0x40 MLOAD PUSH32 0x9996B31500000000000000000000000000000000000000000000000000000000 DUP2 MSTORE PUSH1 0x1 PUSH1 0x1 PUSH1 0xA0 SHL SUB DUP6 AND PUSH1 0x4 DUP3 ADD MSTORE PUSH1 0x24 ADD PUSH2 0x747 JUMP JUMPDEST POP DUP1 PUSH2 0xB00 JUMP JUMPDEST DUP1 MLOAD ISZERO PUSH2 0x2D1B JUMPI DUP1 MLOAD PUSH1 0x20 DUP3 ADD REVERT JUMPDEST PUSH1 0x40 MLOAD PUSH32 0xD6BDA27500000000000000000000000000000000000000000000000000000000 DUP2 MSTORE PUSH1 0x4 ADD PUSH1 0x40 MLOAD DUP1 SWAP2 SUB SWAP1 REVERT JUMPDEST DUP1 CALLDATALOAD PUSH1 0x1 PUSH1 0x1 PUSH1 0xA0 SHL SUB DUP2 AND DUP2 EQ PUSH2 0x2D63 JUMPI PUSH0 DUP1 REVERT JUMPDEST SWAP2 SWAP1 POP JUMP JUMPDEST PUSH0 DUP1 PUSH1 0x40 DUP4 DUP6 SUB SLT ISZERO PUSH2 0x2D79 JUMPI PUSH0 DUP1 REVERT JUMPDEST DUP3 CALLDATALOAD SWAP2 POP PUSH2 0x2D89 PUSH1 0x20 DUP5 ADD PUSH2 0x2D4D JUMP JUMPDEST SWAP1 POP SWAP3 POP SWAP3 SWAP1 POP JUMP JUMPDEST PUSH0 DUP1 PUSH0 PUSH1 0x60 DUP5 DUP7 SUB SLT ISZERO PUSH2 0x2DA4 JUMPI PUSH0 DUP1 REVERT JUMPDEST PUSH2 0x2DAD DUP5 PUSH2 0x2D4D JUMP JUMPDEST SWAP6 PUSH1 0x20 DUP6 ADD CALLDATALOAD SWAP6 POP PUSH1 0x40 SWAP1 SWAP5 ADD CALLDATALOAD SWAP4 SWAP3 POP POP POP JUMP JUMPDEST PUSH0 PUSH1 0x20 DUP3 DUP5 SUB SLT ISZERO PUSH2 0x2DD2 JUMPI PUSH0 DUP1 REVERT JUMPDEST POP CALLDATALOAD SWAP2 SWAP1 POP JUMP JUMPDEST DUP1 ISZERO ISZERO DUP2 EQ PUSH2 0xFC1 JUMPI PUSH0 DUP1 REVERT JUMPDEST PUSH0 DUP1 PUSH0 PUSH1 0x60 DUP5 DUP7 SUB SLT ISZERO PUSH2 0x2DF8 JUMPI PUSH0 DUP1 REVERT JUMPDEST DUP4 CALLDATALOAD SWAP3 POP PUSH1 0x20 DUP5 ADD CALLDATALOAD PUSH2 0x2E0A DUP2 PUSH2 0x2DD9 JUMP JUMPDEST SWAP2 POP PUSH1 0x40 DUP5 ADD CALLDATALOAD PUSH2 0x2E1A DUP2 PUSH2 0x2DD9 JUMP JUMPDEST DUP1 SWAP2 POP POP SWAP3 POP SWAP3 POP SWAP3 JUMP JUMPDEST PUSH4 0x4E487B71 PUSH1 0xE0 SHL PUSH0 MSTORE PUSH1 0x41 PUSH1 0x4 MSTORE PUSH1 0x24 PUSH0 REVERT JUMPDEST PUSH0 DUP1 PUSH1 0x40 DUP4 DUP6 SUB SLT ISZERO PUSH2 0x2E4A JUMPI PUSH0 DUP1 REVERT JUMPDEST PUSH2 0x2E53 DUP4 PUSH2 0x2D4D JUMP JUMPDEST SWAP2 POP PUSH1 0x20 DUP4 ADD CALLDATALOAD PUSH8 0xFFFFFFFFFFFFFFFF DUP1 DUP3 GT ISZERO PUSH2 0x2E6F JUMPI PUSH0 DUP1 REVERT JUMPDEST DUP2 DUP6 ADD SWAP2 POP DUP6 PUSH1 0x1F DUP4 ADD SLT PUSH2 0x2E82 JUMPI PUSH0 DUP1 REVERT JUMPDEST DUP2 CALLDATALOAD DUP2 DUP2 GT ISZERO PUSH2 0x2E94 JUMPI PUSH2 0x2E94 PUSH2 0x2E25 JUMP JUMPDEST PUSH1 0x40 MLOAD PUSH1 0x1F DUP3 ADD PUSH1 0x1F NOT SWAP1 DUP2 AND PUSH1 0x3F ADD AND DUP2 ADD SWAP1 DUP4 DUP3 GT DUP2 DUP4 LT OR ISZERO PUSH2 0x2EBC JUMPI PUSH2 0x2EBC PUSH2 0x2E25 JUMP JUMPDEST DUP2 PUSH1 0x40 MSTORE DUP3 DUP2 MSTORE DUP9 PUSH1 0x20 DUP5 DUP8 ADD ADD GT ISZERO PUSH2 0x2ED4 JUMPI PUSH0 DUP1 REVERT JUMPDEST DUP3 PUSH1 0x20 DUP7 ADD PUSH1 0x20 DUP4 ADD CALLDATACOPY PUSH0 PUSH1 0x20 DUP5 DUP4 ADD ADD MSTORE DUP1 SWAP6 POP POP POP POP POP POP SWAP3 POP SWAP3 SWAP1 POP JUMP JUMPDEST PUSH0 JUMPDEST DUP4 DUP2 LT ISZERO PUSH2 0x2F0F JUMPI DUP2 DUP2 ADD MLOAD DUP4 DUP3 ADD MSTORE PUSH1 0x20 ADD PUSH2 0x2EF7 JUMP JUMPDEST POP POP PUSH0 SWAP2 ADD MSTORE JUMP JUMPDEST PUSH0 DUP2 MLOAD DUP1 DUP5 MSTORE PUSH2 0x2F2E DUP2 PUSH1 0x20 DUP7 ADD PUSH1 0x20 DUP7 ADD PUSH2 0x2EF5 JUMP JUMPDEST PUSH1 0x1F ADD PUSH1 0x1F NOT AND SWAP3 SWAP1 SWAP3 ADD PUSH1 0x20 ADD SWAP3 SWAP2 POP POP JUMP JUMPDEST PUSH1 0x20 DUP2 MSTORE PUSH0 PUSH2 0xB00 PUSH1 0x20 DUP4 ADD DUP5 PUSH2 0x2F17 JUMP JUMPDEST PUSH0 PUSH1 0x20 DUP3 DUP5 SUB SLT ISZERO PUSH2 0x2F64 JUMPI PUSH0 DUP1 REVERT JUMPDEST PUSH2 0xB00 DUP3 PUSH2 0x2D4D JUMP JUMPDEST DUP2 MLOAD PUSH1 0x1 PUSH1 0x1 PUSH1 0xA0 SHL SUB AND DUP2 MSTORE PUSH2 0x140 DUP2 ADD PUSH1 0x20 DUP4 ADD MLOAD PUSH2 0x2F99 PUSH1 0x20 DUP5 ADD DUP3 PUSH1 0x1 PUSH1 0x1 PUSH1 0xA0 SHL SUB AND SWAP1 MSTORE JUMP JUMPDEST POP PUSH1 0x40 DUP4 ADD MLOAD PUSH1 0x40 DUP4 ADD MSTORE PUSH1 0x60 DUP4 ADD MLOAD PUSH1 0x60 DUP4 ADD MSTORE PUSH1 0x80 DUP4 ADD MLOAD PUSH1 0x80 DUP4 ADD MSTORE PUSH1 0xA0 DUP4 ADD MLOAD PUSH1 0xA0 DUP4 ADD MSTORE PUSH1 0xC0 DUP4 ADD MLOAD PUSH2 0x2FD5 PUSH1 0xC0 DUP5 ADD DUP3 ISZERO ISZERO SWAP1 MSTORE JUMP JUMPDEST POP PUSH1 0xE0 DUP4 ADD MLOAD PUSH2 0x2FE9 PUSH1 0xE0 DUP5 ADD DUP3 ISZERO ISZERO SWAP1 MSTORE JUMP JUMPDEST POP PUSH2 0x100 DUP4 DUP2 ADD MLOAD DUP1 ISZERO ISZERO DUP5 DUP4 ADD MSTORE POP POP PUSH2 0x120 SWAP3 DUP4 ADD MLOAD SWAP2 SWAP1 SWAP3 ADD MSTORE SWAP1 JUMP JUMPDEST PUSH4 0x4E487B71 PUSH1 0xE0 SHL PUSH0 MSTORE PUSH1 0x11 PUSH1 0x4 MSTORE PUSH1 0x24 PUSH0 REVERT JUMPDEST PUSH0 PUSH1 0x1 DUP3 ADD PUSH2 0x302E JUMPI PUSH2 0x302E PUSH2 0x3009 JUMP JUMPDEST POP PUSH1 0x1 ADD SWAP1 JUMP JUMPDEST PUSH0 PUSH1 0x20 DUP3 DUP5 SUB SLT ISZERO PUSH2 0x3045 JUMPI PUSH0 DUP1 REVERT JUMPDEST DUP2 MLOAD PUSH2 0xB00 DUP2 PUSH2 0x2DD9 JUMP JUMPDEST DUP1 DUP3 ADD DUP1 DUP3 GT ISZERO PUSH2 0x1A21 JUMPI PUSH2 0x1A21 PUSH2 0x3009 JUMP JUMPDEST DUP1 DUP3 MUL DUP2 ISZERO DUP3 DUP3 DIV DUP5 EQ OR PUSH2 0x1A21 JUMPI PUSH2 0x1A21 PUSH2 0x3009 JUMP JUMPDEST PUSH0 DUP3 PUSH2 0x3094 JUMPI PUSH4 0x4E487B71 PUSH1 0xE0 SHL PUSH0 MSTORE PUSH1 0x12 PUSH1 0x4 MSTORE PUSH1 0x24 PUSH0 REVERT JUMPDEST POP DIV SWAP1 JUMP JUMPDEST DUP2 DUP2 SUB DUP2 DUP2 GT ISZERO PUSH2 0x1A21 JUMPI PUSH2 0x1A21 PUSH2 0x3009 JUMP JUMPDEST DUP5 DUP2 MSTORE DUP4 PUSH1 0x20 DUP3 ADD MSTORE DUP3 PUSH1 0x40 DUP3 ADD MSTORE PUSH1 0x80 PUSH1 0x60 DUP3 ADD MSTORE PUSH0 PUSH2 0x30D0 PUSH1 0x80 DUP4 ADD DUP5 PUSH2 0x2F17 JUMP JUMPDEST SWAP7 SWAP6 POP POP POP POP POP POP JUMP JUMPDEST PUSH0 PUSH1 0x20 DUP3 DUP5 SUB SLT ISZERO PUSH2 0x30EA JUMPI PUSH0 DUP1 REVERT JUMPDEST POP MLOAD SWAP2 SWAP1 POP JUMP JUMPDEST PUSH0 DUP3 MLOAD PUSH2 0x3102 DUP2 DUP5 PUSH1 0x20 DUP8 ADD PUSH2 0x2EF5 JUMP JUMPDEST SWAP2 SWAP1 SWAP2 ADD SWAP3 SWAP2 POP POP JUMP INVALID LOG2 PUSH5 0x6970667358 0x22 SLT KECCAK256 DUP10 0xC1 DUP11 EXP 0xE 0xD6 ADD 0xDB 0xEE SWAP14 GASLIMIT 0xF6 SWAP2 NOT 0xC6 0x5C CALLDATALOAD SLOAD MUL 0xAB 0x1F STOP SWAP13 0xDB BALANCE PUSH6 0x449DEF58C432 PUSH5 0x736F6C6343 STOP ADDMOD AND STOP CALLER "},"methodIdentifiers":{"COMPASSION_REFUND_PERCENT()":"41ab3857","CONFIRMATION_WINDOW()":"86e2d5df","PLATFORM_FEE_PERCENT()":"560d52d4","UPGRADE_DELAY()":"47fe8b1d","UPGRADE_INTERFACE_VERSION()":"ad3cb1cc","acceptStake(uint256)":"81a4952e","cancelStake(uint256)":"d8de9480","cancelUpgrade()":"55f29166","confirmMeeting(uint256,bool,bool)":"4ed11ea5","confirmations(uint256,address)":"3411c81c","createStake(address,uint256,uint256)":"3c09cfc6","getConfirmation(uint256,address)":"d0192e37","getStake(uint256)":"ce325bf8","initialize(address)":"c4d66de8","owner()":"8da5cb5b","pendingImplementation()":"396f7b23","processExpiredStake(uint256)":"4e5548ce","proposeUpgrade(address)":"c915fc93","proxiableUUID()":"52d1902d","renounceOwnership()":"715018a6","stakeCounter()":"f7b17d10","stakes(uint256)":"d5a44f86","transferOwnership(address)":"f2fde38b","upgradeETA()":"67a9e64c","upgradeToAndCall(address,bytes)":"4f1ef286","usdc()":"3e413bee"}},"storageLayout":{"storage":[{"astId":1657,"contract":"contracts/Staking.sol:Staking","label":"usdc","offset":0,"slot":"0","type":"t_contract(IERC20)1232"},{"astId":1699,"contract":"contracts/Staking.sol:Staking","label":"stakes","offset":0,"slot":"1","type":"t_mapping(t_uint256,t_struct(Stake)1687_storage)"},{"astId":1706,"contract":"contracts/Staking.sol:Staking","label":"confirmations","offset":0,"slot":"2","type":"t_mapping(t_uint256,t_mapping(t_address,t_struct(MeetingConfirmation)1694_storage))"},{"astId":1708,"contract":"contracts/Staking.sol:Staking","label":"stakeCounter","offset":0,"slot":"3","type":"t_uint256"},{"astId":1713,"contract":"contracts/Staking.sol:Staking","label":"pendingImplementation","offset":0,"slot":"4","type":"t_address"},{"astId":1715,"contract":"contracts/Staking.sol:Staking","label":"upgradeETA","offset":0,"slot":"5","type":"t_uint256"}],"types":{"t_address":{"encoding":"inplace","label":"address","numberOfBytes":"20"},"t_bool":{"encoding":"inplace","label":"bool","numberOfBytes":"1"},"t_contract(IERC20)1232":{"encoding":"inplace","label":"contract IERC20","numberOfBytes":"20"},"t_mapping(t_address,t_struct(MeetingConfirmation)1694_storage)":{"encoding":"mapping","key":"t_address","label":"mapping(address => struct Staking.MeetingConfirmation)","numberOfBytes":"32","value":"t_struct(MeetingConfirmation)1694_storage"},"t_mapping(t_uint256,t_mapping(t_address,t_struct(MeetingConfirmation)1694_storage))":{"encoding":"mapping","key":"t_uint256","label":"mapping(uint256 => mapping(address => struct Staking.MeetingConfirmation))","numberOfBytes":"32","value":"t_mapping(t_address,t_struct(MeetingConfirmation)1694_storage)"},"t_mapping(t_uint256,t_struct(Stake)1687_storage)":{"encoding":"mapping","key":"t_uint256","label":"mapping(uint256 => struct Staking.Stake)","numberOfBytes":"32","value":"t_struct(Stake)1687_storage"},"t_struct(MeetingConfirmation)1694_storage":{"encoding":"inplace","label":"struct Staking.MeetingConfirmation","members":[{"astId":1689,"contract":"contracts/Staking.sol:Staking","label":"hasConfirmed","offset":0,"slot":"0","type":"t_bool"},{"astId":1691,"contract":"contracts/Staking.sol:Staking","label":"iShowedUp","offset":1,"slot":"0","type":"t_bool"},{"astId":1693,"contract":"contracts/Staking.sol:Staking","label":"theyShowedUp","offset":2,"slot":"0","type":"t_bool"}],"numberOfBytes":"32"},"t_struct(Stake)1687_storage":{"encoding":"inplace","label":"struct Staking.Stake","members":[{"astId":1668,"contract":"contracts/Staking.sol:Staking","label":"user1","offset":0,"slot":"0","type":"t_address"},{"astId":1670,"contract":"contracts/Staking.sol:Staking","label":"user2","offset":0,"slot":"1","type":"t_address"},{"astId":1672,"contract":"contracts/Staking.sol:Staking","label":"user1Amount","offset":0,"slot":"2","type":"t_uint256"},{"astId":1674,"contract":"contracts/Staking.sol:Staking","label":"user2Amount","offset":0,"slot":"3","type":"t_uint256"},{"astId":1676,"contract":"contracts/Staking.sol:Staking","label":"totalStaked","offset":0,"slot":"4","type":"t_uint256"},{"astId":1678,"contract":"contracts/Staking.sol:Staking","label":"meetingTime","offset":0,"slot":"5","type":"t_uint256"},{"astId":1680,"contract":"contracts/Staking.sol:Staking","label":"user1Staked","offset":0,"slot":"6","type":"t_bool"},{"astId":1682,"contract":"contracts/Staking.sol:Staking","label":"user2Staked","offset":1,"slot":"6","type":"t_bool"},{"astId":1684,"contract":"contracts/Staking.sol:Staking","label":"processed","offset":2,"slot":"6","type":"t_bool"},{"astId":1686,"contract":"contracts/Staking.sol:Staking","label":"createdAt","offset":0,"slot":"7","type":"t_uint256"}],"numberOfBytes":"256"},"t_uint256":{"encoding":"inplace","label":"uint256","numberOfBytes":"32"}}}}}}