{"contracts/Matching.sol":{"Matching":{"abi":[{"inputs":[{"internalType":"address","name":"_profileNFT","type":"address"}],"stateMutability":"nonpayable","type":"constructor"},{"anonymous":false,"inputs":[{"indexed":true,"internalType":"address","name":"from","type":"address"},{"indexed":true,"internalType":"address","name":"to","type":"address"}],"name":"InterestExpressed","type":"event"},{"anonymous":false,"inputs":[{"indexed":true,"internalType":"address","name":"user1","type":"address"},{"indexed":true,"internalType":"address","name":"user2","type":"address"},{"indexed":false,"internalType":"uint256","name":"matchId","type":"uint256"}],"name":"MatchCreated","type":"event"},{"anonymous":false,"inputs":[{"indexed":true,"internalType":"address","name":"user","type":"address"},{"indexed":false,"internalType":"uint256","name":"matchesCleared","type":"uint256"}],"name":"ProfileDeleted","type":"event"},{"inputs":[{"internalType":"address","name":"targetUser","type":"address"}],"name":"expressInterest","outputs":[],"stateMutability":"nonpayable","type":"function"},{"inputs":[{"internalType":"address","name":"user","type":"address"}],"name":"getMatches","outputs":[{"internalType":"address[]","name":"","type":"address[]"}],"stateMutability":"view","type":"function"},{"inputs":[{"internalType":"address","name":"from","type":"address"},{"internalType":"address","name":"to","type":"address"}],"name":"hasExpressedInterest","outputs":[{"internalType":"bool","name":"","type":"bool"}],"stateMutability":"view","type":"function"},{"inputs":[{"internalType":"address","name":"","type":"address"},{"internalType":"address","name":"","type":"address"}],"name":"interests","outputs":[{"internalType":"bool","name":"","type":"bool"}],"stateMutability":"view","type":"function"},{"inputs":[{"internalType":"address","name":"","type":"address"},{"internalType":"address","name":"","type":"address"}],"name":"isMatched","outputs":[{"internalType":"bool","name":"","type":"bool"}],"stateMutability":"view","type":"function"},{"inputs":[{"internalType":"address","name":"deletedUser","type":"address"}],"name":"notifyProfileDeleted","outputs":[],"stateMutability":"nonpayable","type":"function"},{"inputs":[],"name":"profileNFT","outputs":[{"internalType":"contract IProfileNFT","name":"","type":"address"}],"stateMutability":"view","type":"function"},{"inputs":[],"name":"profileNFTContract","outputs":[{"internalType":"address","name":"","type":"address"}],"stateMutability":"view","type":"function"},{"inputs":[{"internalType":"address","name":"","type":"address"},{"internalType":"uint256","name":"","type":"uint256"}],"name":"userMatches","outputs":[{"internalType":"address","name":"","type":"address"}],"stateMutability":"view","type":"function"}],"evm":{"bytecode":{"linkReferences":{},"object":"608060405234801561001057600080fd5b50604051610ca6380380610ca683398101604081905261002f9161005e565b600080546001600160a01b039092166001600160a01b031992831681179091556001805490921617905561008e565b60006020828403121561007057600080fd5b81516001600160a01b038116811461008757600080fd5b9392505050565b610c098061009d6000396000f3fe608060405234801561001057600080fd5b50600436106100a35760003560e01c8063949675e911610076578063b9eb69f61161005b578063b9eb69f614610171578063f569f82f1461019f578063fd7fef9c146101b257600080fd5b8063949675e914610130578063a5b748751461014357600080fd5b80630fe3d326146100a85780633442d374146100d05780634e55427f146100e55780637779577814610110575b600080fd5b6100bb6100b6366004610a77565b6101c5565b60405190151581526020015b60405180910390f35b6100e36100de366004610aaa565b6101f5565b005b6001546100f8906001600160a01b031681565b6040516001600160a01b0390911681526020016100c7565b61012361011e366004610aaa565b610561565b6040516100c79190610acc565b6000546100f8906001600160a01b031681565b6100bb610151366004610a77565b600560209081526000928352604080842090915290825290205460ff1681565b6100bb61017f366004610a77565b600360209081526000928352604080842090915290825290205460ff1681565b6100e36101ad366004610aaa565b6105d7565b6100f86101c0366004610b19565b6107cd565b6001600160a01b0380831660009081526003602090815260408083209385168352929052205460ff165b92915050565b6001600160a01b03811633036102785760405162461bcd60e51b815260206004820152602360248201527f43616e6e6f74206578707265737320696e74657265737420696e20796f75727360448201527f656c66000000000000000000000000000000000000000000000000000000000060648201526084015b60405180910390fd5b6000546040516305cfa06f60e01b81523360048201526001600160a01b03909116906305cfa06f90602401602060405180830381865afa1580156102c0573d6000803e3d6000fd5b505050506040513d601f19601f820116820180604052508101906102e49190610b43565b6103305760405162461bcd60e51b815260206004820152601d60248201527f53656e6465722070726f66696c6520646f6573206e6f74206578697374000000604482015260640161026f565b6000546040516305cfa06f60e01b81526001600160a01b038381166004830152909116906305cfa06f90602401602060405180830381865afa15801561037a573d6000803e3d6000fd5b505050506040513d601f19601f8201168201806040525081019061039e9190610b43565b6103ea5760405162461bcd60e51b815260206004820152601d60248201527f5461726765742070726f66696c6520646f6573206e6f74206578697374000000604482015260640161026f565b3360009081526003602090815260408083206001600160a01b038516845290915290205460ff161561045e5760405162461bcd60e51b815260206004820152601a60248201527f416c72656164792065787072657373656420696e746572657374000000000000604482015260640161026f565b3360009081526005602090815260408083206001600160a01b038516845290915290205460ff16156104d25760405162461bcd60e51b815260206004820152600f60248201527f416c7265616479206d6174636865640000000000000000000000000000000000604482015260640161026f565b3360008181526003602090815260408083206001600160a01b0386168085529252808320805460ff19166001179055519092917fc56874b4f38eef16fc70b90012a49f0dc1e695cd837f1c58dbadbb7d21ac991091a36001600160a01b038116600090815260036020908152604080832033845290915290205460ff161561055e5761055e3382610805565b50565b6001600160a01b0381166000908152600460209081526040918290208054835181840281018401909452808452606093928301828280156105cb57602002820191906000526020600020905b81546001600160a01b031681526001909101906020018083116105ad575b50505050509050919050565b6001546001600160a01b031633146106315760405162461bcd60e51b815260206004820152601d60248201527f4f6e6c792050726f66696c654e46542063616e2063616c6c2074686973000000604482015260640161026f565b6001600160a01b03811660009081526004602090815260408083208054825181850281018501909352808352919290919083018282801561069b57602002820191906000526020600020905b81546001600160a01b0316815260019091019060200180831161067d575b505083519394506000925050505b818110156107635760008382815181106106c5576106c5610b65565b6020908102919091018101516001600160a01b03808816600081815260058086526040808320948616808452948752808320805460ff19908116909155918752808320848452875280832080548316905560038088528184209584529487528083208054831690559386528382209282529190945292208054909216909155905061075081866108f7565b508061075b81610b91565b9150506106a9565b506001600160a01b038316600090815260046020526040812061078591610a29565b826001600160a01b03167f236eb7515b00733d8ade7456155d53d63c2fa66bec6437ddff6ab3fc71e1e324826040516107c091815260200190565b60405180910390a2505050565b600460205281600052604060002081815481106107e957600080fd5b6000918252602090912001546001600160a01b03169150829050565b6002805490600061081583610b91565b90915550506002546001600160a01b03838116600081815260046020908152604080832080546001808201835591855283852001805473ffffffffffffffffffffffffffffffffffffffff19908116978a16978817909155868552828520805480840182559086528486200180549091168617905584845260058084528285208786528452828520805460ff19908116841790915590845282852086865284529382902080549094161790925590518481527fab8add8f62f43e57de17a59ddf8165cdae8775f9a896edbc3f82cc10883f023a910160405180910390a3505050565b6001600160a01b0382166000908152600460205260408120805490915b81811015610a2257836001600160a01b031683828154811061093857610938610b65565b6000918252602090912001546001600160a01b031603610a10578261095e600184610baa565b8154811061096e5761096e610b65565b9060005260206000200160009054906101000a90046001600160a01b031683828154811061099e5761099e610b65565b9060005260206000200160006101000a8154816001600160a01b0302191690836001600160a01b03160217905550828054806109dc576109dc610bbd565b6000828152602090208101600019908101805473ffffffffffffffffffffffffffffffffffffffff19169055019055610a22565b80610a1a81610b91565b915050610914565b5050505050565b508054600082559060005260206000209081019061055e91905b80821115610a575760008155600101610a43565b5090565b80356001600160a01b0381168114610a7257600080fd5b919050565b60008060408385031215610a8a57600080fd5b610a9383610a5b565b9150610aa160208401610a5b565b90509250929050565b600060208284031215610abc57600080fd5b610ac582610a5b565b9392505050565b6020808252825182820181905260009190848201906040850190845b81811015610b0d5783516001600160a01b031683529284019291840191600101610ae8565b50909695505050505050565b60008060408385031215610b2c57600080fd5b610b3583610a5b565b946020939093013593505050565b600060208284031215610b5557600080fd5b81518015158114610ac557600080fd5b634e487b7160e01b600052603260045260246000fd5b634e487b7160e01b600052601160045260246000fd5b600060018201610ba357610ba3610b7b565b5060010190565b818103818111156101ef576101ef610b7b565b634e487b7160e01b600052603160045260246000fdfea2646970667358221220c23a776451c2a183d091c64d32562c40622c8d91f49f201e34836cc2945bc84264736f6c63430008140033","opcodes":"PUSH1 0x80 PUSH1 0x40 MSTORE CALLVALUE DUP1 ISZERO PUSH2 0x10 JUMPI PUSH1 0x0 DUP1 REVERT JUMPDEST POP PUSH1 0x40 MLOAD PUSH2 0xCA6 CODESIZE SUB DUP1 PUSH2 0xCA6 DUP4 CODECOPY DUP2 ADD PUSH1 0x40 DUP2 SWAP1 MSTORE PUSH2 0x2F SWAP2 PUSH2 0x5E JUMP JUMPDEST PUSH1 0x0 DUP1 SLOAD PUSH1 0x1 PUSH1 0x1 PUSH1 0xA0 SHL SUB SWAP1 SWAP3 AND PUSH1 0x1 PUSH1 0x1 PUSH1 0xA0 SHL SUB NOT SWAP3 DUP4 AND DUP2 OR SWAP1 SWAP2 SSTORE PUSH1 0x1 DUP1 SLOAD SWAP1 SWAP3 AND OR SWAP1 SSTORE PUSH2 0x8E JUMP JUMPDEST PUSH1 0x0 PUSH1 0x20 DUP3 DUP5 SUB SLT ISZERO PUSH2 0x70 JUMPI PUSH1 0x0 DUP1 REVERT JUMPDEST DUP2 MLOAD PUSH1 0x1 PUSH1 0x1 PUSH1 0xA0 SHL SUB DUP2 AND DUP2 EQ PUSH2 0x87 JUMPI PUSH1 0x0 DUP1 REVERT JUMPDEST SWAP4 SWAP3 POP POP POP JUMP JUMPDEST PUSH2 0xC09 DUP1 PUSH2 0x9D PUSH1 0x0 CODECOPY PUSH1 0x0 RETURN INVALID PUSH1 0x80 PUSH1 0x40 MSTORE CALLVALUE DUP1 ISZERO PUSH2 0x10 JUMPI PUSH1 0x0 DUP1 REVERT JUMPDEST POP PUSH1 0x4 CALLDATASIZE LT PUSH2 0xA3 JUMPI PUSH1 0x0 CALLDATALOAD PUSH1 0xE0 SHR DUP1 PUSH4 0x949675E9 GT PUSH2 0x76 JUMPI DUP1 PUSH4 0xB9EB69F6 GT PUSH2 0x5B JUMPI DUP1 PUSH4 0xB9EB69F6 EQ PUSH2 0x171 JUMPI DUP1 PUSH4 0xF569F82F EQ PUSH2 0x19F JUMPI DUP1 PUSH4 0xFD7FEF9C EQ PUSH2 0x1B2 JUMPI PUSH1 0x0 DUP1 REVERT JUMPDEST DUP1 PUSH4 0x949675E9 EQ PUSH2 0x130 JUMPI DUP1 PUSH4 0xA5B74875 EQ PUSH2 0x143 JUMPI PUSH1 0x0 DUP1 REVERT JUMPDEST DUP1 PUSH4 0xFE3D326 EQ PUSH2 0xA8 JUMPI DUP1 PUSH4 0x3442D374 EQ PUSH2 0xD0 JUMPI DUP1 PUSH4 0x4E55427F EQ PUSH2 0xE5 JUMPI DUP1 PUSH4 0x77795778 EQ PUSH2 0x110 JUMPI JUMPDEST PUSH1 0x0 DUP1 REVERT JUMPDEST PUSH2 0xBB PUSH2 0xB6 CALLDATASIZE PUSH1 0x4 PUSH2 0xA77 JUMP JUMPDEST PUSH2 0x1C5 JUMP JUMPDEST PUSH1 0x40 MLOAD SWAP1 ISZERO ISZERO DUP2 MSTORE PUSH1 0x20 ADD JUMPDEST PUSH1 0x40 MLOAD DUP1 SWAP2 SUB SWAP1 RETURN JUMPDEST PUSH2 0xE3 PUSH2 0xDE CALLDATASIZE PUSH1 0x4 PUSH2 0xAAA JUMP JUMPDEST PUSH2 0x1F5 JUMP JUMPDEST STOP JUMPDEST PUSH1 0x1 SLOAD PUSH2 0xF8 SWAP1 PUSH1 0x1 PUSH1 0x1 PUSH1 0xA0 SHL SUB AND DUP2 JUMP JUMPDEST PUSH1 0x40 MLOAD PUSH1 0x1 PUSH1 0x1 PUSH1 0xA0 SHL SUB SWAP1 SWAP2 AND DUP2 MSTORE PUSH1 0x20 ADD PUSH2 0xC7 JUMP JUMPDEST PUSH2 0x123 PUSH2 0x11E CALLDATASIZE PUSH1 0x4 PUSH2 0xAAA JUMP JUMPDEST PUSH2 0x561 JUMP JUMPDEST PUSH1 0x40 MLOAD PUSH2 0xC7 SWAP2 SWAP1 PUSH2 0xACC JUMP JUMPDEST PUSH1 0x0 SLOAD PUSH2 0xF8 SWAP1 PUSH1 0x1 PUSH1 0x1 PUSH1 0xA0 SHL SUB AND DUP2 JUMP JUMPDEST PUSH2 0xBB PUSH2 0x151 CALLDATASIZE PUSH1 0x4 PUSH2 0xA77 JUMP JUMPDEST PUSH1 0x5 PUSH1 0x20 SWAP1 DUP2 MSTORE PUSH1 0x0 SWAP3 DUP4 MSTORE PUSH1 0x40 DUP1 DUP5 KECCAK256 SWAP1 SWAP2 MSTORE SWAP1 DUP3 MSTORE SWAP1 KECCAK256 SLOAD PUSH1 0xFF AND DUP2 JUMP JUMPDEST PUSH2 0xBB PUSH2 0x17F CALLDATASIZE PUSH1 0x4 PUSH2 0xA77 JUMP JUMPDEST PUSH1 0x3 PUSH1 0x20 SWAP1 DUP2 MSTORE PUSH1 0x0 SWAP3 DUP4 MSTORE PUSH1 0x40 DUP1 DUP5 KECCAK256 SWAP1 SWAP2 MSTORE SWAP1 DUP3 MSTORE SWAP1 KECCAK256 SLOAD PUSH1 0xFF AND DUP2 JUMP JUMPDEST PUSH2 0xE3 PUSH2 0x1AD CALLDATASIZE PUSH1 0x4 PUSH2 0xAAA JUMP JUMPDEST PUSH2 0x5D7 JUMP JUMPDEST PUSH2 0xF8 PUSH2 0x1C0 CALLDATASIZE PUSH1 0x4 PUSH2 0xB19 JUMP JUMPDEST PUSH2 0x7CD JUMP JUMPDEST PUSH1 0x1 PUSH1 0x1 PUSH1 0xA0 SHL SUB DUP1 DUP4 AND PUSH1 0x0 SWAP1 DUP2 MSTORE PUSH1 0x3 PUSH1 0x20 SWAP1 DUP2 MSTORE PUSH1 0x40 DUP1 DUP4 KECCAK256 SWAP4 DUP6 AND DUP4 MSTORE SWAP3 SWAP1 MSTORE KECCAK256 SLOAD PUSH1 0xFF AND JUMPDEST SWAP3 SWAP2 POP POP JUMP JUMPDEST PUSH1 0x1 PUSH1 0x1 PUSH1 0xA0 SHL SUB DUP2 AND CALLER SUB PUSH2 0x278 JUMPI PUSH1 0x40 MLOAD PUSH3 0x461BCD PUSH1 0xE5 SHL DUP2 MSTORE PUSH1 0x20 PUSH1 0x4 DUP3 ADD MSTORE PUSH1 0x23 PUSH1 0x24 DUP3 ADD MSTORE PUSH32 0x43616E6E6F74206578707265737320696E74657265737420696E20796F757273 PUSH1 0x44 DUP3 ADD MSTORE PUSH32 0x656C660000000000000000000000000000000000000000000000000000000000 PUSH1 0x64 DUP3 ADD MSTORE PUSH1 0x84 ADD JUMPDEST PUSH1 0x40 MLOAD DUP1 SWAP2 SUB SWAP1 REVERT JUMPDEST PUSH1 0x0 SLOAD PUSH1 0x40 MLOAD PUSH4 0x5CFA06F PUSH1 0xE0 SHL DUP2 MSTORE CALLER PUSH1 0x4 DUP3 ADD MSTORE PUSH1 0x1 PUSH1 0x1 PUSH1 0xA0 SHL SUB SWAP1 SWAP2 AND SWAP1 PUSH4 0x5CFA06F SWAP1 PUSH1 0x24 ADD PUSH1 0x20 PUSH1 0x40 MLOAD DUP1 DUP4 SUB DUP2 DUP7 GAS STATICCALL ISZERO DUP1 ISZERO PUSH2 0x2C0 JUMPI RETURNDATASIZE PUSH1 0x0 DUP1 RETURNDATACOPY RETURNDATASIZE PUSH1 0x0 REVERT JUMPDEST POP POP POP POP PUSH1 0x40 MLOAD RETURNDATASIZE PUSH1 0x1F NOT PUSH1 0x1F DUP3 ADD AND DUP3 ADD DUP1 PUSH1 0x40 MSTORE POP DUP2 ADD SWAP1 PUSH2 0x2E4 SWAP2 SWAP1 PUSH2 0xB43 JUMP JUMPDEST PUSH2 0x330 JUMPI PUSH1 0x40 MLOAD PUSH3 0x461BCD PUSH1 0xE5 SHL DUP2 MSTORE PUSH1 0x20 PUSH1 0x4 DUP3 ADD MSTORE PUSH1 0x1D PUSH1 0x24 DUP3 ADD MSTORE PUSH32 0x53656E6465722070726F66696C6520646F6573206E6F74206578697374000000 PUSH1 0x44 DUP3 ADD MSTORE PUSH1 0x64 ADD PUSH2 0x26F JUMP JUMPDEST PUSH1 0x0 SLOAD PUSH1 0x40 MLOAD PUSH4 0x5CFA06F PUSH1 0xE0 SHL DUP2 MSTORE PUSH1 0x1 PUSH1 0x1 PUSH1 0xA0 SHL SUB DUP4 DUP2 AND PUSH1 0x4 DUP4 ADD MSTORE SWAP1 SWAP2 AND SWAP1 PUSH4 0x5CFA06F SWAP1 PUSH1 0x24 ADD PUSH1 0x20 PUSH1 0x40 MLOAD DUP1 DUP4 SUB DUP2 DUP7 GAS STATICCALL ISZERO DUP1 ISZERO PUSH2 0x37A JUMPI RETURNDATASIZE PUSH1 0x0 DUP1 RETURNDATACOPY RETURNDATASIZE PUSH1 0x0 REVERT JUMPDEST POP POP POP POP PUSH1 0x40 MLOAD RETURNDATASIZE PUSH1 0x1F NOT PUSH1 0x1F DUP3 ADD AND DUP3 ADD DUP1 PUSH1 0x40 MSTORE POP DUP2 ADD SWAP1 PUSH2 0x39E SWAP2 SWAP1 PUSH2 0xB43 JUMP JUMPDEST PUSH2 0x3EA JUMPI PUSH1 0x40 MLOAD PUSH3 0x461BCD PUSH1 0xE5 SHL DUP2 MSTORE PUSH1 0x20 PUSH1 0x4 DUP3 ADD MSTORE PUSH1 0x1D PUSH1 0x24 DUP3 ADD MSTORE PUSH32 0x5461726765742070726F66696C6520646F6573206E6F74206578697374000000 PUSH1 0x44 DUP3 ADD MSTORE PUSH1 0x64 ADD PUSH2 0x26F JUMP JUMPDEST CALLER PUSH1 0x0 SWAP1 DUP2 MSTORE PUSH1 0x3 PUSH1 0x20 SWAP1 DUP2 MSTORE PUSH1 0x40 DUP1 DUP4 KECCAK256 PUSH1 0x1 PUSH1 0x1 PUSH1 0xA0 SHL SUB DUP6 AND DUP5 MSTORE SWAP1 SWAP2 MSTORE SWAP1 KECCAK256 SLOAD PUSH1 0xFF AND ISZERO PUSH2 0x45E JUMPI PUSH1 0x40 MLOAD PUSH3 0x461BCD PUSH1 0xE5 SHL DUP2 MSTORE PUSH1 0x20 PUSH1 0x4 DUP3 ADD MSTORE PUSH1 0x1A PUSH1 0x24 DUP3 ADD MSTORE PUSH32 0x416C72656164792065787072657373656420696E746572657374000000000000 PUSH1 0x44 DUP3 ADD MSTORE PUSH1 0x64 ADD PUSH2 0x26F JUMP JUMPDEST CALLER PUSH1 0x0 SWAP1 DUP2 MSTORE PUSH1 0x5 PUSH1 0x20 SWAP1 DUP2 MSTORE PUSH1 0x40 DUP1 DUP4 KECCAK256 PUSH1 0x1 PUSH1 0x1 PUSH1 0xA0 SHL SUB DUP6 AND DUP5 MSTORE SWAP1 SWAP2 MSTORE SWAP1 KECCAK256 SLOAD PUSH1 0xFF AND ISZERO PUSH2 0x4D2 JUMPI PUSH1 0x40 MLOAD PUSH3 0x461BCD PUSH1 0xE5 SHL DUP2 MSTORE PUSH1 0x20 PUSH1 0x4 DUP3 ADD MSTORE PUSH1 0xF PUSH1 0x24 DUP3 ADD MSTORE PUSH32 0x416C7265616479206D6174636865640000000000000000000000000000000000 PUSH1 0x44 DUP3 ADD MSTORE PUSH1 0x64 ADD PUSH2 0x26F JUMP JUMPDEST CALLER PUSH1 0x0 DUP2 DUP2 MSTORE PUSH1 0x3 PUSH1 0x20 SWAP1 DUP2 MSTORE PUSH1 0x40 DUP1 DUP4 KECCAK256 PUSH1 0x1 PUSH1 0x1 PUSH1 0xA0 SHL SUB DUP7 AND DUP1 DUP6 MSTORE SWAP3 MSTORE DUP1 DUP4 KECCAK256 DUP1 SLOAD PUSH1 0xFF NOT AND PUSH1 0x1 OR SWAP1 SSTORE MLOAD SWAP1 SWAP3 SWAP2 PUSH32 0xC56874B4F38EEF16FC70B90012A49F0DC1E695CD837F1C58DBADBB7D21AC9910 SWAP2 LOG3 PUSH1 0x1 PUSH1 0x1 PUSH1 0xA0 SHL SUB DUP2 AND PUSH1 0x0 SWAP1 DUP2 MSTORE PUSH1 0x3 PUSH1 0x20 SWAP1 DUP2 MSTORE PUSH1 0x40 DUP1 DUP4 KECCAK256 CALLER DUP5 MSTORE SWAP1 SWAP2 MSTORE SWAP1 KECCAK256 SLOAD PUSH1 0xFF AND ISZERO PUSH2 0x55E JUMPI PUSH2 0x55E CALLER DUP3 PUSH2 0x805 JUMP JUMPDEST POP JUMP JUMPDEST PUSH1 0x1 PUSH1 0x1 PUSH1 0xA0 SHL SUB DUP2 AND PUSH1 0x0 SWAP1 DUP2 MSTORE PUSH1 0x4 PUSH1 0x20 SWAP1 DUP2 MSTORE PUSH1 0x40 SWAP2 DUP3 SWAP1 KECCAK256 DUP1 SLOAD DUP4 MLOAD DUP2 DUP5 MUL DUP2 ADD DUP5 ADD SWAP1 SWAP5 MSTORE DUP1 DUP5 MSTORE PUSH1 0x60 SWAP4 SWAP3 DUP4 ADD DUP3 DUP3 DUP1 ISZERO PUSH2 0x5CB JUMPI PUSH1 0x20 MUL DUP3 ADD SWAP2 SWAP1 PUSH1 0x0 MSTORE PUSH1 0x20 PUSH1 0x0 KECCAK256 SWAP1 JUMPDEST DUP2 SLOAD PUSH1 0x1 PUSH1 0x1 PUSH1 0xA0 SHL SUB AND DUP2 MSTORE PUSH1 0x1 SWAP1 SWAP2 ADD SWAP1 PUSH1 0x20 ADD DUP1 DUP4 GT PUSH2 0x5AD JUMPI JUMPDEST POP POP POP POP POP SWAP1 POP SWAP2 SWAP1 POP JUMP JUMPDEST PUSH1 0x1 SLOAD PUSH1 0x1 PUSH1 0x1 PUSH1 0xA0 SHL SUB AND CALLER EQ PUSH2 0x631 JUMPI PUSH1 0x40 MLOAD PUSH3 0x461BCD PUSH1 0xE5 SHL DUP2 MSTORE PUSH1 0x20 PUSH1 0x4 DUP3 ADD MSTORE PUSH1 0x1D PUSH1 0x24 DUP3 ADD MSTORE PUSH32 0x4F6E6C792050726F66696C654E46542063616E2063616C6C2074686973000000 PUSH1 0x44 DUP3 ADD MSTORE PUSH1 0x64 ADD PUSH2 0x26F JUMP JUMPDEST PUSH1 0x1 PUSH1 0x1 PUSH1 0xA0 SHL SUB DUP2 AND PUSH1 0x0 SWAP1 DUP2 MSTORE PUSH1 0x4 PUSH1 0x20 SWAP1 DUP2 MSTORE PUSH1 0x40 DUP1 DUP4 KECCAK256 DUP1 SLOAD DUP3 MLOAD DUP2 DUP6 MUL DUP2 ADD DUP6 ADD SWAP1 SWAP4 MSTORE DUP1 DUP4 MSTORE SWAP2 SWAP3 SWAP1 SWAP2 SWAP1 DUP4 ADD DUP3 DUP3 DUP1 ISZERO PUSH2 0x69B JUMPI PUSH1 0x20 MUL DUP3 ADD SWAP2 SWAP1 PUSH1 0x0 MSTORE PUSH1 0x20 PUSH1 0x0 KECCAK256 SWAP1 JUMPDEST DUP2 SLOAD PUSH1 0x1 PUSH1 0x1 PUSH1 0xA0 SHL SUB AND DUP2 MSTORE PUSH1 0x1 SWAP1 SWAP2 ADD SWAP1 PUSH1 0x20 ADD DUP1 DUP4 GT PUSH2 0x67D JUMPI JUMPDEST POP POP DUP4 MLOAD SWAP4 SWAP5 POP PUSH1 0x0 SWAP3 POP POP POP JUMPDEST DUP2 DUP2 LT ISZERO PUSH2 0x763 JUMPI PUSH1 0x0 DUP4 DUP3 DUP2 MLOAD DUP2 LT PUSH2 0x6C5 JUMPI PUSH2 0x6C5 PUSH2 0xB65 JUMP JUMPDEST PUSH1 0x20 SWAP1 DUP2 MUL SWAP2 SWAP1 SWAP2 ADD DUP2 ADD MLOAD PUSH1 0x1 PUSH1 0x1 PUSH1 0xA0 SHL SUB DUP1 DUP9 AND PUSH1 0x0 DUP2 DUP2 MSTORE PUSH1 0x5 DUP1 DUP7 MSTORE PUSH1 0x40 DUP1 DUP4 KECCAK256 SWAP5 DUP7 AND DUP1 DUP5 MSTORE SWAP5 DUP8 MSTORE DUP1 DUP4 KECCAK256 DUP1 SLOAD PUSH1 0xFF NOT SWAP1 DUP2 AND SWAP1 SWAP2 SSTORE SWAP2 DUP8 MSTORE DUP1 DUP4 KECCAK256 DUP5 DUP5 MSTORE DUP8 MSTORE DUP1 DUP4 KECCAK256 DUP1 SLOAD DUP4 AND SWAP1 SSTORE PUSH1 0x3 DUP1 DUP9 MSTORE DUP2 DUP5 KECCAK256 SWAP6 DUP5 MSTORE SWAP5 DUP8 MSTORE DUP1 DUP4 KECCAK256 DUP1 SLOAD DUP4 AND SWAP1 SSTORE SWAP4 DUP7 MSTORE DUP4 DUP3 KECCAK256 SWAP3 DUP3 MSTORE SWAP2 SWAP1 SWAP5 MSTORE SWAP3 KECCAK256 DUP1 SLOAD SWAP1 SWAP3 AND SWAP1 SWAP2 SSTORE SWAP1 POP PUSH2 0x750 DUP2 DUP7 PUSH2 0x8F7 JUMP JUMPDEST POP DUP1 PUSH2 0x75B DUP2 PUSH2 0xB91 JUMP JUMPDEST SWAP2 POP POP PUSH2 0x6A9 JUMP JUMPDEST POP PUSH1 0x1 PUSH1 0x1 PUSH1 0xA0 SHL SUB DUP4 AND PUSH1 0x0 SWAP1 DUP2 MSTORE PUSH1 0x4 PUSH1 0x20 MSTORE PUSH1 0x40 DUP2 KECCAK256 PUSH2 0x785 SWAP2 PUSH2 0xA29 JUMP JUMPDEST DUP3 PUSH1 0x1 PUSH1 0x1 PUSH1 0xA0 SHL SUB AND PUSH32 0x236EB7515B00733D8ADE7456155D53D63C2FA66BEC6437DDFF6AB3FC71E1E324 DUP3 PUSH1 0x40 MLOAD PUSH2 0x7C0 SWAP2 DUP2 MSTORE PUSH1 0x20 ADD SWAP1 JUMP JUMPDEST PUSH1 0x40 MLOAD DUP1 SWAP2 SUB SWAP1 LOG2 POP POP POP JUMP JUMPDEST PUSH1 0x4 PUSH1 0x20 MSTORE DUP2 PUSH1 0x0 MSTORE PUSH1 0x40 PUSH1 0x0 KECCAK256 DUP2 DUP2 SLOAD DUP2 LT PUSH2 0x7E9 JUMPI PUSH1 0x0 DUP1 REVERT JUMPDEST PUSH1 0x0 SWAP2 DUP3 MSTORE PUSH1 0x20 SWAP1 SWAP2 KECCAK256 ADD SLOAD PUSH1 0x1 PUSH1 0x1 PUSH1 0xA0 SHL SUB AND SWAP2 POP DUP3 SWAP1 POP JUMP JUMPDEST PUSH1 0x2 DUP1 SLOAD SWAP1 PUSH1 0x0 PUSH2 0x815 DUP4 PUSH2 0xB91 JUMP JUMPDEST SWAP1 SWAP2 SSTORE POP POP PUSH1 0x2 SLOAD PUSH1 0x1 PUSH1 0x1 PUSH1 0xA0 SHL SUB DUP4 DUP2 AND PUSH1 0x0 DUP2 DUP2 MSTORE PUSH1 0x4 PUSH1 0x20 SWAP1 DUP2 MSTORE PUSH1 0x40 DUP1 DUP4 KECCAK256 DUP1 SLOAD PUSH1 0x1 DUP1 DUP3 ADD DUP4 SSTORE SWAP2 DUP6 MSTORE DUP4 DUP6 KECCAK256 ADD DUP1 SLOAD PUSH20 0xFFFFFFFFFFFFFFFFFFFFFFFFFFFFFFFFFFFFFFFF NOT SWAP1 DUP2 AND SWAP8 DUP11 AND SWAP8 DUP9 OR SWAP1 SWAP2 SSTORE DUP7 DUP6 MSTORE DUP3 DUP6 KECCAK256 DUP1 SLOAD DUP1 DUP5 ADD DUP3 SSTORE SWAP1 DUP7 MSTORE DUP5 DUP7 KECCAK256 ADD DUP1 SLOAD SWAP1 SWAP2 AND DUP7 OR SWAP1 SSTORE DUP5 DUP5 MSTORE PUSH1 0x5 DUP1 DUP5 MSTORE DUP3 DUP6 KECCAK256 DUP8 DUP7 MSTORE DUP5 MSTORE DUP3 DUP6 KECCAK256 DUP1 SLOAD PUSH1 0xFF NOT SWAP1 DUP2 AND DUP5 OR SWAP1 SWAP2 SSTORE SWAP1 DUP5 MSTORE DUP3 DUP6 KECCAK256 DUP7 DUP7 MSTORE DUP5 MSTORE SWAP4 DUP3 SWAP1 KECCAK256 DUP1 SLOAD SWAP1 SWAP5 AND OR SWAP1 SWAP3 SSTORE SWAP1 MLOAD DUP5 DUP2 MSTORE PUSH32 0xAB8ADD8F62F43E57DE17A59DDF8165CDAE8775F9A896EDBC3F82CC10883F023A SWAP2 ADD PUSH1 0x40 MLOAD DUP1 SWAP2 SUB SWAP1 LOG3 POP POP POP JUMP JUMPDEST PUSH1 0x1 PUSH1 0x1 PUSH1 0xA0 SHL SUB DUP3 AND PUSH1 0x0 SWAP1 DUP2 MSTORE PUSH1 0x4 PUSH1 0x20 MSTORE PUSH1 0x40 DUP2 KECCAK256 DUP1 SLOAD SWAP1 SWAP2 JUMPDEST DUP2 DUP2 LT ISZERO PUSH2 0xA22 JUMPI DUP4 PUSH1 0x1 PUSH1 0x1 PUSH1 0xA0 SHL SUB AND DUP4 DUP3 DUP2 SLOAD DUP2 LT PUSH2 0x938 JUMPI PUSH2 0x938 PUSH2 0xB65 JUMP JUMPDEST PUSH1 0x0 SWAP2 DUP3 MSTORE PUSH1 0x20 SWAP1 SWAP2 KECCAK256 ADD SLOAD PUSH1 0x1 PUSH1 0x1 PUSH1 0xA0 SHL SUB AND SUB PUSH2 0xA10 JUMPI DUP3 PUSH2 0x95E PUSH1 0x1 DUP5 PUSH2 0xBAA JUMP JUMPDEST DUP2 SLOAD DUP2 LT PUSH2 0x96E JUMPI PUSH2 0x96E PUSH2 0xB65 JUMP JUMPDEST SWAP1 PUSH1 0x0 MSTORE PUSH1 0x20 PUSH1 0x0 KECCAK256 ADD PUSH1 0x0 SWAP1 SLOAD SWAP1 PUSH2 0x100 EXP SWAP1 DIV PUSH1 0x1 PUSH1 0x1 PUSH1 0xA0 SHL SUB AND DUP4 DUP3 DUP2 SLOAD DUP2 LT PUSH2 0x99E JUMPI PUSH2 0x99E PUSH2 0xB65 JUMP JUMPDEST SWAP1 PUSH1 0x0 MSTORE PUSH1 0x20 PUSH1 0x0 KECCAK256 ADD PUSH1 0x0 PUSH2 0x100 EXP DUP2 SLOAD DUP2 PUSH1 0x1 PUSH1 0x1 PUSH1 0xA0 SHL SUB MUL NOT AND SWAP1 DUP4 PUSH1 0x1 PUSH1 0x1 PUSH1 0xA0 SHL SUB AND MUL OR SWAP1 SSTORE POP DUP3 DUP1 SLOAD DUP1 PUSH2 0x9DC JUMPI PUSH2 0x9DC PUSH2 0xBBD JUMP JUMPDEST PUSH1 0x0 DUP3 DUP2 MSTORE PUSH1 0x20 SWAP1 KECCAK256 DUP2 ADD PUSH1 0x0 NOT SWAP1 DUP2 ADD DUP1 SLOAD PUSH20 0xFFFFFFFFFFFFFFFFFFFFFFFFFFFFFFFFFFFFFFFF NOT AND SWAP1 SSTORE ADD SWAP1 SSTORE PUSH2 0xA22 JUMP JUMPDEST DUP1 PUSH2 0xA1A DUP2 PUSH2 0xB91 JUMP JUMPDEST SWAP2 POP POP PUSH2 0x914 JUMP JUMPDEST POP POP POP POP POP JUMP JUMPDEST POP DUP1 SLOAD PUSH1 0x0 DUP3 SSTORE SWAP1 PUSH1 0x0 MSTORE PUSH1 0x20 PUSH1 0x0 KECCAK256 SWAP1 DUP2 ADD SWAP1 PUSH2 0x55E SWAP2 SWAP1 JUMPDEST DUP1 DUP3 GT ISZERO PUSH2 0xA57 JUMPI PUSH1 0x0 DUP2 SSTORE PUSH1 0x1 ADD PUSH2 0xA43 JUMP JUMPDEST POP SWAP1 JUMP JUMPDEST DUP1 CALLDATALOAD PUSH1 0x1 PUSH1 0x1 PUSH1 0xA0 SHL SUB DUP2 AND DUP2 EQ PUSH2 0xA72 JUMPI PUSH1 0x0 DUP1 REVERT JUMPDEST SWAP2 SWAP1 POP JUMP JUMPDEST PUSH1 0x0 DUP1 PUSH1 0x40 DUP4 DUP6 SUB SLT ISZERO PUSH2 0xA8A JUMPI PUSH1 0x0 DUP1 REVERT JUMPDEST PUSH2 0xA93 DUP4 PUSH2 0xA5B JUMP JUMPDEST SWAP2 POP PUSH2 0xAA1 PUSH1 0x20 DUP5 ADD PUSH2 0xA5B JUMP JUMPDEST SWAP1 POP SWAP3 POP SWAP3 SWAP1 POP JUMP JUMPDEST PUSH1 0x0 PUSH1 0x20 DUP3 DUP5 SUB SLT ISZERO PUSH2 0xABC JUMPI PUSH1 0x0 DUP1 REVERT JUMPDEST PUSH2 0xAC5 DUP3 PUSH2 0xA5B JUMP JUMPDEST SWAP4 SWAP3 POP POP POP JUMP JUMPDEST PUSH1 0x20 DUP1 DUP3 MSTORE DUP3 MLOAD DUP3 DUP3 ADD DUP2 SWAP1 MSTORE PUSH1 0x0 SWAP2 SWAP1 DUP5 DUP3 ADD SWAP1 PUSH1 0x40 DUP6 ADD SWAP1 DUP5 JUMPDEST DUP2 DUP2 LT ISZERO PUSH2 0xB0D JUMPI DUP4 MLOAD PUSH1 0x1 PUSH1 0x1 PUSH1 0xA0 SHL SUB AND DUP4 MSTORE SWAP3 DUP5 ADD SWAP3 SWAP2 DUP5 ADD SWAP2 PUSH1 0x1 ADD PUSH2 0xAE8 JUMP JUMPDEST POP SWAP1 SWAP7 SWAP6 POP POP POP POP POP POP JUMP JUMPDEST PUSH1 0x0 DUP1 PUSH1 0x40 DUP4 DUP6 SUB SLT ISZERO PUSH2 0xB2C JUMPI PUSH1 0x0 DUP1 REVERT JUMPDEST PUSH2 0xB35 DUP4 PUSH2 0xA5B JUMP JUMPDEST SWAP5 PUSH1 0x20 SWAP4 SWAP1 SWAP4 ADD CALLDATALOAD SWAP4 POP POP POP JUMP JUMPDEST PUSH1 0x0 PUSH1 0x20 DUP3 DUP5 SUB SLT ISZERO PUSH2 0xB55 JUMPI PUSH1 0x0 DUP1 REVERT JUMPDEST DUP2 MLOAD DUP1 ISZERO ISZERO DUP2 EQ PUSH2 0xAC5 JUMPI PUSH1 0x0 DUP1 REVERT JUMPDEST PUSH4 0x4E487B71 PUSH1 0xE0 SHL PUSH1 0x0 MSTORE PUSH1 0x32 PUSH1 0x4 MSTORE PUSH1 0x24 PUSH1 0x0 REVERT JUMPDEST PUSH4 0x4E487B71 PUSH1 0xE0 SHL PUSH1 0x0 MSTORE PUSH1 0x11 PUSH1 0x4 MSTORE PUSH1 0x24 PUSH1 0x0 REVERT JUMPDEST PUSH1 0x0 PUSH1 0x1 DUP3 ADD PUSH2 0xBA3 JUMPI PUSH2 0xBA3 PUSH2 0xB7B JUMP JUMPDEST POP PUSH1 0x1 ADD SWAP1 JUMP JUMPDEST DUP2 DUP2 SUB DUP2 DUP2 GT ISZERO PUSH2 0x1EF JUMPI PUSH2 0x1EF PUSH2 0xB7B JUMP JUMPDEST PUSH4 0x4E487B71 PUSH1 0xE0 SHL PUSH1 0x0 MSTORE PUSH1 0x31 PUSH1 0x4 MSTORE PUSH1 0x24 PUSH1 0x0 REVERT INVALID LOG2 PUSH5 0x6970667358 0x22 SLT KECCAK256 0xC2 GASPRICE PUSH24 0x6451C2A183D091C64D32562C40622C8D91F49F201E34836C 0xC2 SWAP5 JUMPDEST 0xC8 TIMESTAMP PUSH5 0x736F6C6343 STOP ADDMOD EQ STOP CALLER "},"methodIdentifiers":{"expressInterest(address)":"3442d374","getMatches(address)":"77795778","hasExpressedInterest(address,address)":"0fe3d326","interests(address,address)":"b9eb69f6","isMatched(address,address)":"a5b74875","notifyProfileDeleted(address)":"f569f82f","profileNFT()":"949675e9","profileNFTContract()":"4e55427f","userMatches(address,uint256)":"fd7fef9c"}}}}}