{"contracts/ProfileNFT.sol":{"ProfileNFT":{"abi":[{"inputs":[{"internalType":"address","name":"target","type":"address"}],"name":"AddressEmptyCode","type":"error"},{"inputs":[{"internalType":"address","name":"implementation","type":"address"}],"name":"ERC1967InvalidImplementation","type":"error"},{"inputs":[],"name":"ERC1967NonPayable","type":"error"},{"inputs":[{"internalType":"address","name":"sender","type":"address"},{"internalType":"uint256","name":"tokenId","type":"uint256"},{"internalType":"address","name":"owner","type":"address"}],"name":"ERC721IncorrectOwner","type":"error"},{"inputs":[{"internalType":"address","name":"operator","type":"address"},{"internalType":"uint256","name":"tokenId","type":"uint256"}],"name":"ERC721InsufficientApproval","type":"error"},{"inputs":[{"internalType":"address","name":"approver","type":"address"}],"name":"ERC721InvalidApprover","type":"error"},{"inputs":[{"internalType":"address","name":"operator","type":"address"}],"name":"ERC721InvalidOperator","type":"error"},{"inputs":[{"internalType":"address","name":"owner","type":"address"}],"name":"ERC721InvalidOwner","type":"error"},{"inputs":[{"internalType":"address","name":"receiver","type":"address"}],"name":"ERC721InvalidReceiver","type":"error"},{"inputs":[{"internalType":"address","name":"sender","type":"address"}],"name":"ERC721InvalidSender","type":"error"},{"inputs":[{"internalType":"uint256","name":"tokenId","type":"uint256"}],"name":"ERC721NonexistentToken","type":"error"},{"inputs":[],"name":"FailedCall","type":"error"},{"inputs":[],"name":"InvalidInitialization","type":"error"},{"inputs":[],"name":"NotInitializing","type":"error"},{"inputs":[{"internalType":"address","name":"owner","type":"address"}],"name":"OwnableInvalidOwner","type":"error"},{"inputs":[{"internalType":"address","name":"account","type":"address"}],"name":"OwnableUnauthorizedAccount","type":"error"},{"inputs":[],"name":"UUPSUnauthorizedCallContext","type":"error"},{"inputs":[{"internalType":"bytes32","name":"slot","type":"bytes32"}],"name":"UUPSUnsupportedProxiableUUID","type":"error"},{"anonymous":false,"inputs":[{"indexed":true,"internalType":"address","name":"owner","type":"address"},{"indexed":true,"internalType":"address","name":"approved","type":"address"},{"indexed":true,"internalType":"uint256","name":"tokenId","type":"uint256"}],"name":"Approval","type":"event"},{"anonymous":false,"inputs":[{"indexed":true,"internalType":"address","name":"owner","type":"address"},{"indexed":true,"internalType":"address","name":"operator","type":"address"},{"indexed":false,"internalType":"bool","name":"approved","type":"bool"}],"name":"ApprovalForAll","type":"event"},{"anonymous":false,"inputs":[{"indexed":false,"internalType":"string","name":"email","type":"string"},{"indexed":false,"internalType":"address","name":"user","type":"address"}],"name":"EmailRegistered","type":"event"},{"anonymous":false,"inputs":[{"indexed":false,"internalType":"uint64","name":"version","type":"uint64"}],"name":"Initialized","type":"event"},{"anonymous":false,"inputs":[{"indexed":true,"internalType":"address","name":"previousOwner","type":"address"},{"indexed":true,"internalType":"address","name":"newOwner","type":"address"}],"name":"OwnershipTransferred","type":"event"},{"anonymous":false,"inputs":[{"indexed":true,"internalType":"address","name":"user","type":"address"},{"indexed":false,"internalType":"uint256","name":"tokenId","type":"uint256"},{"indexed":false,"internalType":"string","name":"name","type":"string"}],"name":"ProfileCreated","type":"event"},{"anonymous":false,"inputs":[{"indexed":true,"internalType":"address","name":"user","type":"address"},{"indexed":false,"internalType":"uint256","name":"tokenId","type":"uint256"}],"name":"ProfileDeleted","type":"event"},{"anonymous":false,"inputs":[{"indexed":true,"internalType":"address","name":"user","type":"address"},{"indexed":false,"internalType":"string","name":"name","type":"string"},{"indexed":false,"internalType":"uint8","name":"age","type":"uint8"},{"indexed":false,"internalType":"string","name":"gender","type":"string"},{"indexed":false,"internalType":"string","name":"interests","type":"string"},{"indexed":false,"internalType":"string","name":"photoUrl","type":"string"},{"indexed":false,"internalType":"string","name":"email","type":"string"}],"name":"ProfileUpdated","type":"event"},{"anonymous":false,"inputs":[{"indexed":true,"internalType":"address","name":"from","type":"address"},{"indexed":true,"internalType":"address","name":"to","type":"address"},{"indexed":true,"internalType":"uint256","name":"tokenId","type":"uint256"}],"name":"Transfer","type":"event"},{"anonymous":false,"inputs":[{"indexed":true,"internalType":"address","name":"implementation","type":"address"}],"name":"Upgraded","type":"event"},{"inputs":[],"name":"UPGRADE_INTERFACE_VERSION","outputs":[{"internalType":"string","name":"","type":"string"}],"stateMutability":"view","type":"function"},{"inputs":[{"internalType":"address","name":"","type":"address"}],"name":"addressToTokenId","outputs":[{"internalType":"uint256","name":"","type":"uint256"}],"stateMutability":"view","type":"function"},{"inputs":[{"internalType":"address","name":"to","type":"address"},{"internalType":"uint256","name":"tokenId","type":"uint256"}],"name":"approve","outputs":[],"stateMutability":"nonpayable","type":"function"},{"inputs":[{"internalType":"address","name":"owner","type":"address"}],"name":"balanceOf","outputs":[{"internalType":"uint256","name":"","type":"uint256"}],"stateMutability":"view","type":"function"},{"inputs":[{"internalType":"string","name":"name","type":"string"},{"internalType":"uint8","name":"age","type":"uint8"},{"internalType":"string","name":"gender","type":"string"},{"internalType":"string","name":"interests","type":"string"},{"internalType":"string","name":"photoUrl","type":"string"}],"name":"createProfile","outputs":[],"stateMutability":"nonpayable","type":"function"},{"inputs":[],"name":"deleteProfile","outputs":[],"stateMutability":"nonpayable","type":"function"},{"inputs":[{"internalType":"string","name":"email","type":"string"}],"name":"getAddressByEmail","outputs":[{"internalType":"address","name":"","type":"address"}],"stateMutability":"view","type":"function"},{"inputs":[{"internalType":"uint256","name":"tokenId","type":"uint256"}],"name":"getApproved","outputs":[{"internalType":"address","name":"","type":"address"}],"stateMutability":"view","type":"function"},{"inputs":[{"internalType":"address","name":"user","type":"address"}],"name":"getProfile","outputs":[{"components":[{"internalType":"uint256","name":"tokenId","type":"uint256"},{"internalType":"string","name":"name","type":"string"},{"internalType":"uint8","name":"age","type":"uint8"},{"internalType":"string","name":"gender","type":"string"},{"internalType":"string","name":"interests","type":"string"},{"internalType":"string","name":"photoUrl","type":"string"},{"internalType":"string","name":"email","type":"string"},{"internalType":"bool","name":"exists","type":"bool"}],"internalType":"struct ProfileNFT.Profile","name":"","type":"tuple"}],"stateMutability":"view","type":"function"},{"inputs":[{"internalType":"uint256","name":"tokenId","type":"uint256"}],"name":"getProfileByTokenId","outputs":[{"components":[{"internalType":"uint256","name":"tokenId","type":"uint256"},{"internalType":"string","name":"name","type":"string"},{"internalType":"uint8","name":"age","type":"uint8"},{"internalType":"string","name":"gender","type":"string"},{"internalType":"string","name":"interests","type":"string"},{"internalType":"string","name":"photoUrl","type":"string"},{"internalType":"string","name":"email","type":"string"},{"internalType":"bool","name":"exists","type":"bool"}],"internalType":"struct ProfileNFT.Profile","name":"","type":"tuple"}],"stateMutability":"view","type":"function"},{"inputs":[],"name":"initialize","outputs":[],"stateMutability":"nonpayable","type":"function"},{"inputs":[{"internalType":"address","name":"owner","type":"address"},{"internalType":"address","name":"operator","type":"address"}],"name":"isApprovedForAll","outputs":[{"internalType":"bool","name":"","type":"bool"}],"stateMutability":"view","type":"function"},{"inputs":[{"internalType":"string","name":"email","type":"string"}],"name":"isEmailRegistered","outputs":[{"internalType":"bool","name":"","type":"bool"}],"stateMutability":"view","type":"function"},{"inputs":[],"name":"matchingContract","outputs":[{"internalType":"address","name":"","type":"address"}],"stateMutability":"view","type":"function"},{"inputs":[],"name":"name","outputs":[{"internalType":"string","name":"","type":"string"}],"stateMutability":"view","type":"function"},{"inputs":[],"name":"owner","outputs":[{"internalType":"address","name":"","type":"address"}],"stateMutability":"view","type":"function"},{"inputs":[{"internalType":"uint256","name":"tokenId","type":"uint256"}],"name":"ownerOf","outputs":[{"internalType":"address","name":"","type":"address"}],"stateMutability":"view","type":"function"},{"inputs":[{"internalType":"address","name":"user","type":"address"}],"name":"profileExists","outputs":[{"internalType":"bool","name":"","type":"bool"}],"stateMutability":"view","type":"function"},{"inputs":[{"internalType":"address","name":"","type":"address"}],"name":"profiles","outputs":[{"internalType":"uint256","name":"tokenId","type":"uint256"},{"internalType":"string","name":"name","type":"string"},{"internalType":"uint8","name":"age","type":"uint8"},{"internalType":"string","name":"gender","type":"string"},{"internalType":"string","name":"interests","type":"string"},{"internalType":"string","name":"photoUrl","type":"string"},{"internalType":"string","name":"email","type":"string"},{"internalType":"bool","name":"exists","type":"bool"}],"stateMutability":"view","type":"function"},{"inputs":[],"name":"proxiableUUID","outputs":[{"internalType":"bytes32","name":"","type":"bytes32"}],"stateMutability":"view","type":"function"},{"inputs":[{"internalType":"string","name":"name","type":"string"},{"internalType":"uint8","name":"age","type":"uint8"},{"internalType":"string","name":"gender","type":"string"},{"internalType":"string","name":"interests","type":"string"},{"internalType":"string","name":"email","type":"string"}],"name":"registerWithEmail","outputs":[],"stateMutability":"nonpayable","type":"function"},{"inputs":[],"name":"renounceOwnership","outputs":[],"stateMutability":"nonpayable","type":"function"},{"inputs":[{"internalType":"address","name":"from","type":"address"},{"internalType":"address","name":"to","type":"address"},{"internalType":"uint256","name":"tokenId","type":"uint256"}],"name":"safeTransferFrom","outputs":[],"stateMutability":"nonpayable","type":"function"},{"inputs":[{"internalType":"address","name":"","type":"address"},{"internalType":"address","name":"","type":"address"},{"internalType":"uint256","name":"","type":"uint256"},{"internalType":"bytes","name":"","type":"bytes"}],"name":"safeTransferFrom","outputs":[],"stateMutability":"pure","type":"function"},{"inputs":[{"internalType":"address","name":"operator","type":"address"},{"internalType":"bool","name":"approved","type":"bool"}],"name":"setApprovalForAll","outputs":[],"stateMutability":"nonpayable","type":"function"},{"inputs":[{"internalType":"address","name":"_matchingContract","type":"address"}],"name":"setMatchingContract","outputs":[],"stateMutability":"nonpayable","type":"function"},{"inputs":[{"internalType":"bytes4","name":"interfaceId","type":"bytes4"}],"name":"supportsInterface","outputs":[{"internalType":"bool","name":"","type":"bool"}],"stateMutability":"view","type":"function"},{"inputs":[],"name":"symbol","outputs":[{"internalType":"string","name":"","type":"string"}],"stateMutability":"view","type":"function"},{"inputs":[{"internalType":"uint256","name":"","type":"uint256"}],"name":"tokenIdToAddress","outputs":[{"internalType":"address","name":"","type":"address"}],"stateMutability":"view","type":"function"},{"inputs":[{"internalType":"uint256","name":"tokenId","type":"uint256"}],"name":"tokenURI","outputs":[{"internalType":"string","name":"","type":"string"}],"stateMutability":"view","type":"function"},{"inputs":[{"internalType":"address","name":"","type":"address"},{"internalType":"address","name":"","type":"address"},{"internalType":"uint256","name":"","type":"uint256"}],"name":"transferFrom","outputs":[],"stateMutability":"pure","type":"function"},{"inputs":[{"internalType":"address","name":"newOwner","type":"address"}],"name":"transferOwnership","outputs":[],"stateMutability":"nonpayable","type":"function"},{"inputs":[{"internalType":"string","name":"name","type":"string"},{"internalType":"uint8","name":"age","type":"uint8"},{"internalType":"string","name":"gender","type":"string"},{"internalType":"string","name":"interests","type":"string"},{"internalType":"string","name":"photoUrl","type":"string"},{"internalType":"string","name":"email","type":"string"}],"name":"updateProfile","outputs":[],"stateMutability":"nonpayable","type":"function"},{"inputs":[{"internalType":"address","name":"newImplementation","type":"address"},{"internalType":"bytes","name":"data","type":"bytes"}],"name":"upgradeToAndCall","outputs":[],"stateMutability":"payable","type":"function"}],"evm":{"bytecode":{"linkReferences":{},"object":"60a060405230608052348015610013575f80fd5b506080516148a861003a5f395f818161306b01528181613094015261321201526148a85ff3fe60806040526004361061020f575f3560e01c80636d4540eb11610117578063a22cb465116100ac578063c5caea011161007c578063df3cdad711610062578063df3cdad71461066e578063e985e9c51461068d578063f2fde38b146106f3575f80fd5b8063c5caea0114610630578063c87b56dd1461064f575f80fd5b8063a22cb4651461057c578063ad3cb1cc1461059b578063b88d4fde146105e3578063bbe15627146105fd575f80fd5b80638129fc1c116100e75780638129fc1c146104f95780638da5cb5b1461050d57806395d89b41146105495780639e385dfb1461055d575f80fd5b80636d4540eb1461049357806370a08231146104a7578063715018a6146104c65780637b09a6e3146104da575f80fd5b80632182d9d7116101a75780634f1ef2861161017757806353964b191161015d57806353964b191461042a5780636352211e146104495780636511bf2e14610468575f80fd5b80634f1ef286146103f557806352d1902d14610408575f80fd5b80632182d9d71461037957806323b872dd1461039857806342842e0e146103b75780634ab491b6146103d6575f80fd5b806308bb76a5116101e257806308bb76a5146102d9578063095ea7b31461030d5780630f53a4701461032e57806310ea22711461035a575f80fd5b806301ffc9a71461021357806305cfa06f1461024757806306fdde0314610281578063081812fc146102a2575b5f80fd5b34801561021e575f80fd5b5061023261022d366004613e87565b610712565b60405190151581526020015b60405180910390f35b348015610252575f80fd5b50610232610261366004613ebd565b6001600160a01b03165f9081526001602052604090206007015460ff1690565b34801561028c575f80fd5b506102956107ae565b60405161023e9190613f23565b3480156102ad575f80fd5b506102c16102bc366004613f35565b610862565b6040516001600160a01b03909116815260200161023e565b3480156102e4575f80fd5b506102c16102f3366004613f35565b60036020525f90815260409020546001600160a01b031681565b348015610318575f80fd5b5061032c610327366004613f4c565b6108a8565b005b348015610339575f80fd5b5061034d610348366004613ebd565b6108b7565b60405161023e9190613f74565b348015610365575f80fd5b5061032c6103743660046140f3565b610c24565b348015610384575f80fd5b5061032c610393366004613ebd565b6111d9565b3480156103a3575f80fd5b5061032c6103b23660046141cb565b6112b2565b3480156103c2575f80fd5b5061032c6103d13660046141cb565b6112fa565b3480156103e1575f80fd5b5061032c6103f0366004614204565b611319565b61032c6104033660046142ba565b61172f565b348015610413575f80fd5b5061041c61174a565b60405190815260200161023e565b348015610435575f80fd5b506006546102c1906001600160a01b031681565b348015610454575f80fd5b506102c1610463366004613f35565b611778565b348015610473575f80fd5b5061041c610482366004613ebd565b60026020525f908152604090205481565b34801561049e575f80fd5b5061032c611782565b3480156104b2575f80fd5b5061041c6104c1366004613ebd565b611cd2565b3480156104d1575f80fd5b5061032c611d56565b3480156104e5575f80fd5b5061034d6104f4366004613f35565b611d69565b348015610504575f80fd5b5061032c61213b565b348015610518575f80fd5b507f9016d09d72d40fdae2fd8ceac6b6234c7706214fd39c1cd1e609a0528c199300546001600160a01b03166102c1565b348015610554575f80fd5b506102956122dc565b348015610568575f80fd5b5061032c610577366004614204565b61232d565b348015610587575f80fd5b5061032c610596366004614305565b61285c565b3480156105a6575f80fd5b506102956040518060400160405280600581526020017f352e302e3000000000000000000000000000000000000000000000000000000081525081565b3480156105ee575f80fd5b5061032c6103b236600461433e565b348015610608575f80fd5b5061061c610617366004613ebd565b612867565b60405161023e9897969594939291906143a2565b34801561063b575f80fd5b506102c161064a36600461442c565b612b50565b34801561065a575f80fd5b50610295610669366004613f35565b612b80565b348015610679575f80fd5b5061023261068836600461442c565b612bf1565b348015610698575f80fd5b506102326106a736600461445e565b6001600160a01b039182165f9081527f80bb2b638cc20bc4d0a60d66940f3ab4a00c1d7b313497ca82fb0b4ab00793056020908152604080832093909416825291909152205460ff1690565b3480156106fe575f80fd5b5061032c61070d366004613ebd565b612c1b565b5f6001600160e01b031982167f80ac58cd00000000000000000000000000000000000000000000000000000000148061077457506001600160e01b031982167f5b5e139f00000000000000000000000000000000000000000000000000000000145b806107a857507f01ffc9a7000000000000000000000000000000000000000000000000000000006001600160e01b03198316145b92915050565b7f80bb2b638cc20bc4d0a60d66940f3ab4a00c1d7b313497ca82fb0b4ab007930080546060919081906107e09061448f565b80601f016020809104026020016040519081016040528092919081815260200182805461080c9061448f565b80156108575780601f1061082e57610100808354040283529160200191610857565b820191905f5260205f20905b81548152906001019060200180831161083a57829003601f168201915b505050505091505090565b5f61086c82612c71565b505f8281527f80bb2b638cc20bc4d0a60d66940f3ab4a00c1d7b313497ca82fb0b4ab007930460205260409020546001600160a01b03166107a8565b6108b3828233612cc8565b5050565b6109016040518061010001604052805f8152602001606081526020015f60ff168152602001606081526020016060815260200160608152602001606081526020015f151581525090565b6001600160a01b0382165f90815260016020818152604092839020835161010081019094528054845291820180549184019161093c9061448f565b80601f01602080910402602001604051908101604052809291908181526020018280546109689061448f565b80156109b35780601f1061098a576101008083540402835291602001916109b3565b820191905f5260205f20905b81548152906001019060200180831161099657829003601f168201915b5050509183525050600282015460ff1660208201526003820180546040909201916109dd9061448f565b80601f0160208091040260200160405190810160405280929190818152602001828054610a099061448f565b8015610a545780601f10610a2b57610100808354040283529160200191610a54565b820191905f5260205f20905b815481529060010190602001808311610a3757829003601f168201915b50505050508152602001600482018054610a6d9061448f565b80601f0160208091040260200160405190810160405280929190818152602001828054610a999061448f565b8015610ae45780601f10610abb57610100808354040283529160200191610ae4565b820191905f5260205f20905b815481529060010190602001808311610ac757829003601f168201915b50505050508152602001600582018054610afd9061448f565b80601f0160208091040260200160405190810160405280929190818152602001828054610b299061448f565b8015610b745780601f10610b4b57610100808354040283529160200191610b74565b820191905f5260205f20905b815481529060010190602001808311610b5757829003601f168201915b50505050508152602001600682018054610b8d9061448f565b80601f0160208091040260200160405190810160405280929190818152602001828054610bb99061448f565b8015610c045780601f10610bdb57610100808354040283529160200191610c04565b820191905f5260205f20905b815481529060010190602001808311610be757829003601f168201915b50505091835250506007919091015460ff16151560209091015292915050565b335f9081526001602052604090206007015460ff16610c8a5760405162461bcd60e51b815260206004820152601660248201527f50726f66696c6520646f6573206e6f742065786973740000000000000000000060448201526064015b60405180910390fd5b60128560ff161015610cde5760405162461bcd60e51b815260206004820152601360248201527f4d757374206265203138206f72206f6c646572000000000000000000000000006044820152606401610c81565b60788560ff161115610d325760405162461bcd60e51b815260206004820152601560248201527f416765206d757374206265207265616c697374696300000000000000000000006044820152606401610c81565b6002865110158015610d4657506064865111155b610d925760405162461bcd60e51b815260206004820152601d60248201527f4e616d65206d75737420626520322d31303020636861726163746572730000006044820152606401610c81565b5f8351118015610da557506101f4835111155b610dfc5760405162461bcd60e51b815260206004820152602260248201527f496e74657265737473206d75737420626520312d353030206368617261637465604482015261727360f01b6064820152608401610c81565b6101f482511115610e4f5760405162461bcd60e51b815260206004820152601260248201527f50686f746f2055524c20746f6f206c6f6e6700000000000000000000000000006044820152606401610c81565b5f8451118015610e6157506032845111155b610ead5760405162461bcd60e51b815260206004820152601460248201527f47656e646572206d7573742062652076616c69640000000000000000000000006044820152606401610c81565b80511561112557610ebd81612cd5565b610f095760405162461bcd60e51b815260206004820152601460248201527f496e76616c696420656d61696c20666f726d61740000000000000000000000006044820152606401610c81565b5f610f1382612df5565b335f9081526001602052604090206006018054919250610fb891610f369061448f565b80601f0160208091040260200160405190810160405280929190818152602001828054610f629061448f565b8015610fad5780601f10610f8457610100808354040283529160200191610fad565b820191905f5260205f20905b815481529060010190602001808311610f9057829003601f168201915b505050505082612f7b565b61110757600481604051610fcc91906144c7565b9081526040519081900360200190205460ff161561102c5760405162461bcd60e51b815260206004820152601860248201527f456d61696c20616c7265616479207265676973746572656400000000000000006044820152606401610c81565b335f90815260016020526040812060060180546110489061448f565b9050111561109457335f908152600160205260408082209051600491611073916006909101906144e2565b908152604051908190036020019020805491151560ff199092169190911790555b60016004826040516110a691906144c7565b908152604051908190036020018120805492151560ff199093169290921790915533906005906110d79084906144c7565b90815260405190819003602001902080546001600160a01b03929092166001600160a01b03199092169190911790555b335f9081526001602052604090206006016111228282614598565b50505b335f9081526001602081905260409091209081016111438882614598565b5060028101805460ff191660ff8816179055600381016111638682614598565b50600481016111728582614598565b50600581016111818482614598565b50336001600160a01b03167fff05e84fce958ef60921c414197d065753ed947b0d3460ddef8244c534c916da8888888888876006016040516111c896959493929190614654565b60405180910390a250505050505050565b6111e1612fd3565b6006546001600160a01b03161561123a5760405162461bcd60e51b815260206004820152601d60248201527f4d61746368696e6720636f6e747261637420616c7265616479207365740000006044820152606401610c81565b6001600160a01b0381166112905760405162461bcd60e51b815260206004820152600f60248201527f496e76616c6964206164647265737300000000000000000000000000000000006044820152606401610c81565b600680546001600160a01b0319166001600160a01b0392909216919091179055565b60405162461bcd60e51b815260206004820152601f60248201527f536f756c626f756e643a205472616e73666572206e6f7420616c6c6f776564006044820152606401610c81565b61131483838360405180602001604052805f8152506112b2565b505050565b335f9081526001602052604090206007015460ff161561137b5760405162461bcd60e51b815260206004820152601660248201527f50726f66696c6520616c726561647920657869737473000000000000000000006044820152606401610c81565b60128460ff1610156113cf5760405162461bcd60e51b815260206004820152601360248201527f4d757374206265203138206f72206f6c646572000000000000000000000000006044820152606401610c81565b60788460ff1611156114235760405162461bcd60e51b815260206004820152601560248201527f416765206d757374206265207265616c697374696300000000000000000000006044820152606401610c81565b600285511015801561143757506064855111155b6114835760405162461bcd60e51b815260206004820152601d60248201527f4e616d65206d75737420626520322d31303020636861726163746572730000006044820152606401610c81565b5f825111801561149657506101f4825111155b6114ed5760405162461bcd60e51b815260206004820152602260248201527f496e74657265737473206d75737420626520312d353030206368617261637465604482015261727360f01b6064820152608401610c81565b6101f4815111156115405760405162461bcd60e51b815260206004820152601260248201527f50686f746f2055524c20746f6f206c6f6e6700000000000000000000000000006044820152606401610c81565b5f835111801561155257506032835111155b61159e5760405162461bcd60e51b815260206004820152601460248201527f47656e646572206d7573742062652076616c69640000000000000000000000006044820152606401610c81565b5f805490806115ac83614747565b90915550505f8054604080516101008101825282815260208082018a815260ff8a1683850152606083018990526080830188905260a083018790528351808301855286815260c0840152600160e08401819052338752918290529290942081518155915192939092908201906116229082614598565b50604082015160028201805460ff191660ff909216919091179055606082015160038201906116519082614598565b50608082015160048201906116669082614598565b5060a0820151600582019061167b9082614598565b5060c082015160068201906116909082614598565b5060e091909101516007909101805460ff1916911515919091179055335f8181526002602090815260408083208590558483526003909152902080546001600160a01b031916821790556116e49082613047565b336001600160a01b03167f02ed4ee0412e67bbc9ed1687f3ad6bb7134d359d45994f3bf5302e91d81cf61f828860405161171f92919061475f565b60405180910390a2505050505050565b611737613060565b61174082613117565b6108b3828261311f565b5f611753613207565b507f360894a13ba1a3210667c828492db98dca3e2076cc3735a920a3ca505d382bbc90565b5f6107a882612c71565b335f9081526001602052604090206007015460ff166117e35760405162461bcd60e51b815260206004820152601660248201527f50726f66696c6520646f6573206e6f74206578697374000000000000000000006044820152606401610c81565b335f908152600160208181526040808420815161010081019092528054825292830180549193928401916118169061448f565b80601f01602080910402602001604051908101604052809291908181526020018280546118429061448f565b801561188d5780601f106118645761010080835404028352916020019161188d565b820191905f5260205f20905b81548152906001019060200180831161187057829003601f168201915b5050509183525050600282015460ff1660208201526003820180546040909201916118b79061448f565b80601f01602080910402602001604051908101604052809291908181526020018280546118e39061448f565b801561192e5780601f106119055761010080835404028352916020019161192e565b820191905f5260205f20905b81548152906001019060200180831161191157829003601f168201915b505050505081526020016004820180546119479061448f565b80601f01602080910402602001604051908101604052809291908181526020018280546119739061448f565b80156119be5780601f10611995576101008083540402835291602001916119be565b820191905f5260205f20905b8154815290600101906020018083116119a157829003601f168201915b505050505081526020016005820180546119d79061448f565b80601f0160208091040260200160405190810160405280929190818152602001828054611a039061448f565b8015611a4e5780601f10611a2557610100808354040283529160200191611a4e565b820191905f5260205f20905b815481529060010190602001808311611a3157829003601f168201915b50505050508152602001600682018054611a679061448f565b80601f0160208091040260200160405190810160405280929190818152602001828054611a939061448f565b8015611ade5780601f10611ab557610100808354040283529160200191611ade565b820191905f5260205f20905b815481529060010190602001808311611ac157829003601f168201915b50505091835250506007919091015460ff161515602090910152805160c0820151519192509015611b78575f611b178360c00151612df5565b90505f600482604051611b2a91906144c7565b908152604051908190036020018120805492151560ff1990931692909217909155600590611b599083906144c7565b90815260405190819003602001902080546001600160a01b0319169055505b6006546001600160a01b031615611bf7576006546040517ff569f82f0000000000000000000000000000000000000000000000000000000081523360048201526001600160a01b039091169063f569f82f906024015f604051808303815f87803b158015611be4575f80fd5b505af1925050508015611bf5575060015b505b335f90815260016020819052604082208281559190611c1890830182613e28565b60028201805460ff19169055611c31600383015f613e28565b611c3e600483015f613e28565b611c4b600583015f613e28565b611c58600683015f613e28565b50600701805460ff19169055335f9081526002602090815260408083208390558383526003909152902080546001600160a01b0319169055611c9981613250565b60405181815233907f236eb7515b00733d8ade7456155d53d63c2fa66bec6437ddff6ab3fc71e1e3249060200160405180910390a25050565b5f7f80bb2b638cc20bc4d0a60d66940f3ab4a00c1d7b313497ca82fb0b4ab00793006001600160a01b038316611d36576040517f89c62b640000000000000000000000000000000000000000000000000000000081525f6004820152602401610c81565b6001600160a01b039092165f908152600390920160205250604090205490565b611d5e612fd3565b611d675f613288565b565b611db36040518061010001604052805f8152602001606081526020015f60ff168152602001606081526020016060815260200160608152602001606081526020015f151581525090565b5f828152600360205260409020546001600160a01b031680611e175760405162461bcd60e51b815260206004820152601460248201527f546f6b656e20646f6573206e6f742065786973740000000000000000000000006044820152606401610c81565b6001600160a01b0381165f908152600160208181526040928390208351610100810190945280548452918201805491840191611e529061448f565b80601f0160208091040260200160405190810160405280929190818152602001828054611e7e9061448f565b8015611ec95780601f10611ea057610100808354040283529160200191611ec9565b820191905f5260205f20905b815481529060010190602001808311611eac57829003601f168201915b5050509183525050600282015460ff166020820152600382018054604090920191611ef39061448f565b80601f0160208091040260200160405190810160405280929190818152602001828054611f1f9061448f565b8015611f6a5780601f10611f4157610100808354040283529160200191611f6a565b820191905f5260205f20905b815481529060010190602001808311611f4d57829003601f168201915b50505050508152602001600482018054611f839061448f565b80601f0160208091040260200160405190810160405280929190818152602001828054611faf9061448f565b8015611ffa5780601f10611fd157610100808354040283529160200191611ffa565b820191905f5260205f20905b815481529060010190602001808311611fdd57829003601f168201915b505050505081526020016005820180546120139061448f565b80601f016020809104026020016040519081016040528092919081815260200182805461203f9061448f565b801561208a5780601f106120615761010080835404028352916020019161208a565b820191905f5260205f20905b81548152906001019060200180831161206d57829003601f168201915b505050505081526020016006820180546120a39061448f565b80601f01602080910402602001604051908101604052809291908181526020018280546120cf9061448f565b801561211a5780601f106120f15761010080835404028352916020019161211a565b820191905f5260205f20905b8154815290600101906020018083116120fd57829003601f168201915b50505091835250506007919091015460ff1615156020909101529392505050565b5f6121446132f8565b805490915060ff68010000000000000000820416159067ffffffffffffffff165f811580156121705750825b90505f8267ffffffffffffffff16600114801561218c5750303b155b90508115801561219a575080155b156121d1576040517ff92ee8a900000000000000000000000000000000000000000000000000000000815260040160405180910390fd5b845467ffffffffffffffff19166001178555831561220557845468ff00000000000000001916680100000000000000001785555b6122796040518060400160405280601181526020017f426173654d617463682050726f66696c650000000000000000000000000000008152506040518060400160405280600581526020017f424d50524f000000000000000000000000000000000000000000000000000000815250613320565b61228233613332565b61228a613343565b83156122d557845468ff000000000000000019168555604051600181527fc7f505b2f371ae2175ee4913f4499e1f2633a7b5936321eed1cdaeb6115181d29060200160405180910390a15b5050505050565b7f80bb2b638cc20bc4d0a60d66940f3ab4a00c1d7b313497ca82fb0b4ab007930180546060917f80bb2b638cc20bc4d0a60d66940f3ab4a00c1d7b313497ca82fb0b4ab0079300916107e09061448f565b335f9081526001602052604090206007015460ff161561238f5760405162461bcd60e51b815260206004820152601660248201527f50726f66696c6520616c726561647920657869737473000000000000000000006044820152606401610c81565b60128460ff1610156123e35760405162461bcd60e51b815260206004820152601360248201527f4d757374206265203138206f72206f6c646572000000000000000000000000006044820152606401610c81565b60788460ff1611156124375760405162461bcd60e51b815260206004820152601560248201527f416765206d757374206265207265616c697374696300000000000000000000006044820152606401610c81565b600285511015801561244b57506064855111155b6124975760405162461bcd60e51b815260206004820152601d60248201527f4e616d65206d75737420626520322d31303020636861726163746572730000006044820152606401610c81565b5f82511180156124aa57506101f4825111155b6125015760405162461bcd60e51b815260206004820152602260248201527f496e74657265737473206d75737420626520312d353030206368617261637465604482015261727360f01b6064820152608401610c81565b5f8151116125515760405162461bcd60e51b815260206004820152601560248201527f456d61696c2063616e6e6f7420626520656d70747900000000000000000000006044820152606401610c81565b61255a81612cd5565b6125a65760405162461bcd60e51b815260206004820152601460248201527f496e76616c696420656d61696c20666f726d61740000000000000000000000006044820152606401610c81565b5f6125b082612df5565b90506004816040516125c291906144c7565b9081526040519081900360200190205460ff16156126225760405162461bcd60e51b815260206004820152601860248201527f456d61696c20616c7265616479207265676973746572656400000000000000006044820152606401610c81565b5f8054908061263083614747565b90915550505f5460405160019060049061264b9085906144c7565b908152604051908190036020018120805492151560ff1990931692909217909155339060059061267c9085906144c7565b908152604080516020928190038301812080546001600160a01b0319166001600160a01b039590951694909417909355610100830181528383528183018a815260ff8a16848301526060840189905260808401889052815180840183525f80825260a086019190915260c08501879052600160e08601819052338252938490529190912083518155905190918201906127159082614598565b50604082015160028201805460ff191660ff909216919091179055606082015160038201906127449082614598565b50608082015160048201906127599082614598565b5060a0820151600582019061276e9082614598565b5060c082015160068201906127839082614598565b5060e091909101516007909101805460ff1916911515919091179055335f8181526002602090815260408083208590558483526003909152902080546001600160a01b031916821790556127d79082613047565b336001600160a01b03167f02ed4ee0412e67bbc9ed1687f3ad6bb7134d359d45994f3bf5302e91d81cf61f828960405161281292919061475f565b60405180910390a27f47f02b73945ce0ca4c471ed60f05863657de8944610464aad740573b7c3b2d8c823360405161284b929190614777565b60405180910390a150505050505050565b6108b333838361334b565b600160208190525f9182526040909120805491810180546128879061448f565b80601f01602080910402602001604051908101604052809291908181526020018280546128b39061448f565b80156128fe5780601f106128d5576101008083540402835291602001916128fe565b820191905f5260205f20905b8154815290600101906020018083116128e157829003601f168201915b5050506002840154600385018054949560ff9092169491935091506129229061448f565b80601f016020809104026020016040519081016040528092919081815260200182805461294e9061448f565b80156129995780601f1061297057610100808354040283529160200191612999565b820191905f5260205f20905b81548152906001019060200180831161297c57829003601f168201915b5050505050908060040180546129ae9061448f565b80601f01602080910402602001604051908101604052809291908181526020018280546129da9061448f565b8015612a255780601f106129fc57610100808354040283529160200191612a25565b820191905f5260205f20905b815481529060010190602001808311612a0857829003601f168201915b505050505090806005018054612a3a9061448f565b80601f0160208091040260200160405190810160405280929190818152602001828054612a669061448f565b8015612ab15780601f10612a8857610100808354040283529160200191612ab1565b820191905f5260205f20905b815481529060010190602001808311612a9457829003601f168201915b505050505090806006018054612ac69061448f565b80601f0160208091040260200160405190810160405280929190818152602001828054612af29061448f565b8015612b3d5780601f10612b1457610100808354040283529160200191612b3d565b820191905f5260205f20905b815481529060010190602001808311612b2057829003601f168201915b5050506007909301549192505060ff1688565b5f600582604051612b6191906144c7565b908152604051908190036020019020546001600160a01b031692915050565b6060612b8b82612c71565b505f612ba160408051602081019091525f815290565b90505f815111612bbf5760405180602001604052805f815250612bea565b80612bc984613426565b604051602001612bda9291906147a1565b6040516020818303038152906040525b9392505050565b5f600482604051612c0291906144c7565b9081526040519081900360200190205460ff1692915050565b612c23612fd3565b6001600160a01b038116612c65576040517f1e4fbdf70000000000000000000000000000000000000000000000000000000081525f6004820152602401610c81565b612c6e81613288565b50565b5f8181527f80bb2b638cc20bc4d0a60d66940f3ab4a00c1d7b313497ca82fb0b4ab007930260205260408120546001600160a01b0316806107a857604051637e27328960e01b815260048101849052602401610c81565b61131483838360016134c3565b5f80829050600581511015612cec57505f92915050565b60fe81511115612cfe57505f92915050565b5f805f805b8451811015612ddd575f858281518110612d1f57612d1f6147cf565b01602001516001600160f81b03191690507f4000000000000000000000000000000000000000000000000000000000000000819003612d945784612d6281614747565b95506001945050811580612d82575060018651612d7f91906147e3565b82145b15612d9457505f979650505050505050565b838015612dca57507f2e000000000000000000000000000000000000000000000000000000000000006001600160f81b03198216145b15612dd457600192505b50600101612d03565b50826001148015612deb5750805b9695505050505050565b60605f8290505f815167ffffffffffffffff811115612e1657612e16614046565b6040519080825280601f01601f191660200182016040528015612e40576020820181803683370190505b5090505f5b8251811015612f73575f838281518110612e6157612e616147cf565b01602001516001600160f81b03191690507f41000000000000000000000000000000000000000000000000000000000000008110801590612ecc57507f5a000000000000000000000000000000000000000000000000000000000000006001600160f81b0319821611155b15612f2857612ee060f882901c60206147f6565b60f81b838381518110612ef557612ef56147cf565b60200101907effffffffffffffffffffffffffffffffffffffffffffffffffffffffffffff191690815f1a905350612f6a565b80838381518110612f3b57612f3b6147cf565b60200101907effffffffffffffffffffffffffffffffffffffffffffffffffffffffffffff191690815f1a9053505b50600101612e45565b509392505050565b5f81604051602001612f8d91906144c7565b6040516020818303038152906040528051906020012083604051602001612fb491906144c7565b6040516020818303038152906040528051906020012014905092915050565b336130057f9016d09d72d40fdae2fd8ceac6b6234c7706214fd39c1cd1e609a0528c199300546001600160a01b031690565b6001600160a01b031614611d67576040517f118cdaa7000000000000000000000000000000000000000000000000000000008152336004820152602401610c81565b6108b3828260405180602001604052805f81525061363f565b306001600160a01b037f00000000000000000000000000000000000000000000000000000000000000001614806130f957507f00000000000000000000000000000000000000000000000000000000000000006001600160a01b03166130ed7f360894a13ba1a3210667c828492db98dca3e2076cc3735a920a3ca505d382bbc546001600160a01b031690565b6001600160a01b031614155b15611d675760405163703e46dd60e11b815260040160405180910390fd5b612c6e612fd3565b816001600160a01b03166352d1902d6040518163ffffffff1660e01b8152600401602060405180830381865afa925050508015613179575060408051601f3d908101601f191682019092526131769181019061480f565b60015b6131a157604051634c9c8ce360e01b81526001600160a01b0383166004820152602401610c81565b7f360894a13ba1a3210667c828492db98dca3e2076cc3735a920a3ca505d382bbc81146131fd576040517faa1d49a400000000000000000000000000000000000000000000000000000000815260048101829052602401610c81565b6113148383613656565b306001600160a01b037f00000000000000000000000000000000000000000000000000000000000000001614611d675760405163703e46dd60e11b815260040160405180910390fd5b5f61325c5f835f6136ab565b90506001600160a01b0381166108b357604051637e27328960e01b815260048101839052602401610c81565b7f9016d09d72d40fdae2fd8ceac6b6234c7706214fd39c1cd1e609a0528c19930080546001600160a01b031981166001600160a01b03848116918217845560405192169182907f8be0079c531659141344cd1fd0a4f28419497f9722a3daafe3b4186f6b6457e0905f90a3505050565b5f807ff0c57e16840df040f15088dc2f81fe391c3923bec73e23a9662efc9c229c6a006107a8565b6133286137e5565b6108b38282613823565b61333a6137e5565b612c6e8161386c565b611d676137e5565b7f80bb2b638cc20bc4d0a60d66940f3ab4a00c1d7b313497ca82fb0b4ab00793006001600160a01b0383166133b7576040517f5b08ba180000000000000000000000000000000000000000000000000000000081526001600160a01b0384166004820152602401610c81565b6001600160a01b038481165f818152600584016020908152604080832094881680845294825291829020805460ff191687151590811790915591519182527f17307eab39ab6107e8899845ad3d59bd9653f200f220920489ca2b5937696c31910160405180910390a350505050565b60605f61343283613874565b60010190505f8167ffffffffffffffff81111561345157613451614046565b6040519080825280601f01601f19166020018201604052801561347b576020820181803683370190505b5090508181016020015b5f19017f3031323334353637383961626364656600000000000000000000000000000000600a86061a8153600a850494508461348557509392505050565b7f80bb2b638cc20bc4d0a60d66940f3ab4a00c1d7b313497ca82fb0b4ab007930081806134f857506001600160a01b03831615155b1561360f575f61350785612c71565b90506001600160a01b038416158015906135335750836001600160a01b0316816001600160a01b031614155b801561358357506001600160a01b038082165f9081527f80bb2b638cc20bc4d0a60d66940f3ab4a00c1d7b313497ca82fb0b4ab0079305602090815260408083209388168352929052205460ff16155b156135c5576040517fa9fbf51f0000000000000000000000000000000000000000000000000000000081526001600160a01b0385166004820152602401610c81565b821561360d5784866001600160a01b0316826001600160a01b03167f8c5be1e5ebec7d5bd14f71427d1e84f3dd0314c0f7b2291e5b200ac8c7c3b92560405160405180910390a45b505b5f93845260040160205250506040902080546001600160a01b0319166001600160a01b0392909216919091179055565b6136498383613955565b611314335f8585856139cf565b61365f82613af6565b6040516001600160a01b038316907fbc7cd75a20ee27fd9adebab32041f755214dbc6bffa90cc0225b39da2e5c2d3b905f90a28051156136a3576113148282613b6c565b6108b3613bde565b5f8281527f80bb2b638cc20bc4d0a60d66940f3ab4a00c1d7b313497ca82fb0b4ab007930260205260408120547f80bb2b638cc20bc4d0a60d66940f3ab4a00c1d7b313497ca82fb0b4ab0079300906001600160a01b039081169084161561371857613718818587613c16565b6001600160a01b03811615613754576137335f865f806134c3565b6001600160a01b0381165f908152600383016020526040902080545f190190555b6001600160a01b03861615613784576001600160a01b0386165f9081526003830160205260409020805460010190555b5f85815260028301602052604080822080546001600160a01b0319166001600160a01b038a811691821790925591518893918516917fddf252ad1be2c89b69c2b068fc378daa952ba7f163c4a11628f55a4df523b3ef91a495945050505050565b6137ed613c93565b611d67576040517fd7e6bcf800000000000000000000000000000000000000000000000000000000815260040160405180910390fd5b61382b6137e5565b7f80bb2b638cc20bc4d0a60d66940f3ab4a00c1d7b313497ca82fb0b4ab0079300806138578482614598565b50600181016138668382614598565b50505050565b612c236137e5565b5f807a184f03e93ff9f4daa797ed6e38ed64bf6a1f01000000000000000083106138bc577a184f03e93ff9f4daa797ed6e38ed64bf6a1f010000000000000000830492506040015b6d04ee2d6d415b85acef810000000083106138e8576d04ee2d6d415b85acef8100000000830492506020015b662386f26fc10000831061390657662386f26fc10000830492506010015b6305f5e100831061391e576305f5e100830492506008015b612710831061393257612710830492506004015b60648310613944576064830492506002015b600a83106107a85760010192915050565b6001600160a01b03821661397e57604051633250574960e11b81525f6004820152602401610c81565b5f61398a83835f6136ab565b90506001600160a01b03811615611314576040517f73c6ac6e0000000000000000000000000000000000000000000000000000000081525f6004820152602401610c81565b6001600160a01b0383163b156122d557604051630a85bd0160e11b81526001600160a01b0384169063150b7a0290613a11908890889087908790600401614826565b6020604051808303815f875af1925050508015613a4b575060408051601f3d908101601f19168201909252613a4891810190614857565b60015b613ab2573d808015613a78576040519150601f19603f3d011682016040523d82523d5f602084013e613a7d565b606091505b5080515f03613aaa57604051633250574960e11b81526001600160a01b0385166004820152602401610c81565b805160208201fd5b6001600160e01b03198116630a85bd0160e11b14613aee57604051633250574960e11b81526001600160a01b0385166004820152602401610c81565b505050505050565b806001600160a01b03163b5f03613b2b57604051634c9c8ce360e01b81526001600160a01b0382166004820152602401610c81565b7f360894a13ba1a3210667c828492db98dca3e2076cc3735a920a3ca505d382bbc80546001600160a01b0319166001600160a01b0392909216919091179055565b60605f80846001600160a01b031684604051613b8891906144c7565b5f60405180830381855af49150503d805f8114613bc0576040519150601f19603f3d011682016040523d82523d5f602084013e613bc5565b606091505b5091509150613bd5858383613cb1565b95945050505050565b3415611d67576040517fb398979f00000000000000000000000000000000000000000000000000000000815260040160405180910390fd5b613c21838383613d26565b611314576001600160a01b038316613c4f57604051637e27328960e01b815260048101829052602401610c81565b6040517f177e802f0000000000000000000000000000000000000000000000000000000081526001600160a01b038316600482015260248101829052604401610c81565b5f613c9c6132f8565b5468010000000000000000900460ff16919050565b606082613cc657613cc182613de7565b612bea565b8151158015613cdd57506001600160a01b0384163b155b15613d1f576040517f9996b3150000000000000000000000000000000000000000000000000000000081526001600160a01b0385166004820152602401610c81565b5080612bea565b5f6001600160a01b03831615801590613ddf5750826001600160a01b0316846001600160a01b03161480613d9d57506001600160a01b038085165f9081527f80bb2b638cc20bc4d0a60d66940f3ab4a00c1d7b313497ca82fb0b4ab0079305602090815260408083209387168352929052205460ff165b80613ddf57505f8281527f80bb2b638cc20bc4d0a60d66940f3ab4a00c1d7b313497ca82fb0b4ab007930460205260409020546001600160a01b038481169116145b949350505050565b805115613df657805160208201fd5b6040517fd6bda27500000000000000000000000000000000000000000000000000000000815260040160405180910390fd5b508054613e349061448f565b5f825580601f10613e43575050565b601f0160209004905f5260205f2090810190612c6e91905b80821115613e6e575f8155600101613e5b565b5090565b6001600160e01b031981168114612c6e575f80fd5b5f60208284031215613e97575f80fd5b8135612bea81613e72565b80356001600160a01b0381168114613eb8575f80fd5b919050565b5f60208284031215613ecd575f80fd5b612bea82613ea2565b5f5b83811015613ef0578181015183820152602001613ed8565b50505f910152565b5f8151808452613f0f816020860160208601613ed6565b601f01601f19169290920160200192915050565b602081525f612bea6020830184613ef8565b5f60208284031215613f45575f80fd5b5035919050565b5f8060408385031215613f5d575f80fd5b613f6683613ea2565b946020939093013593505050565b60208152815160208201525f6020830151610100806040850152613f9c610120850183613ef8565b91506040850151613fb2606086018260ff169052565b506060850151601f1980868503016080870152613fcf8483613ef8565b935060808701519150808685030160a0870152613fec8483613ef8565b935060a08701519150808685030160c08701526140098483613ef8565b935060c08701519150808685030160e0870152506140278382613ef8565b92505060e085015161403c8286018215159052565b5090949350505050565b634e487b7160e01b5f52604160045260245ffd5b5f82601f830112614069575f80fd5b813567ffffffffffffffff8082111561408457614084614046565b604051601f8301601f19908116603f011681019082821181831017156140ac576140ac614046565b816040528381528660208588010111156140c4575f80fd5b836020870160208301375f602085830101528094505050505092915050565b803560ff81168114613eb8575f80fd5b5f805f805f8060c08789031215614108575f80fd5b863567ffffffffffffffff8082111561411f575f80fd5b61412b8a838b0161405a565b975061413960208a016140e3565b9650604089013591508082111561414e575f80fd5b61415a8a838b0161405a565b9550606089013591508082111561416f575f80fd5b61417b8a838b0161405a565b94506080890135915080821115614190575f80fd5b61419c8a838b0161405a565b935060a08901359150808211156141b1575f80fd5b506141be89828a0161405a565b9150509295509295509295565b5f805f606084860312156141dd575f80fd5b6141e684613ea2565b92506141f460208501613ea2565b9150604084013590509250925092565b5f805f805f60a08688031215614218575f80fd5b853567ffffffffffffffff8082111561422f575f80fd5b61423b89838a0161405a565b9650614249602089016140e3565b9550604088013591508082111561425e575f80fd5b61426a89838a0161405a565b9450606088013591508082111561427f575f80fd5b61428b89838a0161405a565b935060808801359150808211156142a0575f80fd5b506142ad8882890161405a565b9150509295509295909350565b5f80604083850312156142cb575f80fd5b6142d483613ea2565b9150602083013567ffffffffffffffff8111156142ef575f80fd5b6142fb8582860161405a565b9150509250929050565b5f8060408385031215614316575f80fd5b61431f83613ea2565b915060208301358015158114614333575f80fd5b809150509250929050565b5f805f8060808587031215614351575f80fd5b61435a85613ea2565b935061436860208601613ea2565b925060408501359150606085013567ffffffffffffffff81111561438a575f80fd5b6143968782880161405a565b91505092959194509250565b5f6101008a83528060208401526143bb8184018b613ef8565b905060ff8916604084015282810360608401526143d88189613ef8565b905082810360808401526143ec8188613ef8565b905082810360a08401526144008187613ef8565b905082810360c08401526144148186613ef8565b91505082151560e08301529998505050505050505050565b5f6020828403121561443c575f80fd5b813567ffffffffffffffff811115614452575f80fd5b613ddf8482850161405a565b5f806040838503121561446f575f80fd5b61447883613ea2565b915061448660208401613ea2565b90509250929050565b600181811c908216806144a357607f821691505b6020821081036144c157634e487b7160e01b5f52602260045260245ffd5b50919050565b5f82516144d8818460208701613ed6565b9190910192915050565b5f8083546144ef8161448f565b60018281168015614507576001811461451c57614548565b60ff1984168752821515830287019450614548565b875f526020805f205f5b8581101561453f5781548a820152908401908201614526565b50505082870194505b50929695505050505050565b601f82111561131457805f5260205f20601f840160051c810160208510156145795750805b601f840160051c820191505b818110156122d5575f8155600101614585565b815167ffffffffffffffff8111156145b2576145b2614046565b6145c6816145c0845461448f565b84614554565b602080601f8311600181146145f9575f84156145e25750858301515b5f19600386901b1c1916600185901b178555613aee565b5f85815260208120601f198616915b8281101561462757888601518255948401946001909101908401614608565b508582101561464457878501515f19600388901b60f8161c191681555b5050505050600190811b01905550565b60c081525f61466660c0830189613ef8565b602060ff89168185015283820360408501526146828289613ef8565b915083820360608501526146968288613ef8565b915083820360808501526146aa8287613ef8565b915083820360a08501525f85546146c08161448f565b808552600182811680156146db57600181146146f557614720565b60ff1984168787015282151560051b870186019450614720565b895f52855f205f5b848110156147185781548982018901529083019087016146fd565b880187019550505b50929d9c50505050505050505050505050565b634e487b7160e01b5f52601160045260245ffd5b5f6001820161475857614758614733565b5060010190565b828152604060208201525f613ddf6040830184613ef8565b604081525f6147896040830185613ef8565b90506001600160a01b03831660208301529392505050565b5f83516147b2818460208801613ed6565b8351908301906147c6818360208801613ed6565b01949350505050565b634e487b7160e01b5f52603260045260245ffd5b818103818111156107a8576107a8614733565b60ff81811683821601908111156107a8576107a8614733565b5f6020828403121561481f575f80fd5b5051919050565b5f6001600160a01b03808716835280861660208401525083604083015260806060830152612deb6080830184613ef8565b5f60208284031215614867575f80fd5b8151612bea81613e7256fea26469706673582212204ea19458595fbcd094cf9dd6b38139cc86fd2a1092aefa59163ff7dbf01a51cc64736f6c63430008160033","opcodes":"PUSH1 0xA0 PUSH1 0x40 MSTORE ADDRESS PUSH1 0x80 MSTORE CALLVALUE DUP1 ISZERO PUSH2 0x13 JUMPI PUSH0 DUP1 REVERT JUMPDEST POP PUSH1 0x80 MLOAD PUSH2 0x48A8 PUSH2 0x3A PUSH0 CODECOPY PUSH0 DUP2 DUP2 PUSH2 0x306B ADD MSTORE DUP2 DUP2 PUSH2 0x3094 ADD MSTORE PUSH2 0x3212 ADD MSTORE PUSH2 0x48A8 PUSH0 RETURN INVALID PUSH1 0x80 PUSH1 0x40 MSTORE PUSH1 0x4 CALLDATASIZE LT PUSH2 0x20F JUMPI PUSH0 CALLDATALOAD PUSH1 0xE0 SHR DUP1 PUSH4 0x6D4540EB GT PUSH2 0x117 JUMPI DUP1 PUSH4 0xA22CB465 GT PUSH2 0xAC JUMPI DUP1 PUSH4 0xC5CAEA01 GT PUSH2 0x7C JUMPI DUP1 PUSH4 0xDF3CDAD7 GT PUSH2 0x62 JUMPI DUP1 PUSH4 0xDF3CDAD7 EQ PUSH2 0x66E JUMPI DUP1 PUSH4 0xE985E9C5 EQ PUSH2 0x68D JUMPI DUP1 PUSH4 0xF2FDE38B EQ PUSH2 0x6F3 JUMPI PUSH0 DUP1 REVERT JUMPDEST DUP1 PUSH4 0xC5CAEA01 EQ PUSH2 0x630 JUMPI DUP1 PUSH4 0xC87B56DD EQ PUSH2 0x64F JUMPI PUSH0 DUP1 REVERT JUMPDEST DUP1 PUSH4 0xA22CB465 EQ PUSH2 0x57C JUMPI DUP1 PUSH4 0xAD3CB1CC EQ PUSH2 0x59B JUMPI DUP1 PUSH4 0xB88D4FDE EQ PUSH2 0x5E3 JUMPI DUP1 PUSH4 0xBBE15627 EQ PUSH2 0x5FD JUMPI PUSH0 DUP1 REVERT JUMPDEST DUP1 PUSH4 0x8129FC1C GT PUSH2 0xE7 JUMPI DUP1 PUSH4 0x8129FC1C EQ PUSH2 0x4F9 JUMPI DUP1 PUSH4 0x8DA5CB5B EQ PUSH2 0x50D JUMPI DUP1 PUSH4 0x95D89B41 EQ PUSH2 0x549 JUMPI DUP1 PUSH4 0x9E385DFB EQ PUSH2 0x55D JUMPI PUSH0 DUP1 REVERT JUMPDEST DUP1 PUSH4 0x6D4540EB EQ PUSH2 0x493 JUMPI DUP1 PUSH4 0x70A08231 EQ PUSH2 0x4A7 JUMPI DUP1 PUSH4 0x715018A6 EQ PUSH2 0x4C6 JUMPI DUP1 PUSH4 0x7B09A6E3 EQ PUSH2 0x4DA JUMPI PUSH0 DUP1 REVERT JUMPDEST DUP1 PUSH4 0x2182D9D7 GT PUSH2 0x1A7 JUMPI DUP1 PUSH4 0x4F1EF286 GT PUSH2 0x177 JUMPI DUP1 PUSH4 0x53964B19 GT PUSH2 0x15D JUMPI DUP1 PUSH4 0x53964B19 EQ PUSH2 0x42A JUMPI DUP1 PUSH4 0x6352211E EQ PUSH2 0x449 JUMPI DUP1 PUSH4 0x6511BF2E EQ PUSH2 0x468 JUMPI PUSH0 DUP1 REVERT JUMPDEST DUP1 PUSH4 0x4F1EF286 EQ PUSH2 0x3F5 JUMPI DUP1 PUSH4 0x52D1902D EQ PUSH2 0x408 JUMPI PUSH0 DUP1 REVERT JUMPDEST DUP1 PUSH4 0x2182D9D7 EQ PUSH2 0x379 JUMPI DUP1 PUSH4 0x23B872DD EQ PUSH2 0x398 JUMPI DUP1 PUSH4 0x42842E0E EQ PUSH2 0x3B7 JUMPI DUP1 PUSH4 0x4AB491B6 EQ PUSH2 0x3D6 JUMPI PUSH0 DUP1 REVERT JUMPDEST DUP1 PUSH4 0x8BB76A5 GT PUSH2 0x1E2 JUMPI DUP1 PUSH4 0x8BB76A5 EQ PUSH2 0x2D9 JUMPI DUP1 PUSH4 0x95EA7B3 EQ PUSH2 0x30D JUMPI DUP1 PUSH4 0xF53A470 EQ PUSH2 0x32E JUMPI DUP1 PUSH4 0x10EA2271 EQ PUSH2 0x35A JUMPI PUSH0 DUP1 REVERT JUMPDEST DUP1 PUSH4 0x1FFC9A7 EQ PUSH2 0x213 JUMPI DUP1 PUSH4 0x5CFA06F EQ PUSH2 0x247 JUMPI DUP1 PUSH4 0x6FDDE03 EQ PUSH2 0x281 JUMPI DUP1 PUSH4 0x81812FC EQ PUSH2 0x2A2 JUMPI JUMPDEST PUSH0 DUP1 REVERT JUMPDEST CALLVALUE DUP1 ISZERO PUSH2 0x21E JUMPI PUSH0 DUP1 REVERT JUMPDEST POP PUSH2 0x232 PUSH2 0x22D CALLDATASIZE PUSH1 0x4 PUSH2 0x3E87 JUMP JUMPDEST PUSH2 0x712 JUMP JUMPDEST PUSH1 0x40 MLOAD SWAP1 ISZERO ISZERO DUP2 MSTORE PUSH1 0x20 ADD JUMPDEST PUSH1 0x40 MLOAD DUP1 SWAP2 SUB SWAP1 RETURN JUMPDEST CALLVALUE DUP1 ISZERO PUSH2 0x252 JUMPI PUSH0 DUP1 REVERT JUMPDEST POP PUSH2 0x232 PUSH2 0x261 CALLDATASIZE PUSH1 0x4 PUSH2 0x3EBD JUMP JUMPDEST PUSH1 0x1 PUSH1 0x1 PUSH1 0xA0 SHL SUB AND PUSH0 SWAP1 DUP2 MSTORE PUSH1 0x1 PUSH1 0x20 MSTORE PUSH1 0x40 SWAP1 KECCAK256 PUSH1 0x7 ADD SLOAD PUSH1 0xFF AND SWAP1 JUMP JUMPDEST CALLVALUE DUP1 ISZERO PUSH2 0x28C JUMPI PUSH0 DUP1 REVERT JUMPDEST POP PUSH2 0x295 PUSH2 0x7AE JUMP JUMPDEST PUSH1 0x40 MLOAD PUSH2 0x23E SWAP2 SWAP1 PUSH2 0x3F23 JUMP JUMPDEST CALLVALUE DUP1 ISZERO PUSH2 0x2AD JUMPI PUSH0 DUP1 REVERT JUMPDEST POP PUSH2 0x2C1 PUSH2 0x2BC CALLDATASIZE PUSH1 0x4 PUSH2 0x3F35 JUMP JUMPDEST PUSH2 0x862 JUMP JUMPDEST PUSH1 0x40 MLOAD PUSH1 0x1 PUSH1 0x1 PUSH1 0xA0 SHL SUB SWAP1 SWAP2 AND DUP2 MSTORE PUSH1 0x20 ADD PUSH2 0x23E JUMP JUMPDEST CALLVALUE DUP1 ISZERO PUSH2 0x2E4 JUMPI PUSH0 DUP1 REVERT JUMPDEST POP PUSH2 0x2C1 PUSH2 0x2F3 CALLDATASIZE PUSH1 0x4 PUSH2 0x3F35 JUMP JUMPDEST PUSH1 0x3 PUSH1 0x20 MSTORE PUSH0 SWAP1 DUP2 MSTORE PUSH1 0x40 SWAP1 KECCAK256 SLOAD PUSH1 0x1 PUSH1 0x1 PUSH1 0xA0 SHL SUB AND DUP2 JUMP JUMPDEST CALLVALUE DUP1 ISZERO PUSH2 0x318 JUMPI PUSH0 DUP1 REVERT JUMPDEST POP PUSH2 0x32C PUSH2 0x327 CALLDATASIZE PUSH1 0x4 PUSH2 0x3F4C JUMP JUMPDEST PUSH2 0x8A8 JUMP JUMPDEST STOP JUMPDEST CALLVALUE DUP1 ISZERO PUSH2 0x339 JUMPI PUSH0 DUP1 REVERT JUMPDEST POP PUSH2 0x34D PUSH2 0x348 CALLDATASIZE PUSH1 0x4 PUSH2 0x3EBD JUMP JUMPDEST PUSH2 0x8B7 JUMP JUMPDEST PUSH1 0x40 MLOAD PUSH2 0x23E SWAP2 SWAP1 PUSH2 0x3F74 JUMP JUMPDEST CALLVALUE DUP1 ISZERO PUSH2 0x365 JUMPI PUSH0 DUP1 REVERT JUMPDEST POP PUSH2 0x32C PUSH2 0x374 CALLDATASIZE PUSH1 0x4 PUSH2 0x40F3 JUMP JUMPDEST PUSH2 0xC24 JUMP JUMPDEST CALLVALUE DUP1 ISZERO PUSH2 0x384 JUMPI PUSH0 DUP1 REVERT JUMPDEST POP PUSH2 0x32C PUSH2 0x393 CALLDATASIZE PUSH1 0x4 PUSH2 0x3EBD JUMP JUMPDEST PUSH2 0x11D9 JUMP JUMPDEST CALLVALUE DUP1 ISZERO PUSH2 0x3A3 JUMPI PUSH0 DUP1 REVERT JUMPDEST POP PUSH2 0x32C PUSH2 0x3B2 CALLDATASIZE PUSH1 0x4 PUSH2 0x41CB JUMP JUMPDEST PUSH2 0x12B2 JUMP JUMPDEST CALLVALUE DUP1 ISZERO PUSH2 0x3C2 JUMPI PUSH0 DUP1 REVERT JUMPDEST POP PUSH2 0x32C PUSH2 0x3D1 CALLDATASIZE PUSH1 0x4 PUSH2 0x41CB JUMP JUMPDEST PUSH2 0x12FA JUMP JUMPDEST CALLVALUE DUP1 ISZERO PUSH2 0x3E1 JUMPI PUSH0 DUP1 REVERT JUMPDEST POP PUSH2 0x32C PUSH2 0x3F0 CALLDATASIZE PUSH1 0x4 PUSH2 0x4204 JUMP JUMPDEST PUSH2 0x1319 JUMP JUMPDEST PUSH2 0x32C PUSH2 0x403 CALLDATASIZE PUSH1 0x4 PUSH2 0x42BA JUMP JUMPDEST PUSH2 0x172F JUMP JUMPDEST CALLVALUE DUP1 ISZERO PUSH2 0x413 JUMPI PUSH0 DUP1 REVERT JUMPDEST POP PUSH2 0x41C PUSH2 0x174A JUMP JUMPDEST PUSH1 0x40 MLOAD SWAP1 DUP2 MSTORE PUSH1 0x20 ADD PUSH2 0x23E JUMP JUMPDEST CALLVALUE DUP1 ISZERO PUSH2 0x435 JUMPI PUSH0 DUP1 REVERT JUMPDEST POP PUSH1 0x6 SLOAD PUSH2 0x2C1 SWAP1 PUSH1 0x1 PUSH1 0x1 PUSH1 0xA0 SHL SUB AND DUP2 JUMP JUMPDEST CALLVALUE DUP1 ISZERO PUSH2 0x454 JUMPI PUSH0 DUP1 REVERT JUMPDEST POP PUSH2 0x2C1 PUSH2 0x463 CALLDATASIZE PUSH1 0x4 PUSH2 0x3F35 JUMP JUMPDEST PUSH2 0x1778 JUMP JUMPDEST CALLVALUE DUP1 ISZERO PUSH2 0x473 JUMPI PUSH0 DUP1 REVERT JUMPDEST POP PUSH2 0x41C PUSH2 0x482 CALLDATASIZE PUSH1 0x4 PUSH2 0x3EBD JUMP JUMPDEST PUSH1 0x2 PUSH1 0x20 MSTORE PUSH0 SWAP1 DUP2 MSTORE PUSH1 0x40 SWAP1 KECCAK256 SLOAD DUP2 JUMP JUMPDEST CALLVALUE DUP1 ISZERO PUSH2 0x49E JUMPI PUSH0 DUP1 REVERT JUMPDEST POP PUSH2 0x32C PUSH2 0x1782 JUMP JUMPDEST CALLVALUE DUP1 ISZERO PUSH2 0x4B2 JUMPI PUSH0 DUP1 REVERT JUMPDEST POP PUSH2 0x41C PUSH2 0x4C1 CALLDATASIZE PUSH1 0x4 PUSH2 0x3EBD JUMP JUMPDEST PUSH2 0x1CD2 JUMP JUMPDEST CALLVALUE DUP1 ISZERO PUSH2 0x4D1 JUMPI PUSH0 DUP1 REVERT JUMPDEST POP PUSH2 0x32C PUSH2 0x1D56 JUMP JUMPDEST CALLVALUE DUP1 ISZERO PUSH2 0x4E5 JUMPI PUSH0 DUP1 REVERT JUMPDEST POP PUSH2 0x34D PUSH2 0x4F4 CALLDATASIZE PUSH1 0x4 PUSH2 0x3F35 JUMP JUMPDEST PUSH2 0x1D69 JUMP JUMPDEST CALLVALUE DUP1 ISZERO PUSH2 0x504 JUMPI PUSH0 DUP1 REVERT JUMPDEST POP PUSH2 0x32C PUSH2 0x213B JUMP JUMPDEST CALLVALUE DUP1 ISZERO PUSH2 0x518 JUMPI PUSH0 DUP1 REVERT JUMPDEST POP PUSH32 0x9016D09D72D40FDAE2FD8CEAC6B6234C7706214FD39C1CD1E609A0528C199300 SLOAD PUSH1 0x1 PUSH1 0x1 PUSH1 0xA0 SHL SUB AND PUSH2 0x2C1 JUMP JUMPDEST CALLVALUE DUP1 ISZERO PUSH2 0x554 JUMPI PUSH0 DUP1 REVERT JUMPDEST POP PUSH2 0x295 PUSH2 0x22DC JUMP JUMPDEST CALLVALUE DUP1 ISZERO PUSH2 0x568 JUMPI PUSH0 DUP1 REVERT JUMPDEST POP PUSH2 0x32C PUSH2 0x577 CALLDATASIZE PUSH1 0x4 PUSH2 0x4204 JUMP JUMPDEST PUSH2 0x232D JUMP JUMPDEST CALLVALUE DUP1 ISZERO PUSH2 0x587 JUMPI PUSH0 DUP1 REVERT JUMPDEST POP PUSH2 0x32C PUSH2 0x596 CALLDATASIZE PUSH1 0x4 PUSH2 0x4305 JUMP JUMPDEST PUSH2 0x285C JUMP JUMPDEST CALLVALUE DUP1 ISZERO PUSH2 0x5A6 JUMPI PUSH0 DUP1 REVERT JUMPDEST POP PUSH2 0x295 PUSH1 0x40 MLOAD DUP1 PUSH1 0x40 ADD PUSH1 0x40 MSTORE DUP1 PUSH1 0x5 DUP2 MSTORE PUSH1 0x20 ADD PUSH32 0x352E302E30000000000000000000000000000000000000000000000000000000 DUP2 MSTORE POP DUP2 JUMP JUMPDEST CALLVALUE DUP1 ISZERO PUSH2 0x5EE JUMPI PUSH0 DUP1 REVERT JUMPDEST POP PUSH2 0x32C PUSH2 0x3B2 CALLDATASIZE PUSH1 0x4 PUSH2 0x433E JUMP JUMPDEST CALLVALUE DUP1 ISZERO PUSH2 0x608 JUMPI PUSH0 DUP1 REVERT JUMPDEST POP PUSH2 0x61C PUSH2 0x617 CALLDATASIZE PUSH1 0x4 PUSH2 0x3EBD JUMP JUMPDEST PUSH2 0x2867 JUMP JUMPDEST PUSH1 0x40 MLOAD PUSH2 0x23E SWAP9 SWAP8 SWAP7 SWAP6 SWAP5 SWAP4 SWAP3 SWAP2 SWAP1 PUSH2 0x43A2 JUMP JUMPDEST CALLVALUE DUP1 ISZERO PUSH2 0x63B JUMPI PUSH0 DUP1 REVERT JUMPDEST POP PUSH2 0x2C1 PUSH2 0x64A CALLDATASIZE PUSH1 0x4 PUSH2 0x442C JUMP JUMPDEST PUSH2 0x2B50 JUMP JUMPDEST CALLVALUE DUP1 ISZERO PUSH2 0x65A JUMPI PUSH0 DUP1 REVERT JUMPDEST POP PUSH2 0x295 PUSH2 0x669 CALLDATASIZE PUSH1 0x4 PUSH2 0x3F35 JUMP JUMPDEST PUSH2 0x2B80 JUMP JUMPDEST CALLVALUE DUP1 ISZERO PUSH2 0x679 JUMPI PUSH0 DUP1 REVERT JUMPDEST POP PUSH2 0x232 PUSH2 0x688 CALLDATASIZE PUSH1 0x4 PUSH2 0x442C JUMP JUMPDEST PUSH2 0x2BF1 JUMP JUMPDEST CALLVALUE DUP1 ISZERO PUSH2 0x698 JUMPI PUSH0 DUP1 REVERT JUMPDEST POP PUSH2 0x232 PUSH2 0x6A7 CALLDATASIZE PUSH1 0x4 PUSH2 0x445E JUMP JUMPDEST PUSH1 0x1 PUSH1 0x1 PUSH1 0xA0 SHL SUB SWAP2 DUP3 AND PUSH0 SWAP1 DUP2 MSTORE PUSH32 0x80BB2B638CC20BC4D0A60D66940F3AB4A00C1D7B313497CA82FB0B4AB0079305 PUSH1 0x20 SWAP1 DUP2 MSTORE PUSH1 0x40 DUP1 DUP4 KECCAK256 SWAP4 SWAP1 SWAP5 AND DUP3 MSTORE SWAP2 SWAP1 SWAP2 MSTORE KECCAK256 SLOAD PUSH1 0xFF AND SWAP1 JUMP JUMPDEST CALLVALUE DUP1 ISZERO PUSH2 0x6FE JUMPI PUSH0 DUP1 REVERT JUMPDEST POP PUSH2 0x32C PUSH2 0x70D CALLDATASIZE PUSH1 0x4 PUSH2 0x3EBD JUMP JUMPDEST PUSH2 0x2C1B JUMP JUMPDEST PUSH0 PUSH1 0x1 PUSH1 0x1 PUSH1 0xE0 SHL SUB NOT DUP3 AND PUSH32 0x80AC58CD00000000000000000000000000000000000000000000000000000000 EQ DUP1 PUSH2 0x774 JUMPI POP PUSH1 0x1 PUSH1 0x1 PUSH1 0xE0 SHL SUB NOT DUP3 AND PUSH32 0x5B5E139F00000000000000000000000000000000000000000000000000000000 EQ JUMPDEST DUP1 PUSH2 0x7A8 JUMPI POP PUSH32 0x1FFC9A700000000000000000000000000000000000000000000000000000000 PUSH1 0x1 PUSH1 0x1 PUSH1 0xE0 SHL SUB NOT DUP4 AND EQ JUMPDEST SWAP3 SWAP2 POP POP JUMP JUMPDEST PUSH32 0x80BB2B638CC20BC4D0A60D66940F3AB4A00C1D7B313497CA82FB0B4AB0079300 DUP1 SLOAD PUSH1 0x60 SWAP2 SWAP1 DUP2 SWAP1 PUSH2 0x7E0 SWAP1 PUSH2 0x448F JUMP JUMPDEST DUP1 PUSH1 0x1F ADD PUSH1 0x20 DUP1 SWAP2 DIV MUL PUSH1 0x20 ADD PUSH1 0x40 MLOAD SWAP1 DUP2 ADD PUSH1 0x40 MSTORE DUP1 SWAP3 SWAP2 SWAP1 DUP2 DUP2 MSTORE PUSH1 0x20 ADD DUP3 DUP1 SLOAD PUSH2 0x80C SWAP1 PUSH2 0x448F JUMP JUMPDEST DUP1 ISZERO PUSH2 0x857 JUMPI DUP1 PUSH1 0x1F LT PUSH2 0x82E JUMPI PUSH2 0x100 DUP1 DUP4 SLOAD DIV MUL DUP4 MSTORE SWAP2 PUSH1 0x20 ADD SWAP2 PUSH2 0x857 JUMP JUMPDEST DUP3 ADD SWAP2 SWAP1 PUSH0 MSTORE PUSH1 0x20 PUSH0 KECCAK256 SWAP1 JUMPDEST DUP2 SLOAD DUP2 MSTORE SWAP1 PUSH1 0x1 ADD SWAP1 PUSH1 0x20 ADD DUP1 DUP4 GT PUSH2 0x83A JUMPI DUP3 SWAP1 SUB PUSH1 0x1F AND DUP3 ADD SWAP2 JUMPDEST POP POP POP POP POP SWAP2 POP POP SWAP1 JUMP JUMPDEST PUSH0 PUSH2 0x86C DUP3 PUSH2 0x2C71 JUMP JUMPDEST POP PUSH0 DUP3 DUP2 MSTORE PUSH32 0x80BB2B638CC20BC4D0A60D66940F3AB4A00C1D7B313497CA82FB0B4AB0079304 PUSH1 0x20 MSTORE PUSH1 0x40 SWAP1 KECCAK256 SLOAD PUSH1 0x1 PUSH1 0x1 PUSH1 0xA0 SHL SUB AND PUSH2 0x7A8 JUMP JUMPDEST PUSH2 0x8B3 DUP3 DUP3 CALLER PUSH2 0x2CC8 JUMP JUMPDEST POP POP JUMP JUMPDEST PUSH2 0x901 PUSH1 0x40 MLOAD DUP1 PUSH2 0x100 ADD PUSH1 0x40 MSTORE DUP1 PUSH0 DUP2 MSTORE PUSH1 0x20 ADD PUSH1 0x60 DUP2 MSTORE PUSH1 0x20 ADD PUSH0 PUSH1 0xFF AND DUP2 MSTORE PUSH1 0x20 ADD PUSH1 0x60 DUP2 MSTORE PUSH1 0x20 ADD PUSH1 0x60 DUP2 MSTORE PUSH1 0x20 ADD PUSH1 0x60 DUP2 MSTORE PUSH1 0x20 ADD PUSH1 0x60 DUP2 MSTORE PUSH1 0x20 ADD PUSH0 ISZERO ISZERO DUP2 MSTORE POP SWAP1 JUMP JUMPDEST PUSH1 0x1 PUSH1 0x1 PUSH1 0xA0 SHL SUB DUP3 AND PUSH0 SWAP1 DUP2 MSTORE PUSH1 0x1 PUSH1 0x20 DUP2 DUP2 MSTORE PUSH1 0x40 SWAP3 DUP4 SWAP1 KECCAK256 DUP4 MLOAD PUSH2 0x100 DUP2 ADD SWAP1 SWAP5 MSTORE DUP1 SLOAD DUP5 MSTORE SWAP2 DUP3 ADD DUP1 SLOAD SWAP2 DUP5 ADD SWAP2 PUSH2 0x93C SWAP1 PUSH2 0x448F JUMP JUMPDEST DUP1 PUSH1 0x1F ADD PUSH1 0x20 DUP1 SWAP2 DIV MUL PUSH1 0x20 ADD PUSH1 0x40 MLOAD SWAP1 DUP2 ADD PUSH1 0x40 MSTORE DUP1 SWAP3 SWAP2 SWAP1 DUP2 DUP2 MSTORE PUSH1 0x20 ADD DUP3 DUP1 SLOAD PUSH2 0x968 SWAP1 PUSH2 0x448F JUMP JUMPDEST DUP1 ISZERO PUSH2 0x9B3 JUMPI DUP1 PUSH1 0x1F LT PUSH2 0x98A JUMPI PUSH2 0x100 DUP1 DUP4 SLOAD DIV MUL DUP4 MSTORE SWAP2 PUSH1 0x20 ADD SWAP2 PUSH2 0x9B3 JUMP JUMPDEST DUP3 ADD SWAP2 SWAP1 PUSH0 MSTORE PUSH1 0x20 PUSH0 KECCAK256 SWAP1 JUMPDEST DUP2 SLOAD DUP2 MSTORE SWAP1 PUSH1 0x1 ADD SWAP1 PUSH1 0x20 ADD DUP1 DUP4 GT PUSH2 0x996 JUMPI DUP3 SWAP1 SUB PUSH1 0x1F AND DUP3 ADD SWAP2 JUMPDEST POP POP POP SWAP2 DUP4 MSTORE POP POP PUSH1 0x2 DUP3 ADD SLOAD PUSH1 0xFF AND PUSH1 0x20 DUP3 ADD MSTORE PUSH1 0x3 DUP3 ADD DUP1 SLOAD PUSH1 0x40 SWAP1 SWAP3 ADD SWAP2 PUSH2 0x9DD SWAP1 PUSH2 0x448F JUMP JUMPDEST DUP1 PUSH1 0x1F ADD PUSH1 0x20 DUP1 SWAP2 DIV MUL PUSH1 0x20 ADD PUSH1 0x40 MLOAD SWAP1 DUP2 ADD PUSH1 0x40 MSTORE DUP1 SWAP3 SWAP2 SWAP1 DUP2 DUP2 MSTORE PUSH1 0x20 ADD DUP3 DUP1 SLOAD PUSH2 0xA09 SWAP1 PUSH2 0x448F JUMP JUMPDEST DUP1 ISZERO PUSH2 0xA54 JUMPI DUP1 PUSH1 0x1F LT PUSH2 0xA2B JUMPI PUSH2 0x100 DUP1 DUP4 SLOAD DIV MUL DUP4 MSTORE SWAP2 PUSH1 0x20 ADD SWAP2 PUSH2 0xA54 JUMP JUMPDEST DUP3 ADD SWAP2 SWAP1 PUSH0 MSTORE PUSH1 0x20 PUSH0 KECCAK256 SWAP1 JUMPDEST DUP2 SLOAD DUP2 MSTORE SWAP1 PUSH1 0x1 ADD SWAP1 PUSH1 0x20 ADD DUP1 DUP4 GT PUSH2 0xA37 JUMPI DUP3 SWAP1 SUB PUSH1 0x1F AND DUP3 ADD SWAP2 JUMPDEST POP POP POP POP POP DUP2 MSTORE PUSH1 0x20 ADD PUSH1 0x4 DUP3 ADD DUP1 SLOAD PUSH2 0xA6D SWAP1 PUSH2 0x448F JUMP JUMPDEST DUP1 PUSH1 0x1F ADD PUSH1 0x20 DUP1 SWAP2 DIV MUL PUSH1 0x20 ADD PUSH1 0x40 MLOAD SWAP1 DUP2 ADD PUSH1 0x40 MSTORE DUP1 SWAP3 SWAP2 SWAP1 DUP2 DUP2 MSTORE PUSH1 0x20 ADD DUP3 DUP1 SLOAD PUSH2 0xA99 SWAP1 PUSH2 0x448F JUMP JUMPDEST DUP1 ISZERO PUSH2 0xAE4 JUMPI DUP1 PUSH1 0x1F LT PUSH2 0xABB JUMPI PUSH2 0x100 DUP1 DUP4 SLOAD DIV MUL DUP4 MSTORE SWAP2 PUSH1 0x20 ADD SWAP2 PUSH2 0xAE4 JUMP JUMPDEST DUP3 ADD SWAP2 SWAP1 PUSH0 MSTORE PUSH1 0x20 PUSH0 KECCAK256 SWAP1 JUMPDEST DUP2 SLOAD DUP2 MSTORE SWAP1 PUSH1 0x1 ADD SWAP1 PUSH1 0x20 ADD DUP1 DUP4 GT PUSH2 0xAC7 JUMPI DUP3 SWAP1 SUB PUSH1 0x1F AND DUP3 ADD SWAP2 JUMPDEST POP POP POP POP POP DUP2 MSTORE PUSH1 0x20 ADD PUSH1 0x5 DUP3 ADD DUP1 SLOAD PUSH2 0xAFD SWAP1 PUSH2 0x448F JUMP JUMPDEST DUP1 PUSH1 0x1F ADD PUSH1 0x20 DUP1 SWAP2 DIV MUL PUSH1 0x20 ADD PUSH1 0x40 MLOAD SWAP1 DUP2 ADD PUSH1 0x40 MSTORE DUP1 SWAP3 SWAP2 SWAP1 DUP2 DUP2 MSTORE PUSH1 0x20 ADD DUP3 DUP1 SLOAD PUSH2 0xB29 SWAP1 PUSH2 0x448F JUMP JUMPDEST DUP1 ISZERO PUSH2 0xB74 JUMPI DUP1 PUSH1 0x1F LT PUSH2 0xB4B JUMPI PUSH2 0x100 DUP1 DUP4 SLOAD DIV MUL DUP4 MSTORE SWAP2 PUSH1 0x20 ADD SWAP2 PUSH2 0xB74 JUMP JUMPDEST DUP3 ADD SWAP2 SWAP1 PUSH0 MSTORE PUSH1 0x20 PUSH0 KECCAK256 SWAP1 JUMPDEST DUP2 SLOAD DUP2 MSTORE SWAP1 PUSH1 0x1 ADD SWAP1 PUSH1 0x20 ADD DUP1 DUP4 GT PUSH2 0xB57 JUMPI DUP3 SWAP1 SUB PUSH1 0x1F AND DUP3 ADD SWAP2 JUMPDEST POP POP POP POP POP DUP2 MSTORE PUSH1 0x20 ADD PUSH1 0x6 DUP3 ADD DUP1 SLOAD PUSH2 0xB8D SWAP1 PUSH2 0x448F JUMP JUMPDEST DUP1 PUSH1 0x1F ADD PUSH1 0x20 DUP1 SWAP2 DIV MUL PUSH1 0x20 ADD PUSH1 0x40 MLOAD SWAP1 DUP2 ADD PUSH1 0x40 MSTORE DUP1 SWAP3 SWAP2 SWAP1 DUP2 DUP2 MSTORE PUSH1 0x20 ADD DUP3 DUP1 SLOAD PUSH2 0xBB9 SWAP1 PUSH2 0x448F JUMP JUMPDEST DUP1 ISZERO PUSH2 0xC04 JUMPI DUP1 PUSH1 0x1F LT PUSH2 0xBDB JUMPI PUSH2 0x100 DUP1 DUP4 SLOAD DIV MUL DUP4 MSTORE SWAP2 PUSH1 0x20 ADD SWAP2 PUSH2 0xC04 JUMP JUMPDEST DUP3 ADD SWAP2 SWAP1 PUSH0 MSTORE PUSH1 0x20 PUSH0 KECCAK256 SWAP1 JUMPDEST DUP2 SLOAD DUP2 MSTORE SWAP1 PUSH1 0x1 ADD SWAP1 PUSH1 0x20 ADD DUP1 DUP4 GT PUSH2 0xBE7 JUMPI DUP3 SWAP1 SUB PUSH1 0x1F AND DUP3 ADD SWAP2 JUMPDEST POP POP POP SWAP2 DUP4 MSTORE POP POP PUSH1 0x7 SWAP2 SWAP1 SWAP2 ADD SLOAD PUSH1 0xFF AND ISZERO ISZERO PUSH1 0x20 SWAP1 SWAP2 ADD MSTORE SWAP3 SWAP2 POP POP JUMP JUMPDEST CALLER PUSH0 SWAP1 DUP2 MSTORE PUSH1 0x1 PUSH1 0x20 MSTORE PUSH1 0x40 SWAP1 KECCAK256 PUSH1 0x7 ADD SLOAD PUSH1 0xFF AND PUSH2 0xC8A JUMPI PUSH1 0x40 MLOAD PUSH3 0x461BCD PUSH1 0xE5 SHL DUP2 MSTORE PUSH1 0x20 PUSH1 0x4 DUP3 ADD MSTORE PUSH1 0x16 PUSH1 0x24 DUP3 ADD MSTORE PUSH32 0x50726F66696C6520646F6573206E6F7420657869737400000000000000000000 PUSH1 0x44 DUP3 ADD MSTORE PUSH1 0x64 ADD JUMPDEST PUSH1 0x40 MLOAD DUP1 SWAP2 SUB SWAP1 REVERT JUMPDEST PUSH1 0x12 DUP6 PUSH1 0xFF AND LT ISZERO PUSH2 0xCDE JUMPI PUSH1 0x40 MLOAD PUSH3 0x461BCD PUSH1 0xE5 SHL DUP2 MSTORE PUSH1 0x20 PUSH1 0x4 DUP3 ADD MSTORE PUSH1 0x13 PUSH1 0x24 DUP3 ADD MSTORE PUSH32 0x4D757374206265203138206F72206F6C64657200000000000000000000000000 PUSH1 0x44 DUP3 ADD MSTORE PUSH1 0x64 ADD PUSH2 0xC81 JUMP JUMPDEST PUSH1 0x78 DUP6 PUSH1 0xFF AND GT ISZERO PUSH2 0xD32 JUMPI PUSH1 0x40 MLOAD PUSH3 0x461BCD PUSH1 0xE5 SHL DUP2 MSTORE PUSH1 0x20 PUSH1 0x4 DUP3 ADD MSTORE PUSH1 0x15 PUSH1 0x24 DUP3 ADD MSTORE PUSH32 0x416765206D757374206265207265616C69737469630000000000000000000000 PUSH1 0x44 DUP3 ADD MSTORE PUSH1 0x64 ADD PUSH2 0xC81 JUMP JUMPDEST PUSH1 0x2 DUP7 MLOAD LT ISZERO DUP1 ISZERO PUSH2 0xD46 JUMPI POP PUSH1 0x64 DUP7 MLOAD GT ISZERO JUMPDEST PUSH2 0xD92 JUMPI PUSH1 0x40 MLOAD PUSH3 0x461BCD PUSH1 0xE5 SHL DUP2 MSTORE PUSH1 0x20 PUSH1 0x4 DUP3 ADD MSTORE PUSH1 0x1D PUSH1 0x24 DUP3 ADD MSTORE PUSH32 0x4E616D65206D75737420626520322D3130302063686172616374657273000000 PUSH1 0x44 DUP3 ADD MSTORE PUSH1 0x64 ADD PUSH2 0xC81 JUMP JUMPDEST PUSH0 DUP4 MLOAD GT DUP1 ISZERO PUSH2 0xDA5 JUMPI POP PUSH2 0x1F4 DUP4 MLOAD GT ISZERO JUMPDEST PUSH2 0xDFC JUMPI PUSH1 0x40 MLOAD PUSH3 0x461BCD PUSH1 0xE5 SHL DUP2 MSTORE PUSH1 0x20 PUSH1 0x4 DUP3 ADD MSTORE PUSH1 0x22 PUSH1 0x24 DUP3 ADD MSTORE PUSH32 0x496E74657265737473206D75737420626520312D353030206368617261637465 PUSH1 0x44 DUP3 ADD MSTORE PUSH2 0x7273 PUSH1 0xF0 SHL PUSH1 0x64 DUP3 ADD MSTORE PUSH1 0x84 ADD PUSH2 0xC81 JUMP JUMPDEST PUSH2 0x1F4 DUP3 MLOAD GT ISZERO PUSH2 0xE4F JUMPI PUSH1 0x40 MLOAD PUSH3 0x461BCD PUSH1 0xE5 SHL DUP2 MSTORE PUSH1 0x20 PUSH1 0x4 DUP3 ADD MSTORE PUSH1 0x12 PUSH1 0x24 DUP3 ADD MSTORE PUSH32 0x50686F746F2055524C20746F6F206C6F6E670000000000000000000000000000 PUSH1 0x44 DUP3 ADD MSTORE PUSH1 0x64 ADD PUSH2 0xC81 JUMP JUMPDEST PUSH0 DUP5 MLOAD GT DUP1 ISZERO PUSH2 0xE61 JUMPI POP PUSH1 0x32 DUP5 MLOAD GT ISZERO JUMPDEST PUSH2 0xEAD JUMPI PUSH1 0x40 MLOAD PUSH3 0x461BCD PUSH1 0xE5 SHL DUP2 MSTORE PUSH1 0x20 PUSH1 0x4 DUP3 ADD MSTORE PUSH1 0x14 PUSH1 0x24 DUP3 ADD MSTORE PUSH32 0x47656E646572206D7573742062652076616C6964000000000000000000000000 PUSH1 0x44 DUP3 ADD MSTORE PUSH1 0x64 ADD PUSH2 0xC81 JUMP JUMPDEST DUP1 MLOAD ISZERO PUSH2 0x1125 JUMPI PUSH2 0xEBD DUP2 PUSH2 0x2CD5 JUMP JUMPDEST PUSH2 0xF09 JUMPI PUSH1 0x40 MLOAD PUSH3 0x461BCD PUSH1 0xE5 SHL DUP2 MSTORE PUSH1 0x20 PUSH1 0x4 DUP3 ADD MSTORE PUSH1 0x14 PUSH1 0x24 DUP3 ADD MSTORE PUSH32 0x496E76616C696420656D61696C20666F726D6174000000000000000000000000 PUSH1 0x44 DUP3 ADD MSTORE PUSH1 0x64 ADD PUSH2 0xC81 JUMP JUMPDEST PUSH0 PUSH2 0xF13 DUP3 PUSH2 0x2DF5 JUMP JUMPDEST CALLER PUSH0 SWAP1 DUP2 MSTORE PUSH1 0x1 PUSH1 0x20 MSTORE PUSH1 0x40 SWAP1 KECCAK256 PUSH1 0x6 ADD DUP1 SLOAD SWAP2 SWAP3 POP PUSH2 0xFB8 SWAP2 PUSH2 0xF36 SWAP1 PUSH2 0x448F JUMP JUMPDEST DUP1 PUSH1 0x1F ADD PUSH1 0x20 DUP1 SWAP2 DIV MUL PUSH1 0x20 ADD PUSH1 0x40 MLOAD SWAP1 DUP2 ADD PUSH1 0x40 MSTORE DUP1 SWAP3 SWAP2 SWAP1 DUP2 DUP2 MSTORE PUSH1 0x20 ADD DUP3 DUP1 SLOAD PUSH2 0xF62 SWAP1 PUSH2 0x448F JUMP JUMPDEST DUP1 ISZERO PUSH2 0xFAD JUMPI DUP1 PUSH1 0x1F LT PUSH2 0xF84 JUMPI PUSH2 0x100 DUP1 DUP4 SLOAD DIV MUL DUP4 MSTORE SWAP2 PUSH1 0x20 ADD SWAP2 PUSH2 0xFAD JUMP JUMPDEST DUP3 ADD SWAP2 SWAP1 PUSH0 MSTORE PUSH1 0x20 PUSH0 KECCAK256 SWAP1 JUMPDEST DUP2 SLOAD DUP2 MSTORE SWAP1 PUSH1 0x1 ADD SWAP1 PUSH1 0x20 ADD DUP1 DUP4 GT PUSH2 0xF90 JUMPI DUP3 SWAP1 SUB PUSH1 0x1F AND DUP3 ADD SWAP2 JUMPDEST POP POP POP POP POP DUP3 PUSH2 0x2F7B JUMP JUMPDEST PUSH2 0x1107 JUMPI PUSH1 0x4 DUP2 PUSH1 0x40 MLOAD PUSH2 0xFCC SWAP2 SWAP1 PUSH2 0x44C7 JUMP JUMPDEST SWAP1 DUP2 MSTORE PUSH1 0x40 MLOAD SWAP1 DUP2 SWAP1 SUB PUSH1 0x20 ADD SWAP1 KECCAK256 SLOAD PUSH1 0xFF AND ISZERO PUSH2 0x102C JUMPI PUSH1 0x40 MLOAD PUSH3 0x461BCD PUSH1 0xE5 SHL DUP2 MSTORE PUSH1 0x20 PUSH1 0x4 DUP3 ADD MSTORE PUSH1 0x18 PUSH1 0x24 DUP3 ADD MSTORE PUSH32 0x456D61696C20616C726561647920726567697374657265640000000000000000 PUSH1 0x44 DUP3 ADD MSTORE PUSH1 0x64 ADD PUSH2 0xC81 JUMP JUMPDEST CALLER PUSH0 SWAP1 DUP2 MSTORE PUSH1 0x1 PUSH1 0x20 MSTORE PUSH1 0x40 DUP2 KECCAK256 PUSH1 0x6 ADD DUP1 SLOAD PUSH2 0x1048 SWAP1 PUSH2 0x448F JUMP JUMPDEST SWAP1 POP GT ISZERO PUSH2 0x1094 JUMPI CALLER PUSH0 SWAP1 DUP2 MSTORE PUSH1 0x1 PUSH1 0x20 MSTORE PUSH1 0x40 DUP1 DUP3 KECCAK256 SWAP1 MLOAD PUSH1 0x4 SWAP2 PUSH2 0x1073 SWAP2 PUSH1 0x6 SWAP1 SWAP2 ADD SWAP1 PUSH2 0x44E2 JUMP JUMPDEST SWAP1 DUP2 MSTORE PUSH1 0x40 MLOAD SWAP1 DUP2 SWAP1 SUB PUSH1 0x20 ADD SWAP1 KECCAK256 DUP1 SLOAD SWAP2 ISZERO ISZERO PUSH1 0xFF NOT SWAP1 SWAP3 AND SWAP2 SWAP1 SWAP2 OR SWAP1 SSTORE JUMPDEST PUSH1 0x1 PUSH1 0x4 DUP3 PUSH1 0x40 MLOAD PUSH2 0x10A6 SWAP2 SWAP1 PUSH2 0x44C7 JUMP JUMPDEST SWAP1 DUP2 MSTORE PUSH1 0x40 MLOAD SWAP1 DUP2 SWAP1 SUB PUSH1 0x20 ADD DUP2 KECCAK256 DUP1 SLOAD SWAP3 ISZERO ISZERO PUSH1 0xFF NOT SWAP1 SWAP4 AND SWAP3 SWAP1 SWAP3 OR SWAP1 SWAP2 SSTORE CALLER SWAP1 PUSH1 0x5 SWAP1 PUSH2 0x10D7 SWAP1 DUP5 SWAP1 PUSH2 0x44C7 JUMP JUMPDEST SWAP1 DUP2 MSTORE PUSH1 0x40 MLOAD SWAP1 DUP2 SWAP1 SUB PUSH1 0x20 ADD SWAP1 KECCAK256 DUP1 SLOAD PUSH1 0x1 PUSH1 0x1 PUSH1 0xA0 SHL SUB SWAP3 SWAP1 SWAP3 AND PUSH1 0x1 PUSH1 0x1 PUSH1 0xA0 SHL SUB NOT SWAP1 SWAP3 AND SWAP2 SWAP1 SWAP2 OR SWAP1 SSTORE JUMPDEST CALLER PUSH0 SWAP1 DUP2 MSTORE PUSH1 0x1 PUSH1 0x20 MSTORE PUSH1 0x40 SWAP1 KECCAK256 PUSH1 0x6 ADD PUSH2 0x1122 DUP3 DUP3 PUSH2 0x4598 JUMP JUMPDEST POP POP JUMPDEST CALLER PUSH0 SWAP1 DUP2 MSTORE PUSH1 0x1 PUSH1 0x20 DUP2 SWAP1 MSTORE PUSH1 0x40 SWAP1 SWAP2 KECCAK256 SWAP1 DUP2 ADD PUSH2 0x1143 DUP9 DUP3 PUSH2 0x4598 JUMP JUMPDEST POP PUSH1 0x2 DUP2 ADD DUP1 SLOAD PUSH1 0xFF NOT AND PUSH1 0xFF DUP9 AND OR SWAP1 SSTORE PUSH1 0x3 DUP2 ADD PUSH2 0x1163 DUP7 DUP3 PUSH2 0x4598 JUMP JUMPDEST POP PUSH1 0x4 DUP2 ADD PUSH2 0x1172 DUP6 DUP3 PUSH2 0x4598 JUMP JUMPDEST POP PUSH1 0x5 DUP2 ADD PUSH2 0x1181 DUP5 DUP3 PUSH2 0x4598 JUMP JUMPDEST POP CALLER PUSH1 0x1 PUSH1 0x1 PUSH1 0xA0 SHL SUB AND PUSH32 0xFF05E84FCE958EF60921C414197D065753ED947B0D3460DDEF8244C534C916DA DUP9 DUP9 DUP9 DUP9 DUP9 DUP8 PUSH1 0x6 ADD PUSH1 0x40 MLOAD PUSH2 0x11C8 SWAP7 SWAP6 SWAP5 SWAP4 SWAP3 SWAP2 SWAP1 PUSH2 0x4654 JUMP JUMPDEST PUSH1 0x40 MLOAD DUP1 SWAP2 SUB SWAP1 LOG2 POP POP POP POP POP POP POP JUMP JUMPDEST PUSH2 0x11E1 PUSH2 0x2FD3 JUMP JUMPDEST PUSH1 0x6 SLOAD PUSH1 0x1 PUSH1 0x1 PUSH1 0xA0 SHL SUB AND ISZERO PUSH2 0x123A JUMPI PUSH1 0x40 MLOAD PUSH3 0x461BCD PUSH1 0xE5 SHL DUP2 MSTORE PUSH1 0x20 PUSH1 0x4 DUP3 ADD MSTORE PUSH1 0x1D PUSH1 0x24 DUP3 ADD MSTORE PUSH32 0x4D61746368696E6720636F6E747261637420616C726561647920736574000000 PUSH1 0x44 DUP3 ADD MSTORE PUSH1 0x64 ADD PUSH2 0xC81 JUMP JUMPDEST PUSH1 0x1 PUSH1 0x1 PUSH1 0xA0 SHL SUB DUP2 AND PUSH2 0x1290 JUMPI PUSH1 0x40 MLOAD PUSH3 0x461BCD PUSH1 0xE5 SHL DUP2 MSTORE PUSH1 0x20 PUSH1 0x4 DUP3 ADD MSTORE PUSH1 0xF PUSH1 0x24 DUP3 ADD MSTORE PUSH32 0x496E76616C696420616464726573730000000000000000000000000000000000 PUSH1 0x44 DUP3 ADD MSTORE PUSH1 0x64 ADD PUSH2 0xC81 JUMP JUMPDEST PUSH1 0x6 DUP1 SLOAD PUSH1 0x1 PUSH1 0x1 PUSH1 0xA0 SHL SUB NOT AND PUSH1 0x1 PUSH1 0x1 PUSH1 0xA0 SHL SUB SWAP3 SWAP1 SWAP3 AND SWAP2 SWAP1 SWAP2 OR SWAP1 SSTORE JUMP JUMPDEST PUSH1 0x40 MLOAD PUSH3 0x461BCD PUSH1 0xE5 SHL DUP2 MSTORE PUSH1 0x20 PUSH1 0x4 DUP3 ADD MSTORE PUSH1 0x1F PUSH1 0x24 DUP3 ADD MSTORE PUSH32 0x536F756C626F756E643A205472616E73666572206E6F7420616C6C6F77656400 PUSH1 0x44 DUP3 ADD MSTORE PUSH1 0x64 ADD PUSH2 0xC81 JUMP JUMPDEST PUSH2 0x1314 DUP4 DUP4 DUP4 PUSH1 0x40 MLOAD DUP1 PUSH1 0x20 ADD PUSH1 0x40 MSTORE DUP1 PUSH0 DUP2 MSTORE POP PUSH2 0x12B2 JUMP JUMPDEST POP POP POP JUMP JUMPDEST CALLER PUSH0 SWAP1 DUP2 MSTORE PUSH1 0x1 PUSH1 0x20 MSTORE PUSH1 0x40 SWAP1 KECCAK256 PUSH1 0x7 ADD SLOAD PUSH1 0xFF AND ISZERO PUSH2 0x137B JUMPI PUSH1 0x40 MLOAD PUSH3 0x461BCD PUSH1 0xE5 SHL DUP2 MSTORE PUSH1 0x20 PUSH1 0x4 DUP3 ADD MSTORE PUSH1 0x16 PUSH1 0x24 DUP3 ADD MSTORE PUSH32 0x50726F66696C6520616C72656164792065786973747300000000000000000000 PUSH1 0x44 DUP3 ADD MSTORE PUSH1 0x64 ADD PUSH2 0xC81 JUMP JUMPDEST PUSH1 0x12 DUP5 PUSH1 0xFF AND LT ISZERO PUSH2 0x13CF JUMPI PUSH1 0x40 MLOAD PUSH3 0x461BCD PUSH1 0xE5 SHL DUP2 MSTORE PUSH1 0x20 PUSH1 0x4 DUP3 ADD MSTORE PUSH1 0x13 PUSH1 0x24 DUP3 ADD MSTORE PUSH32 0x4D757374206265203138206F72206F6C64657200000000000000000000000000 PUSH1 0x44 DUP3 ADD MSTORE PUSH1 0x64 ADD PUSH2 0xC81 JUMP JUMPDEST PUSH1 0x78 DUP5 PUSH1 0xFF AND GT ISZERO PUSH2 0x1423 JUMPI PUSH1 0x40 MLOAD PUSH3 0x461BCD PUSH1 0xE5 SHL DUP2 MSTORE PUSH1 0x20 PUSH1 0x4 DUP3 ADD MSTORE PUSH1 0x15 PUSH1 0x24 DUP3 ADD MSTORE PUSH32 0x416765206D757374206265207265616C69737469630000000000000000000000 PUSH1 0x44 DUP3 ADD MSTORE PUSH1 0x64 ADD PUSH2 0xC81 JUMP JUMPDEST PUSH1 0x2 DUP6 MLOAD LT ISZERO DUP1 ISZERO PUSH2 0x1437 JUMPI POP PUSH1 0x64 DUP6 MLOAD GT ISZERO JUMPDEST PUSH2 0x1483 JUMPI PUSH1 0x40 MLOAD PUSH3 0x461BCD PUSH1 0xE5 SHL DUP2 MSTORE PUSH1 0x20 PUSH1 0x4 DUP3 ADD MSTORE PUSH1 0x1D PUSH1 0x24 DUP3 ADD MSTORE PUSH32 0x4E616D65206D75737420626520322D3130302063686172616374657273000000 PUSH1 0x44 DUP3 ADD MSTORE PUSH1 0x64 ADD PUSH2 0xC81 JUMP JUMPDEST PUSH0 DUP3 MLOAD GT DUP1 ISZERO PUSH2 0x1496 JUMPI POP PUSH2 0x1F4 DUP3 MLOAD GT ISZERO JUMPDEST PUSH2 0x14ED JUMPI PUSH1 0x40 MLOAD PUSH3 0x461BCD PUSH1 0xE5 SHL DUP2 MSTORE PUSH1 0x20 PUSH1 0x4 DUP3 ADD MSTORE PUSH1 0x22 PUSH1 0x24 DUP3 ADD MSTORE PUSH32 0x496E74657265737473206D75737420626520312D353030206368617261637465 PUSH1 0x44 DUP3 ADD MSTORE PUSH2 0x7273 PUSH1 0xF0 SHL PUSH1 0x64 DUP3 ADD MSTORE PUSH1 0x84 ADD PUSH2 0xC81 JUMP JUMPDEST PUSH2 0x1F4 DUP2 MLOAD GT ISZERO PUSH2 0x1540 JUMPI PUSH1 0x40 MLOAD PUSH3 0x461BCD PUSH1 0xE5 SHL DUP2 MSTORE PUSH1 0x20 PUSH1 0x4 DUP3 ADD MSTORE PUSH1 0x12 PUSH1 0x24 DUP3 ADD MSTORE PUSH32 0x50686F746F2055524C20746F6F206C6F6E670000000000000000000000000000 PUSH1 0x44 DUP3 ADD MSTORE PUSH1 0x64 ADD PUSH2 0xC81 JUMP JUMPDEST PUSH0 DUP4 MLOAD GT DUP1 ISZERO PUSH2 0x1552 JUMPI POP PUSH1 0x32 DUP4 MLOAD GT ISZERO JUMPDEST PUSH2 0x159E JUMPI PUSH1 0x40 MLOAD PUSH3 0x461BCD PUSH1 0xE5 SHL DUP2 MSTORE PUSH1 0x20 PUSH1 0x4 DUP3 ADD MSTORE PUSH1 0x14 PUSH1 0x24 DUP3 ADD MSTORE PUSH32 0x47656E646572206D7573742062652076616C6964000000000000000000000000 PUSH1 0x44 DUP3 ADD MSTORE PUSH1 0x64 ADD PUSH2 0xC81 JUMP JUMPDEST PUSH0 DUP1 SLOAD SWAP1 DUP1 PUSH2 0x15AC DUP4 PUSH2 0x4747 JUMP JUMPDEST SWAP1 SWAP2 SSTORE POP POP PUSH0 DUP1 SLOAD PUSH1 0x40 DUP1 MLOAD PUSH2 0x100 DUP2 ADD DUP3 MSTORE DUP3 DUP2 MSTORE PUSH1 0x20 DUP1 DUP3 ADD DUP11 DUP2 MSTORE PUSH1 0xFF DUP11 AND DUP4 DUP6 ADD MSTORE PUSH1 0x60 DUP4 ADD DUP10 SWAP1 MSTORE PUSH1 0x80 DUP4 ADD DUP9 SWAP1 MSTORE PUSH1 0xA0 DUP4 ADD DUP8 SWAP1 MSTORE DUP4 MLOAD DUP1 DUP4 ADD DUP6 MSTORE DUP7 DUP2 MSTORE PUSH1 0xC0 DUP5 ADD MSTORE PUSH1 0x1 PUSH1 0xE0 DUP5 ADD DUP2 SWAP1 MSTORE CALLER DUP8 MSTORE SWAP2 DUP3 SWAP1 MSTORE SWAP3 SWAP1 SWAP5 KECCAK256 DUP2 MLOAD DUP2 SSTORE SWAP2 MLOAD SWAP3 SWAP4 SWAP1 SWAP3 SWAP1 DUP3 ADD SWAP1 PUSH2 0x1622 SWAP1 DUP3 PUSH2 0x4598 JUMP JUMPDEST POP PUSH1 0x40 DUP3 ADD MLOAD PUSH1 0x2 DUP3 ADD DUP1 SLOAD PUSH1 0xFF NOT AND PUSH1 0xFF SWAP1 SWAP3 AND SWAP2 SWAP1 SWAP2 OR SWAP1 SSTORE PUSH1 0x60 DUP3 ADD MLOAD PUSH1 0x3 DUP3 ADD SWAP1 PUSH2 0x1651 SWAP1 DUP3 PUSH2 0x4598 JUMP JUMPDEST POP PUSH1 0x80 DUP3 ADD MLOAD PUSH1 0x4 DUP3 ADD SWAP1 PUSH2 0x1666 SWAP1 DUP3 PUSH2 0x4598 JUMP JUMPDEST POP PUSH1 0xA0 DUP3 ADD MLOAD PUSH1 0x5 DUP3 ADD SWAP1 PUSH2 0x167B SWAP1 DUP3 PUSH2 0x4598 JUMP JUMPDEST POP PUSH1 0xC0 DUP3 ADD MLOAD PUSH1 0x6 DUP3 ADD SWAP1 PUSH2 0x1690 SWAP1 DUP3 PUSH2 0x4598 JUMP JUMPDEST POP PUSH1 0xE0 SWAP2 SWAP1 SWAP2 ADD MLOAD PUSH1 0x7 SWAP1 SWAP2 ADD DUP1 SLOAD PUSH1 0xFF NOT AND SWAP2 ISZERO ISZERO SWAP2 SWAP1 SWAP2 OR SWAP1 SSTORE CALLER PUSH0 DUP2 DUP2 MSTORE PUSH1 0x2 PUSH1 0x20 SWAP1 DUP2 MSTORE PUSH1 0x40 DUP1 DUP4 KECCAK256 DUP6 SWAP1 SSTORE DUP5 DUP4 MSTORE PUSH1 0x3 SWAP1 SWAP2 MSTORE SWAP1 KECCAK256 DUP1 SLOAD PUSH1 0x1 PUSH1 0x1 PUSH1 0xA0 SHL SUB NOT AND DUP3 OR SWAP1 SSTORE PUSH2 0x16E4 SWAP1 DUP3 PUSH2 0x3047 JUMP JUMPDEST CALLER PUSH1 0x1 PUSH1 0x1 PUSH1 0xA0 SHL SUB AND PUSH32 0x2ED4EE0412E67BBC9ED1687F3AD6BB7134D359D45994F3BF5302E91D81CF61F DUP3 DUP9 PUSH1 0x40 MLOAD PUSH2 0x171F SWAP3 SWAP2 SWAP1 PUSH2 0x475F JUMP JUMPDEST PUSH1 0x40 MLOAD DUP1 SWAP2 SUB SWAP1 LOG2 POP POP POP POP POP POP JUMP JUMPDEST PUSH2 0x1737 PUSH2 0x3060 JUMP JUMPDEST PUSH2 0x1740 DUP3 PUSH2 0x3117 JUMP JUMPDEST PUSH2 0x8B3 DUP3 DUP3 PUSH2 0x311F JUMP JUMPDEST PUSH0 PUSH2 0x1753 PUSH2 0x3207 JUMP JUMPDEST POP PUSH32 0x360894A13BA1A3210667C828492DB98DCA3E2076CC3735A920A3CA505D382BBC SWAP1 JUMP JUMPDEST PUSH0 PUSH2 0x7A8 DUP3 PUSH2 0x2C71 JUMP JUMPDEST CALLER PUSH0 SWAP1 DUP2 MSTORE PUSH1 0x1 PUSH1 0x20 MSTORE PUSH1 0x40 SWAP1 KECCAK256 PUSH1 0x7 ADD SLOAD PUSH1 0xFF AND PUSH2 0x17E3 JUMPI PUSH1 0x40 MLOAD PUSH3 0x461BCD PUSH1 0xE5 SHL DUP2 MSTORE PUSH1 0x20 PUSH1 0x4 DUP3 ADD MSTORE PUSH1 0x16 PUSH1 0x24 DUP3 ADD MSTORE PUSH32 0x50726F66696C6520646F6573206E6F7420657869737400000000000000000000 PUSH1 0x44 DUP3 ADD MSTORE PUSH1 0x64 ADD PUSH2 0xC81 JUMP JUMPDEST CALLER PUSH0 SWAP1 DUP2 MSTORE PUSH1 0x1 PUSH1 0x20 DUP2 DUP2 MSTORE PUSH1 0x40 DUP1 DUP5 KECCAK256 DUP2 MLOAD PUSH2 0x100 DUP2 ADD SWAP1 SWAP3 MSTORE DUP1 SLOAD DUP3 MSTORE SWAP3 DUP4 ADD DUP1 SLOAD SWAP2 SWAP4 SWAP3 DUP5 ADD SWAP2 PUSH2 0x1816 SWAP1 PUSH2 0x448F JUMP JUMPDEST DUP1 PUSH1 0x1F ADD PUSH1 0x20 DUP1 SWAP2 DIV MUL PUSH1 0x20 ADD PUSH1 0x40 MLOAD SWAP1 DUP2 ADD PUSH1 0x40 MSTORE DUP1 SWAP3 SWAP2 SWAP1 DUP2 DUP2 MSTORE PUSH1 0x20 ADD DUP3 DUP1 SLOAD PUSH2 0x1842 SWAP1 PUSH2 0x448F JUMP JUMPDEST DUP1 ISZERO PUSH2 0x188D JUMPI DUP1 PUSH1 0x1F LT PUSH2 0x1864 JUMPI PUSH2 0x100 DUP1 DUP4 SLOAD DIV MUL DUP4 MSTORE SWAP2 PUSH1 0x20 ADD SWAP2 PUSH2 0x188D JUMP JUMPDEST DUP3 ADD SWAP2 SWAP1 PUSH0 MSTORE PUSH1 0x20 PUSH0 KECCAK256 SWAP1 JUMPDEST DUP2 SLOAD DUP2 MSTORE SWAP1 PUSH1 0x1 ADD SWAP1 PUSH1 0x20 ADD DUP1 DUP4 GT PUSH2 0x1870 JUMPI DUP3 SWAP1 SUB PUSH1 0x1F AND DUP3 ADD SWAP2 JUMPDEST POP POP POP SWAP2 DUP4 MSTORE POP POP PUSH1 0x2 DUP3 ADD SLOAD PUSH1 0xFF AND PUSH1 0x20 DUP3 ADD MSTORE PUSH1 0x3 DUP3 ADD DUP1 SLOAD PUSH1 0x40 SWAP1 SWAP3 ADD SWAP2 PUSH2 0x18B7 SWAP1 PUSH2 0x448F JUMP JUMPDEST DUP1 PUSH1 0x1F ADD PUSH1 0x20 DUP1 SWAP2 DIV MUL PUSH1 0x20 ADD PUSH1 0x40 MLOAD SWAP1 DUP2 ADD PUSH1 0x40 MSTORE DUP1 SWAP3 SWAP2 SWAP1 DUP2 DUP2 MSTORE PUSH1 0x20 ADD DUP3 DUP1 SLOAD PUSH2 0x18E3 SWAP1 PUSH2 0x448F JUMP JUMPDEST DUP1 ISZERO PUSH2 0x192E JUMPI DUP1 PUSH1 0x1F LT PUSH2 0x1905 JUMPI PUSH2 0x100 DUP1 DUP4 SLOAD DIV MUL DUP4 MSTORE SWAP2 PUSH1 0x20 ADD SWAP2 PUSH2 0x192E JUMP JUMPDEST DUP3 ADD SWAP2 SWAP1 PUSH0 MSTORE PUSH1 0x20 PUSH0 KECCAK256 SWAP1 JUMPDEST DUP2 SLOAD DUP2 MSTORE SWAP1 PUSH1 0x1 ADD SWAP1 PUSH1 0x20 ADD DUP1 DUP4 GT PUSH2 0x1911 JUMPI DUP3 SWAP1 SUB PUSH1 0x1F AND DUP3 ADD SWAP2 JUMPDEST POP POP POP POP POP DUP2 MSTORE PUSH1 0x20 ADD PUSH1 0x4 DUP3 ADD DUP1 SLOAD PUSH2 0x1947 SWAP1 PUSH2 0x448F JUMP JUMPDEST DUP1 PUSH1 0x1F ADD PUSH1 0x20 DUP1 SWAP2 DIV MUL PUSH1 0x20 ADD PUSH1 0x40 MLOAD SWAP1 DUP2 ADD PUSH1 0x40 MSTORE DUP1 SWAP3 SWAP2 SWAP1 DUP2 DUP2 MSTORE PUSH1 0x20 ADD DUP3 DUP1 SLOAD PUSH2 0x1973 SWAP1 PUSH2 0x448F JUMP JUMPDEST DUP1 ISZERO PUSH2 0x19BE JUMPI DUP1 PUSH1 0x1F LT PUSH2 0x1995 JUMPI PUSH2 0x100 DUP1 DUP4 SLOAD DIV MUL DUP4 MSTORE SWAP2 PUSH1 0x20 ADD SWAP2 PUSH2 0x19BE JUMP JUMPDEST DUP3 ADD SWAP2 SWAP1 PUSH0 MSTORE PUSH1 0x20 PUSH0 KECCAK256 SWAP1 JUMPDEST DUP2 SLOAD DUP2 MSTORE SWAP1 PUSH1 0x1 ADD SWAP1 PUSH1 0x20 ADD DUP1 DUP4 GT PUSH2 0x19A1 JUMPI DUP3 SWAP1 SUB PUSH1 0x1F AND DUP3 ADD SWAP2 JUMPDEST POP POP POP POP POP DUP2 MSTORE PUSH1 0x20 ADD PUSH1 0x5 DUP3 ADD DUP1 SLOAD PUSH2 0x19D7 SWAP1 PUSH2 0x448F JUMP JUMPDEST DUP1 PUSH1 0x1F ADD PUSH1 0x20 DUP1 SWAP2 DIV MUL PUSH1 0x20 ADD PUSH1 0x40 MLOAD SWAP1 DUP2 ADD PUSH1 0x40 MSTORE DUP1 SWAP3 SWAP2 SWAP1 DUP2 DUP2 MSTORE PUSH1 0x20 ADD DUP3 DUP1 SLOAD PUSH2 0x1A03 SWAP1 PUSH2 0x448F JUMP JUMPDEST DUP1 ISZERO PUSH2 0x1A4E JUMPI DUP1 PUSH1 0x1F LT PUSH2 0x1A25 JUMPI PUSH2 0x100 DUP1 DUP4 SLOAD DIV MUL DUP4 MSTORE SWAP2 PUSH1 0x20 ADD SWAP2 PUSH2 0x1A4E JUMP JUMPDEST DUP3 ADD SWAP2 SWAP1 PUSH0 MSTORE PUSH1 0x20 PUSH0 KECCAK256 SWAP1 JUMPDEST DUP2 SLOAD DUP2 MSTORE SWAP1 PUSH1 0x1 ADD SWAP1 PUSH1 0x20 ADD DUP1 DUP4 GT PUSH2 0x1A31 JUMPI DUP3 SWAP1 SUB PUSH1 0x1F AND DUP3 ADD SWAP2 JUMPDEST POP POP POP POP POP DUP2 MSTORE PUSH1 0x20 ADD PUSH1 0x6 DUP3 ADD DUP1 SLOAD PUSH2 0x1A67 SWAP1 PUSH2 0x448F JUMP JUMPDEST DUP1 PUSH1 0x1F ADD PUSH1 0x20 DUP1 SWAP2 DIV MUL PUSH1 0x20 ADD PUSH1 0x40 MLOAD SWAP1 DUP2 ADD PUSH1 0x40 MSTORE DUP1 SWAP3 SWAP2 SWAP1 DUP2 DUP2 MSTORE PUSH1 0x20 ADD DUP3 DUP1 SLOAD PUSH2 0x1A93 SWAP1 PUSH2 0x448F JUMP JUMPDEST DUP1 ISZERO PUSH2 0x1ADE JUMPI DUP1 PUSH1 0x1F LT PUSH2 0x1AB5 JUMPI PUSH2 0x100 DUP1 DUP4 SLOAD DIV MUL DUP4 MSTORE SWAP2 PUSH1 0x20 ADD SWAP2 PUSH2 0x1ADE JUMP JUMPDEST DUP3 ADD SWAP2 SWAP1 PUSH0 MSTORE PUSH1 0x20 PUSH0 KECCAK256 SWAP1 JUMPDEST DUP2 SLOAD DUP2 MSTORE SWAP1 PUSH1 0x1 ADD SWAP1 PUSH1 0x20 ADD DUP1 DUP4 GT PUSH2 0x1AC1 JUMPI DUP3 SWAP1 SUB PUSH1 0x1F AND DUP3 ADD SWAP2 JUMPDEST POP POP POP SWAP2 DUP4 MSTORE POP POP PUSH1 0x7 SWAP2 SWAP1 SWAP2 ADD SLOAD PUSH1 0xFF AND ISZERO ISZERO PUSH1 0x20 SWAP1 SWAP2 ADD MSTORE DUP1 MLOAD PUSH1 0xC0 DUP3 ADD MLOAD MLOAD SWAP2 SWAP3 POP SWAP1 ISZERO PUSH2 0x1B78 JUMPI PUSH0 PUSH2 0x1B17 DUP4 PUSH1 0xC0 ADD MLOAD PUSH2 0x2DF5 JUMP JUMPDEST SWAP1 POP PUSH0 PUSH1 0x4 DUP3 PUSH1 0x40 MLOAD PUSH2 0x1B2A SWAP2 SWAP1 PUSH2 0x44C7 JUMP JUMPDEST SWAP1 DUP2 MSTORE PUSH1 0x40 MLOAD SWAP1 DUP2 SWAP1 SUB PUSH1 0x20 ADD DUP2 KECCAK256 DUP1 SLOAD SWAP3 ISZERO ISZERO PUSH1 0xFF NOT SWAP1 SWAP4 AND SWAP3 SWAP1 SWAP3 OR SWAP1 SWAP2 SSTORE PUSH1 0x5 SWAP1 PUSH2 0x1B59 SWAP1 DUP4 SWAP1 PUSH2 0x44C7 JUMP JUMPDEST SWAP1 DUP2 MSTORE PUSH1 0x40 MLOAD SWAP1 DUP2 SWAP1 SUB PUSH1 0x20 ADD SWAP1 KECCAK256 DUP1 SLOAD PUSH1 0x1 PUSH1 0x1 PUSH1 0xA0 SHL SUB NOT AND SWAP1 SSTORE POP JUMPDEST PUSH1 0x6 SLOAD PUSH1 0x1 PUSH1 0x1 PUSH1 0xA0 SHL SUB AND ISZERO PUSH2 0x1BF7 JUMPI PUSH1 0x6 SLOAD PUSH1 0x40 MLOAD PUSH32 0xF569F82F00000000000000000000000000000000000000000000000000000000 DUP2 MSTORE CALLER PUSH1 0x4 DUP3 ADD MSTORE PUSH1 0x1 PUSH1 0x1 PUSH1 0xA0 SHL SUB SWAP1 SWAP2 AND SWAP1 PUSH4 0xF569F82F SWAP1 PUSH1 0x24 ADD PUSH0 PUSH1 0x40 MLOAD DUP1 DUP4 SUB DUP2 PUSH0 DUP8 DUP1 EXTCODESIZE ISZERO DUP1 ISZERO PUSH2 0x1BE4 JUMPI PUSH0 DUP1 REVERT JUMPDEST POP GAS CALL SWAP3 POP POP POP DUP1 ISZERO PUSH2 0x1BF5 JUMPI POP PUSH1 0x1 JUMPDEST POP JUMPDEST CALLER PUSH0 SWAP1 DUP2 MSTORE PUSH1 0x1 PUSH1 0x20 DUP2 SWAP1 MSTORE PUSH1 0x40 DUP3 KECCAK256 DUP3 DUP2 SSTORE SWAP2 SWAP1 PUSH2 0x1C18 SWAP1 DUP4 ADD DUP3 PUSH2 0x3E28 JUMP JUMPDEST PUSH1 0x2 DUP3 ADD DUP1 SLOAD PUSH1 0xFF NOT AND SWAP1 SSTORE PUSH2 0x1C31 PUSH1 0x3 DUP4 ADD PUSH0 PUSH2 0x3E28 JUMP JUMPDEST PUSH2 0x1C3E PUSH1 0x4 DUP4 ADD PUSH0 PUSH2 0x3E28 JUMP JUMPDEST PUSH2 0x1C4B PUSH1 0x5 DUP4 ADD PUSH0 PUSH2 0x3E28 JUMP JUMPDEST PUSH2 0x1C58 PUSH1 0x6 DUP4 ADD PUSH0 PUSH2 0x3E28 JUMP JUMPDEST POP PUSH1 0x7 ADD DUP1 SLOAD PUSH1 0xFF NOT AND SWAP1 SSTORE CALLER PUSH0 SWAP1 DUP2 MSTORE PUSH1 0x2 PUSH1 0x20 SWAP1 DUP2 MSTORE PUSH1 0x40 DUP1 DUP4 KECCAK256 DUP4 SWAP1 SSTORE DUP4 DUP4 MSTORE PUSH1 0x3 SWAP1 SWAP2 MSTORE SWAP1 KECCAK256 DUP1 SLOAD PUSH1 0x1 PUSH1 0x1 PUSH1 0xA0 SHL SUB NOT AND SWAP1 SSTORE PUSH2 0x1C99 DUP2 PUSH2 0x3250 JUMP JUMPDEST PUSH1 0x40 MLOAD DUP2 DUP2 MSTORE CALLER SWAP1 PUSH32 0x236EB7515B00733D8ADE7456155D53D63C2FA66BEC6437DDFF6AB3FC71E1E324 SWAP1 PUSH1 0x20 ADD PUSH1 0x40 MLOAD DUP1 SWAP2 SUB SWAP1 LOG2 POP POP JUMP JUMPDEST PUSH0 PUSH32 0x80BB2B638CC20BC4D0A60D66940F3AB4A00C1D7B313497CA82FB0B4AB0079300 PUSH1 0x1 PUSH1 0x1 PUSH1 0xA0 SHL SUB DUP4 AND PUSH2 0x1D36 JUMPI PUSH1 0x40 MLOAD PUSH32 0x89C62B6400000000000000000000000000000000000000000000000000000000 DUP2 MSTORE PUSH0 PUSH1 0x4 DUP3 ADD MSTORE PUSH1 0x24 ADD PUSH2 0xC81 JUMP JUMPDEST PUSH1 0x1 PUSH1 0x1 PUSH1 0xA0 SHL SUB SWAP1 SWAP3 AND PUSH0 SWAP1 DUP2 MSTORE PUSH1 0x3 SWAP1 SWAP3 ADD PUSH1 0x20 MSTORE POP PUSH1 0x40 SWAP1 KECCAK256 SLOAD SWAP1 JUMP JUMPDEST PUSH2 0x1D5E PUSH2 0x2FD3 JUMP JUMPDEST PUSH2 0x1D67 PUSH0 PUSH2 0x3288 JUMP JUMPDEST JUMP JUMPDEST PUSH2 0x1DB3 PUSH1 0x40 MLOAD DUP1 PUSH2 0x100 ADD PUSH1 0x40 MSTORE DUP1 PUSH0 DUP2 MSTORE PUSH1 0x20 ADD PUSH1 0x60 DUP2 MSTORE PUSH1 0x20 ADD PUSH0 PUSH1 0xFF AND DUP2 MSTORE PUSH1 0x20 ADD PUSH1 0x60 DUP2 MSTORE PUSH1 0x20 ADD PUSH1 0x60 DUP2 MSTORE PUSH1 0x20 ADD PUSH1 0x60 DUP2 MSTORE PUSH1 0x20 ADD PUSH1 0x60 DUP2 MSTORE PUSH1 0x20 ADD PUSH0 ISZERO ISZERO DUP2 MSTORE POP SWAP1 JUMP JUMPDEST PUSH0 DUP3 DUP2 MSTORE PUSH1 0x3 PUSH1 0x20 MSTORE PUSH1 0x40 SWAP1 KECCAK256 SLOAD PUSH1 0x1 PUSH1 0x1 PUSH1 0xA0 SHL SUB AND DUP1 PUSH2 0x1E17 JUMPI PUSH1 0x40 MLOAD PUSH3 0x461BCD PUSH1 0xE5 SHL DUP2 MSTORE PUSH1 0x20 PUSH1 0x4 DUP3 ADD MSTORE PUSH1 0x14 PUSH1 0x24 DUP3 ADD MSTORE PUSH32 0x546F6B656E20646F6573206E6F74206578697374000000000000000000000000 PUSH1 0x44 DUP3 ADD MSTORE PUSH1 0x64 ADD PUSH2 0xC81 JUMP JUMPDEST PUSH1 0x1 PUSH1 0x1 PUSH1 0xA0 SHL SUB DUP2 AND PUSH0 SWAP1 DUP2 MSTORE PUSH1 0x1 PUSH1 0x20 DUP2 DUP2 MSTORE PUSH1 0x40 SWAP3 DUP4 SWAP1 KECCAK256 DUP4 MLOAD PUSH2 0x100 DUP2 ADD SWAP1 SWAP5 MSTORE DUP1 SLOAD DUP5 MSTORE SWAP2 DUP3 ADD DUP1 SLOAD SWAP2 DUP5 ADD SWAP2 PUSH2 0x1E52 SWAP1 PUSH2 0x448F JUMP JUMPDEST DUP1 PUSH1 0x1F ADD PUSH1 0x20 DUP1 SWAP2 DIV MUL PUSH1 0x20 ADD PUSH1 0x40 MLOAD SWAP1 DUP2 ADD PUSH1 0x40 MSTORE DUP1 SWAP3 SWAP2 SWAP1 DUP2 DUP2 MSTORE PUSH1 0x20 ADD DUP3 DUP1 SLOAD PUSH2 0x1E7E SWAP1 PUSH2 0x448F JUMP JUMPDEST DUP1 ISZERO PUSH2 0x1EC9 JUMPI DUP1 PUSH1 0x1F LT PUSH2 0x1EA0 JUMPI PUSH2 0x100 DUP1 DUP4 SLOAD DIV MUL DUP4 MSTORE SWAP2 PUSH1 0x20 ADD SWAP2 PUSH2 0x1EC9 JUMP JUMPDEST DUP3 ADD SWAP2 SWAP1 PUSH0 MSTORE PUSH1 0x20 PUSH0 KECCAK256 SWAP1 JUMPDEST DUP2 SLOAD DUP2 MSTORE SWAP1 PUSH1 0x1 ADD SWAP1 PUSH1 0x20 ADD DUP1 DUP4 GT PUSH2 0x1EAC JUMPI DUP3 SWAP1 SUB PUSH1 0x1F AND DUP3 ADD SWAP2 JUMPDEST POP POP POP SWAP2 DUP4 MSTORE POP POP PUSH1 0x2 DUP3 ADD SLOAD PUSH1 0xFF AND PUSH1 0x20 DUP3 ADD MSTORE PUSH1 0x3 DUP3 ADD DUP1 SLOAD PUSH1 0x40 SWAP1 SWAP3 ADD SWAP2 PUSH2 0x1EF3 SWAP1 PUSH2 0x448F JUMP JUMPDEST DUP1 PUSH1 0x1F ADD PUSH1 0x20 DUP1 SWAP2 DIV MUL PUSH1 0x20 ADD PUSH1 0x40 MLOAD SWAP1 DUP2 ADD PUSH1 0x40 MSTORE DUP1 SWAP3 SWAP2 SWAP1 DUP2 DUP2 MSTORE PUSH1 0x20 ADD DUP3 DUP1 SLOAD PUSH2 0x1F1F SWAP1 PUSH2 0x448F JUMP JUMPDEST DUP1 ISZERO PUSH2 0x1F6A JUMPI DUP1 PUSH1 0x1F LT PUSH2 0x1F41 JUMPI PUSH2 0x100 DUP1 DUP4 SLOAD DIV MUL DUP4 MSTORE SWAP2 PUSH1 0x20 ADD SWAP2 PUSH2 0x1F6A JUMP JUMPDEST DUP3 ADD SWAP2 SWAP1 PUSH0 MSTORE PUSH1 0x20 PUSH0 KECCAK256 SWAP1 JUMPDEST DUP2 SLOAD DUP2 MSTORE SWAP1 PUSH1 0x1 ADD SWAP1 PUSH1 0x20 ADD DUP1 DUP4 GT PUSH2 0x1F4D JUMPI DUP3 SWAP1 SUB PUSH1 0x1F AND DUP3 ADD SWAP2 JUMPDEST POP POP POP POP POP DUP2 MSTORE PUSH1 0x20 ADD PUSH1 0x4 DUP3 ADD DUP1 SLOAD PUSH2 0x1F83 SWAP1 PUSH2 0x448F JUMP JUMPDEST DUP1 PUSH1 0x1F ADD PUSH1 0x20 DUP1 SWAP2 DIV MUL PUSH1 0x20 ADD PUSH1 0x40 MLOAD SWAP1 DUP2 ADD PUSH1 0x40 MSTORE DUP1 SWAP3 SWAP2 SWAP1 DUP2 DUP2 MSTORE PUSH1 0x20 ADD DUP3 DUP1 SLOAD PUSH2 0x1FAF SWAP1 PUSH2 0x448F JUMP JUMPDEST DUP1 ISZERO PUSH2 0x1FFA JUMPI DUP1 PUSH1 0x1F LT PUSH2 0x1FD1 JUMPI PUSH2 0x100 DUP1 DUP4 SLOAD DIV MUL DUP4 MSTORE SWAP2 PUSH1 0x20 ADD SWAP2 PUSH2 0x1FFA JUMP JUMPDEST DUP3 ADD SWAP2 SWAP1 PUSH0 MSTORE PUSH1 0x20 PUSH0 KECCAK256 SWAP1 JUMPDEST DUP2 SLOAD DUP2 MSTORE SWAP1 PUSH1 0x1 ADD SWAP1 PUSH1 0x20 ADD DUP1 DUP4 GT PUSH2 0x1FDD JUMPI DUP3 SWAP1 SUB PUSH1 0x1F AND DUP3 ADD SWAP2 JUMPDEST POP POP POP POP POP DUP2 MSTORE PUSH1 0x20 ADD PUSH1 0x5 DUP3 ADD DUP1 SLOAD PUSH2 0x2013 SWAP1 PUSH2 0x448F JUMP JUMPDEST DUP1 PUSH1 0x1F ADD PUSH1 0x20 DUP1 SWAP2 DIV MUL PUSH1 0x20 ADD PUSH1 0x40 MLOAD SWAP1 DUP2 ADD PUSH1 0x40 MSTORE DUP1 SWAP3 SWAP2 SWAP1 DUP2 DUP2 MSTORE PUSH1 0x20 ADD DUP3 DUP1 SLOAD PUSH2 0x203F SWAP1 PUSH2 0x448F JUMP JUMPDEST DUP1 ISZERO PUSH2 0x208A JUMPI DUP1 PUSH1 0x1F LT PUSH2 0x2061 JUMPI PUSH2 0x100 DUP1 DUP4 SLOAD DIV MUL DUP4 MSTORE SWAP2 PUSH1 0x20 ADD SWAP2 PUSH2 0x208A JUMP JUMPDEST DUP3 ADD SWAP2 SWAP1 PUSH0 MSTORE PUSH1 0x20 PUSH0 KECCAK256 SWAP1 JUMPDEST DUP2 SLOAD DUP2 MSTORE SWAP1 PUSH1 0x1 ADD SWAP1 PUSH1 0x20 ADD DUP1 DUP4 GT PUSH2 0x206D JUMPI DUP3 SWAP1 SUB PUSH1 0x1F AND DUP3 ADD SWAP2 JUMPDEST POP POP POP POP POP DUP2 MSTORE PUSH1 0x20 ADD PUSH1 0x6 DUP3 ADD DUP1 SLOAD PUSH2 0x20A3 SWAP1 PUSH2 0x448F JUMP JUMPDEST DUP1 PUSH1 0x1F ADD PUSH1 0x20 DUP1 SWAP2 DIV MUL PUSH1 0x20 ADD PUSH1 0x40 MLOAD SWAP1 DUP2 ADD PUSH1 0x40 MSTORE DUP1 SWAP3 SWAP2 SWAP1 DUP2 DUP2 MSTORE PUSH1 0x20 ADD DUP3 DUP1 SLOAD PUSH2 0x20CF SWAP1 PUSH2 0x448F JUMP JUMPDEST DUP1 ISZERO PUSH2 0x211A JUMPI DUP1 PUSH1 0x1F LT PUSH2 0x20F1 JUMPI PUSH2 0x100 DUP1 DUP4 SLOAD DIV MUL DUP4 MSTORE SWAP2 PUSH1 0x20 ADD SWAP2 PUSH2 0x211A JUMP JUMPDEST DUP3 ADD SWAP2 SWAP1 PUSH0 MSTORE PUSH1 0x20 PUSH0 KECCAK256 SWAP1 JUMPDEST DUP2 SLOAD DUP2 MSTORE SWAP1 PUSH1 0x1 ADD SWAP1 PUSH1 0x20 ADD DUP1 DUP4 GT PUSH2 0x20FD JUMPI DUP3 SWAP1 SUB PUSH1 0x1F AND DUP3 ADD SWAP2 JUMPDEST POP POP POP SWAP2 DUP4 MSTORE POP POP PUSH1 0x7 SWAP2 SWAP1 SWAP2 ADD SLOAD PUSH1 0xFF AND ISZERO ISZERO PUSH1 0x20 SWAP1 SWAP2 ADD MSTORE SWAP4 SWAP3 POP POP POP JUMP JUMPDEST PUSH0 PUSH2 0x2144 PUSH2 0x32F8 JUMP JUMPDEST DUP1 SLOAD SWAP1 SWAP2 POP PUSH1 0xFF PUSH9 0x10000000000000000 DUP3 DIV AND ISZERO SWAP1 PUSH8 0xFFFFFFFFFFFFFFFF AND PUSH0 DUP2 ISZERO DUP1 ISZERO PUSH2 0x2170 JUMPI POP DUP3 JUMPDEST SWAP1 POP PUSH0 DUP3 PUSH8 0xFFFFFFFFFFFFFFFF AND PUSH1 0x1 EQ DUP1 ISZERO PUSH2 0x218C JUMPI POP ADDRESS EXTCODESIZE ISZERO JUMPDEST SWAP1 POP DUP2 ISZERO DUP1 ISZERO PUSH2 0x219A JUMPI POP DUP1 ISZERO JUMPDEST ISZERO PUSH2 0x21D1 JUMPI PUSH1 0x40 MLOAD PUSH32 0xF92EE8A900000000000000000000000000000000000000000000000000000000 DUP2 MSTORE PUSH1 0x4 ADD PUSH1 0x40 MLOAD DUP1 SWAP2 SUB SWAP1 REVERT JUMPDEST DUP5 SLOAD PUSH8 0xFFFFFFFFFFFFFFFF NOT AND PUSH1 0x1 OR DUP6 SSTORE DUP4 ISZERO PUSH2 0x2205 JUMPI DUP5 SLOAD PUSH9 0xFF0000000000000000 NOT AND PUSH9 0x10000000000000000 OR DUP6 SSTORE JUMPDEST PUSH2 0x2279 PUSH1 0x40 MLOAD DUP1 PUSH1 0x40 ADD PUSH1 0x40 MSTORE DUP1 PUSH1 0x11 DUP2 MSTORE PUSH1 0x20 ADD PUSH32 0x426173654D617463682050726F66696C65000000000000000000000000000000 DUP2 MSTORE POP PUSH1 0x40 MLOAD DUP1 PUSH1 0x40 ADD PUSH1 0x40 MSTORE DUP1 PUSH1 0x5 DUP2 MSTORE PUSH1 0x20 ADD PUSH32 0x424D50524F000000000000000000000000000000000000000000000000000000 DUP2 MSTORE POP PUSH2 0x3320 JUMP JUMPDEST PUSH2 0x2282 CALLER PUSH2 0x3332 JUMP JUMPDEST PUSH2 0x228A PUSH2 0x3343 JUMP JUMPDEST DUP4 ISZERO PUSH2 0x22D5 JUMPI DUP5 SLOAD PUSH9 0xFF0000000000000000 NOT AND DUP6 SSTORE PUSH1 0x40 MLOAD PUSH1 0x1 DUP2 MSTORE PUSH32 0xC7F505B2F371AE2175EE4913F4499E1F2633A7B5936321EED1CDAEB6115181D2 SWAP1 PUSH1 0x20 ADD PUSH1 0x40 MLOAD DUP1 SWAP2 SUB SWAP1 LOG1 JUMPDEST POP POP POP POP POP JUMP JUMPDEST PUSH32 0x80BB2B638CC20BC4D0A60D66940F3AB4A00C1D7B313497CA82FB0B4AB0079301 DUP1 SLOAD PUSH1 0x60 SWAP2 PUSH32 0x80BB2B638CC20BC4D0A60D66940F3AB4A00C1D7B313497CA82FB0B4AB0079300 SWAP2 PUSH2 0x7E0 SWAP1 PUSH2 0x448F JUMP JUMPDEST CALLER PUSH0 SWAP1 DUP2 MSTORE PUSH1 0x1 PUSH1 0x20 MSTORE PUSH1 0x40 SWAP1 KECCAK256 PUSH1 0x7 ADD SLOAD PUSH1 0xFF AND ISZERO PUSH2 0x238F JUMPI PUSH1 0x40 MLOAD PUSH3 0x461BCD PUSH1 0xE5 SHL DUP2 MSTORE PUSH1 0x20 PUSH1 0x4 DUP3 ADD MSTORE PUSH1 0x16 PUSH1 0x24 DUP3 ADD MSTORE PUSH32 0x50726F66696C6520616C72656164792065786973747300000000000000000000 PUSH1 0x44 DUP3 ADD MSTORE PUSH1 0x64 ADD PUSH2 0xC81 JUMP JUMPDEST PUSH1 0x12 DUP5 PUSH1 0xFF AND LT ISZERO PUSH2 0x23E3 JUMPI PUSH1 0x40 MLOAD PUSH3 0x461BCD PUSH1 0xE5 SHL DUP2 MSTORE PUSH1 0x20 PUSH1 0x4 DUP3 ADD MSTORE PUSH1 0x13 PUSH1 0x24 DUP3 ADD MSTORE PUSH32 0x4D757374206265203138206F72206F6C64657200000000000000000000000000 PUSH1 0x44 DUP3 ADD MSTORE PUSH1 0x64 ADD PUSH2 0xC81 JUMP JUMPDEST PUSH1 0x78 DUP5 PUSH1 0xFF AND GT ISZERO PUSH2 0x2437 JUMPI PUSH1 0x40 MLOAD PUSH3 0x461BCD PUSH1 0xE5 SHL DUP2 MSTORE PUSH1 0x20 PUSH1 0x4 DUP3 ADD MSTORE PUSH1 0x15 PUSH1 0x24 DUP3 ADD MSTORE PUSH32 0x416765206D757374206265207265616C69737469630000000000000000000000 PUSH1 0x44 DUP3 ADD MSTORE PUSH1 0x64 ADD PUSH2 0xC81 JUMP JUMPDEST PUSH1 0x2 DUP6 MLOAD LT ISZERO DUP1 ISZERO PUSH2 0x244B JUMPI POP PUSH1 0x64 DUP6 MLOAD GT ISZERO JUMPDEST PUSH2 0x2497 JUMPI PUSH1 0x40 MLOAD PUSH3 0x461BCD PUSH1 0xE5 SHL DUP2 MSTORE PUSH1 0x20 PUSH1 0x4 DUP3 ADD MSTORE PUSH1 0x1D PUSH1 0x24 DUP3 ADD MSTORE PUSH32 0x4E616D65206D75737420626520322D3130302063686172616374657273000000 PUSH1 0x44 DUP3 ADD MSTORE PUSH1 0x64 ADD PUSH2 0xC81 JUMP JUMPDEST PUSH0 DUP3 MLOAD GT DUP1 ISZERO PUSH2 0x24AA JUMPI POP PUSH2 0x1F4 DUP3 MLOAD GT ISZERO JUMPDEST PUSH2 0x2501 JUMPI PUSH1 0x40 MLOAD PUSH3 0x461BCD PUSH1 0xE5 SHL DUP2 MSTORE PUSH1 0x20 PUSH1 0x4 DUP3 ADD MSTORE PUSH1 0x22 PUSH1 0x24 DUP3 ADD MSTORE PUSH32 0x496E74657265737473206D75737420626520312D353030206368617261637465 PUSH1 0x44 DUP3 ADD MSTORE PUSH2 0x7273 PUSH1 0xF0 SHL PUSH1 0x64 DUP3 ADD MSTORE PUSH1 0x84 ADD PUSH2 0xC81 JUMP JUMPDEST PUSH0 DUP2 MLOAD GT PUSH2 0x2551 JUMPI PUSH1 0x40 MLOAD PUSH3 0x461BCD PUSH1 0xE5 SHL DUP2 MSTORE PUSH1 0x20 PUSH1 0x4 DUP3 ADD MSTORE PUSH1 0x15 PUSH1 0x24 DUP3 ADD MSTORE PUSH32 0x456D61696C2063616E6E6F7420626520656D7074790000000000000000000000 PUSH1 0x44 DUP3 ADD MSTORE PUSH1 0x64 ADD PUSH2 0xC81 JUMP JUMPDEST PUSH2 0x255A DUP2 PUSH2 0x2CD5 JUMP JUMPDEST PUSH2 0x25A6 JUMPI PUSH1 0x40 MLOAD PUSH3 0x461BCD PUSH1 0xE5 SHL DUP2 MSTORE PUSH1 0x20 PUSH1 0x4 DUP3 ADD MSTORE PUSH1 0x14 PUSH1 0x24 DUP3 ADD MSTORE PUSH32 0x496E76616C696420656D61696C20666F726D6174000000000000000000000000 PUSH1 0x44 DUP3 ADD MSTORE PUSH1 0x64 ADD PUSH2 0xC81 JUMP JUMPDEST PUSH0 PUSH2 0x25B0 DUP3 PUSH2 0x2DF5 JUMP JUMPDEST SWAP1 POP PUSH1 0x4 DUP2 PUSH1 0x40 MLOAD PUSH2 0x25C2 SWAP2 SWAP1 PUSH2 0x44C7 JUMP JUMPDEST SWAP1 DUP2 MSTORE PUSH1 0x40 MLOAD SWAP1 DUP2 SWAP1 SUB PUSH1 0x20 ADD SWAP1 KECCAK256 SLOAD PUSH1 0xFF AND ISZERO PUSH2 0x2622 JUMPI PUSH1 0x40 MLOAD PUSH3 0x461BCD PUSH1 0xE5 SHL DUP2 MSTORE PUSH1 0x20 PUSH1 0x4 DUP3 ADD MSTORE PUSH1 0x18 PUSH1 0x24 DUP3 ADD MSTORE PUSH32 0x456D61696C20616C726561647920726567697374657265640000000000000000 PUSH1 0x44 DUP3 ADD MSTORE PUSH1 0x64 ADD PUSH2 0xC81 JUMP JUMPDEST PUSH0 DUP1 SLOAD SWAP1 DUP1 PUSH2 0x2630 DUP4 PUSH2 0x4747 JUMP JUMPDEST SWAP1 SWAP2 SSTORE POP POP PUSH0 SLOAD PUSH1 0x40 MLOAD PUSH1 0x1 SWAP1 PUSH1 0x4 SWAP1 PUSH2 0x264B SWAP1 DUP6 SWAP1 PUSH2 0x44C7 JUMP JUMPDEST SWAP1 DUP2 MSTORE PUSH1 0x40 MLOAD SWAP1 DUP2 SWAP1 SUB PUSH1 0x20 ADD DUP2 KECCAK256 DUP1 SLOAD SWAP3 ISZERO ISZERO PUSH1 0xFF NOT SWAP1 SWAP4 AND SWAP3 SWAP1 SWAP3 OR SWAP1 SWAP2 SSTORE CALLER SWAP1 PUSH1 0x5 SWAP1 PUSH2 0x267C SWAP1 DUP6 SWAP1 PUSH2 0x44C7 JUMP JUMPDEST SWAP1 DUP2 MSTORE PUSH1 0x40 DUP1 MLOAD PUSH1 0x20 SWAP3 DUP2 SWAP1 SUB DUP4 ADD DUP2 KECCAK256 DUP1 SLOAD PUSH1 0x1 PUSH1 0x1 PUSH1 0xA0 SHL SUB NOT AND PUSH1 0x1 PUSH1 0x1 PUSH1 0xA0 SHL SUB SWAP6 SWAP1 SWAP6 AND SWAP5 SWAP1 SWAP5 OR SWAP1 SWAP4 SSTORE PUSH2 0x100 DUP4 ADD DUP2 MSTORE DUP4 DUP4 MSTORE DUP2 DUP4 ADD DUP11 DUP2 MSTORE PUSH1 0xFF DUP11 AND DUP5 DUP4 ADD MSTORE PUSH1 0x60 DUP5 ADD DUP10 SWAP1 MSTORE PUSH1 0x80 DUP5 ADD DUP9 SWAP1 MSTORE DUP2 MLOAD DUP1 DUP5 ADD DUP4 MSTORE PUSH0 DUP1 DUP3 MSTORE PUSH1 0xA0 DUP7 ADD SWAP2 SWAP1 SWAP2 MSTORE PUSH1 0xC0 DUP6 ADD DUP8 SWAP1 MSTORE PUSH1 0x1 PUSH1 0xE0 DUP7 ADD DUP2 SWAP1 MSTORE CALLER DUP3 MSTORE SWAP4 DUP5 SWAP1 MSTORE SWAP2 SWAP1 SWAP2 KECCAK256 DUP4 MLOAD DUP2 SSTORE SWAP1 MLOAD SWAP1 SWAP2 DUP3 ADD SWAP1 PUSH2 0x2715 SWAP1 DUP3 PUSH2 0x4598 JUMP JUMPDEST POP PUSH1 0x40 DUP3 ADD MLOAD PUSH1 0x2 DUP3 ADD DUP1 SLOAD PUSH1 0xFF NOT AND PUSH1 0xFF SWAP1 SWAP3 AND SWAP2 SWAP1 SWAP2 OR SWAP1 SSTORE PUSH1 0x60 DUP3 ADD MLOAD PUSH1 0x3 DUP3 ADD SWAP1 PUSH2 0x2744 SWAP1 DUP3 PUSH2 0x4598 JUMP JUMPDEST POP PUSH1 0x80 DUP3 ADD MLOAD PUSH1 0x4 DUP3 ADD SWAP1 PUSH2 0x2759 SWAP1 DUP3 PUSH2 0x4598 JUMP JUMPDEST POP PUSH1 0xA0 DUP3 ADD MLOAD PUSH1 0x5 DUP3 ADD SWAP1 PUSH2 0x276E SWAP1 DUP3 PUSH2 0x4598 JUMP JUMPDEST POP PUSH1 0xC0 DUP3 ADD MLOAD PUSH1 0x6 DUP3 ADD SWAP1 PUSH2 0x2783 SWAP1 DUP3 PUSH2 0x4598 JUMP JUMPDEST POP PUSH1 0xE0 SWAP2 SWAP1 SWAP2 ADD MLOAD PUSH1 0x7 SWAP1 SWAP2 ADD DUP1 SLOAD PUSH1 0xFF NOT AND SWAP2 ISZERO ISZERO SWAP2 SWAP1 SWAP2 OR SWAP1 SSTORE CALLER PUSH0 DUP2 DUP2 MSTORE PUSH1 0x2 PUSH1 0x20 SWAP1 DUP2 MSTORE PUSH1 0x40 DUP1 DUP4 KECCAK256 DUP6 SWAP1 SSTORE DUP5 DUP4 MSTORE PUSH1 0x3 SWAP1 SWAP2 MSTORE SWAP1 KECCAK256 DUP1 SLOAD PUSH1 0x1 PUSH1 0x1 PUSH1 0xA0 SHL SUB NOT AND DUP3 OR SWAP1 SSTORE PUSH2 0x27D7 SWAP1 DUP3 PUSH2 0x3047 JUMP JUMPDEST CALLER PUSH1 0x1 PUSH1 0x1 PUSH1 0xA0 SHL SUB AND PUSH32 0x2ED4EE0412E67BBC9ED1687F3AD6BB7134D359D45994F3BF5302E91D81CF61F DUP3 DUP10 PUSH1 0x40 MLOAD PUSH2 0x2812 SWAP3 SWAP2 SWAP1 PUSH2 0x475F JUMP JUMPDEST PUSH1 0x40 MLOAD DUP1 SWAP2 SUB SWAP1 LOG2 PUSH32 0x47F02B73945CE0CA4C471ED60F05863657DE8944610464AAD740573B7C3B2D8C DUP3 CALLER PUSH1 0x40 MLOAD PUSH2 0x284B SWAP3 SWAP2 SWAP1 PUSH2 0x4777 JUMP JUMPDEST PUSH1 0x40 MLOAD DUP1 SWAP2 SUB SWAP1 LOG1 POP POP POP POP POP POP POP JUMP JUMPDEST PUSH2 0x8B3 CALLER DUP4 DUP4 PUSH2 0x334B JUMP JUMPDEST PUSH1 0x1 PUSH1 0x20 DUP2 SWAP1 MSTORE PUSH0 SWAP2 DUP3 MSTORE PUSH1 0x40 SWAP1 SWAP2 KECCAK256 DUP1 SLOAD SWAP2 DUP2 ADD DUP1 SLOAD PUSH2 0x2887 SWAP1 PUSH2 0x448F JUMP JUMPDEST DUP1 PUSH1 0x1F ADD PUSH1 0x20 DUP1 SWAP2 DIV MUL PUSH1 0x20 ADD PUSH1 0x40 MLOAD SWAP1 DUP2 ADD PUSH1 0x40 MSTORE DUP1 SWAP3 SWAP2 SWAP1 DUP2 DUP2 MSTORE PUSH1 0x20 ADD DUP3 DUP1 SLOAD PUSH2 0x28B3 SWAP1 PUSH2 0x448F JUMP JUMPDEST DUP1 ISZERO PUSH2 0x28FE JUMPI DUP1 PUSH1 0x1F LT PUSH2 0x28D5 JUMPI PUSH2 0x100 DUP1 DUP4 SLOAD DIV MUL DUP4 MSTORE SWAP2 PUSH1 0x20 ADD SWAP2 PUSH2 0x28FE JUMP JUMPDEST DUP3 ADD SWAP2 SWAP1 PUSH0 MSTORE PUSH1 0x20 PUSH0 KECCAK256 SWAP1 JUMPDEST DUP2 SLOAD DUP2 MSTORE SWAP1 PUSH1 0x1 ADD SWAP1 PUSH1 0x20 ADD DUP1 DUP4 GT PUSH2 0x28E1 JUMPI DUP3 SWAP1 SUB PUSH1 0x1F AND DUP3 ADD SWAP2 JUMPDEST POP POP POP PUSH1 0x2 DUP5 ADD SLOAD PUSH1 0x3 DUP6 ADD DUP1 SLOAD SWAP5 SWAP6 PUSH1 0xFF SWAP1 SWAP3 AND SWAP5 SWAP2 SWAP4 POP SWAP2 POP PUSH2 0x2922 SWAP1 PUSH2 0x448F JUMP JUMPDEST DUP1 PUSH1 0x1F ADD PUSH1 0x20 DUP1 SWAP2 DIV MUL PUSH1 0x20 ADD PUSH1 0x40 MLOAD SWAP1 DUP2 ADD PUSH1 0x40 MSTORE DUP1 SWAP3 SWAP2 SWAP1 DUP2 DUP2 MSTORE PUSH1 0x20 ADD DUP3 DUP1 SLOAD PUSH2 0x294E SWAP1 PUSH2 0x448F JUMP JUMPDEST DUP1 ISZERO PUSH2 0x2999 JUMPI DUP1 PUSH1 0x1F LT PUSH2 0x2970 JUMPI PUSH2 0x100 DUP1 DUP4 SLOAD DIV MUL DUP4 MSTORE SWAP2 PUSH1 0x20 ADD SWAP2 PUSH2 0x2999 JUMP JUMPDEST DUP3 ADD SWAP2 SWAP1 PUSH0 MSTORE PUSH1 0x20 PUSH0 KECCAK256 SWAP1 JUMPDEST DUP2 SLOAD DUP2 MSTORE SWAP1 PUSH1 0x1 ADD SWAP1 PUSH1 0x20 ADD DUP1 DUP4 GT PUSH2 0x297C JUMPI DUP3 SWAP1 SUB PUSH1 0x1F AND DUP3 ADD SWAP2 JUMPDEST POP POP POP POP POP SWAP1 DUP1 PUSH1 0x4 ADD DUP1 SLOAD PUSH2 0x29AE SWAP1 PUSH2 0x448F JUMP JUMPDEST DUP1 PUSH1 0x1F ADD PUSH1 0x20 DUP1 SWAP2 DIV MUL PUSH1 0x20 ADD PUSH1 0x40 MLOAD SWAP1 DUP2 ADD PUSH1 0x40 MSTORE DUP1 SWAP3 SWAP2 SWAP1 DUP2 DUP2 MSTORE PUSH1 0x20 ADD DUP3 DUP1 SLOAD PUSH2 0x29DA SWAP1 PUSH2 0x448F JUMP JUMPDEST DUP1 ISZERO PUSH2 0x2A25 JUMPI DUP1 PUSH1 0x1F LT PUSH2 0x29FC JUMPI PUSH2 0x100 DUP1 DUP4 SLOAD DIV MUL DUP4 MSTORE SWAP2 PUSH1 0x20 ADD SWAP2 PUSH2 0x2A25 JUMP JUMPDEST DUP3 ADD SWAP2 SWAP1 PUSH0 MSTORE PUSH1 0x20 PUSH0 KECCAK256 SWAP1 JUMPDEST DUP2 SLOAD DUP2 MSTORE SWAP1 PUSH1 0x1 ADD SWAP1 PUSH1 0x20 ADD DUP1 DUP4 GT PUSH2 0x2A08 JUMPI DUP3 SWAP1 SUB PUSH1 0x1F AND DUP3 ADD SWAP2 JUMPDEST POP POP POP POP POP SWAP1 DUP1 PUSH1 0x5 ADD DUP1 SLOAD PUSH2 0x2A3A SWAP1 PUSH2 0x448F JUMP JUMPDEST DUP1 PUSH1 0x1F ADD PUSH1 0x20 DUP1 SWAP2 DIV MUL PUSH1 0x20 ADD PUSH1 0x40 MLOAD SWAP1 DUP2 ADD PUSH1 0x40 MSTORE DUP1 SWAP3 SWAP2 SWAP1 DUP2 DUP2 MSTORE PUSH1 0x20 ADD DUP3 DUP1 SLOAD PUSH2 0x2A66 SWAP1 PUSH2 0x448F JUMP JUMPDEST DUP1 ISZERO PUSH2 0x2AB1 JUMPI DUP1 PUSH1 0x1F LT PUSH2 0x2A88 JUMPI PUSH2 0x100 DUP1 DUP4 SLOAD DIV MUL DUP4 MSTORE SWAP2 PUSH1 0x20 ADD SWAP2 PUSH2 0x2AB1 JUMP JUMPDEST DUP3 ADD SWAP2 SWAP1 PUSH0 MSTORE PUSH1 0x20 PUSH0 KECCAK256 SWAP1 JUMPDEST DUP2 SLOAD DUP2 MSTORE SWAP1 PUSH1 0x1 ADD SWAP1 PUSH1 0x20 ADD DUP1 DUP4 GT PUSH2 0x2A94 JUMPI DUP3 SWAP1 SUB PUSH1 0x1F AND DUP3 ADD SWAP2 JUMPDEST POP POP POP POP POP SWAP1 DUP1 PUSH1 0x6 ADD DUP1 SLOAD PUSH2 0x2AC6 SWAP1 PUSH2 0x448F JUMP JUMPDEST DUP1 PUSH1 0x1F ADD PUSH1 0x20 DUP1 SWAP2 DIV MUL PUSH1 0x20 ADD PUSH1 0x40 MLOAD SWAP1 DUP2 ADD PUSH1 0x40 MSTORE DUP1 SWAP3 SWAP2 SWAP1 DUP2 DUP2 MSTORE PUSH1 0x20 ADD DUP3 DUP1 SLOAD PUSH2 0x2AF2 SWAP1 PUSH2 0x448F JUMP JUMPDEST DUP1 ISZERO PUSH2 0x2B3D JUMPI DUP1 PUSH1 0x1F LT PUSH2 0x2B14 JUMPI PUSH2 0x100 DUP1 DUP4 SLOAD DIV MUL DUP4 MSTORE SWAP2 PUSH1 0x20 ADD SWAP2 PUSH2 0x2B3D JUMP JUMPDEST DUP3 ADD SWAP2 SWAP1 PUSH0 MSTORE PUSH1 0x20 PUSH0 KECCAK256 SWAP1 JUMPDEST DUP2 SLOAD DUP2 MSTORE SWAP1 PUSH1 0x1 ADD SWAP1 PUSH1 0x20 ADD DUP1 DUP4 GT PUSH2 0x2B20 JUMPI DUP3 SWAP1 SUB PUSH1 0x1F AND DUP3 ADD SWAP2 JUMPDEST POP POP POP PUSH1 0x7 SWAP1 SWAP4 ADD SLOAD SWAP2 SWAP3 POP POP PUSH1 0xFF AND DUP9 JUMP JUMPDEST PUSH0 PUSH1 0x5 DUP3 PUSH1 0x40 MLOAD PUSH2 0x2B61 SWAP2 SWAP1 PUSH2 0x44C7 JUMP JUMPDEST SWAP1 DUP2 MSTORE PUSH1 0x40 MLOAD SWAP1 DUP2 SWAP1 SUB PUSH1 0x20 ADD SWAP1 KECCAK256 SLOAD PUSH1 0x1 PUSH1 0x1 PUSH1 0xA0 SHL SUB AND SWAP3 SWAP2 POP POP JUMP JUMPDEST PUSH1 0x60 PUSH2 0x2B8B DUP3 PUSH2 0x2C71 JUMP JUMPDEST POP PUSH0 PUSH2 0x2BA1 PUSH1 0x40 DUP1 MLOAD PUSH1 0x20 DUP2 ADD SWAP1 SWAP2 MSTORE PUSH0 DUP2 MSTORE SWAP1 JUMP JUMPDEST SWAP1 POP PUSH0 DUP2 MLOAD GT PUSH2 0x2BBF JUMPI PUSH1 0x40 MLOAD DUP1 PUSH1 0x20 ADD PUSH1 0x40 MSTORE DUP1 PUSH0 DUP2 MSTORE POP PUSH2 0x2BEA JUMP JUMPDEST DUP1 PUSH2 0x2BC9 DUP5 PUSH2 0x3426 JUMP JUMPDEST PUSH1 0x40 MLOAD PUSH1 0x20 ADD PUSH2 0x2BDA SWAP3 SWAP2 SWAP1 PUSH2 0x47A1 JUMP JUMPDEST PUSH1 0x40 MLOAD PUSH1 0x20 DUP2 DUP4 SUB SUB DUP2 MSTORE SWAP1 PUSH1 0x40 MSTORE JUMPDEST SWAP4 SWAP3 POP POP POP JUMP JUMPDEST PUSH0 PUSH1 0x4 DUP3 PUSH1 0x40 MLOAD PUSH2 0x2C02 SWAP2 SWAP1 PUSH2 0x44C7 JUMP JUMPDEST SWAP1 DUP2 MSTORE PUSH1 0x40 MLOAD SWAP1 DUP2 SWAP1 SUB PUSH1 0x20 ADD SWAP1 KECCAK256 SLOAD PUSH1 0xFF AND SWAP3 SWAP2 POP POP JUMP JUMPDEST PUSH2 0x2C23 PUSH2 0x2FD3 JUMP JUMPDEST PUSH1 0x1 PUSH1 0x1 PUSH1 0xA0 SHL SUB DUP2 AND PUSH2 0x2C65 JUMPI PUSH1 0x40 MLOAD PUSH32 0x1E4FBDF700000000000000000000000000000000000000000000000000000000 DUP2 MSTORE PUSH0 PUSH1 0x4 DUP3 ADD MSTORE PUSH1 0x24 ADD PUSH2 0xC81 JUMP JUMPDEST PUSH2 0x2C6E DUP2 PUSH2 0x3288 JUMP JUMPDEST POP JUMP JUMPDEST PUSH0 DUP2 DUP2 MSTORE PUSH32 0x80BB2B638CC20BC4D0A60D66940F3AB4A00C1D7B313497CA82FB0B4AB0079302 PUSH1 0x20 MSTORE PUSH1 0x40 DUP2 KECCAK256 SLOAD PUSH1 0x1 PUSH1 0x1 PUSH1 0xA0 SHL SUB AND DUP1 PUSH2 0x7A8 JUMPI PUSH1 0x40 MLOAD PUSH4 0x7E273289 PUSH1 0xE0 SHL DUP2 MSTORE PUSH1 0x4 DUP2 ADD DUP5 SWAP1 MSTORE PUSH1 0x24 ADD PUSH2 0xC81 JUMP JUMPDEST PUSH2 0x1314 DUP4 DUP4 DUP4 PUSH1 0x1 PUSH2 0x34C3 JUMP JUMPDEST PUSH0 DUP1 DUP3 SWAP1 POP PUSH1 0x5 DUP2 MLOAD LT ISZERO PUSH2 0x2CEC JUMPI POP PUSH0 SWAP3 SWAP2 POP POP JUMP JUMPDEST PUSH1 0xFE DUP2 MLOAD GT ISZERO PUSH2 0x2CFE JUMPI POP PUSH0 SWAP3 SWAP2 POP POP JUMP JUMPDEST PUSH0 DUP1 PUSH0 DUP1 JUMPDEST DUP5 MLOAD DUP2 LT ISZERO PUSH2 0x2DDD JUMPI PUSH0 DUP6 DUP3 DUP2 MLOAD DUP2 LT PUSH2 0x2D1F JUMPI PUSH2 0x2D1F PUSH2 0x47CF JUMP JUMPDEST ADD PUSH1 0x20 ADD MLOAD PUSH1 0x1 PUSH1 0x1 PUSH1 0xF8 SHL SUB NOT AND SWAP1 POP PUSH32 0x4000000000000000000000000000000000000000000000000000000000000000 DUP2 SWAP1 SUB PUSH2 0x2D94 JUMPI DUP5 PUSH2 0x2D62 DUP2 PUSH2 0x4747 JUMP JUMPDEST SWAP6 POP PUSH1 0x1 SWAP5 POP POP DUP2 ISZERO DUP1 PUSH2 0x2D82 JUMPI POP PUSH1 0x1 DUP7 MLOAD PUSH2 0x2D7F SWAP2 SWAP1 PUSH2 0x47E3 JUMP JUMPDEST DUP3 EQ JUMPDEST ISZERO PUSH2 0x2D94 JUMPI POP PUSH0 SWAP8 SWAP7 POP POP POP POP POP POP POP JUMP JUMPDEST DUP4 DUP1 ISZERO PUSH2 0x2DCA JUMPI POP PUSH32 0x2E00000000000000000000000000000000000000000000000000000000000000 PUSH1 0x1 PUSH1 0x1 PUSH1 0xF8 SHL SUB NOT DUP3 AND EQ JUMPDEST ISZERO PUSH2 0x2DD4 JUMPI PUSH1 0x1 SWAP3 POP JUMPDEST POP PUSH1 0x1 ADD PUSH2 0x2D03 JUMP JUMPDEST POP DUP3 PUSH1 0x1 EQ DUP1 ISZERO PUSH2 0x2DEB JUMPI POP DUP1 JUMPDEST SWAP7 SWAP6 POP POP POP POP POP POP JUMP JUMPDEST PUSH1 0x60 PUSH0 DUP3 SWAP1 POP PUSH0 DUP2 MLOAD PUSH8 0xFFFFFFFFFFFFFFFF DUP2 GT ISZERO PUSH2 0x2E16 JUMPI PUSH2 0x2E16 PUSH2 0x4046 JUMP JUMPDEST PUSH1 0x40 MLOAD SWAP1 DUP1 DUP3 MSTORE DUP1 PUSH1 0x1F ADD PUSH1 0x1F NOT AND PUSH1 0x20 ADD DUP3 ADD PUSH1 0x40 MSTORE DUP1 ISZERO PUSH2 0x2E40 JUMPI PUSH1 0x20 DUP3 ADD DUP2 DUP1 CALLDATASIZE DUP4 CALLDATACOPY ADD SWAP1 POP JUMPDEST POP SWAP1 POP PUSH0 JUMPDEST DUP3 MLOAD DUP2 LT ISZERO PUSH2 0x2F73 JUMPI PUSH0 DUP4 DUP3 DUP2 MLOAD DUP2 LT PUSH2 0x2E61 JUMPI PUSH2 0x2E61 PUSH2 0x47CF JUMP JUMPDEST ADD PUSH1 0x20 ADD MLOAD PUSH1 0x1 PUSH1 0x1 PUSH1 0xF8 SHL SUB NOT AND SWAP1 POP PUSH32 0x4100000000000000000000000000000000000000000000000000000000000000 DUP2 LT DUP1 ISZERO SWAP1 PUSH2 0x2ECC JUMPI POP PUSH32 0x5A00000000000000000000000000000000000000000000000000000000000000 PUSH1 0x1 PUSH1 0x1 PUSH1 0xF8 SHL SUB NOT DUP3 AND GT ISZERO JUMPDEST ISZERO PUSH2 0x2F28 JUMPI PUSH2 0x2EE0 PUSH1 0xF8 DUP3 SWAP1 SHR PUSH1 0x20 PUSH2 0x47F6 JUMP JUMPDEST PUSH1 0xF8 SHL DUP4 DUP4 DUP2 MLOAD DUP2 LT PUSH2 0x2EF5 JUMPI PUSH2 0x2EF5 PUSH2 0x47CF JUMP JUMPDEST PUSH1 0x20 ADD ADD SWAP1 PUSH31 0xFFFFFFFFFFFFFFFFFFFFFFFFFFFFFFFFFFFFFFFFFFFFFFFFFFFFFFFFFFFFFF NOT AND SWAP1 DUP2 PUSH0 BYTE SWAP1 MSTORE8 POP PUSH2 0x2F6A JUMP JUMPDEST DUP1 DUP4 DUP4 DUP2 MLOAD DUP2 LT PUSH2 0x2F3B JUMPI PUSH2 0x2F3B PUSH2 0x47CF JUMP JUMPDEST PUSH1 0x20 ADD ADD SWAP1 PUSH31 0xFFFFFFFFFFFFFFFFFFFFFFFFFFFFFFFFFFFFFFFFFFFFFFFFFFFFFFFFFFFFFF NOT AND SWAP1 DUP2 PUSH0 BYTE SWAP1 MSTORE8 POP JUMPDEST POP PUSH1 0x1 ADD PUSH2 0x2E45 JUMP JUMPDEST POP SWAP4 SWAP3 POP POP POP JUMP JUMPDEST PUSH0 DUP2 PUSH1 0x40 MLOAD PUSH1 0x20 ADD PUSH2 0x2F8D SWAP2 SWAP1 PUSH2 0x44C7 JUMP JUMPDEST PUSH1 0x40 MLOAD PUSH1 0x20 DUP2 DUP4 SUB SUB DUP2 MSTORE SWAP1 PUSH1 0x40 MSTORE DUP1 MLOAD SWAP1 PUSH1 0x20 ADD KECCAK256 DUP4 PUSH1 0x40 MLOAD PUSH1 0x20 ADD PUSH2 0x2FB4 SWAP2 SWAP1 PUSH2 0x44C7 JUMP JUMPDEST PUSH1 0x40 MLOAD PUSH1 0x20 DUP2 DUP4 SUB SUB DUP2 MSTORE SWAP1 PUSH1 0x40 MSTORE DUP1 MLOAD SWAP1 PUSH1 0x20 ADD KECCAK256 EQ SWAP1 POP SWAP3 SWAP2 POP POP JUMP JUMPDEST CALLER PUSH2 0x3005 PUSH32 0x9016D09D72D40FDAE2FD8CEAC6B6234C7706214FD39C1CD1E609A0528C199300 SLOAD PUSH1 0x1 PUSH1 0x1 PUSH1 0xA0 SHL SUB AND SWAP1 JUMP JUMPDEST PUSH1 0x1 PUSH1 0x1 PUSH1 0xA0 SHL SUB AND EQ PUSH2 0x1D67 JUMPI PUSH1 0x40 MLOAD PUSH32 0x118CDAA700000000000000000000000000000000000000000000000000000000 DUP2 MSTORE CALLER PUSH1 0x4 DUP3 ADD MSTORE PUSH1 0x24 ADD PUSH2 0xC81 JUMP JUMPDEST PUSH2 0x8B3 DUP3 DUP3 PUSH1 0x40 MLOAD DUP1 PUSH1 0x20 ADD PUSH1 0x40 MSTORE DUP1 PUSH0 DUP2 MSTORE POP PUSH2 0x363F JUMP JUMPDEST ADDRESS PUSH1 0x1 PUSH1 0x1 PUSH1 0xA0 SHL SUB PUSH32 0x0 AND EQ DUP1 PUSH2 0x30F9 JUMPI POP PUSH32 0x0 PUSH1 0x1 PUSH1 0x1 PUSH1 0xA0 SHL SUB AND PUSH2 0x30ED PUSH32 0x360894A13BA1A3210667C828492DB98DCA3E2076CC3735A920A3CA505D382BBC SLOAD PUSH1 0x1 PUSH1 0x1 PUSH1 0xA0 SHL SUB AND SWAP1 JUMP JUMPDEST PUSH1 0x1 PUSH1 0x1 PUSH1 0xA0 SHL SUB AND EQ ISZERO JUMPDEST ISZERO PUSH2 0x1D67 JUMPI PUSH1 0x40 MLOAD PUSH4 0x703E46DD PUSH1 0xE1 SHL DUP2 MSTORE PUSH1 0x4 ADD PUSH1 0x40 MLOAD DUP1 SWAP2 SUB SWAP1 REVERT JUMPDEST PUSH2 0x2C6E PUSH2 0x2FD3 JUMP JUMPDEST DUP2 PUSH1 0x1 PUSH1 0x1 PUSH1 0xA0 SHL SUB AND PUSH4 0x52D1902D PUSH1 0x40 MLOAD DUP2 PUSH4 0xFFFFFFFF AND PUSH1 0xE0 SHL DUP2 MSTORE PUSH1 0x4 ADD PUSH1 0x20 PUSH1 0x40 MLOAD DUP1 DUP4 SUB DUP2 DUP7 GAS STATICCALL SWAP3 POP POP POP DUP1 ISZERO PUSH2 0x3179 JUMPI POP PUSH1 0x40 DUP1 MLOAD PUSH1 0x1F RETURNDATASIZE SWAP1 DUP2 ADD PUSH1 0x1F NOT AND DUP3 ADD SWAP1 SWAP3 MSTORE PUSH2 0x3176 SWAP2 DUP2 ADD SWAP1 PUSH2 0x480F JUMP JUMPDEST PUSH1 0x1 JUMPDEST PUSH2 0x31A1 JUMPI PUSH1 0x40 MLOAD PUSH4 0x4C9C8CE3 PUSH1 0xE0 SHL DUP2 MSTORE PUSH1 0x1 PUSH1 0x1 PUSH1 0xA0 SHL SUB DUP4 AND PUSH1 0x4 DUP3 ADD MSTORE PUSH1 0x24 ADD PUSH2 0xC81 JUMP JUMPDEST PUSH32 0x360894A13BA1A3210667C828492DB98DCA3E2076CC3735A920A3CA505D382BBC DUP2 EQ PUSH2 0x31FD JUMPI PUSH1 0x40 MLOAD PUSH32 0xAA1D49A400000000000000000000000000000000000000000000000000000000 DUP2 MSTORE PUSH1 0x4 DUP2 ADD DUP3 SWAP1 MSTORE PUSH1 0x24 ADD PUSH2 0xC81 JUMP JUMPDEST PUSH2 0x1314 DUP4 DUP4 PUSH2 0x3656 JUMP JUMPDEST ADDRESS PUSH1 0x1 PUSH1 0x1 PUSH1 0xA0 SHL SUB PUSH32 0x0 AND EQ PUSH2 0x1D67 JUMPI PUSH1 0x40 MLOAD PUSH4 0x703E46DD PUSH1 0xE1 SHL DUP2 MSTORE PUSH1 0x4 ADD PUSH1 0x40 MLOAD DUP1 SWAP2 SUB SWAP1 REVERT JUMPDEST PUSH0 PUSH2 0x325C PUSH0 DUP4 PUSH0 PUSH2 0x36AB JUMP JUMPDEST SWAP1 POP PUSH1 0x1 PUSH1 0x1 PUSH1 0xA0 SHL SUB DUP2 AND PUSH2 0x8B3 JUMPI PUSH1 0x40 MLOAD PUSH4 0x7E273289 PUSH1 0xE0 SHL DUP2 MSTORE PUSH1 0x4 DUP2 ADD DUP4 SWAP1 MSTORE PUSH1 0x24 ADD PUSH2 0xC81 JUMP JUMPDEST PUSH32 0x9016D09D72D40FDAE2FD8CEAC6B6234C7706214FD39C1CD1E609A0528C199300 DUP1 SLOAD PUSH1 0x1 PUSH1 0x1 PUSH1 0xA0 SHL SUB NOT DUP2 AND PUSH1 0x1 PUSH1 0x1 PUSH1 0xA0 SHL SUB DUP5 DUP2 AND SWAP2 DUP3 OR DUP5 SSTORE PUSH1 0x40 MLOAD SWAP3 AND SWAP2 DUP3 SWAP1 PUSH32 0x8BE0079C531659141344CD1FD0A4F28419497F9722A3DAAFE3B4186F6B6457E0 SWAP1 PUSH0 SWAP1 LOG3 POP POP POP JUMP JUMPDEST PUSH0 DUP1 PUSH32 0xF0C57E16840DF040F15088DC2F81FE391C3923BEC73E23A9662EFC9C229C6A00 PUSH2 0x7A8 JUMP JUMPDEST PUSH2 0x3328 PUSH2 0x37E5 JUMP JUMPDEST PUSH2 0x8B3 DUP3 DUP3 PUSH2 0x3823 JUMP JUMPDEST PUSH2 0x333A PUSH2 0x37E5 JUMP JUMPDEST PUSH2 0x2C6E DUP2 PUSH2 0x386C JUMP JUMPDEST PUSH2 0x1D67 PUSH2 0x37E5 JUMP JUMPDEST PUSH32 0x80BB2B638CC20BC4D0A60D66940F3AB4A00C1D7B313497CA82FB0B4AB0079300 PUSH1 0x1 PUSH1 0x1 PUSH1 0xA0 SHL SUB DUP4 AND PUSH2 0x33B7 JUMPI PUSH1 0x40 MLOAD PUSH32 0x5B08BA1800000000000000000000000000000000000000000000000000000000 DUP2 MSTORE PUSH1 0x1 PUSH1 0x1 PUSH1 0xA0 SHL SUB DUP5 AND PUSH1 0x4 DUP3 ADD MSTORE PUSH1 0x24 ADD PUSH2 0xC81 JUMP JUMPDEST PUSH1 0x1 PUSH1 0x1 PUSH1 0xA0 SHL SUB DUP5 DUP2 AND PUSH0 DUP2 DUP2 MSTORE PUSH1 0x5 DUP5 ADD PUSH1 0x20 SWAP1 DUP2 MSTORE PUSH1 0x40 DUP1 DUP4 KECCAK256 SWAP5 DUP9 AND DUP1 DUP5 MSTORE SWAP5 DUP3 MSTORE SWAP2 DUP3 SWAP1 KECCAK256 DUP1 SLOAD PUSH1 0xFF NOT AND DUP8 ISZERO ISZERO SWAP1 DUP2 OR SWAP1 SWAP2 SSTORE SWAP2 MLOAD SWAP2 DUP3 MSTORE PUSH32 0x17307EAB39AB6107E8899845AD3D59BD9653F200F220920489CA2B5937696C31 SWAP2 ADD PUSH1 0x40 MLOAD DUP1 SWAP2 SUB SWAP1 LOG3 POP POP POP POP JUMP JUMPDEST PUSH1 0x60 PUSH0 PUSH2 0x3432 DUP4 PUSH2 0x3874 JUMP JUMPDEST PUSH1 0x1 ADD SWAP1 POP PUSH0 DUP2 PUSH8 0xFFFFFFFFFFFFFFFF DUP2 GT ISZERO PUSH2 0x3451 JUMPI PUSH2 0x3451 PUSH2 0x4046 JUMP JUMPDEST PUSH1 0x40 MLOAD SWAP1 DUP1 DUP3 MSTORE DUP1 PUSH1 0x1F ADD PUSH1 0x1F NOT AND PUSH1 0x20 ADD DUP3 ADD PUSH1 0x40 MSTORE DUP1 ISZERO PUSH2 0x347B JUMPI PUSH1 0x20 DUP3 ADD DUP2 DUP1 CALLDATASIZE DUP4 CALLDATACOPY ADD SWAP1 POP JUMPDEST POP SWAP1 POP DUP2 DUP2 ADD PUSH1 0x20 ADD JUMPDEST PUSH0 NOT ADD PUSH32 0x3031323334353637383961626364656600000000000000000000000000000000 PUSH1 0xA DUP7 MOD BYTE DUP2 MSTORE8 PUSH1 0xA DUP6 DIV SWAP5 POP DUP5 PUSH2 0x3485 JUMPI POP SWAP4 SWAP3 POP POP POP JUMP JUMPDEST PUSH32 0x80BB2B638CC20BC4D0A60D66940F3AB4A00C1D7B313497CA82FB0B4AB0079300 DUP2 DUP1 PUSH2 0x34F8 JUMPI POP PUSH1 0x1 PUSH1 0x1 PUSH1 0xA0 SHL SUB DUP4 AND ISZERO ISZERO JUMPDEST ISZERO PUSH2 0x360F JUMPI PUSH0 PUSH2 0x3507 DUP6 PUSH2 0x2C71 JUMP JUMPDEST SWAP1 POP PUSH1 0x1 PUSH1 0x1 PUSH1 0xA0 SHL SUB DUP5 AND ISZERO DUP1 ISZERO SWAP1 PUSH2 0x3533 JUMPI POP DUP4 PUSH1 0x1 PUSH1 0x1 PUSH1 0xA0 SHL SUB AND DUP2 PUSH1 0x1 PUSH1 0x1 PUSH1 0xA0 SHL SUB AND EQ ISZERO JUMPDEST DUP1 ISZERO PUSH2 0x3583 JUMPI POP PUSH1 0x1 PUSH1 0x1 PUSH1 0xA0 SHL SUB DUP1 DUP3 AND PUSH0 SWAP1 DUP2 MSTORE PUSH32 0x80BB2B638CC20BC4D0A60D66940F3AB4A00C1D7B313497CA82FB0B4AB0079305 PUSH1 0x20 SWAP1 DUP2 MSTORE PUSH1 0x40 DUP1 DUP4 KECCAK256 SWAP4 DUP9 AND DUP4 MSTORE SWAP3 SWAP1 MSTORE KECCAK256 SLOAD PUSH1 0xFF AND ISZERO JUMPDEST ISZERO PUSH2 0x35C5 JUMPI PUSH1 0x40 MLOAD PUSH32 0xA9FBF51F00000000000000000000000000000000000000000000000000000000 DUP2 MSTORE PUSH1 0x1 PUSH1 0x1 PUSH1 0xA0 SHL SUB DUP6 AND PUSH1 0x4 DUP3 ADD MSTORE PUSH1 0x24 ADD PUSH2 0xC81 JUMP JUMPDEST DUP3 ISZERO PUSH2 0x360D JUMPI DUP5 DUP7 PUSH1 0x1 PUSH1 0x1 PUSH1 0xA0 SHL SUB AND DUP3 PUSH1 0x1 PUSH1 0x1 PUSH1 0xA0 SHL SUB AND PUSH32 0x8C5BE1E5EBEC7D5BD14F71427D1E84F3DD0314C0F7B2291E5B200AC8C7C3B925 PUSH1 0x40 MLOAD PUSH1 0x40 MLOAD DUP1 SWAP2 SUB SWAP1 LOG4 JUMPDEST POP JUMPDEST PUSH0 SWAP4 DUP5 MSTORE PUSH1 0x4 ADD PUSH1 0x20 MSTORE POP POP PUSH1 0x40 SWAP1 KECCAK256 DUP1 SLOAD PUSH1 0x1 PUSH1 0x1 PUSH1 0xA0 SHL SUB NOT AND PUSH1 0x1 PUSH1 0x1 PUSH1 0xA0 SHL SUB SWAP3 SWAP1 SWAP3 AND SWAP2 SWAP1 SWAP2 OR SWAP1 SSTORE JUMP JUMPDEST PUSH2 0x3649 DUP4 DUP4 PUSH2 0x3955 JUMP JUMPDEST PUSH2 0x1314 CALLER PUSH0 DUP6 DUP6 DUP6 PUSH2 0x39CF JUMP JUMPDEST PUSH2 0x365F DUP3 PUSH2 0x3AF6 JUMP JUMPDEST PUSH1 0x40 MLOAD PUSH1 0x1 PUSH1 0x1 PUSH1 0xA0 SHL SUB DUP4 AND SWAP1 PUSH32 0xBC7CD75A20EE27FD9ADEBAB32041F755214DBC6BFFA90CC0225B39DA2E5C2D3B SWAP1 PUSH0 SWAP1 LOG2 DUP1 MLOAD ISZERO PUSH2 0x36A3 JUMPI PUSH2 0x1314 DUP3 DUP3 PUSH2 0x3B6C JUMP JUMPDEST PUSH2 0x8B3 PUSH2 0x3BDE JUMP JUMPDEST PUSH0 DUP3 DUP2 MSTORE PUSH32 0x80BB2B638CC20BC4D0A60D66940F3AB4A00C1D7B313497CA82FB0B4AB0079302 PUSH1 0x20 MSTORE PUSH1 0x40 DUP2 KECCAK256 SLOAD PUSH32 0x80BB2B638CC20BC4D0A60D66940F3AB4A00C1D7B313497CA82FB0B4AB0079300 SWAP1 PUSH1 0x1 PUSH1 0x1 PUSH1 0xA0 SHL SUB SWAP1 DUP2 AND SWAP1 DUP5 AND ISZERO PUSH2 0x3718 JUMPI PUSH2 0x3718 DUP2 DUP6 DUP8 PUSH2 0x3C16 JUMP JUMPDEST PUSH1 0x1 PUSH1 0x1 PUSH1 0xA0 SHL SUB DUP2 AND ISZERO PUSH2 0x3754 JUMPI PUSH2 0x3733 PUSH0 DUP7 PUSH0 DUP1 PUSH2 0x34C3 JUMP JUMPDEST PUSH1 0x1 PUSH1 0x1 PUSH1 0xA0 SHL SUB DUP2 AND PUSH0 SWAP1 DUP2 MSTORE PUSH1 0x3 DUP4 ADD PUSH1 0x20 MSTORE PUSH1 0x40 SWAP1 KECCAK256 DUP1 SLOAD PUSH0 NOT ADD SWAP1 SSTORE JUMPDEST PUSH1 0x1 PUSH1 0x1 PUSH1 0xA0 SHL SUB DUP7 AND ISZERO PUSH2 0x3784 JUMPI PUSH1 0x1 PUSH1 0x1 PUSH1 0xA0 SHL SUB DUP7 AND PUSH0 SWAP1 DUP2 MSTORE PUSH1 0x3 DUP4 ADD PUSH1 0x20 MSTORE PUSH1 0x40 SWAP1 KECCAK256 DUP1 SLOAD PUSH1 0x1 ADD SWAP1 SSTORE JUMPDEST PUSH0 DUP6 DUP2 MSTORE PUSH1 0x2 DUP4 ADD PUSH1 0x20 MSTORE PUSH1 0x40 DUP1 DUP3 KECCAK256 DUP1 SLOAD PUSH1 0x1 PUSH1 0x1 PUSH1 0xA0 SHL SUB NOT AND PUSH1 0x1 PUSH1 0x1 PUSH1 0xA0 SHL SUB DUP11 DUP2 AND SWAP2 DUP3 OR SWAP1 SWAP3 SSTORE SWAP2 MLOAD DUP9 SWAP4 SWAP2 DUP6 AND SWAP2 PUSH32 0xDDF252AD1BE2C89B69C2B068FC378DAA952BA7F163C4A11628F55A4DF523B3EF SWAP2 LOG4 SWAP6 SWAP5 POP POP POP POP POP JUMP JUMPDEST PUSH2 0x37ED PUSH2 0x3C93 JUMP JUMPDEST PUSH2 0x1D67 JUMPI PUSH1 0x40 MLOAD PUSH32 0xD7E6BCF800000000000000000000000000000000000000000000000000000000 DUP2 MSTORE PUSH1 0x4 ADD PUSH1 0x40 MLOAD DUP1 SWAP2 SUB SWAP1 REVERT JUMPDEST PUSH2 0x382B PUSH2 0x37E5 JUMP JUMPDEST PUSH32 0x80BB2B638CC20BC4D0A60D66940F3AB4A00C1D7B313497CA82FB0B4AB0079300 DUP1 PUSH2 0x3857 DUP5 DUP3 PUSH2 0x4598 JUMP JUMPDEST POP PUSH1 0x1 DUP2 ADD PUSH2 0x3866 DUP4 DUP3 PUSH2 0x4598 JUMP JUMPDEST POP POP POP POP JUMP JUMPDEST PUSH2 0x2C23 PUSH2 0x37E5 JUMP JUMPDEST PUSH0 DUP1 PUSH27 0x184F03E93FF9F4DAA797ED6E38ED64BF6A1F010000000000000000 DUP4 LT PUSH2 0x38BC JUMPI PUSH27 0x184F03E93FF9F4DAA797ED6E38ED64BF6A1F010000000000000000 DUP4 DIV SWAP3 POP PUSH1 0x40 ADD JUMPDEST PUSH14 0x4EE2D6D415B85ACEF8100000000 DUP4 LT PUSH2 0x38E8 JUMPI PUSH14 0x4EE2D6D415B85ACEF8100000000 DUP4 DIV SWAP3 POP PUSH1 0x20 ADD JUMPDEST PUSH7 0x2386F26FC10000 DUP4 LT PUSH2 0x3906 JUMPI PUSH7 0x2386F26FC10000 DUP4 DIV SWAP3 POP PUSH1 0x10 ADD JUMPDEST PUSH4 0x5F5E100 DUP4 LT PUSH2 0x391E JUMPI PUSH4 0x5F5E100 DUP4 DIV SWAP3 POP PUSH1 0x8 ADD JUMPDEST PUSH2 0x2710 DUP4 LT PUSH2 0x3932 JUMPI PUSH2 0x2710 DUP4 DIV SWAP3 POP PUSH1 0x4 ADD JUMPDEST PUSH1 0x64 DUP4 LT PUSH2 0x3944 JUMPI PUSH1 0x64 DUP4 DIV SWAP3 POP PUSH1 0x2 ADD JUMPDEST PUSH1 0xA DUP4 LT PUSH2 0x7A8 JUMPI PUSH1 0x1 ADD SWAP3 SWAP2 POP POP JUMP JUMPDEST PUSH1 0x1 PUSH1 0x1 PUSH1 0xA0 SHL SUB DUP3 AND PUSH2 0x397E JUMPI PUSH1 0x40 MLOAD PUSH4 0x32505749 PUSH1 0xE1 SHL DUP2 MSTORE PUSH0 PUSH1 0x4 DUP3 ADD MSTORE PUSH1 0x24 ADD PUSH2 0xC81 JUMP JUMPDEST PUSH0 PUSH2 0x398A DUP4 DUP4 PUSH0 PUSH2 0x36AB JUMP JUMPDEST SWAP1 POP PUSH1 0x1 PUSH1 0x1 PUSH1 0xA0 SHL SUB DUP2 AND ISZERO PUSH2 0x1314 JUMPI PUSH1 0x40 MLOAD PUSH32 0x73C6AC6E00000000000000000000000000000000000000000000000000000000 DUP2 MSTORE PUSH0 PUSH1 0x4 DUP3 ADD MSTORE PUSH1 0x24 ADD PUSH2 0xC81 JUMP JUMPDEST PUSH1 0x1 PUSH1 0x1 PUSH1 0xA0 SHL SUB DUP4 AND EXTCODESIZE ISZERO PUSH2 0x22D5 JUMPI PUSH1 0x40 MLOAD PUSH4 0xA85BD01 PUSH1 0xE1 SHL DUP2 MSTORE PUSH1 0x1 PUSH1 0x1 PUSH1 0xA0 SHL SUB DUP5 AND SWAP1 PUSH4 0x150B7A02 SWAP1 PUSH2 0x3A11 SWAP1 DUP9 SWAP1 DUP9 SWAP1 DUP8 SWAP1 DUP8 SWAP1 PUSH1 0x4 ADD PUSH2 0x4826 JUMP JUMPDEST PUSH1 0x20 PUSH1 0x40 MLOAD DUP1 DUP4 SUB DUP2 PUSH0 DUP8 GAS CALL SWAP3 POP POP POP DUP1 ISZERO PUSH2 0x3A4B JUMPI POP PUSH1 0x40 DUP1 MLOAD PUSH1 0x1F RETURNDATASIZE SWAP1 DUP2 ADD PUSH1 0x1F NOT AND DUP3 ADD SWAP1 SWAP3 MSTORE PUSH2 0x3A48 SWAP2 DUP2 ADD SWAP1 PUSH2 0x4857 JUMP JUMPDEST PUSH1 0x1 JUMPDEST PUSH2 0x3AB2 JUMPI RETURNDATASIZE DUP1 DUP1 ISZERO PUSH2 0x3A78 JUMPI PUSH1 0x40 MLOAD SWAP2 POP PUSH1 0x1F NOT PUSH1 0x3F RETURNDATASIZE ADD AND DUP3 ADD PUSH1 0x40 MSTORE RETURNDATASIZE DUP3 MSTORE RETURNDATASIZE PUSH0 PUSH1 0x20 DUP5 ADD RETURNDATACOPY PUSH2 0x3A7D JUMP JUMPDEST PUSH1 0x60 SWAP2 POP JUMPDEST POP DUP1 MLOAD PUSH0 SUB PUSH2 0x3AAA JUMPI PUSH1 0x40 MLOAD PUSH4 0x32505749 PUSH1 0xE1 SHL DUP2 MSTORE PUSH1 0x1 PUSH1 0x1 PUSH1 0xA0 SHL SUB DUP6 AND PUSH1 0x4 DUP3 ADD MSTORE PUSH1 0x24 ADD PUSH2 0xC81 JUMP JUMPDEST DUP1 MLOAD PUSH1 0x20 DUP3 ADD REVERT JUMPDEST PUSH1 0x1 PUSH1 0x1 PUSH1 0xE0 SHL SUB NOT DUP2 AND PUSH4 0xA85BD01 PUSH1 0xE1 SHL EQ PUSH2 0x3AEE JUMPI PUSH1 0x40 MLOAD PUSH4 0x32505749 PUSH1 0xE1 SHL DUP2 MSTORE PUSH1 0x1 PUSH1 0x1 PUSH1 0xA0 SHL SUB DUP6 AND PUSH1 0x4 DUP3 ADD MSTORE PUSH1 0x24 ADD PUSH2 0xC81 JUMP JUMPDEST POP POP POP POP POP POP JUMP JUMPDEST DUP1 PUSH1 0x1 PUSH1 0x1 PUSH1 0xA0 SHL SUB AND EXTCODESIZE PUSH0 SUB PUSH2 0x3B2B JUMPI PUSH1 0x40 MLOAD PUSH4 0x4C9C8CE3 PUSH1 0xE0 SHL DUP2 MSTORE PUSH1 0x1 PUSH1 0x1 PUSH1 0xA0 SHL SUB DUP3 AND PUSH1 0x4 DUP3 ADD MSTORE PUSH1 0x24 ADD PUSH2 0xC81 JUMP JUMPDEST PUSH32 0x360894A13BA1A3210667C828492DB98DCA3E2076CC3735A920A3CA505D382BBC DUP1 SLOAD PUSH1 0x1 PUSH1 0x1 PUSH1 0xA0 SHL SUB NOT AND PUSH1 0x1 PUSH1 0x1 PUSH1 0xA0 SHL SUB SWAP3 SWAP1 SWAP3 AND SWAP2 SWAP1 SWAP2 OR SWAP1 SSTORE JUMP JUMPDEST PUSH1 0x60 PUSH0 DUP1 DUP5 PUSH1 0x1 PUSH1 0x1 PUSH1 0xA0 SHL SUB AND DUP5 PUSH1 0x40 MLOAD PUSH2 0x3B88 SWAP2 SWAP1 PUSH2 0x44C7 JUMP JUMPDEST PUSH0 PUSH1 0x40 MLOAD DUP1 DUP4 SUB DUP2 DUP6 GAS DELEGATECALL SWAP2 POP POP RETURNDATASIZE DUP1 PUSH0 DUP2 EQ PUSH2 0x3BC0 JUMPI PUSH1 0x40 MLOAD SWAP2 POP PUSH1 0x1F NOT PUSH1 0x3F RETURNDATASIZE ADD AND DUP3 ADD PUSH1 0x40 MSTORE RETURNDATASIZE DUP3 MSTORE RETURNDATASIZE PUSH0 PUSH1 0x20 DUP5 ADD RETURNDATACOPY PUSH2 0x3BC5 JUMP JUMPDEST PUSH1 0x60 SWAP2 POP JUMPDEST POP SWAP2 POP SWAP2 POP PUSH2 0x3BD5 DUP6 DUP4 DUP4 PUSH2 0x3CB1 JUMP JUMPDEST SWAP6 SWAP5 POP POP POP POP POP JUMP JUMPDEST CALLVALUE ISZERO PUSH2 0x1D67 JUMPI PUSH1 0x40 MLOAD PUSH32 0xB398979F00000000000000000000000000000000000000000000000000000000 DUP2 MSTORE PUSH1 0x4 ADD PUSH1 0x40 MLOAD DUP1 SWAP2 SUB SWAP1 REVERT JUMPDEST PUSH2 0x3C21 DUP4 DUP4 DUP4 PUSH2 0x3D26 JUMP JUMPDEST PUSH2 0x1314 JUMPI PUSH1 0x1 PUSH1 0x1 PUSH1 0xA0 SHL SUB DUP4 AND PUSH2 0x3C4F JUMPI PUSH1 0x40 MLOAD PUSH4 0x7E273289 PUSH1 0xE0 SHL DUP2 MSTORE PUSH1 0x4 DUP2 ADD DUP3 SWAP1 MSTORE PUSH1 0x24 ADD PUSH2 0xC81 JUMP JUMPDEST PUSH1 0x40 MLOAD PUSH32 0x177E802F00000000000000000000000000000000000000000000000000000000 DUP2 MSTORE PUSH1 0x1 PUSH1 0x1 PUSH1 0xA0 SHL SUB DUP4 AND PUSH1 0x4 DUP3 ADD MSTORE PUSH1 0x24 DUP2 ADD DUP3 SWAP1 MSTORE PUSH1 0x44 ADD PUSH2 0xC81 JUMP JUMPDEST PUSH0 PUSH2 0x3C9C PUSH2 0x32F8 JUMP JUMPDEST SLOAD PUSH9 0x10000000000000000 SWAP1 DIV PUSH1 0xFF AND SWAP2 SWAP1 POP JUMP JUMPDEST PUSH1 0x60 DUP3 PUSH2 0x3CC6 JUMPI PUSH2 0x3CC1 DUP3 PUSH2 0x3DE7 JUMP JUMPDEST PUSH2 0x2BEA JUMP JUMPDEST DUP2 MLOAD ISZERO DUP1 ISZERO PUSH2 0x3CDD JUMPI POP PUSH1 0x1 PUSH1 0x1 PUSH1 0xA0 SHL SUB DUP5 AND EXTCODESIZE ISZERO JUMPDEST ISZERO PUSH2 0x3D1F JUMPI PUSH1 0x40 MLOAD PUSH32 0x9996B31500000000000000000000000000000000000000000000000000000000 DUP2 MSTORE PUSH1 0x1 PUSH1 0x1 PUSH1 0xA0 SHL SUB DUP6 AND PUSH1 0x4 DUP3 ADD MSTORE PUSH1 0x24 ADD PUSH2 0xC81 JUMP JUMPDEST POP DUP1 PUSH2 0x2BEA JUMP JUMPDEST PUSH0 PUSH1 0x1 PUSH1 0x1 PUSH1 0xA0 SHL SUB DUP4 AND ISZERO DUP1 ISZERO SWAP1 PUSH2 0x3DDF JUMPI POP DUP3 PUSH1 0x1 PUSH1 0x1 PUSH1 0xA0 SHL SUB AND DUP5 PUSH1 0x1 PUSH1 0x1 PUSH1 0xA0 SHL SUB AND EQ DUP1 PUSH2 0x3D9D JUMPI POP PUSH1 0x1 PUSH1 0x1 PUSH1 0xA0 SHL SUB DUP1 DUP6 AND PUSH0 SWAP1 DUP2 MSTORE PUSH32 0x80BB2B638CC20BC4D0A60D66940F3AB4A00C1D7B313497CA82FB0B4AB0079305 PUSH1 0x20 SWAP1 DUP2 MSTORE PUSH1 0x40 DUP1 DUP4 KECCAK256 SWAP4 DUP8 AND DUP4 MSTORE SWAP3 SWAP1 MSTORE KECCAK256 SLOAD PUSH1 0xFF AND JUMPDEST DUP1 PUSH2 0x3DDF JUMPI POP PUSH0 DUP3 DUP2 MSTORE PUSH32 0x80BB2B638CC20BC4D0A60D66940F3AB4A00C1D7B313497CA82FB0B4AB0079304 PUSH1 0x20 MSTORE PUSH1 0x40 SWAP1 KECCAK256 SLOAD PUSH1 0x1 PUSH1 0x1 PUSH1 0xA0 SHL SUB DUP5 DUP2 AND SWAP2 AND EQ JUMPDEST SWAP5 SWAP4 POP POP POP POP JUMP JUMPDEST DUP1 MLOAD ISZERO PUSH2 0x3DF6 JUMPI DUP1 MLOAD PUSH1 0x20 DUP3 ADD REVERT JUMPDEST PUSH1 0x40 MLOAD PUSH32 0xD6BDA27500000000000000000000000000000000000000000000000000000000 DUP2 MSTORE PUSH1 0x4 ADD PUSH1 0x40 MLOAD DUP1 SWAP2 SUB SWAP1 REVERT JUMPDEST POP DUP1 SLOAD PUSH2 0x3E34 SWAP1 PUSH2 0x448F JUMP JUMPDEST PUSH0 DUP3 SSTORE DUP1 PUSH1 0x1F LT PUSH2 0x3E43 JUMPI POP POP JUMP JUMPDEST PUSH1 0x1F ADD PUSH1 0x20 SWAP1 DIV SWAP1 PUSH0 MSTORE PUSH1 0x20 PUSH0 KECCAK256 SWAP1 DUP2 ADD SWAP1 PUSH2 0x2C6E SWAP2 SWAP1 JUMPDEST DUP1 DUP3 GT ISZERO PUSH2 0x3E6E JUMPI PUSH0 DUP2 SSTORE PUSH1 0x1 ADD PUSH2 0x3E5B JUMP JUMPDEST POP SWAP1 JUMP JUMPDEST PUSH1 0x1 PUSH1 0x1 PUSH1 0xE0 SHL SUB NOT DUP2 AND DUP2 EQ PUSH2 0x2C6E JUMPI PUSH0 DUP1 REVERT JUMPDEST PUSH0 PUSH1 0x20 DUP3 DUP5 SUB SLT ISZERO PUSH2 0x3E97 JUMPI PUSH0 DUP1 REVERT JUMPDEST DUP2 CALLDATALOAD PUSH2 0x2BEA DUP2 PUSH2 0x3E72 JUMP JUMPDEST DUP1 CALLDATALOAD PUSH1 0x1 PUSH1 0x1 PUSH1 0xA0 SHL SUB DUP2 AND DUP2 EQ PUSH2 0x3EB8 JUMPI PUSH0 DUP1 REVERT JUMPDEST SWAP2 SWAP1 POP JUMP JUMPDEST PUSH0 PUSH1 0x20 DUP3 DUP5 SUB SLT ISZERO PUSH2 0x3ECD JUMPI PUSH0 DUP1 REVERT JUMPDEST PUSH2 0x2BEA DUP3 PUSH2 0x3EA2 JUMP JUMPDEST PUSH0 JUMPDEST DUP4 DUP2 LT ISZERO PUSH2 0x3EF0 JUMPI DUP2 DUP2 ADD MLOAD DUP4 DUP3 ADD MSTORE PUSH1 0x20 ADD PUSH2 0x3ED8 JUMP JUMPDEST POP POP PUSH0 SWAP2 ADD MSTORE JUMP JUMPDEST PUSH0 DUP2 MLOAD DUP1 DUP5 MSTORE PUSH2 0x3F0F DUP2 PUSH1 0x20 DUP7 ADD PUSH1 0x20 DUP7 ADD PUSH2 0x3ED6 JUMP JUMPDEST PUSH1 0x1F ADD PUSH1 0x1F NOT AND SWAP3 SWAP1 SWAP3 ADD PUSH1 0x20 ADD SWAP3 SWAP2 POP POP JUMP JUMPDEST PUSH1 0x20 DUP2 MSTORE PUSH0 PUSH2 0x2BEA PUSH1 0x20 DUP4 ADD DUP5 PUSH2 0x3EF8 JUMP JUMPDEST PUSH0 PUSH1 0x20 DUP3 DUP5 SUB SLT ISZERO PUSH2 0x3F45 JUMPI PUSH0 DUP1 REVERT JUMPDEST POP CALLDATALOAD SWAP2 SWAP1 POP JUMP JUMPDEST PUSH0 DUP1 PUSH1 0x40 DUP4 DUP6 SUB SLT ISZERO PUSH2 0x3F5D JUMPI PUSH0 DUP1 REVERT JUMPDEST PUSH2 0x3F66 DUP4 PUSH2 0x3EA2 JUMP JUMPDEST SWAP5 PUSH1 0x20 SWAP4 SWAP1 SWAP4 ADD CALLDATALOAD SWAP4 POP POP POP JUMP JUMPDEST PUSH1 0x20 DUP2 MSTORE DUP2 MLOAD PUSH1 0x20 DUP3 ADD MSTORE PUSH0 PUSH1 0x20 DUP4 ADD MLOAD PUSH2 0x100 DUP1 PUSH1 0x40 DUP6 ADD MSTORE PUSH2 0x3F9C PUSH2 0x120 DUP6 ADD DUP4 PUSH2 0x3EF8 JUMP JUMPDEST SWAP2 POP PUSH1 0x40 DUP6 ADD MLOAD PUSH2 0x3FB2 PUSH1 0x60 DUP7 ADD DUP3 PUSH1 0xFF AND SWAP1 MSTORE JUMP JUMPDEST POP PUSH1 0x60 DUP6 ADD MLOAD PUSH1 0x1F NOT DUP1 DUP7 DUP6 SUB ADD PUSH1 0x80 DUP8 ADD MSTORE PUSH2 0x3FCF DUP5 DUP4 PUSH2 0x3EF8 JUMP JUMPDEST SWAP4 POP PUSH1 0x80 DUP8 ADD MLOAD SWAP2 POP DUP1 DUP7 DUP6 SUB ADD PUSH1 0xA0 DUP8 ADD MSTORE PUSH2 0x3FEC DUP5 DUP4 PUSH2 0x3EF8 JUMP JUMPDEST SWAP4 POP PUSH1 0xA0 DUP8 ADD MLOAD SWAP2 POP DUP1 DUP7 DUP6 SUB ADD PUSH1 0xC0 DUP8 ADD MSTORE PUSH2 0x4009 DUP5 DUP4 PUSH2 0x3EF8 JUMP JUMPDEST SWAP4 POP PUSH1 0xC0 DUP8 ADD MLOAD SWAP2 POP DUP1 DUP7 DUP6 SUB ADD PUSH1 0xE0 DUP8 ADD MSTORE POP PUSH2 0x4027 DUP4 DUP3 PUSH2 0x3EF8 JUMP JUMPDEST SWAP3 POP POP PUSH1 0xE0 DUP6 ADD MLOAD PUSH2 0x403C DUP3 DUP7 ADD DUP3 ISZERO ISZERO SWAP1 MSTORE JUMP JUMPDEST POP SWAP1 SWAP5 SWAP4 POP POP POP POP JUMP JUMPDEST PUSH4 0x4E487B71 PUSH1 0xE0 SHL PUSH0 MSTORE PUSH1 0x41 PUSH1 0x4 MSTORE PUSH1 0x24 PUSH0 REVERT JUMPDEST PUSH0 DUP3 PUSH1 0x1F DUP4 ADD SLT PUSH2 0x4069 JUMPI PUSH0 DUP1 REVERT JUMPDEST DUP2 CALLDATALOAD PUSH8 0xFFFFFFFFFFFFFFFF DUP1 DUP3 GT ISZERO PUSH2 0x4084 JUMPI PUSH2 0x4084 PUSH2 0x4046 JUMP JUMPDEST PUSH1 0x40 MLOAD PUSH1 0x1F DUP4 ADD PUSH1 0x1F NOT SWAP1 DUP2 AND PUSH1 0x3F ADD AND DUP2 ADD SWAP1 DUP3 DUP3 GT DUP2 DUP4 LT OR ISZERO PUSH2 0x40AC JUMPI PUSH2 0x40AC PUSH2 0x4046 JUMP JUMPDEST DUP2 PUSH1 0x40 MSTORE DUP4 DUP2 MSTORE DUP7 PUSH1 0x20 DUP6 DUP9 ADD ADD GT ISZERO PUSH2 0x40C4 JUMPI PUSH0 DUP1 REVERT JUMPDEST DUP4 PUSH1 0x20 DUP8 ADD PUSH1 0x20 DUP4 ADD CALLDATACOPY PUSH0 PUSH1 0x20 DUP6 DUP4 ADD ADD MSTORE DUP1 SWAP5 POP POP POP POP POP SWAP3 SWAP2 POP POP JUMP JUMPDEST DUP1 CALLDATALOAD PUSH1 0xFF DUP2 AND DUP2 EQ PUSH2 0x3EB8 JUMPI PUSH0 DUP1 REVERT JUMPDEST PUSH0 DUP1 PUSH0 DUP1 PUSH0 DUP1 PUSH1 0xC0 DUP8 DUP10 SUB SLT ISZERO PUSH2 0x4108 JUMPI PUSH0 DUP1 REVERT JUMPDEST DUP7 CALLDATALOAD PUSH8 0xFFFFFFFFFFFFFFFF DUP1 DUP3 GT ISZERO PUSH2 0x411F JUMPI PUSH0 DUP1 REVERT JUMPDEST PUSH2 0x412B DUP11 DUP4 DUP12 ADD PUSH2 0x405A JUMP JUMPDEST SWAP8 POP PUSH2 0x4139 PUSH1 0x20 DUP11 ADD PUSH2 0x40E3 JUMP JUMPDEST SWAP7 POP PUSH1 0x40 DUP10 ADD CALLDATALOAD SWAP2 POP DUP1 DUP3 GT ISZERO PUSH2 0x414E JUMPI PUSH0 DUP1 REVERT JUMPDEST PUSH2 0x415A DUP11 DUP4 DUP12 ADD PUSH2 0x405A JUMP JUMPDEST SWAP6 POP PUSH1 0x60 DUP10 ADD CALLDATALOAD SWAP2 POP DUP1 DUP3 GT ISZERO PUSH2 0x416F JUMPI PUSH0 DUP1 REVERT JUMPDEST PUSH2 0x417B DUP11 DUP4 DUP12 ADD PUSH2 0x405A JUMP JUMPDEST SWAP5 POP PUSH1 0x80 DUP10 ADD CALLDATALOAD SWAP2 POP DUP1 DUP3 GT ISZERO PUSH2 0x4190 JUMPI PUSH0 DUP1 REVERT JUMPDEST PUSH2 0x419C DUP11 DUP4 DUP12 ADD PUSH2 0x405A JUMP JUMPDEST SWAP4 POP PUSH1 0xA0 DUP10 ADD CALLDATALOAD SWAP2 POP DUP1 DUP3 GT ISZERO PUSH2 0x41B1 JUMPI PUSH0 DUP1 REVERT JUMPDEST POP PUSH2 0x41BE DUP10 DUP3 DUP11 ADD PUSH2 0x405A JUMP JUMPDEST SWAP2 POP POP SWAP3 SWAP6 POP SWAP3 SWAP6 POP SWAP3 SWAP6 JUMP JUMPDEST PUSH0 DUP1 PUSH0 PUSH1 0x60 DUP5 DUP7 SUB SLT ISZERO PUSH2 0x41DD JUMPI PUSH0 DUP1 REVERT JUMPDEST PUSH2 0x41E6 DUP5 PUSH2 0x3EA2 JUMP JUMPDEST SWAP3 POP PUSH2 0x41F4 PUSH1 0x20 DUP6 ADD PUSH2 0x3EA2 JUMP JUMPDEST SWAP2 POP PUSH1 0x40 DUP5 ADD CALLDATALOAD SWAP1 POP SWAP3 POP SWAP3 POP SWAP3 JUMP JUMPDEST PUSH0 DUP1 PUSH0 DUP1 PUSH0 PUSH1 0xA0 DUP7 DUP9 SUB SLT ISZERO PUSH2 0x4218 JUMPI PUSH0 DUP1 REVERT JUMPDEST DUP6 CALLDATALOAD PUSH8 0xFFFFFFFFFFFFFFFF DUP1 DUP3 GT ISZERO PUSH2 0x422F JUMPI PUSH0 DUP1 REVERT JUMPDEST PUSH2 0x423B DUP10 DUP4 DUP11 ADD PUSH2 0x405A JUMP JUMPDEST SWAP7 POP PUSH2 0x4249 PUSH1 0x20 DUP10 ADD PUSH2 0x40E3 JUMP JUMPDEST SWAP6 POP PUSH1 0x40 DUP9 ADD CALLDATALOAD SWAP2 POP DUP1 DUP3 GT ISZERO PUSH2 0x425E JUMPI PUSH0 DUP1 REVERT JUMPDEST PUSH2 0x426A DUP10 DUP4 DUP11 ADD PUSH2 0x405A JUMP JUMPDEST SWAP5 POP PUSH1 0x60 DUP9 ADD CALLDATALOAD SWAP2 POP DUP1 DUP3 GT ISZERO PUSH2 0x427F JUMPI PUSH0 DUP1 REVERT JUMPDEST PUSH2 0x428B DUP10 DUP4 DUP11 ADD PUSH2 0x405A JUMP JUMPDEST SWAP4 POP PUSH1 0x80 DUP9 ADD CALLDATALOAD SWAP2 POP DUP1 DUP3 GT ISZERO PUSH2 0x42A0 JUMPI PUSH0 DUP1 REVERT JUMPDEST POP PUSH2 0x42AD DUP9 DUP3 DUP10 ADD PUSH2 0x405A JUMP JUMPDEST SWAP2 POP POP SWAP3 SWAP6 POP SWAP3 SWAP6 SWAP1 SWAP4 POP JUMP JUMPDEST PUSH0 DUP1 PUSH1 0x40 DUP4 DUP6 SUB SLT ISZERO PUSH2 0x42CB JUMPI PUSH0 DUP1 REVERT JUMPDEST PUSH2 0x42D4 DUP4 PUSH2 0x3EA2 JUMP JUMPDEST SWAP2 POP PUSH1 0x20 DUP4 ADD CALLDATALOAD PUSH8 0xFFFFFFFFFFFFFFFF DUP2 GT ISZERO PUSH2 0x42EF JUMPI PUSH0 DUP1 REVERT JUMPDEST PUSH2 0x42FB DUP6 DUP3 DUP7 ADD PUSH2 0x405A JUMP JUMPDEST SWAP2 POP POP SWAP3 POP SWAP3 SWAP1 POP JUMP JUMPDEST PUSH0 DUP1 PUSH1 0x40 DUP4 DUP6 SUB SLT ISZERO PUSH2 0x4316 JUMPI PUSH0 DUP1 REVERT JUMPDEST PUSH2 0x431F DUP4 PUSH2 0x3EA2 JUMP JUMPDEST SWAP2 POP PUSH1 0x20 DUP4 ADD CALLDATALOAD DUP1 ISZERO ISZERO DUP2 EQ PUSH2 0x4333 JUMPI PUSH0 DUP1 REVERT JUMPDEST DUP1 SWAP2 POP POP SWAP3 POP SWAP3 SWAP1 POP JUMP JUMPDEST PUSH0 DUP1 PUSH0 DUP1 PUSH1 0x80 DUP6 DUP8 SUB SLT ISZERO PUSH2 0x4351 JUMPI PUSH0 DUP1 REVERT JUMPDEST PUSH2 0x435A DUP6 PUSH2 0x3EA2 JUMP JUMPDEST SWAP4 POP PUSH2 0x4368 PUSH1 0x20 DUP7 ADD PUSH2 0x3EA2 JUMP JUMPDEST SWAP3 POP PUSH1 0x40 DUP6 ADD CALLDATALOAD SWAP2 POP PUSH1 0x60 DUP6 ADD CALLDATALOAD PUSH8 0xFFFFFFFFFFFFFFFF DUP2 GT ISZERO PUSH2 0x438A JUMPI PUSH0 DUP1 REVERT JUMPDEST PUSH2 0x4396 DUP8 DUP3 DUP9 ADD PUSH2 0x405A JUMP JUMPDEST SWAP2 POP POP SWAP3 SWAP6 SWAP2 SWAP5 POP SWAP3 POP JUMP JUMPDEST PUSH0 PUSH2 0x100 DUP11 DUP4 MSTORE DUP1 PUSH1 0x20 DUP5 ADD MSTORE PUSH2 0x43BB DUP2 DUP5 ADD DUP12 PUSH2 0x3EF8 JUMP JUMPDEST SWAP1 POP PUSH1 0xFF DUP10 AND PUSH1 0x40 DUP5 ADD MSTORE DUP3 DUP2 SUB PUSH1 0x60 DUP5 ADD MSTORE PUSH2 0x43D8 DUP2 DUP10 PUSH2 0x3EF8 JUMP JUMPDEST SWAP1 POP DUP3 DUP2 SUB PUSH1 0x80 DUP5 ADD MSTORE PUSH2 0x43EC DUP2 DUP9 PUSH2 0x3EF8 JUMP JUMPDEST SWAP1 POP DUP3 DUP2 SUB PUSH1 0xA0 DUP5 ADD MSTORE PUSH2 0x4400 DUP2 DUP8 PUSH2 0x3EF8 JUMP JUMPDEST SWAP1 POP DUP3 DUP2 SUB PUSH1 0xC0 DUP5 ADD MSTORE PUSH2 0x4414 DUP2 DUP7 PUSH2 0x3EF8 JUMP JUMPDEST SWAP2 POP POP DUP3 ISZERO ISZERO PUSH1 0xE0 DUP4 ADD MSTORE SWAP10 SWAP9 POP POP POP POP POP POP POP POP POP JUMP JUMPDEST PUSH0 PUSH1 0x20 DUP3 DUP5 SUB SLT ISZERO PUSH2 0x443C JUMPI PUSH0 DUP1 REVERT JUMPDEST DUP2 CALLDATALOAD PUSH8 0xFFFFFFFFFFFFFFFF DUP2 GT ISZERO PUSH2 0x4452 JUMPI PUSH0 DUP1 REVERT JUMPDEST PUSH2 0x3DDF DUP5 DUP3 DUP6 ADD PUSH2 0x405A JUMP JUMPDEST PUSH0 DUP1 PUSH1 0x40 DUP4 DUP6 SUB SLT ISZERO PUSH2 0x446F JUMPI PUSH0 DUP1 REVERT JUMPDEST PUSH2 0x4478 DUP4 PUSH2 0x3EA2 JUMP JUMPDEST SWAP2 POP PUSH2 0x4486 PUSH1 0x20 DUP5 ADD PUSH2 0x3EA2 JUMP JUMPDEST SWAP1 POP SWAP3 POP SWAP3 SWAP1 POP JUMP JUMPDEST PUSH1 0x1 DUP2 DUP2 SHR SWAP1 DUP3 AND DUP1 PUSH2 0x44A3 JUMPI PUSH1 0x7F DUP3 AND SWAP2 POP JUMPDEST PUSH1 0x20 DUP3 LT DUP2 SUB PUSH2 0x44C1 JUMPI PUSH4 0x4E487B71 PUSH1 0xE0 SHL PUSH0 MSTORE PUSH1 0x22 PUSH1 0x4 MSTORE PUSH1 0x24 PUSH0 REVERT JUMPDEST POP SWAP2 SWAP1 POP JUMP JUMPDEST PUSH0 DUP3 MLOAD PUSH2 0x44D8 DUP2 DUP5 PUSH1 0x20 DUP8 ADD PUSH2 0x3ED6 JUMP JUMPDEST SWAP2 SWAP1 SWAP2 ADD SWAP3 SWAP2 POP POP JUMP JUMPDEST PUSH0 DUP1 DUP4 SLOAD PUSH2 0x44EF DUP2 PUSH2 0x448F JUMP JUMPDEST PUSH1 0x1 DUP3 DUP2 AND DUP1 ISZERO PUSH2 0x4507 JUMPI PUSH1 0x1 DUP2 EQ PUSH2 0x451C JUMPI PUSH2 0x4548 JUMP JUMPDEST PUSH1 0xFF NOT DUP5 AND DUP8 MSTORE DUP3 ISZERO ISZERO DUP4 MUL DUP8 ADD SWAP5 POP PUSH2 0x4548 JUMP JUMPDEST DUP8 PUSH0 MSTORE PUSH1 0x20 DUP1 PUSH0 KECCAK256 PUSH0 JUMPDEST DUP6 DUP2 LT ISZERO PUSH2 0x453F JUMPI DUP2 SLOAD DUP11 DUP3 ADD MSTORE SWAP1 DUP5 ADD SWAP1 DUP3 ADD PUSH2 0x4526 JUMP JUMPDEST POP POP POP DUP3 DUP8 ADD SWAP5 POP JUMPDEST POP SWAP3 SWAP7 SWAP6 POP POP POP POP POP POP JUMP JUMPDEST PUSH1 0x1F DUP3 GT ISZERO PUSH2 0x1314 JUMPI DUP1 PUSH0 MSTORE PUSH1 0x20 PUSH0 KECCAK256 PUSH1 0x1F DUP5 ADD PUSH1 0x5 SHR DUP2 ADD PUSH1 0x20 DUP6 LT ISZERO PUSH2 0x4579 JUMPI POP DUP1 JUMPDEST PUSH1 0x1F DUP5 ADD PUSH1 0x5 SHR DUP3 ADD SWAP2 POP JUMPDEST DUP2 DUP2 LT ISZERO PUSH2 0x22D5 JUMPI PUSH0 DUP2 SSTORE PUSH1 0x1 ADD PUSH2 0x4585 JUMP JUMPDEST DUP2 MLOAD PUSH8 0xFFFFFFFFFFFFFFFF DUP2 GT ISZERO PUSH2 0x45B2 JUMPI PUSH2 0x45B2 PUSH2 0x4046 JUMP JUMPDEST PUSH2 0x45C6 DUP2 PUSH2 0x45C0 DUP5 SLOAD PUSH2 0x448F JUMP JUMPDEST DUP5 PUSH2 0x4554 JUMP JUMPDEST PUSH1 0x20 DUP1 PUSH1 0x1F DUP4 GT PUSH1 0x1 DUP2 EQ PUSH2 0x45F9 JUMPI PUSH0 DUP5 ISZERO PUSH2 0x45E2 JUMPI POP DUP6 DUP4 ADD MLOAD JUMPDEST PUSH0 NOT PUSH1 0x3 DUP7 SWAP1 SHL SHR NOT AND PUSH1 0x1 DUP6 SWAP1 SHL OR DUP6 SSTORE PUSH2 0x3AEE JUMP JUMPDEST PUSH0 DUP6 DUP2 MSTORE PUSH1 0x20 DUP2 KECCAK256 PUSH1 0x1F NOT DUP7 AND SWAP2 JUMPDEST DUP3 DUP2 LT ISZERO PUSH2 0x4627 JUMPI DUP9 DUP7 ADD MLOAD DUP3 SSTORE SWAP5 DUP5 ADD SWAP5 PUSH1 0x1 SWAP1 SWAP2 ADD SWAP1 DUP5 ADD PUSH2 0x4608 JUMP JUMPDEST POP DUP6 DUP3 LT ISZERO PUSH2 0x4644 JUMPI DUP8 DUP6 ADD MLOAD PUSH0 NOT PUSH1 0x3 DUP9 SWAP1 SHL PUSH1 0xF8 AND SHR NOT AND DUP2 SSTORE JUMPDEST POP POP POP POP POP PUSH1 0x1 SWAP1 DUP2 SHL ADD SWAP1 SSTORE POP JUMP JUMPDEST PUSH1 0xC0 DUP2 MSTORE PUSH0 PUSH2 0x4666 PUSH1 0xC0 DUP4 ADD DUP10 PUSH2 0x3EF8 JUMP JUMPDEST PUSH1 0x20 PUSH1 0xFF DUP10 AND DUP2 DUP6 ADD MSTORE DUP4 DUP3 SUB PUSH1 0x40 DUP6 ADD MSTORE PUSH2 0x4682 DUP3 DUP10 PUSH2 0x3EF8 JUMP JUMPDEST SWAP2 POP DUP4 DUP3 SUB PUSH1 0x60 DUP6 ADD MSTORE PUSH2 0x4696 DUP3 DUP9 PUSH2 0x3EF8 JUMP JUMPDEST SWAP2 POP DUP4 DUP3 SUB PUSH1 0x80 DUP6 ADD MSTORE PUSH2 0x46AA DUP3 DUP8 PUSH2 0x3EF8 JUMP JUMPDEST SWAP2 POP DUP4 DUP3 SUB PUSH1 0xA0 DUP6 ADD MSTORE PUSH0 DUP6 SLOAD PUSH2 0x46C0 DUP2 PUSH2 0x448F JUMP JUMPDEST DUP1 DUP6 MSTORE PUSH1 0x1 DUP3 DUP2 AND DUP1 ISZERO PUSH2 0x46DB JUMPI PUSH1 0x1 DUP2 EQ PUSH2 0x46F5 JUMPI PUSH2 0x4720 JUMP JUMPDEST PUSH1 0xFF NOT DUP5 AND DUP8 DUP8 ADD MSTORE DUP3 ISZERO ISZERO PUSH1 0x5 SHL DUP8 ADD DUP7 ADD SWAP5 POP PUSH2 0x4720 JUMP JUMPDEST DUP10 PUSH0 MSTORE DUP6 PUSH0 KECCAK256 PUSH0 JUMPDEST DUP5 DUP2 LT ISZERO PUSH2 0x4718 JUMPI DUP2 SLOAD DUP10 DUP3 ADD DUP10 ADD MSTORE SWAP1 DUP4 ADD SWAP1 DUP8 ADD PUSH2 0x46FD JUMP JUMPDEST DUP9 ADD DUP8 ADD SWAP6 POP POP JUMPDEST POP SWAP3 SWAP14 SWAP13 POP POP POP POP POP POP POP POP POP POP POP POP POP JUMP JUMPDEST PUSH4 0x4E487B71 PUSH1 0xE0 SHL PUSH0 MSTORE PUSH1 0x11 PUSH1 0x4 MSTORE PUSH1 0x24 PUSH0 REVERT JUMPDEST PUSH0 PUSH1 0x1 DUP3 ADD PUSH2 0x4758 JUMPI PUSH2 0x4758 PUSH2 0x4733 JUMP JUMPDEST POP PUSH1 0x1 ADD SWAP1 JUMP JUMPDEST DUP3 DUP2 MSTORE PUSH1 0x40 PUSH1 0x20 DUP3 ADD MSTORE PUSH0 PUSH2 0x3DDF PUSH1 0x40 DUP4 ADD DUP5 PUSH2 0x3EF8 JUMP JUMPDEST PUSH1 0x40 DUP2 MSTORE PUSH0 PUSH2 0x4789 PUSH1 0x40 DUP4 ADD DUP6 PUSH2 0x3EF8 JUMP JUMPDEST SWAP1 POP PUSH1 0x1 PUSH1 0x1 PUSH1 0xA0 SHL SUB DUP4 AND PUSH1 0x20 DUP4 ADD MSTORE SWAP4 SWAP3 POP POP POP JUMP JUMPDEST PUSH0 DUP4 MLOAD PUSH2 0x47B2 DUP2 DUP5 PUSH1 0x20 DUP9 ADD PUSH2 0x3ED6 JUMP JUMPDEST DUP4 MLOAD SWAP1 DUP4 ADD SWAP1 PUSH2 0x47C6 DUP2 DUP4 PUSH1 0x20 DUP9 ADD PUSH2 0x3ED6 JUMP JUMPDEST ADD SWAP5 SWAP4 POP POP POP POP JUMP JUMPDEST PUSH4 0x4E487B71 PUSH1 0xE0 SHL PUSH0 MSTORE PUSH1 0x32 PUSH1 0x4 MSTORE PUSH1 0x24 PUSH0 REVERT JUMPDEST DUP2 DUP2 SUB DUP2 DUP2 GT ISZERO PUSH2 0x7A8 JUMPI PUSH2 0x7A8 PUSH2 0x4733 JUMP JUMPDEST PUSH1 0xFF DUP2 DUP2 AND DUP4 DUP3 AND ADD SWAP1 DUP2 GT ISZERO PUSH2 0x7A8 JUMPI PUSH2 0x7A8 PUSH2 0x4733 JUMP JUMPDEST PUSH0 PUSH1 0x20 DUP3 DUP5 SUB SLT ISZERO PUSH2 0x481F JUMPI PUSH0 DUP1 REVERT JUMPDEST POP MLOAD SWAP2 SWAP1 POP JUMP JUMPDEST PUSH0 PUSH1 0x1 PUSH1 0x1 PUSH1 0xA0 SHL SUB DUP1 DUP8 AND DUP4 MSTORE DUP1 DUP7 AND PUSH1 0x20 DUP5 ADD MSTORE POP DUP4 PUSH1 0x40 DUP4 ADD MSTORE PUSH1 0x80 PUSH1 0x60 DUP4 ADD MSTORE PUSH2 0x2DEB PUSH1 0x80 DUP4 ADD DUP5 PUSH2 0x3EF8 JUMP JUMPDEST PUSH0 PUSH1 0x20 DUP3 DUP5 SUB SLT ISZERO PUSH2 0x4867 JUMPI PUSH0 DUP1 REVERT JUMPDEST DUP2 MLOAD PUSH2 0x2BEA DUP2 PUSH2 0x3E72 JUMP INVALID LOG2 PUSH5 0x6970667358 0x22 SLT KECCAK256 0x4E LOG1 SWAP5 PC MSIZE PUSH0 0xBC 0xD0 SWAP5 0xCF SWAP14 0xD6 0xB3 DUP2 CODECOPY 0xCC DUP7 REVERT 0x2A LT SWAP3 0xAE STATICCALL MSIZE AND EXTCODEHASH 0xF7 0xDB CREATE BYTE MLOAD 0xCC PUSH5 0x736F6C6343 STOP ADDMOD AND STOP CALLER "},"methodIdentifiers":{"UPGRADE_INTERFACE_VERSION()":"ad3cb1cc","addressToTokenId(address)":"6511bf2e","approve(address,uint256)":"095ea7b3","balanceOf(address)":"70a08231","createProfile(string,uint8,string,string,string)":"4ab491b6","deleteProfile()":"6d4540eb","getAddressByEmail(string)":"c5caea01","getApproved(uint256)":"081812fc","getProfile(address)":"0f53a470","getProfileByTokenId(uint256)":"7b09a6e3","initialize()":"8129fc1c","isApprovedForAll(address,address)":"e985e9c5","isEmailRegistered(string)":"df3cdad7","matchingContract()":"53964b19","name()":"06fdde03","owner()":"8da5cb5b","ownerOf(uint256)":"6352211e","profileExists(address)":"05cfa06f","profiles(address)":"bbe15627","proxiableUUID()":"52d1902d","registerWithEmail(string,uint8,string,string,string)":"9e385dfb","renounceOwnership()":"715018a6","safeTransferFrom(address,address,uint256)":"42842e0e","safeTransferFrom(address,address,uint256,bytes)":"b88d4fde","setApprovalForAll(address,bool)":"a22cb465","setMatchingContract(address)":"2182d9d7","supportsInterface(bytes4)":"01ffc9a7","symbol()":"95d89b41","tokenIdToAddress(uint256)":"08bb76a5","tokenURI(uint256)":"c87b56dd","transferFrom(address,address,uint256)":"23b872dd","transferOwnership(address)":"f2fde38b","updateProfile(string,uint8,string,string,string,string)":"10ea2271","upgradeToAndCall(address,bytes)":"4f1ef286"}},"storageLayout":{"storage":[{"astId":8485,"contract":"contracts/ProfileNFT.sol:ProfileNFT","label":"_tokenIdCounter","offset":0,"slot":"0","type":"t_uint256"},{"astId":8490,"contract":"contracts/ProfileNFT.sol:ProfileNFT","label":"profiles","offset":0,"slot":"1","type":"t_mapping(t_address,t_struct(Profile)8483_storage)"},{"astId":8494,"contract":"contracts/ProfileNFT.sol:ProfileNFT","label":"addressToTokenId","offset":0,"slot":"2","type":"t_mapping(t_address,t_uint256)"},{"astId":8498,"contract":"contracts/ProfileNFT.sol:ProfileNFT","label":"tokenIdToAddress","offset":0,"slot":"3","type":"t_mapping(t_uint256,t_address)"},{"astId":8502,"contract":"contracts/ProfileNFT.sol:ProfileNFT","label":"emailExists","offset":0,"slot":"4","type":"t_mapping(t_string_memory_ptr,t_bool)"},{"astId":8506,"contract":"contracts/ProfileNFT.sol:ProfileNFT","label":"emailToAddress","offset":0,"slot":"5","type":"t_mapping(t_string_memory_ptr,t_address)"},{"astId":8508,"contract":"contracts/ProfileNFT.sol:ProfileNFT","label":"matchingContract","offset":0,"slot":"6","type":"t_address"}],"types":{"t_address":{"encoding":"inplace","label":"address","numberOfBytes":"20"},"t_bool":{"encoding":"inplace","label":"bool","numberOfBytes":"1"},"t_mapping(t_address,t_struct(Profile)8483_storage)":{"encoding":"mapping","key":"t_address","label":"mapping(address => struct ProfileNFT.Profile)","numberOfBytes":"32","value":"t_struct(Profile)8483_storage"},"t_mapping(t_address,t_uint256)":{"encoding":"mapping","key":"t_address","label":"mapping(address => uint256)","numberOfBytes":"32","value":"t_uint256"},"t_mapping(t_string_memory_ptr,t_address)":{"encoding":"mapping","key":"t_string_memory_ptr","label":"mapping(string => address)","numberOfBytes":"32","value":"t_address"},"t_mapping(t_string_memory_ptr,t_bool)":{"encoding":"mapping","key":"t_string_memory_ptr","label":"mapping(string => bool)","numberOfBytes":"32","value":"t_bool"},"t_mapping(t_uint256,t_address)":{"encoding":"mapping","key":"t_uint256","label":"mapping(uint256 => address)","numberOfBytes":"32","value":"t_address"},"t_string_memory_ptr":{"encoding":"bytes","label":"string","numberOfBytes":"32"},"t_string_storage":{"encoding":"bytes","label":"string","numberOfBytes":"32"},"t_struct(Profile)8483_storage":{"encoding":"inplace","label":"struct ProfileNFT.Profile","members":[{"astId":8468,"contract":"contracts/ProfileNFT.sol:ProfileNFT","label":"tokenId","offset":0,"slot":"0","type":"t_uint256"},{"astId":8470,"contract":"contracts/ProfileNFT.sol:ProfileNFT","label":"name","offset":0,"slot":"1","type":"t_string_storage"},{"astId":8472,"contract":"contracts/ProfileNFT.sol:ProfileNFT","label":"age","offset":0,"slot":"2","type":"t_uint8"},{"astId":8474,"contract":"contracts/ProfileNFT.sol:ProfileNFT","label":"gender","offset":0,"slot":"3","type":"t_string_storage"},{"astId":8476,"contract":"contracts/ProfileNFT.sol:ProfileNFT","label":"interests","offset":0,"slot":"4","type":"t_string_storage"},{"astId":8478,"contract":"contracts/ProfileNFT.sol:ProfileNFT","label":"photoUrl","offset":0,"slot":"5","type":"t_string_storage"},{"astId":8480,"contract":"contracts/ProfileNFT.sol:ProfileNFT","label":"email","offset":0,"slot":"6","type":"t_string_storage"},{"astId":8482,"contract":"contracts/ProfileNFT.sol:ProfileNFT","label":"exists","offset":0,"slot":"7","type":"t_bool"}],"numberOfBytes":"256"},"t_uint256":{"encoding":"inplace","label":"uint256","numberOfBytes":"32"},"t_uint8":{"encoding":"inplace","label":"uint8","numberOfBytes":"1"}}}}}}