{"contracts/Staking.sol":{"Staking":{"abi":[{"inputs":[{"internalType":"address","name":"target","type":"address"}],"name":"AddressEmptyCode","type":"error"},{"inputs":[{"internalType":"address","name":"implementation","type":"address"}],"name":"ERC1967InvalidImplementation","type":"error"},{"inputs":[],"name":"ERC1967NonPayable","type":"error"},{"inputs":[],"name":"FailedCall","type":"error"},{"inputs":[],"name":"InvalidInitialization","type":"error"},{"inputs":[],"name":"NotInitializing","type":"error"},{"inputs":[{"internalType":"address","name":"owner","type":"address"}],"name":"OwnableInvalidOwner","type":"error"},{"inputs":[{"internalType":"address","name":"account","type":"address"}],"name":"OwnableUnauthorizedAccount","type":"error"},{"inputs":[],"name":"ReentrancyGuardReentrantCall","type":"error"},{"inputs":[],"name":"UUPSUnauthorizedCallContext","type":"error"},{"inputs":[{"internalType":"bytes32","name":"slot","type":"bytes32"}],"name":"UUPSUnsupportedProxiableUUID","type":"error"},{"anonymous":false,"inputs":[{"indexed":false,"internalType":"uint64","name":"version","type":"uint64"}],"name":"Initialized","type":"event"},{"anonymous":false,"inputs":[{"indexed":true,"internalType":"uint256","name":"stakeId","type":"uint256"},{"indexed":true,"internalType":"address","name":"confirmer","type":"address"},{"indexed":false,"internalType":"bool","name":"iShowedUp","type":"bool"},{"indexed":false,"internalType":"bool","name":"theyShowedUp","type":"bool"}],"name":"MeetingConfirmed","type":"event"},{"anonymous":false,"inputs":[{"indexed":true,"internalType":"address","name":"previousOwner","type":"address"},{"indexed":true,"internalType":"address","name":"newOwner","type":"address"}],"name":"OwnershipTransferred","type":"event"},{"anonymous":false,"inputs":[{"indexed":true,"internalType":"uint256","name":"stakeId","type":"uint256"},{"indexed":true,"internalType":"address","name":"user2","type":"address"},{"indexed":false,"internalType":"uint256","name":"amount","type":"uint256"}],"name":"StakeAccepted","type":"event"},{"anonymous":false,"inputs":[{"indexed":true,"internalType":"uint256","name":"stakeId","type":"uint256"},{"indexed":true,"internalType":"address","name":"user1","type":"address"},{"indexed":true,"internalType":"address","name":"user2","type":"address"},{"indexed":false,"internalType":"uint256","name":"amount","type":"uint256"},{"indexed":false,"internalType":"uint256","name":"meetingTime","type":"uint256"}],"name":"StakeCreated","type":"event"},{"anonymous":false,"inputs":[{"indexed":true,"internalType":"uint256","name":"stakeId","type":"uint256"},{"indexed":false,"internalType":"uint256","name":"user1Payout","type":"uint256"},{"indexed":false,"internalType":"uint256","name":"user2Payout","type":"uint256"},{"indexed":false,"internalType":"uint256","name":"platformFee","type":"uint256"},{"indexed":false,"internalType":"string","name":"outcome","type":"string"}],"name":"StakeProcessed","type":"event"},{"anonymous":false,"inputs":[{"indexed":true,"internalType":"address","name":"implementation","type":"address"}],"name":"Upgraded","type":"event"},{"inputs":[],"name":"COMPASSION_REFUND_PERCENT","outputs":[{"internalType":"uint256","name":"","type":"uint256"}],"stateMutability":"view","type":"function"},{"inputs":[],"name":"CONFIRMATION_WINDOW","outputs":[{"internalType":"uint256","name":"","type":"uint256"}],"stateMutability":"view","type":"function"},{"inputs":[],"name":"PLATFORM_FEE_PERCENT","outputs":[{"internalType":"uint256","name":"","type":"uint256"}],"stateMutability":"view","type":"function"},{"inputs":[],"name":"UPGRADE_INTERFACE_VERSION","outputs":[{"internalType":"string","name":"","type":"string"}],"stateMutability":"view","type":"function"},{"inputs":[{"internalType":"uint256","name":"stakeId","type":"uint256"}],"name":"acceptStake","outputs":[],"stateMutability":"nonpayable","type":"function"},{"inputs":[{"internalType":"uint256","name":"stakeId","type":"uint256"}],"name":"cancelStake","outputs":[],"stateMutability":"nonpayable","type":"function"},{"inputs":[{"internalType":"uint256","name":"stakeId","type":"uint256"},{"internalType":"bool","name":"iShowedUp","type":"bool"},{"internalType":"bool","name":"theyShowedUp","type":"bool"}],"name":"confirmMeeting","outputs":[],"stateMutability":"nonpayable","type":"function"},{"inputs":[{"internalType":"uint256","name":"","type":"uint256"},{"internalType":"address","name":"","type":"address"}],"name":"confirmations","outputs":[{"internalType":"bool","name":"hasConfirmed","type":"bool"},{"internalType":"bool","name":"iShowedUp","type":"bool"},{"internalType":"bool","name":"theyShowedUp","type":"bool"}],"stateMutability":"view","type":"function"},{"inputs":[{"internalType":"address","name":"user2","type":"address"},{"internalType":"uint256","name":"amount","type":"uint256"},{"internalType":"uint256","name":"meetingTime","type":"uint256"}],"name":"createStake","outputs":[{"internalType":"uint256","name":"","type":"uint256"}],"stateMutability":"nonpayable","type":"function"},{"inputs":[{"internalType":"uint256","name":"stakeId","type":"uint256"},{"internalType":"address","name":"user","type":"address"}],"name":"getConfirmation","outputs":[{"components":[{"internalType":"bool","name":"hasConfirmed","type":"bool"},{"internalType":"bool","name":"iShowedUp","type":"bool"},{"internalType":"bool","name":"theyShowedUp","type":"bool"}],"internalType":"struct Staking.MeetingConfirmation","name":"","type":"tuple"}],"stateMutability":"view","type":"function"},{"inputs":[{"internalType":"uint256","name":"stakeId","type":"uint256"}],"name":"getStake","outputs":[{"components":[{"internalType":"address","name":"user1","type":"address"},{"internalType":"address","name":"user2","type":"address"},{"internalType":"uint256","name":"user1Amount","type":"uint256"},{"internalType":"uint256","name":"user2Amount","type":"uint256"},{"internalType":"uint256","name":"totalStaked","type":"uint256"},{"internalType":"uint256","name":"meetingTime","type":"uint256"},{"internalType":"bool","name":"user1Staked","type":"bool"},{"internalType":"bool","name":"user2Staked","type":"bool"},{"internalType":"bool","name":"processed","type":"bool"},{"internalType":"uint256","name":"createdAt","type":"uint256"}],"internalType":"struct Staking.Stake","name":"","type":"tuple"}],"stateMutability":"view","type":"function"},{"inputs":[{"internalType":"address","name":"_usdc","type":"address"}],"name":"initialize","outputs":[],"stateMutability":"nonpayable","type":"function"},{"inputs":[],"name":"owner","outputs":[{"internalType":"address","name":"","type":"address"}],"stateMutability":"view","type":"function"},{"inputs":[{"internalType":"uint256","name":"stakeId","type":"uint256"}],"name":"processExpiredStake","outputs":[],"stateMutability":"nonpayable","type":"function"},{"inputs":[],"name":"proxiableUUID","outputs":[{"internalType":"bytes32","name":"","type":"bytes32"}],"stateMutability":"view","type":"function"},{"inputs":[],"name":"renounceOwnership","outputs":[],"stateMutability":"nonpayable","type":"function"},{"inputs":[],"name":"stakeCounter","outputs":[{"internalType":"uint256","name":"","type":"uint256"}],"stateMutability":"view","type":"function"},{"inputs":[{"internalType":"uint256","name":"","type":"uint256"}],"name":"stakes","outputs":[{"internalType":"address","name":"user1","type":"address"},{"internalType":"address","name":"user2","type":"address"},{"internalType":"uint256","name":"user1Amount","type":"uint256"},{"internalType":"uint256","name":"user2Amount","type":"uint256"},{"internalType":"uint256","name":"totalStaked","type":"uint256"},{"internalType":"uint256","name":"meetingTime","type":"uint256"},{"internalType":"bool","name":"user1Staked","type":"bool"},{"internalType":"bool","name":"user2Staked","type":"bool"},{"internalType":"bool","name":"processed","type":"bool"},{"internalType":"uint256","name":"createdAt","type":"uint256"}],"stateMutability":"view","type":"function"},{"inputs":[{"internalType":"address","name":"newOwner","type":"address"}],"name":"transferOwnership","outputs":[],"stateMutability":"nonpayable","type":"function"},{"inputs":[{"internalType":"address","name":"newImplementation","type":"address"},{"internalType":"bytes","name":"data","type":"bytes"}],"name":"upgradeToAndCall","outputs":[],"stateMutability":"payable","type":"function"},{"inputs":[],"name":"usdc","outputs":[{"internalType":"contract IERC20","name":"","type":"address"}],"stateMutability":"view","type":"function"}],"evm":{"bytecode":{"linkReferences":{},"object":"60a060405230608052348015610013575f80fd5b50608051612e0661003a5f395f81816124460152818161246f01526125ed0152612e065ff3fe608060405260043610610162575f3560e01c806381a4952e116100c6578063ce325bf81161007c578063d8de948011610057578063d8de9480146105fb578063f2fde38b1461061a578063f7b17d1014610639575f80fd5b8063ce325bf8146103c1578063d0192e37146104d7578063d5a44f861461051e575f80fd5b80638da5cb5b116100ac5780638da5cb5b14610311578063ad3cb1cc1461034d578063c4d66de8146103a2575f80fd5b806381a4952e146102dc57806386e2d5df146102fb575f80fd5b80634ed11ea51161011b57806352d1902d1161010157806352d1902d146102a0578063560d52d4146102b4578063715018a6146102c8575f80fd5b80634ed11ea51461026e5780634f1ef2861461028d575f80fd5b80633e413bee1161014b5780633e413bee1461020357806341ab3857146102395780634e5548ce1461024d575f80fd5b80633411c81c146101665780633c09cfc6146101d6575b5f80fd5b348015610171575f80fd5b506101b2610180366004612a2c565b600260209081525f928352604080842090915290825290205460ff808216916101008104821691620100009091041683565b60408051931515845291151560208401521515908201526060015b60405180910390f35b3480156101e1575f80fd5b506101f56101f0366004612a56565b61064e565b6040519081526020016101cd565b34801561020e575f80fd5b505f54610221906001600160a01b031681565b6040516001600160a01b0390911681526020016101cd565b348015610244575f80fd5b506101f5601481565b348015610258575f80fd5b5061026c610267366004612a86565b610a69565b005b348015610279575f80fd5b5061026c610288366004612aaa565b610f26565b61026c61029b366004612afd565b6112d2565b3480156102ab575f80fd5b506101f56112f1565b3480156102bf575f80fd5b506101f5600581565b3480156102d3575f80fd5b5061026c61131f565b3480156102e7575f80fd5b5061026c6102f6366004612a86565b611332565b348015610306575f80fd5b506101f56202a30081565b34801561031c575f80fd5b507f9016d09d72d40fdae2fd8ceac6b6234c7706214fd39c1cd1e609a0528c199300546001600160a01b0316610221565b348015610358575f80fd5b506103956040518060400160405280600581526020017f352e302e3000000000000000000000000000000000000000000000000000000081525081565b6040516101cd9190612c06565b3480156103ad575f80fd5b5061026c6103bc366004612c18565b61164c565b3480156103cc575f80fd5b506104ca6103db366004612a86565b60408051610140810182525f80825260208201819052918101829052606081018290526080810182905260a0810182905260c0810182905260e081018290526101008101829052610120810191909152505f9081526001602081815260409283902083516101408101855281546001600160a01b03908116825293820154909316918301919091526002810154928201929092526003820154606082015260048201546080820152600582015460a0820152600682015460ff808216151560c08401526101008083048216151560e0850152620100009092041615159082015260079091015461012082015290565b6040516101cd9190612c31565b3480156104e2575f80fd5b506104f66104f1366004612a2c565b6117a9565b60408051825115158152602080840151151590820152918101511515908201526060016101cd565b348015610529575f80fd5b506105a0610538366004612a86565b600160208190525f9182526040909120805491810154600282015460038301546004840154600585015460068601546007909601546001600160a01b039788169790951695939492939192909160ff808216926101008304821692620100009004909116908a565b604080516001600160a01b039b8c1681529a90991660208b0152978901969096526060880194909452608087019290925260a0860152151560c0850152151560e08401521515610100830152610120820152610140016101cd565b348015610606575f80fd5b5061026c610615366004612a86565b61181b565b348015610625575f80fd5b5061026c610634366004612c18565b611b05565b348015610644575f80fd5b506101f560035481565b5f610657611b58565b6001600160a01b0384166106b25760405162461bcd60e51b815260206004820152601560248201527f496e76616c69642075736572322061646472657373000000000000000000000060448201526064015b60405180910390fd5b336001600160a01b0385160361070a5760405162461bcd60e51b815260206004820152601a60248201527f43616e6e6f74207374616b65207769746820796f757273656c6600000000000060448201526064016106a9565b624c4b4083101561075d5760405162461bcd60e51b815260206004820152601760248201527f4d696e696d756d207374616b652069732035205553444300000000000000000060448201526064016106a9565b4282116107ac5760405162461bcd60e51b815260206004820152601960248201527f4d656574696e67206d75737420626520696e206675747572650000000000000060448201526064016106a9565b600380545f91826107bc83612ce1565b909155505f546040516323b872dd60e01b8152336004820152306024820152604481018790529192506001600160a01b0316906323b872dd906064016020604051808303815f875af1158015610814573d5f803e3d5ffd5b505050506040513d601f19601f820116820180604052508101906108389190612cf9565b6108845760405162461bcd60e51b815260206004820152600f60248201527f5472616e73666572206661696c6564000000000000000000000000000000000060448201526064016106a9565b604051806101400160405280336001600160a01b03168152602001866001600160a01b031681526020018581526020015f81526020018581526020018481526020016001151581526020015f151581526020015f151581526020014281525060015f8381526020019081526020015f205f820151815f015f6101000a8154816001600160a01b0302191690836001600160a01b031602179055506020820151816001015f6101000a8154816001600160a01b0302191690836001600160a01b0316021790555060408201518160020155606082015181600301556080820151816004015560a0820151816005015560c0820151816006015f6101000a81548160ff02191690831515021790555060e08201518160060160016101000a81548160ff0219169083151502179055506101008201518160060160026101000a81548160ff0219169083151502179055506101208201518160070155905050846001600160a01b0316336001600160a01b0316827f8663756ecd3b02533219d14493197b44f4a0311d1dc833a2e3573ecdd6cd5bd88787604051610a2f929190918252602082015260400190565b60405180910390a49050610a6260017f9b779b17422d0df92223018b32b4d1fa46e071723d6817e2486d003becc55f0055565b9392505050565b610a71611b58565b5f818152600160205260409020600681015460ff168015610a9b57506006810154610100900460ff165b610ae75760405162461bcd60e51b815260206004820152601260248201527f5374616b65206e6f7420636f6d706c657465000000000000000000000000000060448201526064016106a9565b600681015462010000900460ff1615610b365760405162461bcd60e51b8152602060048201526011602482015270105b1c9958591e481c1c9bd8d95cdcd959607a1b60448201526064016106a9565b6202a3008160050154610b499190612d14565b4211610b975760405162461bcd60e51b815260206004820152601e60248201527f436f6e6669726d6174696f6e2077696e646f77207374696c6c206f70656e000060448201526064016106a9565b5f60648260040154600a610bab9190612d27565b610bb59190612d3e565b90505f6002828460040154610bca9190612d5d565b610bd49190612d3e565b60068401805462ff00001916620100001790555f54845460405163a9059cbb60e01b81526001600160a01b03918216600482015260248101849052929350169063a9059cbb906044016020604051808303815f875af1158015610c39573d5f803e3d5ffd5b505050506040513d601f19601f82011682018060405250810190610c5d9190612cf9565b610ca95760405162461bcd60e51b815260206004820152601560248201527f5573657231207472616e73666572206661696c6564000000000000000000000060448201526064016106a9565b5f54600184015460405163a9059cbb60e01b81526001600160a01b0391821660048201526024810184905291169063a9059cbb906044016020604051808303815f875af1158015610cfc573d5f803e3d5ffd5b505050506040513d601f19601f82011682018060405250810190610d209190612cf9565b610d6c5760405162461bcd60e51b815260206004820152601560248201527f5573657232207472616e73666572206661696c6564000000000000000000000060448201526064016106a9565b5f546001600160a01b031663a9059cbb610dad7f9016d09d72d40fdae2fd8ceac6b6234c7706214fd39c1cd1e609a0528c199300546001600160a01b031690565b6040517fffffffff0000000000000000000000000000000000000000000000000000000060e084901b1681526001600160a01b039091166004820152602481018590526044016020604051808303815f875af1158015610e0f573d5f803e3d5ffd5b505050506040513d601f19601f82011682018060405250810190610e339190612cf9565b610e7f5760405162461bcd60e51b815260206004820152601360248201527f466565207472616e73666572206661696c65640000000000000000000000000060448201526064016106a9565b60408051828152602081018390529081018390526080606082018190526007908201527f74696d656f75740000000000000000000000000000000000000000000000000060a082015284907ff46a7b5e78bde6aca13cbf04933204950fb860b4c1645abdc8dbf2d067dc17869060c00160405180910390a2505050610f2360017f9b779b17422d0df92223018b32b4d1fa46e071723d6817e2486d003becc55f0055565b50565b610f2e611b58565b5f83815260016020526040902080546001600160a01b0316331480610f5f575060018101546001600160a01b031633145b610fab5760405162461bcd60e51b815260206004820152601160248201527f4e6f742061207061727469636970616e7400000000000000000000000000000060448201526064016106a9565b600681015460ff168015610fc857506006810154610100900460ff165b6110145760405162461bcd60e51b815260206004820152601260248201527f5374616b65206e6f7420636f6d706c657465000000000000000000000000000060448201526064016106a9565b600681015462010000900460ff16156110635760405162461bcd60e51b8152602060048201526011602482015270105b1c9958591e481c1c9bd8d95cdcd959607a1b60448201526064016106a9565b80600501544210156110b75760405162461bcd60e51b815260206004820152601b60248201527f4d656574696e67206861736e2774206f6363757272656420796574000000000060448201526064016106a9565b6202a30081600501546110ca9190612d14565b4211156111195760405162461bcd60e51b815260206004820152601a60248201527f436f6e6669726d6174696f6e2077696e646f7720636c6f73656400000000000060448201526064016106a9565b5f84815260026020908152604080832033845290915290205460ff16156111825760405162461bcd60e51b815260206004820152601160248201527f416c726561647920636f6e6669726d656400000000000000000000000000000060448201526064016106a9565b604080516060810182526001815284151560208083019182528515158385019081525f8981526002835285812033808352935285902093518454935191511515620100000262ff0000199215156101000261ff00199215159290921661ffff1990951694909417171691909117909155905185907fc3f614fc872697fb99df5635708f7fb73e68af9e9e89a3ffc09206bb002501e190611232908790879091151582521515602082015260400190565b60405180910390a380545f906001600160a01b0316331461125d5781546001600160a01b031661126c565b60018201546001600160a01b03165b5f8681526002602090815260408083206001600160a01b038516845290915290205490915060ff16156112a2576112a285611be1565b50506112cd60017f9b779b17422d0df92223018b32b4d1fa46e071723d6817e2486d003becc55f0055565b505050565b6112da61243b565b6112e3826124f2565b6112ed82826124fa565b5050565b5f6112fa6125e2565b507f360894a13ba1a3210667c828492db98dca3e2076cc3735a920a3ca505d382bbc90565b61132761262b565b6113305f61269f565b565b61133a611b58565b5f818152600160208190526040909120908101546001600160a01b031633146113a55760405162461bcd60e51b815260206004820152601460248201527f4e6f7420746865206d617463686564207573657200000000000000000000000060448201526064016106a9565b600681015460ff166113f95760405162461bcd60e51b815260206004820152601160248201527f5374616b65206e6f74206372656174656400000000000000000000000000000060448201526064016106a9565b6006810154610100900460ff16156114535760405162461bcd60e51b815260206004820152601060248201527f416c72656164792061636365707465640000000000000000000000000000000060448201526064016106a9565b600681015462010000900460ff16156114a25760405162461bcd60e51b8152602060048201526011602482015270105b1c9958591e481c1c9bd8d95cdcd959607a1b60448201526064016106a9565b806005015442106114f55760405162461bcd60e51b815260206004820152601360248201527f4d656574696e672074696d65207061737365640000000000000000000000000060448201526064016106a9565b60028101545f546040516323b872dd60e01b8152336004820152306024820152604481018390526001600160a01b03909116906323b872dd906064016020604051808303815f875af115801561154d573d5f803e3d5ffd5b505050506040513d601f19601f820116820180604052508101906115719190612cf9565b6115bd5760405162461bcd60e51b815260206004820152600f60248201527f5472616e73666572206661696c6564000000000000000000000000000000000060448201526064016106a9565b6003820181905560068201805461ff00191661010017905560028201546115e5908290612d14565b6004830155604051818152339084907faf84b9a32c98be0e06d5f11733fed35e270c58d34c6986070b6f05d3cd9399779060200160405180910390a35050610f2360017f9b779b17422d0df92223018b32b4d1fa46e071723d6817e2486d003becc55f0055565b5f61165561271c565b805490915060ff68010000000000000000820416159067ffffffffffffffff165f811580156116815750825b90505f8267ffffffffffffffff16600114801561169d5750303b155b9050811580156116ab575080155b156116e2576040517ff92ee8a900000000000000000000000000000000000000000000000000000000815260040160405180910390fd5b845467ffffffffffffffff19166001178555831561171657845468ff00000000000000001916680100000000000000001785555b61171f33612744565b611727612755565b61172f61275d565b5f805473ffffffffffffffffffffffffffffffffffffffff19166001600160a01b03881617905583156117a157845468ff000000000000000019168555604051600181527fc7f505b2f371ae2175ee4913f4499e1f2633a7b5936321eed1cdaeb6115181d29060200160405180910390a15b505050505050565b60408051606080820183525f8083526020808401829052928401819052858152600283528381206001600160a01b03861682528352839020835191820184525460ff80821615158352610100820481161515938301939093526201000090049091161515918101919091525b92915050565b611823611b58565b5f81815260016020526040902080546001600160a01b031633146118895760405162461bcd60e51b815260206004820152601760248201527f4f6e6c792063726561746f722063616e2063616e63656c00000000000000000060448201526064016106a9565b600681015460ff166118dd5760405162461bcd60e51b815260206004820152601160248201527f5374616b65206e6f74206372656174656400000000000000000000000000000060448201526064016106a9565b6006810154610100900460ff16156119375760405162461bcd60e51b815260206004820152601060248201527f416c72656164792061636365707465640000000000000000000000000000000060448201526064016106a9565b600681015462010000900460ff16156119865760405162461bcd60e51b8152602060048201526011602482015270105b1c9958591e481c1c9bd8d95cdcd959607a1b60448201526064016106a9565b60068101805462ff00001916620100001790555f548154600283015460405163a9059cbb60e01b81526001600160a01b039283166004820152602481019190915291169063a9059cbb906044016020604051808303815f875af11580156119ef573d5f803e3d5ffd5b505050506040513d601f19601f82011682018060405250810190611a139190612cf9565b611a5f5760405162461bcd60e51b815260206004820152600d60248201527f526566756e64206661696c65640000000000000000000000000000000000000060448201526064016106a9565b6002810154604080519182525f60208301819052908201526080606082018190526009908201527f63616e63656c6c6564000000000000000000000000000000000000000000000060a082015282907ff46a7b5e78bde6aca13cbf04933204950fb860b4c1645abdc8dbf2d067dc17869060c00160405180910390a250610f2360017f9b779b17422d0df92223018b32b4d1fa46e071723d6817e2486d003becc55f0055565b611b0d61262b565b6001600160a01b038116611b4f576040517f1e4fbdf70000000000000000000000000000000000000000000000000000000081525f60048201526024016106a9565b610f238161269f565b7f9b779b17422d0df92223018b32b4d1fa46e071723d6817e2486d003becc55f00805460011901611bb5576040517f3ee5aeb500000000000000000000000000000000000000000000000000000000815260040160405180910390fd5b60029055565b60017f9b779b17422d0df92223018b32b4d1fa46e071723d6817e2486d003becc55f0055565b5f8181526001602081815260408084206002835281852081546001600160a01b039081168752818552838720845160608082018752915460ff8082161515835261010080830482161515848b01908152620100009384900483161515858b01529a8801549095168b52948852868a2087518085018952905480871615158252948504861615159881019890985290920490921615159385019390935293519094919382918291908015611c95575085604001515b8015611ca2575084602001515b8015611caf575084604001515b15611d3357606460058860040154611cc79190612d27565b611cd19190612d3e565b91505f6002838960040154611ce69190612d5d565b611cf09190612d3e565b60408051808201909152600b81527f626f74685f73686f776564000000000000000000000000000000000000000000602082015290955085945091506121389050565b85602001518015611d4657508560400151155b8015611d5457508460200151155b8015611d61575084604001515b15611e3957606460148860030154611d799190612d27565b611d839190612d3e565b92505f60028860030154611d979190612d3e565b90505f818960020154611daa9190612d14565b90505f6064611dba600584612d27565b611dc49190612d3e565b9050611dd08183612d5d565b965085878b60040154611de39190612d5d565b611ded9190612d5d565b611df79082612d14565b94506040518060400160405280600c81526020017f75736572315f73686f77656400000000000000000000000000000000000000008152509350505050612138565b8560200151158015611e4c575085604001515b8015611e59575084602001515b8015611e6757508460400151155b15611f3f57606460148860020154611e7f9190612d27565b611e899190612d3e565b93505f60028860020154611e9d9190612d3e565b90505f818960030154611eb09190612d14565b90505f6064611ec0600584612d27565b611eca9190612d3e565b9050611ed68183612d5d565b955085878b60040154611ee99190612d5d565b611ef39190612d5d565b611efd9082612d14565b94506040518060400160405280600c81526020017f75736572325f73686f77656400000000000000000000000000000000000000008152509350505050612138565b8560200151158015611f5357508460200151155b8015611f6157508560400151155b8015611f6f57508460400151155b1561200c57606460148860020154611f879190612d27565b611f919190612d3e565b9350606460148860030154611fa69190612d27565b611fb09190612d3e565b925082848860040154611fc39190612d5d565b611fcd9190612d5d565b91506040518060400160405280600e81526020017f6e6569746865725f73686f7765640000000000000000000000000000000000008152509050612138565b8560200151801561201f57508560400151155b801561202c575084602001515b801561203a57508460400151155b156120be5760648760040154600a6120529190612d27565b61205c9190612d3e565b91505f60028389600401546120719190612d5d565b61207b9190612d3e565b60408051808201909152600881527f636f6e666c696374000000000000000000000000000000000000000000000000602082015290955085945091506121389050565b60648760040154600a6120d19190612d27565b6120db9190612d3e565b91505f60028389600401546120f09190612d5d565b6120fa9190612d3e565b60408051808201909152600881527f6d69736d6174636800000000000000000000000000000000000000000000000060208201529095508594509150505b60068701805462ff00001916620100001790558315612211575f54875460405163a9059cbb60e01b81526001600160a01b0391821660048201526024810187905291169063a9059cbb906044016020604051808303815f875af11580156121a1573d5f803e3d5ffd5b505050506040513d601f19601f820116820180604052508101906121c59190612cf9565b6122115760405162461bcd60e51b815260206004820152601560248201527f5573657231207472616e73666572206661696c6564000000000000000000000060448201526064016106a9565b82156122da575f54600188015460405163a9059cbb60e01b81526001600160a01b0391821660048201526024810186905291169063a9059cbb906044016020604051808303815f875af115801561226a573d5f803e3d5ffd5b505050506040513d601f19601f8201168201806040525081019061228e9190612cf9565b6122da5760405162461bcd60e51b815260206004820152601560248201527f5573657232207472616e73666572206661696c6564000000000000000000000060448201526064016106a9565b81156123f3575f546001600160a01b031663a9059cbb6123217f9016d09d72d40fdae2fd8ceac6b6234c7706214fd39c1cd1e609a0528c199300546001600160a01b031690565b6040517fffffffff0000000000000000000000000000000000000000000000000000000060e084901b1681526001600160a01b039091166004820152602481018590526044016020604051808303815f875af1158015612383573d5f803e3d5ffd5b505050506040513d601f19601f820116820180604052508101906123a79190612cf9565b6123f35760405162461bcd60e51b815260206004820152601360248201527f466565207472616e73666572206661696c65640000000000000000000000000060448201526064016106a9565b877ff46a7b5e78bde6aca13cbf04933204950fb860b4c1645abdc8dbf2d067dc1786858585856040516124299493929190612d70565b60405180910390a25050505050505050565b306001600160a01b037f00000000000000000000000000000000000000000000000000000000000000001614806124d457507f00000000000000000000000000000000000000000000000000000000000000006001600160a01b03166124c87f360894a13ba1a3210667c828492db98dca3e2076cc3735a920a3ca505d382bbc546001600160a01b031690565b6001600160a01b031614155b156113305760405163703e46dd60e11b815260040160405180910390fd5b610f2361262b565b816001600160a01b03166352d1902d6040518163ffffffff1660e01b8152600401602060405180830381865afa925050508015612554575060408051601f3d908101601f1916820190925261255191810190612d9e565b60015b61257c57604051634c9c8ce360e01b81526001600160a01b03831660048201526024016106a9565b7f360894a13ba1a3210667c828492db98dca3e2076cc3735a920a3ca505d382bbc81146125d8576040517faa1d49a4000000000000000000000000000000000000000000000000000000008152600481018290526024016106a9565b6112cd838361276d565b306001600160a01b037f000000000000000000000000000000000000000000000000000000000000000016146113305760405163703e46dd60e11b815260040160405180910390fd5b3361265d7f9016d09d72d40fdae2fd8ceac6b6234c7706214fd39c1cd1e609a0528c199300546001600160a01b031690565b6001600160a01b031614611330576040517f118cdaa70000000000000000000000000000000000000000000000000000000081523360048201526024016106a9565b7f9016d09d72d40fdae2fd8ceac6b6234c7706214fd39c1cd1e609a0528c199300805473ffffffffffffffffffffffffffffffffffffffff1981166001600160a01b03848116918217845560405192169182907f8be0079c531659141344cd1fd0a4f28419497f9722a3daafe3b4186f6b6457e0905f90a3505050565b5f807ff0c57e16840df040f15088dc2f81fe391c3923bec73e23a9662efc9c229c6a00611815565b61274c6127c2565b610f2381612800565b6113306127c2565b6127656127c2565b611330612808565b61277682612810565b6040516001600160a01b038316907fbc7cd75a20ee27fd9adebab32041f755214dbc6bffa90cc0225b39da2e5c2d3b905f90a28051156127ba576112cd8282612893565b6112ed612905565b6127ca61293d565b611330576040517fd7e6bcf800000000000000000000000000000000000000000000000000000000815260040160405180910390fd5b611b0d6127c2565b611bbb6127c2565b806001600160a01b03163b5f0361284557604051634c9c8ce360e01b81526001600160a01b03821660048201526024016106a9565b7f360894a13ba1a3210667c828492db98dca3e2076cc3735a920a3ca505d382bbc805473ffffffffffffffffffffffffffffffffffffffff19166001600160a01b0392909216919091179055565b60605f80846001600160a01b0316846040516128af9190612db5565b5f60405180830381855af49150503d805f81146128e7576040519150601f19603f3d011682016040523d82523d5f602084013e6128ec565b606091505b50915091506128fc85838361295b565b95945050505050565b3415611330576040517fb398979f00000000000000000000000000000000000000000000000000000000815260040160405180910390fd5b5f61294661271c565b5468010000000000000000900460ff16919050565b6060826129705761296b826129d0565b610a62565b815115801561298757506001600160a01b0384163b155b156129c9576040517f9996b3150000000000000000000000000000000000000000000000000000000081526001600160a01b03851660048201526024016106a9565b5080610a62565b8051156129df57805160208201fd5b6040517fd6bda27500000000000000000000000000000000000000000000000000000000815260040160405180910390fd5b80356001600160a01b0381168114612a27575f80fd5b919050565b5f8060408385031215612a3d575f80fd5b82359150612a4d60208401612a11565b90509250929050565b5f805f60608486031215612a68575f80fd5b612a7184612a11565b95602085013595506040909401359392505050565b5f60208284031215612a96575f80fd5b5035919050565b8015158114610f23575f80fd5b5f805f60608486031215612abc575f80fd5b833592506020840135612ace81612a9d565b91506040840135612ade81612a9d565b809150509250925092565b634e487b7160e01b5f52604160045260245ffd5b5f8060408385031215612b0e575f80fd5b612b1783612a11565b9150602083013567ffffffffffffffff80821115612b33575f80fd5b818501915085601f830112612b46575f80fd5b813581811115612b5857612b58612ae9565b604051601f8201601f19908116603f01168101908382118183101715612b8057612b80612ae9565b81604052828152886020848701011115612b98575f80fd5b826020860160208301375f6020848301015280955050505050509250929050565b5f5b83811015612bd3578181015183820152602001612bbb565b50505f910152565b5f8151808452612bf2816020860160208601612bb9565b601f01601f19169290920160200192915050565b602081525f610a626020830184612bdb565b5f60208284031215612c28575f80fd5b610a6282612a11565b81516001600160a01b0316815261014081016020830151612c5d60208401826001600160a01b03169052565b5060408301516040830152606083015160608301526080830151608083015260a083015160a083015260c0830151612c9960c084018215159052565b5060e0830151612cad60e084018215159052565b506101008381015180151584830152505061012092830151919092015290565b634e487b7160e01b5f52601160045260245ffd5b5f60018201612cf257612cf2612ccd565b5060010190565b5f60208284031215612d09575f80fd5b8151610a6281612a9d565b8082018082111561181557611815612ccd565b808202811582820484141761181557611815612ccd565b5f82612d5857634e487b7160e01b5f52601260045260245ffd5b500490565b8181038181111561181557611815612ccd565b848152836020820152826040820152608060608201525f612d946080830184612bdb565b9695505050505050565b5f60208284031215612dae575f80fd5b5051919050565b5f8251612dc6818460208701612bb9565b919091019291505056fea264697066735822122070b680a760470ff378307d2b5432ec9bb1cc635a57bbfa0454851336411b5ef764736f6c63430008160033","opcodes":"PUSH1 0xA0 PUSH1 0x40 MSTORE ADDRESS PUSH1 0x80 MSTORE CALLVALUE DUP1 ISZERO PUSH2 0x13 JUMPI PUSH0 DUP1 REVERT JUMPDEST POP PUSH1 0x80 MLOAD PUSH2 0x2E06 PUSH2 0x3A PUSH0 CODECOPY PUSH0 DUP2 DUP2 PUSH2 0x2446 ADD MSTORE DUP2 DUP2 PUSH2 0x246F ADD MSTORE PUSH2 0x25ED ADD MSTORE PUSH2 0x2E06 PUSH0 RETURN INVALID PUSH1 0x80 PUSH1 0x40 MSTORE PUSH1 0x4 CALLDATASIZE LT PUSH2 0x162 JUMPI PUSH0 CALLDATALOAD PUSH1 0xE0 SHR DUP1 PUSH4 0x81A4952E GT PUSH2 0xC6 JUMPI DUP1 PUSH4 0xCE325BF8 GT PUSH2 0x7C JUMPI DUP1 PUSH4 0xD8DE9480 GT PUSH2 0x57 JUMPI DUP1 PUSH4 0xD8DE9480 EQ PUSH2 0x5FB JUMPI DUP1 PUSH4 0xF2FDE38B EQ PUSH2 0x61A JUMPI DUP1 PUSH4 0xF7B17D10 EQ PUSH2 0x639 JUMPI PUSH0 DUP1 REVERT JUMPDEST DUP1 PUSH4 0xCE325BF8 EQ PUSH2 0x3C1 JUMPI DUP1 PUSH4 0xD0192E37 EQ PUSH2 0x4D7 JUMPI DUP1 PUSH4 0xD5A44F86 EQ PUSH2 0x51E JUMPI PUSH0 DUP1 REVERT JUMPDEST DUP1 PUSH4 0x8DA5CB5B GT PUSH2 0xAC JUMPI DUP1 PUSH4 0x8DA5CB5B EQ PUSH2 0x311 JUMPI DUP1 PUSH4 0xAD3CB1CC EQ PUSH2 0x34D JUMPI DUP1 PUSH4 0xC4D66DE8 EQ PUSH2 0x3A2 JUMPI PUSH0 DUP1 REVERT JUMPDEST DUP1 PUSH4 0x81A4952E EQ PUSH2 0x2DC JUMPI DUP1 PUSH4 0x86E2D5DF EQ PUSH2 0x2FB JUMPI PUSH0 DUP1 REVERT JUMPDEST DUP1 PUSH4 0x4ED11EA5 GT PUSH2 0x11B JUMPI DUP1 PUSH4 0x52D1902D GT PUSH2 0x101 JUMPI DUP1 PUSH4 0x52D1902D EQ PUSH2 0x2A0 JUMPI DUP1 PUSH4 0x560D52D4 EQ PUSH2 0x2B4 JUMPI DUP1 PUSH4 0x715018A6 EQ PUSH2 0x2C8 JUMPI PUSH0 DUP1 REVERT JUMPDEST DUP1 PUSH4 0x4ED11EA5 EQ PUSH2 0x26E JUMPI DUP1 PUSH4 0x4F1EF286 EQ PUSH2 0x28D JUMPI PUSH0 DUP1 REVERT JUMPDEST DUP1 PUSH4 0x3E413BEE GT PUSH2 0x14B JUMPI DUP1 PUSH4 0x3E413BEE EQ PUSH2 0x203 JUMPI DUP1 PUSH4 0x41AB3857 EQ PUSH2 0x239 JUMPI DUP1 PUSH4 0x4E5548CE EQ PUSH2 0x24D JUMPI PUSH0 DUP1 REVERT JUMPDEST DUP1 PUSH4 0x3411C81C EQ PUSH2 0x166 JUMPI DUP1 PUSH4 0x3C09CFC6 EQ PUSH2 0x1D6 JUMPI JUMPDEST PUSH0 DUP1 REVERT JUMPDEST CALLVALUE DUP1 ISZERO PUSH2 0x171 JUMPI PUSH0 DUP1 REVERT JUMPDEST POP PUSH2 0x1B2 PUSH2 0x180 CALLDATASIZE PUSH1 0x4 PUSH2 0x2A2C JUMP JUMPDEST PUSH1 0x2 PUSH1 0x20 SWAP1 DUP2 MSTORE PUSH0 SWAP3 DUP4 MSTORE PUSH1 0x40 DUP1 DUP5 KECCAK256 SWAP1 SWAP2 MSTORE SWAP1 DUP3 MSTORE SWAP1 KECCAK256 SLOAD PUSH1 0xFF DUP1 DUP3 AND SWAP2 PUSH2 0x100 DUP2 DIV DUP3 AND SWAP2 PUSH3 0x10000 SWAP1 SWAP2 DIV AND DUP4 JUMP JUMPDEST PUSH1 0x40 DUP1 MLOAD SWAP4 ISZERO ISZERO DUP5 MSTORE SWAP2 ISZERO ISZERO PUSH1 0x20 DUP5 ADD MSTORE ISZERO ISZERO SWAP1 DUP3 ADD MSTORE PUSH1 0x60 ADD JUMPDEST PUSH1 0x40 MLOAD DUP1 SWAP2 SUB SWAP1 RETURN JUMPDEST CALLVALUE DUP1 ISZERO PUSH2 0x1E1 JUMPI PUSH0 DUP1 REVERT JUMPDEST POP PUSH2 0x1F5 PUSH2 0x1F0 CALLDATASIZE PUSH1 0x4 PUSH2 0x2A56 JUMP JUMPDEST PUSH2 0x64E JUMP JUMPDEST PUSH1 0x40 MLOAD SWAP1 DUP2 MSTORE PUSH1 0x20 ADD PUSH2 0x1CD JUMP JUMPDEST CALLVALUE DUP1 ISZERO PUSH2 0x20E JUMPI PUSH0 DUP1 REVERT JUMPDEST POP PUSH0 SLOAD PUSH2 0x221 SWAP1 PUSH1 0x1 PUSH1 0x1 PUSH1 0xA0 SHL SUB AND DUP2 JUMP JUMPDEST PUSH1 0x40 MLOAD PUSH1 0x1 PUSH1 0x1 PUSH1 0xA0 SHL SUB SWAP1 SWAP2 AND DUP2 MSTORE PUSH1 0x20 ADD PUSH2 0x1CD JUMP JUMPDEST CALLVALUE DUP1 ISZERO PUSH2 0x244 JUMPI PUSH0 DUP1 REVERT JUMPDEST POP PUSH2 0x1F5 PUSH1 0x14 DUP2 JUMP JUMPDEST CALLVALUE DUP1 ISZERO PUSH2 0x258 JUMPI PUSH0 DUP1 REVERT JUMPDEST POP PUSH2 0x26C PUSH2 0x267 CALLDATASIZE PUSH1 0x4 PUSH2 0x2A86 JUMP JUMPDEST PUSH2 0xA69 JUMP JUMPDEST STOP JUMPDEST CALLVALUE DUP1 ISZERO PUSH2 0x279 JUMPI PUSH0 DUP1 REVERT JUMPDEST POP PUSH2 0x26C PUSH2 0x288 CALLDATASIZE PUSH1 0x4 PUSH2 0x2AAA JUMP JUMPDEST PUSH2 0xF26 JUMP JUMPDEST PUSH2 0x26C PUSH2 0x29B CALLDATASIZE PUSH1 0x4 PUSH2 0x2AFD JUMP JUMPDEST PUSH2 0x12D2 JUMP JUMPDEST CALLVALUE DUP1 ISZERO PUSH2 0x2AB JUMPI PUSH0 DUP1 REVERT JUMPDEST POP PUSH2 0x1F5 PUSH2 0x12F1 JUMP JUMPDEST CALLVALUE DUP1 ISZERO PUSH2 0x2BF JUMPI PUSH0 DUP1 REVERT JUMPDEST POP PUSH2 0x1F5 PUSH1 0x5 DUP2 JUMP JUMPDEST CALLVALUE DUP1 ISZERO PUSH2 0x2D3 JUMPI PUSH0 DUP1 REVERT JUMPDEST POP PUSH2 0x26C PUSH2 0x131F JUMP JUMPDEST CALLVALUE DUP1 ISZERO PUSH2 0x2E7 JUMPI PUSH0 DUP1 REVERT JUMPDEST POP PUSH2 0x26C PUSH2 0x2F6 CALLDATASIZE PUSH1 0x4 PUSH2 0x2A86 JUMP JUMPDEST PUSH2 0x1332 JUMP JUMPDEST CALLVALUE DUP1 ISZERO PUSH2 0x306 JUMPI PUSH0 DUP1 REVERT JUMPDEST POP PUSH2 0x1F5 PUSH3 0x2A300 DUP2 JUMP JUMPDEST CALLVALUE DUP1 ISZERO PUSH2 0x31C JUMPI PUSH0 DUP1 REVERT JUMPDEST POP PUSH32 0x9016D09D72D40FDAE2FD8CEAC6B6234C7706214FD39C1CD1E609A0528C199300 SLOAD PUSH1 0x1 PUSH1 0x1 PUSH1 0xA0 SHL SUB AND PUSH2 0x221 JUMP JUMPDEST CALLVALUE DUP1 ISZERO PUSH2 0x358 JUMPI PUSH0 DUP1 REVERT JUMPDEST POP PUSH2 0x395 PUSH1 0x40 MLOAD DUP1 PUSH1 0x40 ADD PUSH1 0x40 MSTORE DUP1 PUSH1 0x5 DUP2 MSTORE PUSH1 0x20 ADD PUSH32 0x352E302E30000000000000000000000000000000000000000000000000000000 DUP2 MSTORE POP DUP2 JUMP JUMPDEST PUSH1 0x40 MLOAD PUSH2 0x1CD SWAP2 SWAP1 PUSH2 0x2C06 JUMP JUMPDEST CALLVALUE DUP1 ISZERO PUSH2 0x3AD JUMPI PUSH0 DUP1 REVERT JUMPDEST POP PUSH2 0x26C PUSH2 0x3BC CALLDATASIZE PUSH1 0x4 PUSH2 0x2C18 JUMP JUMPDEST PUSH2 0x164C JUMP JUMPDEST CALLVALUE DUP1 ISZERO PUSH2 0x3CC JUMPI PUSH0 DUP1 REVERT JUMPDEST POP PUSH2 0x4CA PUSH2 0x3DB CALLDATASIZE PUSH1 0x4 PUSH2 0x2A86 JUMP JUMPDEST PUSH1 0x40 DUP1 MLOAD PUSH2 0x140 DUP2 ADD DUP3 MSTORE PUSH0 DUP1 DUP3 MSTORE PUSH1 0x20 DUP3 ADD DUP2 SWAP1 MSTORE SWAP2 DUP2 ADD DUP3 SWAP1 MSTORE PUSH1 0x60 DUP2 ADD DUP3 SWAP1 MSTORE PUSH1 0x80 DUP2 ADD DUP3 SWAP1 MSTORE PUSH1 0xA0 DUP2 ADD DUP3 SWAP1 MSTORE PUSH1 0xC0 DUP2 ADD DUP3 SWAP1 MSTORE PUSH1 0xE0 DUP2 ADD DUP3 SWAP1 MSTORE PUSH2 0x100 DUP2 ADD DUP3 SWAP1 MSTORE PUSH2 0x120 DUP2 ADD SWAP2 SWAP1 SWAP2 MSTORE POP PUSH0 SWAP1 DUP2 MSTORE PUSH1 0x1 PUSH1 0x20 DUP2 DUP2 MSTORE PUSH1 0x40 SWAP3 DUP4 SWAP1 KECCAK256 DUP4 MLOAD PUSH2 0x140 DUP2 ADD DUP6 MSTORE DUP2 SLOAD PUSH1 0x1 PUSH1 0x1 PUSH1 0xA0 SHL SUB SWAP1 DUP2 AND DUP3 MSTORE SWAP4 DUP3 ADD SLOAD SWAP1 SWAP4 AND SWAP2 DUP4 ADD SWAP2 SWAP1 SWAP2 MSTORE PUSH1 0x2 DUP2 ADD SLOAD SWAP3 DUP3 ADD SWAP3 SWAP1 SWAP3 MSTORE PUSH1 0x3 DUP3 ADD SLOAD PUSH1 0x60 DUP3 ADD MSTORE PUSH1 0x4 DUP3 ADD SLOAD PUSH1 0x80 DUP3 ADD MSTORE PUSH1 0x5 DUP3 ADD SLOAD PUSH1 0xA0 DUP3 ADD MSTORE PUSH1 0x6 DUP3 ADD SLOAD PUSH1 0xFF DUP1 DUP3 AND ISZERO ISZERO PUSH1 0xC0 DUP5 ADD MSTORE PUSH2 0x100 DUP1 DUP4 DIV DUP3 AND ISZERO ISZERO PUSH1 0xE0 DUP6 ADD MSTORE PUSH3 0x10000 SWAP1 SWAP3 DIV AND ISZERO ISZERO SWAP1 DUP3 ADD MSTORE PUSH1 0x7 SWAP1 SWAP2 ADD SLOAD PUSH2 0x120 DUP3 ADD MSTORE SWAP1 JUMP JUMPDEST PUSH1 0x40 MLOAD PUSH2 0x1CD SWAP2 SWAP1 PUSH2 0x2C31 JUMP JUMPDEST CALLVALUE DUP1 ISZERO PUSH2 0x4E2 JUMPI PUSH0 DUP1 REVERT JUMPDEST POP PUSH2 0x4F6 PUSH2 0x4F1 CALLDATASIZE PUSH1 0x4 PUSH2 0x2A2C JUMP JUMPDEST PUSH2 0x17A9 JUMP JUMPDEST PUSH1 0x40 DUP1 MLOAD DUP3 MLOAD ISZERO ISZERO DUP2 MSTORE PUSH1 0x20 DUP1 DUP5 ADD MLOAD ISZERO ISZERO SWAP1 DUP3 ADD MSTORE SWAP2 DUP2 ADD MLOAD ISZERO ISZERO SWAP1 DUP3 ADD MSTORE PUSH1 0x60 ADD PUSH2 0x1CD JUMP JUMPDEST CALLVALUE DUP1 ISZERO PUSH2 0x529 JUMPI PUSH0 DUP1 REVERT JUMPDEST POP PUSH2 0x5A0 PUSH2 0x538 CALLDATASIZE PUSH1 0x4 PUSH2 0x2A86 JUMP JUMPDEST PUSH1 0x1 PUSH1 0x20 DUP2 SWAP1 MSTORE PUSH0 SWAP2 DUP3 MSTORE PUSH1 0x40 SWAP1 SWAP2 KECCAK256 DUP1 SLOAD SWAP2 DUP2 ADD SLOAD PUSH1 0x2 DUP3 ADD SLOAD PUSH1 0x3 DUP4 ADD SLOAD PUSH1 0x4 DUP5 ADD SLOAD PUSH1 0x5 DUP6 ADD SLOAD PUSH1 0x6 DUP7 ADD SLOAD PUSH1 0x7 SWAP1 SWAP7 ADD SLOAD PUSH1 0x1 PUSH1 0x1 PUSH1 0xA0 SHL SUB SWAP8 DUP9 AND SWAP8 SWAP1 SWAP6 AND SWAP6 SWAP4 SWAP5 SWAP3 SWAP4 SWAP2 SWAP3 SWAP1 SWAP2 PUSH1 0xFF DUP1 DUP3 AND SWAP3 PUSH2 0x100 DUP4 DIV DUP3 AND SWAP3 PUSH3 0x10000 SWAP1 DIV SWAP1 SWAP2 AND SWAP1 DUP11 JUMP JUMPDEST PUSH1 0x40 DUP1 MLOAD PUSH1 0x1 PUSH1 0x1 PUSH1 0xA0 SHL SUB SWAP12 DUP13 AND DUP2 MSTORE SWAP11 SWAP1 SWAP10 AND PUSH1 0x20 DUP12 ADD MSTORE SWAP8 DUP10 ADD SWAP7 SWAP1 SWAP7 MSTORE PUSH1 0x60 DUP9 ADD SWAP5 SWAP1 SWAP5 MSTORE PUSH1 0x80 DUP8 ADD SWAP3 SWAP1 SWAP3 MSTORE PUSH1 0xA0 DUP7 ADD MSTORE ISZERO ISZERO PUSH1 0xC0 DUP6 ADD MSTORE ISZERO ISZERO PUSH1 0xE0 DUP5 ADD MSTORE ISZERO ISZERO PUSH2 0x100 DUP4 ADD MSTORE PUSH2 0x120 DUP3 ADD MSTORE PUSH2 0x140 ADD PUSH2 0x1CD JUMP JUMPDEST CALLVALUE DUP1 ISZERO PUSH2 0x606 JUMPI PUSH0 DUP1 REVERT JUMPDEST POP PUSH2 0x26C PUSH2 0x615 CALLDATASIZE PUSH1 0x4 PUSH2 0x2A86 JUMP JUMPDEST PUSH2 0x181B JUMP JUMPDEST CALLVALUE DUP1 ISZERO PUSH2 0x625 JUMPI PUSH0 DUP1 REVERT JUMPDEST POP PUSH2 0x26C PUSH2 0x634 CALLDATASIZE PUSH1 0x4 PUSH2 0x2C18 JUMP JUMPDEST PUSH2 0x1B05 JUMP JUMPDEST CALLVALUE DUP1 ISZERO PUSH2 0x644 JUMPI PUSH0 DUP1 REVERT JUMPDEST POP PUSH2 0x1F5 PUSH1 0x3 SLOAD DUP2 JUMP JUMPDEST PUSH0 PUSH2 0x657 PUSH2 0x1B58 JUMP JUMPDEST PUSH1 0x1 PUSH1 0x1 PUSH1 0xA0 SHL SUB DUP5 AND PUSH2 0x6B2 JUMPI PUSH1 0x40 MLOAD PUSH3 0x461BCD PUSH1 0xE5 SHL DUP2 MSTORE PUSH1 0x20 PUSH1 0x4 DUP3 ADD MSTORE PUSH1 0x15 PUSH1 0x24 DUP3 ADD MSTORE PUSH32 0x496E76616C696420757365723220616464726573730000000000000000000000 PUSH1 0x44 DUP3 ADD MSTORE PUSH1 0x64 ADD JUMPDEST PUSH1 0x40 MLOAD DUP1 SWAP2 SUB SWAP1 REVERT JUMPDEST CALLER PUSH1 0x1 PUSH1 0x1 PUSH1 0xA0 SHL SUB DUP6 AND SUB PUSH2 0x70A JUMPI PUSH1 0x40 MLOAD PUSH3 0x461BCD PUSH1 0xE5 SHL DUP2 MSTORE PUSH1 0x20 PUSH1 0x4 DUP3 ADD MSTORE PUSH1 0x1A PUSH1 0x24 DUP3 ADD MSTORE PUSH32 0x43616E6E6F74207374616B65207769746820796F757273656C66000000000000 PUSH1 0x44 DUP3 ADD MSTORE PUSH1 0x64 ADD PUSH2 0x6A9 JUMP JUMPDEST PUSH3 0x4C4B40 DUP4 LT ISZERO PUSH2 0x75D JUMPI PUSH1 0x40 MLOAD PUSH3 0x461BCD PUSH1 0xE5 SHL DUP2 MSTORE PUSH1 0x20 PUSH1 0x4 DUP3 ADD MSTORE PUSH1 0x17 PUSH1 0x24 DUP3 ADD MSTORE PUSH32 0x4D696E696D756D207374616B6520697320352055534443000000000000000000 PUSH1 0x44 DUP3 ADD MSTORE PUSH1 0x64 ADD PUSH2 0x6A9 JUMP JUMPDEST TIMESTAMP DUP3 GT PUSH2 0x7AC JUMPI PUSH1 0x40 MLOAD PUSH3 0x461BCD PUSH1 0xE5 SHL DUP2 MSTORE PUSH1 0x20 PUSH1 0x4 DUP3 ADD MSTORE PUSH1 0x19 PUSH1 0x24 DUP3 ADD MSTORE PUSH32 0x4D656574696E67206D75737420626520696E2066757475726500000000000000 PUSH1 0x44 DUP3 ADD MSTORE PUSH1 0x64 ADD PUSH2 0x6A9 JUMP JUMPDEST PUSH1 0x3 DUP1 SLOAD PUSH0 SWAP2 DUP3 PUSH2 0x7BC DUP4 PUSH2 0x2CE1 JUMP JUMPDEST SWAP1 SWAP2 SSTORE POP PUSH0 SLOAD PUSH1 0x40 MLOAD PUSH4 0x23B872DD PUSH1 0xE0 SHL DUP2 MSTORE CALLER PUSH1 0x4 DUP3 ADD MSTORE ADDRESS PUSH1 0x24 DUP3 ADD MSTORE PUSH1 0x44 DUP2 ADD DUP8 SWAP1 MSTORE SWAP2 SWAP3 POP PUSH1 0x1 PUSH1 0x1 PUSH1 0xA0 SHL SUB AND SWAP1 PUSH4 0x23B872DD SWAP1 PUSH1 0x64 ADD PUSH1 0x20 PUSH1 0x40 MLOAD DUP1 DUP4 SUB DUP2 PUSH0 DUP8 GAS CALL ISZERO DUP1 ISZERO PUSH2 0x814 JUMPI RETURNDATASIZE PUSH0 DUP1 RETURNDATACOPY RETURNDATASIZE PUSH0 REVERT JUMPDEST POP POP POP POP PUSH1 0x40 MLOAD RETURNDATASIZE PUSH1 0x1F NOT PUSH1 0x1F DUP3 ADD AND DUP3 ADD DUP1 PUSH1 0x40 MSTORE POP DUP2 ADD SWAP1 PUSH2 0x838 SWAP2 SWAP1 PUSH2 0x2CF9 JUMP JUMPDEST PUSH2 0x884 JUMPI PUSH1 0x40 MLOAD PUSH3 0x461BCD PUSH1 0xE5 SHL DUP2 MSTORE PUSH1 0x20 PUSH1 0x4 DUP3 ADD MSTORE PUSH1 0xF PUSH1 0x24 DUP3 ADD MSTORE PUSH32 0x5472616E73666572206661696C65640000000000000000000000000000000000 PUSH1 0x44 DUP3 ADD MSTORE PUSH1 0x64 ADD PUSH2 0x6A9 JUMP JUMPDEST PUSH1 0x40 MLOAD DUP1 PUSH2 0x140 ADD PUSH1 0x40 MSTORE DUP1 CALLER PUSH1 0x1 PUSH1 0x1 PUSH1 0xA0 SHL SUB AND DUP2 MSTORE PUSH1 0x20 ADD DUP7 PUSH1 0x1 PUSH1 0x1 PUSH1 0xA0 SHL SUB AND DUP2 MSTORE PUSH1 0x20 ADD DUP6 DUP2 MSTORE PUSH1 0x20 ADD PUSH0 DUP2 MSTORE PUSH1 0x20 ADD DUP6 DUP2 MSTORE PUSH1 0x20 ADD DUP5 DUP2 MSTORE PUSH1 0x20 ADD PUSH1 0x1 ISZERO ISZERO DUP2 MSTORE PUSH1 0x20 ADD PUSH0 ISZERO ISZERO DUP2 MSTORE PUSH1 0x20 ADD PUSH0 ISZERO ISZERO DUP2 MSTORE PUSH1 0x20 ADD TIMESTAMP DUP2 MSTORE POP PUSH1 0x1 PUSH0 DUP4 DUP2 MSTORE PUSH1 0x20 ADD SWAP1 DUP2 MSTORE PUSH1 0x20 ADD PUSH0 KECCAK256 PUSH0 DUP3 ADD MLOAD DUP2 PUSH0 ADD PUSH0 PUSH2 0x100 EXP DUP2 SLOAD DUP2 PUSH1 0x1 PUSH1 0x1 PUSH1 0xA0 SHL SUB MUL NOT AND SWAP1 DUP4 PUSH1 0x1 PUSH1 0x1 PUSH1 0xA0 SHL SUB AND MUL OR SWAP1 SSTORE POP PUSH1 0x20 DUP3 ADD MLOAD DUP2 PUSH1 0x1 ADD PUSH0 PUSH2 0x100 EXP DUP2 SLOAD DUP2 PUSH1 0x1 PUSH1 0x1 PUSH1 0xA0 SHL SUB MUL NOT AND SWAP1 DUP4 PUSH1 0x1 PUSH1 0x1 PUSH1 0xA0 SHL SUB AND MUL OR SWAP1 SSTORE POP PUSH1 0x40 DUP3 ADD MLOAD DUP2 PUSH1 0x2 ADD SSTORE PUSH1 0x60 DUP3 ADD MLOAD DUP2 PUSH1 0x3 ADD SSTORE PUSH1 0x80 DUP3 ADD MLOAD DUP2 PUSH1 0x4 ADD SSTORE PUSH1 0xA0 DUP3 ADD MLOAD DUP2 PUSH1 0x5 ADD SSTORE PUSH1 0xC0 DUP3 ADD MLOAD DUP2 PUSH1 0x6 ADD PUSH0 PUSH2 0x100 EXP DUP2 SLOAD DUP2 PUSH1 0xFF MUL NOT AND SWAP1 DUP4 ISZERO ISZERO MUL OR SWAP1 SSTORE POP PUSH1 0xE0 DUP3 ADD MLOAD DUP2 PUSH1 0x6 ADD PUSH1 0x1 PUSH2 0x100 EXP DUP2 SLOAD DUP2 PUSH1 0xFF MUL NOT AND SWAP1 DUP4 ISZERO ISZERO MUL OR SWAP1 SSTORE POP PUSH2 0x100 DUP3 ADD MLOAD DUP2 PUSH1 0x6 ADD PUSH1 0x2 PUSH2 0x100 EXP DUP2 SLOAD DUP2 PUSH1 0xFF MUL NOT AND SWAP1 DUP4 ISZERO ISZERO MUL OR SWAP1 SSTORE POP PUSH2 0x120 DUP3 ADD MLOAD DUP2 PUSH1 0x7 ADD SSTORE SWAP1 POP POP DUP5 PUSH1 0x1 PUSH1 0x1 PUSH1 0xA0 SHL SUB AND CALLER PUSH1 0x1 PUSH1 0x1 PUSH1 0xA0 SHL SUB AND DUP3 PUSH32 0x8663756ECD3B02533219D14493197B44F4A0311D1DC833A2E3573ECDD6CD5BD8 DUP8 DUP8 PUSH1 0x40 MLOAD PUSH2 0xA2F SWAP3 SWAP2 SWAP1 SWAP2 DUP3 MSTORE PUSH1 0x20 DUP3 ADD MSTORE PUSH1 0x40 ADD SWAP1 JUMP JUMPDEST PUSH1 0x40 MLOAD DUP1 SWAP2 SUB SWAP1 LOG4 SWAP1 POP PUSH2 0xA62 PUSH1 0x1 PUSH32 0x9B779B17422D0DF92223018B32B4D1FA46E071723D6817E2486D003BECC55F00 SSTORE JUMP JUMPDEST SWAP4 SWAP3 POP POP POP JUMP JUMPDEST PUSH2 0xA71 PUSH2 0x1B58 JUMP JUMPDEST PUSH0 DUP2 DUP2 MSTORE PUSH1 0x1 PUSH1 0x20 MSTORE PUSH1 0x40 SWAP1 KECCAK256 PUSH1 0x6 DUP2 ADD SLOAD PUSH1 0xFF AND DUP1 ISZERO PUSH2 0xA9B JUMPI POP PUSH1 0x6 DUP2 ADD SLOAD PUSH2 0x100 SWAP1 DIV PUSH1 0xFF AND JUMPDEST PUSH2 0xAE7 JUMPI PUSH1 0x40 MLOAD PUSH3 0x461BCD PUSH1 0xE5 SHL DUP2 MSTORE PUSH1 0x20 PUSH1 0x4 DUP3 ADD MSTORE PUSH1 0x12 PUSH1 0x24 DUP3 ADD MSTORE PUSH32 0x5374616B65206E6F7420636F6D706C6574650000000000000000000000000000 PUSH1 0x44 DUP3 ADD MSTORE PUSH1 0x64 ADD PUSH2 0x6A9 JUMP JUMPDEST PUSH1 0x6 DUP2 ADD SLOAD PUSH3 0x10000 SWAP1 DIV PUSH1 0xFF AND ISZERO PUSH2 0xB36 JUMPI PUSH1 0x40 MLOAD PUSH3 0x461BCD PUSH1 0xE5 SHL DUP2 MSTORE PUSH1 0x20 PUSH1 0x4 DUP3 ADD MSTORE PUSH1 0x11 PUSH1 0x24 DUP3 ADD MSTORE PUSH17 0x105B1C9958591E481C1C9BD8D95CDCD959 PUSH1 0x7A SHL PUSH1 0x44 DUP3 ADD MSTORE PUSH1 0x64 ADD PUSH2 0x6A9 JUMP JUMPDEST PUSH3 0x2A300 DUP2 PUSH1 0x5 ADD SLOAD PUSH2 0xB49 SWAP2 SWAP1 PUSH2 0x2D14 JUMP JUMPDEST TIMESTAMP GT PUSH2 0xB97 JUMPI PUSH1 0x40 MLOAD PUSH3 0x461BCD PUSH1 0xE5 SHL DUP2 MSTORE PUSH1 0x20 PUSH1 0x4 DUP3 ADD MSTORE PUSH1 0x1E PUSH1 0x24 DUP3 ADD MSTORE PUSH32 0x436F6E6669726D6174696F6E2077696E646F77207374696C6C206F70656E0000 PUSH1 0x44 DUP3 ADD MSTORE PUSH1 0x64 ADD PUSH2 0x6A9 JUMP JUMPDEST PUSH0 PUSH1 0x64 DUP3 PUSH1 0x4 ADD SLOAD PUSH1 0xA PUSH2 0xBAB SWAP2 SWAP1 PUSH2 0x2D27 JUMP JUMPDEST PUSH2 0xBB5 SWAP2 SWAP1 PUSH2 0x2D3E JUMP JUMPDEST SWAP1 POP PUSH0 PUSH1 0x2 DUP3 DUP5 PUSH1 0x4 ADD SLOAD PUSH2 0xBCA SWAP2 SWAP1 PUSH2 0x2D5D JUMP JUMPDEST PUSH2 0xBD4 SWAP2 SWAP1 PUSH2 0x2D3E JUMP JUMPDEST PUSH1 0x6 DUP5 ADD DUP1 SLOAD PUSH3 0xFF0000 NOT AND PUSH3 0x10000 OR SWAP1 SSTORE PUSH0 SLOAD DUP5 SLOAD PUSH1 0x40 MLOAD PUSH4 0xA9059CBB PUSH1 0xE0 SHL DUP2 MSTORE PUSH1 0x1 PUSH1 0x1 PUSH1 0xA0 SHL SUB SWAP2 DUP3 AND PUSH1 0x4 DUP3 ADD MSTORE PUSH1 0x24 DUP2 ADD DUP5 SWAP1 MSTORE SWAP3 SWAP4 POP AND SWAP1 PUSH4 0xA9059CBB SWAP1 PUSH1 0x44 ADD PUSH1 0x20 PUSH1 0x40 MLOAD DUP1 DUP4 SUB DUP2 PUSH0 DUP8 GAS CALL ISZERO DUP1 ISZERO PUSH2 0xC39 JUMPI RETURNDATASIZE PUSH0 DUP1 RETURNDATACOPY RETURNDATASIZE PUSH0 REVERT JUMPDEST POP POP POP POP PUSH1 0x40 MLOAD RETURNDATASIZE PUSH1 0x1F NOT PUSH1 0x1F DUP3 ADD AND DUP3 ADD DUP1 PUSH1 0x40 MSTORE POP DUP2 ADD SWAP1 PUSH2 0xC5D SWAP2 SWAP1 PUSH2 0x2CF9 JUMP JUMPDEST PUSH2 0xCA9 JUMPI PUSH1 0x40 MLOAD PUSH3 0x461BCD PUSH1 0xE5 SHL DUP2 MSTORE PUSH1 0x20 PUSH1 0x4 DUP3 ADD MSTORE PUSH1 0x15 PUSH1 0x24 DUP3 ADD MSTORE PUSH32 0x5573657231207472616E73666572206661696C65640000000000000000000000 PUSH1 0x44 DUP3 ADD MSTORE PUSH1 0x64 ADD PUSH2 0x6A9 JUMP JUMPDEST PUSH0 SLOAD PUSH1 0x1 DUP5 ADD SLOAD PUSH1 0x40 MLOAD PUSH4 0xA9059CBB PUSH1 0xE0 SHL DUP2 MSTORE PUSH1 0x1 PUSH1 0x1 PUSH1 0xA0 SHL SUB SWAP2 DUP3 AND PUSH1 0x4 DUP3 ADD MSTORE PUSH1 0x24 DUP2 ADD DUP5 SWAP1 MSTORE SWAP2 AND SWAP1 PUSH4 0xA9059CBB SWAP1 PUSH1 0x44 ADD PUSH1 0x20 PUSH1 0x40 MLOAD DUP1 DUP4 SUB DUP2 PUSH0 DUP8 GAS CALL ISZERO DUP1 ISZERO PUSH2 0xCFC JUMPI RETURNDATASIZE PUSH0 DUP1 RETURNDATACOPY RETURNDATASIZE PUSH0 REVERT JUMPDEST POP POP POP POP PUSH1 0x40 MLOAD RETURNDATASIZE PUSH1 0x1F NOT PUSH1 0x1F DUP3 ADD AND DUP3 ADD DUP1 PUSH1 0x40 MSTORE POP DUP2 ADD SWAP1 PUSH2 0xD20 SWAP2 SWAP1 PUSH2 0x2CF9 JUMP JUMPDEST PUSH2 0xD6C JUMPI PUSH1 0x40 MLOAD PUSH3 0x461BCD PUSH1 0xE5 SHL DUP2 MSTORE PUSH1 0x20 PUSH1 0x4 DUP3 ADD MSTORE PUSH1 0x15 PUSH1 0x24 DUP3 ADD MSTORE PUSH32 0x5573657232207472616E73666572206661696C65640000000000000000000000 PUSH1 0x44 DUP3 ADD MSTORE PUSH1 0x64 ADD PUSH2 0x6A9 JUMP JUMPDEST PUSH0 SLOAD PUSH1 0x1 PUSH1 0x1 PUSH1 0xA0 SHL SUB AND PUSH4 0xA9059CBB PUSH2 0xDAD PUSH32 0x9016D09D72D40FDAE2FD8CEAC6B6234C7706214FD39C1CD1E609A0528C199300 SLOAD PUSH1 0x1 PUSH1 0x1 PUSH1 0xA0 SHL SUB AND SWAP1 JUMP JUMPDEST PUSH1 0x40 MLOAD PUSH32 0xFFFFFFFF00000000000000000000000000000000000000000000000000000000 PUSH1 0xE0 DUP5 SWAP1 SHL AND DUP2 MSTORE PUSH1 0x1 PUSH1 0x1 PUSH1 0xA0 SHL SUB SWAP1 SWAP2 AND PUSH1 0x4 DUP3 ADD MSTORE PUSH1 0x24 DUP2 ADD DUP6 SWAP1 MSTORE PUSH1 0x44 ADD PUSH1 0x20 PUSH1 0x40 MLOAD DUP1 DUP4 SUB DUP2 PUSH0 DUP8 GAS CALL ISZERO DUP1 ISZERO PUSH2 0xE0F JUMPI RETURNDATASIZE PUSH0 DUP1 RETURNDATACOPY RETURNDATASIZE PUSH0 REVERT JUMPDEST POP POP POP POP PUSH1 0x40 MLOAD RETURNDATASIZE PUSH1 0x1F NOT PUSH1 0x1F DUP3 ADD AND DUP3 ADD DUP1 PUSH1 0x40 MSTORE POP DUP2 ADD SWAP1 PUSH2 0xE33 SWAP2 SWAP1 PUSH2 0x2CF9 JUMP JUMPDEST PUSH2 0xE7F JUMPI PUSH1 0x40 MLOAD PUSH3 0x461BCD PUSH1 0xE5 SHL DUP2 MSTORE PUSH1 0x20 PUSH1 0x4 DUP3 ADD MSTORE PUSH1 0x13 PUSH1 0x24 DUP3 ADD MSTORE PUSH32 0x466565207472616E73666572206661696C656400000000000000000000000000 PUSH1 0x44 DUP3 ADD MSTORE PUSH1 0x64 ADD PUSH2 0x6A9 JUMP JUMPDEST PUSH1 0x40 DUP1 MLOAD DUP3 DUP2 MSTORE PUSH1 0x20 DUP2 ADD DUP4 SWAP1 MSTORE SWAP1 DUP2 ADD DUP4 SWAP1 MSTORE PUSH1 0x80 PUSH1 0x60 DUP3 ADD DUP2 SWAP1 MSTORE PUSH1 0x7 SWAP1 DUP3 ADD MSTORE PUSH32 0x74696D656F757400000000000000000000000000000000000000000000000000 PUSH1 0xA0 DUP3 ADD MSTORE DUP5 SWAP1 PUSH32 0xF46A7B5E78BDE6ACA13CBF04933204950FB860B4C1645ABDC8DBF2D067DC1786 SWAP1 PUSH1 0xC0 ADD PUSH1 0x40 MLOAD DUP1 SWAP2 SUB SWAP1 LOG2 POP POP POP PUSH2 0xF23 PUSH1 0x1 PUSH32 0x9B779B17422D0DF92223018B32B4D1FA46E071723D6817E2486D003BECC55F00 SSTORE JUMP JUMPDEST POP JUMP JUMPDEST PUSH2 0xF2E PUSH2 0x1B58 JUMP JUMPDEST PUSH0 DUP4 DUP2 MSTORE PUSH1 0x1 PUSH1 0x20 MSTORE PUSH1 0x40 SWAP1 KECCAK256 DUP1 SLOAD PUSH1 0x1 PUSH1 0x1 PUSH1 0xA0 SHL SUB AND CALLER EQ DUP1 PUSH2 0xF5F JUMPI POP PUSH1 0x1 DUP2 ADD SLOAD PUSH1 0x1 PUSH1 0x1 PUSH1 0xA0 SHL SUB AND CALLER EQ JUMPDEST PUSH2 0xFAB JUMPI PUSH1 0x40 MLOAD PUSH3 0x461BCD PUSH1 0xE5 SHL DUP2 MSTORE PUSH1 0x20 PUSH1 0x4 DUP3 ADD MSTORE PUSH1 0x11 PUSH1 0x24 DUP3 ADD MSTORE PUSH32 0x4E6F742061207061727469636970616E74000000000000000000000000000000 PUSH1 0x44 DUP3 ADD MSTORE PUSH1 0x64 ADD PUSH2 0x6A9 JUMP JUMPDEST PUSH1 0x6 DUP2 ADD SLOAD PUSH1 0xFF AND DUP1 ISZERO PUSH2 0xFC8 JUMPI POP PUSH1 0x6 DUP2 ADD SLOAD PUSH2 0x100 SWAP1 DIV PUSH1 0xFF AND JUMPDEST PUSH2 0x1014 JUMPI PUSH1 0x40 MLOAD PUSH3 0x461BCD PUSH1 0xE5 SHL DUP2 MSTORE PUSH1 0x20 PUSH1 0x4 DUP3 ADD MSTORE PUSH1 0x12 PUSH1 0x24 DUP3 ADD MSTORE PUSH32 0x5374616B65206E6F7420636F6D706C6574650000000000000000000000000000 PUSH1 0x44 DUP3 ADD MSTORE PUSH1 0x64 ADD PUSH2 0x6A9 JUMP JUMPDEST PUSH1 0x6 DUP2 ADD SLOAD PUSH3 0x10000 SWAP1 DIV PUSH1 0xFF AND ISZERO PUSH2 0x1063 JUMPI PUSH1 0x40 MLOAD PUSH3 0x461BCD PUSH1 0xE5 SHL DUP2 MSTORE PUSH1 0x20 PUSH1 0x4 DUP3 ADD MSTORE PUSH1 0x11 PUSH1 0x24 DUP3 ADD MSTORE PUSH17 0x105B1C9958591E481C1C9BD8D95CDCD959 PUSH1 0x7A SHL PUSH1 0x44 DUP3 ADD MSTORE PUSH1 0x64 ADD PUSH2 0x6A9 JUMP JUMPDEST DUP1 PUSH1 0x5 ADD SLOAD TIMESTAMP LT ISZERO PUSH2 0x10B7 JUMPI PUSH1 0x40 MLOAD PUSH3 0x461BCD PUSH1 0xE5 SHL DUP2 MSTORE PUSH1 0x20 PUSH1 0x4 DUP3 ADD MSTORE PUSH1 0x1B PUSH1 0x24 DUP3 ADD MSTORE PUSH32 0x4D656574696E67206861736E2774206F63637572726564207965740000000000 PUSH1 0x44 DUP3 ADD MSTORE PUSH1 0x64 ADD PUSH2 0x6A9 JUMP JUMPDEST PUSH3 0x2A300 DUP2 PUSH1 0x5 ADD SLOAD PUSH2 0x10CA SWAP2 SWAP1 PUSH2 0x2D14 JUMP JUMPDEST TIMESTAMP GT ISZERO PUSH2 0x1119 JUMPI PUSH1 0x40 MLOAD PUSH3 0x461BCD PUSH1 0xE5 SHL DUP2 MSTORE PUSH1 0x20 PUSH1 0x4 DUP3 ADD MSTORE PUSH1 0x1A PUSH1 0x24 DUP3 ADD MSTORE PUSH32 0x436F6E6669726D6174696F6E2077696E646F7720636C6F736564000000000000 PUSH1 0x44 DUP3 ADD MSTORE PUSH1 0x64 ADD PUSH2 0x6A9 JUMP JUMPDEST PUSH0 DUP5 DUP2 MSTORE PUSH1 0x2 PUSH1 0x20 SWAP1 DUP2 MSTORE PUSH1 0x40 DUP1 DUP4 KECCAK256 CALLER DUP5 MSTORE SWAP1 SWAP2 MSTORE SWAP1 KECCAK256 SLOAD PUSH1 0xFF AND ISZERO PUSH2 0x1182 JUMPI PUSH1 0x40 MLOAD PUSH3 0x461BCD PUSH1 0xE5 SHL DUP2 MSTORE PUSH1 0x20 PUSH1 0x4 DUP3 ADD MSTORE PUSH1 0x11 PUSH1 0x24 DUP3 ADD MSTORE PUSH32 0x416C726561647920636F6E6669726D6564000000000000000000000000000000 PUSH1 0x44 DUP3 ADD MSTORE PUSH1 0x64 ADD PUSH2 0x6A9 JUMP JUMPDEST PUSH1 0x40 DUP1 MLOAD PUSH1 0x60 DUP2 ADD DUP3 MSTORE PUSH1 0x1 DUP2 MSTORE DUP5 ISZERO ISZERO PUSH1 0x20 DUP1 DUP4 ADD SWAP2 DUP3 MSTORE DUP6 ISZERO ISZERO DUP4 DUP6 ADD SWAP1 DUP2 MSTORE PUSH0 DUP10 DUP2 MSTORE PUSH1 0x2 DUP4 MSTORE DUP6 DUP2 KECCAK256 CALLER DUP1 DUP4 MSTORE SWAP4 MSTORE DUP6 SWAP1 KECCAK256 SWAP4 MLOAD DUP5 SLOAD SWAP4 MLOAD SWAP2 MLOAD ISZERO ISZERO PUSH3 0x10000 MUL PUSH3 0xFF0000 NOT SWAP3 ISZERO ISZERO PUSH2 0x100 MUL PUSH2 0xFF00 NOT SWAP3 ISZERO ISZERO SWAP3 SWAP1 SWAP3 AND PUSH2 0xFFFF NOT SWAP1 SWAP6 AND SWAP5 SWAP1 SWAP5 OR OR AND SWAP2 SWAP1 SWAP2 OR SWAP1 SWAP2 SSTORE SWAP1 MLOAD DUP6 SWAP1 PUSH32 0xC3F614FC872697FB99DF5635708F7FB73E68AF9E9E89A3FFC09206BB002501E1 SWAP1 PUSH2 0x1232 SWAP1 DUP8 SWAP1 DUP8 SWAP1 SWAP2 ISZERO ISZERO DUP3 MSTORE ISZERO ISZERO PUSH1 0x20 DUP3 ADD MSTORE PUSH1 0x40 ADD SWAP1 JUMP JUMPDEST PUSH1 0x40 MLOAD DUP1 SWAP2 SUB SWAP1 LOG3 DUP1 SLOAD PUSH0 SWAP1 PUSH1 0x1 PUSH1 0x1 PUSH1 0xA0 SHL SUB AND CALLER EQ PUSH2 0x125D JUMPI DUP2 SLOAD PUSH1 0x1 PUSH1 0x1 PUSH1 0xA0 SHL SUB AND PUSH2 0x126C JUMP JUMPDEST PUSH1 0x1 DUP3 ADD SLOAD PUSH1 0x1 PUSH1 0x1 PUSH1 0xA0 SHL SUB AND JUMPDEST PUSH0 DUP7 DUP2 MSTORE PUSH1 0x2 PUSH1 0x20 SWAP1 DUP2 MSTORE PUSH1 0x40 DUP1 DUP4 KECCAK256 PUSH1 0x1 PUSH1 0x1 PUSH1 0xA0 SHL SUB DUP6 AND DUP5 MSTORE SWAP1 SWAP2 MSTORE SWAP1 KECCAK256 SLOAD SWAP1 SWAP2 POP PUSH1 0xFF AND ISZERO PUSH2 0x12A2 JUMPI PUSH2 0x12A2 DUP6 PUSH2 0x1BE1 JUMP JUMPDEST POP POP PUSH2 0x12CD PUSH1 0x1 PUSH32 0x9B779B17422D0DF92223018B32B4D1FA46E071723D6817E2486D003BECC55F00 SSTORE JUMP JUMPDEST POP POP POP JUMP JUMPDEST PUSH2 0x12DA PUSH2 0x243B JUMP JUMPDEST PUSH2 0x12E3 DUP3 PUSH2 0x24F2 JUMP JUMPDEST PUSH2 0x12ED DUP3 DUP3 PUSH2 0x24FA JUMP JUMPDEST POP POP JUMP JUMPDEST PUSH0 PUSH2 0x12FA PUSH2 0x25E2 JUMP JUMPDEST POP PUSH32 0x360894A13BA1A3210667C828492DB98DCA3E2076CC3735A920A3CA505D382BBC SWAP1 JUMP JUMPDEST PUSH2 0x1327 PUSH2 0x262B JUMP JUMPDEST PUSH2 0x1330 PUSH0 PUSH2 0x269F JUMP JUMPDEST JUMP JUMPDEST PUSH2 0x133A PUSH2 0x1B58 JUMP JUMPDEST PUSH0 DUP2 DUP2 MSTORE PUSH1 0x1 PUSH1 0x20 DUP2 SWAP1 MSTORE PUSH1 0x40 SWAP1 SWAP2 KECCAK256 SWAP1 DUP2 ADD SLOAD PUSH1 0x1 PUSH1 0x1 PUSH1 0xA0 SHL SUB AND CALLER EQ PUSH2 0x13A5 JUMPI PUSH1 0x40 MLOAD PUSH3 0x461BCD PUSH1 0xE5 SHL DUP2 MSTORE PUSH1 0x20 PUSH1 0x4 DUP3 ADD MSTORE PUSH1 0x14 PUSH1 0x24 DUP3 ADD MSTORE PUSH32 0x4E6F7420746865206D6174636865642075736572000000000000000000000000 PUSH1 0x44 DUP3 ADD MSTORE PUSH1 0x64 ADD PUSH2 0x6A9 JUMP JUMPDEST PUSH1 0x6 DUP2 ADD SLOAD PUSH1 0xFF AND PUSH2 0x13F9 JUMPI PUSH1 0x40 MLOAD PUSH3 0x461BCD PUSH1 0xE5 SHL DUP2 MSTORE PUSH1 0x20 PUSH1 0x4 DUP3 ADD MSTORE PUSH1 0x11 PUSH1 0x24 DUP3 ADD MSTORE PUSH32 0x5374616B65206E6F742063726561746564000000000000000000000000000000 PUSH1 0x44 DUP3 ADD MSTORE PUSH1 0x64 ADD PUSH2 0x6A9 JUMP JUMPDEST PUSH1 0x6 DUP2 ADD SLOAD PUSH2 0x100 SWAP1 DIV PUSH1 0xFF AND ISZERO PUSH2 0x1453 JUMPI PUSH1 0x40 MLOAD PUSH3 0x461BCD PUSH1 0xE5 SHL DUP2 MSTORE PUSH1 0x20 PUSH1 0x4 DUP3 ADD MSTORE PUSH1 0x10 PUSH1 0x24 DUP3 ADD MSTORE PUSH32 0x416C726561647920616363657074656400000000000000000000000000000000 PUSH1 0x44 DUP3 ADD MSTORE PUSH1 0x64 ADD PUSH2 0x6A9 JUMP JUMPDEST PUSH1 0x6 DUP2 ADD SLOAD PUSH3 0x10000 SWAP1 DIV PUSH1 0xFF AND ISZERO PUSH2 0x14A2 JUMPI PUSH1 0x40 MLOAD PUSH3 0x461BCD PUSH1 0xE5 SHL DUP2 MSTORE PUSH1 0x20 PUSH1 0x4 DUP3 ADD MSTORE PUSH1 0x11 PUSH1 0x24 DUP3 ADD MSTORE PUSH17 0x105B1C9958591E481C1C9BD8D95CDCD959 PUSH1 0x7A SHL PUSH1 0x44 DUP3 ADD MSTORE PUSH1 0x64 ADD PUSH2 0x6A9 JUMP JUMPDEST DUP1 PUSH1 0x5 ADD SLOAD TIMESTAMP LT PUSH2 0x14F5 JUMPI PUSH1 0x40 MLOAD PUSH3 0x461BCD PUSH1 0xE5 SHL DUP2 MSTORE PUSH1 0x20 PUSH1 0x4 DUP3 ADD MSTORE PUSH1 0x13 PUSH1 0x24 DUP3 ADD MSTORE PUSH32 0x4D656574696E672074696D652070617373656400000000000000000000000000 PUSH1 0x44 DUP3 ADD MSTORE PUSH1 0x64 ADD PUSH2 0x6A9 JUMP JUMPDEST PUSH1 0x2 DUP2 ADD SLOAD PUSH0 SLOAD PUSH1 0x40 MLOAD PUSH4 0x23B872DD PUSH1 0xE0 SHL DUP2 MSTORE CALLER PUSH1 0x4 DUP3 ADD MSTORE ADDRESS PUSH1 0x24 DUP3 ADD MSTORE PUSH1 0x44 DUP2 ADD DUP4 SWAP1 MSTORE PUSH1 0x1 PUSH1 0x1 PUSH1 0xA0 SHL SUB SWAP1 SWAP2 AND SWAP1 PUSH4 0x23B872DD SWAP1 PUSH1 0x64 ADD PUSH1 0x20 PUSH1 0x40 MLOAD DUP1 DUP4 SUB DUP2 PUSH0 DUP8 GAS CALL ISZERO DUP1 ISZERO PUSH2 0x154D JUMPI RETURNDATASIZE PUSH0 DUP1 RETURNDATACOPY RETURNDATASIZE PUSH0 REVERT JUMPDEST POP POP POP POP PUSH1 0x40 MLOAD RETURNDATASIZE PUSH1 0x1F NOT PUSH1 0x1F DUP3 ADD AND DUP3 ADD DUP1 PUSH1 0x40 MSTORE POP DUP2 ADD SWAP1 PUSH2 0x1571 SWAP2 SWAP1 PUSH2 0x2CF9 JUMP JUMPDEST PUSH2 0x15BD JUMPI PUSH1 0x40 MLOAD PUSH3 0x461BCD PUSH1 0xE5 SHL DUP2 MSTORE PUSH1 0x20 PUSH1 0x4 DUP3 ADD MSTORE PUSH1 0xF PUSH1 0x24 DUP3 ADD MSTORE PUSH32 0x5472616E73666572206661696C65640000000000000000000000000000000000 PUSH1 0x44 DUP3 ADD MSTORE PUSH1 0x64 ADD PUSH2 0x6A9 JUMP JUMPDEST PUSH1 0x3 DUP3 ADD DUP2 SWAP1 SSTORE PUSH1 0x6 DUP3 ADD DUP1 SLOAD PUSH2 0xFF00 NOT AND PUSH2 0x100 OR SWAP1 SSTORE PUSH1 0x2 DUP3 ADD SLOAD PUSH2 0x15E5 SWAP1 DUP3 SWAP1 PUSH2 0x2D14 JUMP JUMPDEST PUSH1 0x4 DUP4 ADD SSTORE PUSH1 0x40 MLOAD DUP2 DUP2 MSTORE CALLER SWAP1 DUP5 SWAP1 PUSH32 0xAF84B9A32C98BE0E06D5F11733FED35E270C58D34C6986070B6F05D3CD939977 SWAP1 PUSH1 0x20 ADD PUSH1 0x40 MLOAD DUP1 SWAP2 SUB SWAP1 LOG3 POP POP PUSH2 0xF23 PUSH1 0x1 PUSH32 0x9B779B17422D0DF92223018B32B4D1FA46E071723D6817E2486D003BECC55F00 SSTORE JUMP JUMPDEST PUSH0 PUSH2 0x1655 PUSH2 0x271C JUMP JUMPDEST DUP1 SLOAD SWAP1 SWAP2 POP PUSH1 0xFF PUSH9 0x10000000000000000 DUP3 DIV AND ISZERO SWAP1 PUSH8 0xFFFFFFFFFFFFFFFF AND PUSH0 DUP2 ISZERO DUP1 ISZERO PUSH2 0x1681 JUMPI POP DUP3 JUMPDEST SWAP1 POP PUSH0 DUP3 PUSH8 0xFFFFFFFFFFFFFFFF AND PUSH1 0x1 EQ DUP1 ISZERO PUSH2 0x169D JUMPI POP ADDRESS EXTCODESIZE ISZERO JUMPDEST SWAP1 POP DUP2 ISZERO DUP1 ISZERO PUSH2 0x16AB JUMPI POP DUP1 ISZERO JUMPDEST ISZERO PUSH2 0x16E2 JUMPI PUSH1 0x40 MLOAD PUSH32 0xF92EE8A900000000000000000000000000000000000000000000000000000000 DUP2 MSTORE PUSH1 0x4 ADD PUSH1 0x40 MLOAD DUP1 SWAP2 SUB SWAP1 REVERT JUMPDEST DUP5 SLOAD PUSH8 0xFFFFFFFFFFFFFFFF NOT AND PUSH1 0x1 OR DUP6 SSTORE DUP4 ISZERO PUSH2 0x1716 JUMPI DUP5 SLOAD PUSH9 0xFF0000000000000000 NOT AND PUSH9 0x10000000000000000 OR DUP6 SSTORE JUMPDEST PUSH2 0x171F CALLER PUSH2 0x2744 JUMP JUMPDEST PUSH2 0x1727 PUSH2 0x2755 JUMP JUMPDEST PUSH2 0x172F PUSH2 0x275D JUMP JUMPDEST PUSH0 DUP1 SLOAD PUSH20 0xFFFFFFFFFFFFFFFFFFFFFFFFFFFFFFFFFFFFFFFF NOT AND PUSH1 0x1 PUSH1 0x1 PUSH1 0xA0 SHL SUB DUP9 AND OR SWAP1 SSTORE DUP4 ISZERO PUSH2 0x17A1 JUMPI DUP5 SLOAD PUSH9 0xFF0000000000000000 NOT AND DUP6 SSTORE PUSH1 0x40 MLOAD PUSH1 0x1 DUP2 MSTORE PUSH32 0xC7F505B2F371AE2175EE4913F4499E1F2633A7B5936321EED1CDAEB6115181D2 SWAP1 PUSH1 0x20 ADD PUSH1 0x40 MLOAD DUP1 SWAP2 SUB SWAP1 LOG1 JUMPDEST POP POP POP POP POP POP JUMP JUMPDEST PUSH1 0x40 DUP1 MLOAD PUSH1 0x60 DUP1 DUP3 ADD DUP4 MSTORE PUSH0 DUP1 DUP4 MSTORE PUSH1 0x20 DUP1 DUP5 ADD DUP3 SWAP1 MSTORE SWAP3 DUP5 ADD DUP2 SWAP1 MSTORE DUP6 DUP2 MSTORE PUSH1 0x2 DUP4 MSTORE DUP4 DUP2 KECCAK256 PUSH1 0x1 PUSH1 0x1 PUSH1 0xA0 SHL SUB DUP7 AND DUP3 MSTORE DUP4 MSTORE DUP4 SWAP1 KECCAK256 DUP4 MLOAD SWAP2 DUP3 ADD DUP5 MSTORE SLOAD PUSH1 0xFF DUP1 DUP3 AND ISZERO ISZERO DUP4 MSTORE PUSH2 0x100 DUP3 DIV DUP2 AND ISZERO ISZERO SWAP4 DUP4 ADD SWAP4 SWAP1 SWAP4 MSTORE PUSH3 0x10000 SWAP1 DIV SWAP1 SWAP2 AND ISZERO ISZERO SWAP2 DUP2 ADD SWAP2 SWAP1 SWAP2 MSTORE JUMPDEST SWAP3 SWAP2 POP POP JUMP JUMPDEST PUSH2 0x1823 PUSH2 0x1B58 JUMP JUMPDEST PUSH0 DUP2 DUP2 MSTORE PUSH1 0x1 PUSH1 0x20 MSTORE PUSH1 0x40 SWAP1 KECCAK256 DUP1 SLOAD PUSH1 0x1 PUSH1 0x1 PUSH1 0xA0 SHL SUB AND CALLER EQ PUSH2 0x1889 JUMPI PUSH1 0x40 MLOAD PUSH3 0x461BCD PUSH1 0xE5 SHL DUP2 MSTORE PUSH1 0x20 PUSH1 0x4 DUP3 ADD MSTORE PUSH1 0x17 PUSH1 0x24 DUP3 ADD MSTORE PUSH32 0x4F6E6C792063726561746F722063616E2063616E63656C000000000000000000 PUSH1 0x44 DUP3 ADD MSTORE PUSH1 0x64 ADD PUSH2 0x6A9 JUMP JUMPDEST PUSH1 0x6 DUP2 ADD SLOAD PUSH1 0xFF AND PUSH2 0x18DD JUMPI PUSH1 0x40 MLOAD PUSH3 0x461BCD PUSH1 0xE5 SHL DUP2 MSTORE PUSH1 0x20 PUSH1 0x4 DUP3 ADD MSTORE PUSH1 0x11 PUSH1 0x24 DUP3 ADD MSTORE PUSH32 0x5374616B65206E6F742063726561746564000000000000000000000000000000 PUSH1 0x44 DUP3 ADD MSTORE PUSH1 0x64 ADD PUSH2 0x6A9 JUMP JUMPDEST PUSH1 0x6 DUP2 ADD SLOAD PUSH2 0x100 SWAP1 DIV PUSH1 0xFF AND ISZERO PUSH2 0x1937 JUMPI PUSH1 0x40 MLOAD PUSH3 0x461BCD PUSH1 0xE5 SHL DUP2 MSTORE PUSH1 0x20 PUSH1 0x4 DUP3 ADD MSTORE PUSH1 0x10 PUSH1 0x24 DUP3 ADD MSTORE PUSH32 0x416C726561647920616363657074656400000000000000000000000000000000 PUSH1 0x44 DUP3 ADD MSTORE PUSH1 0x64 ADD PUSH2 0x6A9 JUMP JUMPDEST PUSH1 0x6 DUP2 ADD SLOAD PUSH3 0x10000 SWAP1 DIV PUSH1 0xFF AND ISZERO PUSH2 0x1986 JUMPI PUSH1 0x40 MLOAD PUSH3 0x461BCD PUSH1 0xE5 SHL DUP2 MSTORE PUSH1 0x20 PUSH1 0x4 DUP3 ADD MSTORE PUSH1 0x11 PUSH1 0x24 DUP3 ADD MSTORE PUSH17 0x105B1C9958591E481C1C9BD8D95CDCD959 PUSH1 0x7A SHL PUSH1 0x44 DUP3 ADD MSTORE PUSH1 0x64 ADD PUSH2 0x6A9 JUMP JUMPDEST PUSH1 0x6 DUP2 ADD DUP1 SLOAD PUSH3 0xFF0000 NOT AND PUSH3 0x10000 OR SWAP1 SSTORE PUSH0 SLOAD DUP2 SLOAD PUSH1 0x2 DUP4 ADD SLOAD PUSH1 0x40 MLOAD PUSH4 0xA9059CBB PUSH1 0xE0 SHL DUP2 MSTORE PUSH1 0x1 PUSH1 0x1 PUSH1 0xA0 SHL SUB SWAP3 DUP4 AND PUSH1 0x4 DUP3 ADD MSTORE PUSH1 0x24 DUP2 ADD SWAP2 SWAP1 SWAP2 MSTORE SWAP2 AND SWAP1 PUSH4 0xA9059CBB SWAP1 PUSH1 0x44 ADD PUSH1 0x20 PUSH1 0x40 MLOAD DUP1 DUP4 SUB DUP2 PUSH0 DUP8 GAS CALL ISZERO DUP1 ISZERO PUSH2 0x19EF JUMPI RETURNDATASIZE PUSH0 DUP1 RETURNDATACOPY RETURNDATASIZE PUSH0 REVERT JUMPDEST POP POP POP POP PUSH1 0x40 MLOAD RETURNDATASIZE PUSH1 0x1F NOT PUSH1 0x1F DUP3 ADD AND DUP3 ADD DUP1 PUSH1 0x40 MSTORE POP DUP2 ADD SWAP1 PUSH2 0x1A13 SWAP2 SWAP1 PUSH2 0x2CF9 JUMP JUMPDEST PUSH2 0x1A5F JUMPI PUSH1 0x40 MLOAD PUSH3 0x461BCD PUSH1 0xE5 SHL DUP2 MSTORE PUSH1 0x20 PUSH1 0x4 DUP3 ADD MSTORE PUSH1 0xD PUSH1 0x24 DUP3 ADD MSTORE PUSH32 0x526566756E64206661696C656400000000000000000000000000000000000000 PUSH1 0x44 DUP3 ADD MSTORE PUSH1 0x64 ADD PUSH2 0x6A9 JUMP JUMPDEST PUSH1 0x2 DUP2 ADD SLOAD PUSH1 0x40 DUP1 MLOAD SWAP2 DUP3 MSTORE PUSH0 PUSH1 0x20 DUP4 ADD DUP2 SWAP1 MSTORE SWAP1 DUP3 ADD MSTORE PUSH1 0x80 PUSH1 0x60 DUP3 ADD DUP2 SWAP1 MSTORE PUSH1 0x9 SWAP1 DUP3 ADD MSTORE PUSH32 0x63616E63656C6C65640000000000000000000000000000000000000000000000 PUSH1 0xA0 DUP3 ADD MSTORE DUP3 SWAP1 PUSH32 0xF46A7B5E78BDE6ACA13CBF04933204950FB860B4C1645ABDC8DBF2D067DC1786 SWAP1 PUSH1 0xC0 ADD PUSH1 0x40 MLOAD DUP1 SWAP2 SUB SWAP1 LOG2 POP PUSH2 0xF23 PUSH1 0x1 PUSH32 0x9B779B17422D0DF92223018B32B4D1FA46E071723D6817E2486D003BECC55F00 SSTORE JUMP JUMPDEST PUSH2 0x1B0D PUSH2 0x262B JUMP JUMPDEST PUSH1 0x1 PUSH1 0x1 PUSH1 0xA0 SHL SUB DUP2 AND PUSH2 0x1B4F JUMPI PUSH1 0x40 MLOAD PUSH32 0x1E4FBDF700000000000000000000000000000000000000000000000000000000 DUP2 MSTORE PUSH0 PUSH1 0x4 DUP3 ADD MSTORE PUSH1 0x24 ADD PUSH2 0x6A9 JUMP JUMPDEST PUSH2 0xF23 DUP2 PUSH2 0x269F JUMP JUMPDEST PUSH32 0x9B779B17422D0DF92223018B32B4D1FA46E071723D6817E2486D003BECC55F00 DUP1 SLOAD PUSH1 0x1 NOT ADD PUSH2 0x1BB5 JUMPI PUSH1 0x40 MLOAD PUSH32 0x3EE5AEB500000000000000000000000000000000000000000000000000000000 DUP2 MSTORE PUSH1 0x4 ADD PUSH1 0x40 MLOAD DUP1 SWAP2 SUB SWAP1 REVERT JUMPDEST PUSH1 0x2 SWAP1 SSTORE JUMP JUMPDEST PUSH1 0x1 PUSH32 0x9B779B17422D0DF92223018B32B4D1FA46E071723D6817E2486D003BECC55F00 SSTORE JUMP JUMPDEST PUSH0 DUP2 DUP2 MSTORE PUSH1 0x1 PUSH1 0x20 DUP2 DUP2 MSTORE PUSH1 0x40 DUP1 DUP5 KECCAK256 PUSH1 0x2 DUP4 MSTORE DUP2 DUP6 KECCAK256 DUP2 SLOAD PUSH1 0x1 PUSH1 0x1 PUSH1 0xA0 SHL SUB SWAP1 DUP2 AND DUP8 MSTORE DUP2 DUP6 MSTORE DUP4 DUP8 KECCAK256 DUP5 MLOAD PUSH1 0x60 DUP1 DUP3 ADD DUP8 MSTORE SWAP2 SLOAD PUSH1 0xFF DUP1 DUP3 AND ISZERO ISZERO DUP4 MSTORE PUSH2 0x100 DUP1 DUP4 DIV DUP3 AND ISZERO ISZERO DUP5 DUP12 ADD SWAP1 DUP2 MSTORE PUSH3 0x10000 SWAP4 DUP5 SWAP1 DIV DUP4 AND ISZERO ISZERO DUP6 DUP12 ADD MSTORE SWAP11 DUP9 ADD SLOAD SWAP1 SWAP6 AND DUP12 MSTORE SWAP5 DUP9 MSTORE DUP7 DUP11 KECCAK256 DUP8 MLOAD DUP1 DUP6 ADD DUP10 MSTORE SWAP1 SLOAD DUP1 DUP8 AND ISZERO ISZERO DUP3 MSTORE SWAP5 DUP6 DIV DUP7 AND ISZERO ISZERO SWAP9 DUP2 ADD SWAP9 SWAP1 SWAP9 MSTORE SWAP1 SWAP3 DIV SWAP1 SWAP3 AND ISZERO ISZERO SWAP4 DUP6 ADD SWAP4 SWAP1 SWAP4 MSTORE SWAP4 MLOAD SWAP1 SWAP5 SWAP2 SWAP4 DUP3 SWAP2 DUP3 SWAP2 SWAP1 DUP1 ISZERO PUSH2 0x1C95 JUMPI POP DUP6 PUSH1 0x40 ADD MLOAD JUMPDEST DUP1 ISZERO PUSH2 0x1CA2 JUMPI POP DUP5 PUSH1 0x20 ADD MLOAD JUMPDEST DUP1 ISZERO PUSH2 0x1CAF JUMPI POP DUP5 PUSH1 0x40 ADD MLOAD JUMPDEST ISZERO PUSH2 0x1D33 JUMPI PUSH1 0x64 PUSH1 0x5 DUP9 PUSH1 0x4 ADD SLOAD PUSH2 0x1CC7 SWAP2 SWAP1 PUSH2 0x2D27 JUMP JUMPDEST PUSH2 0x1CD1 SWAP2 SWAP1 PUSH2 0x2D3E JUMP JUMPDEST SWAP2 POP PUSH0 PUSH1 0x2 DUP4 DUP10 PUSH1 0x4 ADD SLOAD PUSH2 0x1CE6 SWAP2 SWAP1 PUSH2 0x2D5D JUMP JUMPDEST PUSH2 0x1CF0 SWAP2 SWAP1 PUSH2 0x2D3E JUMP JUMPDEST PUSH1 0x40 DUP1 MLOAD DUP1 DUP3 ADD SWAP1 SWAP2 MSTORE PUSH1 0xB DUP2 MSTORE PUSH32 0x626F74685F73686F776564000000000000000000000000000000000000000000 PUSH1 0x20 DUP3 ADD MSTORE SWAP1 SWAP6 POP DUP6 SWAP5 POP SWAP2 POP PUSH2 0x2138 SWAP1 POP JUMP JUMPDEST DUP6 PUSH1 0x20 ADD MLOAD DUP1 ISZERO PUSH2 0x1D46 JUMPI POP DUP6 PUSH1 0x40 ADD MLOAD ISZERO JUMPDEST DUP1 ISZERO PUSH2 0x1D54 JUMPI POP DUP5 PUSH1 0x20 ADD MLOAD ISZERO JUMPDEST DUP1 ISZERO PUSH2 0x1D61 JUMPI POP DUP5 PUSH1 0x40 ADD MLOAD JUMPDEST ISZERO PUSH2 0x1E39 JUMPI PUSH1 0x64 PUSH1 0x14 DUP9 PUSH1 0x3 ADD SLOAD PUSH2 0x1D79 SWAP2 SWAP1 PUSH2 0x2D27 JUMP JUMPDEST PUSH2 0x1D83 SWAP2 SWAP1 PUSH2 0x2D3E JUMP JUMPDEST SWAP3 POP PUSH0 PUSH1 0x2 DUP9 PUSH1 0x3 ADD SLOAD PUSH2 0x1D97 SWAP2 SWAP1 PUSH2 0x2D3E JUMP JUMPDEST SWAP1 POP PUSH0 DUP2 DUP10 PUSH1 0x2 ADD SLOAD PUSH2 0x1DAA SWAP2 SWAP1 PUSH2 0x2D14 JUMP JUMPDEST SWAP1 POP PUSH0 PUSH1 0x64 PUSH2 0x1DBA PUSH1 0x5 DUP5 PUSH2 0x2D27 JUMP JUMPDEST PUSH2 0x1DC4 SWAP2 SWAP1 PUSH2 0x2D3E JUMP JUMPDEST SWAP1 POP PUSH2 0x1DD0 DUP2 DUP4 PUSH2 0x2D5D JUMP JUMPDEST SWAP7 POP DUP6 DUP8 DUP12 PUSH1 0x4 ADD SLOAD PUSH2 0x1DE3 SWAP2 SWAP1 PUSH2 0x2D5D JUMP JUMPDEST PUSH2 0x1DED SWAP2 SWAP1 PUSH2 0x2D5D JUMP JUMPDEST PUSH2 0x1DF7 SWAP1 DUP3 PUSH2 0x2D14 JUMP JUMPDEST SWAP5 POP PUSH1 0x40 MLOAD DUP1 PUSH1 0x40 ADD PUSH1 0x40 MSTORE DUP1 PUSH1 0xC DUP2 MSTORE PUSH1 0x20 ADD PUSH32 0x75736572315F73686F7765640000000000000000000000000000000000000000 DUP2 MSTORE POP SWAP4 POP POP POP POP PUSH2 0x2138 JUMP JUMPDEST DUP6 PUSH1 0x20 ADD MLOAD ISZERO DUP1 ISZERO PUSH2 0x1E4C JUMPI POP DUP6 PUSH1 0x40 ADD MLOAD JUMPDEST DUP1 ISZERO PUSH2 0x1E59 JUMPI POP DUP5 PUSH1 0x20 ADD MLOAD JUMPDEST DUP1 ISZERO PUSH2 0x1E67 JUMPI POP DUP5 PUSH1 0x40 ADD MLOAD ISZERO JUMPDEST ISZERO PUSH2 0x1F3F JUMPI PUSH1 0x64 PUSH1 0x14 DUP9 PUSH1 0x2 ADD SLOAD PUSH2 0x1E7F SWAP2 SWAP1 PUSH2 0x2D27 JUMP JUMPDEST PUSH2 0x1E89 SWAP2 SWAP1 PUSH2 0x2D3E JUMP JUMPDEST SWAP4 POP PUSH0 PUSH1 0x2 DUP9 PUSH1 0x2 ADD SLOAD PUSH2 0x1E9D SWAP2 SWAP1 PUSH2 0x2D3E JUMP JUMPDEST SWAP1 POP PUSH0 DUP2 DUP10 PUSH1 0x3 ADD SLOAD PUSH2 0x1EB0 SWAP2 SWAP1 PUSH2 0x2D14 JUMP JUMPDEST SWAP1 POP PUSH0 PUSH1 0x64 PUSH2 0x1EC0 PUSH1 0x5 DUP5 PUSH2 0x2D27 JUMP JUMPDEST PUSH2 0x1ECA SWAP2 SWAP1 PUSH2 0x2D3E JUMP JUMPDEST SWAP1 POP PUSH2 0x1ED6 DUP2 DUP4 PUSH2 0x2D5D JUMP JUMPDEST SWAP6 POP DUP6 DUP8 DUP12 PUSH1 0x4 ADD SLOAD PUSH2 0x1EE9 SWAP2 SWAP1 PUSH2 0x2D5D JUMP JUMPDEST PUSH2 0x1EF3 SWAP2 SWAP1 PUSH2 0x2D5D JUMP JUMPDEST PUSH2 0x1EFD SWAP1 DUP3 PUSH2 0x2D14 JUMP JUMPDEST SWAP5 POP PUSH1 0x40 MLOAD DUP1 PUSH1 0x40 ADD PUSH1 0x40 MSTORE DUP1 PUSH1 0xC DUP2 MSTORE PUSH1 0x20 ADD PUSH32 0x75736572325F73686F7765640000000000000000000000000000000000000000 DUP2 MSTORE POP SWAP4 POP POP POP POP PUSH2 0x2138 JUMP JUMPDEST DUP6 PUSH1 0x20 ADD MLOAD ISZERO DUP1 ISZERO PUSH2 0x1F53 JUMPI POP DUP5 PUSH1 0x20 ADD MLOAD ISZERO JUMPDEST DUP1 ISZERO PUSH2 0x1F61 JUMPI POP DUP6 PUSH1 0x40 ADD MLOAD ISZERO JUMPDEST DUP1 ISZERO PUSH2 0x1F6F JUMPI POP DUP5 PUSH1 0x40 ADD MLOAD ISZERO JUMPDEST ISZERO PUSH2 0x200C JUMPI PUSH1 0x64 PUSH1 0x14 DUP9 PUSH1 0x2 ADD SLOAD PUSH2 0x1F87 SWAP2 SWAP1 PUSH2 0x2D27 JUMP JUMPDEST PUSH2 0x1F91 SWAP2 SWAP1 PUSH2 0x2D3E JUMP JUMPDEST SWAP4 POP PUSH1 0x64 PUSH1 0x14 DUP9 PUSH1 0x3 ADD SLOAD PUSH2 0x1FA6 SWAP2 SWAP1 PUSH2 0x2D27 JUMP JUMPDEST PUSH2 0x1FB0 SWAP2 SWAP1 PUSH2 0x2D3E JUMP JUMPDEST SWAP3 POP DUP3 DUP5 DUP9 PUSH1 0x4 ADD SLOAD PUSH2 0x1FC3 SWAP2 SWAP1 PUSH2 0x2D5D JUMP JUMPDEST PUSH2 0x1FCD SWAP2 SWAP1 PUSH2 0x2D5D JUMP JUMPDEST SWAP2 POP PUSH1 0x40 MLOAD DUP1 PUSH1 0x40 ADD PUSH1 0x40 MSTORE DUP1 PUSH1 0xE DUP2 MSTORE PUSH1 0x20 ADD PUSH32 0x6E6569746865725F73686F776564000000000000000000000000000000000000 DUP2 MSTORE POP SWAP1 POP PUSH2 0x2138 JUMP JUMPDEST DUP6 PUSH1 0x20 ADD MLOAD DUP1 ISZERO PUSH2 0x201F JUMPI POP DUP6 PUSH1 0x40 ADD MLOAD ISZERO JUMPDEST DUP1 ISZERO PUSH2 0x202C JUMPI POP DUP5 PUSH1 0x20 ADD MLOAD JUMPDEST DUP1 ISZERO PUSH2 0x203A JUMPI POP DUP5 PUSH1 0x40 ADD MLOAD ISZERO JUMPDEST ISZERO PUSH2 0x20BE JUMPI PUSH1 0x64 DUP8 PUSH1 0x4 ADD SLOAD PUSH1 0xA PUSH2 0x2052 SWAP2 SWAP1 PUSH2 0x2D27 JUMP JUMPDEST PUSH2 0x205C SWAP2 SWAP1 PUSH2 0x2D3E JUMP JUMPDEST SWAP2 POP PUSH0 PUSH1 0x2 DUP4 DUP10 PUSH1 0x4 ADD SLOAD PUSH2 0x2071 SWAP2 SWAP1 PUSH2 0x2D5D JUMP JUMPDEST PUSH2 0x207B SWAP2 SWAP1 PUSH2 0x2D3E JUMP JUMPDEST PUSH1 0x40 DUP1 MLOAD DUP1 DUP3 ADD SWAP1 SWAP2 MSTORE PUSH1 0x8 DUP2 MSTORE PUSH32 0x636F6E666C696374000000000000000000000000000000000000000000000000 PUSH1 0x20 DUP3 ADD MSTORE SWAP1 SWAP6 POP DUP6 SWAP5 POP SWAP2 POP PUSH2 0x2138 SWAP1 POP JUMP JUMPDEST PUSH1 0x64 DUP8 PUSH1 0x4 ADD SLOAD PUSH1 0xA PUSH2 0x20D1 SWAP2 SWAP1 PUSH2 0x2D27 JUMP JUMPDEST PUSH2 0x20DB SWAP2 SWAP1 PUSH2 0x2D3E JUMP JUMPDEST SWAP2 POP PUSH0 PUSH1 0x2 DUP4 DUP10 PUSH1 0x4 ADD SLOAD PUSH2 0x20F0 SWAP2 SWAP1 PUSH2 0x2D5D JUMP JUMPDEST PUSH2 0x20FA SWAP2 SWAP1 PUSH2 0x2D3E JUMP JUMPDEST PUSH1 0x40 DUP1 MLOAD DUP1 DUP3 ADD SWAP1 SWAP2 MSTORE PUSH1 0x8 DUP2 MSTORE PUSH32 0x6D69736D61746368000000000000000000000000000000000000000000000000 PUSH1 0x20 DUP3 ADD MSTORE SWAP1 SWAP6 POP DUP6 SWAP5 POP SWAP2 POP POP JUMPDEST PUSH1 0x6 DUP8 ADD DUP1 SLOAD PUSH3 0xFF0000 NOT AND PUSH3 0x10000 OR SWAP1 SSTORE DUP4 ISZERO PUSH2 0x2211 JUMPI PUSH0 SLOAD DUP8 SLOAD PUSH1 0x40 MLOAD PUSH4 0xA9059CBB PUSH1 0xE0 SHL DUP2 MSTORE PUSH1 0x1 PUSH1 0x1 PUSH1 0xA0 SHL SUB SWAP2 DUP3 AND PUSH1 0x4 DUP3 ADD MSTORE PUSH1 0x24 DUP2 ADD DUP8 SWAP1 MSTORE SWAP2 AND SWAP1 PUSH4 0xA9059CBB SWAP1 PUSH1 0x44 ADD PUSH1 0x20 PUSH1 0x40 MLOAD DUP1 DUP4 SUB DUP2 PUSH0 DUP8 GAS CALL ISZERO DUP1 ISZERO PUSH2 0x21A1 JUMPI RETURNDATASIZE PUSH0 DUP1 RETURNDATACOPY RETURNDATASIZE PUSH0 REVERT JUMPDEST POP POP POP POP PUSH1 0x40 MLOAD RETURNDATASIZE PUSH1 0x1F NOT PUSH1 0x1F DUP3 ADD AND DUP3 ADD DUP1 PUSH1 0x40 MSTORE POP DUP2 ADD SWAP1 PUSH2 0x21C5 SWAP2 SWAP1 PUSH2 0x2CF9 JUMP JUMPDEST PUSH2 0x2211 JUMPI PUSH1 0x40 MLOAD PUSH3 0x461BCD PUSH1 0xE5 SHL DUP2 MSTORE PUSH1 0x20 PUSH1 0x4 DUP3 ADD MSTORE PUSH1 0x15 PUSH1 0x24 DUP3 ADD MSTORE PUSH32 0x5573657231207472616E73666572206661696C65640000000000000000000000 PUSH1 0x44 DUP3 ADD MSTORE PUSH1 0x64 ADD PUSH2 0x6A9 JUMP JUMPDEST DUP3 ISZERO PUSH2 0x22DA JUMPI PUSH0 SLOAD PUSH1 0x1 DUP9 ADD SLOAD PUSH1 0x40 MLOAD PUSH4 0xA9059CBB PUSH1 0xE0 SHL DUP2 MSTORE PUSH1 0x1 PUSH1 0x1 PUSH1 0xA0 SHL SUB SWAP2 DUP3 AND PUSH1 0x4 DUP3 ADD MSTORE PUSH1 0x24 DUP2 ADD DUP7 SWAP1 MSTORE SWAP2 AND SWAP1 PUSH4 0xA9059CBB SWAP1 PUSH1 0x44 ADD PUSH1 0x20 PUSH1 0x40 MLOAD DUP1 DUP4 SUB DUP2 PUSH0 DUP8 GAS CALL ISZERO DUP1 ISZERO PUSH2 0x226A JUMPI RETURNDATASIZE PUSH0 DUP1 RETURNDATACOPY RETURNDATASIZE PUSH0 REVERT JUMPDEST POP POP POP POP PUSH1 0x40 MLOAD RETURNDATASIZE PUSH1 0x1F NOT PUSH1 0x1F DUP3 ADD AND DUP3 ADD DUP1 PUSH1 0x40 MSTORE POP DUP2 ADD SWAP1 PUSH2 0x228E SWAP2 SWAP1 PUSH2 0x2CF9 JUMP JUMPDEST PUSH2 0x22DA JUMPI PUSH1 0x40 MLOAD PUSH3 0x461BCD PUSH1 0xE5 SHL DUP2 MSTORE PUSH1 0x20 PUSH1 0x4 DUP3 ADD MSTORE PUSH1 0x15 PUSH1 0x24 DUP3 ADD MSTORE PUSH32 0x5573657232207472616E73666572206661696C65640000000000000000000000 PUSH1 0x44 DUP3 ADD MSTORE PUSH1 0x64 ADD PUSH2 0x6A9 JUMP JUMPDEST DUP2 ISZERO PUSH2 0x23F3 JUMPI PUSH0 SLOAD PUSH1 0x1 PUSH1 0x1 PUSH1 0xA0 SHL SUB AND PUSH4 0xA9059CBB PUSH2 0x2321 PUSH32 0x9016D09D72D40FDAE2FD8CEAC6B6234C7706214FD39C1CD1E609A0528C199300 SLOAD PUSH1 0x1 PUSH1 0x1 PUSH1 0xA0 SHL SUB AND SWAP1 JUMP JUMPDEST PUSH1 0x40 MLOAD PUSH32 0xFFFFFFFF00000000000000000000000000000000000000000000000000000000 PUSH1 0xE0 DUP5 SWAP1 SHL AND DUP2 MSTORE PUSH1 0x1 PUSH1 0x1 PUSH1 0xA0 SHL SUB SWAP1 SWAP2 AND PUSH1 0x4 DUP3 ADD MSTORE PUSH1 0x24 DUP2 ADD DUP6 SWAP1 MSTORE PUSH1 0x44 ADD PUSH1 0x20 PUSH1 0x40 MLOAD DUP1 DUP4 SUB DUP2 PUSH0 DUP8 GAS CALL ISZERO DUP1 ISZERO PUSH2 0x2383 JUMPI RETURNDATASIZE PUSH0 DUP1 RETURNDATACOPY RETURNDATASIZE PUSH0 REVERT JUMPDEST POP POP POP POP PUSH1 0x40 MLOAD RETURNDATASIZE PUSH1 0x1F NOT PUSH1 0x1F DUP3 ADD AND DUP3 ADD DUP1 PUSH1 0x40 MSTORE POP DUP2 ADD SWAP1 PUSH2 0x23A7 SWAP2 SWAP1 PUSH2 0x2CF9 JUMP JUMPDEST PUSH2 0x23F3 JUMPI PUSH1 0x40 MLOAD PUSH3 0x461BCD PUSH1 0xE5 SHL DUP2 MSTORE PUSH1 0x20 PUSH1 0x4 DUP3 ADD MSTORE PUSH1 0x13 PUSH1 0x24 DUP3 ADD MSTORE PUSH32 0x466565207472616E73666572206661696C656400000000000000000000000000 PUSH1 0x44 DUP3 ADD MSTORE PUSH1 0x64 ADD PUSH2 0x6A9 JUMP JUMPDEST DUP8 PUSH32 0xF46A7B5E78BDE6ACA13CBF04933204950FB860B4C1645ABDC8DBF2D067DC1786 DUP6 DUP6 DUP6 DUP6 PUSH1 0x40 MLOAD PUSH2 0x2429 SWAP5 SWAP4 SWAP3 SWAP2 SWAP1 PUSH2 0x2D70 JUMP JUMPDEST PUSH1 0x40 MLOAD DUP1 SWAP2 SUB SWAP1 LOG2 POP POP POP POP POP POP POP POP JUMP JUMPDEST ADDRESS PUSH1 0x1 PUSH1 0x1 PUSH1 0xA0 SHL SUB PUSH32 0x0 AND EQ DUP1 PUSH2 0x24D4 JUMPI POP PUSH32 0x0 PUSH1 0x1 PUSH1 0x1 PUSH1 0xA0 SHL SUB AND PUSH2 0x24C8 PUSH32 0x360894A13BA1A3210667C828492DB98DCA3E2076CC3735A920A3CA505D382BBC SLOAD PUSH1 0x1 PUSH1 0x1 PUSH1 0xA0 SHL SUB AND SWAP1 JUMP JUMPDEST PUSH1 0x1 PUSH1 0x1 PUSH1 0xA0 SHL SUB AND EQ ISZERO JUMPDEST ISZERO PUSH2 0x1330 JUMPI PUSH1 0x40 MLOAD PUSH4 0x703E46DD PUSH1 0xE1 SHL DUP2 MSTORE PUSH1 0x4 ADD PUSH1 0x40 MLOAD DUP1 SWAP2 SUB SWAP1 REVERT JUMPDEST PUSH2 0xF23 PUSH2 0x262B JUMP JUMPDEST DUP2 PUSH1 0x1 PUSH1 0x1 PUSH1 0xA0 SHL SUB AND PUSH4 0x52D1902D PUSH1 0x40 MLOAD DUP2 PUSH4 0xFFFFFFFF AND PUSH1 0xE0 SHL DUP2 MSTORE PUSH1 0x4 ADD PUSH1 0x20 PUSH1 0x40 MLOAD DUP1 DUP4 SUB DUP2 DUP7 GAS STATICCALL SWAP3 POP POP POP DUP1 ISZERO PUSH2 0x2554 JUMPI POP PUSH1 0x40 DUP1 MLOAD PUSH1 0x1F RETURNDATASIZE SWAP1 DUP2 ADD PUSH1 0x1F NOT AND DUP3 ADD SWAP1 SWAP3 MSTORE PUSH2 0x2551 SWAP2 DUP2 ADD SWAP1 PUSH2 0x2D9E JUMP JUMPDEST PUSH1 0x1 JUMPDEST PUSH2 0x257C JUMPI PUSH1 0x40 MLOAD PUSH4 0x4C9C8CE3 PUSH1 0xE0 SHL DUP2 MSTORE PUSH1 0x1 PUSH1 0x1 PUSH1 0xA0 SHL SUB DUP4 AND PUSH1 0x4 DUP3 ADD MSTORE PUSH1 0x24 ADD PUSH2 0x6A9 JUMP JUMPDEST PUSH32 0x360894A13BA1A3210667C828492DB98DCA3E2076CC3735A920A3CA505D382BBC DUP2 EQ PUSH2 0x25D8 JUMPI PUSH1 0x40 MLOAD PUSH32 0xAA1D49A400000000000000000000000000000000000000000000000000000000 DUP2 MSTORE PUSH1 0x4 DUP2 ADD DUP3 SWAP1 MSTORE PUSH1 0x24 ADD PUSH2 0x6A9 JUMP JUMPDEST PUSH2 0x12CD DUP4 DUP4 PUSH2 0x276D JUMP JUMPDEST ADDRESS PUSH1 0x1 PUSH1 0x1 PUSH1 0xA0 SHL SUB PUSH32 0x0 AND EQ PUSH2 0x1330 JUMPI PUSH1 0x40 MLOAD PUSH4 0x703E46DD PUSH1 0xE1 SHL DUP2 MSTORE PUSH1 0x4 ADD PUSH1 0x40 MLOAD DUP1 SWAP2 SUB SWAP1 REVERT JUMPDEST CALLER PUSH2 0x265D PUSH32 0x9016D09D72D40FDAE2FD8CEAC6B6234C7706214FD39C1CD1E609A0528C199300 SLOAD PUSH1 0x1 PUSH1 0x1 PUSH1 0xA0 SHL SUB AND SWAP1 JUMP JUMPDEST PUSH1 0x1 PUSH1 0x1 PUSH1 0xA0 SHL SUB AND EQ PUSH2 0x1330 JUMPI PUSH1 0x40 MLOAD PUSH32 0x118CDAA700000000000000000000000000000000000000000000000000000000 DUP2 MSTORE CALLER PUSH1 0x4 DUP3 ADD MSTORE PUSH1 0x24 ADD PUSH2 0x6A9 JUMP JUMPDEST PUSH32 0x9016D09D72D40FDAE2FD8CEAC6B6234C7706214FD39C1CD1E609A0528C199300 DUP1 SLOAD PUSH20 0xFFFFFFFFFFFFFFFFFFFFFFFFFFFFFFFFFFFFFFFF NOT DUP2 AND PUSH1 0x1 PUSH1 0x1 PUSH1 0xA0 SHL SUB DUP5 DUP2 AND SWAP2 DUP3 OR DUP5 SSTORE PUSH1 0x40 MLOAD SWAP3 AND SWAP2 DUP3 SWAP1 PUSH32 0x8BE0079C531659141344CD1FD0A4F28419497F9722A3DAAFE3B4186F6B6457E0 SWAP1 PUSH0 SWAP1 LOG3 POP POP POP JUMP JUMPDEST PUSH0 DUP1 PUSH32 0xF0C57E16840DF040F15088DC2F81FE391C3923BEC73E23A9662EFC9C229C6A00 PUSH2 0x1815 JUMP JUMPDEST PUSH2 0x274C PUSH2 0x27C2 JUMP JUMPDEST PUSH2 0xF23 DUP2 PUSH2 0x2800 JUMP JUMPDEST PUSH2 0x1330 PUSH2 0x27C2 JUMP JUMPDEST PUSH2 0x2765 PUSH2 0x27C2 JUMP JUMPDEST PUSH2 0x1330 PUSH2 0x2808 JUMP JUMPDEST PUSH2 0x2776 DUP3 PUSH2 0x2810 JUMP JUMPDEST PUSH1 0x40 MLOAD PUSH1 0x1 PUSH1 0x1 PUSH1 0xA0 SHL SUB DUP4 AND SWAP1 PUSH32 0xBC7CD75A20EE27FD9ADEBAB32041F755214DBC6BFFA90CC0225B39DA2E5C2D3B SWAP1 PUSH0 SWAP1 LOG2 DUP1 MLOAD ISZERO PUSH2 0x27BA JUMPI PUSH2 0x12CD DUP3 DUP3 PUSH2 0x2893 JUMP JUMPDEST PUSH2 0x12ED PUSH2 0x2905 JUMP JUMPDEST PUSH2 0x27CA PUSH2 0x293D JUMP JUMPDEST PUSH2 0x1330 JUMPI PUSH1 0x40 MLOAD PUSH32 0xD7E6BCF800000000000000000000000000000000000000000000000000000000 DUP2 MSTORE PUSH1 0x4 ADD PUSH1 0x40 MLOAD DUP1 SWAP2 SUB SWAP1 REVERT JUMPDEST PUSH2 0x1B0D PUSH2 0x27C2 JUMP JUMPDEST PUSH2 0x1BBB PUSH2 0x27C2 JUMP JUMPDEST DUP1 PUSH1 0x1 PUSH1 0x1 PUSH1 0xA0 SHL SUB AND EXTCODESIZE PUSH0 SUB PUSH2 0x2845 JUMPI PUSH1 0x40 MLOAD PUSH4 0x4C9C8CE3 PUSH1 0xE0 SHL DUP2 MSTORE PUSH1 0x1 PUSH1 0x1 PUSH1 0xA0 SHL SUB DUP3 AND PUSH1 0x4 DUP3 ADD MSTORE PUSH1 0x24 ADD PUSH2 0x6A9 JUMP JUMPDEST PUSH32 0x360894A13BA1A3210667C828492DB98DCA3E2076CC3735A920A3CA505D382BBC DUP1 SLOAD PUSH20 0xFFFFFFFFFFFFFFFFFFFFFFFFFFFFFFFFFFFFFFFF NOT AND PUSH1 0x1 PUSH1 0x1 PUSH1 0xA0 SHL SUB SWAP3 SWAP1 SWAP3 AND SWAP2 SWAP1 SWAP2 OR SWAP1 SSTORE JUMP JUMPDEST PUSH1 0x60 PUSH0 DUP1 DUP5 PUSH1 0x1 PUSH1 0x1 PUSH1 0xA0 SHL SUB AND DUP5 PUSH1 0x40 MLOAD PUSH2 0x28AF SWAP2 SWAP1 PUSH2 0x2DB5 JUMP JUMPDEST PUSH0 PUSH1 0x40 MLOAD DUP1 DUP4 SUB DUP2 DUP6 GAS DELEGATECALL SWAP2 POP POP RETURNDATASIZE DUP1 PUSH0 DUP2 EQ PUSH2 0x28E7 JUMPI PUSH1 0x40 MLOAD SWAP2 POP PUSH1 0x1F NOT PUSH1 0x3F RETURNDATASIZE ADD AND DUP3 ADD PUSH1 0x40 MSTORE RETURNDATASIZE DUP3 MSTORE RETURNDATASIZE PUSH0 PUSH1 0x20 DUP5 ADD RETURNDATACOPY PUSH2 0x28EC JUMP JUMPDEST PUSH1 0x60 SWAP2 POP JUMPDEST POP SWAP2 POP SWAP2 POP PUSH2 0x28FC DUP6 DUP4 DUP4 PUSH2 0x295B JUMP JUMPDEST SWAP6 SWAP5 POP POP POP POP POP JUMP JUMPDEST CALLVALUE ISZERO PUSH2 0x1330 JUMPI PUSH1 0x40 MLOAD PUSH32 0xB398979F00000000000000000000000000000000000000000000000000000000 DUP2 MSTORE PUSH1 0x4 ADD PUSH1 0x40 MLOAD DUP1 SWAP2 SUB SWAP1 REVERT JUMPDEST PUSH0 PUSH2 0x2946 PUSH2 0x271C JUMP JUMPDEST SLOAD PUSH9 0x10000000000000000 SWAP1 DIV PUSH1 0xFF AND SWAP2 SWAP1 POP JUMP JUMPDEST PUSH1 0x60 DUP3 PUSH2 0x2970 JUMPI PUSH2 0x296B DUP3 PUSH2 0x29D0 JUMP JUMPDEST PUSH2 0xA62 JUMP JUMPDEST DUP2 MLOAD ISZERO DUP1 ISZERO PUSH2 0x2987 JUMPI POP PUSH1 0x1 PUSH1 0x1 PUSH1 0xA0 SHL SUB DUP5 AND EXTCODESIZE ISZERO JUMPDEST ISZERO PUSH2 0x29C9 JUMPI PUSH1 0x40 MLOAD PUSH32 0x9996B31500000000000000000000000000000000000000000000000000000000 DUP2 MSTORE PUSH1 0x1 PUSH1 0x1 PUSH1 0xA0 SHL SUB DUP6 AND PUSH1 0x4 DUP3 ADD MSTORE PUSH1 0x24 ADD PUSH2 0x6A9 JUMP JUMPDEST POP DUP1 PUSH2 0xA62 JUMP JUMPDEST DUP1 MLOAD ISZERO PUSH2 0x29DF JUMPI DUP1 MLOAD PUSH1 0x20 DUP3 ADD REVERT JUMPDEST PUSH1 0x40 MLOAD PUSH32 0xD6BDA27500000000000000000000000000000000000000000000000000000000 DUP2 MSTORE PUSH1 0x4 ADD PUSH1 0x40 MLOAD DUP1 SWAP2 SUB SWAP1 REVERT JUMPDEST DUP1 CALLDATALOAD PUSH1 0x1 PUSH1 0x1 PUSH1 0xA0 SHL SUB DUP2 AND DUP2 EQ PUSH2 0x2A27 JUMPI PUSH0 DUP1 REVERT JUMPDEST SWAP2 SWAP1 POP JUMP JUMPDEST PUSH0 DUP1 PUSH1 0x40 DUP4 DUP6 SUB SLT ISZERO PUSH2 0x2A3D JUMPI PUSH0 DUP1 REVERT JUMPDEST DUP3 CALLDATALOAD SWAP2 POP PUSH2 0x2A4D PUSH1 0x20 DUP5 ADD PUSH2 0x2A11 JUMP JUMPDEST SWAP1 POP SWAP3 POP SWAP3 SWAP1 POP JUMP JUMPDEST PUSH0 DUP1 PUSH0 PUSH1 0x60 DUP5 DUP7 SUB SLT ISZERO PUSH2 0x2A68 JUMPI PUSH0 DUP1 REVERT JUMPDEST PUSH2 0x2A71 DUP5 PUSH2 0x2A11 JUMP JUMPDEST SWAP6 PUSH1 0x20 DUP6 ADD CALLDATALOAD SWAP6 POP PUSH1 0x40 SWAP1 SWAP5 ADD CALLDATALOAD SWAP4 SWAP3 POP POP POP JUMP JUMPDEST PUSH0 PUSH1 0x20 DUP3 DUP5 SUB SLT ISZERO PUSH2 0x2A96 JUMPI PUSH0 DUP1 REVERT JUMPDEST POP CALLDATALOAD SWAP2 SWAP1 POP JUMP JUMPDEST DUP1 ISZERO ISZERO DUP2 EQ PUSH2 0xF23 JUMPI PUSH0 DUP1 REVERT JUMPDEST PUSH0 DUP1 PUSH0 PUSH1 0x60 DUP5 DUP7 SUB SLT ISZERO PUSH2 0x2ABC JUMPI PUSH0 DUP1 REVERT JUMPDEST DUP4 CALLDATALOAD SWAP3 POP PUSH1 0x20 DUP5 ADD CALLDATALOAD PUSH2 0x2ACE DUP2 PUSH2 0x2A9D JUMP JUMPDEST SWAP2 POP PUSH1 0x40 DUP5 ADD CALLDATALOAD PUSH2 0x2ADE DUP2 PUSH2 0x2A9D JUMP JUMPDEST DUP1 SWAP2 POP POP SWAP3 POP SWAP3 POP SWAP3 JUMP JUMPDEST PUSH4 0x4E487B71 PUSH1 0xE0 SHL PUSH0 MSTORE PUSH1 0x41 PUSH1 0x4 MSTORE PUSH1 0x24 PUSH0 REVERT JUMPDEST PUSH0 DUP1 PUSH1 0x40 DUP4 DUP6 SUB SLT ISZERO PUSH2 0x2B0E JUMPI PUSH0 DUP1 REVERT JUMPDEST PUSH2 0x2B17 DUP4 PUSH2 0x2A11 JUMP JUMPDEST SWAP2 POP PUSH1 0x20 DUP4 ADD CALLDATALOAD PUSH8 0xFFFFFFFFFFFFFFFF DUP1 DUP3 GT ISZERO PUSH2 0x2B33 JUMPI PUSH0 DUP1 REVERT JUMPDEST DUP2 DUP6 ADD SWAP2 POP DUP6 PUSH1 0x1F DUP4 ADD SLT PUSH2 0x2B46 JUMPI PUSH0 DUP1 REVERT JUMPDEST DUP2 CALLDATALOAD DUP2 DUP2 GT ISZERO PUSH2 0x2B58 JUMPI PUSH2 0x2B58 PUSH2 0x2AE9 JUMP JUMPDEST PUSH1 0x40 MLOAD PUSH1 0x1F DUP3 ADD PUSH1 0x1F NOT SWAP1 DUP2 AND PUSH1 0x3F ADD AND DUP2 ADD SWAP1 DUP4 DUP3 GT DUP2 DUP4 LT OR ISZERO PUSH2 0x2B80 JUMPI PUSH2 0x2B80 PUSH2 0x2AE9 JUMP JUMPDEST DUP2 PUSH1 0x40 MSTORE DUP3 DUP2 MSTORE DUP9 PUSH1 0x20 DUP5 DUP8 ADD ADD GT ISZERO PUSH2 0x2B98 JUMPI PUSH0 DUP1 REVERT JUMPDEST DUP3 PUSH1 0x20 DUP7 ADD PUSH1 0x20 DUP4 ADD CALLDATACOPY PUSH0 PUSH1 0x20 DUP5 DUP4 ADD ADD MSTORE DUP1 SWAP6 POP POP POP POP POP POP SWAP3 POP SWAP3 SWAP1 POP JUMP JUMPDEST PUSH0 JUMPDEST DUP4 DUP2 LT ISZERO PUSH2 0x2BD3 JUMPI DUP2 DUP2 ADD MLOAD DUP4 DUP3 ADD MSTORE PUSH1 0x20 ADD PUSH2 0x2BBB JUMP JUMPDEST POP POP PUSH0 SWAP2 ADD MSTORE JUMP JUMPDEST PUSH0 DUP2 MLOAD DUP1 DUP5 MSTORE PUSH2 0x2BF2 DUP2 PUSH1 0x20 DUP7 ADD PUSH1 0x20 DUP7 ADD PUSH2 0x2BB9 JUMP JUMPDEST PUSH1 0x1F ADD PUSH1 0x1F NOT AND SWAP3 SWAP1 SWAP3 ADD PUSH1 0x20 ADD SWAP3 SWAP2 POP POP JUMP JUMPDEST PUSH1 0x20 DUP2 MSTORE PUSH0 PUSH2 0xA62 PUSH1 0x20 DUP4 ADD DUP5 PUSH2 0x2BDB JUMP JUMPDEST PUSH0 PUSH1 0x20 DUP3 DUP5 SUB SLT ISZERO PUSH2 0x2C28 JUMPI PUSH0 DUP1 REVERT JUMPDEST PUSH2 0xA62 DUP3 PUSH2 0x2A11 JUMP JUMPDEST DUP2 MLOAD PUSH1 0x1 PUSH1 0x1 PUSH1 0xA0 SHL SUB AND DUP2 MSTORE PUSH2 0x140 DUP2 ADD PUSH1 0x20 DUP4 ADD MLOAD PUSH2 0x2C5D PUSH1 0x20 DUP5 ADD DUP3 PUSH1 0x1 PUSH1 0x1 PUSH1 0xA0 SHL SUB AND SWAP1 MSTORE JUMP JUMPDEST POP PUSH1 0x40 DUP4 ADD MLOAD PUSH1 0x40 DUP4 ADD MSTORE PUSH1 0x60 DUP4 ADD MLOAD PUSH1 0x60 DUP4 ADD MSTORE PUSH1 0x80 DUP4 ADD MLOAD PUSH1 0x80 DUP4 ADD MSTORE PUSH1 0xA0 DUP4 ADD MLOAD PUSH1 0xA0 DUP4 ADD MSTORE PUSH1 0xC0 DUP4 ADD MLOAD PUSH2 0x2C99 PUSH1 0xC0 DUP5 ADD DUP3 ISZERO ISZERO SWAP1 MSTORE JUMP JUMPDEST POP PUSH1 0xE0 DUP4 ADD MLOAD PUSH2 0x2CAD PUSH1 0xE0 DUP5 ADD DUP3 ISZERO ISZERO SWAP1 MSTORE JUMP JUMPDEST POP PUSH2 0x100 DUP4 DUP2 ADD MLOAD DUP1 ISZERO ISZERO DUP5 DUP4 ADD MSTORE POP POP PUSH2 0x120 SWAP3 DUP4 ADD MLOAD SWAP2 SWAP1 SWAP3 ADD MSTORE SWAP1 JUMP JUMPDEST PUSH4 0x4E487B71 PUSH1 0xE0 SHL PUSH0 MSTORE PUSH1 0x11 PUSH1 0x4 MSTORE PUSH1 0x24 PUSH0 REVERT JUMPDEST PUSH0 PUSH1 0x1 DUP3 ADD PUSH2 0x2CF2 JUMPI PUSH2 0x2CF2 PUSH2 0x2CCD JUMP JUMPDEST POP PUSH1 0x1 ADD SWAP1 JUMP JUMPDEST PUSH0 PUSH1 0x20 DUP3 DUP5 SUB SLT ISZERO PUSH2 0x2D09 JUMPI PUSH0 DUP1 REVERT JUMPDEST DUP2 MLOAD PUSH2 0xA62 DUP2 PUSH2 0x2A9D JUMP JUMPDEST DUP1 DUP3 ADD DUP1 DUP3 GT ISZERO PUSH2 0x1815 JUMPI PUSH2 0x1815 PUSH2 0x2CCD JUMP JUMPDEST DUP1 DUP3 MUL DUP2 ISZERO DUP3 DUP3 DIV DUP5 EQ OR PUSH2 0x1815 JUMPI PUSH2 0x1815 PUSH2 0x2CCD JUMP JUMPDEST PUSH0 DUP3 PUSH2 0x2D58 JUMPI PUSH4 0x4E487B71 PUSH1 0xE0 SHL PUSH0 MSTORE PUSH1 0x12 PUSH1 0x4 MSTORE PUSH1 0x24 PUSH0 REVERT JUMPDEST POP DIV SWAP1 JUMP JUMPDEST DUP2 DUP2 SUB DUP2 DUP2 GT ISZERO PUSH2 0x1815 JUMPI PUSH2 0x1815 PUSH2 0x2CCD JUMP JUMPDEST DUP5 DUP2 MSTORE DUP4 PUSH1 0x20 DUP3 ADD MSTORE DUP3 PUSH1 0x40 DUP3 ADD MSTORE PUSH1 0x80 PUSH1 0x60 DUP3 ADD MSTORE PUSH0 PUSH2 0x2D94 PUSH1 0x80 DUP4 ADD DUP5 PUSH2 0x2BDB JUMP JUMPDEST SWAP7 SWAP6 POP POP POP POP POP POP JUMP JUMPDEST PUSH0 PUSH1 0x20 DUP3 DUP5 SUB SLT ISZERO PUSH2 0x2DAE JUMPI PUSH0 DUP1 REVERT JUMPDEST POP MLOAD SWAP2 SWAP1 POP JUMP JUMPDEST PUSH0 DUP3 MLOAD PUSH2 0x2DC6 DUP2 DUP5 PUSH1 0x20 DUP8 ADD PUSH2 0x2BB9 JUMP JUMPDEST SWAP2 SWAP1 SWAP2 ADD SWAP3 SWAP2 POP POP JUMP INVALID LOG2 PUSH5 0x6970667358 0x22 SLT KECCAK256 PUSH17 0xB680A760470FF378307D2B5432EC9BB1CC PUSH4 0x5A57BBFA DIV SLOAD DUP6 SGT CALLDATASIZE COINBASE SHL 0x5E 0xF7 PUSH5 0x736F6C6343 STOP ADDMOD AND STOP CALLER "},"methodIdentifiers":{"COMPASSION_REFUND_PERCENT()":"41ab3857","CONFIRMATION_WINDOW()":"86e2d5df","PLATFORM_FEE_PERCENT()":"560d52d4","UPGRADE_INTERFACE_VERSION()":"ad3cb1cc","acceptStake(uint256)":"81a4952e","cancelStake(uint256)":"d8de9480","confirmMeeting(uint256,bool,bool)":"4ed11ea5","confirmations(uint256,address)":"3411c81c","createStake(address,uint256,uint256)":"3c09cfc6","getConfirmation(uint256,address)":"d0192e37","getStake(uint256)":"ce325bf8","initialize(address)":"c4d66de8","owner()":"8da5cb5b","processExpiredStake(uint256)":"4e5548ce","proxiableUUID()":"52d1902d","renounceOwnership()":"715018a6","stakeCounter()":"f7b17d10","stakes(uint256)":"d5a44f86","transferOwnership(address)":"f2fde38b","upgradeToAndCall(address,bytes)":"4f1ef286","usdc()":"3e413bee"}},"storageLayout":{"storage":[{"astId":1657,"contract":"contracts/Staking.sol:Staking","label":"usdc","offset":0,"slot":"0","type":"t_contract(IERC20)1232"},{"astId":1699,"contract":"contracts/Staking.sol:Staking","label":"stakes","offset":0,"slot":"1","type":"t_mapping(t_uint256,t_struct(Stake)1687_storage)"},{"astId":1706,"contract":"contracts/Staking.sol:Staking","label":"confirmations","offset":0,"slot":"2","type":"t_mapping(t_uint256,t_mapping(t_address,t_struct(MeetingConfirmation)1694_storage))"},{"astId":1708,"contract":"contracts/Staking.sol:Staking","label":"stakeCounter","offset":0,"slot":"3","type":"t_uint256"}],"types":{"t_address":{"encoding":"inplace","label":"address","numberOfBytes":"20"},"t_bool":{"encoding":"inplace","label":"bool","numberOfBytes":"1"},"t_contract(IERC20)1232":{"encoding":"inplace","label":"contract IERC20","numberOfBytes":"20"},"t_mapping(t_address,t_struct(MeetingConfirmation)1694_storage)":{"encoding":"mapping","key":"t_address","label":"mapping(address => struct Staking.MeetingConfirmation)","numberOfBytes":"32","value":"t_struct(MeetingConfirmation)1694_storage"},"t_mapping(t_uint256,t_mapping(t_address,t_struct(MeetingConfirmation)1694_storage))":{"encoding":"mapping","key":"t_uint256","label":"mapping(uint256 => mapping(address => struct Staking.MeetingConfirmation))","numberOfBytes":"32","value":"t_mapping(t_address,t_struct(MeetingConfirmation)1694_storage)"},"t_mapping(t_uint256,t_struct(Stake)1687_storage)":{"encoding":"mapping","key":"t_uint256","label":"mapping(uint256 => struct Staking.Stake)","numberOfBytes":"32","value":"t_struct(Stake)1687_storage"},"t_struct(MeetingConfirmation)1694_storage":{"encoding":"inplace","label":"struct Staking.MeetingConfirmation","members":[{"astId":1689,"contract":"contracts/Staking.sol:Staking","label":"hasConfirmed","offset":0,"slot":"0","type":"t_bool"},{"astId":1691,"contract":"contracts/Staking.sol:Staking","label":"iShowedUp","offset":1,"slot":"0","type":"t_bool"},{"astId":1693,"contract":"contracts/Staking.sol:Staking","label":"theyShowedUp","offset":2,"slot":"0","type":"t_bool"}],"numberOfBytes":"32"},"t_struct(Stake)1687_storage":{"encoding":"inplace","label":"struct Staking.Stake","members":[{"astId":1668,"contract":"contracts/Staking.sol:Staking","label":"user1","offset":0,"slot":"0","type":"t_address"},{"astId":1670,"contract":"contracts/Staking.sol:Staking","label":"user2","offset":0,"slot":"1","type":"t_address"},{"astId":1672,"contract":"contracts/Staking.sol:Staking","label":"user1Amount","offset":0,"slot":"2","type":"t_uint256"},{"astId":1674,"contract":"contracts/Staking.sol:Staking","label":"user2Amount","offset":0,"slot":"3","type":"t_uint256"},{"astId":1676,"contract":"contracts/Staking.sol:Staking","label":"totalStaked","offset":0,"slot":"4","type":"t_uint256"},{"astId":1678,"contract":"contracts/Staking.sol:Staking","label":"meetingTime","offset":0,"slot":"5","type":"t_uint256"},{"astId":1680,"contract":"contracts/Staking.sol:Staking","label":"user1Staked","offset":0,"slot":"6","type":"t_bool"},{"astId":1682,"contract":"contracts/Staking.sol:Staking","label":"user2Staked","offset":1,"slot":"6","type":"t_bool"},{"astId":1684,"contract":"contracts/Staking.sol:Staking","label":"processed","offset":2,"slot":"6","type":"t_bool"},{"astId":1686,"contract":"contracts/Staking.sol:Staking","label":"createdAt","offset":0,"slot":"7","type":"t_uint256"}],"numberOfBytes":"256"},"t_uint256":{"encoding":"inplace","label":"uint256","numberOfBytes":"32"}}}}}}