{"contracts/Reputation.sol":{"Reputation":{"abi":[{"inputs":[{"internalType":"address","name":"_matching","type":"address"}],"stateMutability":"nonpayable","type":"constructor"},{"anonymous":false,"inputs":[{"indexed":true,"internalType":"address","name":"previousOwner","type":"address"},{"indexed":true,"internalType":"address","name":"newOwner","type":"address"}],"name":"OwnershipTransferred","type":"event"},{"anonymous":false,"inputs":[{"indexed":true,"internalType":"address","name":"user","type":"address"},{"indexed":false,"internalType":"uint256","name":"newScore","type":"uint256"}],"name":"ReputationUpdated","type":"event"},{"anonymous":false,"inputs":[{"indexed":true,"internalType":"address","name":"rater","type":"address"},{"indexed":true,"internalType":"address","name":"rated","type":"address"},{"indexed":false,"internalType":"uint256","name":"score","type":"uint256"}],"name":"UserRated","type":"event"},{"inputs":[{"internalType":"address","name":"user","type":"address"}],"name":"getAverageRating","outputs":[{"internalType":"uint256","name":"","type":"uint256"}],"stateMutability":"view","type":"function"},{"inputs":[{"internalType":"address","name":"user","type":"address"}],"name":"getReputation","outputs":[{"internalType":"uint256","name":"totalDates","type":"uint256"},{"internalType":"uint256","name":"noShows","type":"uint256"},{"internalType":"uint256","name":"totalRating","type":"uint256"},{"internalType":"uint256","name":"ratingCount","type":"uint256"}],"stateMutability":"view","type":"function"},{"inputs":[{"internalType":"address","name":"","type":"address"},{"internalType":"address","name":"","type":"address"}],"name":"hasRated","outputs":[{"internalType":"bool","name":"","type":"bool"}],"stateMutability":"view","type":"function"},{"inputs":[],"name":"matching","outputs":[{"internalType":"contract IMatching","name":"","type":"address"}],"stateMutability":"view","type":"function"},{"inputs":[],"name":"owner","outputs":[{"internalType":"address","name":"","type":"address"}],"stateMutability":"view","type":"function"},{"inputs":[{"internalType":"address","name":"ratedUser","type":"address"},{"internalType":"uint8","name":"rating","type":"uint8"}],"name":"rateUser","outputs":[],"stateMutability":"nonpayable","type":"function"},{"inputs":[{"internalType":"address","name":"user","type":"address"}],"name":"recordDate","outputs":[],"stateMutability":"nonpayable","type":"function"},{"inputs":[{"internalType":"address","name":"user","type":"address"}],"name":"recordNoShow","outputs":[],"stateMutability":"nonpayable","type":"function"},{"inputs":[],"name":"renounceOwnership","outputs":[],"stateMutability":"nonpayable","type":"function"},{"inputs":[{"internalType":"address","name":"newOwner","type":"address"}],"name":"transferOwnership","outputs":[],"stateMutability":"nonpayable","type":"function"},{"inputs":[{"internalType":"address","name":"","type":"address"}],"name":"userReputation","outputs":[{"internalType":"uint256","name":"totalRating","type":"uint256"},{"internalType":"uint256","name":"ratingCount","type":"uint256"},{"internalType":"uint256","name":"totalDates","type":"uint256"},{"internalType":"uint256","name":"noShows","type":"uint256"},{"internalType":"uint256","name":"lastUpdated","type":"uint256"}],"stateMutability":"view","type":"function"}],"evm":{"bytecode":{"linkReferences":{},"object":"608060405234801561001057600080fd5b5060405161099338038061099383398101604081905261002f916100ad565b6100383361005d565b600180546001600160a01b0319166001600160a01b03929092169190911790556100dd565b600080546001600160a01b038381166001600160a01b0319831681178455604051919092169283917f8be0079c531659141344cd1fd0a4f28419497f9722a3daafe3b4186f6b6457e09190a35050565b6000602082840312156100bf57600080fd5b81516001600160a01b03811681146100d657600080fd5b9392505050565b6108a7806100ec6000396000f3fe608060405234801561001057600080fd5b50600436106100c95760003560e01c80639c89a0e211610081578063c8b675221161005b578063c8b67522146101ed578063e503bb051461020e578063f2fde38b1461027357600080fd5b80639c89a0e214610166578063ae5ec2e9146101c7578063bbb8e283146101da57600080fd5b8063715018a6116100b2578063715018a6146101265780638da5cb5b1461012e57806397f3a1ab1461015357600080fd5b80632c365df6146100ce5780632e17803214610111575b600080fd5b6100fc6100dc36600461077b565b600360209081526000928352604080842090915290825290205460ff1681565b60405190151581526020015b60405180910390f35b61012461011f3660046107ae565b610286565b005b6101246102c2565b6000546001600160a01b03165b6040516001600160a01b039091168152602001610108565b6101246101613660046107ae565b6102d6565b6101a76101743660046107ae565b6001600160a01b031660009081526002602081905260409091209081015460038201548254600190930154919390929190565b604080519485526020850193909352918301526060820152608001610108565b60015461013b906001600160a01b031681565b6101246101e83660046107c9565b61030a565b6102006101fb3660046107ae565b6105c9565b604051908152602001610108565b61024b61021c3660046107ae565b600260208190526000918252604090912080546001820154928201546003830154600490930154919392909185565b604080519586526020860194909452928401919091526060830152608082015260a001610108565b6101246102813660046107ae565b61060d565b61028e61069d565b6001600160a01b03811660009081526002602052604081206003018054600192906102ba908490610806565b909155505050565b6102ca61069d565b6102d460006106f7565b565b6102de61069d565b6001600160a01b03811660009081526002602081905260408220018054600192906102ba908490610806565b6001546040517fa5b748750000000000000000000000000000000000000000000000000000000081523360048201526001600160a01b0384811660248301529091169063a5b7487590604401602060405180830381865afa158015610373573d6000803e3d6000fd5b505050506040513d601f19601f82011682018060405250810190610397919061082d565b6103e85760405162461bcd60e51b815260206004820152601560248201527f557365727320617265206e6f74206d617463686564000000000000000000000060448201526064015b60405180910390fd5b60018160ff1610158015610400575060058160ff1611155b61044c5760405162461bcd60e51b815260206004820152601e60248201527f526174696e67206d757374206265206265747765656e203120616e642035000060448201526064016103df565b3360009081526003602090815260408083206001600160a01b038616845290915290205460ff16156104c05760405162461bcd60e51b815260206004820152601760248201527f416c72656164792072617465642074686973207573657200000000000000000060448201526064016103df565b3360009081526003602090815260408083206001600160a01b03861684528252808320805460ff19166001179055600290915281208054909160ff84169183919061050c908490610806565b909155505060018181018054600090610526908490610806565b909155505042600482015560405160ff831681526001600160a01b0384169033907f5d7810bb85751be82d8965293f081a3833be22a320a0ad50eeae86b00251a5b39060200160405180910390a3826001600160a01b03167ffc577563f1b9a0461e24abef1e1fcc0d33d3d881f20b5df6dda59de4aae2c821826001015483600001546105b3919061084f565b60405190815260200160405180910390a2505050565b6001600160a01b0381166000908152600260205260408120600181015482036105f55750600092915050565b60018101548154610606919061084f565b9392505050565b61061561069d565b6001600160a01b0381166106915760405162461bcd60e51b815260206004820152602660248201527f4f776e61626c653a206e6577206f776e657220697320746865207a65726f206160448201527f646472657373000000000000000000000000000000000000000000000000000060648201526084016103df565b61069a816106f7565b50565b6000546001600160a01b031633146102d45760405162461bcd60e51b815260206004820181905260248201527f4f776e61626c653a2063616c6c6572206973206e6f7420746865206f776e657260448201526064016103df565b600080546001600160a01b038381167fffffffffffffffffffffffff0000000000000000000000000000000000000000831681178455604051919092169283917f8be0079c531659141344cd1fd0a4f28419497f9722a3daafe3b4186f6b6457e09190a35050565b80356001600160a01b038116811461077657600080fd5b919050565b6000806040838503121561078e57600080fd5b6107978361075f565b91506107a56020840161075f565b90509250929050565b6000602082840312156107c057600080fd5b6106068261075f565b600080604083850312156107dc57600080fd5b6107e58361075f565b9150602083013560ff811681146107fb57600080fd5b809150509250929050565b8082018082111561082757634e487b7160e01b600052601160045260246000fd5b92915050565b60006020828403121561083f57600080fd5b8151801515811461060657600080fd5b60008261086c57634e487b7160e01b600052601260045260246000fd5b50049056fea2646970667358221220dc85f92d656141b11b2c3f392a6cee1eeb871b2c6659914ca4d02515363e7bfe64736f6c63430008140033","opcodes":"PUSH1 0x80 PUSH1 0x40 MSTORE CALLVALUE DUP1 ISZERO PUSH2 0x10 JUMPI PUSH1 0x0 DUP1 REVERT JUMPDEST POP PUSH1 0x40 MLOAD PUSH2 0x993 CODESIZE SUB DUP1 PUSH2 0x993 DUP4 CODECOPY DUP2 ADD PUSH1 0x40 DUP2 SWAP1 MSTORE PUSH2 0x2F SWAP2 PUSH2 0xAD JUMP JUMPDEST PUSH2 0x38 CALLER PUSH2 0x5D JUMP JUMPDEST PUSH1 0x1 DUP1 SLOAD PUSH1 0x1 PUSH1 0x1 PUSH1 0xA0 SHL SUB NOT AND PUSH1 0x1 PUSH1 0x1 PUSH1 0xA0 SHL SUB SWAP3 SWAP1 SWAP3 AND SWAP2 SWAP1 SWAP2 OR SWAP1 SSTORE PUSH2 0xDD JUMP JUMPDEST PUSH1 0x0 DUP1 SLOAD PUSH1 0x1 PUSH1 0x1 PUSH1 0xA0 SHL SUB DUP4 DUP2 AND PUSH1 0x1 PUSH1 0x1 PUSH1 0xA0 SHL SUB NOT DUP4 AND DUP2 OR DUP5 SSTORE PUSH1 0x40 MLOAD SWAP2 SWAP1 SWAP3 AND SWAP3 DUP4 SWAP2 PUSH32 0x8BE0079C531659141344CD1FD0A4F28419497F9722A3DAAFE3B4186F6B6457E0 SWAP2 SWAP1 LOG3 POP POP JUMP JUMPDEST PUSH1 0x0 PUSH1 0x20 DUP3 DUP5 SUB SLT ISZERO PUSH2 0xBF JUMPI PUSH1 0x0 DUP1 REVERT JUMPDEST DUP2 MLOAD PUSH1 0x1 PUSH1 0x1 PUSH1 0xA0 SHL SUB DUP2 AND DUP2 EQ PUSH2 0xD6 JUMPI PUSH1 0x0 DUP1 REVERT JUMPDEST SWAP4 SWAP3 POP POP POP JUMP JUMPDEST PUSH2 0x8A7 DUP1 PUSH2 0xEC PUSH1 0x0 CODECOPY PUSH1 0x0 RETURN INVALID PUSH1 0x80 PUSH1 0x40 MSTORE CALLVALUE DUP1 ISZERO PUSH2 0x10 JUMPI PUSH1 0x0 DUP1 REVERT JUMPDEST POP PUSH1 0x4 CALLDATASIZE LT PUSH2 0xC9 JUMPI PUSH1 0x0 CALLDATALOAD PUSH1 0xE0 SHR DUP1 PUSH4 0x9C89A0E2 GT PUSH2 0x81 JUMPI DUP1 PUSH4 0xC8B67522 GT PUSH2 0x5B JUMPI DUP1 PUSH4 0xC8B67522 EQ PUSH2 0x1ED JUMPI DUP1 PUSH4 0xE503BB05 EQ PUSH2 0x20E JUMPI DUP1 PUSH4 0xF2FDE38B EQ PUSH2 0x273 JUMPI PUSH1 0x0 DUP1 REVERT JUMPDEST DUP1 PUSH4 0x9C89A0E2 EQ PUSH2 0x166 JUMPI DUP1 PUSH4 0xAE5EC2E9 EQ PUSH2 0x1C7 JUMPI DUP1 PUSH4 0xBBB8E283 EQ PUSH2 0x1DA JUMPI PUSH1 0x0 DUP1 REVERT JUMPDEST DUP1 PUSH4 0x715018A6 GT PUSH2 0xB2 JUMPI DUP1 PUSH4 0x715018A6 EQ PUSH2 0x126 JUMPI DUP1 PUSH4 0x8DA5CB5B EQ PUSH2 0x12E JUMPI DUP1 PUSH4 0x97F3A1AB EQ PUSH2 0x153 JUMPI PUSH1 0x0 DUP1 REVERT JUMPDEST DUP1 PUSH4 0x2C365DF6 EQ PUSH2 0xCE JUMPI DUP1 PUSH4 0x2E178032 EQ PUSH2 0x111 JUMPI JUMPDEST PUSH1 0x0 DUP1 REVERT JUMPDEST PUSH2 0xFC PUSH2 0xDC CALLDATASIZE PUSH1 0x4 PUSH2 0x77B JUMP JUMPDEST PUSH1 0x3 PUSH1 0x20 SWAP1 DUP2 MSTORE PUSH1 0x0 SWAP3 DUP4 MSTORE PUSH1 0x40 DUP1 DUP5 KECCAK256 SWAP1 SWAP2 MSTORE SWAP1 DUP3 MSTORE SWAP1 KECCAK256 SLOAD PUSH1 0xFF AND DUP2 JUMP JUMPDEST PUSH1 0x40 MLOAD SWAP1 ISZERO ISZERO DUP2 MSTORE PUSH1 0x20 ADD JUMPDEST PUSH1 0x40 MLOAD DUP1 SWAP2 SUB SWAP1 RETURN JUMPDEST PUSH2 0x124 PUSH2 0x11F CALLDATASIZE PUSH1 0x4 PUSH2 0x7AE JUMP JUMPDEST PUSH2 0x286 JUMP JUMPDEST STOP JUMPDEST PUSH2 0x124 PUSH2 0x2C2 JUMP JUMPDEST PUSH1 0x0 SLOAD PUSH1 0x1 PUSH1 0x1 PUSH1 0xA0 SHL SUB AND JUMPDEST PUSH1 0x40 MLOAD PUSH1 0x1 PUSH1 0x1 PUSH1 0xA0 SHL SUB SWAP1 SWAP2 AND DUP2 MSTORE PUSH1 0x20 ADD PUSH2 0x108 JUMP JUMPDEST PUSH2 0x124 PUSH2 0x161 CALLDATASIZE PUSH1 0x4 PUSH2 0x7AE JUMP JUMPDEST PUSH2 0x2D6 JUMP JUMPDEST PUSH2 0x1A7 PUSH2 0x174 CALLDATASIZE PUSH1 0x4 PUSH2 0x7AE JUMP JUMPDEST PUSH1 0x1 PUSH1 0x1 PUSH1 0xA0 SHL SUB AND PUSH1 0x0 SWAP1 DUP2 MSTORE PUSH1 0x2 PUSH1 0x20 DUP2 SWAP1 MSTORE PUSH1 0x40 SWAP1 SWAP2 KECCAK256 SWAP1 DUP2 ADD SLOAD PUSH1 0x3 DUP3 ADD SLOAD DUP3 SLOAD PUSH1 0x1 SWAP1 SWAP4 ADD SLOAD SWAP2 SWAP4 SWAP1 SWAP3 SWAP2 SWAP1 JUMP JUMPDEST PUSH1 0x40 DUP1 MLOAD SWAP5 DUP6 MSTORE PUSH1 0x20 DUP6 ADD SWAP4 SWAP1 SWAP4 MSTORE SWAP2 DUP4 ADD MSTORE PUSH1 0x60 DUP3 ADD MSTORE PUSH1 0x80 ADD PUSH2 0x108 JUMP JUMPDEST PUSH1 0x1 SLOAD PUSH2 0x13B SWAP1 PUSH1 0x1 PUSH1 0x1 PUSH1 0xA0 SHL SUB AND DUP2 JUMP JUMPDEST PUSH2 0x124 PUSH2 0x1E8 CALLDATASIZE PUSH1 0x4 PUSH2 0x7C9 JUMP JUMPDEST PUSH2 0x30A JUMP JUMPDEST PUSH2 0x200 PUSH2 0x1FB CALLDATASIZE PUSH1 0x4 PUSH2 0x7AE JUMP JUMPDEST PUSH2 0x5C9 JUMP JUMPDEST PUSH1 0x40 MLOAD SWAP1 DUP2 MSTORE PUSH1 0x20 ADD PUSH2 0x108 JUMP JUMPDEST PUSH2 0x24B PUSH2 0x21C CALLDATASIZE PUSH1 0x4 PUSH2 0x7AE JUMP JUMPDEST PUSH1 0x2 PUSH1 0x20 DUP2 SWAP1 MSTORE PUSH1 0x0 SWAP2 DUP3 MSTORE PUSH1 0x40 SWAP1 SWAP2 KECCAK256 DUP1 SLOAD PUSH1 0x1 DUP3 ADD SLOAD SWAP3 DUP3 ADD SLOAD PUSH1 0x3 DUP4 ADD SLOAD PUSH1 0x4 SWAP1 SWAP4 ADD SLOAD SWAP2 SWAP4 SWAP3 SWAP1 SWAP2 DUP6 JUMP JUMPDEST PUSH1 0x40 DUP1 MLOAD SWAP6 DUP7 MSTORE PUSH1 0x20 DUP7 ADD SWAP5 SWAP1 SWAP5 MSTORE SWAP3 DUP5 ADD SWAP2 SWAP1 SWAP2 MSTORE PUSH1 0x60 DUP4 ADD MSTORE PUSH1 0x80 DUP3 ADD MSTORE PUSH1 0xA0 ADD PUSH2 0x108 JUMP JUMPDEST PUSH2 0x124 PUSH2 0x281 CALLDATASIZE PUSH1 0x4 PUSH2 0x7AE JUMP JUMPDEST PUSH2 0x60D JUMP JUMPDEST PUSH2 0x28E PUSH2 0x69D JUMP JUMPDEST PUSH1 0x1 PUSH1 0x1 PUSH1 0xA0 SHL SUB DUP2 AND PUSH1 0x0 SWAP1 DUP2 MSTORE PUSH1 0x2 PUSH1 0x20 MSTORE PUSH1 0x40 DUP2 KECCAK256 PUSH1 0x3 ADD DUP1 SLOAD PUSH1 0x1 SWAP3 SWAP1 PUSH2 0x2BA SWAP1 DUP5 SWAP1 PUSH2 0x806 JUMP JUMPDEST SWAP1 SWAP2 SSTORE POP POP POP JUMP JUMPDEST PUSH2 0x2CA PUSH2 0x69D JUMP JUMPDEST PUSH2 0x2D4 PUSH1 0x0 PUSH2 0x6F7 JUMP JUMPDEST JUMP JUMPDEST PUSH2 0x2DE PUSH2 0x69D JUMP JUMPDEST PUSH1 0x1 PUSH1 0x1 PUSH1 0xA0 SHL SUB DUP2 AND PUSH1 0x0 SWAP1 DUP2 MSTORE PUSH1 0x2 PUSH1 0x20 DUP2 SWAP1 MSTORE PUSH1 0x40 DUP3 KECCAK256 ADD DUP1 SLOAD PUSH1 0x1 SWAP3 SWAP1 PUSH2 0x2BA SWAP1 DUP5 SWAP1 PUSH2 0x806 JUMP JUMPDEST PUSH1 0x1 SLOAD PUSH1 0x40 MLOAD PUSH32 0xA5B7487500000000000000000000000000000000000000000000000000000000 DUP2 MSTORE CALLER PUSH1 0x4 DUP3 ADD MSTORE PUSH1 0x1 PUSH1 0x1 PUSH1 0xA0 SHL SUB DUP5 DUP2 AND PUSH1 0x24 DUP4 ADD MSTORE SWAP1 SWAP2 AND SWAP1 PUSH4 0xA5B74875 SWAP1 PUSH1 0x44 ADD PUSH1 0x20 PUSH1 0x40 MLOAD DUP1 DUP4 SUB DUP2 DUP7 GAS STATICCALL ISZERO DUP1 ISZERO PUSH2 0x373 JUMPI RETURNDATASIZE PUSH1 0x0 DUP1 RETURNDATACOPY RETURNDATASIZE PUSH1 0x0 REVERT JUMPDEST POP POP POP POP PUSH1 0x40 MLOAD RETURNDATASIZE PUSH1 0x1F NOT PUSH1 0x1F DUP3 ADD AND DUP3 ADD DUP1 PUSH1 0x40 MSTORE POP DUP2 ADD SWAP1 PUSH2 0x397 SWAP2 SWAP1 PUSH2 0x82D JUMP JUMPDEST PUSH2 0x3E8 JUMPI PUSH1 0x40 MLOAD PUSH3 0x461BCD PUSH1 0xE5 SHL DUP2 MSTORE PUSH1 0x20 PUSH1 0x4 DUP3 ADD MSTORE PUSH1 0x15 PUSH1 0x24 DUP3 ADD MSTORE PUSH32 0x557365727320617265206E6F74206D6174636865640000000000000000000000 PUSH1 0x44 DUP3 ADD MSTORE PUSH1 0x64 ADD JUMPDEST PUSH1 0x40 MLOAD DUP1 SWAP2 SUB SWAP1 REVERT JUMPDEST PUSH1 0x1 DUP2 PUSH1 0xFF AND LT ISZERO DUP1 ISZERO PUSH2 0x400 JUMPI POP PUSH1 0x5 DUP2 PUSH1 0xFF AND GT ISZERO JUMPDEST PUSH2 0x44C JUMPI PUSH1 0x40 MLOAD PUSH3 0x461BCD PUSH1 0xE5 SHL DUP2 MSTORE PUSH1 0x20 PUSH1 0x4 DUP3 ADD MSTORE PUSH1 0x1E PUSH1 0x24 DUP3 ADD MSTORE PUSH32 0x526174696E67206D757374206265206265747765656E203120616E6420350000 PUSH1 0x44 DUP3 ADD MSTORE PUSH1 0x64 ADD PUSH2 0x3DF JUMP JUMPDEST CALLER PUSH1 0x0 SWAP1 DUP2 MSTORE PUSH1 0x3 PUSH1 0x20 SWAP1 DUP2 MSTORE PUSH1 0x40 DUP1 DUP4 KECCAK256 PUSH1 0x1 PUSH1 0x1 PUSH1 0xA0 SHL SUB DUP7 AND DUP5 MSTORE SWAP1 SWAP2 MSTORE SWAP1 KECCAK256 SLOAD PUSH1 0xFF AND ISZERO PUSH2 0x4C0 JUMPI PUSH1 0x40 MLOAD PUSH3 0x461BCD PUSH1 0xE5 SHL DUP2 MSTORE PUSH1 0x20 PUSH1 0x4 DUP3 ADD MSTORE PUSH1 0x17 PUSH1 0x24 DUP3 ADD MSTORE PUSH32 0x416C726561647920726174656420746869732075736572000000000000000000 PUSH1 0x44 DUP3 ADD MSTORE PUSH1 0x64 ADD PUSH2 0x3DF JUMP JUMPDEST CALLER PUSH1 0x0 SWAP1 DUP2 MSTORE PUSH1 0x3 PUSH1 0x20 SWAP1 DUP2 MSTORE PUSH1 0x40 DUP1 DUP4 KECCAK256 PUSH1 0x1 PUSH1 0x1 PUSH1 0xA0 SHL SUB DUP7 AND DUP5 MSTORE DUP3 MSTORE DUP1 DUP4 KECCAK256 DUP1 SLOAD PUSH1 0xFF NOT AND PUSH1 0x1 OR SWAP1 SSTORE PUSH1 0x2 SWAP1 SWAP2 MSTORE DUP2 KECCAK256 DUP1 SLOAD SWAP1 SWAP2 PUSH1 0xFF DUP5 AND SWAP2 DUP4 SWAP2 SWAP1 PUSH2 0x50C SWAP1 DUP5 SWAP1 PUSH2 0x806 JUMP JUMPDEST SWAP1 SWAP2 SSTORE POP POP PUSH1 0x1 DUP2 DUP2 ADD DUP1 SLOAD PUSH1 0x0 SWAP1 PUSH2 0x526 SWAP1 DUP5 SWAP1 PUSH2 0x806 JUMP JUMPDEST SWAP1 SWAP2 SSTORE POP POP TIMESTAMP PUSH1 0x4 DUP3 ADD SSTORE PUSH1 0x40 MLOAD PUSH1 0xFF DUP4 AND DUP2 MSTORE PUSH1 0x1 PUSH1 0x1 PUSH1 0xA0 SHL SUB DUP5 AND SWAP1 CALLER SWAP1 PUSH32 0x5D7810BB85751BE82D8965293F081A3833BE22A320A0AD50EEAE86B00251A5B3 SWAP1 PUSH1 0x20 ADD PUSH1 0x40 MLOAD DUP1 SWAP2 SUB SWAP1 LOG3 DUP3 PUSH1 0x1 PUSH1 0x1 PUSH1 0xA0 SHL SUB AND PUSH32 0xFC577563F1B9A0461E24ABEF1E1FCC0D33D3D881F20B5DF6DDA59DE4AAE2C821 DUP3 PUSH1 0x1 ADD SLOAD DUP4 PUSH1 0x0 ADD SLOAD PUSH2 0x5B3 SWAP2 SWAP1 PUSH2 0x84F JUMP JUMPDEST PUSH1 0x40 MLOAD SWAP1 DUP2 MSTORE PUSH1 0x20 ADD PUSH1 0x40 MLOAD DUP1 SWAP2 SUB SWAP1 LOG2 POP POP POP JUMP JUMPDEST PUSH1 0x1 PUSH1 0x1 PUSH1 0xA0 SHL SUB DUP2 AND PUSH1 0x0 SWAP1 DUP2 MSTORE PUSH1 0x2 PUSH1 0x20 MSTORE PUSH1 0x40 DUP2 KECCAK256 PUSH1 0x1 DUP2 ADD SLOAD DUP3 SUB PUSH2 0x5F5 JUMPI POP PUSH1 0x0 SWAP3 SWAP2 POP POP JUMP JUMPDEST PUSH1 0x1 DUP2 ADD SLOAD DUP2 SLOAD PUSH2 0x606 SWAP2 SWAP1 PUSH2 0x84F JUMP JUMPDEST SWAP4 SWAP3 POP POP POP JUMP JUMPDEST PUSH2 0x615 PUSH2 0x69D JUMP JUMPDEST PUSH1 0x1 PUSH1 0x1 PUSH1 0xA0 SHL SUB DUP2 AND PUSH2 0x691 JUMPI PUSH1 0x40 MLOAD PUSH3 0x461BCD PUSH1 0xE5 SHL DUP2 MSTORE PUSH1 0x20 PUSH1 0x4 DUP3 ADD MSTORE PUSH1 0x26 PUSH1 0x24 DUP3 ADD MSTORE PUSH32 0x4F776E61626C653A206E6577206F776E657220697320746865207A65726F2061 PUSH1 0x44 DUP3 ADD MSTORE PUSH32 0x6464726573730000000000000000000000000000000000000000000000000000 PUSH1 0x64 DUP3 ADD MSTORE PUSH1 0x84 ADD PUSH2 0x3DF JUMP JUMPDEST PUSH2 0x69A DUP2 PUSH2 0x6F7 JUMP JUMPDEST POP JUMP JUMPDEST PUSH1 0x0 SLOAD PUSH1 0x1 PUSH1 0x1 PUSH1 0xA0 SHL SUB AND CALLER EQ PUSH2 0x2D4 JUMPI PUSH1 0x40 MLOAD PUSH3 0x461BCD PUSH1 0xE5 SHL DUP2 MSTORE PUSH1 0x20 PUSH1 0x4 DUP3 ADD DUP2 SWAP1 MSTORE PUSH1 0x24 DUP3 ADD MSTORE PUSH32 0x4F776E61626C653A2063616C6C6572206973206E6F7420746865206F776E6572 PUSH1 0x44 DUP3 ADD MSTORE PUSH1 0x64 ADD PUSH2 0x3DF JUMP JUMPDEST PUSH1 0x0 DUP1 SLOAD PUSH1 0x1 PUSH1 0x1 PUSH1 0xA0 SHL SUB DUP4 DUP2 AND PUSH32 0xFFFFFFFFFFFFFFFFFFFFFFFF0000000000000000000000000000000000000000 DUP4 AND DUP2 OR DUP5 SSTORE PUSH1 0x40 MLOAD SWAP2 SWAP1 SWAP3 AND SWAP3 DUP4 SWAP2 PUSH32 0x8BE0079C531659141344CD1FD0A4F28419497F9722A3DAAFE3B4186F6B6457E0 SWAP2 SWAP1 LOG3 POP POP JUMP JUMPDEST DUP1 CALLDATALOAD PUSH1 0x1 PUSH1 0x1 PUSH1 0xA0 SHL SUB DUP2 AND DUP2 EQ PUSH2 0x776 JUMPI PUSH1 0x0 DUP1 REVERT JUMPDEST SWAP2 SWAP1 POP JUMP JUMPDEST PUSH1 0x0 DUP1 PUSH1 0x40 DUP4 DUP6 SUB SLT ISZERO PUSH2 0x78E JUMPI PUSH1 0x0 DUP1 REVERT JUMPDEST PUSH2 0x797 DUP4 PUSH2 0x75F JUMP JUMPDEST SWAP2 POP PUSH2 0x7A5 PUSH1 0x20 DUP5 ADD PUSH2 0x75F JUMP JUMPDEST SWAP1 POP SWAP3 POP SWAP3 SWAP1 POP JUMP JUMPDEST PUSH1 0x0 PUSH1 0x20 DUP3 DUP5 SUB SLT ISZERO PUSH2 0x7C0 JUMPI PUSH1 0x0 DUP1 REVERT JUMPDEST PUSH2 0x606 DUP3 PUSH2 0x75F JUMP JUMPDEST PUSH1 0x0 DUP1 PUSH1 0x40 DUP4 DUP6 SUB SLT ISZERO PUSH2 0x7DC JUMPI PUSH1 0x0 DUP1 REVERT JUMPDEST PUSH2 0x7E5 DUP4 PUSH2 0x75F JUMP JUMPDEST SWAP2 POP PUSH1 0x20 DUP4 ADD CALLDATALOAD PUSH1 0xFF DUP2 AND DUP2 EQ PUSH2 0x7FB JUMPI PUSH1 0x0 DUP1 REVERT JUMPDEST DUP1 SWAP2 POP POP SWAP3 POP SWAP3 SWAP1 POP JUMP JUMPDEST DUP1 DUP3 ADD DUP1 DUP3 GT ISZERO PUSH2 0x827 JUMPI PUSH4 0x4E487B71 PUSH1 0xE0 SHL PUSH1 0x0 MSTORE PUSH1 0x11 PUSH1 0x4 MSTORE PUSH1 0x24 PUSH1 0x0 REVERT JUMPDEST SWAP3 SWAP2 POP POP JUMP JUMPDEST PUSH1 0x0 PUSH1 0x20 DUP3 DUP5 SUB SLT ISZERO PUSH2 0x83F JUMPI PUSH1 0x0 DUP1 REVERT JUMPDEST DUP2 MLOAD DUP1 ISZERO ISZERO DUP2 EQ PUSH2 0x606 JUMPI PUSH1 0x0 DUP1 REVERT JUMPDEST PUSH1 0x0 DUP3 PUSH2 0x86C JUMPI PUSH4 0x4E487B71 PUSH1 0xE0 SHL PUSH1 0x0 MSTORE PUSH1 0x12 PUSH1 0x4 MSTORE PUSH1 0x24 PUSH1 0x0 REVERT JUMPDEST POP DIV SWAP1 JUMP INVALID LOG2 PUSH5 0x6970667358 0x22 SLT KECCAK256 0xDC DUP6 0xF9 0x2D PUSH6 0x6141B11B2C3F CODECOPY 0x2A PUSH13 0xEE1EEB871B2C6659914CA4D025 ISZERO CALLDATASIZE RETURNDATACOPY PUSH28 0xFE64736F6C6343000814003300000000000000000000000000000000 "},"methodIdentifiers":{"getAverageRating(address)":"c8b67522","getReputation(address)":"9c89a0e2","hasRated(address,address)":"2c365df6","matching()":"ae5ec2e9","owner()":"8da5cb5b","rateUser(address,uint8)":"bbb8e283","recordDate(address)":"97f3a1ab","recordNoShow(address)":"2e178032","renounceOwnership()":"715018a6","transferOwnership(address)":"f2fde38b","userReputation(address)":"e503bb05"}}}}}