{
  "_format": "hh-sol-artifact-1",
  "contractName": "ProfileNFT",
  "sourceName": "contracts/ProfileNFT.sol",
  "abi": [
    {
      "inputs": [
        {
          "internalType": "address",
          "name": "target",
          "type": "address"
        }
      ],
      "name": "AddressEmptyCode",
      "type": "error"
    },
    {
      "inputs": [
        {
          "internalType": "address",
          "name": "implementation",
          "type": "address"
        }
      ],
      "name": "ERC1967InvalidImplementation",
      "type": "error"
    },
    {
      "inputs": [],
      "name": "ERC1967NonPayable",
      "type": "error"
    },
    {
      "inputs": [
        {
          "internalType": "address",
          "name": "sender",
          "type": "address"
        },
        {
          "internalType": "uint256",
          "name": "tokenId",
          "type": "uint256"
        },
        {
          "internalType": "address",
          "name": "owner",
          "type": "address"
        }
      ],
      "name": "ERC721IncorrectOwner",
      "type": "error"
    },
    {
      "inputs": [
        {
          "internalType": "address",
          "name": "operator",
          "type": "address"
        },
        {
          "internalType": "uint256",
          "name": "tokenId",
          "type": "uint256"
        }
      ],
      "name": "ERC721InsufficientApproval",
      "type": "error"
    },
    {
      "inputs": [
        {
          "internalType": "address",
          "name": "approver",
          "type": "address"
        }
      ],
      "name": "ERC721InvalidApprover",
      "type": "error"
    },
    {
      "inputs": [
        {
          "internalType": "address",
          "name": "operator",
          "type": "address"
        }
      ],
      "name": "ERC721InvalidOperator",
      "type": "error"
    },
    {
      "inputs": [
        {
          "internalType": "address",
          "name": "owner",
          "type": "address"
        }
      ],
      "name": "ERC721InvalidOwner",
      "type": "error"
    },
    {
      "inputs": [
        {
          "internalType": "address",
          "name": "receiver",
          "type": "address"
        }
      ],
      "name": "ERC721InvalidReceiver",
      "type": "error"
    },
    {
      "inputs": [
        {
          "internalType": "address",
          "name": "sender",
          "type": "address"
        }
      ],
      "name": "ERC721InvalidSender",
      "type": "error"
    },
    {
      "inputs": [
        {
          "internalType": "uint256",
          "name": "tokenId",
          "type": "uint256"
        }
      ],
      "name": "ERC721NonexistentToken",
      "type": "error"
    },
    {
      "inputs": [],
      "name": "FailedCall",
      "type": "error"
    },
    {
      "inputs": [],
      "name": "InvalidInitialization",
      "type": "error"
    },
    {
      "inputs": [],
      "name": "NotInitializing",
      "type": "error"
    },
    {
      "inputs": [
        {
          "internalType": "address",
          "name": "owner",
          "type": "address"
        }
      ],
      "name": "OwnableInvalidOwner",
      "type": "error"
    },
    {
      "inputs": [
        {
          "internalType": "address",
          "name": "account",
          "type": "address"
        }
      ],
      "name": "OwnableUnauthorizedAccount",
      "type": "error"
    },
    {
      "inputs": [],
      "name": "UUPSUnauthorizedCallContext",
      "type": "error"
    },
    {
      "inputs": [
        {
          "internalType": "bytes32",
          "name": "slot",
          "type": "bytes32"
        }
      ],
      "name": "UUPSUnsupportedProxiableUUID",
      "type": "error"
    },
    {
      "anonymous": false,
      "inputs": [
        {
          "indexed": true,
          "internalType": "address",
          "name": "owner",
          "type": "address"
        },
        {
          "indexed": true,
          "internalType": "address",
          "name": "approved",
          "type": "address"
        },
        {
          "indexed": true,
          "internalType": "uint256",
          "name": "tokenId",
          "type": "uint256"
        }
      ],
      "name": "Approval",
      "type": "event"
    },
    {
      "anonymous": false,
      "inputs": [
        {
          "indexed": true,
          "internalType": "address",
          "name": "owner",
          "type": "address"
        },
        {
          "indexed": true,
          "internalType": "address",
          "name": "operator",
          "type": "address"
        },
        {
          "indexed": false,
          "internalType": "bool",
          "name": "approved",
          "type": "bool"
        }
      ],
      "name": "ApprovalForAll",
      "type": "event"
    },
    {
      "anonymous": false,
      "inputs": [
        {
          "indexed": false,
          "internalType": "string",
          "name": "email",
          "type": "string"
        },
        {
          "indexed": false,
          "internalType": "address",
          "name": "user",
          "type": "address"
        }
      ],
      "name": "EmailRegistered",
      "type": "event"
    },
    {
      "anonymous": false,
      "inputs": [
        {
          "indexed": false,
          "internalType": "uint64",
          "name": "version",
          "type": "uint64"
        }
      ],
      "name": "Initialized",
      "type": "event"
    },
    {
      "anonymous": false,
      "inputs": [
        {
          "indexed": true,
          "internalType": "address",
          "name": "previousOwner",
          "type": "address"
        },
        {
          "indexed": true,
          "internalType": "address",
          "name": "newOwner",
          "type": "address"
        }
      ],
      "name": "OwnershipTransferred",
      "type": "event"
    },
    {
      "anonymous": false,
      "inputs": [
        {
          "indexed": true,
          "internalType": "address",
          "name": "user",
          "type": "address"
        },
        {
          "indexed": false,
          "internalType": "uint256",
          "name": "tokenId",
          "type": "uint256"
        },
        {
          "indexed": false,
          "internalType": "string",
          "name": "name",
          "type": "string"
        }
      ],
      "name": "ProfileCreated",
      "type": "event"
    },
    {
      "anonymous": false,
      "inputs": [
        {
          "indexed": true,
          "internalType": "address",
          "name": "user",
          "type": "address"
        },
        {
          "indexed": false,
          "internalType": "uint256",
          "name": "tokenId",
          "type": "uint256"
        }
      ],
      "name": "ProfileDeleted",
      "type": "event"
    },
    {
      "anonymous": false,
      "inputs": [
        {
          "indexed": true,
          "internalType": "address",
          "name": "user",
          "type": "address"
        },
        {
          "indexed": false,
          "internalType": "string",
          "name": "name",
          "type": "string"
        },
        {
          "indexed": false,
          "internalType": "uint8",
          "name": "age",
          "type": "uint8"
        },
        {
          "indexed": false,
          "internalType": "string",
          "name": "gender",
          "type": "string"
        },
        {
          "indexed": false,
          "internalType": "string",
          "name": "interests",
          "type": "string"
        },
        {
          "indexed": false,
          "internalType": "string",
          "name": "photoUrl",
          "type": "string"
        },
        {
          "indexed": false,
          "internalType": "string",
          "name": "email",
          "type": "string"
        },
        {
          "indexed": false,
          "internalType": "uint256",
          "name": "birthYear",
          "type": "uint256"
        }
      ],
      "name": "ProfileUpdated",
      "type": "event"
    },
    {
      "anonymous": false,
      "inputs": [
        {
          "indexed": true,
          "internalType": "address",
          "name": "from",
          "type": "address"
        },
        {
          "indexed": true,
          "internalType": "address",
          "name": "to",
          "type": "address"
        },
        {
          "indexed": true,
          "internalType": "uint256",
          "name": "tokenId",
          "type": "uint256"
        }
      ],
      "name": "Transfer",
      "type": "event"
    },
    {
      "anonymous": false,
      "inputs": [
        {
          "indexed": true,
          "internalType": "address",
          "name": "implementation",
          "type": "address"
        }
      ],
      "name": "Upgraded",
      "type": "event"
    },
    {
      "inputs": [],
      "name": "UPGRADE_INTERFACE_VERSION",
      "outputs": [
        {
          "internalType": "string",
          "name": "",
          "type": "string"
        }
      ],
      "stateMutability": "view",
      "type": "function"
    },
    {
      "inputs": [
        {
          "internalType": "address",
          "name": "",
          "type": "address"
        }
      ],
      "name": "addressToTokenId",
      "outputs": [
        {
          "internalType": "uint256",
          "name": "",
          "type": "uint256"
        }
      ],
      "stateMutability": "view",
      "type": "function"
    },
    {
      "inputs": [
        {
          "internalType": "address",
          "name": "to",
          "type": "address"
        },
        {
          "internalType": "uint256",
          "name": "tokenId",
          "type": "uint256"
        }
      ],
      "name": "approve",
      "outputs": [],
      "stateMutability": "nonpayable",
      "type": "function"
    },
    {
      "inputs": [
        {
          "internalType": "address",
          "name": "owner",
          "type": "address"
        }
      ],
      "name": "balanceOf",
      "outputs": [
        {
          "internalType": "uint256",
          "name": "",
          "type": "uint256"
        }
      ],
      "stateMutability": "view",
      "type": "function"
    },
    {
      "inputs": [
        {
          "internalType": "string",
          "name": "name",
          "type": "string"
        },
        {
          "internalType": "uint256",
          "name": "birthYear",
          "type": "uint256"
        },
        {
          "internalType": "string",
          "name": "gender",
          "type": "string"
        },
        {
          "internalType": "string",
          "name": "interests",
          "type": "string"
        },
        {
          "internalType": "string",
          "name": "photoUrl",
          "type": "string"
        }
      ],
      "name": "createProfile",
      "outputs": [],
      "stateMutability": "nonpayable",
      "type": "function"
    },
    {
      "inputs": [],
      "name": "deleteProfile",
      "outputs": [],
      "stateMutability": "nonpayable",
      "type": "function"
    },
    {
      "inputs": [
        {
          "internalType": "string",
          "name": "email",
          "type": "string"
        }
      ],
      "name": "getAddressByEmail",
      "outputs": [
        {
          "internalType": "address",
          "name": "",
          "type": "address"
        }
      ],
      "stateMutability": "view",
      "type": "function"
    },
    {
      "inputs": [
        {
          "internalType": "uint256",
          "name": "tokenId",
          "type": "uint256"
        }
      ],
      "name": "getApproved",
      "outputs": [
        {
          "internalType": "address",
          "name": "",
          "type": "address"
        }
      ],
      "stateMutability": "view",
      "type": "function"
    },
    {
      "inputs": [
        {
          "internalType": "address",
          "name": "user",
          "type": "address"
        }
      ],
      "name": "getBirthYear",
      "outputs": [
        {
          "internalType": "uint256",
          "name": "",
          "type": "uint256"
        }
      ],
      "stateMutability": "view",
      "type": "function"
    },
    {
      "inputs": [
        {
          "internalType": "address",
          "name": "user",
          "type": "address"
        }
      ],
      "name": "getCurrentAge",
      "outputs": [
        {
          "internalType": "uint256",
          "name": "",
          "type": "uint256"
        }
      ],
      "stateMutability": "view",
      "type": "function"
    },
    {
      "inputs": [
        {
          "internalType": "address",
          "name": "user",
          "type": "address"
        }
      ],
      "name": "getProfile",
      "outputs": [
        {
          "components": [
            {
              "internalType": "uint256",
              "name": "tokenId",
              "type": "uint256"
            },
            {
              "internalType": "string",
              "name": "name",
              "type": "string"
            },
            {
              "internalType": "uint8",
              "name": "age",
              "type": "uint8"
            },
            {
              "internalType": "string",
              "name": "gender",
              "type": "string"
            },
            {
              "internalType": "string",
              "name": "interests",
              "type": "string"
            },
            {
              "internalType": "string",
              "name": "photoUrl",
              "type": "string"
            },
            {
              "internalType": "string",
              "name": "email",
              "type": "string"
            },
            {
              "internalType": "bool",
              "name": "exists",
              "type": "bool"
            },
            {
              "internalType": "uint256",
              "name": "birthYear",
              "type": "uint256"
            }
          ],
          "internalType": "struct ProfileNFT.Profile",
          "name": "",
          "type": "tuple"
        }
      ],
      "stateMutability": "view",
      "type": "function"
    },
    {
      "inputs": [
        {
          "internalType": "uint256",
          "name": "tokenId",
          "type": "uint256"
        }
      ],
      "name": "getProfileByTokenId",
      "outputs": [
        {
          "components": [
            {
              "internalType": "uint256",
              "name": "tokenId",
              "type": "uint256"
            },
            {
              "internalType": "string",
              "name": "name",
              "type": "string"
            },
            {
              "internalType": "uint8",
              "name": "age",
              "type": "uint8"
            },
            {
              "internalType": "string",
              "name": "gender",
              "type": "string"
            },
            {
              "internalType": "string",
              "name": "interests",
              "type": "string"
            },
            {
              "internalType": "string",
              "name": "photoUrl",
              "type": "string"
            },
            {
              "internalType": "string",
              "name": "email",
              "type": "string"
            },
            {
              "internalType": "bool",
              "name": "exists",
              "type": "bool"
            },
            {
              "internalType": "uint256",
              "name": "birthYear",
              "type": "uint256"
            }
          ],
          "internalType": "struct ProfileNFT.Profile",
          "name": "",
          "type": "tuple"
        }
      ],
      "stateMutability": "view",
      "type": "function"
    },
    {
      "inputs": [],
      "name": "initialize",
      "outputs": [],
      "stateMutability": "nonpayable",
      "type": "function"
    },
    {
      "inputs": [
        {
          "internalType": "address",
          "name": "owner",
          "type": "address"
        },
        {
          "internalType": "address",
          "name": "operator",
          "type": "address"
        }
      ],
      "name": "isApprovedForAll",
      "outputs": [
        {
          "internalType": "bool",
          "name": "",
          "type": "bool"
        }
      ],
      "stateMutability": "view",
      "type": "function"
    },
    {
      "inputs": [
        {
          "internalType": "string",
          "name": "email",
          "type": "string"
        }
      ],
      "name": "isEmailRegistered",
      "outputs": [
        {
          "internalType": "bool",
          "name": "",
          "type": "bool"
        }
      ],
      "stateMutability": "view",
      "type": "function"
    },
    {
      "inputs": [],
      "name": "matchingContract",
      "outputs": [
        {
          "internalType": "address",
          "name": "",
          "type": "address"
        }
      ],
      "stateMutability": "view",
      "type": "function"
    },
    {
      "inputs": [],
      "name": "name",
      "outputs": [
        {
          "internalType": "string",
          "name": "",
          "type": "string"
        }
      ],
      "stateMutability": "view",
      "type": "function"
    },
    {
      "inputs": [],
      "name": "owner",
      "outputs": [
        {
          "internalType": "address",
          "name": "",
          "type": "address"
        }
      ],
      "stateMutability": "view",
      "type": "function"
    },
    {
      "inputs": [
        {
          "internalType": "uint256",
          "name": "tokenId",
          "type": "uint256"
        }
      ],
      "name": "ownerOf",
      "outputs": [
        {
          "internalType": "address",
          "name": "",
          "type": "address"
        }
      ],
      "stateMutability": "view",
      "type": "function"
    },
    {
      "inputs": [
        {
          "internalType": "address",
          "name": "user",
          "type": "address"
        }
      ],
      "name": "profileExists",
      "outputs": [
        {
          "internalType": "bool",
          "name": "",
          "type": "bool"
        }
      ],
      "stateMutability": "view",
      "type": "function"
    },
    {
      "inputs": [
        {
          "internalType": "address",
          "name": "",
          "type": "address"
        }
      ],
      "name": "profiles",
      "outputs": [
        {
          "internalType": "uint256",
          "name": "tokenId",
          "type": "uint256"
        },
        {
          "internalType": "string",
          "name": "name",
          "type": "string"
        },
        {
          "internalType": "uint8",
          "name": "age",
          "type": "uint8"
        },
        {
          "internalType": "string",
          "name": "gender",
          "type": "string"
        },
        {
          "internalType": "string",
          "name": "interests",
          "type": "string"
        },
        {
          "internalType": "string",
          "name": "photoUrl",
          "type": "string"
        },
        {
          "internalType": "string",
          "name": "email",
          "type": "string"
        },
        {
          "internalType": "bool",
          "name": "exists",
          "type": "bool"
        },
        {
          "internalType": "uint256",
          "name": "birthYear",
          "type": "uint256"
        }
      ],
      "stateMutability": "view",
      "type": "function"
    },
    {
      "inputs": [],
      "name": "proxiableUUID",
      "outputs": [
        {
          "internalType": "bytes32",
          "name": "",
          "type": "bytes32"
        }
      ],
      "stateMutability": "view",
      "type": "function"
    },
    {
      "inputs": [
        {
          "internalType": "string",
          "name": "name",
          "type": "string"
        },
        {
          "internalType": "uint256",
          "name": "birthYear",
          "type": "uint256"
        },
        {
          "internalType": "string",
          "name": "gender",
          "type": "string"
        },
        {
          "internalType": "string",
          "name": "interests",
          "type": "string"
        },
        {
          "internalType": "string",
          "name": "email",
          "type": "string"
        }
      ],
      "name": "registerWithEmail",
      "outputs": [],
      "stateMutability": "nonpayable",
      "type": "function"
    },
    {
      "inputs": [],
      "name": "renounceOwnership",
      "outputs": [],
      "stateMutability": "nonpayable",
      "type": "function"
    },
    {
      "inputs": [
        {
          "internalType": "address",
          "name": "from",
          "type": "address"
        },
        {
          "internalType": "address",
          "name": "to",
          "type": "address"
        },
        {
          "internalType": "uint256",
          "name": "tokenId",
          "type": "uint256"
        }
      ],
      "name": "safeTransferFrom",
      "outputs": [],
      "stateMutability": "nonpayable",
      "type": "function"
    },
    {
      "inputs": [
        {
          "internalType": "address",
          "name": "",
          "type": "address"
        },
        {
          "internalType": "address",
          "name": "",
          "type": "address"
        },
        {
          "internalType": "uint256",
          "name": "",
          "type": "uint256"
        },
        {
          "internalType": "bytes",
          "name": "",
          "type": "bytes"
        }
      ],
      "name": "safeTransferFrom",
      "outputs": [],
      "stateMutability": "pure",
      "type": "function"
    },
    {
      "inputs": [
        {
          "internalType": "address",
          "name": "operator",
          "type": "address"
        },
        {
          "internalType": "bool",
          "name": "approved",
          "type": "bool"
        }
      ],
      "name": "setApprovalForAll",
      "outputs": [],
      "stateMutability": "nonpayable",
      "type": "function"
    },
    {
      "inputs": [
        {
          "internalType": "address",
          "name": "_matchingContract",
          "type": "address"
        }
      ],
      "name": "setMatchingContract",
      "outputs": [],
      "stateMutability": "nonpayable",
      "type": "function"
    },
    {
      "inputs": [
        {
          "internalType": "bytes4",
          "name": "interfaceId",
          "type": "bytes4"
        }
      ],
      "name": "supportsInterface",
      "outputs": [
        {
          "internalType": "bool",
          "name": "",
          "type": "bool"
        }
      ],
      "stateMutability": "view",
      "type": "function"
    },
    {
      "inputs": [],
      "name": "symbol",
      "outputs": [
        {
          "internalType": "string",
          "name": "",
          "type": "string"
        }
      ],
      "stateMutability": "view",
      "type": "function"
    },
    {
      "inputs": [
        {
          "internalType": "uint256",
          "name": "",
          "type": "uint256"
        }
      ],
      "name": "tokenIdToAddress",
      "outputs": [
        {
          "internalType": "address",
          "name": "",
          "type": "address"
        }
      ],
      "stateMutability": "view",
      "type": "function"
    },
    {
      "inputs": [
        {
          "internalType": "uint256",
          "name": "tokenId",
          "type": "uint256"
        }
      ],
      "name": "tokenURI",
      "outputs": [
        {
          "internalType": "string",
          "name": "",
          "type": "string"
        }
      ],
      "stateMutability": "view",
      "type": "function"
    },
    {
      "inputs": [
        {
          "internalType": "address",
          "name": "",
          "type": "address"
        },
        {
          "internalType": "address",
          "name": "",
          "type": "address"
        },
        {
          "internalType": "uint256",
          "name": "",
          "type": "uint256"
        }
      ],
      "name": "transferFrom",
      "outputs": [],
      "stateMutability": "pure",
      "type": "function"
    },
    {
      "inputs": [
        {
          "internalType": "address",
          "name": "newOwner",
          "type": "address"
        }
      ],
      "name": "transferOwnership",
      "outputs": [],
      "stateMutability": "nonpayable",
      "type": "function"
    },
    {
      "inputs": [
        {
          "internalType": "string",
          "name": "name",
          "type": "string"
        },
        {
          "internalType": "uint256",
          "name": "birthYear",
          "type": "uint256"
        },
        {
          "internalType": "string",
          "name": "gender",
          "type": "string"
        },
        {
          "internalType": "string",
          "name": "interests",
          "type": "string"
        },
        {
          "internalType": "string",
          "name": "photoUrl",
          "type": "string"
        },
        {
          "internalType": "string",
          "name": "email",
          "type": "string"
        }
      ],
      "name": "updateProfile",
      "outputs": [],
      "stateMutability": "nonpayable",
      "type": "function"
    },
    {
      "inputs": [
        {
          "internalType": "address",
          "name": "newImplementation",
          "type": "address"
        },
        {
          "internalType": "bytes",
          "name": "data",
          "type": "bytes"
        }
      ],
      "name": "upgradeToAndCall",
      "outputs": [],
      "stateMutability": "payable",
      "type": "function"
    }
  ],
  "bytecode": "0x60a060405230608052348015610013575f80fd5b50608051614dd961003a5f395f818161342f0152818161345801526135d60152614dd95ff3fe608060405260043610610243575f3560e01c8063715018a611610131578063b17e5292116100ac578063c5caea011161007c578063df3cdad711610062578063df3cdad7146106e1578063e985e9c514610700578063f2fde38b14610766575f80fd5b8063c5caea01146106a3578063c87b56dd146106c2575f80fd5b8063b17e529214610617578063b851b37314610636578063b88d4fde14610655578063bbe156271461066f575f80fd5b806395d89b4111610101578063a22cb465116100e7578063a22cb46514610591578063a7bacfc1146105b0578063ad3cb1cc146105cf575f80fd5b806395d89b411461055e578063995630ca14610572575f80fd5b8063715018a6146104db5780637b09a6e3146104ef5780638129fc1c1461050e5780638da5cb5b14610522575f80fd5b8063380a325a116101c157806353964b19116101915780636511bf2e116101775780636511bf2e1461047d5780636d4540eb146104a857806370a08231146104bc575f80fd5b806353964b191461043f5780636352211e1461045e575f80fd5b8063380a325a146103cc57806342842e0e146103eb5780634f1ef2861461040a57806352d1902d1461041d575f80fd5b806308bb76a5116102165780630f53a470116101fc5780630f53a470146103625780632182d9d71461038e57806323b872dd146103ad575f80fd5b806308bb76a51461030d578063095ea7b314610341575f80fd5b806301ffc9a71461024757806305cfa06f1461027b57806306fdde03146102b5578063081812fc146102d6575b5f80fd5b348015610252575f80fd5b5061026661026136600461438f565b610785565b60405190151581526020015b60405180910390f35b348015610286575f80fd5b506102666102953660046143c5565b6001600160a01b03165f9081526001602052604090206007015460ff1690565b3480156102c0575f80fd5b506102c9610821565b604051610272919061442b565b3480156102e1575f80fd5b506102f56102f036600461443d565b6108d5565b6040516001600160a01b039091168152602001610272565b348015610318575f80fd5b506102f561032736600461443d565b60036020525f90815260409020546001600160a01b031681565b34801561034c575f80fd5b5061036061035b366004614454565b61091b565b005b34801561036d575f80fd5b5061038161037c3660046143c5565b61092a565b604051610272919061447c565b348015610399575f80fd5b506103606103a83660046143c5565b610ca6565b3480156103b8575f80fd5b506103606103c7366004614558565b610d84565b3480156103d7575f80fd5b506103606103e636600461462e565b610dcc565b3480156103f6575f80fd5b50610360610405366004614558565b61136e565b6103606104183660046146dd565b61138d565b348015610428575f80fd5b506104316113a8565b604051908152602001610272565b34801561044a575f80fd5b506006546102f5906001600160a01b031681565b348015610469575f80fd5b506102f561047836600461443d565b6113d6565b348015610488575f80fd5b506104316104973660046143c5565b60026020525f908152604090205481565b3480156104b3575f80fd5b506103606113e0565b3480156104c7575f80fd5b506104316104d63660046143c5565b611941565b3480156104e6575f80fd5b506103606119c5565b3480156104fa575f80fd5b5061038161050936600461443d565b6119d8565b348015610519575f80fd5b50610360611db9565b34801561052d575f80fd5b507f9016d09d72d40fdae2fd8ceac6b6234c7706214fd39c1cd1e609a0528c199300546001600160a01b03166102f5565b348015610569575f80fd5b506102c9611f5a565b34801561057d575f80fd5b5061043161058c3660046143c5565b611fab565b34801561059c575f80fd5b506103606105ab366004614728565b612033565b3480156105bb575f80fd5b506104316105ca3660046143c5565b61203e565b3480156105da575f80fd5b506102c96040518060400160405280600581526020017f352e302e3000000000000000000000000000000000000000000000000000000081525081565b348015610622575f80fd5b50610360610631366004614761565b6120cc565b348015610641575f80fd5b5061036061065036600461462e565b6126e4565b348015610660575f80fd5b506103606103c7366004614832565b34801561067a575f80fd5b5061068e6106893660046143c5565b612b66565b60405161027299989796959493929190614896565b3480156106ae575f80fd5b506102f56106bd366004614922565b612e56565b3480156106cd575f80fd5b506102c96106dc36600461443d565b612e86565b3480156106ec575f80fd5b506102666106fb366004614922565b612ef7565b34801561070b575f80fd5b5061026661071a366004614954565b6001600160a01b039182165f9081527f80bb2b638cc20bc4d0a60d66940f3ab4a00c1d7b313497ca82fb0b4ab00793056020908152604080832093909416825291909152205460ff1690565b348015610771575f80fd5b506103606107803660046143c5565b612f21565b5f6001600160e01b031982167f80ac58cd0000000000000000000000000000000000000000000000000000000014806107e757506001600160e01b031982167f5b5e139f00000000000000000000000000000000000000000000000000000000145b8061081b57507f01ffc9a7000000000000000000000000000000000000000000000000000000006001600160e01b03198316145b92915050565b7f80bb2b638cc20bc4d0a60d66940f3ab4a00c1d7b313497ca82fb0b4ab0079300805460609190819061085390614985565b80601f016020809104026020016040519081016040528092919081815260200182805461087f90614985565b80156108ca5780601f106108a1576101008083540402835291602001916108ca565b820191905f5260205f20905b8154815290600101906020018083116108ad57829003601f168201915b505050505091505090565b5f6108df82612f77565b505f8281527f80bb2b638cc20bc4d0a60d66940f3ab4a00c1d7b313497ca82fb0b4ab007930460205260409020546001600160a01b031661081b565b610926828233612fce565b5050565b61097a6040518061012001604052805f8152602001606081526020015f60ff168152602001606081526020016060815260200160608152602001606081526020015f151581526020015f81525090565b6001600160a01b0382165f9081526001602081815260409283902083516101208101909452805484529182018054918401916109b590614985565b80601f01602080910402602001604051908101604052809291908181526020018280546109e190614985565b8015610a2c5780601f10610a0357610100808354040283529160200191610a2c565b820191905f5260205f20905b815481529060010190602001808311610a0f57829003601f168201915b5050509183525050600282015460ff166020820152600382018054604090920191610a5690614985565b80601f0160208091040260200160405190810160405280929190818152602001828054610a8290614985565b8015610acd5780601f10610aa457610100808354040283529160200191610acd565b820191905f5260205f20905b815481529060010190602001808311610ab057829003601f168201915b50505050508152602001600482018054610ae690614985565b80601f0160208091040260200160405190810160405280929190818152602001828054610b1290614985565b8015610b5d5780601f10610b3457610100808354040283529160200191610b5d565b820191905f5260205f20905b815481529060010190602001808311610b4057829003601f168201915b50505050508152602001600582018054610b7690614985565b80601f0160208091040260200160405190810160405280929190818152602001828054610ba290614985565b8015610bed5780601f10610bc457610100808354040283529160200191610bed565b820191905f5260205f20905b815481529060010190602001808311610bd057829003601f168201915b50505050508152602001600682018054610c0690614985565b80601f0160208091040260200160405190810160405280929190818152602001828054610c3290614985565b8015610c7d5780601f10610c5457610100808354040283529160200191610c7d565b820191905f5260205f20905b815481529060010190602001808311610c6057829003601f168201915b5050509183525050600782015460ff161515602082015260089091015460409091015292915050565b610cae612fdb565b6006546001600160a01b031615610d0c5760405162461bcd60e51b815260206004820152601d60248201527f4d61746368696e6720636f6e747261637420616c72656164792073657400000060448201526064015b60405180910390fd5b6001600160a01b038116610d625760405162461bcd60e51b815260206004820152600f60248201527f496e76616c6964206164647265737300000000000000000000000000000000006044820152606401610d03565b600680546001600160a01b0319166001600160a01b0392909216919091179055565b60405162461bcd60e51b815260206004820152601f60248201527f536f756c626f756e643a205472616e73666572206e6f7420616c6c6f776564006044820152606401610d03565b335f9081526001602052604090206007015460ff1615610e2e5760405162461bcd60e51b815260206004820152601660248201527f50726f66696c6520616c726561647920657869737473000000000000000000006044820152606401610d03565b5f8411610e765760405162461bcd60e51b8152602060048201526016602482015275109a5c9d1a081e59585c881b5d5cdd081899481cd95d60521b6044820152606401610d03565b6012610e818561304f565b1015610ecf5760405162461bcd60e51b815260206004820152601360248201527f4d757374206265203138206f72206f6c646572000000000000000000000000006044820152606401610d03565b6078610eda8561304f565b1115610f285760405162461bcd60e51b815260206004820152601560248201527f416765206d757374206265207265616c697374696300000000000000000000006044820152606401610d03565b6002855110158015610f3c57506064855111155b610f885760405162461bcd60e51b815260206004820152601d60248201527f4e616d65206d75737420626520322d31303020636861726163746572730000006044820152606401610d03565b5f8251118015610f9b57506101f4825111155b610ff25760405162461bcd60e51b815260206004820152602260248201527f496e74657265737473206d75737420626520312d353030206368617261637465604482015261727360f01b6064820152608401610d03565b5f8151116110425760405162461bcd60e51b815260206004820152601560248201527f456d61696c2063616e6e6f7420626520656d70747900000000000000000000006044820152606401610d03565b61104b81613165565b6110975760405162461bcd60e51b815260206004820152601460248201527f496e76616c696420656d61696c20666f726d61740000000000000000000000006044820152606401610d03565b5f6110a182613285565b90506004816040516110b391906149bd565b9081526040519081900360200190205460ff16156111135760405162461bcd60e51b815260206004820152601860248201527f456d61696c20616c7265616479207265676973746572656400000000000000006044820152606401610d03565b5f80549080611121836149ec565b90915550505f5460405160019060049061113c9085906149bd565b908152604051908190036020018120805492151560ff1990931692909217909155339060059061116d9085906149bd565b90815260200160405180910390205f6101000a8154816001600160a01b0302191690836001600160a01b031602179055506040518061012001604052808281526020018881526020016111bf8861304f565b60ff16815260208082018890526040808301889052805180830182525f808252606085019190915260808401879052600160a0850181905260c09094018b9052338152838352208351815590830151909182019061121d9082614a48565b50604082015160028201805460ff191660ff9092169190911790556060820151600382019061124c9082614a48565b50608082015160048201906112619082614a48565b5060a082015160058201906112769082614a48565b5060c0820151600682019061128b9082614a48565b5060e082015160078201805460ff191691151591909117905561010090910151600890910155335f8181526002602090815260408083208590558483526003909152902080546001600160a01b031916821790556112e9908261340b565b336001600160a01b03167f02ed4ee0412e67bbc9ed1687f3ad6bb7134d359d45994f3bf5302e91d81cf61f8289604051611324929190614b04565b60405180910390a27f47f02b73945ce0ca4c471ed60f05863657de8944610464aad740573b7c3b2d8c823360405161135d929190614b1c565b60405180910390a150505050505050565b61138883838360405180602001604052805f815250610d84565b505050565b611395613424565b61139e826134db565b61092682826134e3565b5f6113b16135cb565b507f360894a13ba1a3210667c828492db98dca3e2076cc3735a920a3ca505d382bbc90565b5f61081b82612f77565b335f9081526001602052604090206007015460ff166114415760405162461bcd60e51b815260206004820152601660248201527f50726f66696c6520646f6573206e6f74206578697374000000000000000000006044820152606401610d03565b335f9081526001602081815260408084208151610120810190925280548252928301805491939284019161147490614985565b80601f01602080910402602001604051908101604052809291908181526020018280546114a090614985565b80156114eb5780601f106114c2576101008083540402835291602001916114eb565b820191905f5260205f20905b8154815290600101906020018083116114ce57829003601f168201915b5050509183525050600282015460ff16602082015260038201805460409092019161151590614985565b80601f016020809104026020016040519081016040528092919081815260200182805461154190614985565b801561158c5780601f106115635761010080835404028352916020019161158c565b820191905f5260205f20905b81548152906001019060200180831161156f57829003601f168201915b505050505081526020016004820180546115a590614985565b80601f01602080910402602001604051908101604052809291908181526020018280546115d190614985565b801561161c5780601f106115f35761010080835404028352916020019161161c565b820191905f5260205f20905b8154815290600101906020018083116115ff57829003601f168201915b5050505050815260200160058201805461163590614985565b80601f016020809104026020016040519081016040528092919081815260200182805461166190614985565b80156116ac5780601f10611683576101008083540402835291602001916116ac565b820191905f5260205f20905b81548152906001019060200180831161168f57829003601f168201915b505050505081526020016006820180546116c590614985565b80601f01602080910402602001604051908101604052809291908181526020018280546116f190614985565b801561173c5780601f106117135761010080835404028352916020019161173c565b820191905f5260205f20905b81548152906001019060200180831161171f57829003601f168201915b5050509183525050600782015460ff1615156020820152600890910154604090910152805160c08201515191925090156117df575f61177e8360c00151613285565b90505f60048260405161179191906149bd565b908152604051908190036020018120805492151560ff19909316929092179091556005906117c09083906149bd565b90815260405190819003602001902080546001600160a01b0319169055505b6006546001600160a01b03161561185e576006546040517ff569f82f0000000000000000000000000000000000000000000000000000000081523360048201526001600160a01b039091169063f569f82f906024015f604051808303815f87803b15801561184b575f80fd5b505af192505050801561185c575060015b505b335f9081526001602081905260408220828155919061187f90830182614330565b60028201805460ff19169055611898600383015f614330565b6118a5600483015f614330565b6118b2600583015f614330565b6118bf600683015f614330565b5060078101805460ff191690555f60089091018190553381526002602090815260408083208390558383526003909152902080546001600160a01b031916905561190881613614565b60405181815233907f236eb7515b00733d8ade7456155d53d63c2fa66bec6437ddff6ab3fc71e1e3249060200160405180910390a25050565b5f7f80bb2b638cc20bc4d0a60d66940f3ab4a00c1d7b313497ca82fb0b4ab00793006001600160a01b0383166119a5576040517f89c62b640000000000000000000000000000000000000000000000000000000081525f6004820152602401610d03565b6001600160a01b039092165f908152600390920160205250604090205490565b6119cd612fdb565b6119d65f61364c565b565b611a286040518061012001604052805f8152602001606081526020015f60ff168152602001606081526020016060815260200160608152602001606081526020015f151581526020015f81525090565b5f828152600360205260409020546001600160a01b031680611a8c5760405162461bcd60e51b815260206004820152601460248201527f546f6b656e20646f6573206e6f742065786973740000000000000000000000006044820152606401610d03565b6001600160a01b0381165f908152600160208181526040928390208351610120810190945280548452918201805491840191611ac790614985565b80601f0160208091040260200160405190810160405280929190818152602001828054611af390614985565b8015611b3e5780601f10611b1557610100808354040283529160200191611b3e565b820191905f5260205f20905b815481529060010190602001808311611b2157829003601f168201915b5050509183525050600282015460ff166020820152600382018054604090920191611b6890614985565b80601f0160208091040260200160405190810160405280929190818152602001828054611b9490614985565b8015611bdf5780601f10611bb657610100808354040283529160200191611bdf565b820191905f5260205f20905b815481529060010190602001808311611bc257829003601f168201915b50505050508152602001600482018054611bf890614985565b80601f0160208091040260200160405190810160405280929190818152602001828054611c2490614985565b8015611c6f5780601f10611c4657610100808354040283529160200191611c6f565b820191905f5260205f20905b815481529060010190602001808311611c5257829003601f168201915b50505050508152602001600582018054611c8890614985565b80601f0160208091040260200160405190810160405280929190818152602001828054611cb490614985565b8015611cff5780601f10611cd657610100808354040283529160200191611cff565b820191905f5260205f20905b815481529060010190602001808311611ce257829003601f168201915b50505050508152602001600682018054611d1890614985565b80601f0160208091040260200160405190810160405280929190818152602001828054611d4490614985565b8015611d8f5780601f10611d6657610100808354040283529160200191611d8f565b820191905f5260205f20905b815481529060010190602001808311611d7257829003601f168201915b5050509183525050600782015460ff16151560208201526008909101546040909101529392505050565b5f611dc26136bc565b805490915060ff68010000000000000000820416159067ffffffffffffffff165f81158015611dee5750825b90505f8267ffffffffffffffff166001148015611e0a5750303b155b905081158015611e18575080155b15611e4f576040517ff92ee8a900000000000000000000000000000000000000000000000000000000815260040160405180910390fd5b845467ffffffffffffffff191660011785558315611e8357845468ff00000000000000001916680100000000000000001785555b611ef76040518060400160405280601181526020017f426173654d617463682050726f66696c650000000000000000000000000000008152506040518060400160405280600581526020017f424d50524f0000000000000000000000000000000000000000000000000000008152506136e4565b611f00336136f6565b611f08613707565b8315611f5357845468ff000000000000000019168555604051600181527fc7f505b2f371ae2175ee4913f4499e1f2633a7b5936321eed1cdaeb6115181d29060200160405180910390a15b5050505050565b7f80bb2b638cc20bc4d0a60d66940f3ab4a00c1d7b313497ca82fb0b4ab007930180546060917f80bb2b638cc20bc4d0a60d66940f3ab4a00c1d7b313497ca82fb0b4ab00793009161085390614985565b6001600160a01b0381165f9081526001602052604081206007015460ff166120155760405162461bcd60e51b815260206004820152601660248201527f50726f66696c6520646f6573206e6f74206578697374000000000000000000006044820152606401610d03565b506001600160a01b03165f9081526001602052604090206008015490565b61092633838361370f565b6001600160a01b0381165f9081526001602052604081206007015460ff166120a85760405162461bcd60e51b815260206004820152601660248201527f50726f66696c6520646f6573206e6f74206578697374000000000000000000006044820152606401610d03565b6001600160a01b0382165f9081526001602052604090206008015461081b906137ea565b335f9081526001602052604090206007015460ff1661212d5760405162461bcd60e51b815260206004820152601660248201527f50726f66696c6520646f6573206e6f74206578697374000000000000000000006044820152606401610d03565b5f85116121755760405162461bcd60e51b8152602060048201526016602482015275109a5c9d1a081e59585c881b5d5cdd081899481cd95d60521b6044820152606401610d03565b60126121808661304f565b10156121ce5760405162461bcd60e51b815260206004820152601360248201527f4d757374206265203138206f72206f6c646572000000000000000000000000006044820152606401610d03565b60786121d98661304f565b11156122275760405162461bcd60e51b815260206004820152601560248201527f416765206d757374206265207265616c697374696300000000000000000000006044820152606401610d03565b600286511015801561223b57506064865111155b6122875760405162461bcd60e51b815260206004820152601d60248201527f4e616d65206d75737420626520322d31303020636861726163746572730000006044820152606401610d03565b5f835111801561229a57506101f4835111155b6122f15760405162461bcd60e51b815260206004820152602260248201527f496e74657265737473206d75737420626520312d353030206368617261637465604482015261727360f01b6064820152608401610d03565b6101f4825111156123445760405162461bcd60e51b815260206004820152601260248201527f50686f746f2055524c20746f6f206c6f6e6700000000000000000000000000006044820152606401610d03565b5f845111801561235657506032845111155b6123a25760405162461bcd60e51b815260206004820152601460248201527f47656e646572206d7573742062652076616c69640000000000000000000000006044820152606401610d03565b80511561261a576123b281613165565b6123fe5760405162461bcd60e51b815260206004820152601460248201527f496e76616c696420656d61696c20666f726d61740000000000000000000000006044820152606401610d03565b5f61240882613285565b335f90815260016020526040902060060180549192506124ad9161242b90614985565b80601f016020809104026020016040519081016040528092919081815260200182805461245790614985565b80156124a25780601f10612479576101008083540402835291602001916124a2565b820191905f5260205f20905b81548152906001019060200180831161248557829003601f168201915b5050505050826138ad565b6125fc576004816040516124c191906149bd565b9081526040519081900360200190205460ff16156125215760405162461bcd60e51b815260206004820152601860248201527f456d61696c20616c7265616479207265676973746572656400000000000000006044820152606401610d03565b335f908152600160205260408120600601805461253d90614985565b9050111561258957335f90815260016020526040808220905160049161256891600690910190614b46565b908152604051908190036020019020805491151560ff199092169190911790555b600160048260405161259b91906149bd565b908152604051908190036020018120805492151560ff199093169290921790915533906005906125cc9084906149bd565b90815260405190819003602001902080546001600160a01b03929092166001600160a01b03199092169190911790555b335f9081526001602052604090206006016126178282614a48565b50505b335f9081526001602081905260409091209081016126388882614a48565b506126428661304f565b60028201805460ff191660ff92909216919091179055600381016126668682614a48565b50600481016126758582614a48565b50600581016126848482614a48565b5060088101869055337fd2282224fd99d3b00900efdf8914e5140da819cc70160ecae5b67e2ba3eb679d886126b88961304f565b888888876006018d6040516126d39796959493929190614bb8565b60405180910390a250505050505050565b335f9081526001602052604090206007015460ff16156127465760405162461bcd60e51b815260206004820152601660248201527f50726f66696c6520616c726561647920657869737473000000000000000000006044820152606401610d03565b5f841161278e5760405162461bcd60e51b8152602060048201526016602482015275109a5c9d1a081e59585c881b5d5cdd081899481cd95d60521b6044820152606401610d03565b60126127998561304f565b10156127e75760405162461bcd60e51b815260206004820152601360248201527f4d757374206265203138206f72206f6c646572000000000000000000000000006044820152606401610d03565b60786127f28561304f565b11156128405760405162461bcd60e51b815260206004820152601560248201527f416765206d757374206265207265616c697374696300000000000000000000006044820152606401610d03565b600285511015801561285457506064855111155b6128a05760405162461bcd60e51b815260206004820152601d60248201527f4e616d65206d75737420626520322d31303020636861726163746572730000006044820152606401610d03565b5f82511180156128b357506101f4825111155b61290a5760405162461bcd60e51b815260206004820152602260248201527f496e74657265737473206d75737420626520312d353030206368617261637465604482015261727360f01b6064820152608401610d03565b6101f48151111561295d5760405162461bcd60e51b815260206004820152601260248201527f50686f746f2055524c20746f6f206c6f6e6700000000000000000000000000006044820152606401610d03565b5f835111801561296f57506032835111155b6129bb5760405162461bcd60e51b815260206004820152601460248201527f47656e646572206d7573742062652076616c69640000000000000000000000006044820152606401610d03565b5f805490806129c9836149ec565b90915550505f546040805161012081018252828152602081018890529081016129f18761304f565b60ff1681526020808201879052604080830187905260608301869052805180830182525f8082526080850191909152600160a0850181905260c09094018a90523381528383522083518155908301519091820190612a4f9082614a48565b50604082015160028201805460ff191660ff90921691909117905560608201516003820190612a7e9082614a48565b5060808201516004820190612a939082614a48565b5060a08201516005820190612aa89082614a48565b5060c08201516006820190612abd9082614a48565b5060e082015160078201805460ff191691151591909117905561010090910151600890910155335f8181526002602090815260408083208590558483526003909152902080546001600160a01b03191682179055612b1b908261340b565b336001600160a01b03167f02ed4ee0412e67bbc9ed1687f3ad6bb7134d359d45994f3bf5302e91d81cf61f8288604051612b56929190614b04565b60405180910390a2505050505050565b600160208190525f918252604090912080549181018054612b8690614985565b80601f0160208091040260200160405190810160405280929190818152602001828054612bb290614985565b8015612bfd5780601f10612bd457610100808354040283529160200191612bfd565b820191905f5260205f20905b815481529060010190602001808311612be057829003601f168201915b5050506002840154600385018054949560ff909216949193509150612c2190614985565b80601f0160208091040260200160405190810160405280929190818152602001828054612c4d90614985565b8015612c985780601f10612c6f57610100808354040283529160200191612c98565b820191905f5260205f20905b815481529060010190602001808311612c7b57829003601f168201915b505050505090806004018054612cad90614985565b80601f0160208091040260200160405190810160405280929190818152602001828054612cd990614985565b8015612d245780601f10612cfb57610100808354040283529160200191612d24565b820191905f5260205f20905b815481529060010190602001808311612d0757829003601f168201915b505050505090806005018054612d3990614985565b80601f0160208091040260200160405190810160405280929190818152602001828054612d6590614985565b8015612db05780601f10612d8757610100808354040283529160200191612db0565b820191905f5260205f20905b815481529060010190602001808311612d9357829003601f168201915b505050505090806006018054612dc590614985565b80601f0160208091040260200160405190810160405280929190818152602001828054612df190614985565b8015612e3c5780601f10612e1357610100808354040283529160200191612e3c565b820191905f5260205f20905b815481529060010190602001808311612e1f57829003601f168201915b505050506007830154600890930154919260ff1691905089565b5f600582604051612e6791906149bd565b908152604051908190036020019020546001600160a01b031692915050565b6060612e9182612f77565b505f612ea760408051602081019091525f815290565b90505f815111612ec55760405180602001604052805f815250612ef0565b80612ecf84613905565b604051602001612ee0929190614ca0565b6040516020818303038152906040525b9392505050565b5f600482604051612f0891906149bd565b9081526040519081900360200190205460ff1692915050565b612f29612fdb565b6001600160a01b038116612f6b576040517f1e4fbdf70000000000000000000000000000000000000000000000000000000081525f6004820152602401610d03565b612f748161364c565b50565b5f8181527f80bb2b638cc20bc4d0a60d66940f3ab4a00c1d7b313497ca82fb0b4ab007930260205260408120546001600160a01b03168061081b57604051637e27328960e01b815260048101849052602401610d03565b61138883838360016139a2565b3361300d7f9016d09d72d40fdae2fd8ceac6b6234c7706214fd39c1cd1e609a0528c199300546001600160a01b031690565b6001600160a01b0316146119d6576040517f118cdaa7000000000000000000000000000000000000000000000000000000008152336004820152602401610d03565b5f8082116130985760405162461bcd60e51b8152602060048201526016602482015275109a5c9d1a081e59585c881b5d5cdd081899481cd95d60521b6044820152606401610d03565b6130a142613b1e565b8211156130fb5760405162461bcd60e51b815260206004820152602260248201527f426972746820796561722063616e6e6f7420626520696e207468652066757475604482015261726560f01b6064820152608401610d03565b5f61310542613b1e565b90505f6131128483614cce565b905060ff811115612ef05760405162461bcd60e51b815260206004820152601860248201527f41676520746f6f206869676820666f722073746f7261676500000000000000006044820152606401610d03565b5f8082905060058151101561317c57505f92915050565b60fe8151111561318e57505f92915050565b5f805f805b845181101561326d575f8582815181106131af576131af614ce1565b01602001516001600160f81b03191690507f400000000000000000000000000000000000000000000000000000000000000081900361322457846131f2816149ec565b9550600194505081158061321257506001865161320f9190614cce565b82145b1561322457505f979650505050505050565b83801561325a57507f2e000000000000000000000000000000000000000000000000000000000000006001600160f81b03198216145b1561326457600192505b50600101613193565b5082600114801561327b5750805b9695505050505050565b60605f8290505f815167ffffffffffffffff8111156132a6576132a6614591565b6040519080825280601f01601f1916602001820160405280156132d0576020820181803683370190505b5090505f5b8251811015613403575f8382815181106132f1576132f1614ce1565b01602001516001600160f81b03191690507f4100000000000000000000000000000000000000000000000000000000000000811080159061335c57507f5a000000000000000000000000000000000000000000000000000000000000006001600160f81b0319821611155b156133b85761337060f882901c6020614cf5565b60f81b83838151811061338557613385614ce1565b60200101907effffffffffffffffffffffffffffffffffffffffffffffffffffffffffffff191690815f1a9053506133fa565b808383815181106133cb576133cb614ce1565b60200101907effffffffffffffffffffffffffffffffffffffffffffffffffffffffffffff191690815f1a9053505b506001016132d5565b509392505050565b610926828260405180602001604052805f815250613b4a565b306001600160a01b037f00000000000000000000000000000000000000000000000000000000000000001614806134bd57507f00000000000000000000000000000000000000000000000000000000000000006001600160a01b03166134b17f360894a13ba1a3210667c828492db98dca3e2076cc3735a920a3ca505d382bbc546001600160a01b031690565b6001600160a01b031614155b156119d65760405163703e46dd60e11b815260040160405180910390fd5b612f74612fdb565b816001600160a01b03166352d1902d6040518163ffffffff1660e01b8152600401602060405180830381865afa92505050801561353d575060408051601f3d908101601f1916820190925261353a91810190614d0e565b60015b61356557604051634c9c8ce360e01b81526001600160a01b0383166004820152602401610d03565b7f360894a13ba1a3210667c828492db98dca3e2076cc3735a920a3ca505d382bbc81146135c1576040517faa1d49a400000000000000000000000000000000000000000000000000000000815260048101829052602401610d03565b6113888383613b61565b306001600160a01b037f000000000000000000000000000000000000000000000000000000000000000016146119d65760405163703e46dd60e11b815260040160405180910390fd5b5f6136205f835f613bb6565b90506001600160a01b03811661092657604051637e27328960e01b815260048101839052602401610d03565b7f9016d09d72d40fdae2fd8ceac6b6234c7706214fd39c1cd1e609a0528c19930080546001600160a01b031981166001600160a01b03848116918217845560405192169182907f8be0079c531659141344cd1fd0a4f28419497f9722a3daafe3b4186f6b6457e0905f90a3505050565b5f807ff0c57e16840df040f15088dc2f81fe391c3923bec73e23a9662efc9c229c6a0061081b565b6136ec613cf0565b6109268282613d2e565b6136fe613cf0565b612f7481613d77565b6119d6613cf0565b7f80bb2b638cc20bc4d0a60d66940f3ab4a00c1d7b313497ca82fb0b4ab00793006001600160a01b03831661377b576040517f5b08ba180000000000000000000000000000000000000000000000000000000081526001600160a01b0384166004820152602401610d03565b6001600160a01b038481165f818152600584016020908152604080832094881680845294825291829020805460ff191687151590811790915591519182527f17307eab39ab6107e8899845ad3d59bd9653f200f220920489ca2b5937696c31910160405180910390a350505050565b5f8082116138335760405162461bcd60e51b8152602060048201526016602482015275109a5c9d1a081e59585c881b5d5cdd081899481cd95d60521b6044820152606401610d03565b4282111561388e5760405162461bcd60e51b815260206004820152602260248201527f426972746820796561722063616e6e6f7420626520696e207468652066757475604482015261726560f01b6064820152608401610d03565b5f61389842613b1e565b90505f6138a58483614cce565b949350505050565b5f816040516020016138bf91906149bd565b60405160208183030381529060405280519060200120836040516020016138e691906149bd565b6040516020818303038152906040528051906020012014905092915050565b60605f61391183613d7f565b60010190505f8167ffffffffffffffff81111561393057613930614591565b6040519080825280601f01601f19166020018201604052801561395a576020820181803683370190505b5090508181016020015b5f19017f3031323334353637383961626364656600000000000000000000000000000000600a86061a8153600a850494508461396457509392505050565b7f80bb2b638cc20bc4d0a60d66940f3ab4a00c1d7b313497ca82fb0b4ab007930081806139d757506001600160a01b03831615155b15613aee575f6139e685612f77565b90506001600160a01b03841615801590613a125750836001600160a01b0316816001600160a01b031614155b8015613a6257506001600160a01b038082165f9081527f80bb2b638cc20bc4d0a60d66940f3ab4a00c1d7b313497ca82fb0b4ab0079305602090815260408083209388168352929052205460ff16155b15613aa4576040517fa9fbf51f0000000000000000000000000000000000000000000000000000000081526001600160a01b0385166004820152602401610d03565b8215613aec5784866001600160a01b0316826001600160a01b03167f8c5be1e5ebec7d5bd14f71427d1e84f3dd0314c0f7b2291e5b200ac8c7c3b92560405160405180910390a45b505b5f93845260040160205250506040902080546001600160a01b0319166001600160a01b0392909216919091179055565b5f6201518061016d82613b318386614d25565b90505f613b3e8383614d25565b61327b906107b2614d44565b613b548383613e60565b611388335f858585613eda565b613b6a82614001565b6040516001600160a01b038316907fbc7cd75a20ee27fd9adebab32041f755214dbc6bffa90cc0225b39da2e5c2d3b905f90a2805115613bae576113888282614077565b6109266140e9565b5f8281527f80bb2b638cc20bc4d0a60d66940f3ab4a00c1d7b313497ca82fb0b4ab007930260205260408120547f80bb2b638cc20bc4d0a60d66940f3ab4a00c1d7b313497ca82fb0b4ab0079300906001600160a01b0390811690841615613c2357613c23818587614121565b6001600160a01b03811615613c5f57613c3e5f865f806139a2565b6001600160a01b0381165f908152600383016020526040902080545f190190555b6001600160a01b03861615613c8f576001600160a01b0386165f9081526003830160205260409020805460010190555b5f85815260028301602052604080822080546001600160a01b0319166001600160a01b038a811691821790925591518893918516917fddf252ad1be2c89b69c2b068fc378daa952ba7f163c4a11628f55a4df523b3ef91a495945050505050565b613cf861419e565b6119d6576040517fd7e6bcf800000000000000000000000000000000000000000000000000000000815260040160405180910390fd5b613d36613cf0565b7f80bb2b638cc20bc4d0a60d66940f3ab4a00c1d7b313497ca82fb0b4ab007930080613d628482614a48565b5060018101613d718382614a48565b50505050565b612f29613cf0565b5f807a184f03e93ff9f4daa797ed6e38ed64bf6a1f0100000000000000008310613dc7577a184f03e93ff9f4daa797ed6e38ed64bf6a1f010000000000000000830492506040015b6d04ee2d6d415b85acef81000000008310613df3576d04ee2d6d415b85acef8100000000830492506020015b662386f26fc100008310613e1157662386f26fc10000830492506010015b6305f5e1008310613e29576305f5e100830492506008015b6127108310613e3d57612710830492506004015b60648310613e4f576064830492506002015b600a831061081b5760010192915050565b6001600160a01b038216613e8957604051633250574960e11b81525f6004820152602401610d03565b5f613e9583835f613bb6565b90506001600160a01b03811615611388576040517f73c6ac6e0000000000000000000000000000000000000000000000000000000081525f6004820152602401610d03565b6001600160a01b0383163b15611f5357604051630a85bd0160e11b81526001600160a01b0384169063150b7a0290613f1c908890889087908790600401614d57565b6020604051808303815f875af1925050508015613f56575060408051601f3d908101601f19168201909252613f5391810190614d88565b60015b613fbd573d808015613f83576040519150601f19603f3d011682016040523d82523d5f602084013e613f88565b606091505b5080515f03613fb557604051633250574960e11b81526001600160a01b0385166004820152602401610d03565b805160208201fd5b6001600160e01b03198116630a85bd0160e11b14613ff957604051633250574960e11b81526001600160a01b0385166004820152602401610d03565b505050505050565b806001600160a01b03163b5f0361403657604051634c9c8ce360e01b81526001600160a01b0382166004820152602401610d03565b7f360894a13ba1a3210667c828492db98dca3e2076cc3735a920a3ca505d382bbc80546001600160a01b0319166001600160a01b0392909216919091179055565b60605f80846001600160a01b03168460405161409391906149bd565b5f60405180830381855af49150503d805f81146140cb576040519150601f19603f3d011682016040523d82523d5f602084013e6140d0565b606091505b50915091506140e08583836141bc565b95945050505050565b34156119d6576040517fb398979f00000000000000000000000000000000000000000000000000000000815260040160405180910390fd5b61412c838383614231565b611388576001600160a01b03831661415a57604051637e27328960e01b815260048101829052602401610d03565b6040517f177e802f0000000000000000000000000000000000000000000000000000000081526001600160a01b038316600482015260248101829052604401610d03565b5f6141a76136bc565b5468010000000000000000900460ff16919050565b6060826141d1576141cc826142ef565b612ef0565b81511580156141e857506001600160a01b0384163b155b1561422a576040517f9996b3150000000000000000000000000000000000000000000000000000000081526001600160a01b0385166004820152602401610d03565b5080612ef0565b5f6001600160a01b038316158015906138a55750826001600160a01b0316846001600160a01b031614806142a857506001600160a01b038085165f9081527f80bb2b638cc20bc4d0a60d66940f3ab4a00c1d7b313497ca82fb0b4ab0079305602090815260408083209387168352929052205460ff165b806138a55750505f9081527f80bb2b638cc20bc4d0a60d66940f3ab4a00c1d7b313497ca82fb0b4ab007930460205260409020546001600160a01b03908116911614919050565b8051156142fe57805160208201fd5b6040517fd6bda27500000000000000000000000000000000000000000000000000000000815260040160405180910390fd5b50805461433c90614985565b5f825580601f1061434b575050565b601f0160209004905f5260205f2090810190612f7491905b80821115614376575f8155600101614363565b5090565b6001600160e01b031981168114612f74575f80fd5b5f6020828403121561439f575f80fd5b8135612ef08161437a565b80356001600160a01b03811681146143c0575f80fd5b919050565b5f602082840312156143d5575f80fd5b612ef0826143aa565b5f5b838110156143f85781810151838201526020016143e0565b50505f910152565b5f81518084526144178160208601602086016143de565b601f01601f19169290920160200192915050565b602081525f612ef06020830184614400565b5f6020828403121561444d575f80fd5b5035919050565b5f8060408385031215614465575f80fd5b61446e836143aa565b946020939093013593505050565b60208152815160208201525f60208301516101208060408501526144a4610140850183614400565b915060408501516144ba606086018260ff169052565b506060850151601f19808685030160808701526144d78483614400565b935060808701519150808685030160a08701526144f48483614400565b935060a08701519150808685030160c08701526145118483614400565b935060c08701519150808685030160e08701525061452f8382614400565b92505060e08501516101006145478187018315159052565b959095015193019290925250919050565b5f805f6060848603121561456a575f80fd5b614573846143aa565b9250614581602085016143aa565b9150604084013590509250925092565b634e487b7160e01b5f52604160045260245ffd5b5f82601f8301126145b4575f80fd5b813567ffffffffffffffff808211156145cf576145cf614591565b604051601f8301601f19908116603f011681019082821181831017156145f7576145f7614591565b8160405283815286602085880101111561460f575f80fd5b836020870160208301375f602085830101528094505050505092915050565b5f805f805f60a08688031215614642575f80fd5b853567ffffffffffffffff80821115614659575f80fd5b61466589838a016145a5565b9650602088013595506040880135915080821115614681575f80fd5b61468d89838a016145a5565b945060608801359150808211156146a2575f80fd5b6146ae89838a016145a5565b935060808801359150808211156146c3575f80fd5b506146d0888289016145a5565b9150509295509295909350565b5f80604083850312156146ee575f80fd5b6146f7836143aa565b9150602083013567ffffffffffffffff811115614712575f80fd5b61471e858286016145a5565b9150509250929050565b5f8060408385031215614739575f80fd5b614742836143aa565b915060208301358015158114614756575f80fd5b809150509250929050565b5f805f805f8060c08789031215614776575f80fd5b863567ffffffffffffffff8082111561478d575f80fd5b6147998a838b016145a5565b97506020890135965060408901359150808211156147b5575f80fd5b6147c18a838b016145a5565b955060608901359150808211156147d6575f80fd5b6147e28a838b016145a5565b945060808901359150808211156147f7575f80fd5b6148038a838b016145a5565b935060a0890135915080821115614818575f80fd5b5061482589828a016145a5565b9150509295509295509295565b5f805f8060808587031215614845575f80fd5b61484e856143aa565b935061485c602086016143aa565b925060408501359150606085013567ffffffffffffffff81111561487e575f80fd5b61488a878288016145a5565b91505092959194509250565b5f6101208b83528060208401526148af8184018c614400565b905060ff8a16604084015282810360608401526148cc818a614400565b905082810360808401526148e08189614400565b905082810360a08401526148f48188614400565b905082810360c08401526149088187614400565b94151560e084015250506101000152979650505050505050565b5f60208284031215614932575f80fd5b813567ffffffffffffffff811115614948575f80fd5b6138a5848285016145a5565b5f8060408385031215614965575f80fd5b61496e836143aa565b915061497c602084016143aa565b90509250929050565b600181811c9082168061499957607f821691505b6020821081036149b757634e487b7160e01b5f52602260045260245ffd5b50919050565b5f82516149ce8184602087016143de565b9190910192915050565b634e487b7160e01b5f52601160045260245ffd5b5f600182016149fd576149fd6149d8565b5060010190565b601f82111561138857805f5260205f20601f840160051c81016020851015614a295750805b601f840160051c820191505b81811015611f53575f8155600101614a35565b815167ffffffffffffffff811115614a6257614a62614591565b614a7681614a708454614985565b84614a04565b602080601f831160018114614aa9575f8415614a925750858301515b5f19600386901b1c1916600185901b178555613ff9565b5f85815260208120601f198616915b82811015614ad757888601518255948401946001909101908401614ab8565b5085821015614af457878501515f19600388901b60f8161c191681555b5050505050600190811b01905550565b828152604060208201525f6138a56040830184614400565b604081525f614b2e6040830185614400565b90506001600160a01b03831660208301529392505050565b5f808354614b5381614985565b60018281168015614b6b5760018114614b8057614bac565b60ff1984168752821515830287019450614bac565b875f526020805f205f5b85811015614ba35781548a820152908401908201614b8a565b50505082870194505b50929695505050505050565b60e081525f614bca60e083018a614400565b602060ff8a16818501528382036040850152614be6828a614400565b91508382036060850152614bfa8289614400565b91508382036080850152614c0e8288614400565b915083820360a08501525f8654614c2481614985565b80855260018281168015614c3f5760018114614c5957614c84565b60ff1984168787015282151560051b870186019450614c84565b8a5f52855f205f5b84811015614c7c578154898201890152908301908701614c61565b880187019550505b505050508093505050508260c083015298975050505050505050565b5f8351614cb18184602088016143de565b835190830190614cc58183602088016143de565b01949350505050565b8181038181111561081b5761081b6149d8565b634e487b7160e01b5f52603260045260245ffd5b60ff818116838216019081111561081b5761081b6149d8565b5f60208284031215614d1e575f80fd5b5051919050565b5f82614d3f57634e487b7160e01b5f52601260045260245ffd5b500490565b8082018082111561081b5761081b6149d8565b5f6001600160a01b0380871683528086166020840152508360408301526080606083015261327b6080830184614400565b5f60208284031215614d98575f80fd5b8151612ef08161437a56fea264697066735822122032e6ff19bb9c7b44e5f25540b66fe0d6021edf6f029d0d0cf08509126df0ce0e64736f6c63430008160033",
  "linkReferences": {},
  "deployedLinkReferences": {}
}