{
  "_format": "hh-sol-artifact-1",
  "contractName": "ProfileNFT",
  "sourceName": "contracts/ProfileNFT.sol",
  "abi": [
    {
      "inputs": [
        {
          "internalType": "address",
          "name": "target",
          "type": "address"
        }
      ],
      "name": "AddressEmptyCode",
      "type": "error"
    },
    {
      "inputs": [
        {
          "internalType": "address",
          "name": "implementation",
          "type": "address"
        }
      ],
      "name": "ERC1967InvalidImplementation",
      "type": "error"
    },
    {
      "inputs": [],
      "name": "ERC1967NonPayable",
      "type": "error"
    },
    {
      "inputs": [
        {
          "internalType": "address",
          "name": "sender",
          "type": "address"
        },
        {
          "internalType": "uint256",
          "name": "tokenId",
          "type": "uint256"
        },
        {
          "internalType": "address",
          "name": "owner",
          "type": "address"
        }
      ],
      "name": "ERC721IncorrectOwner",
      "type": "error"
    },
    {
      "inputs": [
        {
          "internalType": "address",
          "name": "operator",
          "type": "address"
        },
        {
          "internalType": "uint256",
          "name": "tokenId",
          "type": "uint256"
        }
      ],
      "name": "ERC721InsufficientApproval",
      "type": "error"
    },
    {
      "inputs": [
        {
          "internalType": "address",
          "name": "approver",
          "type": "address"
        }
      ],
      "name": "ERC721InvalidApprover",
      "type": "error"
    },
    {
      "inputs": [
        {
          "internalType": "address",
          "name": "operator",
          "type": "address"
        }
      ],
      "name": "ERC721InvalidOperator",
      "type": "error"
    },
    {
      "inputs": [
        {
          "internalType": "address",
          "name": "owner",
          "type": "address"
        }
      ],
      "name": "ERC721InvalidOwner",
      "type": "error"
    },
    {
      "inputs": [
        {
          "internalType": "address",
          "name": "receiver",
          "type": "address"
        }
      ],
      "name": "ERC721InvalidReceiver",
      "type": "error"
    },
    {
      "inputs": [
        {
          "internalType": "address",
          "name": "sender",
          "type": "address"
        }
      ],
      "name": "ERC721InvalidSender",
      "type": "error"
    },
    {
      "inputs": [
        {
          "internalType": "uint256",
          "name": "tokenId",
          "type": "uint256"
        }
      ],
      "name": "ERC721NonexistentToken",
      "type": "error"
    },
    {
      "inputs": [],
      "name": "FailedCall",
      "type": "error"
    },
    {
      "inputs": [],
      "name": "InvalidInitialization",
      "type": "error"
    },
    {
      "inputs": [],
      "name": "NotInitializing",
      "type": "error"
    },
    {
      "inputs": [
        {
          "internalType": "address",
          "name": "owner",
          "type": "address"
        }
      ],
      "name": "OwnableInvalidOwner",
      "type": "error"
    },
    {
      "inputs": [
        {
          "internalType": "address",
          "name": "account",
          "type": "address"
        }
      ],
      "name": "OwnableUnauthorizedAccount",
      "type": "error"
    },
    {
      "inputs": [],
      "name": "UUPSUnauthorizedCallContext",
      "type": "error"
    },
    {
      "inputs": [
        {
          "internalType": "bytes32",
          "name": "slot",
          "type": "bytes32"
        }
      ],
      "name": "UUPSUnsupportedProxiableUUID",
      "type": "error"
    },
    {
      "anonymous": false,
      "inputs": [
        {
          "indexed": true,
          "internalType": "address",
          "name": "owner",
          "type": "address"
        },
        {
          "indexed": true,
          "internalType": "address",
          "name": "approved",
          "type": "address"
        },
        {
          "indexed": true,
          "internalType": "uint256",
          "name": "tokenId",
          "type": "uint256"
        }
      ],
      "name": "Approval",
      "type": "event"
    },
    {
      "anonymous": false,
      "inputs": [
        {
          "indexed": true,
          "internalType": "address",
          "name": "owner",
          "type": "address"
        },
        {
          "indexed": true,
          "internalType": "address",
          "name": "operator",
          "type": "address"
        },
        {
          "indexed": false,
          "internalType": "bool",
          "name": "approved",
          "type": "bool"
        }
      ],
      "name": "ApprovalForAll",
      "type": "event"
    },
    {
      "anonymous": false,
      "inputs": [
        {
          "indexed": false,
          "internalType": "string",
          "name": "email",
          "type": "string"
        },
        {
          "indexed": false,
          "internalType": "address",
          "name": "user",
          "type": "address"
        }
      ],
      "name": "EmailRegistered",
      "type": "event"
    },
    {
      "anonymous": false,
      "inputs": [
        {
          "indexed": false,
          "internalType": "uint64",
          "name": "version",
          "type": "uint64"
        }
      ],
      "name": "Initialized",
      "type": "event"
    },
    {
      "anonymous": false,
      "inputs": [
        {
          "indexed": true,
          "internalType": "address",
          "name": "previousOwner",
          "type": "address"
        },
        {
          "indexed": true,
          "internalType": "address",
          "name": "newOwner",
          "type": "address"
        }
      ],
      "name": "OwnershipTransferred",
      "type": "event"
    },
    {
      "anonymous": false,
      "inputs": [
        {
          "indexed": true,
          "internalType": "address",
          "name": "user",
          "type": "address"
        },
        {
          "indexed": false,
          "internalType": "uint256",
          "name": "tokenId",
          "type": "uint256"
        },
        {
          "indexed": false,
          "internalType": "string",
          "name": "name",
          "type": "string"
        }
      ],
      "name": "ProfileCreated",
      "type": "event"
    },
    {
      "anonymous": false,
      "inputs": [
        {
          "indexed": true,
          "internalType": "address",
          "name": "user",
          "type": "address"
        },
        {
          "indexed": false,
          "internalType": "uint256",
          "name": "tokenId",
          "type": "uint256"
        }
      ],
      "name": "ProfileDeleted",
      "type": "event"
    },
    {
      "anonymous": false,
      "inputs": [
        {
          "indexed": true,
          "internalType": "address",
          "name": "user",
          "type": "address"
        },
        {
          "indexed": false,
          "internalType": "string",
          "name": "name",
          "type": "string"
        },
        {
          "indexed": false,
          "internalType": "uint8",
          "name": "age",
          "type": "uint8"
        },
        {
          "indexed": false,
          "internalType": "string",
          "name": "gender",
          "type": "string"
        },
        {
          "indexed": false,
          "internalType": "string",
          "name": "interests",
          "type": "string"
        },
        {
          "indexed": false,
          "internalType": "string",
          "name": "photoUrl",
          "type": "string"
        },
        {
          "indexed": false,
          "internalType": "string",
          "name": "email",
          "type": "string"
        }
      ],
      "name": "ProfileUpdated",
      "type": "event"
    },
    {
      "anonymous": false,
      "inputs": [
        {
          "indexed": true,
          "internalType": "address",
          "name": "from",
          "type": "address"
        },
        {
          "indexed": true,
          "internalType": "address",
          "name": "to",
          "type": "address"
        },
        {
          "indexed": true,
          "internalType": "uint256",
          "name": "tokenId",
          "type": "uint256"
        }
      ],
      "name": "Transfer",
      "type": "event"
    },
    {
      "anonymous": false,
      "inputs": [
        {
          "indexed": true,
          "internalType": "address",
          "name": "implementation",
          "type": "address"
        }
      ],
      "name": "Upgraded",
      "type": "event"
    },
    {
      "inputs": [],
      "name": "UPGRADE_INTERFACE_VERSION",
      "outputs": [
        {
          "internalType": "string",
          "name": "",
          "type": "string"
        }
      ],
      "stateMutability": "view",
      "type": "function"
    },
    {
      "inputs": [
        {
          "internalType": "address",
          "name": "",
          "type": "address"
        }
      ],
      "name": "addressToTokenId",
      "outputs": [
        {
          "internalType": "uint256",
          "name": "",
          "type": "uint256"
        }
      ],
      "stateMutability": "view",
      "type": "function"
    },
    {
      "inputs": [
        {
          "internalType": "address",
          "name": "to",
          "type": "address"
        },
        {
          "internalType": "uint256",
          "name": "tokenId",
          "type": "uint256"
        }
      ],
      "name": "approve",
      "outputs": [],
      "stateMutability": "nonpayable",
      "type": "function"
    },
    {
      "inputs": [
        {
          "internalType": "address",
          "name": "owner",
          "type": "address"
        }
      ],
      "name": "balanceOf",
      "outputs": [
        {
          "internalType": "uint256",
          "name": "",
          "type": "uint256"
        }
      ],
      "stateMutability": "view",
      "type": "function"
    },
    {
      "inputs": [
        {
          "internalType": "string",
          "name": "name",
          "type": "string"
        },
        {
          "internalType": "uint8",
          "name": "age",
          "type": "uint8"
        },
        {
          "internalType": "string",
          "name": "gender",
          "type": "string"
        },
        {
          "internalType": "string",
          "name": "interests",
          "type": "string"
        },
        {
          "internalType": "string",
          "name": "photoUrl",
          "type": "string"
        }
      ],
      "name": "createProfile",
      "outputs": [],
      "stateMutability": "nonpayable",
      "type": "function"
    },
    {
      "inputs": [],
      "name": "deleteProfile",
      "outputs": [],
      "stateMutability": "nonpayable",
      "type": "function"
    },
    {
      "inputs": [
        {
          "internalType": "string",
          "name": "email",
          "type": "string"
        }
      ],
      "name": "getAddressByEmail",
      "outputs": [
        {
          "internalType": "address",
          "name": "",
          "type": "address"
        }
      ],
      "stateMutability": "view",
      "type": "function"
    },
    {
      "inputs": [
        {
          "internalType": "uint256",
          "name": "tokenId",
          "type": "uint256"
        }
      ],
      "name": "getApproved",
      "outputs": [
        {
          "internalType": "address",
          "name": "",
          "type": "address"
        }
      ],
      "stateMutability": "view",
      "type": "function"
    },
    {
      "inputs": [
        {
          "internalType": "address",
          "name": "user",
          "type": "address"
        }
      ],
      "name": "getProfile",
      "outputs": [
        {
          "components": [
            {
              "internalType": "uint256",
              "name": "tokenId",
              "type": "uint256"
            },
            {
              "internalType": "string",
              "name": "name",
              "type": "string"
            },
            {
              "internalType": "uint8",
              "name": "age",
              "type": "uint8"
            },
            {
              "internalType": "string",
              "name": "gender",
              "type": "string"
            },
            {
              "internalType": "string",
              "name": "interests",
              "type": "string"
            },
            {
              "internalType": "string",
              "name": "photoUrl",
              "type": "string"
            },
            {
              "internalType": "string",
              "name": "email",
              "type": "string"
            },
            {
              "internalType": "bool",
              "name": "exists",
              "type": "bool"
            }
          ],
          "internalType": "struct ProfileNFT.Profile",
          "name": "",
          "type": "tuple"
        }
      ],
      "stateMutability": "view",
      "type": "function"
    },
    {
      "inputs": [
        {
          "internalType": "uint256",
          "name": "tokenId",
          "type": "uint256"
        }
      ],
      "name": "getProfileByTokenId",
      "outputs": [
        {
          "components": [
            {
              "internalType": "uint256",
              "name": "tokenId",
              "type": "uint256"
            },
            {
              "internalType": "string",
              "name": "name",
              "type": "string"
            },
            {
              "internalType": "uint8",
              "name": "age",
              "type": "uint8"
            },
            {
              "internalType": "string",
              "name": "gender",
              "type": "string"
            },
            {
              "internalType": "string",
              "name": "interests",
              "type": "string"
            },
            {
              "internalType": "string",
              "name": "photoUrl",
              "type": "string"
            },
            {
              "internalType": "string",
              "name": "email",
              "type": "string"
            },
            {
              "internalType": "bool",
              "name": "exists",
              "type": "bool"
            }
          ],
          "internalType": "struct ProfileNFT.Profile",
          "name": "",
          "type": "tuple"
        }
      ],
      "stateMutability": "view",
      "type": "function"
    },
    {
      "inputs": [],
      "name": "initialize",
      "outputs": [],
      "stateMutability": "nonpayable",
      "type": "function"
    },
    {
      "inputs": [
        {
          "internalType": "address",
          "name": "owner",
          "type": "address"
        },
        {
          "internalType": "address",
          "name": "operator",
          "type": "address"
        }
      ],
      "name": "isApprovedForAll",
      "outputs": [
        {
          "internalType": "bool",
          "name": "",
          "type": "bool"
        }
      ],
      "stateMutability": "view",
      "type": "function"
    },
    {
      "inputs": [
        {
          "internalType": "string",
          "name": "email",
          "type": "string"
        }
      ],
      "name": "isEmailRegistered",
      "outputs": [
        {
          "internalType": "bool",
          "name": "",
          "type": "bool"
        }
      ],
      "stateMutability": "view",
      "type": "function"
    },
    {
      "inputs": [],
      "name": "matchingContract",
      "outputs": [
        {
          "internalType": "address",
          "name": "",
          "type": "address"
        }
      ],
      "stateMutability": "view",
      "type": "function"
    },
    {
      "inputs": [],
      "name": "name",
      "outputs": [
        {
          "internalType": "string",
          "name": "",
          "type": "string"
        }
      ],
      "stateMutability": "view",
      "type": "function"
    },
    {
      "inputs": [],
      "name": "owner",
      "outputs": [
        {
          "internalType": "address",
          "name": "",
          "type": "address"
        }
      ],
      "stateMutability": "view",
      "type": "function"
    },
    {
      "inputs": [
        {
          "internalType": "uint256",
          "name": "tokenId",
          "type": "uint256"
        }
      ],
      "name": "ownerOf",
      "outputs": [
        {
          "internalType": "address",
          "name": "",
          "type": "address"
        }
      ],
      "stateMutability": "view",
      "type": "function"
    },
    {
      "inputs": [
        {
          "internalType": "address",
          "name": "user",
          "type": "address"
        }
      ],
      "name": "profileExists",
      "outputs": [
        {
          "internalType": "bool",
          "name": "",
          "type": "bool"
        }
      ],
      "stateMutability": "view",
      "type": "function"
    },
    {
      "inputs": [
        {
          "internalType": "address",
          "name": "",
          "type": "address"
        }
      ],
      "name": "profiles",
      "outputs": [
        {
          "internalType": "uint256",
          "name": "tokenId",
          "type": "uint256"
        },
        {
          "internalType": "string",
          "name": "name",
          "type": "string"
        },
        {
          "internalType": "uint8",
          "name": "age",
          "type": "uint8"
        },
        {
          "internalType": "string",
          "name": "gender",
          "type": "string"
        },
        {
          "internalType": "string",
          "name": "interests",
          "type": "string"
        },
        {
          "internalType": "string",
          "name": "photoUrl",
          "type": "string"
        },
        {
          "internalType": "string",
          "name": "email",
          "type": "string"
        },
        {
          "internalType": "bool",
          "name": "exists",
          "type": "bool"
        }
      ],
      "stateMutability": "view",
      "type": "function"
    },
    {
      "inputs": [],
      "name": "proxiableUUID",
      "outputs": [
        {
          "internalType": "bytes32",
          "name": "",
          "type": "bytes32"
        }
      ],
      "stateMutability": "view",
      "type": "function"
    },
    {
      "inputs": [
        {
          "internalType": "string",
          "name": "name",
          "type": "string"
        },
        {
          "internalType": "uint8",
          "name": "age",
          "type": "uint8"
        },
        {
          "internalType": "string",
          "name": "gender",
          "type": "string"
        },
        {
          "internalType": "string",
          "name": "interests",
          "type": "string"
        },
        {
          "internalType": "string",
          "name": "email",
          "type": "string"
        }
      ],
      "name": "registerWithEmail",
      "outputs": [],
      "stateMutability": "nonpayable",
      "type": "function"
    },
    {
      "inputs": [],
      "name": "renounceOwnership",
      "outputs": [],
      "stateMutability": "nonpayable",
      "type": "function"
    },
    {
      "inputs": [
        {
          "internalType": "address",
          "name": "from",
          "type": "address"
        },
        {
          "internalType": "address",
          "name": "to",
          "type": "address"
        },
        {
          "internalType": "uint256",
          "name": "tokenId",
          "type": "uint256"
        }
      ],
      "name": "safeTransferFrom",
      "outputs": [],
      "stateMutability": "nonpayable",
      "type": "function"
    },
    {
      "inputs": [
        {
          "internalType": "address",
          "name": "",
          "type": "address"
        },
        {
          "internalType": "address",
          "name": "",
          "type": "address"
        },
        {
          "internalType": "uint256",
          "name": "",
          "type": "uint256"
        },
        {
          "internalType": "bytes",
          "name": "",
          "type": "bytes"
        }
      ],
      "name": "safeTransferFrom",
      "outputs": [],
      "stateMutability": "pure",
      "type": "function"
    },
    {
      "inputs": [
        {
          "internalType": "address",
          "name": "operator",
          "type": "address"
        },
        {
          "internalType": "bool",
          "name": "approved",
          "type": "bool"
        }
      ],
      "name": "setApprovalForAll",
      "outputs": [],
      "stateMutability": "nonpayable",
      "type": "function"
    },
    {
      "inputs": [
        {
          "internalType": "address",
          "name": "_matchingContract",
          "type": "address"
        }
      ],
      "name": "setMatchingContract",
      "outputs": [],
      "stateMutability": "nonpayable",
      "type": "function"
    },
    {
      "inputs": [
        {
          "internalType": "bytes4",
          "name": "interfaceId",
          "type": "bytes4"
        }
      ],
      "name": "supportsInterface",
      "outputs": [
        {
          "internalType": "bool",
          "name": "",
          "type": "bool"
        }
      ],
      "stateMutability": "view",
      "type": "function"
    },
    {
      "inputs": [],
      "name": "symbol",
      "outputs": [
        {
          "internalType": "string",
          "name": "",
          "type": "string"
        }
      ],
      "stateMutability": "view",
      "type": "function"
    },
    {
      "inputs": [
        {
          "internalType": "uint256",
          "name": "",
          "type": "uint256"
        }
      ],
      "name": "tokenIdToAddress",
      "outputs": [
        {
          "internalType": "address",
          "name": "",
          "type": "address"
        }
      ],
      "stateMutability": "view",
      "type": "function"
    },
    {
      "inputs": [
        {
          "internalType": "uint256",
          "name": "tokenId",
          "type": "uint256"
        }
      ],
      "name": "tokenURI",
      "outputs": [
        {
          "internalType": "string",
          "name": "",
          "type": "string"
        }
      ],
      "stateMutability": "view",
      "type": "function"
    },
    {
      "inputs": [
        {
          "internalType": "address",
          "name": "",
          "type": "address"
        },
        {
          "internalType": "address",
          "name": "",
          "type": "address"
        },
        {
          "internalType": "uint256",
          "name": "",
          "type": "uint256"
        }
      ],
      "name": "transferFrom",
      "outputs": [],
      "stateMutability": "pure",
      "type": "function"
    },
    {
      "inputs": [
        {
          "internalType": "address",
          "name": "newOwner",
          "type": "address"
        }
      ],
      "name": "transferOwnership",
      "outputs": [],
      "stateMutability": "nonpayable",
      "type": "function"
    },
    {
      "inputs": [
        {
          "internalType": "string",
          "name": "name",
          "type": "string"
        },
        {
          "internalType": "uint8",
          "name": "age",
          "type": "uint8"
        },
        {
          "internalType": "string",
          "name": "gender",
          "type": "string"
        },
        {
          "internalType": "string",
          "name": "interests",
          "type": "string"
        },
        {
          "internalType": "string",
          "name": "photoUrl",
          "type": "string"
        },
        {
          "internalType": "string",
          "name": "email",
          "type": "string"
        }
      ],
      "name": "updateProfile",
      "outputs": [],
      "stateMutability": "nonpayable",
      "type": "function"
    },
    {
      "inputs": [
        {
          "internalType": "address",
          "name": "newImplementation",
          "type": "address"
        },
        {
          "internalType": "bytes",
          "name": "data",
          "type": "bytes"
        }
      ],
      "name": "upgradeToAndCall",
      "outputs": [],
      "stateMutability": "payable",
      "type": "function"
    }
  ],
  "bytecode": "0x60a060405230608052348015610013575f80fd5b506080516148a861003a5f395f818161306b01528181613094015261321201526148a85ff3fe60806040526004361061020f575f3560e01c80636d4540eb11610117578063a22cb465116100ac578063c5caea011161007c578063df3cdad711610062578063df3cdad71461066e578063e985e9c51461068d578063f2fde38b146106f3575f80fd5b8063c5caea0114610630578063c87b56dd1461064f575f80fd5b8063a22cb4651461057c578063ad3cb1cc1461059b578063b88d4fde146105e3578063bbe15627146105fd575f80fd5b80638129fc1c116100e75780638129fc1c146104f95780638da5cb5b1461050d57806395d89b41146105495780639e385dfb1461055d575f80fd5b80636d4540eb1461049357806370a08231146104a7578063715018a6146104c65780637b09a6e3146104da575f80fd5b80632182d9d7116101a75780634f1ef2861161017757806353964b191161015d57806353964b191461042a5780636352211e146104495780636511bf2e14610468575f80fd5b80634f1ef286146103f557806352d1902d14610408575f80fd5b80632182d9d71461037957806323b872dd1461039857806342842e0e146103b75780634ab491b6146103d6575f80fd5b806308bb76a5116101e257806308bb76a5146102d9578063095ea7b31461030d5780630f53a4701461032e57806310ea22711461035a575f80fd5b806301ffc9a71461021357806305cfa06f1461024757806306fdde0314610281578063081812fc146102a2575b5f80fd5b34801561021e575f80fd5b5061023261022d366004613e87565b610712565b60405190151581526020015b60405180910390f35b348015610252575f80fd5b50610232610261366004613ebd565b6001600160a01b03165f9081526001602052604090206007015460ff1690565b34801561028c575f80fd5b506102956107ae565b60405161023e9190613f23565b3480156102ad575f80fd5b506102c16102bc366004613f35565b610862565b6040516001600160a01b03909116815260200161023e565b3480156102e4575f80fd5b506102c16102f3366004613f35565b60036020525f90815260409020546001600160a01b031681565b348015610318575f80fd5b5061032c610327366004613f4c565b6108a8565b005b348015610339575f80fd5b5061034d610348366004613ebd565b6108b7565b60405161023e9190613f74565b348015610365575f80fd5b5061032c6103743660046140f3565b610c24565b348015610384575f80fd5b5061032c610393366004613ebd565b6111d9565b3480156103a3575f80fd5b5061032c6103b23660046141cb565b6112b2565b3480156103c2575f80fd5b5061032c6103d13660046141cb565b6112fa565b3480156103e1575f80fd5b5061032c6103f0366004614204565b611319565b61032c6104033660046142ba565b61172f565b348015610413575f80fd5b5061041c61174a565b60405190815260200161023e565b348015610435575f80fd5b506006546102c1906001600160a01b031681565b348015610454575f80fd5b506102c1610463366004613f35565b611778565b348015610473575f80fd5b5061041c610482366004613ebd565b60026020525f908152604090205481565b34801561049e575f80fd5b5061032c611782565b3480156104b2575f80fd5b5061041c6104c1366004613ebd565b611cd2565b3480156104d1575f80fd5b5061032c611d56565b3480156104e5575f80fd5b5061034d6104f4366004613f35565b611d69565b348015610504575f80fd5b5061032c61213b565b348015610518575f80fd5b507f9016d09d72d40fdae2fd8ceac6b6234c7706214fd39c1cd1e609a0528c199300546001600160a01b03166102c1565b348015610554575f80fd5b506102956122dc565b348015610568575f80fd5b5061032c610577366004614204565b61232d565b348015610587575f80fd5b5061032c610596366004614305565b61285c565b3480156105a6575f80fd5b506102956040518060400160405280600581526020017f352e302e3000000000000000000000000000000000000000000000000000000081525081565b3480156105ee575f80fd5b5061032c6103b236600461433e565b348015610608575f80fd5b5061061c610617366004613ebd565b612867565b60405161023e9897969594939291906143a2565b34801561063b575f80fd5b506102c161064a36600461442c565b612b50565b34801561065a575f80fd5b50610295610669366004613f35565b612b80565b348015610679575f80fd5b5061023261068836600461442c565b612bf1565b348015610698575f80fd5b506102326106a736600461445e565b6001600160a01b039182165f9081527f80bb2b638cc20bc4d0a60d66940f3ab4a00c1d7b313497ca82fb0b4ab00793056020908152604080832093909416825291909152205460ff1690565b3480156106fe575f80fd5b5061032c61070d366004613ebd565b612c1b565b5f6001600160e01b031982167f80ac58cd00000000000000000000000000000000000000000000000000000000148061077457506001600160e01b031982167f5b5e139f00000000000000000000000000000000000000000000000000000000145b806107a857507f01ffc9a7000000000000000000000000000000000000000000000000000000006001600160e01b03198316145b92915050565b7f80bb2b638cc20bc4d0a60d66940f3ab4a00c1d7b313497ca82fb0b4ab007930080546060919081906107e09061448f565b80601f016020809104026020016040519081016040528092919081815260200182805461080c9061448f565b80156108575780601f1061082e57610100808354040283529160200191610857565b820191905f5260205f20905b81548152906001019060200180831161083a57829003601f168201915b505050505091505090565b5f61086c82612c71565b505f8281527f80bb2b638cc20bc4d0a60d66940f3ab4a00c1d7b313497ca82fb0b4ab007930460205260409020546001600160a01b03166107a8565b6108b3828233612cc8565b5050565b6109016040518061010001604052805f8152602001606081526020015f60ff168152602001606081526020016060815260200160608152602001606081526020015f151581525090565b6001600160a01b0382165f90815260016020818152604092839020835161010081019094528054845291820180549184019161093c9061448f565b80601f01602080910402602001604051908101604052809291908181526020018280546109689061448f565b80156109b35780601f1061098a576101008083540402835291602001916109b3565b820191905f5260205f20905b81548152906001019060200180831161099657829003601f168201915b5050509183525050600282015460ff1660208201526003820180546040909201916109dd9061448f565b80601f0160208091040260200160405190810160405280929190818152602001828054610a099061448f565b8015610a545780601f10610a2b57610100808354040283529160200191610a54565b820191905f5260205f20905b815481529060010190602001808311610a3757829003601f168201915b50505050508152602001600482018054610a6d9061448f565b80601f0160208091040260200160405190810160405280929190818152602001828054610a999061448f565b8015610ae45780601f10610abb57610100808354040283529160200191610ae4565b820191905f5260205f20905b815481529060010190602001808311610ac757829003601f168201915b50505050508152602001600582018054610afd9061448f565b80601f0160208091040260200160405190810160405280929190818152602001828054610b299061448f565b8015610b745780601f10610b4b57610100808354040283529160200191610b74565b820191905f5260205f20905b815481529060010190602001808311610b5757829003601f168201915b50505050508152602001600682018054610b8d9061448f565b80601f0160208091040260200160405190810160405280929190818152602001828054610bb99061448f565b8015610c045780601f10610bdb57610100808354040283529160200191610c04565b820191905f5260205f20905b815481529060010190602001808311610be757829003601f168201915b50505091835250506007919091015460ff16151560209091015292915050565b335f9081526001602052604090206007015460ff16610c8a5760405162461bcd60e51b815260206004820152601660248201527f50726f66696c6520646f6573206e6f742065786973740000000000000000000060448201526064015b60405180910390fd5b60128560ff161015610cde5760405162461bcd60e51b815260206004820152601360248201527f4d757374206265203138206f72206f6c646572000000000000000000000000006044820152606401610c81565b60788560ff161115610d325760405162461bcd60e51b815260206004820152601560248201527f416765206d757374206265207265616c697374696300000000000000000000006044820152606401610c81565b6002865110158015610d4657506064865111155b610d925760405162461bcd60e51b815260206004820152601d60248201527f4e616d65206d75737420626520322d31303020636861726163746572730000006044820152606401610c81565b5f8351118015610da557506101f4835111155b610dfc5760405162461bcd60e51b815260206004820152602260248201527f496e74657265737473206d75737420626520312d353030206368617261637465604482015261727360f01b6064820152608401610c81565b6101f482511115610e4f5760405162461bcd60e51b815260206004820152601260248201527f50686f746f2055524c20746f6f206c6f6e6700000000000000000000000000006044820152606401610c81565b5f8451118015610e6157506032845111155b610ead5760405162461bcd60e51b815260206004820152601460248201527f47656e646572206d7573742062652076616c69640000000000000000000000006044820152606401610c81565b80511561112557610ebd81612cd5565b610f095760405162461bcd60e51b815260206004820152601460248201527f496e76616c696420656d61696c20666f726d61740000000000000000000000006044820152606401610c81565b5f610f1382612df5565b335f9081526001602052604090206006018054919250610fb891610f369061448f565b80601f0160208091040260200160405190810160405280929190818152602001828054610f629061448f565b8015610fad5780601f10610f8457610100808354040283529160200191610fad565b820191905f5260205f20905b815481529060010190602001808311610f9057829003601f168201915b505050505082612f7b565b61110757600481604051610fcc91906144c7565b9081526040519081900360200190205460ff161561102c5760405162461bcd60e51b815260206004820152601860248201527f456d61696c20616c7265616479207265676973746572656400000000000000006044820152606401610c81565b335f90815260016020526040812060060180546110489061448f565b9050111561109457335f908152600160205260408082209051600491611073916006909101906144e2565b908152604051908190036020019020805491151560ff199092169190911790555b60016004826040516110a691906144c7565b908152604051908190036020018120805492151560ff199093169290921790915533906005906110d79084906144c7565b90815260405190819003602001902080546001600160a01b03929092166001600160a01b03199092169190911790555b335f9081526001602052604090206006016111228282614598565b50505b335f9081526001602081905260409091209081016111438882614598565b5060028101805460ff191660ff8816179055600381016111638682614598565b50600481016111728582614598565b50600581016111818482614598565b50336001600160a01b03167fff05e84fce958ef60921c414197d065753ed947b0d3460ddef8244c534c916da8888888888876006016040516111c896959493929190614654565b60405180910390a250505050505050565b6111e1612fd3565b6006546001600160a01b03161561123a5760405162461bcd60e51b815260206004820152601d60248201527f4d61746368696e6720636f6e747261637420616c7265616479207365740000006044820152606401610c81565b6001600160a01b0381166112905760405162461bcd60e51b815260206004820152600f60248201527f496e76616c6964206164647265737300000000000000000000000000000000006044820152606401610c81565b600680546001600160a01b0319166001600160a01b0392909216919091179055565b60405162461bcd60e51b815260206004820152601f60248201527f536f756c626f756e643a205472616e73666572206e6f7420616c6c6f776564006044820152606401610c81565b61131483838360405180602001604052805f8152506112b2565b505050565b335f9081526001602052604090206007015460ff161561137b5760405162461bcd60e51b815260206004820152601660248201527f50726f66696c6520616c726561647920657869737473000000000000000000006044820152606401610c81565b60128460ff1610156113cf5760405162461bcd60e51b815260206004820152601360248201527f4d757374206265203138206f72206f6c646572000000000000000000000000006044820152606401610c81565b60788460ff1611156114235760405162461bcd60e51b815260206004820152601560248201527f416765206d757374206265207265616c697374696300000000000000000000006044820152606401610c81565b600285511015801561143757506064855111155b6114835760405162461bcd60e51b815260206004820152601d60248201527f4e616d65206d75737420626520322d31303020636861726163746572730000006044820152606401610c81565b5f825111801561149657506101f4825111155b6114ed5760405162461bcd60e51b815260206004820152602260248201527f496e74657265737473206d75737420626520312d353030206368617261637465604482015261727360f01b6064820152608401610c81565b6101f4815111156115405760405162461bcd60e51b815260206004820152601260248201527f50686f746f2055524c20746f6f206c6f6e6700000000000000000000000000006044820152606401610c81565b5f835111801561155257506032835111155b61159e5760405162461bcd60e51b815260206004820152601460248201527f47656e646572206d7573742062652076616c69640000000000000000000000006044820152606401610c81565b5f805490806115ac83614747565b90915550505f8054604080516101008101825282815260208082018a815260ff8a1683850152606083018990526080830188905260a083018790528351808301855286815260c0840152600160e08401819052338752918290529290942081518155915192939092908201906116229082614598565b50604082015160028201805460ff191660ff909216919091179055606082015160038201906116519082614598565b50608082015160048201906116669082614598565b5060a0820151600582019061167b9082614598565b5060c082015160068201906116909082614598565b5060e091909101516007909101805460ff1916911515919091179055335f8181526002602090815260408083208590558483526003909152902080546001600160a01b031916821790556116e49082613047565b336001600160a01b03167f02ed4ee0412e67bbc9ed1687f3ad6bb7134d359d45994f3bf5302e91d81cf61f828860405161171f92919061475f565b60405180910390a2505050505050565b611737613060565b61174082613117565b6108b3828261311f565b5f611753613207565b507f360894a13ba1a3210667c828492db98dca3e2076cc3735a920a3ca505d382bbc90565b5f6107a882612c71565b335f9081526001602052604090206007015460ff166117e35760405162461bcd60e51b815260206004820152601660248201527f50726f66696c6520646f6573206e6f74206578697374000000000000000000006044820152606401610c81565b335f908152600160208181526040808420815161010081019092528054825292830180549193928401916118169061448f565b80601f01602080910402602001604051908101604052809291908181526020018280546118429061448f565b801561188d5780601f106118645761010080835404028352916020019161188d565b820191905f5260205f20905b81548152906001019060200180831161187057829003601f168201915b5050509183525050600282015460ff1660208201526003820180546040909201916118b79061448f565b80601f01602080910402602001604051908101604052809291908181526020018280546118e39061448f565b801561192e5780601f106119055761010080835404028352916020019161192e565b820191905f5260205f20905b81548152906001019060200180831161191157829003601f168201915b505050505081526020016004820180546119479061448f565b80601f01602080910402602001604051908101604052809291908181526020018280546119739061448f565b80156119be5780601f10611995576101008083540402835291602001916119be565b820191905f5260205f20905b8154815290600101906020018083116119a157829003601f168201915b505050505081526020016005820180546119d79061448f565b80601f0160208091040260200160405190810160405280929190818152602001828054611a039061448f565b8015611a4e5780601f10611a2557610100808354040283529160200191611a4e565b820191905f5260205f20905b815481529060010190602001808311611a3157829003601f168201915b50505050508152602001600682018054611a679061448f565b80601f0160208091040260200160405190810160405280929190818152602001828054611a939061448f565b8015611ade5780601f10611ab557610100808354040283529160200191611ade565b820191905f5260205f20905b815481529060010190602001808311611ac157829003601f168201915b50505091835250506007919091015460ff161515602090910152805160c0820151519192509015611b78575f611b178360c00151612df5565b90505f600482604051611b2a91906144c7565b908152604051908190036020018120805492151560ff1990931692909217909155600590611b599083906144c7565b90815260405190819003602001902080546001600160a01b0319169055505b6006546001600160a01b031615611bf7576006546040517ff569f82f0000000000000000000000000000000000000000000000000000000081523360048201526001600160a01b039091169063f569f82f906024015f604051808303815f87803b158015611be4575f80fd5b505af1925050508015611bf5575060015b505b335f90815260016020819052604082208281559190611c1890830182613e28565b60028201805460ff19169055611c31600383015f613e28565b611c3e600483015f613e28565b611c4b600583015f613e28565b611c58600683015f613e28565b50600701805460ff19169055335f9081526002602090815260408083208390558383526003909152902080546001600160a01b0319169055611c9981613250565b60405181815233907f236eb7515b00733d8ade7456155d53d63c2fa66bec6437ddff6ab3fc71e1e3249060200160405180910390a25050565b5f7f80bb2b638cc20bc4d0a60d66940f3ab4a00c1d7b313497ca82fb0b4ab00793006001600160a01b038316611d36576040517f89c62b640000000000000000000000000000000000000000000000000000000081525f6004820152602401610c81565b6001600160a01b039092165f908152600390920160205250604090205490565b611d5e612fd3565b611d675f613288565b565b611db36040518061010001604052805f8152602001606081526020015f60ff168152602001606081526020016060815260200160608152602001606081526020015f151581525090565b5f828152600360205260409020546001600160a01b031680611e175760405162461bcd60e51b815260206004820152601460248201527f546f6b656e20646f6573206e6f742065786973740000000000000000000000006044820152606401610c81565b6001600160a01b0381165f908152600160208181526040928390208351610100810190945280548452918201805491840191611e529061448f565b80601f0160208091040260200160405190810160405280929190818152602001828054611e7e9061448f565b8015611ec95780601f10611ea057610100808354040283529160200191611ec9565b820191905f5260205f20905b815481529060010190602001808311611eac57829003601f168201915b5050509183525050600282015460ff166020820152600382018054604090920191611ef39061448f565b80601f0160208091040260200160405190810160405280929190818152602001828054611f1f9061448f565b8015611f6a5780601f10611f4157610100808354040283529160200191611f6a565b820191905f5260205f20905b815481529060010190602001808311611f4d57829003601f168201915b50505050508152602001600482018054611f839061448f565b80601f0160208091040260200160405190810160405280929190818152602001828054611faf9061448f565b8015611ffa5780601f10611fd157610100808354040283529160200191611ffa565b820191905f5260205f20905b815481529060010190602001808311611fdd57829003601f168201915b505050505081526020016005820180546120139061448f565b80601f016020809104026020016040519081016040528092919081815260200182805461203f9061448f565b801561208a5780601f106120615761010080835404028352916020019161208a565b820191905f5260205f20905b81548152906001019060200180831161206d57829003601f168201915b505050505081526020016006820180546120a39061448f565b80601f01602080910402602001604051908101604052809291908181526020018280546120cf9061448f565b801561211a5780601f106120f15761010080835404028352916020019161211a565b820191905f5260205f20905b8154815290600101906020018083116120fd57829003601f168201915b50505091835250506007919091015460ff1615156020909101529392505050565b5f6121446132f8565b805490915060ff68010000000000000000820416159067ffffffffffffffff165f811580156121705750825b90505f8267ffffffffffffffff16600114801561218c5750303b155b90508115801561219a575080155b156121d1576040517ff92ee8a900000000000000000000000000000000000000000000000000000000815260040160405180910390fd5b845467ffffffffffffffff19166001178555831561220557845468ff00000000000000001916680100000000000000001785555b6122796040518060400160405280601181526020017f426173654d617463682050726f66696c650000000000000000000000000000008152506040518060400160405280600581526020017f424d50524f000000000000000000000000000000000000000000000000000000815250613320565b61228233613332565b61228a613343565b83156122d557845468ff000000000000000019168555604051600181527fc7f505b2f371ae2175ee4913f4499e1f2633a7b5936321eed1cdaeb6115181d29060200160405180910390a15b5050505050565b7f80bb2b638cc20bc4d0a60d66940f3ab4a00c1d7b313497ca82fb0b4ab007930180546060917f80bb2b638cc20bc4d0a60d66940f3ab4a00c1d7b313497ca82fb0b4ab0079300916107e09061448f565b335f9081526001602052604090206007015460ff161561238f5760405162461bcd60e51b815260206004820152601660248201527f50726f66696c6520616c726561647920657869737473000000000000000000006044820152606401610c81565b60128460ff1610156123e35760405162461bcd60e51b815260206004820152601360248201527f4d757374206265203138206f72206f6c646572000000000000000000000000006044820152606401610c81565b60788460ff1611156124375760405162461bcd60e51b815260206004820152601560248201527f416765206d757374206265207265616c697374696300000000000000000000006044820152606401610c81565b600285511015801561244b57506064855111155b6124975760405162461bcd60e51b815260206004820152601d60248201527f4e616d65206d75737420626520322d31303020636861726163746572730000006044820152606401610c81565b5f82511180156124aa57506101f4825111155b6125015760405162461bcd60e51b815260206004820152602260248201527f496e74657265737473206d75737420626520312d353030206368617261637465604482015261727360f01b6064820152608401610c81565b5f8151116125515760405162461bcd60e51b815260206004820152601560248201527f456d61696c2063616e6e6f7420626520656d70747900000000000000000000006044820152606401610c81565b61255a81612cd5565b6125a65760405162461bcd60e51b815260206004820152601460248201527f496e76616c696420656d61696c20666f726d61740000000000000000000000006044820152606401610c81565b5f6125b082612df5565b90506004816040516125c291906144c7565b9081526040519081900360200190205460ff16156126225760405162461bcd60e51b815260206004820152601860248201527f456d61696c20616c7265616479207265676973746572656400000000000000006044820152606401610c81565b5f8054908061263083614747565b90915550505f5460405160019060049061264b9085906144c7565b908152604051908190036020018120805492151560ff1990931692909217909155339060059061267c9085906144c7565b908152604080516020928190038301812080546001600160a01b0319166001600160a01b039590951694909417909355610100830181528383528183018a815260ff8a16848301526060840189905260808401889052815180840183525f80825260a086019190915260c08501879052600160e08601819052338252938490529190912083518155905190918201906127159082614598565b50604082015160028201805460ff191660ff909216919091179055606082015160038201906127449082614598565b50608082015160048201906127599082614598565b5060a0820151600582019061276e9082614598565b5060c082015160068201906127839082614598565b5060e091909101516007909101805460ff1916911515919091179055335f8181526002602090815260408083208590558483526003909152902080546001600160a01b031916821790556127d79082613047565b336001600160a01b03167f02ed4ee0412e67bbc9ed1687f3ad6bb7134d359d45994f3bf5302e91d81cf61f828960405161281292919061475f565b60405180910390a27f47f02b73945ce0ca4c471ed60f05863657de8944610464aad740573b7c3b2d8c823360405161284b929190614777565b60405180910390a150505050505050565b6108b333838361334b565b600160208190525f9182526040909120805491810180546128879061448f565b80601f01602080910402602001604051908101604052809291908181526020018280546128b39061448f565b80156128fe5780601f106128d5576101008083540402835291602001916128fe565b820191905f5260205f20905b8154815290600101906020018083116128e157829003601f168201915b5050506002840154600385018054949560ff9092169491935091506129229061448f565b80601f016020809104026020016040519081016040528092919081815260200182805461294e9061448f565b80156129995780601f1061297057610100808354040283529160200191612999565b820191905f5260205f20905b81548152906001019060200180831161297c57829003601f168201915b5050505050908060040180546129ae9061448f565b80601f01602080910402602001604051908101604052809291908181526020018280546129da9061448f565b8015612a255780601f106129fc57610100808354040283529160200191612a25565b820191905f5260205f20905b815481529060010190602001808311612a0857829003601f168201915b505050505090806005018054612a3a9061448f565b80601f0160208091040260200160405190810160405280929190818152602001828054612a669061448f565b8015612ab15780601f10612a8857610100808354040283529160200191612ab1565b820191905f5260205f20905b815481529060010190602001808311612a9457829003601f168201915b505050505090806006018054612ac69061448f565b80601f0160208091040260200160405190810160405280929190818152602001828054612af29061448f565b8015612b3d5780601f10612b1457610100808354040283529160200191612b3d565b820191905f5260205f20905b815481529060010190602001808311612b2057829003601f168201915b5050506007909301549192505060ff1688565b5f600582604051612b6191906144c7565b908152604051908190036020019020546001600160a01b031692915050565b6060612b8b82612c71565b505f612ba160408051602081019091525f815290565b90505f815111612bbf5760405180602001604052805f815250612bea565b80612bc984613426565b604051602001612bda9291906147a1565b6040516020818303038152906040525b9392505050565b5f600482604051612c0291906144c7565b9081526040519081900360200190205460ff1692915050565b612c23612fd3565b6001600160a01b038116612c65576040517f1e4fbdf70000000000000000000000000000000000000000000000000000000081525f6004820152602401610c81565b612c6e81613288565b50565b5f8181527f80bb2b638cc20bc4d0a60d66940f3ab4a00c1d7b313497ca82fb0b4ab007930260205260408120546001600160a01b0316806107a857604051637e27328960e01b815260048101849052602401610c81565b61131483838360016134c3565b5f80829050600581511015612cec57505f92915050565b60fe81511115612cfe57505f92915050565b5f805f805b8451811015612ddd575f858281518110612d1f57612d1f6147cf565b01602001516001600160f81b03191690507f4000000000000000000000000000000000000000000000000000000000000000819003612d945784612d6281614747565b95506001945050811580612d82575060018651612d7f91906147e3565b82145b15612d9457505f979650505050505050565b838015612dca57507f2e000000000000000000000000000000000000000000000000000000000000006001600160f81b03198216145b15612dd457600192505b50600101612d03565b50826001148015612deb5750805b9695505050505050565b60605f8290505f815167ffffffffffffffff811115612e1657612e16614046565b6040519080825280601f01601f191660200182016040528015612e40576020820181803683370190505b5090505f5b8251811015612f73575f838281518110612e6157612e616147cf565b01602001516001600160f81b03191690507f41000000000000000000000000000000000000000000000000000000000000008110801590612ecc57507f5a000000000000000000000000000000000000000000000000000000000000006001600160f81b0319821611155b15612f2857612ee060f882901c60206147f6565b60f81b838381518110612ef557612ef56147cf565b60200101907effffffffffffffffffffffffffffffffffffffffffffffffffffffffffffff191690815f1a905350612f6a565b80838381518110612f3b57612f3b6147cf565b60200101907effffffffffffffffffffffffffffffffffffffffffffffffffffffffffffff191690815f1a9053505b50600101612e45565b509392505050565b5f81604051602001612f8d91906144c7565b6040516020818303038152906040528051906020012083604051602001612fb491906144c7565b6040516020818303038152906040528051906020012014905092915050565b336130057f9016d09d72d40fdae2fd8ceac6b6234c7706214fd39c1cd1e609a0528c199300546001600160a01b031690565b6001600160a01b031614611d67576040517f118cdaa7000000000000000000000000000000000000000000000000000000008152336004820152602401610c81565b6108b3828260405180602001604052805f81525061363f565b306001600160a01b037f00000000000000000000000000000000000000000000000000000000000000001614806130f957507f00000000000000000000000000000000000000000000000000000000000000006001600160a01b03166130ed7f360894a13ba1a3210667c828492db98dca3e2076cc3735a920a3ca505d382bbc546001600160a01b031690565b6001600160a01b031614155b15611d675760405163703e46dd60e11b815260040160405180910390fd5b612c6e612fd3565b816001600160a01b03166352d1902d6040518163ffffffff1660e01b8152600401602060405180830381865afa925050508015613179575060408051601f3d908101601f191682019092526131769181019061480f565b60015b6131a157604051634c9c8ce360e01b81526001600160a01b0383166004820152602401610c81565b7f360894a13ba1a3210667c828492db98dca3e2076cc3735a920a3ca505d382bbc81146131fd576040517faa1d49a400000000000000000000000000000000000000000000000000000000815260048101829052602401610c81565b6113148383613656565b306001600160a01b037f00000000000000000000000000000000000000000000000000000000000000001614611d675760405163703e46dd60e11b815260040160405180910390fd5b5f61325c5f835f6136ab565b90506001600160a01b0381166108b357604051637e27328960e01b815260048101839052602401610c81565b7f9016d09d72d40fdae2fd8ceac6b6234c7706214fd39c1cd1e609a0528c19930080546001600160a01b031981166001600160a01b03848116918217845560405192169182907f8be0079c531659141344cd1fd0a4f28419497f9722a3daafe3b4186f6b6457e0905f90a3505050565b5f807ff0c57e16840df040f15088dc2f81fe391c3923bec73e23a9662efc9c229c6a006107a8565b6133286137e5565b6108b38282613823565b61333a6137e5565b612c6e8161386c565b611d676137e5565b7f80bb2b638cc20bc4d0a60d66940f3ab4a00c1d7b313497ca82fb0b4ab00793006001600160a01b0383166133b7576040517f5b08ba180000000000000000000000000000000000000000000000000000000081526001600160a01b0384166004820152602401610c81565b6001600160a01b038481165f818152600584016020908152604080832094881680845294825291829020805460ff191687151590811790915591519182527f17307eab39ab6107e8899845ad3d59bd9653f200f220920489ca2b5937696c31910160405180910390a350505050565b60605f61343283613874565b60010190505f8167ffffffffffffffff81111561345157613451614046565b6040519080825280601f01601f19166020018201604052801561347b576020820181803683370190505b5090508181016020015b5f19017f3031323334353637383961626364656600000000000000000000000000000000600a86061a8153600a850494508461348557509392505050565b7f80bb2b638cc20bc4d0a60d66940f3ab4a00c1d7b313497ca82fb0b4ab007930081806134f857506001600160a01b03831615155b1561360f575f61350785612c71565b90506001600160a01b038416158015906135335750836001600160a01b0316816001600160a01b031614155b801561358357506001600160a01b038082165f9081527f80bb2b638cc20bc4d0a60d66940f3ab4a00c1d7b313497ca82fb0b4ab0079305602090815260408083209388168352929052205460ff16155b156135c5576040517fa9fbf51f0000000000000000000000000000000000000000000000000000000081526001600160a01b0385166004820152602401610c81565b821561360d5784866001600160a01b0316826001600160a01b03167f8c5be1e5ebec7d5bd14f71427d1e84f3dd0314c0f7b2291e5b200ac8c7c3b92560405160405180910390a45b505b5f93845260040160205250506040902080546001600160a01b0319166001600160a01b0392909216919091179055565b6136498383613955565b611314335f8585856139cf565b61365f82613af6565b6040516001600160a01b038316907fbc7cd75a20ee27fd9adebab32041f755214dbc6bffa90cc0225b39da2e5c2d3b905f90a28051156136a3576113148282613b6c565b6108b3613bde565b5f8281527f80bb2b638cc20bc4d0a60d66940f3ab4a00c1d7b313497ca82fb0b4ab007930260205260408120547f80bb2b638cc20bc4d0a60d66940f3ab4a00c1d7b313497ca82fb0b4ab0079300906001600160a01b039081169084161561371857613718818587613c16565b6001600160a01b03811615613754576137335f865f806134c3565b6001600160a01b0381165f908152600383016020526040902080545f190190555b6001600160a01b03861615613784576001600160a01b0386165f9081526003830160205260409020805460010190555b5f85815260028301602052604080822080546001600160a01b0319166001600160a01b038a811691821790925591518893918516917fddf252ad1be2c89b69c2b068fc378daa952ba7f163c4a11628f55a4df523b3ef91a495945050505050565b6137ed613c93565b611d67576040517fd7e6bcf800000000000000000000000000000000000000000000000000000000815260040160405180910390fd5b61382b6137e5565b7f80bb2b638cc20bc4d0a60d66940f3ab4a00c1d7b313497ca82fb0b4ab0079300806138578482614598565b50600181016138668382614598565b50505050565b612c236137e5565b5f807a184f03e93ff9f4daa797ed6e38ed64bf6a1f01000000000000000083106138bc577a184f03e93ff9f4daa797ed6e38ed64bf6a1f010000000000000000830492506040015b6d04ee2d6d415b85acef810000000083106138e8576d04ee2d6d415b85acef8100000000830492506020015b662386f26fc10000831061390657662386f26fc10000830492506010015b6305f5e100831061391e576305f5e100830492506008015b612710831061393257612710830492506004015b60648310613944576064830492506002015b600a83106107a85760010192915050565b6001600160a01b03821661397e57604051633250574960e11b81525f6004820152602401610c81565b5f61398a83835f6136ab565b90506001600160a01b03811615611314576040517f73c6ac6e0000000000000000000000000000000000000000000000000000000081525f6004820152602401610c81565b6001600160a01b0383163b156122d557604051630a85bd0160e11b81526001600160a01b0384169063150b7a0290613a11908890889087908790600401614826565b6020604051808303815f875af1925050508015613a4b575060408051601f3d908101601f19168201909252613a4891810190614857565b60015b613ab2573d808015613a78576040519150601f19603f3d011682016040523d82523d5f602084013e613a7d565b606091505b5080515f03613aaa57604051633250574960e11b81526001600160a01b0385166004820152602401610c81565b805160208201fd5b6001600160e01b03198116630a85bd0160e11b14613aee57604051633250574960e11b81526001600160a01b0385166004820152602401610c81565b505050505050565b806001600160a01b03163b5f03613b2b57604051634c9c8ce360e01b81526001600160a01b0382166004820152602401610c81565b7f360894a13ba1a3210667c828492db98dca3e2076cc3735a920a3ca505d382bbc80546001600160a01b0319166001600160a01b0392909216919091179055565b60605f80846001600160a01b031684604051613b8891906144c7565b5f60405180830381855af49150503d805f8114613bc0576040519150601f19603f3d011682016040523d82523d5f602084013e613bc5565b606091505b5091509150613bd5858383613cb1565b95945050505050565b3415611d67576040517fb398979f00000000000000000000000000000000000000000000000000000000815260040160405180910390fd5b613c21838383613d26565b611314576001600160a01b038316613c4f57604051637e27328960e01b815260048101829052602401610c81565b6040517f177e802f0000000000000000000000000000000000000000000000000000000081526001600160a01b038316600482015260248101829052604401610c81565b5f613c9c6132f8565b5468010000000000000000900460ff16919050565b606082613cc657613cc182613de7565b612bea565b8151158015613cdd57506001600160a01b0384163b155b15613d1f576040517f9996b3150000000000000000000000000000000000000000000000000000000081526001600160a01b0385166004820152602401610c81565b5080612bea565b5f6001600160a01b03831615801590613ddf5750826001600160a01b0316846001600160a01b03161480613d9d57506001600160a01b038085165f9081527f80bb2b638cc20bc4d0a60d66940f3ab4a00c1d7b313497ca82fb0b4ab0079305602090815260408083209387168352929052205460ff165b80613ddf57505f8281527f80bb2b638cc20bc4d0a60d66940f3ab4a00c1d7b313497ca82fb0b4ab007930460205260409020546001600160a01b038481169116145b949350505050565b805115613df657805160208201fd5b6040517fd6bda27500000000000000000000000000000000000000000000000000000000815260040160405180910390fd5b508054613e349061448f565b5f825580601f10613e43575050565b601f0160209004905f5260205f2090810190612c6e91905b80821115613e6e575f8155600101613e5b565b5090565b6001600160e01b031981168114612c6e575f80fd5b5f60208284031215613e97575f80fd5b8135612bea81613e72565b80356001600160a01b0381168114613eb8575f80fd5b919050565b5f60208284031215613ecd575f80fd5b612bea82613ea2565b5f5b83811015613ef0578181015183820152602001613ed8565b50505f910152565b5f8151808452613f0f816020860160208601613ed6565b601f01601f19169290920160200192915050565b602081525f612bea6020830184613ef8565b5f60208284031215613f45575f80fd5b5035919050565b5f8060408385031215613f5d575f80fd5b613f6683613ea2565b946020939093013593505050565b60208152815160208201525f6020830151610100806040850152613f9c610120850183613ef8565b91506040850151613fb2606086018260ff169052565b506060850151601f1980868503016080870152613fcf8483613ef8565b935060808701519150808685030160a0870152613fec8483613ef8565b935060a08701519150808685030160c08701526140098483613ef8565b935060c08701519150808685030160e0870152506140278382613ef8565b92505060e085015161403c8286018215159052565b5090949350505050565b634e487b7160e01b5f52604160045260245ffd5b5f82601f830112614069575f80fd5b813567ffffffffffffffff8082111561408457614084614046565b604051601f8301601f19908116603f011681019082821181831017156140ac576140ac614046565b816040528381528660208588010111156140c4575f80fd5b836020870160208301375f602085830101528094505050505092915050565b803560ff81168114613eb8575f80fd5b5f805f805f8060c08789031215614108575f80fd5b863567ffffffffffffffff8082111561411f575f80fd5b61412b8a838b0161405a565b975061413960208a016140e3565b9650604089013591508082111561414e575f80fd5b61415a8a838b0161405a565b9550606089013591508082111561416f575f80fd5b61417b8a838b0161405a565b94506080890135915080821115614190575f80fd5b61419c8a838b0161405a565b935060a08901359150808211156141b1575f80fd5b506141be89828a0161405a565b9150509295509295509295565b5f805f606084860312156141dd575f80fd5b6141e684613ea2565b92506141f460208501613ea2565b9150604084013590509250925092565b5f805f805f60a08688031215614218575f80fd5b853567ffffffffffffffff8082111561422f575f80fd5b61423b89838a0161405a565b9650614249602089016140e3565b9550604088013591508082111561425e575f80fd5b61426a89838a0161405a565b9450606088013591508082111561427f575f80fd5b61428b89838a0161405a565b935060808801359150808211156142a0575f80fd5b506142ad8882890161405a565b9150509295509295909350565b5f80604083850312156142cb575f80fd5b6142d483613ea2565b9150602083013567ffffffffffffffff8111156142ef575f80fd5b6142fb8582860161405a565b9150509250929050565b5f8060408385031215614316575f80fd5b61431f83613ea2565b915060208301358015158114614333575f80fd5b809150509250929050565b5f805f8060808587031215614351575f80fd5b61435a85613ea2565b935061436860208601613ea2565b925060408501359150606085013567ffffffffffffffff81111561438a575f80fd5b6143968782880161405a565b91505092959194509250565b5f6101008a83528060208401526143bb8184018b613ef8565b905060ff8916604084015282810360608401526143d88189613ef8565b905082810360808401526143ec8188613ef8565b905082810360a08401526144008187613ef8565b905082810360c08401526144148186613ef8565b91505082151560e08301529998505050505050505050565b5f6020828403121561443c575f80fd5b813567ffffffffffffffff811115614452575f80fd5b613ddf8482850161405a565b5f806040838503121561446f575f80fd5b61447883613ea2565b915061448660208401613ea2565b90509250929050565b600181811c908216806144a357607f821691505b6020821081036144c157634e487b7160e01b5f52602260045260245ffd5b50919050565b5f82516144d8818460208701613ed6565b9190910192915050565b5f8083546144ef8161448f565b60018281168015614507576001811461451c57614548565b60ff1984168752821515830287019450614548565b875f526020805f205f5b8581101561453f5781548a820152908401908201614526565b50505082870194505b50929695505050505050565b601f82111561131457805f5260205f20601f840160051c810160208510156145795750805b601f840160051c820191505b818110156122d5575f8155600101614585565b815167ffffffffffffffff8111156145b2576145b2614046565b6145c6816145c0845461448f565b84614554565b602080601f8311600181146145f9575f84156145e25750858301515b5f19600386901b1c1916600185901b178555613aee565b5f85815260208120601f198616915b8281101561462757888601518255948401946001909101908401614608565b508582101561464457878501515f19600388901b60f8161c191681555b5050505050600190811b01905550565b60c081525f61466660c0830189613ef8565b602060ff89168185015283820360408501526146828289613ef8565b915083820360608501526146968288613ef8565b915083820360808501526146aa8287613ef8565b915083820360a08501525f85546146c08161448f565b808552600182811680156146db57600181146146f557614720565b60ff1984168787015282151560051b870186019450614720565b895f52855f205f5b848110156147185781548982018901529083019087016146fd565b880187019550505b50929d9c50505050505050505050505050565b634e487b7160e01b5f52601160045260245ffd5b5f6001820161475857614758614733565b5060010190565b828152604060208201525f613ddf6040830184613ef8565b604081525f6147896040830185613ef8565b90506001600160a01b03831660208301529392505050565b5f83516147b2818460208801613ed6565b8351908301906147c6818360208801613ed6565b01949350505050565b634e487b7160e01b5f52603260045260245ffd5b818103818111156107a8576107a8614733565b60ff81811683821601908111156107a8576107a8614733565b5f6020828403121561481f575f80fd5b5051919050565b5f6001600160a01b03808716835280861660208401525083604083015260806060830152612deb6080830184613ef8565b5f60208284031215614867575f80fd5b8151612bea81613e7256fea26469706673582212204ea19458595fbcd094cf9dd6b38139cc86fd2a1092aefa59163ff7dbf01a51cc64736f6c63430008160033",
  "linkReferences": {},
  "deployedLinkReferences": {}
}