{
  "_format": "hh-sol-artifact-1",
  "contractName": "ProfileNFT",
  "sourceName": "contracts/ProfileNFT.sol",
  "abi": [
    {
      "inputs": [],
      "stateMutability": "nonpayable",
      "type": "constructor"
    },
    {
      "inputs": [
        {
          "internalType": "address",
          "name": "target",
          "type": "address"
        }
      ],
      "name": "AddressEmptyCode",
      "type": "error"
    },
    {
      "inputs": [
        {
          "internalType": "address",
          "name": "implementation",
          "type": "address"
        }
      ],
      "name": "ERC1967InvalidImplementation",
      "type": "error"
    },
    {
      "inputs": [],
      "name": "ERC1967NonPayable",
      "type": "error"
    },
    {
      "inputs": [
        {
          "internalType": "address",
          "name": "sender",
          "type": "address"
        },
        {
          "internalType": "uint256",
          "name": "tokenId",
          "type": "uint256"
        },
        {
          "internalType": "address",
          "name": "owner",
          "type": "address"
        }
      ],
      "name": "ERC721IncorrectOwner",
      "type": "error"
    },
    {
      "inputs": [
        {
          "internalType": "address",
          "name": "operator",
          "type": "address"
        },
        {
          "internalType": "uint256",
          "name": "tokenId",
          "type": "uint256"
        }
      ],
      "name": "ERC721InsufficientApproval",
      "type": "error"
    },
    {
      "inputs": [
        {
          "internalType": "address",
          "name": "approver",
          "type": "address"
        }
      ],
      "name": "ERC721InvalidApprover",
      "type": "error"
    },
    {
      "inputs": [
        {
          "internalType": "address",
          "name": "operator",
          "type": "address"
        }
      ],
      "name": "ERC721InvalidOperator",
      "type": "error"
    },
    {
      "inputs": [
        {
          "internalType": "address",
          "name": "owner",
          "type": "address"
        }
      ],
      "name": "ERC721InvalidOwner",
      "type": "error"
    },
    {
      "inputs": [
        {
          "internalType": "address",
          "name": "receiver",
          "type": "address"
        }
      ],
      "name": "ERC721InvalidReceiver",
      "type": "error"
    },
    {
      "inputs": [
        {
          "internalType": "address",
          "name": "sender",
          "type": "address"
        }
      ],
      "name": "ERC721InvalidSender",
      "type": "error"
    },
    {
      "inputs": [
        {
          "internalType": "uint256",
          "name": "tokenId",
          "type": "uint256"
        }
      ],
      "name": "ERC721NonexistentToken",
      "type": "error"
    },
    {
      "inputs": [],
      "name": "FailedCall",
      "type": "error"
    },
    {
      "inputs": [],
      "name": "InvalidInitialization",
      "type": "error"
    },
    {
      "inputs": [],
      "name": "NotInitializing",
      "type": "error"
    },
    {
      "inputs": [
        {
          "internalType": "address",
          "name": "owner",
          "type": "address"
        }
      ],
      "name": "OwnableInvalidOwner",
      "type": "error"
    },
    {
      "inputs": [
        {
          "internalType": "address",
          "name": "account",
          "type": "address"
        }
      ],
      "name": "OwnableUnauthorizedAccount",
      "type": "error"
    },
    {
      "inputs": [],
      "name": "UUPSUnauthorizedCallContext",
      "type": "error"
    },
    {
      "inputs": [
        {
          "internalType": "bytes32",
          "name": "slot",
          "type": "bytes32"
        }
      ],
      "name": "UUPSUnsupportedProxiableUUID",
      "type": "error"
    },
    {
      "anonymous": false,
      "inputs": [
        {
          "indexed": true,
          "internalType": "address",
          "name": "owner",
          "type": "address"
        },
        {
          "indexed": true,
          "internalType": "address",
          "name": "approved",
          "type": "address"
        },
        {
          "indexed": true,
          "internalType": "uint256",
          "name": "tokenId",
          "type": "uint256"
        }
      ],
      "name": "Approval",
      "type": "event"
    },
    {
      "anonymous": false,
      "inputs": [
        {
          "indexed": true,
          "internalType": "address",
          "name": "owner",
          "type": "address"
        },
        {
          "indexed": true,
          "internalType": "address",
          "name": "operator",
          "type": "address"
        },
        {
          "indexed": false,
          "internalType": "bool",
          "name": "approved",
          "type": "bool"
        }
      ],
      "name": "ApprovalForAll",
      "type": "event"
    },
    {
      "anonymous": false,
      "inputs": [
        {
          "indexed": false,
          "internalType": "string",
          "name": "email",
          "type": "string"
        },
        {
          "indexed": false,
          "internalType": "address",
          "name": "user",
          "type": "address"
        }
      ],
      "name": "EmailRegistered",
      "type": "event"
    },
    {
      "anonymous": false,
      "inputs": [
        {
          "indexed": false,
          "internalType": "uint64",
          "name": "version",
          "type": "uint64"
        }
      ],
      "name": "Initialized",
      "type": "event"
    },
    {
      "anonymous": false,
      "inputs": [
        {
          "indexed": true,
          "internalType": "address",
          "name": "previousOwner",
          "type": "address"
        },
        {
          "indexed": true,
          "internalType": "address",
          "name": "newOwner",
          "type": "address"
        }
      ],
      "name": "OwnershipTransferred",
      "type": "event"
    },
    {
      "anonymous": false,
      "inputs": [
        {
          "indexed": true,
          "internalType": "address",
          "name": "user",
          "type": "address"
        },
        {
          "indexed": false,
          "internalType": "uint256",
          "name": "tokenId",
          "type": "uint256"
        },
        {
          "indexed": false,
          "internalType": "string",
          "name": "name",
          "type": "string"
        }
      ],
      "name": "ProfileCreated",
      "type": "event"
    },
    {
      "anonymous": false,
      "inputs": [
        {
          "indexed": true,
          "internalType": "address",
          "name": "user",
          "type": "address"
        },
        {
          "indexed": false,
          "internalType": "uint256",
          "name": "tokenId",
          "type": "uint256"
        }
      ],
      "name": "ProfileDeleted",
      "type": "event"
    },
    {
      "anonymous": false,
      "inputs": [
        {
          "indexed": true,
          "internalType": "address",
          "name": "user",
          "type": "address"
        },
        {
          "indexed": false,
          "internalType": "string",
          "name": "name",
          "type": "string"
        },
        {
          "indexed": false,
          "internalType": "uint8",
          "name": "age",
          "type": "uint8"
        },
        {
          "indexed": false,
          "internalType": "string",
          "name": "gender",
          "type": "string"
        },
        {
          "indexed": false,
          "internalType": "string",
          "name": "interests",
          "type": "string"
        },
        {
          "indexed": false,
          "internalType": "string",
          "name": "photoUrl",
          "type": "string"
        },
        {
          "indexed": false,
          "internalType": "string",
          "name": "email",
          "type": "string"
        }
      ],
      "name": "ProfileUpdated",
      "type": "event"
    },
    {
      "anonymous": false,
      "inputs": [
        {
          "indexed": true,
          "internalType": "address",
          "name": "from",
          "type": "address"
        },
        {
          "indexed": true,
          "internalType": "address",
          "name": "to",
          "type": "address"
        },
        {
          "indexed": true,
          "internalType": "uint256",
          "name": "tokenId",
          "type": "uint256"
        }
      ],
      "name": "Transfer",
      "type": "event"
    },
    {
      "anonymous": false,
      "inputs": [
        {
          "indexed": true,
          "internalType": "address",
          "name": "implementation",
          "type": "address"
        }
      ],
      "name": "Upgraded",
      "type": "event"
    },
    {
      "inputs": [],
      "name": "UPGRADE_INTERFACE_VERSION",
      "outputs": [
        {
          "internalType": "string",
          "name": "",
          "type": "string"
        }
      ],
      "stateMutability": "view",
      "type": "function"
    },
    {
      "inputs": [
        {
          "internalType": "address",
          "name": "",
          "type": "address"
        }
      ],
      "name": "addressToTokenId",
      "outputs": [
        {
          "internalType": "uint256",
          "name": "",
          "type": "uint256"
        }
      ],
      "stateMutability": "view",
      "type": "function"
    },
    {
      "inputs": [
        {
          "internalType": "address",
          "name": "to",
          "type": "address"
        },
        {
          "internalType": "uint256",
          "name": "tokenId",
          "type": "uint256"
        }
      ],
      "name": "approve",
      "outputs": [],
      "stateMutability": "nonpayable",
      "type": "function"
    },
    {
      "inputs": [
        {
          "internalType": "address",
          "name": "owner",
          "type": "address"
        }
      ],
      "name": "balanceOf",
      "outputs": [
        {
          "internalType": "uint256",
          "name": "",
          "type": "uint256"
        }
      ],
      "stateMutability": "view",
      "type": "function"
    },
    {
      "inputs": [
        {
          "internalType": "string",
          "name": "name",
          "type": "string"
        },
        {
          "internalType": "uint8",
          "name": "age",
          "type": "uint8"
        },
        {
          "internalType": "string",
          "name": "gender",
          "type": "string"
        },
        {
          "internalType": "string",
          "name": "interests",
          "type": "string"
        },
        {
          "internalType": "string",
          "name": "photoUrl",
          "type": "string"
        }
      ],
      "name": "createProfile",
      "outputs": [],
      "stateMutability": "nonpayable",
      "type": "function"
    },
    {
      "inputs": [],
      "name": "deleteProfile",
      "outputs": [],
      "stateMutability": "nonpayable",
      "type": "function"
    },
    {
      "inputs": [
        {
          "internalType": "string",
          "name": "email",
          "type": "string"
        }
      ],
      "name": "getAddressByEmail",
      "outputs": [
        {
          "internalType": "address",
          "name": "",
          "type": "address"
        }
      ],
      "stateMutability": "view",
      "type": "function"
    },
    {
      "inputs": [
        {
          "internalType": "uint256",
          "name": "tokenId",
          "type": "uint256"
        }
      ],
      "name": "getApproved",
      "outputs": [
        {
          "internalType": "address",
          "name": "",
          "type": "address"
        }
      ],
      "stateMutability": "view",
      "type": "function"
    },
    {
      "inputs": [
        {
          "internalType": "address",
          "name": "user",
          "type": "address"
        }
      ],
      "name": "getProfile",
      "outputs": [
        {
          "components": [
            {
              "internalType": "uint256",
              "name": "tokenId",
              "type": "uint256"
            },
            {
              "internalType": "string",
              "name": "name",
              "type": "string"
            },
            {
              "internalType": "uint8",
              "name": "age",
              "type": "uint8"
            },
            {
              "internalType": "string",
              "name": "gender",
              "type": "string"
            },
            {
              "internalType": "string",
              "name": "interests",
              "type": "string"
            },
            {
              "internalType": "string",
              "name": "photoUrl",
              "type": "string"
            },
            {
              "internalType": "string",
              "name": "email",
              "type": "string"
            },
            {
              "internalType": "bool",
              "name": "exists",
              "type": "bool"
            }
          ],
          "internalType": "struct ProfileNFT.Profile",
          "name": "",
          "type": "tuple"
        }
      ],
      "stateMutability": "view",
      "type": "function"
    },
    {
      "inputs": [
        {
          "internalType": "uint256",
          "name": "tokenId",
          "type": "uint256"
        }
      ],
      "name": "getProfileByTokenId",
      "outputs": [
        {
          "components": [
            {
              "internalType": "uint256",
              "name": "tokenId",
              "type": "uint256"
            },
            {
              "internalType": "string",
              "name": "name",
              "type": "string"
            },
            {
              "internalType": "uint8",
              "name": "age",
              "type": "uint8"
            },
            {
              "internalType": "string",
              "name": "gender",
              "type": "string"
            },
            {
              "internalType": "string",
              "name": "interests",
              "type": "string"
            },
            {
              "internalType": "string",
              "name": "photoUrl",
              "type": "string"
            },
            {
              "internalType": "string",
              "name": "email",
              "type": "string"
            },
            {
              "internalType": "bool",
              "name": "exists",
              "type": "bool"
            }
          ],
          "internalType": "struct ProfileNFT.Profile",
          "name": "",
          "type": "tuple"
        }
      ],
      "stateMutability": "view",
      "type": "function"
    },
    {
      "inputs": [],
      "name": "initialize",
      "outputs": [],
      "stateMutability": "nonpayable",
      "type": "function"
    },
    {
      "inputs": [
        {
          "internalType": "address",
          "name": "owner",
          "type": "address"
        },
        {
          "internalType": "address",
          "name": "operator",
          "type": "address"
        }
      ],
      "name": "isApprovedForAll",
      "outputs": [
        {
          "internalType": "bool",
          "name": "",
          "type": "bool"
        }
      ],
      "stateMutability": "view",
      "type": "function"
    },
    {
      "inputs": [
        {
          "internalType": "string",
          "name": "email",
          "type": "string"
        }
      ],
      "name": "isEmailRegistered",
      "outputs": [
        {
          "internalType": "bool",
          "name": "",
          "type": "bool"
        }
      ],
      "stateMutability": "view",
      "type": "function"
    },
    {
      "inputs": [],
      "name": "matchingContract",
      "outputs": [
        {
          "internalType": "address",
          "name": "",
          "type": "address"
        }
      ],
      "stateMutability": "view",
      "type": "function"
    },
    {
      "inputs": [],
      "name": "name",
      "outputs": [
        {
          "internalType": "string",
          "name": "",
          "type": "string"
        }
      ],
      "stateMutability": "view",
      "type": "function"
    },
    {
      "inputs": [],
      "name": "owner",
      "outputs": [
        {
          "internalType": "address",
          "name": "",
          "type": "address"
        }
      ],
      "stateMutability": "view",
      "type": "function"
    },
    {
      "inputs": [
        {
          "internalType": "uint256",
          "name": "tokenId",
          "type": "uint256"
        }
      ],
      "name": "ownerOf",
      "outputs": [
        {
          "internalType": "address",
          "name": "",
          "type": "address"
        }
      ],
      "stateMutability": "view",
      "type": "function"
    },
    {
      "inputs": [
        {
          "internalType": "address",
          "name": "user",
          "type": "address"
        }
      ],
      "name": "profileExists",
      "outputs": [
        {
          "internalType": "bool",
          "name": "",
          "type": "bool"
        }
      ],
      "stateMutability": "view",
      "type": "function"
    },
    {
      "inputs": [
        {
          "internalType": "address",
          "name": "",
          "type": "address"
        }
      ],
      "name": "profiles",
      "outputs": [
        {
          "internalType": "uint256",
          "name": "tokenId",
          "type": "uint256"
        },
        {
          "internalType": "string",
          "name": "name",
          "type": "string"
        },
        {
          "internalType": "uint8",
          "name": "age",
          "type": "uint8"
        },
        {
          "internalType": "string",
          "name": "gender",
          "type": "string"
        },
        {
          "internalType": "string",
          "name": "interests",
          "type": "string"
        },
        {
          "internalType": "string",
          "name": "photoUrl",
          "type": "string"
        },
        {
          "internalType": "string",
          "name": "email",
          "type": "string"
        },
        {
          "internalType": "bool",
          "name": "exists",
          "type": "bool"
        }
      ],
      "stateMutability": "view",
      "type": "function"
    },
    {
      "inputs": [],
      "name": "proxiableUUID",
      "outputs": [
        {
          "internalType": "bytes32",
          "name": "",
          "type": "bytes32"
        }
      ],
      "stateMutability": "view",
      "type": "function"
    },
    {
      "inputs": [
        {
          "internalType": "string",
          "name": "name",
          "type": "string"
        },
        {
          "internalType": "uint8",
          "name": "age",
          "type": "uint8"
        },
        {
          "internalType": "string",
          "name": "gender",
          "type": "string"
        },
        {
          "internalType": "string",
          "name": "interests",
          "type": "string"
        },
        {
          "internalType": "string",
          "name": "email",
          "type": "string"
        }
      ],
      "name": "registerWithEmail",
      "outputs": [],
      "stateMutability": "nonpayable",
      "type": "function"
    },
    {
      "inputs": [],
      "name": "renounceOwnership",
      "outputs": [],
      "stateMutability": "nonpayable",
      "type": "function"
    },
    {
      "inputs": [
        {
          "internalType": "address",
          "name": "from",
          "type": "address"
        },
        {
          "internalType": "address",
          "name": "to",
          "type": "address"
        },
        {
          "internalType": "uint256",
          "name": "tokenId",
          "type": "uint256"
        }
      ],
      "name": "safeTransferFrom",
      "outputs": [],
      "stateMutability": "nonpayable",
      "type": "function"
    },
    {
      "inputs": [
        {
          "internalType": "address",
          "name": "",
          "type": "address"
        },
        {
          "internalType": "address",
          "name": "",
          "type": "address"
        },
        {
          "internalType": "uint256",
          "name": "",
          "type": "uint256"
        },
        {
          "internalType": "bytes",
          "name": "",
          "type": "bytes"
        }
      ],
      "name": "safeTransferFrom",
      "outputs": [],
      "stateMutability": "pure",
      "type": "function"
    },
    {
      "inputs": [
        {
          "internalType": "address",
          "name": "operator",
          "type": "address"
        },
        {
          "internalType": "bool",
          "name": "approved",
          "type": "bool"
        }
      ],
      "name": "setApprovalForAll",
      "outputs": [],
      "stateMutability": "nonpayable",
      "type": "function"
    },
    {
      "inputs": [
        {
          "internalType": "address",
          "name": "_matchingContract",
          "type": "address"
        }
      ],
      "name": "setMatchingContract",
      "outputs": [],
      "stateMutability": "nonpayable",
      "type": "function"
    },
    {
      "inputs": [
        {
          "internalType": "bytes4",
          "name": "interfaceId",
          "type": "bytes4"
        }
      ],
      "name": "supportsInterface",
      "outputs": [
        {
          "internalType": "bool",
          "name": "",
          "type": "bool"
        }
      ],
      "stateMutability": "view",
      "type": "function"
    },
    {
      "inputs": [],
      "name": "symbol",
      "outputs": [
        {
          "internalType": "string",
          "name": "",
          "type": "string"
        }
      ],
      "stateMutability": "view",
      "type": "function"
    },
    {
      "inputs": [
        {
          "internalType": "uint256",
          "name": "",
          "type": "uint256"
        }
      ],
      "name": "tokenIdToAddress",
      "outputs": [
        {
          "internalType": "address",
          "name": "",
          "type": "address"
        }
      ],
      "stateMutability": "view",
      "type": "function"
    },
    {
      "inputs": [
        {
          "internalType": "uint256",
          "name": "tokenId",
          "type": "uint256"
        }
      ],
      "name": "tokenURI",
      "outputs": [
        {
          "internalType": "string",
          "name": "",
          "type": "string"
        }
      ],
      "stateMutability": "view",
      "type": "function"
    },
    {
      "inputs": [
        {
          "internalType": "address",
          "name": "",
          "type": "address"
        },
        {
          "internalType": "address",
          "name": "",
          "type": "address"
        },
        {
          "internalType": "uint256",
          "name": "",
          "type": "uint256"
        }
      ],
      "name": "transferFrom",
      "outputs": [],
      "stateMutability": "pure",
      "type": "function"
    },
    {
      "inputs": [
        {
          "internalType": "address",
          "name": "newOwner",
          "type": "address"
        }
      ],
      "name": "transferOwnership",
      "outputs": [],
      "stateMutability": "nonpayable",
      "type": "function"
    },
    {
      "inputs": [
        {
          "internalType": "string",
          "name": "name",
          "type": "string"
        },
        {
          "internalType": "uint8",
          "name": "age",
          "type": "uint8"
        },
        {
          "internalType": "string",
          "name": "gender",
          "type": "string"
        },
        {
          "internalType": "string",
          "name": "interests",
          "type": "string"
        },
        {
          "internalType": "string",
          "name": "photoUrl",
          "type": "string"
        },
        {
          "internalType": "string",
          "name": "email",
          "type": "string"
        }
      ],
      "name": "updateProfile",
      "outputs": [],
      "stateMutability": "nonpayable",
      "type": "function"
    },
    {
      "inputs": [
        {
          "internalType": "address",
          "name": "newImplementation",
          "type": "address"
        },
        {
          "internalType": "bytes",
          "name": "data",
          "type": "bytes"
        }
      ],
      "name": "upgradeToAndCall",
      "outputs": [],
      "stateMutability": "payable",
      "type": "function"
    }
  ],
  "bytecode": "0x60a0604052306080523480156200001557600080fd5b506200002062000026565b620000da565b7ff0c57e16840df040f15088dc2f81fe391c3923bec73e23a9662efc9c229c6a00805468010000000000000000900460ff1615620000775760405163f92ee8a960e01b815260040160405180910390fd5b80546001600160401b0390811614620000d75780546001600160401b0319166001600160401b0390811782556040519081527fc7f505b2f371ae2175ee4913f4499e1f2633a7b5936321eed1cdaeb6115181d29060200160405180910390a15b50565b6080516149db62000104600039600081816131190152818161314201526132c001526149db6000f3fe6080604052600436106102195760003560e01c80636d4540eb1161011d578063a22cb465116100b0578063c5caea011161007f578063df3cdad711610064578063df3cdad71461069a578063e985e9c5146106ba578063f2fde38b1461072257600080fd5b8063c5caea011461065a578063c87b56dd1461067a57600080fd5b8063a22cb465146105a2578063ad3cb1cc146105c2578063b88d4fde1461060b578063bbe156271461062657600080fd5b80638129fc1c116100ec5780638129fc1c1461051b5780638da5cb5b1461053057806395d89b411461056d5780639e385dfb1461058257600080fd5b80636d4540eb146104b157806370a08231146104c6578063715018a6146104e65780637b09a6e3146104fb57600080fd5b80632182d9d7116101b05780634f1ef2861161017f57806353964b191161016457806353964b19146104445780636352211e146104645780636511bf2e1461048457600080fd5b80634f1ef2861461040e57806352d1902d1461042157600080fd5b80632182d9d71461038e57806323b872dd146103ae57806342842e0e146103ce5780634ab491b6146103ee57600080fd5b806308bb76a5116101ec57806308bb76a5146102e9578063095ea7b31461031f5780630f53a4701461034157806310ea22711461036e57600080fd5b806301ffc9a71461021e57806305cfa06f1461025357806306fdde031461028f578063081812fc146102b1575b600080fd5b34801561022a57600080fd5b5061023e610239366004613f60565b610742565b60405190151581526020015b60405180910390f35b34801561025f57600080fd5b5061023e61026e366004613f99565b6001600160a01b031660009081526001602052604090206007015460ff1690565b34801561029b57600080fd5b506102a46107df565b60405161024a9190614004565b3480156102bd57600080fd5b506102d16102cc366004614017565b610895565b6040516001600160a01b03909116815260200161024a565b3480156102f557600080fd5b506102d1610304366004614017565b6003602052600090815260409020546001600160a01b031681565b34801561032b57600080fd5b5061033f61033a366004614030565b6108dd565b005b34801561034d57600080fd5b5061036161035c366004613f99565b6108ec565b60405161024a919061405a565b34801561037a57600080fd5b5061033f6103893660046141e1565b610c67565b34801561039a57600080fd5b5061033f6103a9366004613f99565b611227565b3480156103ba57600080fd5b5061033f6103c93660046142c2565b611300565b3480156103da57600080fd5b5061033f6103e93660046142c2565b611348565b3480156103fa57600080fd5b5061033f6104093660046142fe565b611368565b61033f61041c3660046143bc565b611784565b34801561042d57600080fd5b5061043661179f565b60405190815260200161024a565b34801561045057600080fd5b506006546102d1906001600160a01b031681565b34801561047057600080fd5b506102d161047f366004614017565b6117ce565b34801561049057600080fd5b5061043661049f366004613f99565b60026020526000908152604090205481565b3480156104bd57600080fd5b5061033f6117d9565b3480156104d257600080fd5b506104366104e1366004613f99565b611d40565b3480156104f257600080fd5b5061033f611dc7565b34801561050757600080fd5b50610361610516366004614017565b611ddb565b34801561052757600080fd5b5061033f6121bc565b34801561053c57600080fd5b507f9016d09d72d40fdae2fd8ceac6b6234c7706214fd39c1cd1e609a0528c199300546001600160a01b03166102d1565b34801561057957600080fd5b506102a4612360565b34801561058e57600080fd5b5061033f61059d3660046142fe565b6123b1565b3480156105ae57600080fd5b5061033f6105bd36600461440a565b6128e8565b3480156105ce57600080fd5b506102a46040518060400160405280600581526020017f352e302e3000000000000000000000000000000000000000000000000000000081525081565b34801561061757600080fd5b5061033f6103c9366004614446565b34801561063257600080fd5b50610646610641366004613f99565b6128f3565b60405161024a9897969594939291906144ae565b34801561066657600080fd5b506102d1610675366004614539565b612be7565b34801561068657600080fd5b506102a4610695366004614017565b612c18565b3480156106a657600080fd5b5061023e6106b5366004614539565b612c8d565b3480156106c657600080fd5b5061023e6106d536600461456e565b6001600160a01b0391821660009081527f80bb2b638cc20bc4d0a60d66940f3ab4a00c1d7b313497ca82fb0b4ab00793056020908152604080832093909416825291909152205460ff1690565b34801561072e57600080fd5b5061033f61073d366004613f99565b612cb8565b60006001600160e01b031982167f80ac58cd0000000000000000000000000000000000000000000000000000000014806107a557506001600160e01b031982167f5b5e139f00000000000000000000000000000000000000000000000000000000145b806107d957507f01ffc9a7000000000000000000000000000000000000000000000000000000006001600160e01b03198316145b92915050565b7f80bb2b638cc20bc4d0a60d66940f3ab4a00c1d7b313497ca82fb0b4ab00793008054606091908190610811906145a1565b80601f016020809104026020016040519081016040528092919081815260200182805461083d906145a1565b801561088a5780601f1061085f5761010080835404028352916020019161088a565b820191906000526020600020905b81548152906001019060200180831161086d57829003601f168201915b505050505091505090565b60006108a082612d0f565b5060008281527f80bb2b638cc20bc4d0a60d66940f3ab4a00c1d7b313497ca82fb0b4ab007930460205260409020546001600160a01b03166107d9565b6108e8828233612d67565b5050565b6109396040518061010001604052806000815260200160608152602001600060ff168152602001606081526020016060815260200160608152602001606081526020016000151581525090565b6001600160a01b0382166000908152600160208181526040928390208351610100810190945280548452918201805491840191610975906145a1565b80601f01602080910402602001604051908101604052809291908181526020018280546109a1906145a1565b80156109ee5780601f106109c3576101008083540402835291602001916109ee565b820191906000526020600020905b8154815290600101906020018083116109d157829003601f168201915b5050509183525050600282015460ff166020820152600382018054604090920191610a18906145a1565b80601f0160208091040260200160405190810160405280929190818152602001828054610a44906145a1565b8015610a915780601f10610a6657610100808354040283529160200191610a91565b820191906000526020600020905b815481529060010190602001808311610a7457829003601f168201915b50505050508152602001600482018054610aaa906145a1565b80601f0160208091040260200160405190810160405280929190818152602001828054610ad6906145a1565b8015610b235780601f10610af857610100808354040283529160200191610b23565b820191906000526020600020905b815481529060010190602001808311610b0657829003601f168201915b50505050508152602001600582018054610b3c906145a1565b80601f0160208091040260200160405190810160405280929190818152602001828054610b68906145a1565b8015610bb55780601f10610b8a57610100808354040283529160200191610bb5565b820191906000526020600020905b815481529060010190602001808311610b9857829003601f168201915b50505050508152602001600682018054610bce906145a1565b80601f0160208091040260200160405190810160405280929190818152602001828054610bfa906145a1565b8015610c475780601f10610c1c57610100808354040283529160200191610c47565b820191906000526020600020905b815481529060010190602001808311610c2a57829003601f168201915b50505091835250506007919091015460ff16151560209091015292915050565b3360009081526001602052604090206007015460ff16610cce5760405162461bcd60e51b815260206004820152601660248201527f50726f66696c6520646f6573206e6f742065786973740000000000000000000060448201526064015b60405180910390fd5b60128560ff161015610d225760405162461bcd60e51b815260206004820152601360248201527f4d757374206265203138206f72206f6c646572000000000000000000000000006044820152606401610cc5565b60788560ff161115610d765760405162461bcd60e51b815260206004820152601560248201527f416765206d757374206265207265616c697374696300000000000000000000006044820152606401610cc5565b6002865110158015610d8a57506064865111155b610dd65760405162461bcd60e51b815260206004820152601d60248201527f4e616d65206d75737420626520322d31303020636861726163746572730000006044820152606401610cc5565b60008351118015610dea57506101f4835111155b610e415760405162461bcd60e51b815260206004820152602260248201527f496e74657265737473206d75737420626520312d353030206368617261637465604482015261727360f01b6064820152608401610cc5565b6101f482511115610e945760405162461bcd60e51b815260206004820152601260248201527f50686f746f2055524c20746f6f206c6f6e6700000000000000000000000000006044820152606401610cc5565b60008451118015610ea757506032845111155b610ef35760405162461bcd60e51b815260206004820152601460248201527f47656e646572206d7573742062652076616c69640000000000000000000000006044820152606401610cc5565b80511561117257610f0381612d74565b610f4f5760405162461bcd60e51b815260206004820152601460248201527f496e76616c696420656d61696c20666f726d61740000000000000000000000006044820152606401610cc5565b6000610f5a82612e9b565b336000908152600160205260409020600601805491925061100291610f7e906145a1565b80601f0160208091040260200160405190810160405280929190818152602001828054610faa906145a1565b8015610ff75780601f10610fcc57610100808354040283529160200191610ff7565b820191906000526020600020905b815481529060010190602001808311610fda57829003601f168201915b505050505082613027565b6111535760048160405161101691906145db565b9081526040519081900360200190205460ff16156110765760405162461bcd60e51b815260206004820152601860248201527f456d61696c20616c7265616479207265676973746572656400000000000000006044820152606401610cc5565b3360009081526001602052604081206006018054611093906145a1565b905011156110e0573360009081526001602052604080822090516004916110bf916006909101906145f7565b908152604051908190036020019020805491151560ff199092169190911790555b60016004826040516110f291906145db565b908152604051908190036020018120805492151560ff199093169290921790915533906005906111239084906145db565b90815260405190819003602001902080546001600160a01b03929092166001600160a01b03199092169190911790555b33600090815260016020526040902060060161116f82826146b5565b50505b33600090815260016020819052604090912090810161119188826146b5565b5060028101805460ff191660ff8816179055600381016111b186826146b5565b50600481016111c085826146b5565b50600581016111cf84826146b5565b50336001600160a01b03167fff05e84fce958ef60921c414197d065753ed947b0d3460ddef8244c534c916da88888888888760060160405161121696959493929190614775565b60405180910390a250505050505050565b61122f613080565b6006546001600160a01b0316156112885760405162461bcd60e51b815260206004820152601d60248201527f4d61746368696e6720636f6e747261637420616c7265616479207365740000006044820152606401610cc5565b6001600160a01b0381166112de5760405162461bcd60e51b815260206004820152600f60248201527f496e76616c6964206164647265737300000000000000000000000000000000006044820152606401610cc5565b600680546001600160a01b0319166001600160a01b0392909216919091179055565b60405162461bcd60e51b815260206004820152601f60248201527f536f756c626f756e643a205472616e73666572206e6f7420616c6c6f776564006044820152606401610cc5565b61136383838360405180602001604052806000815250611300565b505050565b3360009081526001602052604090206007015460ff16156113cb5760405162461bcd60e51b815260206004820152601660248201527f50726f66696c6520616c726561647920657869737473000000000000000000006044820152606401610cc5565b60128460ff16101561141f5760405162461bcd60e51b815260206004820152601360248201527f4d757374206265203138206f72206f6c646572000000000000000000000000006044820152606401610cc5565b60788460ff1611156114735760405162461bcd60e51b815260206004820152601560248201527f416765206d757374206265207265616c697374696300000000000000000000006044820152606401610cc5565b600285511015801561148757506064855111155b6114d35760405162461bcd60e51b815260206004820152601d60248201527f4e616d65206d75737420626520322d31303020636861726163746572730000006044820152606401610cc5565b600082511180156114e757506101f4825111155b61153e5760405162461bcd60e51b815260206004820152602260248201527f496e74657265737473206d75737420626520312d353030206368617261637465604482015261727360f01b6064820152608401610cc5565b6101f4815111156115915760405162461bcd60e51b815260206004820152601260248201527f50686f746f2055524c20746f6f206c6f6e6700000000000000000000000000006044820152606401610cc5565b600083511180156115a457506032835111155b6115f05760405162461bcd60e51b815260206004820152601460248201527f47656e646572206d7573742062652076616c69640000000000000000000000006044820152606401610cc5565b6000805490806115ff8361486f565b909155505060008054604080516101008101825282815260208082018a815260ff8a1683850152606083018990526080830188905260a083018790528351808301855286815260c0840152600160e084018190523387529182905292909420815181559151929390929082019061167690826146b5565b50604082015160028201805460ff191660ff909216919091179055606082015160038201906116a590826146b5565b50608082015160048201906116ba90826146b5565b5060a082015160058201906116cf90826146b5565b5060c082015160068201906116e490826146b5565b5060e091909101516007909101805460ff19169115159190911790553360008181526002602090815260408083208590558483526003909152902080546001600160a01b0319168217905561173990826130f4565b336001600160a01b03167f02ed4ee0412e67bbc9ed1687f3ad6bb7134d359d45994f3bf5302e91d81cf61f8288604051611774929190614888565b60405180910390a2505050505050565b61178c61310e565b611795826131c5565b6108e882826131cd565b60006117a96132b5565b507f360894a13ba1a3210667c828492db98dca3e2076cc3735a920a3ca505d382bbc90565b60006107d982612d0f565b3360009081526001602052604090206007015460ff1661183b5760405162461bcd60e51b815260206004820152601660248201527f50726f66696c6520646f6573206e6f74206578697374000000000000000000006044820152606401610cc5565b3360009081526001602081815260408084208151610100810190925280548252928301805491939284019161186f906145a1565b80601f016020809104026020016040519081016040528092919081815260200182805461189b906145a1565b80156118e85780601f106118bd576101008083540402835291602001916118e8565b820191906000526020600020905b8154815290600101906020018083116118cb57829003601f168201915b5050509183525050600282015460ff166020820152600382018054604090920191611912906145a1565b80601f016020809104026020016040519081016040528092919081815260200182805461193e906145a1565b801561198b5780601f106119605761010080835404028352916020019161198b565b820191906000526020600020905b81548152906001019060200180831161196e57829003601f168201915b505050505081526020016004820180546119a4906145a1565b80601f01602080910402602001604051908101604052809291908181526020018280546119d0906145a1565b8015611a1d5780601f106119f257610100808354040283529160200191611a1d565b820191906000526020600020905b815481529060010190602001808311611a0057829003601f168201915b50505050508152602001600582018054611a36906145a1565b80601f0160208091040260200160405190810160405280929190818152602001828054611a62906145a1565b8015611aaf5780601f10611a8457610100808354040283529160200191611aaf565b820191906000526020600020905b815481529060010190602001808311611a9257829003601f168201915b50505050508152602001600682018054611ac8906145a1565b80601f0160208091040260200160405190810160405280929190818152602001828054611af4906145a1565b8015611b415780601f10611b1657610100808354040283529160200191611b41565b820191906000526020600020905b815481529060010190602001808311611b2457829003601f168201915b50505091835250506007919091015460ff161515602090910152805160c0820151519192509015611bdd576000611b7b8360c00151612e9b565b90506000600482604051611b8f91906145db565b908152604051908190036020018120805492151560ff1990931692909217909155600590611bbe9083906145db565b90815260405190819003602001902080546001600160a01b0319169055505b6006546001600160a01b031615611c5f576006546040517ff569f82f0000000000000000000000000000000000000000000000000000000081523360048201526001600160a01b039091169063f569f82f90602401600060405180830381600087803b158015611c4c57600080fd5b505af1925050508015611c5d575060015b505b33600090815260016020819052604082208281559190611c8190830182613efc565b60028201805460ff19169055611c9b600383016000613efc565b611ca9600483016000613efc565b611cb7600583016000613efc565b611cc5600683016000613efc565b50600701805460ff191690553360009081526002602090815260408083208390558383526003909152902080546001600160a01b0319169055611d07816132fe565b60405181815233907f236eb7515b00733d8ade7456155d53d63c2fa66bec6437ddff6ab3fc71e1e3249060200160405180910390a25050565b60007f80bb2b638cc20bc4d0a60d66940f3ab4a00c1d7b313497ca82fb0b4ab00793006001600160a01b038316611da6576040517f89c62b6400000000000000000000000000000000000000000000000000000000815260006004820152602401610cc5565b6001600160a01b039092166000908152600390920160205250604090205490565b611dcf613080565b611dd96000613339565b565b611e286040518061010001604052806000815260200160608152602001600060ff168152602001606081526020016060815260200160608152602001606081526020016000151581525090565b6000828152600360205260409020546001600160a01b031680611e8d5760405162461bcd60e51b815260206004820152601460248201527f546f6b656e20646f6573206e6f742065786973740000000000000000000000006044820152606401610cc5565b6001600160a01b0381166000908152600160208181526040928390208351610100810190945280548452918201805491840191611ec9906145a1565b80601f0160208091040260200160405190810160405280929190818152602001828054611ef5906145a1565b8015611f425780601f10611f1757610100808354040283529160200191611f42565b820191906000526020600020905b815481529060010190602001808311611f2557829003601f168201915b5050509183525050600282015460ff166020820152600382018054604090920191611f6c906145a1565b80601f0160208091040260200160405190810160405280929190818152602001828054611f98906145a1565b8015611fe55780601f10611fba57610100808354040283529160200191611fe5565b820191906000526020600020905b815481529060010190602001808311611fc857829003601f168201915b50505050508152602001600482018054611ffe906145a1565b80601f016020809104026020016040519081016040528092919081815260200182805461202a906145a1565b80156120775780601f1061204c57610100808354040283529160200191612077565b820191906000526020600020905b81548152906001019060200180831161205a57829003601f168201915b50505050508152602001600582018054612090906145a1565b80601f01602080910402602001604051908101604052809291908181526020018280546120bc906145a1565b80156121095780601f106120de57610100808354040283529160200191612109565b820191906000526020600020905b8154815290600101906020018083116120ec57829003601f168201915b50505050508152602001600682018054612122906145a1565b80601f016020809104026020016040519081016040528092919081815260200182805461214e906145a1565b801561219b5780601f106121705761010080835404028352916020019161219b565b820191906000526020600020905b81548152906001019060200180831161217e57829003601f168201915b50505091835250506007919091015460ff1615156020909101529392505050565b60006121c66133aa565b805490915060ff68010000000000000000820416159067ffffffffffffffff166000811580156121f35750825b905060008267ffffffffffffffff1660011480156122105750303b155b90508115801561221e575080155b15612255576040517ff92ee8a900000000000000000000000000000000000000000000000000000000815260040160405180910390fd5b845467ffffffffffffffff19166001178555831561228957845468ff00000000000000001916680100000000000000001785555b6122fd6040518060400160405280601181526020017f426173654d617463682050726f66696c650000000000000000000000000000008152506040518060400160405280600581526020017f424d50524f0000000000000000000000000000000000000000000000000000008152506133d3565b612306336133e5565b61230e6133f6565b831561235957845468ff000000000000000019168555604051600181527fc7f505b2f371ae2175ee4913f4499e1f2633a7b5936321eed1cdaeb6115181d29060200160405180910390a15b5050505050565b7f80bb2b638cc20bc4d0a60d66940f3ab4a00c1d7b313497ca82fb0b4ab007930180546060917f80bb2b638cc20bc4d0a60d66940f3ab4a00c1d7b313497ca82fb0b4ab007930091610811906145a1565b3360009081526001602052604090206007015460ff16156124145760405162461bcd60e51b815260206004820152601660248201527f50726f66696c6520616c726561647920657869737473000000000000000000006044820152606401610cc5565b60128460ff1610156124685760405162461bcd60e51b815260206004820152601360248201527f4d757374206265203138206f72206f6c646572000000000000000000000000006044820152606401610cc5565b60788460ff1611156124bc5760405162461bcd60e51b815260206004820152601560248201527f416765206d757374206265207265616c697374696300000000000000000000006044820152606401610cc5565b60028551101580156124d057506064855111155b61251c5760405162461bcd60e51b815260206004820152601d60248201527f4e616d65206d75737420626520322d31303020636861726163746572730000006044820152606401610cc5565b6000825111801561253057506101f4825111155b6125875760405162461bcd60e51b815260206004820152602260248201527f496e74657265737473206d75737420626520312d353030206368617261637465604482015261727360f01b6064820152608401610cc5565b60008151116125d85760405162461bcd60e51b815260206004820152601560248201527f456d61696c2063616e6e6f7420626520656d70747900000000000000000000006044820152606401610cc5565b6125e181612d74565b61262d5760405162461bcd60e51b815260206004820152601460248201527f496e76616c696420656d61696c20666f726d61740000000000000000000000006044820152606401610cc5565b600061263882612e9b565b905060048160405161264a91906145db565b9081526040519081900360200190205460ff16156126aa5760405162461bcd60e51b815260206004820152601860248201527f456d61696c20616c7265616479207265676973746572656400000000000000006044820152606401610cc5565b6000805490806126b98361486f565b90915550506000546040516001906004906126d59085906145db565b908152604051908190036020018120805492151560ff199093169290921790915533906005906127069085906145db565b908152604080516020928190038301812080546001600160a01b0319166001600160a01b039590951694909417909355610100830181528383528183018a815260ff8a1684830152606084018990526080840188905281518084018352600080825260a086019190915260c08501879052600160e08601819052338252938490529190912083518155905190918201906127a090826146b5565b50604082015160028201805460ff191660ff909216919091179055606082015160038201906127cf90826146b5565b50608082015160048201906127e490826146b5565b5060a082015160058201906127f990826146b5565b5060c0820151600682019061280e90826146b5565b5060e091909101516007909101805460ff19169115159190911790553360008181526002602090815260408083208590558483526003909152902080546001600160a01b0319168217905561286390826130f4565b336001600160a01b03167f02ed4ee0412e67bbc9ed1687f3ad6bb7134d359d45994f3bf5302e91d81cf61f828960405161289e929190614888565b60405180910390a27f47f02b73945ce0ca4c471ed60f05863657de8944610464aad740573b7c3b2d8c82336040516128d79291906148a1565b60405180910390a150505050505050565b6108e83383836133fe565b600160208190526000918252604090912080549181018054612914906145a1565b80601f0160208091040260200160405190810160405280929190818152602001828054612940906145a1565b801561298d5780601f106129625761010080835404028352916020019161298d565b820191906000526020600020905b81548152906001019060200180831161297057829003601f168201915b5050506002840154600385018054949560ff9092169491935091506129b1906145a1565b80601f01602080910402602001604051908101604052809291908181526020018280546129dd906145a1565b8015612a2a5780601f106129ff57610100808354040283529160200191612a2a565b820191906000526020600020905b815481529060010190602001808311612a0d57829003601f168201915b505050505090806004018054612a3f906145a1565b80601f0160208091040260200160405190810160405280929190818152602001828054612a6b906145a1565b8015612ab85780601f10612a8d57610100808354040283529160200191612ab8565b820191906000526020600020905b815481529060010190602001808311612a9b57829003601f168201915b505050505090806005018054612acd906145a1565b80601f0160208091040260200160405190810160405280929190818152602001828054612af9906145a1565b8015612b465780601f10612b1b57610100808354040283529160200191612b46565b820191906000526020600020905b815481529060010190602001808311612b2957829003601f168201915b505050505090806006018054612b5b906145a1565b80601f0160208091040260200160405190810160405280929190818152602001828054612b87906145a1565b8015612bd45780601f10612ba957610100808354040283529160200191612bd4565b820191906000526020600020905b815481529060010190602001808311612bb757829003601f168201915b5050506007909301549192505060ff1688565b6000600582604051612bf991906145db565b908152604051908190036020019020546001600160a01b031692915050565b6060612c2382612d0f565b506000612c3b60408051602081019091526000815290565b90506000815111612c5b5760405180602001604052806000815250612c86565b80612c65846134da565b604051602001612c769291906148cc565b6040516020818303038152906040525b9392505050565b6000600482604051612c9f91906145db565b9081526040519081900360200190205460ff1692915050565b612cc0613080565b6001600160a01b038116612d03576040517f1e4fbdf700000000000000000000000000000000000000000000000000000000815260006004820152602401610cc5565b612d0c81613339565b50565b60008181527f80bb2b638cc20bc4d0a60d66940f3ab4a00c1d7b313497ca82fb0b4ab007930260205260408120546001600160a01b0316806107d957604051637e27328960e01b815260048101849052602401610cc5565b611363838383600161357a565b600080829050600581511015612d8d5750600092915050565b60fe81511115612da05750600092915050565b6000806000805b8451811015612e83576000858281518110612dc457612dc46148fb565b01602001516001600160f81b03191690507f4000000000000000000000000000000000000000000000000000000000000000819003612e3a5784612e078161486f565b95506001945050811580612e27575060018651612e249190614911565b82145b15612e3a57506000979650505050505050565b838015612e7057507f2e000000000000000000000000000000000000000000000000000000000000006001600160f81b03198216145b15612e7a57600192505b50600101612da7565b50826001148015612e915750805b9695505050505050565b606060008290506000815167ffffffffffffffff811115612ebe57612ebe61412d565b6040519080825280601f01601f191660200182016040528015612ee8576020820181803683370190505b50905060005b825181101561301f576000838281518110612f0b57612f0b6148fb565b01602001516001600160f81b03191690507f41000000000000000000000000000000000000000000000000000000000000008110801590612f7657507f5a000000000000000000000000000000000000000000000000000000000000006001600160f81b0319821611155b15612fd357612f8a60f882901c6020614924565b60f81b838381518110612f9f57612f9f6148fb565b60200101907effffffffffffffffffffffffffffffffffffffffffffffffffffffffffffff1916908160001a905350613016565b80838381518110612fe657612fe66148fb565b60200101907effffffffffffffffffffffffffffffffffffffffffffffffffffffffffffff1916908160001a9053505b50600101612eee565b509392505050565b60008160405160200161303a91906145db565b604051602081830303815290604052805190602001208360405160200161306191906145db565b6040516020818303038152906040528051906020012014905092915050565b336130b27f9016d09d72d40fdae2fd8ceac6b6234c7706214fd39c1cd1e609a0528c199300546001600160a01b031690565b6001600160a01b031614611dd9576040517f118cdaa7000000000000000000000000000000000000000000000000000000008152336004820152602401610cc5565b6108e88282604051806020016040528060008152506136f9565b306001600160a01b037f00000000000000000000000000000000000000000000000000000000000000001614806131a757507f00000000000000000000000000000000000000000000000000000000000000006001600160a01b031661319b7f360894a13ba1a3210667c828492db98dca3e2076cc3735a920a3ca505d382bbc546001600160a01b031690565b6001600160a01b031614155b15611dd95760405163703e46dd60e11b815260040160405180910390fd5b612d0c613080565b816001600160a01b03166352d1902d6040518163ffffffff1660e01b8152600401602060405180830381865afa925050508015613227575060408051601f3d908101601f191682019092526132249181019061493d565b60015b61324f57604051634c9c8ce360e01b81526001600160a01b0383166004820152602401610cc5565b7f360894a13ba1a3210667c828492db98dca3e2076cc3735a920a3ca505d382bbc81146132ab576040517faa1d49a400000000000000000000000000000000000000000000000000000000815260048101829052602401610cc5565b6113638383613711565b306001600160a01b037f00000000000000000000000000000000000000000000000000000000000000001614611dd95760405163703e46dd60e11b815260040160405180910390fd5b600061330d6000836000613767565b90506001600160a01b0381166108e857604051637e27328960e01b815260048101839052602401610cc5565b7f9016d09d72d40fdae2fd8ceac6b6234c7706214fd39c1cd1e609a0528c19930080546001600160a01b031981166001600160a01b03848116918217845560405192169182907f8be0079c531659141344cd1fd0a4f28419497f9722a3daafe3b4186f6b6457e090600090a3505050565b6000807ff0c57e16840df040f15088dc2f81fe391c3923bec73e23a9662efc9c229c6a006107d9565b6133db6138a8565b6108e882826138e6565b6133ed6138a8565b612d0c8161392f565b611dd96138a8565b7f80bb2b638cc20bc4d0a60d66940f3ab4a00c1d7b313497ca82fb0b4ab00793006001600160a01b03831661346a576040517f5b08ba180000000000000000000000000000000000000000000000000000000081526001600160a01b0384166004820152602401610cc5565b6001600160a01b038481166000818152600584016020908152604080832094881680845294825291829020805460ff191687151590811790915591519182527f17307eab39ab6107e8899845ad3d59bd9653f200f220920489ca2b5937696c31910160405180910390a350505050565b606060006134e783613937565b600101905060008167ffffffffffffffff8111156135075761350761412d565b6040519080825280601f01601f191660200182016040528015613531576020820181803683370190505b5090508181016020015b600019017f3031323334353637383961626364656600000000000000000000000000000000600a86061a8153600a850494508461353b57509392505050565b7f80bb2b638cc20bc4d0a60d66940f3ab4a00c1d7b313497ca82fb0b4ab007930081806135af57506001600160a01b03831615155b156136c85760006135bf85612d0f565b90506001600160a01b038416158015906135eb5750836001600160a01b0316816001600160a01b031614155b801561363c57506001600160a01b0380821660009081527f80bb2b638cc20bc4d0a60d66940f3ab4a00c1d7b313497ca82fb0b4ab0079305602090815260408083209388168352929052205460ff16155b1561367e576040517fa9fbf51f0000000000000000000000000000000000000000000000000000000081526001600160a01b0385166004820152602401610cc5565b82156136c65784866001600160a01b0316826001600160a01b03167f8c5be1e5ebec7d5bd14f71427d1e84f3dd0314c0f7b2291e5b200ac8c7c3b92560405160405180910390a45b505b600093845260040160205250506040902080546001600160a01b0319166001600160a01b0392909216919091179055565b6137038383613a19565b611363336000858585613a97565b61371a82613bc1565b6040516001600160a01b038316907fbc7cd75a20ee27fd9adebab32041f755214dbc6bffa90cc0225b39da2e5c2d3b90600090a280511561375f576113638282613c38565b6108e8613cae565b60008281527f80bb2b638cc20bc4d0a60d66940f3ab4a00c1d7b313497ca82fb0b4ab007930260205260408120547f80bb2b638cc20bc4d0a60d66940f3ab4a00c1d7b313497ca82fb0b4ab0079300906001600160a01b03908116908416156137d5576137d5818587613ce6565b6001600160a01b03811615613815576137f260008660008061357a565b6001600160a01b0381166000908152600383016020526040902080546000190190555b6001600160a01b03861615613846576001600160a01b03861660009081526003830160205260409020805460010190555b600085815260028301602052604080822080546001600160a01b0319166001600160a01b038a811691821790925591518893918516917fddf252ad1be2c89b69c2b068fc378daa952ba7f163c4a11628f55a4df523b3ef91a495945050505050565b6138b0613d63565b611dd9576040517fd7e6bcf800000000000000000000000000000000000000000000000000000000815260040160405180910390fd5b6138ee6138a8565b7f80bb2b638cc20bc4d0a60d66940f3ab4a00c1d7b313497ca82fb0b4ab00793008061391a84826146b5565b506001810161392983826146b5565b50505050565b612cc06138a8565b6000807a184f03e93ff9f4daa797ed6e38ed64bf6a1f0100000000000000008310613980577a184f03e93ff9f4daa797ed6e38ed64bf6a1f010000000000000000830492506040015b6d04ee2d6d415b85acef810000000083106139ac576d04ee2d6d415b85acef8100000000830492506020015b662386f26fc1000083106139ca57662386f26fc10000830492506010015b6305f5e10083106139e2576305f5e100830492506008015b61271083106139f657612710830492506004015b60648310613a08576064830492506002015b600a83106107d95760010192915050565b6001600160a01b038216613a4357604051633250574960e11b815260006004820152602401610cc5565b6000613a5183836000613767565b90506001600160a01b03811615611363576040517f73c6ac6e00000000000000000000000000000000000000000000000000000000815260006004820152602401610cc5565b6001600160a01b0383163b1561235957604051630a85bd0160e11b81526001600160a01b0384169063150b7a0290613ad9908890889087908790600401614956565b6020604051808303816000875af1925050508015613b14575060408051601f3d908101601f19168201909252613b1191810190614988565b60015b613b7d573d808015613b42576040519150601f19603f3d011682016040523d82523d6000602084013e613b47565b606091505b508051600003613b7557604051633250574960e11b81526001600160a01b0385166004820152602401610cc5565b805160208201fd5b6001600160e01b03198116630a85bd0160e11b14613bb957604051633250574960e11b81526001600160a01b0385166004820152602401610cc5565b505050505050565b806001600160a01b03163b600003613bf757604051634c9c8ce360e01b81526001600160a01b0382166004820152602401610cc5565b7f360894a13ba1a3210667c828492db98dca3e2076cc3735a920a3ca505d382bbc80546001600160a01b0319166001600160a01b0392909216919091179055565b6060600080846001600160a01b031684604051613c5591906145db565b600060405180830381855af49150503d8060008114613c90576040519150601f19603f3d011682016040523d82523d6000602084013e613c95565b606091505b5091509150613ca5858383613d82565b95945050505050565b3415611dd9576040517fb398979f00000000000000000000000000000000000000000000000000000000815260040160405180910390fd5b613cf1838383613df7565b611363576001600160a01b038316613d1f57604051637e27328960e01b815260048101829052602401610cc5565b6040517f177e802f0000000000000000000000000000000000000000000000000000000081526001600160a01b038316600482015260248101829052604401610cc5565b6000613d6d6133aa565b5468010000000000000000900460ff16919050565b606082613d9757613d9282613ebb565b612c86565b8151158015613dae57506001600160a01b0384163b155b15613df0576040517f9996b3150000000000000000000000000000000000000000000000000000000081526001600160a01b0385166004820152602401610cc5565b5080612c86565b60006001600160a01b03831615801590613eb35750826001600160a01b0316846001600160a01b03161480613e7057506001600160a01b0380851660009081527f80bb2b638cc20bc4d0a60d66940f3ab4a00c1d7b313497ca82fb0b4ab0079305602090815260408083209387168352929052205460ff165b80613eb3575060008281527f80bb2b638cc20bc4d0a60d66940f3ab4a00c1d7b313497ca82fb0b4ab007930460205260409020546001600160a01b038481169116145b949350505050565b805115613eca57805160208201fd5b6040517fd6bda27500000000000000000000000000000000000000000000000000000000815260040160405180910390fd5b508054613f08906145a1565b6000825580601f10613f18575050565b601f016020900490600052602060002090810190612d0c91905b80821115613f465760008155600101613f32565b5090565b6001600160e01b031981168114612d0c57600080fd5b600060208284031215613f7257600080fd5b8135612c8681613f4a565b80356001600160a01b0381168114613f9457600080fd5b919050565b600060208284031215613fab57600080fd5b612c8682613f7d565b60005b83811015613fcf578181015183820152602001613fb7565b50506000910152565b60008151808452613ff0816020860160208601613fb4565b601f01601f19169290920160200192915050565b602081526000612c866020830184613fd8565b60006020828403121561402957600080fd5b5035919050565b6000806040838503121561404357600080fd5b61404c83613f7d565b946020939093013593505050565b602081528151602082015260006020830151610100806040850152614083610120850183613fd8565b91506040850151614099606086018260ff169052565b506060850151601f19808685030160808701526140b68483613fd8565b935060808701519150808685030160a08701526140d38483613fd8565b935060a08701519150808685030160c08701526140f08483613fd8565b935060c08701519150808685030160e08701525061410e8382613fd8565b92505060e08501516141238286018215159052565b5090949350505050565b634e487b7160e01b600052604160045260246000fd5b600082601f83011261415457600080fd5b813567ffffffffffffffff8082111561416f5761416f61412d565b604051601f8301601f19908116603f011681019082821181831017156141975761419761412d565b816040528381528660208588010111156141b057600080fd5b836020870160208301376000602085830101528094505050505092915050565b803560ff81168114613f9457600080fd5b60008060008060008060c087890312156141fa57600080fd5b863567ffffffffffffffff8082111561421257600080fd5b61421e8a838b01614143565b975061422c60208a016141d0565b9650604089013591508082111561424257600080fd5b61424e8a838b01614143565b9550606089013591508082111561426457600080fd5b6142708a838b01614143565b9450608089013591508082111561428657600080fd5b6142928a838b01614143565b935060a08901359150808211156142a857600080fd5b506142b589828a01614143565b9150509295509295509295565b6000806000606084860312156142d757600080fd5b6142e084613f7d565b92506142ee60208501613f7d565b9150604084013590509250925092565b600080600080600060a0868803121561431657600080fd5b853567ffffffffffffffff8082111561432e57600080fd5b61433a89838a01614143565b9650614348602089016141d0565b9550604088013591508082111561435e57600080fd5b61436a89838a01614143565b9450606088013591508082111561438057600080fd5b61438c89838a01614143565b935060808801359150808211156143a257600080fd5b506143af88828901614143565b9150509295509295909350565b600080604083850312156143cf57600080fd5b6143d883613f7d565b9150602083013567ffffffffffffffff8111156143f457600080fd5b61440085828601614143565b9150509250929050565b6000806040838503121561441d57600080fd5b61442683613f7d565b91506020830135801515811461443b57600080fd5b809150509250929050565b6000806000806080858703121561445c57600080fd5b61446585613f7d565b935061447360208601613f7d565b925060408501359150606085013567ffffffffffffffff81111561449657600080fd5b6144a287828801614143565b91505092959194509250565b60006101008a83528060208401526144c88184018b613fd8565b905060ff8916604084015282810360608401526144e58189613fd8565b905082810360808401526144f98188613fd8565b905082810360a084015261450d8187613fd8565b905082810360c08401526145218186613fd8565b91505082151560e08301529998505050505050505050565b60006020828403121561454b57600080fd5b813567ffffffffffffffff81111561456257600080fd5b613eb384828501614143565b6000806040838503121561458157600080fd5b61458a83613f7d565b915061459860208401613f7d565b90509250929050565b600181811c908216806145b557607f821691505b6020821081036145d557634e487b7160e01b600052602260045260246000fd5b50919050565b600082516145ed818460208701613fb4565b9190910192915050565b6000808354614605816145a1565b6001828116801561461d576001811461463257614661565b60ff1984168752821515830287019450614661565b8760005260208060002060005b858110156146585781548a82015290840190820161463f565b50505082870194505b50929695505050505050565b601f821115611363576000816000526020600020601f850160051c810160208610156146965750805b601f850160051c820191505b81811015613bb9578281556001016146a2565b815167ffffffffffffffff8111156146cf576146cf61412d565b6146e3816146dd84546145a1565b8461466d565b602080601f83116001811461471857600084156147005750858301515b600019600386901b1c1916600185901b178555613bb9565b600085815260208120601f198616915b8281101561474757888601518255948401946001909101908401614728565b50858210156147655787850151600019600388901b60f8161c191681555b5050505050600190811b01905550565b60c08152600061478860c0830189613fd8565b602060ff89168185015283820360408501526147a48289613fd8565b915083820360608501526147b88288613fd8565b915083820360808501526147cc8287613fd8565b915083820360a0850152600085546147e3816145a1565b808552600182811680156147fe576001811461481857614846565b60ff1984168787015282151560051b870186019450614846565b896000528560002060005b8481101561483e578154898201890152908301908701614823565b880187019550505b50929d9c50505050505050505050505050565b634e487b7160e01b600052601160045260246000fd5b60006001820161488157614881614859565b5060010190565b828152604060208201526000613eb36040830184613fd8565b6040815260006148b46040830185613fd8565b90506001600160a01b03831660208301529392505050565b600083516148de818460208801613fb4565b8351908301906148f2818360208801613fb4565b01949350505050565b634e487b7160e01b600052603260045260246000fd5b818103818111156107d9576107d9614859565b60ff81811683821601908111156107d9576107d9614859565b60006020828403121561494f57600080fd5b5051919050565b60006001600160a01b03808716835280861660208401525083604083015260806060830152612e916080830184613fd8565b60006020828403121561499a57600080fd5b8151612c8681613f4a56fea264697066735822122016125b1094a0083e7b18c528d62405058384dc4e41732ffc2f607c0ddf84b8e164736f6c63430008160033",
  "linkReferences": {},
  "deployedLinkReferences": {}
}