{
  "_format": "hh-sol-artifact-1",
  "contractName": "ProfileNFT",
  "sourceName": "contracts/ProfileNFT.sol",
  "abi": [
    {
      "inputs": [],
      "stateMutability": "nonpayable",
      "type": "constructor"
    },
    {
      "anonymous": false,
      "inputs": [
        {
          "indexed": true,
          "internalType": "address",
          "name": "owner",
          "type": "address"
        },
        {
          "indexed": true,
          "internalType": "address",
          "name": "approved",
          "type": "address"
        },
        {
          "indexed": true,
          "internalType": "uint256",
          "name": "tokenId",
          "type": "uint256"
        }
      ],
      "name": "Approval",
      "type": "event"
    },
    {
      "anonymous": false,
      "inputs": [
        {
          "indexed": true,
          "internalType": "address",
          "name": "owner",
          "type": "address"
        },
        {
          "indexed": true,
          "internalType": "address",
          "name": "operator",
          "type": "address"
        },
        {
          "indexed": false,
          "internalType": "bool",
          "name": "approved",
          "type": "bool"
        }
      ],
      "name": "ApprovalForAll",
      "type": "event"
    },
    {
      "anonymous": false,
      "inputs": [
        {
          "indexed": false,
          "internalType": "string",
          "name": "email",
          "type": "string"
        },
        {
          "indexed": false,
          "internalType": "address",
          "name": "user",
          "type": "address"
        }
      ],
      "name": "EmailRegistered",
      "type": "event"
    },
    {
      "anonymous": false,
      "inputs": [
        {
          "indexed": true,
          "internalType": "address",
          "name": "previousOwner",
          "type": "address"
        },
        {
          "indexed": true,
          "internalType": "address",
          "name": "newOwner",
          "type": "address"
        }
      ],
      "name": "OwnershipTransferred",
      "type": "event"
    },
    {
      "anonymous": false,
      "inputs": [
        {
          "indexed": true,
          "internalType": "address",
          "name": "user",
          "type": "address"
        },
        {
          "indexed": false,
          "internalType": "uint256",
          "name": "tokenId",
          "type": "uint256"
        },
        {
          "indexed": false,
          "internalType": "string",
          "name": "name",
          "type": "string"
        }
      ],
      "name": "ProfileCreated",
      "type": "event"
    },
    {
      "anonymous": false,
      "inputs": [
        {
          "indexed": true,
          "internalType": "address",
          "name": "user",
          "type": "address"
        },
        {
          "indexed": false,
          "internalType": "string",
          "name": "name",
          "type": "string"
        },
        {
          "indexed": false,
          "internalType": "uint8",
          "name": "age",
          "type": "uint8"
        },
        {
          "indexed": false,
          "internalType": "string",
          "name": "gender",
          "type": "string"
        },
        {
          "indexed": false,
          "internalType": "string",
          "name": "interests",
          "type": "string"
        },
        {
          "indexed": false,
          "internalType": "string",
          "name": "photoUrl",
          "type": "string"
        },
        {
          "indexed": false,
          "internalType": "string",
          "name": "email",
          "type": "string"
        }
      ],
      "name": "ProfileUpdated",
      "type": "event"
    },
    {
      "anonymous": false,
      "inputs": [
        {
          "indexed": true,
          "internalType": "address",
          "name": "from",
          "type": "address"
        },
        {
          "indexed": true,
          "internalType": "address",
          "name": "to",
          "type": "address"
        },
        {
          "indexed": true,
          "internalType": "uint256",
          "name": "tokenId",
          "type": "uint256"
        }
      ],
      "name": "Transfer",
      "type": "event"
    },
    {
      "inputs": [
        {
          "internalType": "address",
          "name": "",
          "type": "address"
        }
      ],
      "name": "addressToTokenId",
      "outputs": [
        {
          "internalType": "uint256",
          "name": "",
          "type": "uint256"
        }
      ],
      "stateMutability": "view",
      "type": "function"
    },
    {
      "inputs": [
        {
          "internalType": "address",
          "name": "to",
          "type": "address"
        },
        {
          "internalType": "uint256",
          "name": "tokenId",
          "type": "uint256"
        }
      ],
      "name": "approve",
      "outputs": [],
      "stateMutability": "nonpayable",
      "type": "function"
    },
    {
      "inputs": [
        {
          "internalType": "address",
          "name": "owner",
          "type": "address"
        }
      ],
      "name": "balanceOf",
      "outputs": [
        {
          "internalType": "uint256",
          "name": "",
          "type": "uint256"
        }
      ],
      "stateMutability": "view",
      "type": "function"
    },
    {
      "inputs": [
        {
          "internalType": "string",
          "name": "name",
          "type": "string"
        },
        {
          "internalType": "uint8",
          "name": "age",
          "type": "uint8"
        },
        {
          "internalType": "string",
          "name": "gender",
          "type": "string"
        },
        {
          "internalType": "string",
          "name": "interests",
          "type": "string"
        },
        {
          "internalType": "string",
          "name": "photoUrl",
          "type": "string"
        }
      ],
      "name": "createProfile",
      "outputs": [],
      "stateMutability": "nonpayable",
      "type": "function"
    },
    {
      "inputs": [
        {
          "internalType": "string",
          "name": "email",
          "type": "string"
        }
      ],
      "name": "getAddressByEmail",
      "outputs": [
        {
          "internalType": "address",
          "name": "",
          "type": "address"
        }
      ],
      "stateMutability": "view",
      "type": "function"
    },
    {
      "inputs": [
        {
          "internalType": "uint256",
          "name": "tokenId",
          "type": "uint256"
        }
      ],
      "name": "getApproved",
      "outputs": [
        {
          "internalType": "address",
          "name": "",
          "type": "address"
        }
      ],
      "stateMutability": "view",
      "type": "function"
    },
    {
      "inputs": [
        {
          "internalType": "address",
          "name": "user",
          "type": "address"
        }
      ],
      "name": "getProfile",
      "outputs": [
        {
          "components": [
            {
              "internalType": "uint256",
              "name": "tokenId",
              "type": "uint256"
            },
            {
              "internalType": "string",
              "name": "name",
              "type": "string"
            },
            {
              "internalType": "uint8",
              "name": "age",
              "type": "uint8"
            },
            {
              "internalType": "string",
              "name": "gender",
              "type": "string"
            },
            {
              "internalType": "string",
              "name": "interests",
              "type": "string"
            },
            {
              "internalType": "string",
              "name": "photoUrl",
              "type": "string"
            },
            {
              "internalType": "string",
              "name": "email",
              "type": "string"
            },
            {
              "internalType": "bool",
              "name": "exists",
              "type": "bool"
            }
          ],
          "internalType": "struct ProfileNFT.Profile",
          "name": "",
          "type": "tuple"
        }
      ],
      "stateMutability": "view",
      "type": "function"
    },
    {
      "inputs": [
        {
          "internalType": "address",
          "name": "owner",
          "type": "address"
        },
        {
          "internalType": "address",
          "name": "operator",
          "type": "address"
        }
      ],
      "name": "isApprovedForAll",
      "outputs": [
        {
          "internalType": "bool",
          "name": "",
          "type": "bool"
        }
      ],
      "stateMutability": "view",
      "type": "function"
    },
    {
      "inputs": [
        {
          "internalType": "string",
          "name": "email",
          "type": "string"
        }
      ],
      "name": "isEmailRegistered",
      "outputs": [
        {
          "internalType": "bool",
          "name": "",
          "type": "bool"
        }
      ],
      "stateMutability": "view",
      "type": "function"
    },
    {
      "inputs": [],
      "name": "name",
      "outputs": [
        {
          "internalType": "string",
          "name": "",
          "type": "string"
        }
      ],
      "stateMutability": "view",
      "type": "function"
    },
    {
      "inputs": [],
      "name": "owner",
      "outputs": [
        {
          "internalType": "address",
          "name": "",
          "type": "address"
        }
      ],
      "stateMutability": "view",
      "type": "function"
    },
    {
      "inputs": [
        {
          "internalType": "uint256",
          "name": "tokenId",
          "type": "uint256"
        }
      ],
      "name": "ownerOf",
      "outputs": [
        {
          "internalType": "address",
          "name": "",
          "type": "address"
        }
      ],
      "stateMutability": "view",
      "type": "function"
    },
    {
      "inputs": [
        {
          "internalType": "address",
          "name": "user",
          "type": "address"
        }
      ],
      "name": "profileExists",
      "outputs": [
        {
          "internalType": "bool",
          "name": "",
          "type": "bool"
        }
      ],
      "stateMutability": "view",
      "type": "function"
    },
    {
      "inputs": [
        {
          "internalType": "address",
          "name": "",
          "type": "address"
        }
      ],
      "name": "profiles",
      "outputs": [
        {
          "internalType": "uint256",
          "name": "tokenId",
          "type": "uint256"
        },
        {
          "internalType": "string",
          "name": "name",
          "type": "string"
        },
        {
          "internalType": "uint8",
          "name": "age",
          "type": "uint8"
        },
        {
          "internalType": "string",
          "name": "gender",
          "type": "string"
        },
        {
          "internalType": "string",
          "name": "interests",
          "type": "string"
        },
        {
          "internalType": "string",
          "name": "photoUrl",
          "type": "string"
        },
        {
          "internalType": "string",
          "name": "email",
          "type": "string"
        },
        {
          "internalType": "bool",
          "name": "exists",
          "type": "bool"
        }
      ],
      "stateMutability": "view",
      "type": "function"
    },
    {
      "inputs": [
        {
          "internalType": "string",
          "name": "name",
          "type": "string"
        },
        {
          "internalType": "uint8",
          "name": "age",
          "type": "uint8"
        },
        {
          "internalType": "string",
          "name": "gender",
          "type": "string"
        },
        {
          "internalType": "string",
          "name": "interests",
          "type": "string"
        },
        {
          "internalType": "string",
          "name": "email",
          "type": "string"
        }
      ],
      "name": "registerWithEmail",
      "outputs": [],
      "stateMutability": "nonpayable",
      "type": "function"
    },
    {
      "inputs": [],
      "name": "renounceOwnership",
      "outputs": [],
      "stateMutability": "nonpayable",
      "type": "function"
    },
    {
      "inputs": [
        {
          "internalType": "address",
          "name": "from",
          "type": "address"
        },
        {
          "internalType": "address",
          "name": "to",
          "type": "address"
        },
        {
          "internalType": "uint256",
          "name": "tokenId",
          "type": "uint256"
        }
      ],
      "name": "safeTransferFrom",
      "outputs": [],
      "stateMutability": "nonpayable",
      "type": "function"
    },
    {
      "inputs": [
        {
          "internalType": "address",
          "name": "",
          "type": "address"
        },
        {
          "internalType": "address",
          "name": "",
          "type": "address"
        },
        {
          "internalType": "uint256",
          "name": "",
          "type": "uint256"
        },
        {
          "internalType": "bytes",
          "name": "",
          "type": "bytes"
        }
      ],
      "name": "safeTransferFrom",
      "outputs": [],
      "stateMutability": "pure",
      "type": "function"
    },
    {
      "inputs": [
        {
          "internalType": "address",
          "name": "operator",
          "type": "address"
        },
        {
          "internalType": "bool",
          "name": "approved",
          "type": "bool"
        }
      ],
      "name": "setApprovalForAll",
      "outputs": [],
      "stateMutability": "nonpayable",
      "type": "function"
    },
    {
      "inputs": [
        {
          "internalType": "bytes4",
          "name": "interfaceId",
          "type": "bytes4"
        }
      ],
      "name": "supportsInterface",
      "outputs": [
        {
          "internalType": "bool",
          "name": "",
          "type": "bool"
        }
      ],
      "stateMutability": "view",
      "type": "function"
    },
    {
      "inputs": [],
      "name": "symbol",
      "outputs": [
        {
          "internalType": "string",
          "name": "",
          "type": "string"
        }
      ],
      "stateMutability": "view",
      "type": "function"
    },
    {
      "inputs": [
        {
          "internalType": "uint256",
          "name": "tokenId",
          "type": "uint256"
        }
      ],
      "name": "tokenURI",
      "outputs": [
        {
          "internalType": "string",
          "name": "",
          "type": "string"
        }
      ],
      "stateMutability": "view",
      "type": "function"
    },
    {
      "inputs": [
        {
          "internalType": "address",
          "name": "",
          "type": "address"
        },
        {
          "internalType": "address",
          "name": "",
          "type": "address"
        },
        {
          "internalType": "uint256",
          "name": "",
          "type": "uint256"
        }
      ],
      "name": "transferFrom",
      "outputs": [],
      "stateMutability": "pure",
      "type": "function"
    },
    {
      "inputs": [
        {
          "internalType": "address",
          "name": "newOwner",
          "type": "address"
        }
      ],
      "name": "transferOwnership",
      "outputs": [],
      "stateMutability": "nonpayable",
      "type": "function"
    },
    {
      "inputs": [
        {
          "internalType": "string",
          "name": "name",
          "type": "string"
        },
        {
          "internalType": "uint8",
          "name": "age",
          "type": "uint8"
        },
        {
          "internalType": "string",
          "name": "gender",
          "type": "string"
        },
        {
          "internalType": "string",
          "name": "interests",
          "type": "string"
        },
        {
          "internalType": "string",
          "name": "photoUrl",
          "type": "string"
        },
        {
          "internalType": "string",
          "name": "email",
          "type": "string"
        }
      ],
      "name": "updateProfile",
      "outputs": [],
      "stateMutability": "nonpayable",
      "type": "function"
    }
  ],
  "bytecode": "0x60806040523480156200001157600080fd5b5060405180604001604052806011815260200170426173654d617463682050726f66696c6560781b81525060405180604001604052806005815260200164424d50524f60d81b81525081600090816200006b919062000198565b5060016200007a828262000198565b50505062000097620000916200009d60201b60201c565b620000a1565b62000264565b3390565b600680546001600160a01b038381166001600160a01b0319831681179093556040519116919082907f8be0079c531659141344cd1fd0a4f28419497f9722a3daafe3b4186f6b6457e090600090a35050565b634e487b7160e01b600052604160045260246000fd5b600181811c908216806200011e57607f821691505b6020821081036200013f57634e487b7160e01b600052602260045260246000fd5b50919050565b601f8211156200019357600081815260208120601f850160051c810160208610156200016e5750805b601f850160051c820191505b818110156200018f578281556001016200017a565b5050505b505050565b81516001600160401b03811115620001b457620001b4620000f3565b620001cc81620001c5845462000109565b8462000145565b602080601f831160018114620002045760008415620001eb5750858301515b600019600386901b1c1916600185901b1785556200018f565b600085815260208120601f198616915b82811015620002355788860151825594840194600190910190840162000214565b5085821015620002545787850151600019600388901b60f8161c191681555b5050505050600190811b01905550565b6133c280620002746000396000f3fe608060405234801561001057600080fd5b50600436106101a35760003560e01c806370a08231116100ee578063b88d4fde11610097578063c87b56dd11610071578063c87b56dd146103a3578063df3cdad7146103b6578063e985e9c5146103c9578063f2fde38b1461040557600080fd5b8063b88d4fde1461035b578063bbe1562714610369578063c5caea011461039057600080fd5b806395d89b41116100c857806395d89b411461032d5780639e385dfb14610335578063a22cb4651461034857600080fd5b806370a0823114610301578063715018a6146103145780638da5cb5b1461031c57600080fd5b806310ea2271116101505780634ab491b61161012a5780634ab491b6146102ad5780636352211e146102c05780636511bf2e146102d357600080fd5b806310ea22711461027457806323b872dd1461028757806342842e0e1461029a57600080fd5b8063081812fc11610181578063081812fc14610214578063095ea7b31461023f5780630f53a4701461025457600080fd5b806301ffc9a7146101a857806305cfa06f146101d057806306fdde03146101ff575b600080fd5b6101bb6101b636600461298b565b610418565b60405190151581526020015b60405180910390f35b6101bb6101de3660046129c4565b6001600160a01b031660009081526008602052604090206007015460ff1690565b6102076104b5565b6040516101c79190612a2f565b610227610222366004612a42565b610547565b6040516001600160a01b0390911681526020016101c7565b61025261024d366004612a5b565b61056e565b005b6102676102623660046129c4565b6106c2565b6040516101c79190612a85565b610252610282366004612c15565b610a3f565b610252610295366004612cf6565b610ff8565b6102526102a8366004612cf6565b611040565b6102526102bb366004612d32565b61105b565b6102276102ce366004612a42565b61145f565b6102f36102e13660046129c4565b60096020526000908152604090205481565b6040519081526020016101c7565b6102f361030f3660046129c4565b6114c4565b61025261155e565b6006546001600160a01b0316610227565b610207611572565b610252610343366004612d32565b611581565b610252610356366004612df0565b611a9d565b610252610295366004612e2c565b61037c6103773660046129c4565b611aac565b6040516101c7989796959493929190612ea8565b61022761039e366004612f33565b611da1565b6102076103b1366004612a42565b611dd2565b6101bb6103c4366004612f33565b611e46565b6101bb6103d7366004612f68565b6001600160a01b03918216600090815260056020908152604080832093909416825291909152205460ff1690565b6102526104133660046129c4565b611e71565b60006001600160e01b031982167f80ac58cd00000000000000000000000000000000000000000000000000000000148061047b57506001600160e01b031982167f5b5e139f00000000000000000000000000000000000000000000000000000000145b806104af57507f01ffc9a7000000000000000000000000000000000000000000000000000000006001600160e01b03198316145b92915050565b6060600080546104c490612f9b565b80601f01602080910402602001604051908101604052809291908181526020018280546104f090612f9b565b801561053d5780601f106105125761010080835404028352916020019161053d565b820191906000526020600020905b81548152906001019060200180831161052057829003601f168201915b5050505050905090565b600061055282611f01565b506000908152600460205260409020546001600160a01b031690565b60006105798261145f565b9050806001600160a01b0316836001600160a01b0316036106075760405162461bcd60e51b815260206004820152602160248201527f4552433732313a20617070726f76616c20746f2063757272656e74206f776e6560448201527f720000000000000000000000000000000000000000000000000000000000000060648201526084015b60405180910390fd5b336001600160a01b038216148061064157506001600160a01b038116600090815260056020908152604080832033845290915290205460ff165b6106b35760405162461bcd60e51b815260206004820152603d60248201527f4552433732313a20617070726f76652063616c6c6572206973206e6f7420746f60448201527f6b656e206f776e6572206f7220617070726f76656420666f7220616c6c00000060648201526084016105fe565b6106bd8383611f65565b505050565b61070f6040518061010001604052806000815260200160608152602001600060ff168152602001606081526020016060815260200160608152602001606081526020016000151581525090565b6001600160a01b0382166000908152600860209081526040918290208251610100810190935280548352600181018054919284019161074d90612f9b565b80601f016020809104026020016040519081016040528092919081815260200182805461077990612f9b565b80156107c65780601f1061079b576101008083540402835291602001916107c6565b820191906000526020600020905b8154815290600101906020018083116107a957829003601f168201915b5050509183525050600282015460ff1660208201526003820180546040909201916107f090612f9b565b80601f016020809104026020016040519081016040528092919081815260200182805461081c90612f9b565b80156108695780601f1061083e57610100808354040283529160200191610869565b820191906000526020600020905b81548152906001019060200180831161084c57829003601f168201915b5050505050815260200160048201805461088290612f9b565b80601f01602080910402602001604051908101604052809291908181526020018280546108ae90612f9b565b80156108fb5780601f106108d0576101008083540402835291602001916108fb565b820191906000526020600020905b8154815290600101906020018083116108de57829003601f168201915b5050505050815260200160058201805461091490612f9b565b80601f016020809104026020016040519081016040528092919081815260200182805461094090612f9b565b801561098d5780601f106109625761010080835404028352916020019161098d565b820191906000526020600020905b81548152906001019060200180831161097057829003601f168201915b505050505081526020016006820180546109a690612f9b565b80601f01602080910402602001604051908101604052809291908181526020018280546109d290612f9b565b8015610a1f5780601f106109f457610100808354040283529160200191610a1f565b820191906000526020600020905b815481529060010190602001808311610a0257829003601f168201915b50505091835250506007919091015460ff16151560209091015292915050565b3360009081526008602052604090206007015460ff16610aa15760405162461bcd60e51b815260206004820152601660248201527f50726f66696c6520646f6573206e6f742065786973740000000000000000000060448201526064016105fe565b60128560ff161015610af55760405162461bcd60e51b815260206004820152601360248201527f4d757374206265203138206f72206f6c6465720000000000000000000000000060448201526064016105fe565b60788560ff161115610b495760405162461bcd60e51b815260206004820152601560248201527f416765206d757374206265207265616c6973746963000000000000000000000060448201526064016105fe565b6002865110158015610b5d57506064865111155b610ba95760405162461bcd60e51b815260206004820152601d60248201527f4e616d65206d75737420626520322d313030206368617261637465727300000060448201526064016105fe565b60008351118015610bbd57506101f4835111155b610c145760405162461bcd60e51b815260206004820152602260248201527f496e74657265737473206d75737420626520312d353030206368617261637465604482015261727360f01b60648201526084016105fe565b6101f482511115610c675760405162461bcd60e51b815260206004820152601260248201527f50686f746f2055524c20746f6f206c6f6e67000000000000000000000000000060448201526064016105fe565b60008451118015610c7a57506032845111155b610cc65760405162461bcd60e51b815260206004820152601460248201527f47656e646572206d7573742062652076616c696400000000000000000000000060448201526064016105fe565b805115610f4557610cd681611fd3565b610d225760405162461bcd60e51b815260206004820152601460248201527f496e76616c696420656d61696c20666f726d617400000000000000000000000060448201526064016105fe565b6000610d2d82612104565b3360009081526008602052604090206006018054919250610dd591610d5190612f9b565b80601f0160208091040260200160405190810160405280929190818152602001828054610d7d90612f9b565b8015610dca5780601f10610d9f57610100808354040283529160200191610dca565b820191906000526020600020905b815481529060010190602001808311610dad57829003601f168201915b50505050508261229a565b610f2657600a81604051610de99190612fd5565b9081526040519081900360200190205460ff1615610e495760405162461bcd60e51b815260206004820152601860248201527f456d61696c20616c72656164792072656769737465726564000000000000000060448201526064016105fe565b3360009081526008602052604081206006018054610e6690612f9b565b90501115610eb357336000908152600860205260408082209051600a91610e9291600690910190612ff1565b908152604051908190036020019020805491151560ff199092169190911790555b6001600a82604051610ec59190612fd5565b908152604051908190036020018120805492151560ff19909316929092179091553390600b90610ef6908490612fd5565b90815260405190819003602001902080546001600160a01b03929092166001600160a01b03199092169190911790555b336000908152600860205260409020600601610f4282826130b5565b50505b33600090815260086020526040902060018101610f6288826130b5565b5060028101805460ff191660ff881617905560038101610f8286826130b5565b5060048101610f9185826130b5565b5060058101610fa084826130b5565b50336001600160a01b03167fff05e84fce958ef60921c414197d065753ed947b0d3460ddef8244c534c916da888888888887600601604051610fe796959493929190613175565b60405180910390a250505050505050565b60405162461bcd60e51b815260206004820152601f60248201527f536f756c626f756e643a205472616e73666572206e6f7420616c6c6f7765640060448201526064016105fe565b6106bd83838360405180602001604052806000815250610ff8565b3360009081526008602052604090206007015460ff16156110be5760405162461bcd60e51b815260206004820152601660248201527f50726f66696c6520616c7265616479206578697374730000000000000000000060448201526064016105fe565b60128460ff1610156111125760405162461bcd60e51b815260206004820152601360248201527f4d757374206265203138206f72206f6c6465720000000000000000000000000060448201526064016105fe565b60788460ff1611156111665760405162461bcd60e51b815260206004820152601560248201527f416765206d757374206265207265616c6973746963000000000000000000000060448201526064016105fe565b600285511015801561117a57506064855111155b6111c65760405162461bcd60e51b815260206004820152601d60248201527f4e616d65206d75737420626520322d313030206368617261637465727300000060448201526064016105fe565b600082511180156111da57506101f4825111155b6112315760405162461bcd60e51b815260206004820152602260248201527f496e74657265737473206d75737420626520312d353030206368617261637465604482015261727360f01b60648201526084016105fe565b6101f4815111156112845760405162461bcd60e51b815260206004820152601260248201527f50686f746f2055524c20746f6f206c6f6e67000000000000000000000000000060448201526064016105fe565b6000835111801561129757506032835111155b6112e35760405162461bcd60e51b815260206004820152601460248201527f47656e646572206d7573742062652076616c696400000000000000000000000060448201526064016105fe565b600780549060006112f38361326f565b90915550506007546040805161010081018252828152602080820189815260ff891683850152606083018890526080830187905260a0830186905283518083018552600080825260c0850191909152600160e085018190523382526008909352939093208251815592519192919082019061136e90826130b5565b50604082015160028201805460ff191660ff9092169190911790556060820151600382019061139d90826130b5565b50608082015160048201906113b290826130b5565b5060a082015160058201906113c790826130b5565b5060c082015160068201906113dc90826130b5565b5060e091909101516007909101805460ff191691151591909117905533600081815260096020526040902082905561141490826122f3565b336001600160a01b03167f02ed4ee0412e67bbc9ed1687f3ad6bb7134d359d45994f3bf5302e91d81cf61f828860405161144f929190613288565b60405180910390a2505050505050565b6000818152600260205260408120546001600160a01b0316806104af5760405162461bcd60e51b815260206004820152601860248201527f4552433732313a20696e76616c696420746f6b656e204944000000000000000060448201526064016105fe565b60006001600160a01b0382166115425760405162461bcd60e51b815260206004820152602960248201527f4552433732313a2061646472657373207a65726f206973206e6f74206120766160448201527f6c6964206f776e6572000000000000000000000000000000000000000000000060648201526084016105fe565b506001600160a01b031660009081526003602052604090205490565b61156661230d565b6115706000612367565b565b6060600180546104c490612f9b565b3360009081526008602052604090206007015460ff16156115e45760405162461bcd60e51b815260206004820152601660248201527f50726f66696c6520616c7265616479206578697374730000000000000000000060448201526064016105fe565b60128460ff1610156116385760405162461bcd60e51b815260206004820152601360248201527f4d757374206265203138206f72206f6c6465720000000000000000000000000060448201526064016105fe565b60788460ff16111561168c5760405162461bcd60e51b815260206004820152601560248201527f416765206d757374206265207265616c6973746963000000000000000000000060448201526064016105fe565b60028551101580156116a057506064855111155b6116ec5760405162461bcd60e51b815260206004820152601d60248201527f4e616d65206d75737420626520322d313030206368617261637465727300000060448201526064016105fe565b6000825111801561170057506101f4825111155b6117575760405162461bcd60e51b815260206004820152602260248201527f496e74657265737473206d75737420626520312d353030206368617261637465604482015261727360f01b60648201526084016105fe565b60008151116117a85760405162461bcd60e51b815260206004820152601560248201527f456d61696c2063616e6e6f7420626520656d707479000000000000000000000060448201526064016105fe565b6117b181611fd3565b6117fd5760405162461bcd60e51b815260206004820152601460248201527f496e76616c696420656d61696c20666f726d617400000000000000000000000060448201526064016105fe565b600061180882612104565b9050600a8160405161181a9190612fd5565b9081526040519081900360200190205460ff161561187a5760405162461bcd60e51b815260206004820152601860248201527f456d61696c20616c72656164792072656769737465726564000000000000000060448201526064016105fe565b6007805490600061188a8361326f565b9091555050600754604051600190600a906118a6908590612fd5565b908152604051908190036020018120805492151560ff19909316929092179091553390600b906118d7908590612fd5565b908152604080516020928190038301812080546001600160a01b0319166001600160a01b039590951694909417909355610100830181528383528183018a815260ff8a1684830152606084018990526080840188905281518084018352600080825260a086019190915260c08501879052600160e08601819052338252600890945291909120835181559051909182019061197290826130b5565b50604082015160028201805460ff191660ff909216919091179055606082015160038201906119a190826130b5565b50608082015160048201906119b690826130b5565b5060a082015160058201906119cb90826130b5565b5060c082015160068201906119e090826130b5565b5060e091909101516007909101805460ff1916911515919091179055336000818152600960205260409020829055611a1890826122f3565b336001600160a01b03167f02ed4ee0412e67bbc9ed1687f3ad6bb7134d359d45994f3bf5302e91d81cf61f8289604051611a53929190613288565b60405180910390a27f47f02b73945ce0ca4c471ed60f05863657de8944610464aad740573b7c3b2d8c8233604051611a8c9291906132a1565b60405180910390a150505050505050565b611aa83383836123b9565b5050565b60086020526000908152604090208054600182018054919291611ace90612f9b565b80601f0160208091040260200160405190810160405280929190818152602001828054611afa90612f9b565b8015611b475780601f10611b1c57610100808354040283529160200191611b47565b820191906000526020600020905b815481529060010190602001808311611b2a57829003601f168201915b5050506002840154600385018054949560ff909216949193509150611b6b90612f9b565b80601f0160208091040260200160405190810160405280929190818152602001828054611b9790612f9b565b8015611be45780601f10611bb957610100808354040283529160200191611be4565b820191906000526020600020905b815481529060010190602001808311611bc757829003601f168201915b505050505090806004018054611bf990612f9b565b80601f0160208091040260200160405190810160405280929190818152602001828054611c2590612f9b565b8015611c725780601f10611c4757610100808354040283529160200191611c72565b820191906000526020600020905b815481529060010190602001808311611c5557829003601f168201915b505050505090806005018054611c8790612f9b565b80601f0160208091040260200160405190810160405280929190818152602001828054611cb390612f9b565b8015611d005780601f10611cd557610100808354040283529160200191611d00565b820191906000526020600020905b815481529060010190602001808311611ce357829003601f168201915b505050505090806006018054611d1590612f9b565b80601f0160208091040260200160405190810160405280929190818152602001828054611d4190612f9b565b8015611d8e5780601f10611d6357610100808354040283529160200191611d8e565b820191906000526020600020905b815481529060010190602001808311611d7157829003601f168201915b5050506007909301549192505060ff1688565b6000600b82604051611db39190612fd5565b908152604051908190036020019020546001600160a01b031692915050565b6060611ddd82611f01565b6000611df460408051602081019091526000815290565b90506000815111611e145760405180602001604052806000815250611e3f565b80611e1e84612487565b604051602001611e2f9291906132cc565b6040516020818303038152906040525b9392505050565b6000600a82604051611e589190612fd5565b9081526040519081900360200190205460ff1692915050565b611e7961230d565b6001600160a01b038116611ef55760405162461bcd60e51b815260206004820152602660248201527f4f776e61626c653a206e6577206f776e657220697320746865207a65726f206160448201527f646472657373000000000000000000000000000000000000000000000000000060648201526084016105fe565b611efe81612367565b50565b6000818152600260205260409020546001600160a01b0316611efe5760405162461bcd60e51b815260206004820152601860248201527f4552433732313a20696e76616c696420746f6b656e204944000000000000000060448201526064016105fe565b600081815260046020526040902080546001600160a01b0319166001600160a01b0384169081179091558190611f9a8261145f565b6001600160a01b03167f8c5be1e5ebec7d5bd14f71427d1e84f3dd0314c0f7b2291e5b200ac8c7c3b92560405160405180910390a45050565b600080829050600581511015611fec5750600092915050565b60fe81511115611fff5750600092915050565b6000806000805b84518110156120ec576000858281518110612023576120236132fb565b01602001516001600160f81b03191690507f400000000000000000000000000000000000000000000000000000000000000081900361209957846120668161326f565b955060019450508115806120865750600186516120839190613311565b82145b1561209957506000979650505050505050565b8380156120cf57507f2e000000000000000000000000000000000000000000000000000000000000006001600160f81b03198216145b156120d957600192505b50806120e48161326f565b915050612006565b508260011480156120fa5750805b9695505050505050565b606060008290506000815167ffffffffffffffff81111561212757612127612b58565b6040519080825280601f01601f191660200182016040528015612151576020820181803683370190505b50905060005b8251811015612292576000838281518110612174576121746132fb565b01602001516001600160f81b03191690507f410000000000000000000000000000000000000000000000000000000000000081108015906121df57507f5a000000000000000000000000000000000000000000000000000000000000006001600160f81b0319821611155b1561223c576121f360f882901c6020613324565b60f81b838381518110612208576122086132fb565b60200101907effffffffffffffffffffffffffffffffffffffffffffffffffffffffffffff1916908160001a90535061227f565b8083838151811061224f5761224f6132fb565b60200101907effffffffffffffffffffffffffffffffffffffffffffffffffffffffffffff1916908160001a9053505b508061228a8161326f565b915050612157565b509392505050565b6000816040516020016122ad9190612fd5565b60405160208183030381529060405280519060200120836040516020016122d49190612fd5565b6040516020818303038152906040528051906020012014905092915050565b611aa8828260405180602001604052806000815250612527565b6006546001600160a01b031633146115705760405162461bcd60e51b815260206004820181905260248201527f4f776e61626c653a2063616c6c6572206973206e6f7420746865206f776e657260448201526064016105fe565b600680546001600160a01b038381166001600160a01b0319831681179093556040519116919082907f8be0079c531659141344cd1fd0a4f28419497f9722a3daafe3b4186f6b6457e090600090a35050565b816001600160a01b0316836001600160a01b03160361241a5760405162461bcd60e51b815260206004820152601960248201527f4552433732313a20617070726f766520746f2063616c6c65720000000000000060448201526064016105fe565b6001600160a01b03838116600081815260056020908152604080832094871680845294825291829020805460ff191686151590811790915591519182527f17307eab39ab6107e8899845ad3d59bd9653f200f220920489ca2b5937696c31910160405180910390a3505050565b60606000612494836125b0565b600101905060008167ffffffffffffffff8111156124b4576124b4612b58565b6040519080825280601f01601f1916602001820160405280156124de576020820181803683370190505b5090508181016020015b600019017f3031323334353637383961626364656600000000000000000000000000000000600a86061a8153600a85049450846124e857509392505050565b6125318383612692565b61253e600084848461281d565b6106bd5760405162461bcd60e51b815260206004820152603260248201527f4552433732313a207472616e7366657220746f206e6f6e20455243373231526560448201527f63656976657220696d706c656d656e746572000000000000000000000000000060648201526084016105fe565b6000807a184f03e93ff9f4daa797ed6e38ed64bf6a1f01000000000000000083106125f9577a184f03e93ff9f4daa797ed6e38ed64bf6a1f010000000000000000830492506040015b6d04ee2d6d415b85acef81000000008310612625576d04ee2d6d415b85acef8100000000830492506020015b662386f26fc10000831061264357662386f26fc10000830492506010015b6305f5e100831061265b576305f5e100830492506008015b612710831061266f57612710830492506004015b60648310612681576064830492506002015b600a83106104af5760010192915050565b6001600160a01b0382166126e85760405162461bcd60e51b815260206004820181905260248201527f4552433732313a206d696e7420746f20746865207a65726f206164647265737360448201526064016105fe565b6000818152600260205260409020546001600160a01b03161561274d5760405162461bcd60e51b815260206004820152601c60248201527f4552433732313a20746f6b656e20616c7265616479206d696e7465640000000060448201526064016105fe565b6000818152600260205260409020546001600160a01b0316156127b25760405162461bcd60e51b815260206004820152601c60248201527f4552433732313a20746f6b656e20616c7265616479206d696e7465640000000060448201526064016105fe565b6001600160a01b038216600081815260036020908152604080832080546001019055848352600290915280822080546001600160a01b0319168417905551839291907fddf252ad1be2c89b69c2b068fc378daa952ba7f163c4a11628f55a4df523b3ef908290a45050565b60006001600160a01b0384163b1561296957604051630a85bd0160e11b81526001600160a01b0385169063150b7a029061286190339089908890889060040161333d565b6020604051808303816000875af192505050801561289c575060408051601f3d908101601f191682019092526128999181019061336f565b60015b61294f573d8080156128ca576040519150601f19603f3d011682016040523d82523d6000602084013e6128cf565b606091505b5080516000036129475760405162461bcd60e51b815260206004820152603260248201527f4552433732313a207472616e7366657220746f206e6f6e20455243373231526560448201527f63656976657220696d706c656d656e746572000000000000000000000000000060648201526084016105fe565b805181602001fd5b6001600160e01b031916630a85bd0160e11b14905061296d565b5060015b949350505050565b6001600160e01b031981168114611efe57600080fd5b60006020828403121561299d57600080fd5b8135611e3f81612975565b80356001600160a01b03811681146129bf57600080fd5b919050565b6000602082840312156129d657600080fd5b611e3f826129a8565b60005b838110156129fa5781810151838201526020016129e2565b50506000910152565b60008151808452612a1b8160208601602086016129df565b601f01601f19169290920160200192915050565b602081526000611e3f6020830184612a03565b600060208284031215612a5457600080fd5b5035919050565b60008060408385031215612a6e57600080fd5b612a77836129a8565b946020939093013593505050565b602081528151602082015260006020830151610100806040850152612aae610120850183612a03565b91506040850151612ac4606086018260ff169052565b506060850151601f1980868503016080870152612ae18483612a03565b935060808701519150808685030160a0870152612afe8483612a03565b935060a08701519150808685030160c0870152612b1b8483612a03565b935060c08701519150808685030160e087015250612b398382612a03565b92505060e0850151612b4e8286018215159052565b5090949350505050565b634e487b7160e01b600052604160045260246000fd5b600067ffffffffffffffff80841115612b8957612b89612b58565b604051601f8501601f19908116603f01168101908282118183101715612bb157612bb1612b58565b81604052809350858152868686011115612bca57600080fd5b858560208301376000602087830101525050509392505050565b600082601f830112612bf557600080fd5b611e3f83833560208501612b6e565b803560ff811681146129bf57600080fd5b60008060008060008060c08789031215612c2e57600080fd5b863567ffffffffffffffff80821115612c4657600080fd5b612c528a838b01612be4565b9750612c6060208a01612c04565b96506040890135915080821115612c7657600080fd5b612c828a838b01612be4565b95506060890135915080821115612c9857600080fd5b612ca48a838b01612be4565b94506080890135915080821115612cba57600080fd5b612cc68a838b01612be4565b935060a0890135915080821115612cdc57600080fd5b50612ce989828a01612be4565b9150509295509295509295565b600080600060608486031215612d0b57600080fd5b612d14846129a8565b9250612d22602085016129a8565b9150604084013590509250925092565b600080600080600060a08688031215612d4a57600080fd5b853567ffffffffffffffff80821115612d6257600080fd5b612d6e89838a01612be4565b9650612d7c60208901612c04565b95506040880135915080821115612d9257600080fd5b612d9e89838a01612be4565b94506060880135915080821115612db457600080fd5b612dc089838a01612be4565b93506080880135915080821115612dd657600080fd5b50612de388828901612be4565b9150509295509295909350565b60008060408385031215612e0357600080fd5b612e0c836129a8565b915060208301358015158114612e2157600080fd5b809150509250929050565b60008060008060808587031215612e4257600080fd5b612e4b856129a8565b9350612e59602086016129a8565b925060408501359150606085013567ffffffffffffffff811115612e7c57600080fd5b8501601f81018713612e8d57600080fd5b612e9c87823560208401612b6e565b91505092959194509250565b60006101008a8352806020840152612ec28184018b612a03565b905060ff891660408401528281036060840152612edf8189612a03565b90508281036080840152612ef38188612a03565b905082810360a0840152612f078187612a03565b905082810360c0840152612f1b8186612a03565b91505082151560e08301529998505050505050505050565b600060208284031215612f4557600080fd5b813567ffffffffffffffff811115612f5c57600080fd5b61296d84828501612be4565b60008060408385031215612f7b57600080fd5b612f84836129a8565b9150612f92602084016129a8565b90509250929050565b600181811c90821680612faf57607f821691505b602082108103612fcf57634e487b7160e01b600052602260045260246000fd5b50919050565b60008251612fe78184602087016129df565b9190910192915050565b6000808354612fff81612f9b565b60018281168015613017576001811461302c5761305b565b60ff198416875282151583028701945061305b565b8760005260208060002060005b858110156130525781548a820152908401908201613039565b50505082870194505b50929695505050505050565b601f8211156106bd57600081815260208120601f850160051c8101602086101561308e5750805b601f850160051c820191505b818110156130ad5782815560010161309a565b505050505050565b815167ffffffffffffffff8111156130cf576130cf612b58565b6130e3816130dd8454612f9b565b84613067565b602080601f83116001811461311857600084156131005750858301515b600019600386901b1c1916600185901b1785556130ad565b600085815260208120601f198616915b8281101561314757888601518255948401946001909101908401613128565b50858210156131655787850151600019600388901b60f8161c191681555b5050505050600190811b01905550565b60c08152600061318860c0830189612a03565b602060ff89168185015283820360408501526131a48289612a03565b915083820360608501526131b88288612a03565b915083820360808501526131cc8287612a03565b915083820360a0850152600085546131e381612f9b565b808552600182811680156131fe576001811461321857613246565b60ff1984168787015282151560051b870186019450613246565b896000528560002060005b8481101561323e578154898201890152908301908701613223565b880187019550505b50929d9c50505050505050505050505050565b634e487b7160e01b600052601160045260246000fd5b60006001820161328157613281613259565b5060010190565b82815260406020820152600061296d6040830184612a03565b6040815260006132b46040830185612a03565b90506001600160a01b03831660208301529392505050565b600083516132de8184602088016129df565b8351908301906132f28183602088016129df565b01949350505050565b634e487b7160e01b600052603260045260246000fd5b818103818111156104af576104af613259565b60ff81811683821601908111156104af576104af613259565b60006001600160a01b038087168352808616602084015250836040830152608060608301526120fa6080830184612a03565b60006020828403121561338157600080fd5b8151611e3f8161297556fea264697066735822122090c4ab7a9ebbc1c83295b52f99a63cfb8b89cb606b693e6db0c1cb5aa4ba9f3764736f6c63430008140033",
  "linkReferences": {},
  "deployedLinkReferences": {}
}