{
  "_format": "hh-sol-artifact-1",
  "contractName": "ProfileNFT",
  "sourceName": "contracts/ProfileNFT.sol",
  "abi": [
    {
      "inputs": [],
      "stateMutability": "nonpayable",
      "type": "constructor"
    },
    {
      "anonymous": false,
      "inputs": [
        {
          "indexed": true,
          "internalType": "address",
          "name": "owner",
          "type": "address"
        },
        {
          "indexed": true,
          "internalType": "address",
          "name": "approved",
          "type": "address"
        },
        {
          "indexed": true,
          "internalType": "uint256",
          "name": "tokenId",
          "type": "uint256"
        }
      ],
      "name": "Approval",
      "type": "event"
    },
    {
      "anonymous": false,
      "inputs": [
        {
          "indexed": true,
          "internalType": "address",
          "name": "owner",
          "type": "address"
        },
        {
          "indexed": true,
          "internalType": "address",
          "name": "operator",
          "type": "address"
        },
        {
          "indexed": false,
          "internalType": "bool",
          "name": "approved",
          "type": "bool"
        }
      ],
      "name": "ApprovalForAll",
      "type": "event"
    },
    {
      "anonymous": false,
      "inputs": [
        {
          "indexed": false,
          "internalType": "string",
          "name": "email",
          "type": "string"
        },
        {
          "indexed": false,
          "internalType": "address",
          "name": "user",
          "type": "address"
        }
      ],
      "name": "EmailRegistered",
      "type": "event"
    },
    {
      "anonymous": false,
      "inputs": [
        {
          "indexed": true,
          "internalType": "address",
          "name": "previousOwner",
          "type": "address"
        },
        {
          "indexed": true,
          "internalType": "address",
          "name": "newOwner",
          "type": "address"
        }
      ],
      "name": "OwnershipTransferred",
      "type": "event"
    },
    {
      "anonymous": false,
      "inputs": [
        {
          "indexed": true,
          "internalType": "address",
          "name": "user",
          "type": "address"
        },
        {
          "indexed": false,
          "internalType": "uint256",
          "name": "tokenId",
          "type": "uint256"
        },
        {
          "indexed": false,
          "internalType": "string",
          "name": "name",
          "type": "string"
        }
      ],
      "name": "ProfileCreated",
      "type": "event"
    },
    {
      "anonymous": false,
      "inputs": [
        {
          "indexed": true,
          "internalType": "address",
          "name": "user",
          "type": "address"
        },
        {
          "indexed": false,
          "internalType": "uint256",
          "name": "tokenId",
          "type": "uint256"
        }
      ],
      "name": "ProfileDeleted",
      "type": "event"
    },
    {
      "anonymous": false,
      "inputs": [
        {
          "indexed": true,
          "internalType": "address",
          "name": "user",
          "type": "address"
        },
        {
          "indexed": false,
          "internalType": "string",
          "name": "name",
          "type": "string"
        },
        {
          "indexed": false,
          "internalType": "uint8",
          "name": "age",
          "type": "uint8"
        },
        {
          "indexed": false,
          "internalType": "string",
          "name": "gender",
          "type": "string"
        },
        {
          "indexed": false,
          "internalType": "string",
          "name": "interests",
          "type": "string"
        },
        {
          "indexed": false,
          "internalType": "string",
          "name": "photoUrl",
          "type": "string"
        },
        {
          "indexed": false,
          "internalType": "string",
          "name": "email",
          "type": "string"
        }
      ],
      "name": "ProfileUpdated",
      "type": "event"
    },
    {
      "anonymous": false,
      "inputs": [
        {
          "indexed": true,
          "internalType": "address",
          "name": "from",
          "type": "address"
        },
        {
          "indexed": true,
          "internalType": "address",
          "name": "to",
          "type": "address"
        },
        {
          "indexed": true,
          "internalType": "uint256",
          "name": "tokenId",
          "type": "uint256"
        }
      ],
      "name": "Transfer",
      "type": "event"
    },
    {
      "inputs": [
        {
          "internalType": "address",
          "name": "",
          "type": "address"
        }
      ],
      "name": "addressToTokenId",
      "outputs": [
        {
          "internalType": "uint256",
          "name": "",
          "type": "uint256"
        }
      ],
      "stateMutability": "view",
      "type": "function"
    },
    {
      "inputs": [
        {
          "internalType": "address",
          "name": "to",
          "type": "address"
        },
        {
          "internalType": "uint256",
          "name": "tokenId",
          "type": "uint256"
        }
      ],
      "name": "approve",
      "outputs": [],
      "stateMutability": "nonpayable",
      "type": "function"
    },
    {
      "inputs": [
        {
          "internalType": "address",
          "name": "owner",
          "type": "address"
        }
      ],
      "name": "balanceOf",
      "outputs": [
        {
          "internalType": "uint256",
          "name": "",
          "type": "uint256"
        }
      ],
      "stateMutability": "view",
      "type": "function"
    },
    {
      "inputs": [
        {
          "internalType": "string",
          "name": "name",
          "type": "string"
        },
        {
          "internalType": "uint8",
          "name": "age",
          "type": "uint8"
        },
        {
          "internalType": "string",
          "name": "gender",
          "type": "string"
        },
        {
          "internalType": "string",
          "name": "interests",
          "type": "string"
        },
        {
          "internalType": "string",
          "name": "photoUrl",
          "type": "string"
        }
      ],
      "name": "createProfile",
      "outputs": [],
      "stateMutability": "nonpayable",
      "type": "function"
    },
    {
      "inputs": [],
      "name": "deleteProfile",
      "outputs": [],
      "stateMutability": "nonpayable",
      "type": "function"
    },
    {
      "inputs": [
        {
          "internalType": "string",
          "name": "email",
          "type": "string"
        }
      ],
      "name": "getAddressByEmail",
      "outputs": [
        {
          "internalType": "address",
          "name": "",
          "type": "address"
        }
      ],
      "stateMutability": "view",
      "type": "function"
    },
    {
      "inputs": [
        {
          "internalType": "uint256",
          "name": "tokenId",
          "type": "uint256"
        }
      ],
      "name": "getApproved",
      "outputs": [
        {
          "internalType": "address",
          "name": "",
          "type": "address"
        }
      ],
      "stateMutability": "view",
      "type": "function"
    },
    {
      "inputs": [
        {
          "internalType": "address",
          "name": "user",
          "type": "address"
        }
      ],
      "name": "getProfile",
      "outputs": [
        {
          "components": [
            {
              "internalType": "uint256",
              "name": "tokenId",
              "type": "uint256"
            },
            {
              "internalType": "string",
              "name": "name",
              "type": "string"
            },
            {
              "internalType": "uint8",
              "name": "age",
              "type": "uint8"
            },
            {
              "internalType": "string",
              "name": "gender",
              "type": "string"
            },
            {
              "internalType": "string",
              "name": "interests",
              "type": "string"
            },
            {
              "internalType": "string",
              "name": "photoUrl",
              "type": "string"
            },
            {
              "internalType": "string",
              "name": "email",
              "type": "string"
            },
            {
              "internalType": "bool",
              "name": "exists",
              "type": "bool"
            }
          ],
          "internalType": "struct ProfileNFT.Profile",
          "name": "",
          "type": "tuple"
        }
      ],
      "stateMutability": "view",
      "type": "function"
    },
    {
      "inputs": [
        {
          "internalType": "address",
          "name": "owner",
          "type": "address"
        },
        {
          "internalType": "address",
          "name": "operator",
          "type": "address"
        }
      ],
      "name": "isApprovedForAll",
      "outputs": [
        {
          "internalType": "bool",
          "name": "",
          "type": "bool"
        }
      ],
      "stateMutability": "view",
      "type": "function"
    },
    {
      "inputs": [
        {
          "internalType": "string",
          "name": "email",
          "type": "string"
        }
      ],
      "name": "isEmailRegistered",
      "outputs": [
        {
          "internalType": "bool",
          "name": "",
          "type": "bool"
        }
      ],
      "stateMutability": "view",
      "type": "function"
    },
    {
      "inputs": [],
      "name": "matchingContract",
      "outputs": [
        {
          "internalType": "address",
          "name": "",
          "type": "address"
        }
      ],
      "stateMutability": "view",
      "type": "function"
    },
    {
      "inputs": [],
      "name": "name",
      "outputs": [
        {
          "internalType": "string",
          "name": "",
          "type": "string"
        }
      ],
      "stateMutability": "view",
      "type": "function"
    },
    {
      "inputs": [],
      "name": "owner",
      "outputs": [
        {
          "internalType": "address",
          "name": "",
          "type": "address"
        }
      ],
      "stateMutability": "view",
      "type": "function"
    },
    {
      "inputs": [
        {
          "internalType": "uint256",
          "name": "tokenId",
          "type": "uint256"
        }
      ],
      "name": "ownerOf",
      "outputs": [
        {
          "internalType": "address",
          "name": "",
          "type": "address"
        }
      ],
      "stateMutability": "view",
      "type": "function"
    },
    {
      "inputs": [
        {
          "internalType": "address",
          "name": "user",
          "type": "address"
        }
      ],
      "name": "profileExists",
      "outputs": [
        {
          "internalType": "bool",
          "name": "",
          "type": "bool"
        }
      ],
      "stateMutability": "view",
      "type": "function"
    },
    {
      "inputs": [
        {
          "internalType": "address",
          "name": "",
          "type": "address"
        }
      ],
      "name": "profiles",
      "outputs": [
        {
          "internalType": "uint256",
          "name": "tokenId",
          "type": "uint256"
        },
        {
          "internalType": "string",
          "name": "name",
          "type": "string"
        },
        {
          "internalType": "uint8",
          "name": "age",
          "type": "uint8"
        },
        {
          "internalType": "string",
          "name": "gender",
          "type": "string"
        },
        {
          "internalType": "string",
          "name": "interests",
          "type": "string"
        },
        {
          "internalType": "string",
          "name": "photoUrl",
          "type": "string"
        },
        {
          "internalType": "string",
          "name": "email",
          "type": "string"
        },
        {
          "internalType": "bool",
          "name": "exists",
          "type": "bool"
        }
      ],
      "stateMutability": "view",
      "type": "function"
    },
    {
      "inputs": [
        {
          "internalType": "string",
          "name": "name",
          "type": "string"
        },
        {
          "internalType": "uint8",
          "name": "age",
          "type": "uint8"
        },
        {
          "internalType": "string",
          "name": "gender",
          "type": "string"
        },
        {
          "internalType": "string",
          "name": "interests",
          "type": "string"
        },
        {
          "internalType": "string",
          "name": "email",
          "type": "string"
        }
      ],
      "name": "registerWithEmail",
      "outputs": [],
      "stateMutability": "nonpayable",
      "type": "function"
    },
    {
      "inputs": [],
      "name": "renounceOwnership",
      "outputs": [],
      "stateMutability": "nonpayable",
      "type": "function"
    },
    {
      "inputs": [
        {
          "internalType": "address",
          "name": "from",
          "type": "address"
        },
        {
          "internalType": "address",
          "name": "to",
          "type": "address"
        },
        {
          "internalType": "uint256",
          "name": "tokenId",
          "type": "uint256"
        }
      ],
      "name": "safeTransferFrom",
      "outputs": [],
      "stateMutability": "nonpayable",
      "type": "function"
    },
    {
      "inputs": [
        {
          "internalType": "address",
          "name": "",
          "type": "address"
        },
        {
          "internalType": "address",
          "name": "",
          "type": "address"
        },
        {
          "internalType": "uint256",
          "name": "",
          "type": "uint256"
        },
        {
          "internalType": "bytes",
          "name": "",
          "type": "bytes"
        }
      ],
      "name": "safeTransferFrom",
      "outputs": [],
      "stateMutability": "pure",
      "type": "function"
    },
    {
      "inputs": [
        {
          "internalType": "address",
          "name": "operator",
          "type": "address"
        },
        {
          "internalType": "bool",
          "name": "approved",
          "type": "bool"
        }
      ],
      "name": "setApprovalForAll",
      "outputs": [],
      "stateMutability": "nonpayable",
      "type": "function"
    },
    {
      "inputs": [
        {
          "internalType": "address",
          "name": "_matchingContract",
          "type": "address"
        }
      ],
      "name": "setMatchingContract",
      "outputs": [],
      "stateMutability": "nonpayable",
      "type": "function"
    },
    {
      "inputs": [
        {
          "internalType": "bytes4",
          "name": "interfaceId",
          "type": "bytes4"
        }
      ],
      "name": "supportsInterface",
      "outputs": [
        {
          "internalType": "bool",
          "name": "",
          "type": "bool"
        }
      ],
      "stateMutability": "view",
      "type": "function"
    },
    {
      "inputs": [],
      "name": "symbol",
      "outputs": [
        {
          "internalType": "string",
          "name": "",
          "type": "string"
        }
      ],
      "stateMutability": "view",
      "type": "function"
    },
    {
      "inputs": [
        {
          "internalType": "uint256",
          "name": "tokenId",
          "type": "uint256"
        }
      ],
      "name": "tokenURI",
      "outputs": [
        {
          "internalType": "string",
          "name": "",
          "type": "string"
        }
      ],
      "stateMutability": "view",
      "type": "function"
    },
    {
      "inputs": [
        {
          "internalType": "address",
          "name": "",
          "type": "address"
        },
        {
          "internalType": "address",
          "name": "",
          "type": "address"
        },
        {
          "internalType": "uint256",
          "name": "",
          "type": "uint256"
        }
      ],
      "name": "transferFrom",
      "outputs": [],
      "stateMutability": "pure",
      "type": "function"
    },
    {
      "inputs": [
        {
          "internalType": "address",
          "name": "newOwner",
          "type": "address"
        }
      ],
      "name": "transferOwnership",
      "outputs": [],
      "stateMutability": "nonpayable",
      "type": "function"
    },
    {
      "inputs": [
        {
          "internalType": "string",
          "name": "name",
          "type": "string"
        },
        {
          "internalType": "uint8",
          "name": "age",
          "type": "uint8"
        },
        {
          "internalType": "string",
          "name": "gender",
          "type": "string"
        },
        {
          "internalType": "string",
          "name": "interests",
          "type": "string"
        },
        {
          "internalType": "string",
          "name": "photoUrl",
          "type": "string"
        },
        {
          "internalType": "string",
          "name": "email",
          "type": "string"
        }
      ],
      "name": "updateProfile",
      "outputs": [],
      "stateMutability": "nonpayable",
      "type": "function"
    }
  ],
  "bytecode": "0x60806040523480156200001157600080fd5b5060405180604001604052806011815260200170426173654d617463682050726f66696c6560781b81525060405180604001604052806005815260200164424d50524f60d81b81525081600090816200006b919062000198565b5060016200007a828262000198565b50505062000097620000916200009d60201b60201c565b620000a1565b62000264565b3390565b600680546001600160a01b038381166001600160a01b0319831681179093556040519116919082907f8be0079c531659141344cd1fd0a4f28419497f9722a3daafe3b4186f6b6457e090600090a35050565b634e487b7160e01b600052604160045260246000fd5b600181811c908216806200011e57607f821691505b6020821081036200013f57634e487b7160e01b600052602260045260246000fd5b50919050565b601f8211156200019357600081815260208120601f850160051c810160208610156200016e5750805b601f850160051c820191505b818110156200018f578281556001016200017a565b5050505b505050565b81516001600160401b03811115620001b457620001b4620000f3565b620001cc81620001c5845462000109565b8462000145565b602080601f831160018114620002045760008415620001eb5750858301515b600019600386901b1c1916600185901b1785556200018f565b600085815260208120601f198616915b82811015620002355788860151825594840194600190910190840162000214565b5085821015620002545787850151600019600388901b60f8161c191681555b5050505050600190811b01905550565b613b0e80620002746000396000f3fe608060405234801561001057600080fd5b50600436106101c45760003560e01c80636d4540eb116100f9578063b88d4fde11610097578063c87b56dd11610071578063c87b56dd146103f2578063df3cdad714610405578063e985e9c514610418578063f2fde38b1461045457600080fd5b8063b88d4fde146103aa578063bbe15627146103b8578063c5caea01146103df57600080fd5b80638da5cb5b116100d35780638da5cb5b1461036b57806395d89b411461037c5780639e385dfb14610384578063a22cb4651461039757600080fd5b80636d4540eb1461034857806370a0823114610350578063715018a61461036357600080fd5b80632182d9d7116101665780634ab491b6116101405780634ab491b6146102e157806353964b19146102f45780636352211e146103075780636511bf2e1461031a57600080fd5b80632182d9d7146102a857806323b872dd146102bb57806342842e0e146102ce57600080fd5b8063081812fc116101a2578063081812fc14610235578063095ea7b3146102605780630f53a4701461027557806310ea22711461029557600080fd5b806301ffc9a7146101c957806305cfa06f146101f157806306fdde0314610220575b600080fd5b6101dc6101d73660046130d7565b610467565b60405190151581526020015b60405180910390f35b6101dc6101ff366004613110565b6001600160a01b031660009081526008602052604090206007015460ff1690565b610228610504565b6040516101e8919061317b565b61024861024336600461318e565b610596565b6040516001600160a01b0390911681526020016101e8565b61027361026e3660046131a7565b6105bd565b005b610288610283366004613110565b610711565b6040516101e891906131d1565b6102736102a3366004613361565b610a8e565b6102736102b6366004613110565b611047565b6102736102c9366004613442565b611120565b6102736102dc366004613442565b611168565b6102736102ef36600461347e565b611183565b600c54610248906001600160a01b031681565b61024861031536600461318e565b611587565b61033a610328366004613110565b60096020526000908152604090205481565b6040519081526020016101e8565b6102736115ec565b61033a61035e366004613110565b611b2d565b610273611bc7565b6006546001600160a01b0316610248565b610228611bdb565b61027361039236600461347e565b611bea565b6102736103a536600461353c565b612106565b6102736102c9366004613578565b6103cb6103c6366004613110565b612115565b6040516101e89897969594939291906135f4565b6102486103ed36600461367f565b61240a565b61022861040036600461318e565b61243b565b6101dc61041336600461367f565b6124af565b6101dc6104263660046136b4565b6001600160a01b03918216600090815260056020908152604080832093909416825291909152205460ff1690565b610273610462366004613110565b6124da565b60006001600160e01b031982167f80ac58cd0000000000000000000000000000000000000000000000000000000014806104ca57506001600160e01b031982167f5b5e139f00000000000000000000000000000000000000000000000000000000145b806104fe57507f01ffc9a7000000000000000000000000000000000000000000000000000000006001600160e01b03198316145b92915050565b606060008054610513906136e7565b80601f016020809104026020016040519081016040528092919081815260200182805461053f906136e7565b801561058c5780601f106105615761010080835404028352916020019161058c565b820191906000526020600020905b81548152906001019060200180831161056f57829003601f168201915b5050505050905090565b60006105a18261256a565b506000908152600460205260409020546001600160a01b031690565b60006105c882611587565b9050806001600160a01b0316836001600160a01b0316036106565760405162461bcd60e51b815260206004820152602160248201527f4552433732313a20617070726f76616c20746f2063757272656e74206f776e6560448201527f720000000000000000000000000000000000000000000000000000000000000060648201526084015b60405180910390fd5b336001600160a01b038216148061069057506001600160a01b038116600090815260056020908152604080832033845290915290205460ff165b6107025760405162461bcd60e51b815260206004820152603d60248201527f4552433732313a20617070726f76652063616c6c6572206973206e6f7420746f60448201527f6b656e206f776e6572206f7220617070726f76656420666f7220616c6c000000606482015260840161064d565b61070c83836125ce565b505050565b61075e6040518061010001604052806000815260200160608152602001600060ff168152602001606081526020016060815260200160608152602001606081526020016000151581525090565b6001600160a01b0382166000908152600860209081526040918290208251610100810190935280548352600181018054919284019161079c906136e7565b80601f01602080910402602001604051908101604052809291908181526020018280546107c8906136e7565b80156108155780601f106107ea57610100808354040283529160200191610815565b820191906000526020600020905b8154815290600101906020018083116107f857829003601f168201915b5050509183525050600282015460ff16602082015260038201805460409092019161083f906136e7565b80601f016020809104026020016040519081016040528092919081815260200182805461086b906136e7565b80156108b85780601f1061088d576101008083540402835291602001916108b8565b820191906000526020600020905b81548152906001019060200180831161089b57829003601f168201915b505050505081526020016004820180546108d1906136e7565b80601f01602080910402602001604051908101604052809291908181526020018280546108fd906136e7565b801561094a5780601f1061091f5761010080835404028352916020019161094a565b820191906000526020600020905b81548152906001019060200180831161092d57829003601f168201915b50505050508152602001600582018054610963906136e7565b80601f016020809104026020016040519081016040528092919081815260200182805461098f906136e7565b80156109dc5780601f106109b1576101008083540402835291602001916109dc565b820191906000526020600020905b8154815290600101906020018083116109bf57829003601f168201915b505050505081526020016006820180546109f5906136e7565b80601f0160208091040260200160405190810160405280929190818152602001828054610a21906136e7565b8015610a6e5780601f10610a4357610100808354040283529160200191610a6e565b820191906000526020600020905b815481529060010190602001808311610a5157829003601f168201915b50505091835250506007919091015460ff16151560209091015292915050565b3360009081526008602052604090206007015460ff16610af05760405162461bcd60e51b815260206004820152601660248201527f50726f66696c6520646f6573206e6f7420657869737400000000000000000000604482015260640161064d565b60128560ff161015610b445760405162461bcd60e51b815260206004820152601360248201527f4d757374206265203138206f72206f6c64657200000000000000000000000000604482015260640161064d565b60788560ff161115610b985760405162461bcd60e51b815260206004820152601560248201527f416765206d757374206265207265616c69737469630000000000000000000000604482015260640161064d565b6002865110158015610bac57506064865111155b610bf85760405162461bcd60e51b815260206004820152601d60248201527f4e616d65206d75737420626520322d3130302063686172616374657273000000604482015260640161064d565b60008351118015610c0c57506101f4835111155b610c635760405162461bcd60e51b815260206004820152602260248201527f496e74657265737473206d75737420626520312d353030206368617261637465604482015261727360f01b606482015260840161064d565b6101f482511115610cb65760405162461bcd60e51b815260206004820152601260248201527f50686f746f2055524c20746f6f206c6f6e670000000000000000000000000000604482015260640161064d565b60008451118015610cc957506032845111155b610d155760405162461bcd60e51b815260206004820152601460248201527f47656e646572206d7573742062652076616c6964000000000000000000000000604482015260640161064d565b805115610f9457610d258161263c565b610d715760405162461bcd60e51b815260206004820152601460248201527f496e76616c696420656d61696c20666f726d6174000000000000000000000000604482015260640161064d565b6000610d7c8261276d565b3360009081526008602052604090206006018054919250610e2491610da0906136e7565b80601f0160208091040260200160405190810160405280929190818152602001828054610dcc906136e7565b8015610e195780601f10610dee57610100808354040283529160200191610e19565b820191906000526020600020905b815481529060010190602001808311610dfc57829003601f168201915b505050505082612903565b610f7557600a81604051610e389190613721565b9081526040519081900360200190205460ff1615610e985760405162461bcd60e51b815260206004820152601860248201527f456d61696c20616c726561647920726567697374657265640000000000000000604482015260640161064d565b3360009081526008602052604081206006018054610eb5906136e7565b90501115610f0257336000908152600860205260408082209051600a91610ee19160069091019061373d565b908152604051908190036020019020805491151560ff199092169190911790555b6001600a82604051610f149190613721565b908152604051908190036020018120805492151560ff19909316929092179091553390600b90610f45908490613721565b90815260405190819003602001902080546001600160a01b03929092166001600160a01b03199092169190911790555b336000908152600860205260409020600601610f918282613801565b50505b33600090815260086020526040902060018101610fb18882613801565b5060028101805460ff191660ff881617905560038101610fd18682613801565b5060048101610fe08582613801565b5060058101610fef8482613801565b50336001600160a01b03167fff05e84fce958ef60921c414197d065753ed947b0d3460ddef8244c534c916da888888888887600601604051611036969594939291906138c1565b60405180910390a250505050505050565b61104f61295c565b600c546001600160a01b0316156110a85760405162461bcd60e51b815260206004820152601d60248201527f4d61746368696e6720636f6e747261637420616c726561647920736574000000604482015260640161064d565b6001600160a01b0381166110fe5760405162461bcd60e51b815260206004820152600f60248201527f496e76616c696420616464726573730000000000000000000000000000000000604482015260640161064d565b600c80546001600160a01b0319166001600160a01b0392909216919091179055565b60405162461bcd60e51b815260206004820152601f60248201527f536f756c626f756e643a205472616e73666572206e6f7420616c6c6f77656400604482015260640161064d565b61070c83838360405180602001604052806000815250611120565b3360009081526008602052604090206007015460ff16156111e65760405162461bcd60e51b815260206004820152601660248201527f50726f66696c6520616c72656164792065786973747300000000000000000000604482015260640161064d565b60128460ff16101561123a5760405162461bcd60e51b815260206004820152601360248201527f4d757374206265203138206f72206f6c64657200000000000000000000000000604482015260640161064d565b60788460ff16111561128e5760405162461bcd60e51b815260206004820152601560248201527f416765206d757374206265207265616c69737469630000000000000000000000604482015260640161064d565b60028551101580156112a257506064855111155b6112ee5760405162461bcd60e51b815260206004820152601d60248201527f4e616d65206d75737420626520322d3130302063686172616374657273000000604482015260640161064d565b6000825111801561130257506101f4825111155b6113595760405162461bcd60e51b815260206004820152602260248201527f496e74657265737473206d75737420626520312d353030206368617261637465604482015261727360f01b606482015260840161064d565b6101f4815111156113ac5760405162461bcd60e51b815260206004820152601260248201527f50686f746f2055524c20746f6f206c6f6e670000000000000000000000000000604482015260640161064d565b600083511180156113bf57506032835111155b61140b5760405162461bcd60e51b815260206004820152601460248201527f47656e646572206d7573742062652076616c6964000000000000000000000000604482015260640161064d565b6007805490600061141b836139bb565b90915550506007546040805161010081018252828152602080820189815260ff891683850152606083018890526080830187905260a0830186905283518083018552600080825260c0850191909152600160e08501819052338252600890935293909320825181559251919291908201906114969082613801565b50604082015160028201805460ff191660ff909216919091179055606082015160038201906114c59082613801565b50608082015160048201906114da9082613801565b5060a082015160058201906114ef9082613801565b5060c082015160068201906115049082613801565b5060e091909101516007909101805460ff191691151591909117905533600081815260096020526040902082905561153c90826129b6565b336001600160a01b03167f02ed4ee0412e67bbc9ed1687f3ad6bb7134d359d45994f3bf5302e91d81cf61f82886040516115779291906139d4565b60405180910390a2505050505050565b6000818152600260205260408120546001600160a01b0316806104fe5760405162461bcd60e51b815260206004820152601860248201527f4552433732313a20696e76616c696420746f6b656e2049440000000000000000604482015260640161064d565b3360009081526008602052604090206007015460ff1661164e5760405162461bcd60e51b815260206004820152601660248201527f50726f66696c6520646f6573206e6f7420657869737400000000000000000000604482015260640161064d565b33600090815260086020908152604080832081516101008101909252805482526001810180549293919291840191611685906136e7565b80601f01602080910402602001604051908101604052809291908181526020018280546116b1906136e7565b80156116fe5780601f106116d3576101008083540402835291602001916116fe565b820191906000526020600020905b8154815290600101906020018083116116e157829003601f168201915b5050509183525050600282015460ff166020820152600382018054604090920191611728906136e7565b80601f0160208091040260200160405190810160405280929190818152602001828054611754906136e7565b80156117a15780601f10611776576101008083540402835291602001916117a1565b820191906000526020600020905b81548152906001019060200180831161178457829003601f168201915b505050505081526020016004820180546117ba906136e7565b80601f01602080910402602001604051908101604052809291908181526020018280546117e6906136e7565b80156118335780601f1061180857610100808354040283529160200191611833565b820191906000526020600020905b81548152906001019060200180831161181657829003601f168201915b5050505050815260200160058201805461184c906136e7565b80601f0160208091040260200160405190810160405280929190818152602001828054611878906136e7565b80156118c55780601f1061189a576101008083540402835291602001916118c5565b820191906000526020600020905b8154815290600101906020018083116118a857829003601f168201915b505050505081526020016006820180546118de906136e7565b80601f016020809104026020016040519081016040528092919081815260200182805461190a906136e7565b80156119575780601f1061192c57610100808354040283529160200191611957565b820191906000526020600020905b81548152906001019060200180831161193a57829003601f168201915b50505091835250506007919091015460ff161515602090910152805160c08201515191925090156119e9576000600a8360c001516040516119989190613721565b908152604051908190036020018120805492151560ff199093169290921790915560c0830151600b916119cb9190613721565b90815260405190819003602001902080546001600160a01b03191690555b600c546001600160a01b031615611a6b57600c546040517ff569f82f0000000000000000000000000000000000000000000000000000000081523360048201526001600160a01b039091169063f569f82f90602401600060405180830381600087803b158015611a5857600080fd5b505af1925050508015611a69575060015b505b33600090815260086020526040812081815590611a8b6001830182613073565b60028201805460ff19169055611aa5600383016000613073565b611ab3600483016000613073565b611ac1600583016000613073565b611acf600683016000613073565b50600701805460ff1916905533600090815260096020526040812055611af4816129d0565b60405181815233907f236eb7515b00733d8ade7456155d53d63c2fa66bec6437ddff6ab3fc71e1e3249060200160405180910390a25050565b60006001600160a01b038216611bab5760405162461bcd60e51b815260206004820152602960248201527f4552433732313a2061646472657373207a65726f206973206e6f74206120766160448201527f6c6964206f776e65720000000000000000000000000000000000000000000000606482015260840161064d565b506001600160a01b031660009081526003602052604090205490565b611bcf61295c565b611bd96000612a65565b565b606060018054610513906136e7565b3360009081526008602052604090206007015460ff1615611c4d5760405162461bcd60e51b815260206004820152601660248201527f50726f66696c6520616c72656164792065786973747300000000000000000000604482015260640161064d565b60128460ff161015611ca15760405162461bcd60e51b815260206004820152601360248201527f4d757374206265203138206f72206f6c64657200000000000000000000000000604482015260640161064d565b60788460ff161115611cf55760405162461bcd60e51b815260206004820152601560248201527f416765206d757374206265207265616c69737469630000000000000000000000604482015260640161064d565b6002855110158015611d0957506064855111155b611d555760405162461bcd60e51b815260206004820152601d60248201527f4e616d65206d75737420626520322d3130302063686172616374657273000000604482015260640161064d565b60008251118015611d6957506101f4825111155b611dc05760405162461bcd60e51b815260206004820152602260248201527f496e74657265737473206d75737420626520312d353030206368617261637465604482015261727360f01b606482015260840161064d565b6000815111611e115760405162461bcd60e51b815260206004820152601560248201527f456d61696c2063616e6e6f7420626520656d7074790000000000000000000000604482015260640161064d565b611e1a8161263c565b611e665760405162461bcd60e51b815260206004820152601460248201527f496e76616c696420656d61696c20666f726d6174000000000000000000000000604482015260640161064d565b6000611e718261276d565b9050600a81604051611e839190613721565b9081526040519081900360200190205460ff1615611ee35760405162461bcd60e51b815260206004820152601860248201527f456d61696c20616c726561647920726567697374657265640000000000000000604482015260640161064d565b60078054906000611ef3836139bb565b9091555050600754604051600190600a90611f0f908590613721565b908152604051908190036020018120805492151560ff19909316929092179091553390600b90611f40908590613721565b908152604080516020928190038301812080546001600160a01b0319166001600160a01b039590951694909417909355610100830181528383528183018a815260ff8a1684830152606084018990526080840188905281518084018352600080825260a086019190915260c08501879052600160e086018190523382526008909452919091208351815590519091820190611fdb9082613801565b50604082015160028201805460ff191660ff9092169190911790556060820151600382019061200a9082613801565b506080820151600482019061201f9082613801565b5060a082015160058201906120349082613801565b5060c082015160068201906120499082613801565b5060e091909101516007909101805460ff191691151591909117905533600081815260096020526040902082905561208190826129b6565b336001600160a01b03167f02ed4ee0412e67bbc9ed1687f3ad6bb7134d359d45994f3bf5302e91d81cf61f82896040516120bc9291906139d4565b60405180910390a27f47f02b73945ce0ca4c471ed60f05863657de8944610464aad740573b7c3b2d8c82336040516120f59291906139ed565b60405180910390a150505050505050565b612111338383612ab7565b5050565b60086020526000908152604090208054600182018054919291612137906136e7565b80601f0160208091040260200160405190810160405280929190818152602001828054612163906136e7565b80156121b05780601f10612185576101008083540402835291602001916121b0565b820191906000526020600020905b81548152906001019060200180831161219357829003601f168201915b5050506002840154600385018054949560ff9092169491935091506121d4906136e7565b80601f0160208091040260200160405190810160405280929190818152602001828054612200906136e7565b801561224d5780601f106122225761010080835404028352916020019161224d565b820191906000526020600020905b81548152906001019060200180831161223057829003601f168201915b505050505090806004018054612262906136e7565b80601f016020809104026020016040519081016040528092919081815260200182805461228e906136e7565b80156122db5780601f106122b0576101008083540402835291602001916122db565b820191906000526020600020905b8154815290600101906020018083116122be57829003601f168201915b5050505050908060050180546122f0906136e7565b80601f016020809104026020016040519081016040528092919081815260200182805461231c906136e7565b80156123695780601f1061233e57610100808354040283529160200191612369565b820191906000526020600020905b81548152906001019060200180831161234c57829003601f168201915b50505050509080600601805461237e906136e7565b80601f01602080910402602001604051908101604052809291908181526020018280546123aa906136e7565b80156123f75780601f106123cc576101008083540402835291602001916123f7565b820191906000526020600020905b8154815290600101906020018083116123da57829003601f168201915b5050506007909301549192505060ff1688565b6000600b8260405161241c9190613721565b908152604051908190036020019020546001600160a01b031692915050565b60606124468261256a565b600061245d60408051602081019091526000815290565b9050600081511161247d57604051806020016040528060008152506124a8565b8061248784612b85565b604051602001612498929190613a18565b6040516020818303038152906040525b9392505050565b6000600a826040516124c19190613721565b9081526040519081900360200190205460ff1692915050565b6124e261295c565b6001600160a01b03811661255e5760405162461bcd60e51b815260206004820152602660248201527f4f776e61626c653a206e6577206f776e657220697320746865207a65726f206160448201527f6464726573730000000000000000000000000000000000000000000000000000606482015260840161064d565b61256781612a65565b50565b6000818152600260205260409020546001600160a01b03166125675760405162461bcd60e51b815260206004820152601860248201527f4552433732313a20696e76616c696420746f6b656e2049440000000000000000604482015260640161064d565b600081815260046020526040902080546001600160a01b0319166001600160a01b038416908117909155819061260382611587565b6001600160a01b03167f8c5be1e5ebec7d5bd14f71427d1e84f3dd0314c0f7b2291e5b200ac8c7c3b92560405160405180910390a45050565b6000808290506005815110156126555750600092915050565b60fe815111156126685750600092915050565b6000806000805b845181101561275557600085828151811061268c5761268c613a47565b01602001516001600160f81b03191690507f400000000000000000000000000000000000000000000000000000000000000081900361270257846126cf816139bb565b955060019450508115806126ef5750600186516126ec9190613a5d565b82145b1561270257506000979650505050505050565b83801561273857507f2e000000000000000000000000000000000000000000000000000000000000006001600160f81b03198216145b1561274257600192505b508061274d816139bb565b91505061266f565b508260011480156127635750805b9695505050505050565b606060008290506000815167ffffffffffffffff811115612790576127906132a4565b6040519080825280601f01601f1916602001820160405280156127ba576020820181803683370190505b50905060005b82518110156128fb5760008382815181106127dd576127dd613a47565b01602001516001600160f81b03191690507f4100000000000000000000000000000000000000000000000000000000000000811080159061284857507f5a000000000000000000000000000000000000000000000000000000000000006001600160f81b0319821611155b156128a55761285c60f882901c6020613a70565b60f81b83838151811061287157612871613a47565b60200101907effffffffffffffffffffffffffffffffffffffffffffffffffffffffffffff1916908160001a9053506128e8565b808383815181106128b8576128b8613a47565b60200101907effffffffffffffffffffffffffffffffffffffffffffffffffffffffffffff1916908160001a9053505b50806128f3816139bb565b9150506127c0565b509392505050565b6000816040516020016129169190613721565b604051602081830303815290604052805190602001208360405160200161293d9190613721565b6040516020818303038152906040528051906020012014905092915050565b6006546001600160a01b03163314611bd95760405162461bcd60e51b815260206004820181905260248201527f4f776e61626c653a2063616c6c6572206973206e6f7420746865206f776e6572604482015260640161064d565b612111828260405180602001604052806000815250612c25565b60006129db82611587565b90506129e682611587565b600083815260046020908152604080832080546001600160a01b03199081169091556001600160a01b0385168085526003845282852080546000190190558785526002909352818420805490911690555192935084927fddf252ad1be2c89b69c2b068fc378daa952ba7f163c4a11628f55a4df523b3ef908390a45050565b600680546001600160a01b038381166001600160a01b0319831681179093556040519116919082907f8be0079c531659141344cd1fd0a4f28419497f9722a3daafe3b4186f6b6457e090600090a35050565b816001600160a01b0316836001600160a01b031603612b185760405162461bcd60e51b815260206004820152601960248201527f4552433732313a20617070726f766520746f2063616c6c657200000000000000604482015260640161064d565b6001600160a01b03838116600081815260056020908152604080832094871680845294825291829020805460ff191686151590811790915591519182527f17307eab39ab6107e8899845ad3d59bd9653f200f220920489ca2b5937696c31910160405180910390a3505050565b60606000612b9283612cae565b600101905060008167ffffffffffffffff811115612bb257612bb26132a4565b6040519080825280601f01601f191660200182016040528015612bdc576020820181803683370190505b5090508181016020015b600019017f3031323334353637383961626364656600000000000000000000000000000000600a86061a8153600a8504945084612be657509392505050565b612c2f8383612d90565b612c3c6000848484612f1b565b61070c5760405162461bcd60e51b815260206004820152603260248201527f4552433732313a207472616e7366657220746f206e6f6e20455243373231526560448201527f63656976657220696d706c656d656e7465720000000000000000000000000000606482015260840161064d565b6000807a184f03e93ff9f4daa797ed6e38ed64bf6a1f0100000000000000008310612cf7577a184f03e93ff9f4daa797ed6e38ed64bf6a1f010000000000000000830492506040015b6d04ee2d6d415b85acef81000000008310612d23576d04ee2d6d415b85acef8100000000830492506020015b662386f26fc100008310612d4157662386f26fc10000830492506010015b6305f5e1008310612d59576305f5e100830492506008015b6127108310612d6d57612710830492506004015b60648310612d7f576064830492506002015b600a83106104fe5760010192915050565b6001600160a01b038216612de65760405162461bcd60e51b815260206004820181905260248201527f4552433732313a206d696e7420746f20746865207a65726f2061646472657373604482015260640161064d565b6000818152600260205260409020546001600160a01b031615612e4b5760405162461bcd60e51b815260206004820152601c60248201527f4552433732313a20746f6b656e20616c7265616479206d696e74656400000000604482015260640161064d565b6000818152600260205260409020546001600160a01b031615612eb05760405162461bcd60e51b815260206004820152601c60248201527f4552433732313a20746f6b656e20616c7265616479206d696e74656400000000604482015260640161064d565b6001600160a01b038216600081815260036020908152604080832080546001019055848352600290915280822080546001600160a01b0319168417905551839291907fddf252ad1be2c89b69c2b068fc378daa952ba7f163c4a11628f55a4df523b3ef908290a45050565b60006001600160a01b0384163b1561306757604051630a85bd0160e11b81526001600160a01b0385169063150b7a0290612f5f903390899088908890600401613a89565b6020604051808303816000875af1925050508015612f9a575060408051601f3d908101601f19168201909252612f9791810190613abb565b60015b61304d573d808015612fc8576040519150601f19603f3d011682016040523d82523d6000602084013e612fcd565b606091505b5080516000036130455760405162461bcd60e51b815260206004820152603260248201527f4552433732313a207472616e7366657220746f206e6f6e20455243373231526560448201527f63656976657220696d706c656d656e7465720000000000000000000000000000606482015260840161064d565b805181602001fd5b6001600160e01b031916630a85bd0160e11b14905061306b565b5060015b949350505050565b50805461307f906136e7565b6000825580601f1061308f575050565b601f01602090049060005260206000209081019061256791905b808211156130bd57600081556001016130a9565b5090565b6001600160e01b03198116811461256757600080fd5b6000602082840312156130e957600080fd5b81356124a8816130c1565b80356001600160a01b038116811461310b57600080fd5b919050565b60006020828403121561312257600080fd5b6124a8826130f4565b60005b8381101561314657818101518382015260200161312e565b50506000910152565b6000815180845261316781602086016020860161312b565b601f01601f19169290920160200192915050565b6020815260006124a8602083018461314f565b6000602082840312156131a057600080fd5b5035919050565b600080604083850312156131ba57600080fd5b6131c3836130f4565b946020939093013593505050565b6020815281516020820152600060208301516101008060408501526131fa61012085018361314f565b91506040850151613210606086018260ff169052565b506060850151601f198086850301608087015261322d848361314f565b935060808701519150808685030160a087015261324a848361314f565b935060a08701519150808685030160c0870152613267848361314f565b935060c08701519150808685030160e087015250613285838261314f565b92505060e085015161329a8286018215159052565b5090949350505050565b634e487b7160e01b600052604160045260246000fd5b600067ffffffffffffffff808411156132d5576132d56132a4565b604051601f8501601f19908116603f011681019082821181831017156132fd576132fd6132a4565b8160405280935085815286868601111561331657600080fd5b858560208301376000602087830101525050509392505050565b600082601f83011261334157600080fd5b6124a8838335602085016132ba565b803560ff8116811461310b57600080fd5b60008060008060008060c0878903121561337a57600080fd5b863567ffffffffffffffff8082111561339257600080fd5b61339e8a838b01613330565b97506133ac60208a01613350565b965060408901359150808211156133c257600080fd5b6133ce8a838b01613330565b955060608901359150808211156133e457600080fd5b6133f08a838b01613330565b9450608089013591508082111561340657600080fd5b6134128a838b01613330565b935060a089013591508082111561342857600080fd5b5061343589828a01613330565b9150509295509295509295565b60008060006060848603121561345757600080fd5b613460846130f4565b925061346e602085016130f4565b9150604084013590509250925092565b600080600080600060a0868803121561349657600080fd5b853567ffffffffffffffff808211156134ae57600080fd5b6134ba89838a01613330565b96506134c860208901613350565b955060408801359150808211156134de57600080fd5b6134ea89838a01613330565b9450606088013591508082111561350057600080fd5b61350c89838a01613330565b9350608088013591508082111561352257600080fd5b5061352f88828901613330565b9150509295509295909350565b6000806040838503121561354f57600080fd5b613558836130f4565b91506020830135801515811461356d57600080fd5b809150509250929050565b6000806000806080858703121561358e57600080fd5b613597856130f4565b93506135a5602086016130f4565b925060408501359150606085013567ffffffffffffffff8111156135c857600080fd5b8501601f810187136135d957600080fd5b6135e8878235602084016132ba565b91505092959194509250565b60006101008a835280602084015261360e8184018b61314f565b905060ff89166040840152828103606084015261362b818961314f565b9050828103608084015261363f818861314f565b905082810360a0840152613653818761314f565b905082810360c0840152613667818661314f565b91505082151560e08301529998505050505050505050565b60006020828403121561369157600080fd5b813567ffffffffffffffff8111156136a857600080fd5b61306b84828501613330565b600080604083850312156136c757600080fd5b6136d0836130f4565b91506136de602084016130f4565b90509250929050565b600181811c908216806136fb57607f821691505b60208210810361371b57634e487b7160e01b600052602260045260246000fd5b50919050565b6000825161373381846020870161312b565b9190910192915050565b600080835461374b816136e7565b600182811680156137635760018114613778576137a7565b60ff19841687528215158302870194506137a7565b8760005260208060002060005b8581101561379e5781548a820152908401908201613785565b50505082870194505b50929695505050505050565b601f82111561070c57600081815260208120601f850160051c810160208610156137da5750805b601f850160051c820191505b818110156137f9578281556001016137e6565b505050505050565b815167ffffffffffffffff81111561381b5761381b6132a4565b61382f8161382984546136e7565b846137b3565b602080601f831160018114613864576000841561384c5750858301515b600019600386901b1c1916600185901b1785556137f9565b600085815260208120601f198616915b8281101561389357888601518255948401946001909101908401613874565b50858210156138b15787850151600019600388901b60f8161c191681555b5050505050600190811b01905550565b60c0815260006138d460c083018961314f565b602060ff89168185015283820360408501526138f0828961314f565b91508382036060850152613904828861314f565b91508382036080850152613918828761314f565b915083820360a08501526000855461392f816136e7565b8085526001828116801561394a576001811461396457613992565b60ff1984168787015282151560051b870186019450613992565b896000528560002060005b8481101561398a57815489820189015290830190870161396f565b880187019550505b50929d9c50505050505050505050505050565b634e487b7160e01b600052601160045260246000fd5b6000600182016139cd576139cd6139a5565b5060010190565b82815260406020820152600061306b604083018461314f565b604081526000613a00604083018561314f565b90506001600160a01b03831660208301529392505050565b60008351613a2a81846020880161312b565b835190830190613a3e81836020880161312b565b01949350505050565b634e487b7160e01b600052603260045260246000fd5b818103818111156104fe576104fe6139a5565b60ff81811683821601908111156104fe576104fe6139a5565b60006001600160a01b03808716835280861660208401525083604083015260806060830152612763608083018461314f565b600060208284031215613acd57600080fd5b81516124a8816130c156fea26469706673582212200c531ba69c1d7a0dc88eccb6061077a765fc846f4d10387a40c6e5963aaaf24b64736f6c63430008140033",
  "linkReferences": {},
  "deployedLinkReferences": {}
}