{
  "_format": "hh-sol-artifact-1",
  "contractName": "ProfileNFT",
  "sourceName": "contracts/ProfileNFT.sol",
  "abi": [
    {
      "inputs": [],
      "stateMutability": "nonpayable",
      "type": "constructor"
    },
    {
      "anonymous": false,
      "inputs": [
        {
          "indexed": true,
          "internalType": "address",
          "name": "owner",
          "type": "address"
        },
        {
          "indexed": true,
          "internalType": "address",
          "name": "approved",
          "type": "address"
        },
        {
          "indexed": true,
          "internalType": "uint256",
          "name": "tokenId",
          "type": "uint256"
        }
      ],
      "name": "Approval",
      "type": "event"
    },
    {
      "anonymous": false,
      "inputs": [
        {
          "indexed": true,
          "internalType": "address",
          "name": "owner",
          "type": "address"
        },
        {
          "indexed": true,
          "internalType": "address",
          "name": "operator",
          "type": "address"
        },
        {
          "indexed": false,
          "internalType": "bool",
          "name": "approved",
          "type": "bool"
        }
      ],
      "name": "ApprovalForAll",
      "type": "event"
    },
    {
      "anonymous": false,
      "inputs": [
        {
          "indexed": false,
          "internalType": "string",
          "name": "email",
          "type": "string"
        },
        {
          "indexed": false,
          "internalType": "address",
          "name": "user",
          "type": "address"
        }
      ],
      "name": "EmailRegistered",
      "type": "event"
    },
    {
      "anonymous": false,
      "inputs": [
        {
          "indexed": true,
          "internalType": "address",
          "name": "previousOwner",
          "type": "address"
        },
        {
          "indexed": true,
          "internalType": "address",
          "name": "newOwner",
          "type": "address"
        }
      ],
      "name": "OwnershipTransferred",
      "type": "event"
    },
    {
      "anonymous": false,
      "inputs": [
        {
          "indexed": true,
          "internalType": "address",
          "name": "user",
          "type": "address"
        },
        {
          "indexed": false,
          "internalType": "uint256",
          "name": "tokenId",
          "type": "uint256"
        },
        {
          "indexed": false,
          "internalType": "string",
          "name": "name",
          "type": "string"
        }
      ],
      "name": "ProfileCreated",
      "type": "event"
    },
    {
      "anonymous": false,
      "inputs": [
        {
          "indexed": true,
          "internalType": "address",
          "name": "user",
          "type": "address"
        },
        {
          "indexed": false,
          "internalType": "uint256",
          "name": "tokenId",
          "type": "uint256"
        }
      ],
      "name": "ProfileDeleted",
      "type": "event"
    },
    {
      "anonymous": false,
      "inputs": [
        {
          "indexed": true,
          "internalType": "address",
          "name": "user",
          "type": "address"
        },
        {
          "indexed": false,
          "internalType": "string",
          "name": "name",
          "type": "string"
        },
        {
          "indexed": false,
          "internalType": "uint8",
          "name": "age",
          "type": "uint8"
        },
        {
          "indexed": false,
          "internalType": "string",
          "name": "gender",
          "type": "string"
        },
        {
          "indexed": false,
          "internalType": "string",
          "name": "interests",
          "type": "string"
        },
        {
          "indexed": false,
          "internalType": "string",
          "name": "photoUrl",
          "type": "string"
        },
        {
          "indexed": false,
          "internalType": "string",
          "name": "email",
          "type": "string"
        }
      ],
      "name": "ProfileUpdated",
      "type": "event"
    },
    {
      "anonymous": false,
      "inputs": [
        {
          "indexed": true,
          "internalType": "address",
          "name": "from",
          "type": "address"
        },
        {
          "indexed": true,
          "internalType": "address",
          "name": "to",
          "type": "address"
        },
        {
          "indexed": true,
          "internalType": "uint256",
          "name": "tokenId",
          "type": "uint256"
        }
      ],
      "name": "Transfer",
      "type": "event"
    },
    {
      "inputs": [
        {
          "internalType": "address",
          "name": "",
          "type": "address"
        }
      ],
      "name": "addressToTokenId",
      "outputs": [
        {
          "internalType": "uint256",
          "name": "",
          "type": "uint256"
        }
      ],
      "stateMutability": "view",
      "type": "function"
    },
    {
      "inputs": [
        {
          "internalType": "address",
          "name": "to",
          "type": "address"
        },
        {
          "internalType": "uint256",
          "name": "tokenId",
          "type": "uint256"
        }
      ],
      "name": "approve",
      "outputs": [],
      "stateMutability": "nonpayable",
      "type": "function"
    },
    {
      "inputs": [
        {
          "internalType": "address",
          "name": "owner",
          "type": "address"
        }
      ],
      "name": "balanceOf",
      "outputs": [
        {
          "internalType": "uint256",
          "name": "",
          "type": "uint256"
        }
      ],
      "stateMutability": "view",
      "type": "function"
    },
    {
      "inputs": [
        {
          "internalType": "string",
          "name": "name",
          "type": "string"
        },
        {
          "internalType": "uint8",
          "name": "age",
          "type": "uint8"
        },
        {
          "internalType": "string",
          "name": "gender",
          "type": "string"
        },
        {
          "internalType": "string",
          "name": "interests",
          "type": "string"
        },
        {
          "internalType": "string",
          "name": "photoUrl",
          "type": "string"
        }
      ],
      "name": "createProfile",
      "outputs": [],
      "stateMutability": "nonpayable",
      "type": "function"
    },
    {
      "inputs": [],
      "name": "deleteProfile",
      "outputs": [],
      "stateMutability": "nonpayable",
      "type": "function"
    },
    {
      "inputs": [
        {
          "internalType": "string",
          "name": "email",
          "type": "string"
        }
      ],
      "name": "getAddressByEmail",
      "outputs": [
        {
          "internalType": "address",
          "name": "",
          "type": "address"
        }
      ],
      "stateMutability": "view",
      "type": "function"
    },
    {
      "inputs": [
        {
          "internalType": "uint256",
          "name": "tokenId",
          "type": "uint256"
        }
      ],
      "name": "getApproved",
      "outputs": [
        {
          "internalType": "address",
          "name": "",
          "type": "address"
        }
      ],
      "stateMutability": "view",
      "type": "function"
    },
    {
      "inputs": [
        {
          "internalType": "address",
          "name": "user",
          "type": "address"
        }
      ],
      "name": "getProfile",
      "outputs": [
        {
          "components": [
            {
              "internalType": "uint256",
              "name": "tokenId",
              "type": "uint256"
            },
            {
              "internalType": "string",
              "name": "name",
              "type": "string"
            },
            {
              "internalType": "uint8",
              "name": "age",
              "type": "uint8"
            },
            {
              "internalType": "string",
              "name": "gender",
              "type": "string"
            },
            {
              "internalType": "string",
              "name": "interests",
              "type": "string"
            },
            {
              "internalType": "string",
              "name": "photoUrl",
              "type": "string"
            },
            {
              "internalType": "string",
              "name": "email",
              "type": "string"
            },
            {
              "internalType": "bool",
              "name": "exists",
              "type": "bool"
            }
          ],
          "internalType": "struct ProfileNFT.Profile",
          "name": "",
          "type": "tuple"
        }
      ],
      "stateMutability": "view",
      "type": "function"
    },
    {
      "inputs": [
        {
          "internalType": "uint256",
          "name": "tokenId",
          "type": "uint256"
        }
      ],
      "name": "getProfileByTokenId",
      "outputs": [
        {
          "components": [
            {
              "internalType": "uint256",
              "name": "tokenId",
              "type": "uint256"
            },
            {
              "internalType": "string",
              "name": "name",
              "type": "string"
            },
            {
              "internalType": "uint8",
              "name": "age",
              "type": "uint8"
            },
            {
              "internalType": "string",
              "name": "gender",
              "type": "string"
            },
            {
              "internalType": "string",
              "name": "interests",
              "type": "string"
            },
            {
              "internalType": "string",
              "name": "photoUrl",
              "type": "string"
            },
            {
              "internalType": "string",
              "name": "email",
              "type": "string"
            },
            {
              "internalType": "bool",
              "name": "exists",
              "type": "bool"
            }
          ],
          "internalType": "struct ProfileNFT.Profile",
          "name": "",
          "type": "tuple"
        }
      ],
      "stateMutability": "view",
      "type": "function"
    },
    {
      "inputs": [
        {
          "internalType": "address",
          "name": "owner",
          "type": "address"
        },
        {
          "internalType": "address",
          "name": "operator",
          "type": "address"
        }
      ],
      "name": "isApprovedForAll",
      "outputs": [
        {
          "internalType": "bool",
          "name": "",
          "type": "bool"
        }
      ],
      "stateMutability": "view",
      "type": "function"
    },
    {
      "inputs": [
        {
          "internalType": "string",
          "name": "email",
          "type": "string"
        }
      ],
      "name": "isEmailRegistered",
      "outputs": [
        {
          "internalType": "bool",
          "name": "",
          "type": "bool"
        }
      ],
      "stateMutability": "view",
      "type": "function"
    },
    {
      "inputs": [],
      "name": "matchingContract",
      "outputs": [
        {
          "internalType": "address",
          "name": "",
          "type": "address"
        }
      ],
      "stateMutability": "view",
      "type": "function"
    },
    {
      "inputs": [],
      "name": "name",
      "outputs": [
        {
          "internalType": "string",
          "name": "",
          "type": "string"
        }
      ],
      "stateMutability": "view",
      "type": "function"
    },
    {
      "inputs": [],
      "name": "owner",
      "outputs": [
        {
          "internalType": "address",
          "name": "",
          "type": "address"
        }
      ],
      "stateMutability": "view",
      "type": "function"
    },
    {
      "inputs": [
        {
          "internalType": "uint256",
          "name": "tokenId",
          "type": "uint256"
        }
      ],
      "name": "ownerOf",
      "outputs": [
        {
          "internalType": "address",
          "name": "",
          "type": "address"
        }
      ],
      "stateMutability": "view",
      "type": "function"
    },
    {
      "inputs": [
        {
          "internalType": "address",
          "name": "user",
          "type": "address"
        }
      ],
      "name": "profileExists",
      "outputs": [
        {
          "internalType": "bool",
          "name": "",
          "type": "bool"
        }
      ],
      "stateMutability": "view",
      "type": "function"
    },
    {
      "inputs": [
        {
          "internalType": "address",
          "name": "",
          "type": "address"
        }
      ],
      "name": "profiles",
      "outputs": [
        {
          "internalType": "uint256",
          "name": "tokenId",
          "type": "uint256"
        },
        {
          "internalType": "string",
          "name": "name",
          "type": "string"
        },
        {
          "internalType": "uint8",
          "name": "age",
          "type": "uint8"
        },
        {
          "internalType": "string",
          "name": "gender",
          "type": "string"
        },
        {
          "internalType": "string",
          "name": "interests",
          "type": "string"
        },
        {
          "internalType": "string",
          "name": "photoUrl",
          "type": "string"
        },
        {
          "internalType": "string",
          "name": "email",
          "type": "string"
        },
        {
          "internalType": "bool",
          "name": "exists",
          "type": "bool"
        }
      ],
      "stateMutability": "view",
      "type": "function"
    },
    {
      "inputs": [
        {
          "internalType": "string",
          "name": "name",
          "type": "string"
        },
        {
          "internalType": "uint8",
          "name": "age",
          "type": "uint8"
        },
        {
          "internalType": "string",
          "name": "gender",
          "type": "string"
        },
        {
          "internalType": "string",
          "name": "interests",
          "type": "string"
        },
        {
          "internalType": "string",
          "name": "email",
          "type": "string"
        }
      ],
      "name": "registerWithEmail",
      "outputs": [],
      "stateMutability": "nonpayable",
      "type": "function"
    },
    {
      "inputs": [],
      "name": "renounceOwnership",
      "outputs": [],
      "stateMutability": "nonpayable",
      "type": "function"
    },
    {
      "inputs": [
        {
          "internalType": "address",
          "name": "from",
          "type": "address"
        },
        {
          "internalType": "address",
          "name": "to",
          "type": "address"
        },
        {
          "internalType": "uint256",
          "name": "tokenId",
          "type": "uint256"
        }
      ],
      "name": "safeTransferFrom",
      "outputs": [],
      "stateMutability": "nonpayable",
      "type": "function"
    },
    {
      "inputs": [
        {
          "internalType": "address",
          "name": "",
          "type": "address"
        },
        {
          "internalType": "address",
          "name": "",
          "type": "address"
        },
        {
          "internalType": "uint256",
          "name": "",
          "type": "uint256"
        },
        {
          "internalType": "bytes",
          "name": "",
          "type": "bytes"
        }
      ],
      "name": "safeTransferFrom",
      "outputs": [],
      "stateMutability": "pure",
      "type": "function"
    },
    {
      "inputs": [
        {
          "internalType": "address",
          "name": "operator",
          "type": "address"
        },
        {
          "internalType": "bool",
          "name": "approved",
          "type": "bool"
        }
      ],
      "name": "setApprovalForAll",
      "outputs": [],
      "stateMutability": "nonpayable",
      "type": "function"
    },
    {
      "inputs": [
        {
          "internalType": "address",
          "name": "_matchingContract",
          "type": "address"
        }
      ],
      "name": "setMatchingContract",
      "outputs": [],
      "stateMutability": "nonpayable",
      "type": "function"
    },
    {
      "inputs": [
        {
          "internalType": "bytes4",
          "name": "interfaceId",
          "type": "bytes4"
        }
      ],
      "name": "supportsInterface",
      "outputs": [
        {
          "internalType": "bool",
          "name": "",
          "type": "bool"
        }
      ],
      "stateMutability": "view",
      "type": "function"
    },
    {
      "inputs": [],
      "name": "symbol",
      "outputs": [
        {
          "internalType": "string",
          "name": "",
          "type": "string"
        }
      ],
      "stateMutability": "view",
      "type": "function"
    },
    {
      "inputs": [
        {
          "internalType": "uint256",
          "name": "",
          "type": "uint256"
        }
      ],
      "name": "tokenIdToAddress",
      "outputs": [
        {
          "internalType": "address",
          "name": "",
          "type": "address"
        }
      ],
      "stateMutability": "view",
      "type": "function"
    },
    {
      "inputs": [
        {
          "internalType": "uint256",
          "name": "tokenId",
          "type": "uint256"
        }
      ],
      "name": "tokenURI",
      "outputs": [
        {
          "internalType": "string",
          "name": "",
          "type": "string"
        }
      ],
      "stateMutability": "view",
      "type": "function"
    },
    {
      "inputs": [
        {
          "internalType": "address",
          "name": "",
          "type": "address"
        },
        {
          "internalType": "address",
          "name": "",
          "type": "address"
        },
        {
          "internalType": "uint256",
          "name": "",
          "type": "uint256"
        }
      ],
      "name": "transferFrom",
      "outputs": [],
      "stateMutability": "pure",
      "type": "function"
    },
    {
      "inputs": [
        {
          "internalType": "address",
          "name": "newOwner",
          "type": "address"
        }
      ],
      "name": "transferOwnership",
      "outputs": [],
      "stateMutability": "nonpayable",
      "type": "function"
    },
    {
      "inputs": [
        {
          "internalType": "string",
          "name": "name",
          "type": "string"
        },
        {
          "internalType": "uint8",
          "name": "age",
          "type": "uint8"
        },
        {
          "internalType": "string",
          "name": "gender",
          "type": "string"
        },
        {
          "internalType": "string",
          "name": "interests",
          "type": "string"
        },
        {
          "internalType": "string",
          "name": "photoUrl",
          "type": "string"
        },
        {
          "internalType": "string",
          "name": "email",
          "type": "string"
        }
      ],
      "name": "updateProfile",
      "outputs": [],
      "stateMutability": "nonpayable",
      "type": "function"
    }
  ],
  "bytecode": "0x60806040523480156200001157600080fd5b5060405180604001604052806011815260200170426173654d617463682050726f66696c6560781b81525060405180604001604052806005815260200164424d50524f60d81b81525081600090816200006b919062000198565b5060016200007a828262000198565b50505062000097620000916200009d60201b60201c565b620000a1565b62000264565b3390565b600680546001600160a01b038381166001600160a01b0319831681179093556040519116919082907f8be0079c531659141344cd1fd0a4f28419497f9722a3daafe3b4186f6b6457e090600090a35050565b634e487b7160e01b600052604160045260246000fd5b600181811c908216806200011e57607f821691505b6020821081036200013f57634e487b7160e01b600052602260045260246000fd5b50919050565b601f8211156200019357600081815260208120601f850160051c810160208610156200016e5750805b601f850160051c820191505b818110156200018f578281556001016200017a565b5050505b505050565b81516001600160401b03811115620001b457620001b4620000f3565b620001cc81620001c5845462000109565b8462000145565b602080601f831160018114620002045760008415620001eb5750858301515b600019600386901b1c1916600185901b1785556200018f565b600085815260208120601f198616915b82811015620002355788860151825594840194600190910190840162000214565b5085821015620002545787850151600019600388901b60f8161c191681555b5050505050600190811b01905550565b613fa480620002746000396000f3fe608060405234801561001057600080fd5b50600436106101da5760003560e01c80636d4540eb11610104578063a22cb465116100a2578063c87b56dd11610071578063c87b56dd14610444578063df3cdad714610457578063e985e9c51461046a578063f2fde38b146104a657600080fd5b8063a22cb465146103e9578063b88d4fde146103fc578063bbe156271461040a578063c5caea011461043157600080fd5b80637b09a6e3116100de5780637b09a6e3146103aa5780638da5cb5b146103bd57806395d89b41146103ce5780639e385dfb146103d657600080fd5b80636d4540eb1461038757806370a082311461038f578063715018a6146103a257600080fd5b806310ea22711161017c5780634ab491b61161014b5780634ab491b61461032057806353964b19146103335780636352211e146103465780636511bf2e1461035957600080fd5b806310ea2271146102d45780632182d9d7146102e757806323b872dd146102fa57806342842e0e1461030d57600080fd5b8063081812fc116101b8578063081812fc1461024b57806308bb76a514610276578063095ea7b31461029f5780630f53a470146102b457600080fd5b806301ffc9a7146101df57806305cfa06f1461020757806306fdde0314610236575b600080fd5b6101f26101ed36600461356d565b6104b9565b60405190151581526020015b60405180910390f35b6101f26102153660046135a6565b6001600160a01b031660009081526008602052604090206007015460ff1690565b61023e610556565b6040516101fe9190613611565b61025e610259366004613624565b6105e8565b6040516001600160a01b0390911681526020016101fe565b61025e610284366004613624565b600a602052600090815260409020546001600160a01b031681565b6102b26102ad36600461363d565b61060f565b005b6102c76102c23660046135a6565b610763565b6040516101fe9190613667565b6102b26102e23660046137f7565b610ae0565b6102b26102f53660046135a6565b611099565b6102b26103083660046138d8565b611172565b6102b261031b3660046138d8565b6111ba565b6102b261032e366004613914565b6111d5565b600d5461025e906001600160a01b031681565b61025e610354366004613624565b6115f6565b6103796103673660046135a6565b60096020526000908152604090205481565b6040519081526020016101fe565b6102b261165b565b61037961039d3660046135a6565b611bc3565b6102b2611c5d565b6102c76103b8366004613624565b611c71565b6006546001600160a01b031661025e565b61023e612054565b6102b26103e4366004613914565b612063565b6102b26103f73660046139d2565b61259c565b6102b2610308366004613a0e565b61041d6104183660046135a6565b6125ab565b6040516101fe989796959493929190613a8a565b61025e61043f366004613b15565b6128a0565b61023e610452366004613624565b6128d1565b6101f2610465366004613b15565b612945565b6101f2610478366004613b4a565b6001600160a01b03918216600090815260056020908152604080832093909416825291909152205460ff1690565b6102b26104b43660046135a6565b612970565b60006001600160e01b031982167f80ac58cd00000000000000000000000000000000000000000000000000000000148061051c57506001600160e01b031982167f5b5e139f00000000000000000000000000000000000000000000000000000000145b8061055057507f01ffc9a7000000000000000000000000000000000000000000000000000000006001600160e01b03198316145b92915050565b60606000805461056590613b7d565b80601f016020809104026020016040519081016040528092919081815260200182805461059190613b7d565b80156105de5780601f106105b3576101008083540402835291602001916105de565b820191906000526020600020905b8154815290600101906020018083116105c157829003601f168201915b5050505050905090565b60006105f382612a00565b506000908152600460205260409020546001600160a01b031690565b600061061a826115f6565b9050806001600160a01b0316836001600160a01b0316036106a85760405162461bcd60e51b815260206004820152602160248201527f4552433732313a20617070726f76616c20746f2063757272656e74206f776e6560448201527f720000000000000000000000000000000000000000000000000000000000000060648201526084015b60405180910390fd5b336001600160a01b03821614806106e257506001600160a01b038116600090815260056020908152604080832033845290915290205460ff165b6107545760405162461bcd60e51b815260206004820152603d60248201527f4552433732313a20617070726f76652063616c6c6572206973206e6f7420746f60448201527f6b656e206f776e6572206f7220617070726f76656420666f7220616c6c000000606482015260840161069f565b61075e8383612a64565b505050565b6107b06040518061010001604052806000815260200160608152602001600060ff168152602001606081526020016060815260200160608152602001606081526020016000151581525090565b6001600160a01b038216600090815260086020908152604091829020825161010081019093528054835260018101805491928401916107ee90613b7d565b80601f016020809104026020016040519081016040528092919081815260200182805461081a90613b7d565b80156108675780601f1061083c57610100808354040283529160200191610867565b820191906000526020600020905b81548152906001019060200180831161084a57829003601f168201915b5050509183525050600282015460ff16602082015260038201805460409092019161089190613b7d565b80601f01602080910402602001604051908101604052809291908181526020018280546108bd90613b7d565b801561090a5780601f106108df5761010080835404028352916020019161090a565b820191906000526020600020905b8154815290600101906020018083116108ed57829003601f168201915b5050505050815260200160048201805461092390613b7d565b80601f016020809104026020016040519081016040528092919081815260200182805461094f90613b7d565b801561099c5780601f106109715761010080835404028352916020019161099c565b820191906000526020600020905b81548152906001019060200180831161097f57829003601f168201915b505050505081526020016005820180546109b590613b7d565b80601f01602080910402602001604051908101604052809291908181526020018280546109e190613b7d565b8015610a2e5780601f10610a0357610100808354040283529160200191610a2e565b820191906000526020600020905b815481529060010190602001808311610a1157829003601f168201915b50505050508152602001600682018054610a4790613b7d565b80601f0160208091040260200160405190810160405280929190818152602001828054610a7390613b7d565b8015610ac05780601f10610a9557610100808354040283529160200191610ac0565b820191906000526020600020905b815481529060010190602001808311610aa357829003601f168201915b50505091835250506007919091015460ff16151560209091015292915050565b3360009081526008602052604090206007015460ff16610b425760405162461bcd60e51b815260206004820152601660248201527f50726f66696c6520646f6573206e6f7420657869737400000000000000000000604482015260640161069f565b60128560ff161015610b965760405162461bcd60e51b815260206004820152601360248201527f4d757374206265203138206f72206f6c64657200000000000000000000000000604482015260640161069f565b60788560ff161115610bea5760405162461bcd60e51b815260206004820152601560248201527f416765206d757374206265207265616c69737469630000000000000000000000604482015260640161069f565b6002865110158015610bfe57506064865111155b610c4a5760405162461bcd60e51b815260206004820152601d60248201527f4e616d65206d75737420626520322d3130302063686172616374657273000000604482015260640161069f565b60008351118015610c5e57506101f4835111155b610cb55760405162461bcd60e51b815260206004820152602260248201527f496e74657265737473206d75737420626520312d353030206368617261637465604482015261727360f01b606482015260840161069f565b6101f482511115610d085760405162461bcd60e51b815260206004820152601260248201527f50686f746f2055524c20746f6f206c6f6e670000000000000000000000000000604482015260640161069f565b60008451118015610d1b57506032845111155b610d675760405162461bcd60e51b815260206004820152601460248201527f47656e646572206d7573742062652076616c6964000000000000000000000000604482015260640161069f565b805115610fe657610d7781612ad2565b610dc35760405162461bcd60e51b815260206004820152601460248201527f496e76616c696420656d61696c20666f726d6174000000000000000000000000604482015260640161069f565b6000610dce82612c03565b3360009081526008602052604090206006018054919250610e7691610df290613b7d565b80601f0160208091040260200160405190810160405280929190818152602001828054610e1e90613b7d565b8015610e6b5780601f10610e4057610100808354040283529160200191610e6b565b820191906000526020600020905b815481529060010190602001808311610e4e57829003601f168201915b505050505082612d99565b610fc757600b81604051610e8a9190613bb7565b9081526040519081900360200190205460ff1615610eea5760405162461bcd60e51b815260206004820152601860248201527f456d61696c20616c726561647920726567697374657265640000000000000000604482015260640161069f565b3360009081526008602052604081206006018054610f0790613b7d565b90501115610f5457336000908152600860205260408082209051600b91610f3391600690910190613bd3565b908152604051908190036020019020805491151560ff199092169190911790555b6001600b82604051610f669190613bb7565b908152604051908190036020018120805492151560ff19909316929092179091553390600c90610f97908490613bb7565b90815260405190819003602001902080546001600160a01b03929092166001600160a01b03199092169190911790555b336000908152600860205260409020600601610fe38282613c97565b50505b336000908152600860205260409020600181016110038882613c97565b5060028101805460ff191660ff8816179055600381016110238682613c97565b50600481016110328582613c97565b50600581016110418482613c97565b50336001600160a01b03167fff05e84fce958ef60921c414197d065753ed947b0d3460ddef8244c534c916da88888888888760060160405161108896959493929190613d57565b60405180910390a250505050505050565b6110a1612df2565b600d546001600160a01b0316156110fa5760405162461bcd60e51b815260206004820152601d60248201527f4d61746368696e6720636f6e747261637420616c726561647920736574000000604482015260640161069f565b6001600160a01b0381166111505760405162461bcd60e51b815260206004820152600f60248201527f496e76616c696420616464726573730000000000000000000000000000000000604482015260640161069f565b600d80546001600160a01b0319166001600160a01b0392909216919091179055565b60405162461bcd60e51b815260206004820152601f60248201527f536f756c626f756e643a205472616e73666572206e6f7420616c6c6f77656400604482015260640161069f565b61075e83838360405180602001604052806000815250611172565b3360009081526008602052604090206007015460ff16156112385760405162461bcd60e51b815260206004820152601660248201527f50726f66696c6520616c72656164792065786973747300000000000000000000604482015260640161069f565b60128460ff16101561128c5760405162461bcd60e51b815260206004820152601360248201527f4d757374206265203138206f72206f6c64657200000000000000000000000000604482015260640161069f565b60788460ff1611156112e05760405162461bcd60e51b815260206004820152601560248201527f416765206d757374206265207265616c69737469630000000000000000000000604482015260640161069f565b60028551101580156112f457506064855111155b6113405760405162461bcd60e51b815260206004820152601d60248201527f4e616d65206d75737420626520322d3130302063686172616374657273000000604482015260640161069f565b6000825111801561135457506101f4825111155b6113ab5760405162461bcd60e51b815260206004820152602260248201527f496e74657265737473206d75737420626520312d353030206368617261637465604482015261727360f01b606482015260840161069f565b6101f4815111156113fe5760405162461bcd60e51b815260206004820152601260248201527f50686f746f2055524c20746f6f206c6f6e670000000000000000000000000000604482015260640161069f565b6000835111801561141157506032835111155b61145d5760405162461bcd60e51b815260206004820152601460248201527f47656e646572206d7573742062652076616c6964000000000000000000000000604482015260640161069f565b6007805490600061146d83613e51565b90915550506007546040805161010081018252828152602080820189815260ff891683850152606083018890526080830187905260a0830186905283518083018552600080825260c0850191909152600160e08501819052338252600890935293909320825181559251919291908201906114e89082613c97565b50604082015160028201805460ff191660ff909216919091179055606082015160038201906115179082613c97565b506080820151600482019061152c9082613c97565b5060a082015160058201906115419082613c97565b5060c082015160068201906115569082613c97565b5060e091909101516007909101805460ff1916911515919091179055336000818152600960209081526040808320859055848352600a909152902080546001600160a01b031916821790556115ab9082612e4c565b336001600160a01b03167f02ed4ee0412e67bbc9ed1687f3ad6bb7134d359d45994f3bf5302e91d81cf61f82886040516115e6929190613e6a565b60405180910390a2505050505050565b6000818152600260205260408120546001600160a01b0316806105505760405162461bcd60e51b815260206004820152601860248201527f4552433732313a20696e76616c696420746f6b656e2049440000000000000000604482015260640161069f565b3360009081526008602052604090206007015460ff166116bd5760405162461bcd60e51b815260206004820152601660248201527f50726f66696c6520646f6573206e6f7420657869737400000000000000000000604482015260640161069f565b336000908152600860209081526040808320815161010081019092528054825260018101805492939192918401916116f490613b7d565b80601f016020809104026020016040519081016040528092919081815260200182805461172090613b7d565b801561176d5780601f106117425761010080835404028352916020019161176d565b820191906000526020600020905b81548152906001019060200180831161175057829003601f168201915b5050509183525050600282015460ff16602082015260038201805460409092019161179790613b7d565b80601f01602080910402602001604051908101604052809291908181526020018280546117c390613b7d565b80156118105780601f106117e557610100808354040283529160200191611810565b820191906000526020600020905b8154815290600101906020018083116117f357829003601f168201915b5050505050815260200160048201805461182990613b7d565b80601f016020809104026020016040519081016040528092919081815260200182805461185590613b7d565b80156118a25780601f10611877576101008083540402835291602001916118a2565b820191906000526020600020905b81548152906001019060200180831161188557829003601f168201915b505050505081526020016005820180546118bb90613b7d565b80601f01602080910402602001604051908101604052809291908181526020018280546118e790613b7d565b80156119345780601f1061190957610100808354040283529160200191611934565b820191906000526020600020905b81548152906001019060200180831161191757829003601f168201915b5050505050815260200160068201805461194d90613b7d565b80601f016020809104026020016040519081016040528092919081815260200182805461197990613b7d565b80156119c65780601f1061199b576101008083540402835291602001916119c6565b820191906000526020600020905b8154815290600101906020018083116119a957829003601f168201915b50505091835250506007919091015460ff161515602090910152805160c0820151519192509015611a62576000611a008360c00151612c03565b90506000600b82604051611a149190613bb7565b908152604051908190036020018120805492151560ff1990931692909217909155600c90611a43908390613bb7565b90815260405190819003602001902080546001600160a01b0319169055505b600d546001600160a01b031615611ae457600d546040517ff569f82f0000000000000000000000000000000000000000000000000000000081523360048201526001600160a01b039091169063f569f82f90602401600060405180830381600087803b158015611ad157600080fd5b505af1925050508015611ae2575060015b505b33600090815260086020526040812081815590611b046001830182613509565b60028201805460ff19169055611b1e600383016000613509565b611b2c600483016000613509565b611b3a600583016000613509565b611b48600683016000613509565b50600701805460ff19169055336000908152600960209081526040808320839055838352600a909152902080546001600160a01b0319169055611b8a81612e66565b60405181815233907f236eb7515b00733d8ade7456155d53d63c2fa66bec6437ddff6ab3fc71e1e3249060200160405180910390a25050565b60006001600160a01b038216611c415760405162461bcd60e51b815260206004820152602960248201527f4552433732313a2061646472657373207a65726f206973206e6f74206120766160448201527f6c6964206f776e65720000000000000000000000000000000000000000000000606482015260840161069f565b506001600160a01b031660009081526003602052604090205490565b611c65612df2565b611c6f6000612efb565b565b611cbe6040518061010001604052806000815260200160608152602001600060ff168152602001606081526020016060815260200160608152602001606081526020016000151581525090565b6000828152600a60205260409020546001600160a01b031680611d235760405162461bcd60e51b815260206004820152601460248201527f546f6b656e20646f6573206e6f74206578697374000000000000000000000000604482015260640161069f565b6001600160a01b03811660009081526008602090815260409182902082516101008101909352805483526001810180549192840191611d6190613b7d565b80601f0160208091040260200160405190810160405280929190818152602001828054611d8d90613b7d565b8015611dda5780601f10611daf57610100808354040283529160200191611dda565b820191906000526020600020905b815481529060010190602001808311611dbd57829003601f168201915b5050509183525050600282015460ff166020820152600382018054604090920191611e0490613b7d565b80601f0160208091040260200160405190810160405280929190818152602001828054611e3090613b7d565b8015611e7d5780601f10611e5257610100808354040283529160200191611e7d565b820191906000526020600020905b815481529060010190602001808311611e6057829003601f168201915b50505050508152602001600482018054611e9690613b7d565b80601f0160208091040260200160405190810160405280929190818152602001828054611ec290613b7d565b8015611f0f5780601f10611ee457610100808354040283529160200191611f0f565b820191906000526020600020905b815481529060010190602001808311611ef257829003601f168201915b50505050508152602001600582018054611f2890613b7d565b80601f0160208091040260200160405190810160405280929190818152602001828054611f5490613b7d565b8015611fa15780601f10611f7657610100808354040283529160200191611fa1565b820191906000526020600020905b815481529060010190602001808311611f8457829003601f168201915b50505050508152602001600682018054611fba90613b7d565b80601f0160208091040260200160405190810160405280929190818152602001828054611fe690613b7d565b80156120335780601f1061200857610100808354040283529160200191612033565b820191906000526020600020905b81548152906001019060200180831161201657829003601f168201915b50505091835250506007919091015460ff1615156020909101529392505050565b60606001805461056590613b7d565b3360009081526008602052604090206007015460ff16156120c65760405162461bcd60e51b815260206004820152601660248201527f50726f66696c6520616c72656164792065786973747300000000000000000000604482015260640161069f565b60128460ff16101561211a5760405162461bcd60e51b815260206004820152601360248201527f4d757374206265203138206f72206f6c64657200000000000000000000000000604482015260640161069f565b60788460ff16111561216e5760405162461bcd60e51b815260206004820152601560248201527f416765206d757374206265207265616c69737469630000000000000000000000604482015260640161069f565b600285511015801561218257506064855111155b6121ce5760405162461bcd60e51b815260206004820152601d60248201527f4e616d65206d75737420626520322d3130302063686172616374657273000000604482015260640161069f565b600082511180156121e257506101f4825111155b6122395760405162461bcd60e51b815260206004820152602260248201527f496e74657265737473206d75737420626520312d353030206368617261637465604482015261727360f01b606482015260840161069f565b600081511161228a5760405162461bcd60e51b815260206004820152601560248201527f456d61696c2063616e6e6f7420626520656d7074790000000000000000000000604482015260640161069f565b61229381612ad2565b6122df5760405162461bcd60e51b815260206004820152601460248201527f496e76616c696420656d61696c20666f726d6174000000000000000000000000604482015260640161069f565b60006122ea82612c03565b9050600b816040516122fc9190613bb7565b9081526040519081900360200190205460ff161561235c5760405162461bcd60e51b815260206004820152601860248201527f456d61696c20616c726561647920726567697374657265640000000000000000604482015260640161069f565b6007805490600061236c83613e51565b9091555050600754604051600190600b90612388908590613bb7565b908152604051908190036020018120805492151560ff19909316929092179091553390600c906123b9908590613bb7565b908152604080516020928190038301812080546001600160a01b0319166001600160a01b039590951694909417909355610100830181528383528183018a815260ff8a1684830152606084018990526080840188905281518084018352600080825260a086019190915260c08501879052600160e0860181905233825260089094529190912083518155905190918201906124549082613c97565b50604082015160028201805460ff191660ff909216919091179055606082015160038201906124839082613c97565b50608082015160048201906124989082613c97565b5060a082015160058201906124ad9082613c97565b5060c082015160068201906124c29082613c97565b5060e091909101516007909101805460ff1916911515919091179055336000818152600960209081526040808320859055848352600a909152902080546001600160a01b031916821790556125179082612e4c565b336001600160a01b03167f02ed4ee0412e67bbc9ed1687f3ad6bb7134d359d45994f3bf5302e91d81cf61f8289604051612552929190613e6a565b60405180910390a27f47f02b73945ce0ca4c471ed60f05863657de8944610464aad740573b7c3b2d8c823360405161258b929190613e83565b60405180910390a150505050505050565b6125a7338383612f4d565b5050565b600860205260009081526040902080546001820180549192916125cd90613b7d565b80601f01602080910402602001604051908101604052809291908181526020018280546125f990613b7d565b80156126465780601f1061261b57610100808354040283529160200191612646565b820191906000526020600020905b81548152906001019060200180831161262957829003601f168201915b5050506002840154600385018054949560ff90921694919350915061266a90613b7d565b80601f016020809104026020016040519081016040528092919081815260200182805461269690613b7d565b80156126e35780601f106126b8576101008083540402835291602001916126e3565b820191906000526020600020905b8154815290600101906020018083116126c657829003601f168201915b5050505050908060040180546126f890613b7d565b80601f016020809104026020016040519081016040528092919081815260200182805461272490613b7d565b80156127715780601f1061274657610100808354040283529160200191612771565b820191906000526020600020905b81548152906001019060200180831161275457829003601f168201915b50505050509080600501805461278690613b7d565b80601f01602080910402602001604051908101604052809291908181526020018280546127b290613b7d565b80156127ff5780601f106127d4576101008083540402835291602001916127ff565b820191906000526020600020905b8154815290600101906020018083116127e257829003601f168201915b50505050509080600601805461281490613b7d565b80601f016020809104026020016040519081016040528092919081815260200182805461284090613b7d565b801561288d5780601f106128625761010080835404028352916020019161288d565b820191906000526020600020905b81548152906001019060200180831161287057829003601f168201915b5050506007909301549192505060ff1688565b6000600c826040516128b29190613bb7565b908152604051908190036020019020546001600160a01b031692915050565b60606128dc82612a00565b60006128f360408051602081019091526000815290565b90506000815111612913576040518060200160405280600081525061293e565b8061291d8461301b565b60405160200161292e929190613eae565b6040516020818303038152906040525b9392505050565b6000600b826040516129579190613bb7565b9081526040519081900360200190205460ff1692915050565b612978612df2565b6001600160a01b0381166129f45760405162461bcd60e51b815260206004820152602660248201527f4f776e61626c653a206e6577206f776e657220697320746865207a65726f206160448201527f6464726573730000000000000000000000000000000000000000000000000000606482015260840161069f565b6129fd81612efb565b50565b6000818152600260205260409020546001600160a01b03166129fd5760405162461bcd60e51b815260206004820152601860248201527f4552433732313a20696e76616c696420746f6b656e2049440000000000000000604482015260640161069f565b600081815260046020526040902080546001600160a01b0319166001600160a01b0384169081179091558190612a99826115f6565b6001600160a01b03167f8c5be1e5ebec7d5bd14f71427d1e84f3dd0314c0f7b2291e5b200ac8c7c3b92560405160405180910390a45050565b600080829050600581511015612aeb5750600092915050565b60fe81511115612afe5750600092915050565b6000806000805b8451811015612beb576000858281518110612b2257612b22613edd565b01602001516001600160f81b03191690507f4000000000000000000000000000000000000000000000000000000000000000819003612b985784612b6581613e51565b95506001945050811580612b85575060018651612b829190613ef3565b82145b15612b9857506000979650505050505050565b838015612bce57507f2e000000000000000000000000000000000000000000000000000000000000006001600160f81b03198216145b15612bd857600192505b5080612be381613e51565b915050612b05565b50826001148015612bf95750805b9695505050505050565b606060008290506000815167ffffffffffffffff811115612c2657612c2661373a565b6040519080825280601f01601f191660200182016040528015612c50576020820181803683370190505b50905060005b8251811015612d91576000838281518110612c7357612c73613edd565b01602001516001600160f81b03191690507f41000000000000000000000000000000000000000000000000000000000000008110801590612cde57507f5a000000000000000000000000000000000000000000000000000000000000006001600160f81b0319821611155b15612d3b57612cf260f882901c6020613f06565b60f81b838381518110612d0757612d07613edd565b60200101907effffffffffffffffffffffffffffffffffffffffffffffffffffffffffffff1916908160001a905350612d7e565b80838381518110612d4e57612d4e613edd565b60200101907effffffffffffffffffffffffffffffffffffffffffffffffffffffffffffff1916908160001a9053505b5080612d8981613e51565b915050612c56565b509392505050565b600081604051602001612dac9190613bb7565b6040516020818303038152906040528051906020012083604051602001612dd39190613bb7565b6040516020818303038152906040528051906020012014905092915050565b6006546001600160a01b03163314611c6f5760405162461bcd60e51b815260206004820181905260248201527f4f776e61626c653a2063616c6c6572206973206e6f7420746865206f776e6572604482015260640161069f565b6125a78282604051806020016040528060008152506130bb565b6000612e71826115f6565b9050612e7c826115f6565b600083815260046020908152604080832080546001600160a01b03199081169091556001600160a01b0385168085526003845282852080546000190190558785526002909352818420805490911690555192935084927fddf252ad1be2c89b69c2b068fc378daa952ba7f163c4a11628f55a4df523b3ef908390a45050565b600680546001600160a01b038381166001600160a01b0319831681179093556040519116919082907f8be0079c531659141344cd1fd0a4f28419497f9722a3daafe3b4186f6b6457e090600090a35050565b816001600160a01b0316836001600160a01b031603612fae5760405162461bcd60e51b815260206004820152601960248201527f4552433732313a20617070726f766520746f2063616c6c657200000000000000604482015260640161069f565b6001600160a01b03838116600081815260056020908152604080832094871680845294825291829020805460ff191686151590811790915591519182527f17307eab39ab6107e8899845ad3d59bd9653f200f220920489ca2b5937696c31910160405180910390a3505050565b6060600061302883613144565b600101905060008167ffffffffffffffff8111156130485761304861373a565b6040519080825280601f01601f191660200182016040528015613072576020820181803683370190505b5090508181016020015b600019017f3031323334353637383961626364656600000000000000000000000000000000600a86061a8153600a850494508461307c57509392505050565b6130c58383613226565b6130d260008484846133b1565b61075e5760405162461bcd60e51b815260206004820152603260248201527f4552433732313a207472616e7366657220746f206e6f6e20455243373231526560448201527f63656976657220696d706c656d656e7465720000000000000000000000000000606482015260840161069f565b6000807a184f03e93ff9f4daa797ed6e38ed64bf6a1f010000000000000000831061318d577a184f03e93ff9f4daa797ed6e38ed64bf6a1f010000000000000000830492506040015b6d04ee2d6d415b85acef810000000083106131b9576d04ee2d6d415b85acef8100000000830492506020015b662386f26fc1000083106131d757662386f26fc10000830492506010015b6305f5e10083106131ef576305f5e100830492506008015b612710831061320357612710830492506004015b60648310613215576064830492506002015b600a83106105505760010192915050565b6001600160a01b03821661327c5760405162461bcd60e51b815260206004820181905260248201527f4552433732313a206d696e7420746f20746865207a65726f2061646472657373604482015260640161069f565b6000818152600260205260409020546001600160a01b0316156132e15760405162461bcd60e51b815260206004820152601c60248201527f4552433732313a20746f6b656e20616c7265616479206d696e74656400000000604482015260640161069f565b6000818152600260205260409020546001600160a01b0316156133465760405162461bcd60e51b815260206004820152601c60248201527f4552433732313a20746f6b656e20616c7265616479206d696e74656400000000604482015260640161069f565b6001600160a01b038216600081815260036020908152604080832080546001019055848352600290915280822080546001600160a01b0319168417905551839291907fddf252ad1be2c89b69c2b068fc378daa952ba7f163c4a11628f55a4df523b3ef908290a45050565b60006001600160a01b0384163b156134fd57604051630a85bd0160e11b81526001600160a01b0385169063150b7a02906133f5903390899088908890600401613f1f565b6020604051808303816000875af1925050508015613430575060408051601f3d908101601f1916820190925261342d91810190613f51565b60015b6134e3573d80801561345e576040519150601f19603f3d011682016040523d82523d6000602084013e613463565b606091505b5080516000036134db5760405162461bcd60e51b815260206004820152603260248201527f4552433732313a207472616e7366657220746f206e6f6e20455243373231526560448201527f63656976657220696d706c656d656e7465720000000000000000000000000000606482015260840161069f565b805181602001fd5b6001600160e01b031916630a85bd0160e11b149050613501565b5060015b949350505050565b50805461351590613b7d565b6000825580601f10613525575050565b601f0160209004906000526020600020908101906129fd91905b80821115613553576000815560010161353f565b5090565b6001600160e01b0319811681146129fd57600080fd5b60006020828403121561357f57600080fd5b813561293e81613557565b80356001600160a01b03811681146135a157600080fd5b919050565b6000602082840312156135b857600080fd5b61293e8261358a565b60005b838110156135dc5781810151838201526020016135c4565b50506000910152565b600081518084526135fd8160208601602086016135c1565b601f01601f19169290920160200192915050565b60208152600061293e60208301846135e5565b60006020828403121561363657600080fd5b5035919050565b6000806040838503121561365057600080fd5b6136598361358a565b946020939093013593505050565b6020815281516020820152600060208301516101008060408501526136906101208501836135e5565b915060408501516136a6606086018260ff169052565b506060850151601f19808685030160808701526136c384836135e5565b935060808701519150808685030160a08701526136e084836135e5565b935060a08701519150808685030160c08701526136fd84836135e5565b935060c08701519150808685030160e08701525061371b83826135e5565b92505060e08501516137308286018215159052565b5090949350505050565b634e487b7160e01b600052604160045260246000fd5b600067ffffffffffffffff8084111561376b5761376b61373a565b604051601f8501601f19908116603f011681019082821181831017156137935761379361373a565b816040528093508581528686860111156137ac57600080fd5b858560208301376000602087830101525050509392505050565b600082601f8301126137d757600080fd5b61293e83833560208501613750565b803560ff811681146135a157600080fd5b60008060008060008060c0878903121561381057600080fd5b863567ffffffffffffffff8082111561382857600080fd5b6138348a838b016137c6565b975061384260208a016137e6565b9650604089013591508082111561385857600080fd5b6138648a838b016137c6565b9550606089013591508082111561387a57600080fd5b6138868a838b016137c6565b9450608089013591508082111561389c57600080fd5b6138a88a838b016137c6565b935060a08901359150808211156138be57600080fd5b506138cb89828a016137c6565b9150509295509295509295565b6000806000606084860312156138ed57600080fd5b6138f68461358a565b92506139046020850161358a565b9150604084013590509250925092565b600080600080600060a0868803121561392c57600080fd5b853567ffffffffffffffff8082111561394457600080fd5b61395089838a016137c6565b965061395e602089016137e6565b9550604088013591508082111561397457600080fd5b61398089838a016137c6565b9450606088013591508082111561399657600080fd5b6139a289838a016137c6565b935060808801359150808211156139b857600080fd5b506139c5888289016137c6565b9150509295509295909350565b600080604083850312156139e557600080fd5b6139ee8361358a565b915060208301358015158114613a0357600080fd5b809150509250929050565b60008060008060808587031215613a2457600080fd5b613a2d8561358a565b9350613a3b6020860161358a565b925060408501359150606085013567ffffffffffffffff811115613a5e57600080fd5b8501601f81018713613a6f57600080fd5b613a7e87823560208401613750565b91505092959194509250565b60006101008a8352806020840152613aa48184018b6135e5565b905060ff891660408401528281036060840152613ac181896135e5565b90508281036080840152613ad581886135e5565b905082810360a0840152613ae981876135e5565b905082810360c0840152613afd81866135e5565b91505082151560e08301529998505050505050505050565b600060208284031215613b2757600080fd5b813567ffffffffffffffff811115613b3e57600080fd5b613501848285016137c6565b60008060408385031215613b5d57600080fd5b613b668361358a565b9150613b746020840161358a565b90509250929050565b600181811c90821680613b9157607f821691505b602082108103613bb157634e487b7160e01b600052602260045260246000fd5b50919050565b60008251613bc98184602087016135c1565b9190910192915050565b6000808354613be181613b7d565b60018281168015613bf95760018114613c0e57613c3d565b60ff1984168752821515830287019450613c3d565b8760005260208060002060005b85811015613c345781548a820152908401908201613c1b565b50505082870194505b50929695505050505050565b601f82111561075e57600081815260208120601f850160051c81016020861015613c705750805b601f850160051c820191505b81811015613c8f57828155600101613c7c565b505050505050565b815167ffffffffffffffff811115613cb157613cb161373a565b613cc581613cbf8454613b7d565b84613c49565b602080601f831160018114613cfa5760008415613ce25750858301515b600019600386901b1c1916600185901b178555613c8f565b600085815260208120601f198616915b82811015613d2957888601518255948401946001909101908401613d0a565b5085821015613d475787850151600019600388901b60f8161c191681555b5050505050600190811b01905550565b60c081526000613d6a60c08301896135e5565b602060ff8916818501528382036040850152613d8682896135e5565b91508382036060850152613d9a82886135e5565b91508382036080850152613dae82876135e5565b915083820360a085015260008554613dc581613b7d565b80855260018281168015613de05760018114613dfa57613e28565b60ff1984168787015282151560051b870186019450613e28565b896000528560002060005b84811015613e20578154898201890152908301908701613e05565b880187019550505b50929d9c50505050505050505050505050565b634e487b7160e01b600052601160045260246000fd5b600060018201613e6357613e63613e3b565b5060010190565b82815260406020820152600061350160408301846135e5565b604081526000613e9660408301856135e5565b90506001600160a01b03831660208301529392505050565b60008351613ec08184602088016135c1565b835190830190613ed48183602088016135c1565b01949350505050565b634e487b7160e01b600052603260045260246000fd5b8181038181111561055057610550613e3b565b60ff818116838216019081111561055057610550613e3b565b60006001600160a01b03808716835280861660208401525083604083015260806060830152612bf960808301846135e5565b600060208284031215613f6357600080fd5b815161293e8161355756fea2646970667358221220c4e64c5b196cf3596fc22d526ab1b0f7725da3921697b44897564aacca6f021264736f6c63430008140033",
  "linkReferences": {},
  "deployedLinkReferences": {}
}