{
  "_format": "hh-sol-artifact-1",
  "contractName": "Achievement",
  "sourceName": "contracts/Achievement.sol",
  "abi": [
    {
      "inputs": [
        {
          "internalType": "address",
          "name": "target",
          "type": "address"
        }
      ],
      "name": "AddressEmptyCode",
      "type": "error"
    },
    {
      "inputs": [
        {
          "internalType": "address",
          "name": "implementation",
          "type": "address"
        }
      ],
      "name": "ERC1967InvalidImplementation",
      "type": "error"
    },
    {
      "inputs": [],
      "name": "ERC1967NonPayable",
      "type": "error"
    },
    {
      "inputs": [
        {
          "internalType": "address",
          "name": "sender",
          "type": "address"
        },
        {
          "internalType": "uint256",
          "name": "tokenId",
          "type": "uint256"
        },
        {
          "internalType": "address",
          "name": "owner",
          "type": "address"
        }
      ],
      "name": "ERC721IncorrectOwner",
      "type": "error"
    },
    {
      "inputs": [
        {
          "internalType": "address",
          "name": "operator",
          "type": "address"
        },
        {
          "internalType": "uint256",
          "name": "tokenId",
          "type": "uint256"
        }
      ],
      "name": "ERC721InsufficientApproval",
      "type": "error"
    },
    {
      "inputs": [
        {
          "internalType": "address",
          "name": "approver",
          "type": "address"
        }
      ],
      "name": "ERC721InvalidApprover",
      "type": "error"
    },
    {
      "inputs": [
        {
          "internalType": "address",
          "name": "operator",
          "type": "address"
        }
      ],
      "name": "ERC721InvalidOperator",
      "type": "error"
    },
    {
      "inputs": [
        {
          "internalType": "address",
          "name": "owner",
          "type": "address"
        }
      ],
      "name": "ERC721InvalidOwner",
      "type": "error"
    },
    {
      "inputs": [
        {
          "internalType": "address",
          "name": "receiver",
          "type": "address"
        }
      ],
      "name": "ERC721InvalidReceiver",
      "type": "error"
    },
    {
      "inputs": [
        {
          "internalType": "address",
          "name": "sender",
          "type": "address"
        }
      ],
      "name": "ERC721InvalidSender",
      "type": "error"
    },
    {
      "inputs": [
        {
          "internalType": "uint256",
          "name": "tokenId",
          "type": "uint256"
        }
      ],
      "name": "ERC721NonexistentToken",
      "type": "error"
    },
    {
      "inputs": [],
      "name": "FailedCall",
      "type": "error"
    },
    {
      "inputs": [],
      "name": "InvalidInitialization",
      "type": "error"
    },
    {
      "inputs": [],
      "name": "NotInitializing",
      "type": "error"
    },
    {
      "inputs": [
        {
          "internalType": "address",
          "name": "owner",
          "type": "address"
        }
      ],
      "name": "OwnableInvalidOwner",
      "type": "error"
    },
    {
      "inputs": [
        {
          "internalType": "address",
          "name": "account",
          "type": "address"
        }
      ],
      "name": "OwnableUnauthorizedAccount",
      "type": "error"
    },
    {
      "inputs": [],
      "name": "UUPSUnauthorizedCallContext",
      "type": "error"
    },
    {
      "inputs": [
        {
          "internalType": "bytes32",
          "name": "slot",
          "type": "bytes32"
        }
      ],
      "name": "UUPSUnsupportedProxiableUUID",
      "type": "error"
    },
    {
      "anonymous": false,
      "inputs": [
        {
          "indexed": true,
          "internalType": "address",
          "name": "user",
          "type": "address"
        },
        {
          "indexed": false,
          "internalType": "uint256",
          "name": "tokenId",
          "type": "uint256"
        },
        {
          "indexed": false,
          "internalType": "string",
          "name": "achievementType",
          "type": "string"
        }
      ],
      "name": "AchievementMinted",
      "type": "event"
    },
    {
      "anonymous": false,
      "inputs": [
        {
          "indexed": true,
          "internalType": "address",
          "name": "owner",
          "type": "address"
        },
        {
          "indexed": true,
          "internalType": "address",
          "name": "approved",
          "type": "address"
        },
        {
          "indexed": true,
          "internalType": "uint256",
          "name": "tokenId",
          "type": "uint256"
        }
      ],
      "name": "Approval",
      "type": "event"
    },
    {
      "anonymous": false,
      "inputs": [
        {
          "indexed": true,
          "internalType": "address",
          "name": "owner",
          "type": "address"
        },
        {
          "indexed": true,
          "internalType": "address",
          "name": "operator",
          "type": "address"
        },
        {
          "indexed": false,
          "internalType": "bool",
          "name": "approved",
          "type": "bool"
        }
      ],
      "name": "ApprovalForAll",
      "type": "event"
    },
    {
      "anonymous": false,
      "inputs": [
        {
          "indexed": false,
          "internalType": "uint64",
          "name": "version",
          "type": "uint64"
        }
      ],
      "name": "Initialized",
      "type": "event"
    },
    {
      "anonymous": false,
      "inputs": [
        {
          "indexed": true,
          "internalType": "address",
          "name": "previousOwner",
          "type": "address"
        },
        {
          "indexed": true,
          "internalType": "address",
          "name": "newOwner",
          "type": "address"
        }
      ],
      "name": "OwnershipTransferred",
      "type": "event"
    },
    {
      "anonymous": false,
      "inputs": [
        {
          "indexed": true,
          "internalType": "address",
          "name": "from",
          "type": "address"
        },
        {
          "indexed": true,
          "internalType": "address",
          "name": "to",
          "type": "address"
        },
        {
          "indexed": true,
          "internalType": "uint256",
          "name": "tokenId",
          "type": "uint256"
        }
      ],
      "name": "Transfer",
      "type": "event"
    },
    {
      "anonymous": false,
      "inputs": [
        {
          "indexed": true,
          "internalType": "address",
          "name": "implementation",
          "type": "address"
        }
      ],
      "name": "Upgraded",
      "type": "event"
    },
    {
      "inputs": [],
      "name": "UPGRADE_INTERFACE_VERSION",
      "outputs": [
        {
          "internalType": "string",
          "name": "",
          "type": "string"
        }
      ],
      "stateMutability": "view",
      "type": "function"
    },
    {
      "inputs": [
        {
          "internalType": "uint256",
          "name": "",
          "type": "uint256"
        }
      ],
      "name": "achievementMetadataURI",
      "outputs": [
        {
          "internalType": "string",
          "name": "",
          "type": "string"
        }
      ],
      "stateMutability": "view",
      "type": "function"
    },
    {
      "inputs": [
        {
          "internalType": "address",
          "name": "to",
          "type": "address"
        },
        {
          "internalType": "uint256",
          "name": "tokenId",
          "type": "uint256"
        }
      ],
      "name": "approve",
      "outputs": [],
      "stateMutability": "nonpayable",
      "type": "function"
    },
    {
      "inputs": [
        {
          "internalType": "address",
          "name": "owner",
          "type": "address"
        }
      ],
      "name": "balanceOf",
      "outputs": [
        {
          "internalType": "uint256",
          "name": "",
          "type": "uint256"
        }
      ],
      "stateMutability": "view",
      "type": "function"
    },
    {
      "inputs": [],
      "name": "baseMetadataURI",
      "outputs": [
        {
          "internalType": "string",
          "name": "",
          "type": "string"
        }
      ],
      "stateMutability": "view",
      "type": "function"
    },
    {
      "inputs": [
        {
          "internalType": "uint256",
          "name": "tokenId",
          "type": "uint256"
        }
      ],
      "name": "getApproved",
      "outputs": [
        {
          "internalType": "address",
          "name": "",
          "type": "address"
        }
      ],
      "stateMutability": "view",
      "type": "function"
    },
    {
      "inputs": [
        {
          "internalType": "string",
          "name": "achievementType",
          "type": "string"
        }
      ],
      "name": "getTokenIdFromType",
      "outputs": [
        {
          "internalType": "uint256",
          "name": "",
          "type": "uint256"
        }
      ],
      "stateMutability": "pure",
      "type": "function"
    },
    {
      "inputs": [
        {
          "internalType": "address",
          "name": "user",
          "type": "address"
        }
      ],
      "name": "getUserAchievements",
      "outputs": [
        {
          "internalType": "uint256[]",
          "name": "",
          "type": "uint256[]"
        }
      ],
      "stateMutability": "view",
      "type": "function"
    },
    {
      "inputs": [
        {
          "internalType": "address",
          "name": "user",
          "type": "address"
        },
        {
          "internalType": "uint256",
          "name": "tokenId",
          "type": "uint256"
        }
      ],
      "name": "hasEarnedAchievement",
      "outputs": [
        {
          "internalType": "bool",
          "name": "",
          "type": "bool"
        }
      ],
      "stateMutability": "view",
      "type": "function"
    },
    {
      "inputs": [],
      "name": "initialize",
      "outputs": [],
      "stateMutability": "nonpayable",
      "type": "function"
    },
    {
      "inputs": [
        {
          "internalType": "address",
          "name": "owner",
          "type": "address"
        },
        {
          "internalType": "address",
          "name": "operator",
          "type": "address"
        }
      ],
      "name": "isApprovedForAll",
      "outputs": [
        {
          "internalType": "bool",
          "name": "",
          "type": "bool"
        }
      ],
      "stateMutability": "view",
      "type": "function"
    },
    {
      "inputs": [
        {
          "internalType": "address",
          "name": "user",
          "type": "address"
        },
        {
          "internalType": "string",
          "name": "achievementType",
          "type": "string"
        }
      ],
      "name": "mintAchievement",
      "outputs": [
        {
          "internalType": "bool",
          "name": "",
          "type": "bool"
        }
      ],
      "stateMutability": "nonpayable",
      "type": "function"
    },
    {
      "inputs": [],
      "name": "name",
      "outputs": [
        {
          "internalType": "string",
          "name": "",
          "type": "string"
        }
      ],
      "stateMutability": "view",
      "type": "function"
    },
    {
      "inputs": [],
      "name": "owner",
      "outputs": [
        {
          "internalType": "address",
          "name": "",
          "type": "address"
        }
      ],
      "stateMutability": "view",
      "type": "function"
    },
    {
      "inputs": [
        {
          "internalType": "uint256",
          "name": "tokenId",
          "type": "uint256"
        }
      ],
      "name": "ownerOf",
      "outputs": [
        {
          "internalType": "address",
          "name": "",
          "type": "address"
        }
      ],
      "stateMutability": "view",
      "type": "function"
    },
    {
      "inputs": [],
      "name": "proxiableUUID",
      "outputs": [
        {
          "internalType": "bytes32",
          "name": "",
          "type": "bytes32"
        }
      ],
      "stateMutability": "view",
      "type": "function"
    },
    {
      "inputs": [],
      "name": "renounceOwnership",
      "outputs": [],
      "stateMutability": "nonpayable",
      "type": "function"
    },
    {
      "inputs": [
        {
          "internalType": "address",
          "name": "from",
          "type": "address"
        },
        {
          "internalType": "address",
          "name": "to",
          "type": "address"
        },
        {
          "internalType": "uint256",
          "name": "tokenId",
          "type": "uint256"
        }
      ],
      "name": "safeTransferFrom",
      "outputs": [],
      "stateMutability": "nonpayable",
      "type": "function"
    },
    {
      "inputs": [
        {
          "internalType": "address",
          "name": "",
          "type": "address"
        },
        {
          "internalType": "address",
          "name": "",
          "type": "address"
        },
        {
          "internalType": "uint256",
          "name": "",
          "type": "uint256"
        },
        {
          "internalType": "bytes",
          "name": "",
          "type": "bytes"
        }
      ],
      "name": "safeTransferFrom",
      "outputs": [],
      "stateMutability": "pure",
      "type": "function"
    },
    {
      "inputs": [
        {
          "internalType": "address",
          "name": "operator",
          "type": "address"
        },
        {
          "internalType": "bool",
          "name": "approved",
          "type": "bool"
        }
      ],
      "name": "setApprovalForAll",
      "outputs": [],
      "stateMutability": "nonpayable",
      "type": "function"
    },
    {
      "inputs": [
        {
          "internalType": "string",
          "name": "newBaseURI",
          "type": "string"
        }
      ],
      "name": "setBaseMetadataURI",
      "outputs": [],
      "stateMutability": "nonpayable",
      "type": "function"
    },
    {
      "inputs": [
        {
          "internalType": "bytes4",
          "name": "interfaceId",
          "type": "bytes4"
        }
      ],
      "name": "supportsInterface",
      "outputs": [
        {
          "internalType": "bool",
          "name": "",
          "type": "bool"
        }
      ],
      "stateMutability": "view",
      "type": "function"
    },
    {
      "inputs": [],
      "name": "symbol",
      "outputs": [
        {
          "internalType": "string",
          "name": "",
          "type": "string"
        }
      ],
      "stateMutability": "view",
      "type": "function"
    },
    {
      "inputs": [
        {
          "internalType": "uint256",
          "name": "tokenId",
          "type": "uint256"
        }
      ],
      "name": "tokenURI",
      "outputs": [
        {
          "internalType": "string",
          "name": "",
          "type": "string"
        }
      ],
      "stateMutability": "view",
      "type": "function"
    },
    {
      "inputs": [
        {
          "internalType": "address",
          "name": "",
          "type": "address"
        },
        {
          "internalType": "address",
          "name": "",
          "type": "address"
        },
        {
          "internalType": "uint256",
          "name": "",
          "type": "uint256"
        }
      ],
      "name": "transferFrom",
      "outputs": [],
      "stateMutability": "pure",
      "type": "function"
    },
    {
      "inputs": [
        {
          "internalType": "address",
          "name": "newOwner",
          "type": "address"
        }
      ],
      "name": "transferOwnership",
      "outputs": [],
      "stateMutability": "nonpayable",
      "type": "function"
    },
    {
      "inputs": [
        {
          "internalType": "address",
          "name": "newImplementation",
          "type": "address"
        },
        {
          "internalType": "bytes",
          "name": "data",
          "type": "bytes"
        }
      ],
      "name": "upgradeToAndCall",
      "outputs": [],
      "stateMutability": "payable",
      "type": "function"
    },
    {
      "inputs": [
        {
          "internalType": "address",
          "name": "",
          "type": "address"
        },
        {
          "internalType": "uint256",
          "name": "",
          "type": "uint256"
        }
      ],
      "name": "userAchievements",
      "outputs": [
        {
          "internalType": "uint256",
          "name": "",
          "type": "uint256"
        }
      ],
      "stateMutability": "view",
      "type": "function"
    },
    {
      "inputs": [
        {
          "internalType": "address",
          "name": "",
          "type": "address"
        },
        {
          "internalType": "uint256",
          "name": "",
          "type": "uint256"
        }
      ],
      "name": "userHasEarnedAchievement",
      "outputs": [
        {
          "internalType": "bool",
          "name": "",
          "type": "bool"
        }
      ],
      "stateMutability": "view",
      "type": "function"
    }
  ],
  "bytecode": "0x60a060405230608052348015610013575f80fd5b5060805161285b61003a5f395f8181611280015281816112a90152611427015261285b5ff3fe6080604052600436106101ba575f3560e01c80636352211e116100f2578063a22cb46511610092578063e500f31c11610062578063e500f31c1461051c578063e985e9c514610560578063f09153c4146105c6578063f2fde38b146105f2575f80fd5b8063a22cb4651461047c578063ad3cb1cc1461049b578063b88d4fde146104e3578063c87b56dd146104fd575f80fd5b80637e518ec8116100cd5780637e518ec8146103f95780638129fc1c146104185780638da5cb5b1461042c57806395d89b4114610468575f80fd5b80636352211e146103a757806370a08231146103c6578063715018a6146103e5575f80fd5b806323b872dd1161015d5780634f1ef286116101385780634f1ef2861461034d5780634fcca15f1461036057806352d1902d1461037f5780635b2bd79e14610393575f80fd5b806323b872dd146102e257806324548c601461030157806342842e0e1461032e575f80fd5b8063095ea7b311610198578063095ea7b31461024a5780630fc7e0c31461026b578063155d07061461028a5780631e244808146102c3575f80fd5b806301ffc9a7146101be57806306fdde03146101f2578063081812fc14610213575b5f80fd5b3480156101c9575f80fd5b506101dd6101d83660046120e1565b610611565b60405190151581526020015b60405180910390f35b3480156101fd575f80fd5b506102066106ad565b6040516101e99190612149565b34801561021e575f80fd5b5061023261022d36600461215b565b610761565b6040516001600160a01b0390911681526020016101e9565b348015610255575f80fd5b5061026961026436600461218d565b6107a7565b005b348015610276575f80fd5b506101dd610285366004612252565b6107b6565b348015610295575f80fd5b506101dd6102a436600461218d565b600360209081525f928352604080842090915290825290205460ff1681565b3480156102ce575f80fd5b506102066102dd36600461215b565b6108f5565b3480156102ed575f80fd5b506102696102fc36600461229d565b61098c565b34801561030c575f80fd5b5061032061031b36600461218d565b6109fa565b6040519081526020016101e9565b348015610339575f80fd5b5061026961034836600461229d565b610a25565b61026961035b366004612252565b610a44565b34801561036b575f80fd5b5061032061037a3660046122d6565b610a5f565b34801561038a575f80fd5b50610320610c7f565b34801561039e575f80fd5b50610206610cad565b3480156103b2575f80fd5b506102326103c136600461215b565b610cba565b3480156103d1575f80fd5b506103206103e0366004612308565b610cc4565b3480156103f0575f80fd5b50610269610d48565b348015610404575f80fd5b506102696104133660046122d6565b610d5b565b348015610423575f80fd5b50610269610d7b565b348015610437575f80fd5b507f9016d09d72d40fdae2fd8ceac6b6234c7706214fd39c1cd1e609a0528c199300546001600160a01b0316610232565b348015610473575f80fd5b50610206610f4d565b348015610487575f80fd5b50610269610496366004612321565b610f9e565b3480156104a6575f80fd5b506102066040518060400160405280600581526020017f352e302e3000000000000000000000000000000000000000000000000000000081525081565b3480156104ee575f80fd5b506102696102fc36600461235a565b348015610508575f80fd5b5061020661051736600461215b565b610fa9565b348015610527575f80fd5b506101dd61053636600461218d565b6001600160a01b03919091165f908152600360209081526040808320938352929052205460ff1690565b34801561056b575f80fd5b506101dd61057a3660046123be565b6001600160a01b039182165f9081527f80bb2b638cc20bc4d0a60d66940f3ab4a00c1d7b313497ca82fb0b4ab00793056020908152604080832093909416825291909152205460ff1690565b3480156105d1575f80fd5b506105e56105e0366004612308565b6110c9565b6040516101e991906123ef565b3480156105fd575f80fd5b5061026961060c366004612308565b611131565b5f6001600160e01b031982167f80ac58cd00000000000000000000000000000000000000000000000000000000148061067357506001600160e01b031982167f5b5e139f00000000000000000000000000000000000000000000000000000000145b806106a757507f01ffc9a7000000000000000000000000000000000000000000000000000000006001600160e01b03198316145b92915050565b7f80bb2b638cc20bc4d0a60d66940f3ab4a00c1d7b313497ca82fb0b4ab007930080546060919081906106df90612432565b80601f016020809104026020016040519081016040528092919081815260200182805461070b90612432565b80156107565780601f1061072d57610100808354040283529160200191610756565b820191905f5260205f20905b81548152906001019060200180831161073957829003601f168201915b505050505091505090565b5f61076b82611184565b505f8281527f80bb2b638cc20bc4d0a60d66940f3ab4a00c1d7b313497ca82fb0b4ab007930460205260409020546001600160a01b03166106a7565b6107b28282336111db565b5050565b5f6107bf6111e8565b5f6107c983610a5f565b90505f811161081f5760405162461bcd60e51b815260206004820152601860248201527f496e76616c696420616368696576656d656e742074797065000000000000000060448201526064015b60405180910390fd5b6001600160a01b0384165f90815260036020908152604080832084845290915290205460ff1615610853575f9150506106a7565b6001600160a01b0384165f9081526003602090815260408083208484529091529020805460ff1916600117905561088a848261125c565b6001600160a01b0384165f818152600160208181526040808420805493840181558452922001839055517f2a61f547ba5bf846cf758fdf30cfbada376ff8325ca400d2bb5ce0970ca406d8906108e3908490879061246a565b60405180910390a25060019392505050565b60026020525f90815260409020805461090d90612432565b80601f016020809104026020016040519081016040528092919081815260200182805461093990612432565b80156109845780601f1061095b57610100808354040283529160200191610984565b820191905f5260205f20905b81548152906001019060200180831161096757829003601f168201915b505050505081565b60405162461bcd60e51b815260206004820152602960248201527f416368696576656d656e743a204e6f6e2d7472616e7366657261626c6520285360448201527f6f756c626f756e642900000000000000000000000000000000000000000000006064820152608401610816565b6001602052815f5260405f208181548110610a13575f80fd5b905f5260205f20015f91509150505481565b610a3f83838360405180602001604052805f81525061098c565b505050565b610a4c611275565b610a558261132c565b6107b28282611334565b5f8082604051602001610a729190612482565b604051602081830303815290604052805190602001209050604051602001610abd907f46697273742044617465000000000000000000000000000000000000000000008152600a0190565b604051602081830303815290604052805190602001208103610ae25750600192915050565b6040517f35204461746573000000000000000000000000000000000000000000000000006020820152602701604051602081830303815290604052805190602001208103610b335750600292915050565b6040517f31302044617465730000000000000000000000000000000000000000000000006020820152602801604051602081830303815290604052805190602001208103610b845750600392915050565b6040517f35205374617220526174696e67000000000000000000000000000000000000006020820152602d01604051602081830303815290604052805190602001208103610bd55750600492915050565b6040517f50657266656374205765656b00000000000000000000000000000000000000006020820152602c01604051602081830303815290604052805190602001208103610c265750600592915050565b6040517f4d61746368204d616b65720000000000000000000000000000000000000000006020820152602b01604051602081830303815290604052805190602001208103610c775750600692915050565b505f92915050565b5f610c8861141c565b507f360894a13ba1a3210667c828492db98dca3e2076cc3735a920a3ca505d382bbc90565b6004805461090d90612432565b5f6106a782611184565b5f7f80bb2b638cc20bc4d0a60d66940f3ab4a00c1d7b313497ca82fb0b4ab00793006001600160a01b038316610d28576040517f89c62b640000000000000000000000000000000000000000000000000000000081525f6004820152602401610816565b6001600160a01b039092165f908152600390920160205250604090205490565b610d506111e8565b610d595f611465565b565b610d636111e8565b6004610d6f82826124e1565b50610d786114e2565b50565b5f610d846116f1565b805490915060ff68010000000000000000820416159067ffffffffffffffff165f81158015610db05750825b90505f8267ffffffffffffffff166001148015610dcc5750303b155b905081158015610dda575080155b15610e11576040517ff92ee8a900000000000000000000000000000000000000000000000000000000815260040160405180910390fd5b845467ffffffffffffffff191660011785558315610e4557845468ff00000000000000001916680100000000000000001785555b610eb96040518060400160405280601581526020017f426173654d6174636820416368696576656d656e7400000000000000000000008152506040518060400160405280600581526020017f424d414348000000000000000000000000000000000000000000000000000000815250611719565b610ec23361172b565b610eca61173c565b5f80556040805160808101909152605c8082526127ca6020830139600490610ef290826124e1565b50610efb6114e2565b8315610f4657845468ff000000000000000019168555604051600181527fc7f505b2f371ae2175ee4913f4499e1f2633a7b5936321eed1cdaeb6115181d29060200160405180910390a15b5050505050565b7f80bb2b638cc20bc4d0a60d66940f3ab4a00c1d7b313497ca82fb0b4ab007930180546060917f80bb2b638cc20bc4d0a60d66940f3ab4a00c1d7b313497ca82fb0b4ab0079300916106df90612432565b6107b2338383611744565b5f8181527f80bb2b638cc20bc4d0a60d66940f3ab4a00c1d7b313497ca82fb0b4ab007930260205260409020546060906001600160a01b031661102e5760405162461bcd60e51b815260206004820152601860248201527f4552433732313a20496e76616c696420746f6b656e20494400000000000000006044820152606401610816565b5f828152600260205260409020805461104690612432565b80601f016020809104026020016040519081016040528092919081815260200182805461107290612432565b80156110bd5780601f10611094576101008083540402835291602001916110bd565b820191905f5260205f20905b8154815290600101906020018083116110a057829003601f168201915b50505050509050919050565b6001600160a01b0381165f908152600160209081526040918290208054835181840281018401909452808452606093928301828280156110bd57602002820191905f5260205f20905b8154815260200190600101908083116111125750505050509050919050565b6111396111e8565b6001600160a01b03811661117b576040517f1e4fbdf70000000000000000000000000000000000000000000000000000000081525f6004820152602401610816565b610d7881611465565b5f8181527f80bb2b638cc20bc4d0a60d66940f3ab4a00c1d7b313497ca82fb0b4ab007930260205260408120546001600160a01b0316806106a757604051637e27328960e01b815260048101849052602401610816565b610a3f838383600161181f565b3361121a7f9016d09d72d40fdae2fd8ceac6b6234c7706214fd39c1cd1e609a0528c199300546001600160a01b031690565b6001600160a01b031614610d59576040517f118cdaa7000000000000000000000000000000000000000000000000000000008152336004820152602401610816565b6107b2828260405180602001604052805f8152506119a8565b306001600160a01b037f000000000000000000000000000000000000000000000000000000000000000016148061130e57507f00000000000000000000000000000000000000000000000000000000000000006001600160a01b03166113027f360894a13ba1a3210667c828492db98dca3e2076cc3735a920a3ca505d382bbc546001600160a01b031690565b6001600160a01b031614155b15610d595760405163703e46dd60e11b815260040160405180910390fd5b610d786111e8565b816001600160a01b03166352d1902d6040518163ffffffff1660e01b8152600401602060405180830381865afa92505050801561138e575060408051601f3d908101601f1916820190925261138b9181019061259d565b60015b6113b657604051634c9c8ce360e01b81526001600160a01b0383166004820152602401610816565b7f360894a13ba1a3210667c828492db98dca3e2076cc3735a920a3ca505d382bbc8114611412576040517faa1d49a400000000000000000000000000000000000000000000000000000000815260048101829052602401610816565b610a3f83836119bf565b306001600160a01b037f00000000000000000000000000000000000000000000000000000000000000001614610d595760405163703e46dd60e11b815260040160405180910390fd5b7f9016d09d72d40fdae2fd8ceac6b6234c7706214fd39c1cd1e609a0528c199300805473ffffffffffffffffffffffffffffffffffffffff1981166001600160a01b03848116918217845560405192169182907f8be0079c531659141344cd1fd0a4f28419497f9722a3daafe3b4186f6b6457e0905f90a3505050565b60046040516020016114f49190612623565b60408051601f1981840301815291905260015f5260026020527fe90b7bceb6e7df5418fb78d8ee546e97c83a08bbccc01a0644d599ccd2a7c2e09061153990826124e1565b50600460405160200161154c919061265b565b60408051601f1981840301815291905260025f8190526020527f679795a0195a1b76cdebb7c51d74e058aee92919b8c3389af86ef24535e8a28c9061159190826124e1565b5060046040516020016115a49190612693565b60408051601f1981840301815291905260035f5260026020527f88601476d11616a71c5be67555bd1dff4b1cbf21533d2669b768b61518cfe1c3906115e990826124e1565b5060046040516020016115fc91906126cb565b60408051601f1981840301815291905260045f5260026020527fee60d0579bcffd98e668647d59fec1ff86a7fb340ce572e844f234ae73a6918f9061164190826124e1565b5060046040516020016116549190612703565b60408051601f1981840301815291905260055f5260026020527fb98b78633099fa36ed8b8680c4f8092689e1e04080eb9cbb077ca38a14d7e3849061169990826124e1565b5060046040516020016116ac919061273b565b60408051601f1981840301815291905260065f5260026020527f59dd4b18488d12f51eda69757a0ed42a2010c14b564330cc74a06895e60c077b90610d7890826124e1565b5f807ff0c57e16840df040f15088dc2f81fe391c3923bec73e23a9662efc9c229c6a006106a7565b611721611a14565b6107b28282611a52565b611733611a14565b610d7881611a9b565b610d59611a14565b7f80bb2b638cc20bc4d0a60d66940f3ab4a00c1d7b313497ca82fb0b4ab00793006001600160a01b0383166117b0576040517f5b08ba180000000000000000000000000000000000000000000000000000000081526001600160a01b0384166004820152602401610816565b6001600160a01b038481165f818152600584016020908152604080832094881680845294825291829020805460ff191687151590811790915591519182527f17307eab39ab6107e8899845ad3d59bd9653f200f220920489ca2b5937696c31910160405180910390a350505050565b7f80bb2b638cc20bc4d0a60d66940f3ab4a00c1d7b313497ca82fb0b4ab0079300818061185457506001600160a01b03831615155b1561196b575f61186385611184565b90506001600160a01b0384161580159061188f5750836001600160a01b0316816001600160a01b031614155b80156118df57506001600160a01b038082165f9081527f80bb2b638cc20bc4d0a60d66940f3ab4a00c1d7b313497ca82fb0b4ab0079305602090815260408083209388168352929052205460ff16155b15611921576040517fa9fbf51f0000000000000000000000000000000000000000000000000000000081526001600160a01b0385166004820152602401610816565b82156119695784866001600160a01b0316826001600160a01b03167f8c5be1e5ebec7d5bd14f71427d1e84f3dd0314c0f7b2291e5b200ac8c7c3b92560405160405180910390a45b505b5f938452600401602052505060409020805473ffffffffffffffffffffffffffffffffffffffff19166001600160a01b0392909216919091179055565b6119b28383611aa3565b610a3f335f858585611b1d565b6119c882611c44565b6040516001600160a01b038316907fbc7cd75a20ee27fd9adebab32041f755214dbc6bffa90cc0225b39da2e5c2d3b905f90a2805115611a0c57610a3f8282611cc7565b6107b2611d39565b611a1c611d71565b610d59576040517fd7e6bcf800000000000000000000000000000000000000000000000000000000815260040160405180910390fd5b611a5a611a14565b7f80bb2b638cc20bc4d0a60d66940f3ab4a00c1d7b313497ca82fb0b4ab007930080611a8684826124e1565b5060018101611a9583826124e1565b50505050565b611139611a14565b6001600160a01b038216611acc57604051633250574960e11b81525f6004820152602401610816565b5f611ad883835f611d8f565b90506001600160a01b03811615610a3f576040517f73c6ac6e0000000000000000000000000000000000000000000000000000000081525f6004820152602401610816565b6001600160a01b0383163b15610f4657604051630a85bd0160e11b81526001600160a01b0384169063150b7a0290611b5f908890889087908790600401612773565b6020604051808303815f875af1925050508015611b99575060408051601f3d908101601f19168201909252611b96918101906127ae565b60015b611c00573d808015611bc6576040519150601f19603f3d011682016040523d82523d5f602084013e611bcb565b606091505b5080515f03611bf857604051633250574960e11b81526001600160a01b0385166004820152602401610816565b805160208201fd5b6001600160e01b03198116630a85bd0160e11b14611c3c57604051633250574960e11b81526001600160a01b0385166004820152602401610816565b505050505050565b806001600160a01b03163b5f03611c7957604051634c9c8ce360e01b81526001600160a01b0382166004820152602401610816565b7f360894a13ba1a3210667c828492db98dca3e2076cc3735a920a3ca505d382bbc805473ffffffffffffffffffffffffffffffffffffffff19166001600160a01b0392909216919091179055565b60605f80846001600160a01b031684604051611ce39190612482565b5f60405180830381855af49150503d805f8114611d1b576040519150601f19603f3d011682016040523d82523d5f602084013e611d20565b606091505b5091509150611d30858383611ed8565b95945050505050565b3415610d59576040517fb398979f00000000000000000000000000000000000000000000000000000000815260040160405180910390fd5b5f611d7a6116f1565b5468010000000000000000900460ff16919050565b5f8281527f80bb2b638cc20bc4d0a60d66940f3ab4a00c1d7b313497ca82fb0b4ab007930260205260408120547f80bb2b638cc20bc4d0a60d66940f3ab4a00c1d7b313497ca82fb0b4ab0079300906001600160a01b0390811690841615611dfc57611dfc818587611f4d565b6001600160a01b03811615611e3857611e175f865f8061181f565b6001600160a01b0381165f908152600383016020526040902080545f190190555b6001600160a01b03861615611e68576001600160a01b0386165f9081526003830160205260409020805460010190555b5f858152600283016020526040808220805473ffffffffffffffffffffffffffffffffffffffff19166001600160a01b038a811691821790925591518893918516917fddf252ad1be2c89b69c2b068fc378daa952ba7f163c4a11628f55a4df523b3ef91a49150505b9392505050565b606082611eed57611ee882611fca565b611ed1565b8151158015611f0457506001600160a01b0384163b155b15611f46576040517f9996b3150000000000000000000000000000000000000000000000000000000081526001600160a01b0385166004820152602401610816565b5080611ed1565b611f5883838361200b565b610a3f576001600160a01b038316611f8657604051637e27328960e01b815260048101829052602401610816565b6040517f177e802f0000000000000000000000000000000000000000000000000000000081526001600160a01b038316600482015260248101829052604401610816565b805115611fd957805160208201fd5b6040517fd6bda27500000000000000000000000000000000000000000000000000000000815260040160405180910390fd5b5f6001600160a01b038316158015906120c45750826001600160a01b0316846001600160a01b0316148061208257506001600160a01b038085165f9081527f80bb2b638cc20bc4d0a60d66940f3ab4a00c1d7b313497ca82fb0b4ab0079305602090815260408083209387168352929052205460ff165b806120c457505f8281527f80bb2b638cc20bc4d0a60d66940f3ab4a00c1d7b313497ca82fb0b4ab007930460205260409020546001600160a01b038481169116145b949350505050565b6001600160e01b031981168114610d78575f80fd5b5f602082840312156120f1575f80fd5b8135611ed1816120cc565b5f5b838110156121165781810151838201526020016120fe565b50505f910152565b5f81518084526121358160208601602086016120fc565b601f01601f19169290920160200192915050565b602081525f611ed1602083018461211e565b5f6020828403121561216b575f80fd5b5035919050565b80356001600160a01b0381168114612188575f80fd5b919050565b5f806040838503121561219e575f80fd5b6121a783612172565b946020939093013593505050565b634e487b7160e01b5f52604160045260245ffd5b5f82601f8301126121d8575f80fd5b813567ffffffffffffffff808211156121f3576121f36121b5565b604051601f8301601f19908116603f0116810190828211818310171561221b5761221b6121b5565b81604052838152866020858801011115612233575f80fd5b836020870160208301375f602085830101528094505050505092915050565b5f8060408385031215612263575f80fd5b61226c83612172565b9150602083013567ffffffffffffffff811115612287575f80fd5b612293858286016121c9565b9150509250929050565b5f805f606084860312156122af575f80fd5b6122b884612172565b92506122c660208501612172565b9150604084013590509250925092565b5f602082840312156122e6575f80fd5b813567ffffffffffffffff8111156122fc575f80fd5b6120c4848285016121c9565b5f60208284031215612318575f80fd5b611ed182612172565b5f8060408385031215612332575f80fd5b61233b83612172565b91506020830135801515811461234f575f80fd5b809150509250929050565b5f805f806080858703121561236d575f80fd5b61237685612172565b935061238460208601612172565b925060408501359150606085013567ffffffffffffffff8111156123a6575f80fd5b6123b2878288016121c9565b91505092959194509250565b5f80604083850312156123cf575f80fd5b6123d883612172565b91506123e660208401612172565b90509250929050565b602080825282518282018190525f9190848201906040850190845b818110156124265783518352928401929184019160010161240a565b50909695505050505050565b600181811c9082168061244657607f821691505b60208210810361246457634e487b7160e01b5f52602260045260245ffd5b50919050565b828152604060208201525f6120c4604083018461211e565b5f82516124938184602087016120fc565b9190910192915050565b601f821115610a3f57805f5260205f20601f840160051c810160208510156124c25750805b601f840160051c820191505b81811015610f46575f81556001016124ce565b815167ffffffffffffffff8111156124fb576124fb6121b5565b61250f816125098454612432565b8461249d565b602080601f831160018114612542575f841561252b5750858301515b5f19600386901b1c1916600185901b178555611c3c565b5f85815260208120601f198616915b8281101561257057888601518255948401946001909101908401612551565b508582101561258d57878501515f19600388901b60f8161c191681555b5050505050600190811b01905550565b5f602082840312156125ad575f80fd5b5051919050565b5f81546125c081612432565b600182811680156125d857600181146125ed57612619565b60ff1984168752821515830287019450612619565b855f526020805f205f5b858110156126105781548a8201529084019082016125f7565b50505082870194505b5050505092915050565b5f61262e82846125b4565b7f66697273742d646174652e6a736f6e00000000000000000000000000000000008152600f019392505050565b5f61266682846125b4565b7f352d64617465732e6a736f6e00000000000000000000000000000000000000008152600c019392505050565b5f61269e82846125b4565b7f31302d64617465732e6a736f6e000000000000000000000000000000000000008152600d019392505050565b5f6126d682846125b4565b7f352d737461722e6a736f6e0000000000000000000000000000000000000000008152600b019392505050565b5f61270e82846125b4565b7f706572666563742d7765656b2e6a736f6e00000000000000000000000000000081526011019392505050565b5f61274682846125b4565b7f6d617463682d6d616b65722e6a736f6e0000000000000000000000000000000081526010019392505050565b5f6001600160a01b038087168352808616602084015250836040830152608060608301526127a4608083018461211e565b9695505050505050565b5f602082840312156127be575f80fd5b8151611ed1816120cc56fe68747470733a2f2f657175616c2d62726f6e7a652d6261742e6d7966696c65626173652e636f6d2f697066732f516d55614b56466f735566476167596d7545396654716b7731394c4b4a3946334a6f6237514574726e555a4a64572fa26469706673582212204eb1ba1d2a349b1abad7825fc371d82059718bcb77507bbfcf2b86bdd405fe6164736f6c63430008160033",
  "linkReferences": {},
  "deployedLinkReferences": {}
}