{
  "_format": "hh-sol-artifact-1",
  "contractName": "Achievement",
  "sourceName": "contracts/Achievement.sol",
  "abi": [
    {
      "inputs": [],
      "stateMutability": "nonpayable",
      "type": "constructor"
    },
    {
      "anonymous": false,
      "inputs": [
        {
          "indexed": true,
          "internalType": "address",
          "name": "user",
          "type": "address"
        },
        {
          "indexed": false,
          "internalType": "uint256",
          "name": "tokenId",
          "type": "uint256"
        },
        {
          "indexed": false,
          "internalType": "string",
          "name": "achievementType",
          "type": "string"
        }
      ],
      "name": "AchievementMinted",
      "type": "event"
    },
    {
      "anonymous": false,
      "inputs": [
        {
          "indexed": true,
          "internalType": "address",
          "name": "owner",
          "type": "address"
        },
        {
          "indexed": true,
          "internalType": "address",
          "name": "approved",
          "type": "address"
        },
        {
          "indexed": true,
          "internalType": "uint256",
          "name": "tokenId",
          "type": "uint256"
        }
      ],
      "name": "Approval",
      "type": "event"
    },
    {
      "anonymous": false,
      "inputs": [
        {
          "indexed": true,
          "internalType": "address",
          "name": "owner",
          "type": "address"
        },
        {
          "indexed": true,
          "internalType": "address",
          "name": "operator",
          "type": "address"
        },
        {
          "indexed": false,
          "internalType": "bool",
          "name": "approved",
          "type": "bool"
        }
      ],
      "name": "ApprovalForAll",
      "type": "event"
    },
    {
      "anonymous": false,
      "inputs": [
        {
          "indexed": true,
          "internalType": "address",
          "name": "previousOwner",
          "type": "address"
        },
        {
          "indexed": true,
          "internalType": "address",
          "name": "newOwner",
          "type": "address"
        }
      ],
      "name": "OwnershipTransferred",
      "type": "event"
    },
    {
      "anonymous": false,
      "inputs": [
        {
          "indexed": true,
          "internalType": "address",
          "name": "from",
          "type": "address"
        },
        {
          "indexed": true,
          "internalType": "address",
          "name": "to",
          "type": "address"
        },
        {
          "indexed": true,
          "internalType": "uint256",
          "name": "tokenId",
          "type": "uint256"
        }
      ],
      "name": "Transfer",
      "type": "event"
    },
    {
      "inputs": [
        {
          "internalType": "address",
          "name": "to",
          "type": "address"
        },
        {
          "internalType": "uint256",
          "name": "tokenId",
          "type": "uint256"
        }
      ],
      "name": "approve",
      "outputs": [],
      "stateMutability": "nonpayable",
      "type": "function"
    },
    {
      "inputs": [
        {
          "internalType": "address",
          "name": "owner",
          "type": "address"
        }
      ],
      "name": "balanceOf",
      "outputs": [
        {
          "internalType": "uint256",
          "name": "",
          "type": "uint256"
        }
      ],
      "stateMutability": "view",
      "type": "function"
    },
    {
      "inputs": [
        {
          "internalType": "uint256",
          "name": "tokenId",
          "type": "uint256"
        }
      ],
      "name": "getApproved",
      "outputs": [
        {
          "internalType": "address",
          "name": "",
          "type": "address"
        }
      ],
      "stateMutability": "view",
      "type": "function"
    },
    {
      "inputs": [
        {
          "internalType": "address",
          "name": "user",
          "type": "address"
        }
      ],
      "name": "getUserAchievements",
      "outputs": [
        {
          "internalType": "uint256[]",
          "name": "",
          "type": "uint256[]"
        }
      ],
      "stateMutability": "view",
      "type": "function"
    },
    {
      "inputs": [
        {
          "internalType": "address",
          "name": "owner",
          "type": "address"
        },
        {
          "internalType": "address",
          "name": "operator",
          "type": "address"
        }
      ],
      "name": "isApprovedForAll",
      "outputs": [
        {
          "internalType": "bool",
          "name": "",
          "type": "bool"
        }
      ],
      "stateMutability": "view",
      "type": "function"
    },
    {
      "inputs": [
        {
          "internalType": "address",
          "name": "user",
          "type": "address"
        },
        {
          "internalType": "string",
          "name": "achievementType",
          "type": "string"
        }
      ],
      "name": "mintAchievement",
      "outputs": [],
      "stateMutability": "nonpayable",
      "type": "function"
    },
    {
      "inputs": [],
      "name": "name",
      "outputs": [
        {
          "internalType": "string",
          "name": "",
          "type": "string"
        }
      ],
      "stateMutability": "view",
      "type": "function"
    },
    {
      "inputs": [],
      "name": "owner",
      "outputs": [
        {
          "internalType": "address",
          "name": "",
          "type": "address"
        }
      ],
      "stateMutability": "view",
      "type": "function"
    },
    {
      "inputs": [
        {
          "internalType": "uint256",
          "name": "tokenId",
          "type": "uint256"
        }
      ],
      "name": "ownerOf",
      "outputs": [
        {
          "internalType": "address",
          "name": "",
          "type": "address"
        }
      ],
      "stateMutability": "view",
      "type": "function"
    },
    {
      "inputs": [],
      "name": "renounceOwnership",
      "outputs": [],
      "stateMutability": "nonpayable",
      "type": "function"
    },
    {
      "inputs": [
        {
          "internalType": "address",
          "name": "from",
          "type": "address"
        },
        {
          "internalType": "address",
          "name": "to",
          "type": "address"
        },
        {
          "internalType": "uint256",
          "name": "tokenId",
          "type": "uint256"
        }
      ],
      "name": "safeTransferFrom",
      "outputs": [],
      "stateMutability": "nonpayable",
      "type": "function"
    },
    {
      "inputs": [
        {
          "internalType": "address",
          "name": "from",
          "type": "address"
        },
        {
          "internalType": "address",
          "name": "to",
          "type": "address"
        },
        {
          "internalType": "uint256",
          "name": "tokenId",
          "type": "uint256"
        },
        {
          "internalType": "bytes",
          "name": "data",
          "type": "bytes"
        }
      ],
      "name": "safeTransferFrom",
      "outputs": [],
      "stateMutability": "nonpayable",
      "type": "function"
    },
    {
      "inputs": [
        {
          "internalType": "address",
          "name": "operator",
          "type": "address"
        },
        {
          "internalType": "bool",
          "name": "approved",
          "type": "bool"
        }
      ],
      "name": "setApprovalForAll",
      "outputs": [],
      "stateMutability": "nonpayable",
      "type": "function"
    },
    {
      "inputs": [
        {
          "internalType": "bytes4",
          "name": "interfaceId",
          "type": "bytes4"
        }
      ],
      "name": "supportsInterface",
      "outputs": [
        {
          "internalType": "bool",
          "name": "",
          "type": "bool"
        }
      ],
      "stateMutability": "view",
      "type": "function"
    },
    {
      "inputs": [],
      "name": "symbol",
      "outputs": [
        {
          "internalType": "string",
          "name": "",
          "type": "string"
        }
      ],
      "stateMutability": "view",
      "type": "function"
    },
    {
      "inputs": [
        {
          "internalType": "uint256",
          "name": "tokenId",
          "type": "uint256"
        }
      ],
      "name": "tokenURI",
      "outputs": [
        {
          "internalType": "string",
          "name": "",
          "type": "string"
        }
      ],
      "stateMutability": "view",
      "type": "function"
    },
    {
      "inputs": [
        {
          "internalType": "address",
          "name": "from",
          "type": "address"
        },
        {
          "internalType": "address",
          "name": "to",
          "type": "address"
        },
        {
          "internalType": "uint256",
          "name": "tokenId",
          "type": "uint256"
        }
      ],
      "name": "transferFrom",
      "outputs": [],
      "stateMutability": "nonpayable",
      "type": "function"
    },
    {
      "inputs": [
        {
          "internalType": "address",
          "name": "newOwner",
          "type": "address"
        }
      ],
      "name": "transferOwnership",
      "outputs": [],
      "stateMutability": "nonpayable",
      "type": "function"
    },
    {
      "inputs": [
        {
          "internalType": "address",
          "name": "",
          "type": "address"
        },
        {
          "internalType": "uint256",
          "name": "",
          "type": "uint256"
        }
      ],
      "name": "userAchievements",
      "outputs": [
        {
          "internalType": "uint256",
          "name": "",
          "type": "uint256"
        }
      ],
      "stateMutability": "view",
      "type": "function"
    }
  ],
  "bytecode": "0x60806040523480156200001157600080fd5b506040518060400160405280601581526020017f426173654d6174636820416368696576656d656e740000000000000000000000815250604051806040016040528060058152602001640849a8286960db1b8152508160009081620000779190620001a4565b506001620000868282620001a4565b505050620000a36200009d620000a960201b60201c565b620000ad565b62000270565b3390565b600680546001600160a01b038381166001600160a01b0319831681179093556040519116919082907f8be0079c531659141344cd1fd0a4f28419497f9722a3daafe3b4186f6b6457e090600090a35050565b634e487b7160e01b600052604160045260246000fd5b600181811c908216806200012a57607f821691505b6020821081036200014b57634e487b7160e01b600052602260045260246000fd5b50919050565b601f8211156200019f57600081815260208120601f850160051c810160208610156200017a5750805b601f850160051c820191505b818110156200019b5782815560010162000186565b5050505b505050565b81516001600160401b03811115620001c057620001c0620000ff565b620001d881620001d1845462000115565b8462000151565b602080601f831160018114620002105760008415620001f75750858301515b600019600386901b1c1916600185901b1785556200019b565b600085815260208120601f198616915b82811015620002415788860151825594840194600190910190840162000220565b5085821015620002605787850151600019600388901b60f8161c191681555b5050505050600190811b01905550565b61192780620002806000396000f3fe608060405234801561001057600080fd5b50600436106101515760003560e01c806370a08231116100cd578063b88d4fde11610081578063e985e9c511610066578063e985e9c5146102ad578063f09153c4146102e9578063f2fde38b1461030957600080fd5b8063b88d4fde14610287578063c87b56dd1461029a57600080fd5b80638da5cb5b116100b25780638da5cb5b1461025b57806395d89b411461026c578063a22cb4651461027457600080fd5b806370a0823114610240578063715018a61461025357600080fd5b80630fc7e0c31161012457806324548c601161010957806324548c60146101f957806342842e0e1461021a5780636352211e1461022d57600080fd5b80630fc7e0c3146101d357806323b872dd146101e657600080fd5b806301ffc9a71461015657806306fdde031461017e578063081812fc14610193578063095ea7b3146101be575b600080fd5b61016961016436600461149c565b61031c565b60405190151581526020015b60405180910390f35b6101866103b9565b6040516101759190611509565b6101a66101a136600461151c565b61044b565b6040516001600160a01b039091168152602001610175565b6101d16101cc366004611551565b610472565b005b6101d16101e1366004611607565b6105a8565b6101d16101f4366004611669565b61063d565b61020c610207366004611551565b6106b4565b604051908152602001610175565b6101d1610228366004611669565b6106e5565b6101a661023b36600461151c565b610700565b61020c61024e3660046116a5565b610765565b6101d16107ff565b6006546001600160a01b03166101a6565b610186610813565b6101d16102823660046116c0565b610822565b6101d16102953660046116fc565b610831565b6101866102a836600461151c565b6108af565b6101696102bb366004611778565b6001600160a01b03918216600090815260056020908152604080832093909416825291909152205460ff1690565b6102fc6102f73660046116a5565b610923565b60405161017591906117ab565b6101d16103173660046116a5565b61098f565b60006001600160e01b031982167f80ac58cd00000000000000000000000000000000000000000000000000000000148061037f57506001600160e01b031982167f5b5e139f00000000000000000000000000000000000000000000000000000000145b806103b357507f01ffc9a7000000000000000000000000000000000000000000000000000000006001600160e01b03198316145b92915050565b6060600080546103c8906117ef565b80601f01602080910402602001604051908101604052809291908181526020018280546103f4906117ef565b80156104415780601f1061041657610100808354040283529160200191610441565b820191906000526020600020905b81548152906001019060200180831161042457829003601f168201915b5050505050905090565b600061045682610a1f565b506000908152600460205260409020546001600160a01b031690565b600061047d82610700565b9050806001600160a01b0316836001600160a01b03160361050b5760405162461bcd60e51b815260206004820152602160248201527f4552433732313a20617070726f76616c20746f2063757272656e74206f776e6560448201527f720000000000000000000000000000000000000000000000000000000000000060648201526084015b60405180910390fd5b336001600160a01b0382161480610527575061052781336102bb565b6105995760405162461bcd60e51b815260206004820152603d60248201527f4552433732313a20617070726f76652063616c6c6572206973206e6f7420746f60448201527f6b656e206f776e6572206f7220617070726f76656420666f7220616c6c0000006064820152608401610502565b6105a38383610a83565b505050565b6105b0610afe565b600780549060006105c083611829565b90915550506007546105d28382610b58565b6001600160a01b038316600081815260086020908152604080832080546001810182559084529190922001839055517f2a61f547ba5bf846cf758fdf30cfbada376ff8325ca400d2bb5ce0970ca406d8906106309084908690611850565b60405180910390a2505050565b6106473382610b72565b6106a95760405162461bcd60e51b815260206004820152602d60248201527f4552433732313a2063616c6c6572206973206e6f7420746f6b656e206f776e6560448201526c1c881bdc88185c1c1c9bdd9959609a1b6064820152608401610502565b6105a3838383610bf1565b600860205281600052604060002081815481106106d057600080fd5b90600052602060002001600091509150505481565b6105a383838360405180602001604052806000815250610831565b6000818152600260205260408120546001600160a01b0316806103b35760405162461bcd60e51b815260206004820152601860248201527f4552433732313a20696e76616c696420746f6b656e20494400000000000000006044820152606401610502565b60006001600160a01b0382166107e35760405162461bcd60e51b815260206004820152602960248201527f4552433732313a2061646472657373207a65726f206973206e6f74206120766160448201527f6c6964206f776e657200000000000000000000000000000000000000000000006064820152608401610502565b506001600160a01b031660009081526003602052604090205490565b610807610afe565b6108116000610df7565b565b6060600180546103c8906117ef565b61082d338383610e56565b5050565b61083b3383610b72565b61089d5760405162461bcd60e51b815260206004820152602d60248201527f4552433732313a2063616c6c6572206973206e6f7420746f6b656e206f776e6560448201526c1c881bdc88185c1c1c9bdd9959609a1b6064820152608401610502565b6108a984848484610f24565b50505050565b60606108ba82610a1f565b60006108d160408051602081019091526000815290565b905060008151116108f1576040518060200160405280600081525061091c565b806108fb84610fa2565b60405160200161090c929190611869565b6040516020818303038152906040525b9392505050565b6001600160a01b03811660009081526008602090815260409182902080548351818402810184019094528084526060939283018282801561098357602002820191906000526020600020905b81548152602001906001019080831161096f575b50505050509050919050565b610997610afe565b6001600160a01b038116610a135760405162461bcd60e51b815260206004820152602660248201527f4f776e61626c653a206e6577206f776e657220697320746865207a65726f206160448201527f64647265737300000000000000000000000000000000000000000000000000006064820152608401610502565b610a1c81610df7565b50565b6000818152600260205260409020546001600160a01b0316610a1c5760405162461bcd60e51b815260206004820152601860248201527f4552433732313a20696e76616c696420746f6b656e20494400000000000000006044820152606401610502565b6000818152600460205260409020805473ffffffffffffffffffffffffffffffffffffffff19166001600160a01b0384169081179091558190610ac582610700565b6001600160a01b03167f8c5be1e5ebec7d5bd14f71427d1e84f3dd0314c0f7b2291e5b200ac8c7c3b92560405160405180910390a45050565b6006546001600160a01b031633146108115760405162461bcd60e51b815260206004820181905260248201527f4f776e61626c653a2063616c6c6572206973206e6f7420746865206f776e65726044820152606401610502565b61082d828260405180602001604052806000815250611042565b600080610b7e83610700565b9050806001600160a01b0316846001600160a01b03161480610bc557506001600160a01b0380821660009081526005602090815260408083209388168352929052205460ff165b80610be95750836001600160a01b0316610bde8461044b565b6001600160a01b0316145b949350505050565b826001600160a01b0316610c0482610700565b6001600160a01b031614610c685760405162461bcd60e51b815260206004820152602560248201527f4552433732313a207472616e736665722066726f6d20696e636f72726563742060448201526437bbb732b960d91b6064820152608401610502565b6001600160a01b038216610ce35760405162461bcd60e51b8152602060048201526024808201527f4552433732313a207472616e7366657220746f20746865207a65726f2061646460448201527f72657373000000000000000000000000000000000000000000000000000000006064820152608401610502565b826001600160a01b0316610cf682610700565b6001600160a01b031614610d5a5760405162461bcd60e51b815260206004820152602560248201527f4552433732313a207472616e736665722066726f6d20696e636f72726563742060448201526437bbb732b960d91b6064820152608401610502565b6000818152600460209081526040808320805473ffffffffffffffffffffffffffffffffffffffff199081169091556001600160a01b0387811680865260038552838620805460001901905590871680865283862080546001019055868652600290945282852080549092168417909155905184937fddf252ad1be2c89b69c2b068fc378daa952ba7f163c4a11628f55a4df523b3ef91a4505050565b600680546001600160a01b0383811673ffffffffffffffffffffffffffffffffffffffff19831681179093556040519116919082907f8be0079c531659141344cd1fd0a4f28419497f9722a3daafe3b4186f6b6457e090600090a35050565b816001600160a01b0316836001600160a01b031603610eb75760405162461bcd60e51b815260206004820152601960248201527f4552433732313a20617070726f766520746f2063616c6c6572000000000000006044820152606401610502565b6001600160a01b03838116600081815260056020908152604080832094871680845294825291829020805460ff191686151590811790915591519182527f17307eab39ab6107e8899845ad3d59bd9653f200f220920489ca2b5937696c31910160405180910390a3505050565b610f2f848484610bf1565b610f3b848484846110c0565b6108a95760405162461bcd60e51b815260206004820152603260248201527f4552433732313a207472616e7366657220746f206e6f6e20455243373231526560448201527131b2b4bb32b91034b6b83632b6b2b73a32b960711b6064820152608401610502565b60606000610faf8361120c565b600101905060008167ffffffffffffffff811115610fcf57610fcf61157b565b6040519080825280601f01601f191660200182016040528015610ff9576020820181803683370190505b5090508181016020015b600019017f3031323334353637383961626364656600000000000000000000000000000000600a86061a8153600a850494508461100357509392505050565b61104c83836112ee565b61105960008484846110c0565b6105a35760405162461bcd60e51b815260206004820152603260248201527f4552433732313a207472616e7366657220746f206e6f6e20455243373231526560448201527131b2b4bb32b91034b6b83632b6b2b73a32b960711b6064820152608401610502565b60006001600160a01b0384163b1561120157604051630a85bd0160e11b81526001600160a01b0385169063150b7a0290611104903390899088908890600401611898565b6020604051808303816000875af192505050801561113f575060408051601f3d908101601f1916820190925261113c918101906118d4565b60015b6111e7573d80801561116d576040519150601f19603f3d011682016040523d82523d6000602084013e611172565b606091505b5080516000036111df5760405162461bcd60e51b815260206004820152603260248201527f4552433732313a207472616e7366657220746f206e6f6e20455243373231526560448201527131b2b4bb32b91034b6b83632b6b2b73a32b960711b6064820152608401610502565b805181602001fd5b6001600160e01b031916630a85bd0160e11b149050610be9565b506001949350505050565b6000807a184f03e93ff9f4daa797ed6e38ed64bf6a1f0100000000000000008310611255577a184f03e93ff9f4daa797ed6e38ed64bf6a1f010000000000000000830492506040015b6d04ee2d6d415b85acef81000000008310611281576d04ee2d6d415b85acef8100000000830492506020015b662386f26fc10000831061129f57662386f26fc10000830492506010015b6305f5e10083106112b7576305f5e100830492506008015b61271083106112cb57612710830492506004015b606483106112dd576064830492506002015b600a83106103b35760010192915050565b6001600160a01b0382166113445760405162461bcd60e51b815260206004820181905260248201527f4552433732313a206d696e7420746f20746865207a65726f20616464726573736044820152606401610502565b6000818152600260205260409020546001600160a01b0316156113a95760405162461bcd60e51b815260206004820152601c60248201527f4552433732313a20746f6b656e20616c7265616479206d696e746564000000006044820152606401610502565b6000818152600260205260409020546001600160a01b03161561140e5760405162461bcd60e51b815260206004820152601c60248201527f4552433732313a20746f6b656e20616c7265616479206d696e746564000000006044820152606401610502565b6001600160a01b0382166000818152600360209081526040808320805460010190558483526002909152808220805473ffffffffffffffffffffffffffffffffffffffff19168417905551839291907fddf252ad1be2c89b69c2b068fc378daa952ba7f163c4a11628f55a4df523b3ef908290a45050565b6001600160e01b031981168114610a1c57600080fd5b6000602082840312156114ae57600080fd5b813561091c81611486565b60005b838110156114d45781810151838201526020016114bc565b50506000910152565b600081518084526114f58160208601602086016114b9565b601f01601f19169290920160200192915050565b60208152600061091c60208301846114dd565b60006020828403121561152e57600080fd5b5035919050565b80356001600160a01b038116811461154c57600080fd5b919050565b6000806040838503121561156457600080fd5b61156d83611535565b946020939093013593505050565b634e487b7160e01b600052604160045260246000fd5b600067ffffffffffffffff808411156115ac576115ac61157b565b604051601f8501601f19908116603f011681019082821181831017156115d4576115d461157b565b816040528093508581528686860111156115ed57600080fd5b858560208301376000602087830101525050509392505050565b6000806040838503121561161a57600080fd5b61162383611535565b9150602083013567ffffffffffffffff81111561163f57600080fd5b8301601f8101851361165057600080fd5b61165f85823560208401611591565b9150509250929050565b60008060006060848603121561167e57600080fd5b61168784611535565b925061169560208501611535565b9150604084013590509250925092565b6000602082840312156116b757600080fd5b61091c82611535565b600080604083850312156116d357600080fd5b6116dc83611535565b9150602083013580151581146116f157600080fd5b809150509250929050565b6000806000806080858703121561171257600080fd5b61171b85611535565b935061172960208601611535565b925060408501359150606085013567ffffffffffffffff81111561174c57600080fd5b8501601f8101871361175d57600080fd5b61176c87823560208401611591565b91505092959194509250565b6000806040838503121561178b57600080fd5b61179483611535565b91506117a260208401611535565b90509250929050565b6020808252825182820181905260009190848201906040850190845b818110156117e3578351835292840192918401916001016117c7565b50909695505050505050565b600181811c9082168061180357607f821691505b60208210810361182357634e487b7160e01b600052602260045260246000fd5b50919050565b60006001820161184957634e487b7160e01b600052601160045260246000fd5b5060010190565b828152604060208201526000610be960408301846114dd565b6000835161187b8184602088016114b9565b83519083019061188f8183602088016114b9565b01949350505050565b60006001600160a01b038087168352808616602084015250836040830152608060608301526118ca60808301846114dd565b9695505050505050565b6000602082840312156118e657600080fd5b815161091c8161148656fea2646970667358221220f01406f1bbbdab0bfd486be0c417a419a66b3b2bafb6fe206387c8c6e2bbfd1e64736f6c63430008140033",
  "linkReferences": {},
  "deployedLinkReferences": {}
}