{
  "_format": "hh-sol-artifact-1",
  "contractName": "Achievement",
  "sourceName": "contracts/Achievement.sol",
  "abi": [
    {
      "inputs": [],
      "stateMutability": "nonpayable",
      "type": "constructor"
    },
    {
      "inputs": [
        {
          "internalType": "address",
          "name": "target",
          "type": "address"
        }
      ],
      "name": "AddressEmptyCode",
      "type": "error"
    },
    {
      "inputs": [
        {
          "internalType": "address",
          "name": "implementation",
          "type": "address"
        }
      ],
      "name": "ERC1967InvalidImplementation",
      "type": "error"
    },
    {
      "inputs": [],
      "name": "ERC1967NonPayable",
      "type": "error"
    },
    {
      "inputs": [
        {
          "internalType": "address",
          "name": "sender",
          "type": "address"
        },
        {
          "internalType": "uint256",
          "name": "tokenId",
          "type": "uint256"
        },
        {
          "internalType": "address",
          "name": "owner",
          "type": "address"
        }
      ],
      "name": "ERC721IncorrectOwner",
      "type": "error"
    },
    {
      "inputs": [
        {
          "internalType": "address",
          "name": "operator",
          "type": "address"
        },
        {
          "internalType": "uint256",
          "name": "tokenId",
          "type": "uint256"
        }
      ],
      "name": "ERC721InsufficientApproval",
      "type": "error"
    },
    {
      "inputs": [
        {
          "internalType": "address",
          "name": "approver",
          "type": "address"
        }
      ],
      "name": "ERC721InvalidApprover",
      "type": "error"
    },
    {
      "inputs": [
        {
          "internalType": "address",
          "name": "operator",
          "type": "address"
        }
      ],
      "name": "ERC721InvalidOperator",
      "type": "error"
    },
    {
      "inputs": [
        {
          "internalType": "address",
          "name": "owner",
          "type": "address"
        }
      ],
      "name": "ERC721InvalidOwner",
      "type": "error"
    },
    {
      "inputs": [
        {
          "internalType": "address",
          "name": "receiver",
          "type": "address"
        }
      ],
      "name": "ERC721InvalidReceiver",
      "type": "error"
    },
    {
      "inputs": [
        {
          "internalType": "address",
          "name": "sender",
          "type": "address"
        }
      ],
      "name": "ERC721InvalidSender",
      "type": "error"
    },
    {
      "inputs": [
        {
          "internalType": "uint256",
          "name": "tokenId",
          "type": "uint256"
        }
      ],
      "name": "ERC721NonexistentToken",
      "type": "error"
    },
    {
      "inputs": [],
      "name": "FailedCall",
      "type": "error"
    },
    {
      "inputs": [],
      "name": "InvalidInitialization",
      "type": "error"
    },
    {
      "inputs": [],
      "name": "NotInitializing",
      "type": "error"
    },
    {
      "inputs": [
        {
          "internalType": "address",
          "name": "owner",
          "type": "address"
        }
      ],
      "name": "OwnableInvalidOwner",
      "type": "error"
    },
    {
      "inputs": [
        {
          "internalType": "address",
          "name": "account",
          "type": "address"
        }
      ],
      "name": "OwnableUnauthorizedAccount",
      "type": "error"
    },
    {
      "inputs": [],
      "name": "UUPSUnauthorizedCallContext",
      "type": "error"
    },
    {
      "inputs": [
        {
          "internalType": "bytes32",
          "name": "slot",
          "type": "bytes32"
        }
      ],
      "name": "UUPSUnsupportedProxiableUUID",
      "type": "error"
    },
    {
      "anonymous": false,
      "inputs": [
        {
          "indexed": true,
          "internalType": "address",
          "name": "user",
          "type": "address"
        },
        {
          "indexed": false,
          "internalType": "uint256",
          "name": "tokenId",
          "type": "uint256"
        },
        {
          "indexed": false,
          "internalType": "string",
          "name": "achievementType",
          "type": "string"
        }
      ],
      "name": "AchievementMinted",
      "type": "event"
    },
    {
      "anonymous": false,
      "inputs": [
        {
          "indexed": true,
          "internalType": "address",
          "name": "owner",
          "type": "address"
        },
        {
          "indexed": true,
          "internalType": "address",
          "name": "approved",
          "type": "address"
        },
        {
          "indexed": true,
          "internalType": "uint256",
          "name": "tokenId",
          "type": "uint256"
        }
      ],
      "name": "Approval",
      "type": "event"
    },
    {
      "anonymous": false,
      "inputs": [
        {
          "indexed": true,
          "internalType": "address",
          "name": "owner",
          "type": "address"
        },
        {
          "indexed": true,
          "internalType": "address",
          "name": "operator",
          "type": "address"
        },
        {
          "indexed": false,
          "internalType": "bool",
          "name": "approved",
          "type": "bool"
        }
      ],
      "name": "ApprovalForAll",
      "type": "event"
    },
    {
      "anonymous": false,
      "inputs": [
        {
          "indexed": false,
          "internalType": "uint64",
          "name": "version",
          "type": "uint64"
        }
      ],
      "name": "Initialized",
      "type": "event"
    },
    {
      "anonymous": false,
      "inputs": [
        {
          "indexed": true,
          "internalType": "address",
          "name": "previousOwner",
          "type": "address"
        },
        {
          "indexed": true,
          "internalType": "address",
          "name": "newOwner",
          "type": "address"
        }
      ],
      "name": "OwnershipTransferred",
      "type": "event"
    },
    {
      "anonymous": false,
      "inputs": [
        {
          "indexed": true,
          "internalType": "address",
          "name": "from",
          "type": "address"
        },
        {
          "indexed": true,
          "internalType": "address",
          "name": "to",
          "type": "address"
        },
        {
          "indexed": true,
          "internalType": "uint256",
          "name": "tokenId",
          "type": "uint256"
        }
      ],
      "name": "Transfer",
      "type": "event"
    },
    {
      "anonymous": false,
      "inputs": [
        {
          "indexed": true,
          "internalType": "address",
          "name": "implementation",
          "type": "address"
        }
      ],
      "name": "Upgraded",
      "type": "event"
    },
    {
      "inputs": [],
      "name": "UPGRADE_INTERFACE_VERSION",
      "outputs": [
        {
          "internalType": "string",
          "name": "",
          "type": "string"
        }
      ],
      "stateMutability": "view",
      "type": "function"
    },
    {
      "inputs": [
        {
          "internalType": "address",
          "name": "to",
          "type": "address"
        },
        {
          "internalType": "uint256",
          "name": "tokenId",
          "type": "uint256"
        }
      ],
      "name": "approve",
      "outputs": [],
      "stateMutability": "nonpayable",
      "type": "function"
    },
    {
      "inputs": [
        {
          "internalType": "address",
          "name": "owner",
          "type": "address"
        }
      ],
      "name": "balanceOf",
      "outputs": [
        {
          "internalType": "uint256",
          "name": "",
          "type": "uint256"
        }
      ],
      "stateMutability": "view",
      "type": "function"
    },
    {
      "inputs": [
        {
          "internalType": "uint256",
          "name": "tokenId",
          "type": "uint256"
        }
      ],
      "name": "getApproved",
      "outputs": [
        {
          "internalType": "address",
          "name": "",
          "type": "address"
        }
      ],
      "stateMutability": "view",
      "type": "function"
    },
    {
      "inputs": [
        {
          "internalType": "address",
          "name": "user",
          "type": "address"
        }
      ],
      "name": "getUserAchievements",
      "outputs": [
        {
          "internalType": "uint256[]",
          "name": "",
          "type": "uint256[]"
        }
      ],
      "stateMutability": "view",
      "type": "function"
    },
    {
      "inputs": [],
      "name": "initialize",
      "outputs": [],
      "stateMutability": "nonpayable",
      "type": "function"
    },
    {
      "inputs": [
        {
          "internalType": "address",
          "name": "owner",
          "type": "address"
        },
        {
          "internalType": "address",
          "name": "operator",
          "type": "address"
        }
      ],
      "name": "isApprovedForAll",
      "outputs": [
        {
          "internalType": "bool",
          "name": "",
          "type": "bool"
        }
      ],
      "stateMutability": "view",
      "type": "function"
    },
    {
      "inputs": [
        {
          "internalType": "address",
          "name": "user",
          "type": "address"
        },
        {
          "internalType": "string",
          "name": "achievementType",
          "type": "string"
        }
      ],
      "name": "mintAchievement",
      "outputs": [],
      "stateMutability": "nonpayable",
      "type": "function"
    },
    {
      "inputs": [],
      "name": "name",
      "outputs": [
        {
          "internalType": "string",
          "name": "",
          "type": "string"
        }
      ],
      "stateMutability": "view",
      "type": "function"
    },
    {
      "inputs": [],
      "name": "owner",
      "outputs": [
        {
          "internalType": "address",
          "name": "",
          "type": "address"
        }
      ],
      "stateMutability": "view",
      "type": "function"
    },
    {
      "inputs": [
        {
          "internalType": "uint256",
          "name": "tokenId",
          "type": "uint256"
        }
      ],
      "name": "ownerOf",
      "outputs": [
        {
          "internalType": "address",
          "name": "",
          "type": "address"
        }
      ],
      "stateMutability": "view",
      "type": "function"
    },
    {
      "inputs": [],
      "name": "proxiableUUID",
      "outputs": [
        {
          "internalType": "bytes32",
          "name": "",
          "type": "bytes32"
        }
      ],
      "stateMutability": "view",
      "type": "function"
    },
    {
      "inputs": [],
      "name": "renounceOwnership",
      "outputs": [],
      "stateMutability": "nonpayable",
      "type": "function"
    },
    {
      "inputs": [
        {
          "internalType": "address",
          "name": "from",
          "type": "address"
        },
        {
          "internalType": "address",
          "name": "to",
          "type": "address"
        },
        {
          "internalType": "uint256",
          "name": "tokenId",
          "type": "uint256"
        }
      ],
      "name": "safeTransferFrom",
      "outputs": [],
      "stateMutability": "nonpayable",
      "type": "function"
    },
    {
      "inputs": [
        {
          "internalType": "address",
          "name": "",
          "type": "address"
        },
        {
          "internalType": "address",
          "name": "",
          "type": "address"
        },
        {
          "internalType": "uint256",
          "name": "",
          "type": "uint256"
        },
        {
          "internalType": "bytes",
          "name": "",
          "type": "bytes"
        }
      ],
      "name": "safeTransferFrom",
      "outputs": [],
      "stateMutability": "pure",
      "type": "function"
    },
    {
      "inputs": [
        {
          "internalType": "address",
          "name": "operator",
          "type": "address"
        },
        {
          "internalType": "bool",
          "name": "approved",
          "type": "bool"
        }
      ],
      "name": "setApprovalForAll",
      "outputs": [],
      "stateMutability": "nonpayable",
      "type": "function"
    },
    {
      "inputs": [
        {
          "internalType": "bytes4",
          "name": "interfaceId",
          "type": "bytes4"
        }
      ],
      "name": "supportsInterface",
      "outputs": [
        {
          "internalType": "bool",
          "name": "",
          "type": "bool"
        }
      ],
      "stateMutability": "view",
      "type": "function"
    },
    {
      "inputs": [],
      "name": "symbol",
      "outputs": [
        {
          "internalType": "string",
          "name": "",
          "type": "string"
        }
      ],
      "stateMutability": "view",
      "type": "function"
    },
    {
      "inputs": [
        {
          "internalType": "uint256",
          "name": "tokenId",
          "type": "uint256"
        }
      ],
      "name": "tokenURI",
      "outputs": [
        {
          "internalType": "string",
          "name": "",
          "type": "string"
        }
      ],
      "stateMutability": "view",
      "type": "function"
    },
    {
      "inputs": [
        {
          "internalType": "address",
          "name": "",
          "type": "address"
        },
        {
          "internalType": "address",
          "name": "",
          "type": "address"
        },
        {
          "internalType": "uint256",
          "name": "",
          "type": "uint256"
        }
      ],
      "name": "transferFrom",
      "outputs": [],
      "stateMutability": "pure",
      "type": "function"
    },
    {
      "inputs": [
        {
          "internalType": "address",
          "name": "newOwner",
          "type": "address"
        }
      ],
      "name": "transferOwnership",
      "outputs": [],
      "stateMutability": "nonpayable",
      "type": "function"
    },
    {
      "inputs": [
        {
          "internalType": "address",
          "name": "newImplementation",
          "type": "address"
        },
        {
          "internalType": "bytes",
          "name": "data",
          "type": "bytes"
        }
      ],
      "name": "upgradeToAndCall",
      "outputs": [],
      "stateMutability": "payable",
      "type": "function"
    },
    {
      "inputs": [
        {
          "internalType": "address",
          "name": "",
          "type": "address"
        },
        {
          "internalType": "uint256",
          "name": "",
          "type": "uint256"
        }
      ],
      "name": "userAchievements",
      "outputs": [
        {
          "internalType": "uint256",
          "name": "",
          "type": "uint256"
        }
      ],
      "stateMutability": "view",
      "type": "function"
    }
  ],
  "bytecode": "0x60a06040523060805234801561001457600080fd5b5061001d610022565b6100d4565b7ff0c57e16840df040f15088dc2f81fe391c3923bec73e23a9662efc9c229c6a00805468010000000000000000900460ff16156100725760405163f92ee8a960e01b815260040160405180910390fd5b80546001600160401b03908116146100d15780546001600160401b0319166001600160401b0390811782556040519081527fc7f505b2f371ae2175ee4913f4499e1f2633a7b5936321eed1cdaeb6115181d29060200160405180910390a15b50565b608051612149620000fe60003960008181610d3f01528181610d680152610ee601526121496000f3fe6080604052600436106101805760003560e01c806370a08231116100d6578063ad3cb1cc1161007f578063e985e9c511610059578063e985e9c51461044c578063f09153c4146104b4578063f2fde38b146104e157600080fd5b8063ad3cb1cc146103c8578063b88d4fde14610411578063c87b56dd1461042c57600080fd5b80638da5cb5b116100b05780638da5cb5b1461035657806395d89b4114610393578063a22cb465146103a857600080fd5b806370a082311461030c578063715018a61461032c5780638129fc1c1461034157600080fd5b806323b872dd116101385780634f1ef286116101125780634f1ef286146102c457806352d1902d146102d75780636352211e146102ec57600080fd5b806323b872dd1461025657806324548c601461027657806342842e0e146102a457600080fd5b8063081812fc11610169578063081812fc146101dc578063095ea7b3146102145780630fc7e0c31461023657600080fd5b806301ffc9a71461018557806306fdde03146101ba575b600080fd5b34801561019157600080fd5b506101a56101a0366004611b31565b610501565b60405190151581526020015b60405180910390f35b3480156101c657600080fd5b506101cf61059e565b6040516101b19190611b9e565b3480156101e857600080fd5b506101fc6101f7366004611bb1565b610654565b6040516001600160a01b0390911681526020016101b1565b34801561022057600080fd5b5061023461022f366004611be6565b61069c565b005b34801561024257600080fd5b50610234610251366004611c9c565b6106ab565b34801561026257600080fd5b50610234610271366004611cfe565b61073b565b34801561028257600080fd5b50610296610291366004611be6565b6107c8565b6040519081526020016101b1565b3480156102b057600080fd5b506102346102bf366004611cfe565b6107f9565b6102346102d2366004611d5a565b610819565b3480156102e357600080fd5b50610296610834565b3480156102f857600080fd5b506101fc610307366004611bb1565b610863565b34801561031857600080fd5b50610296610327366004611d9e565b61086e565b34801561033857600080fd5b506102346108f5565b34801561034d57600080fd5b50610234610909565b34801561036257600080fd5b507f9016d09d72d40fdae2fd8ceac6b6234c7706214fd39c1cd1e609a0528c199300546001600160a01b03166101fc565b34801561039f57600080fd5b506101cf610aad565b3480156103b457600080fd5b506102346103c3366004611db9565b610afe565b3480156103d457600080fd5b506101cf6040518060400160405280600581526020017f352e302e3000000000000000000000000000000000000000000000000000000081525081565b34801561041d57600080fd5b50610234610271366004611df5565b34801561043857600080fd5b506101cf610447366004611bb1565b610b09565b34801561045857600080fd5b506101a5610467366004611e5d565b6001600160a01b0391821660009081527f80bb2b638cc20bc4d0a60d66940f3ab4a00c1d7b313497ca82fb0b4ab00793056020908152604080832093909416825291909152205460ff1690565b3480156104c057600080fd5b506104d46104cf366004611d9e565b610b7e565b6040516101b19190611e90565b3480156104ed57600080fd5b506102346104fc366004611d9e565b610bea565b60006001600160e01b031982167f80ac58cd00000000000000000000000000000000000000000000000000000000148061056457506001600160e01b031982167f5b5e139f00000000000000000000000000000000000000000000000000000000145b8061059857507f01ffc9a7000000000000000000000000000000000000000000000000000000006001600160e01b03198316145b92915050565b7f80bb2b638cc20bc4d0a60d66940f3ab4a00c1d7b313497ca82fb0b4ab007930080546060919081906105d090611ed4565b80601f01602080910402602001604051908101604052809291908181526020018280546105fc90611ed4565b80156106495780601f1061061e57610100808354040283529160200191610649565b820191906000526020600020905b81548152906001019060200180831161062c57829003601f168201915b505050505091505090565b600061065f82610c41565b5060008281527f80bb2b638cc20bc4d0a60d66940f3ab4a00c1d7b313497ca82fb0b4ab007930460205260409020546001600160a01b0316610598565b6106a7828233610c99565b5050565b6106b3610ca6565b6000805490806106c283611f0e565b90915550506000546106d48382610d1a565b6001600160a01b0383166000818152600160208181526040808420805493840181558452922001839055517f2a61f547ba5bf846cf758fdf30cfbada376ff8325ca400d2bb5ce0970ca406d89061072e9084908690611f35565b60405180910390a2505050565b6040517f08c379a000000000000000000000000000000000000000000000000000000000815260206004820152602160248201527f416368696576656d656e743a205472616e73666572206e6f7420616c6c6f776560448201527f640000000000000000000000000000000000000000000000000000000000000060648201526084015b60405180910390fd5b600160205281600052604060002081815481106107e457600080fd5b90600052602060002001600091509150505481565b6108148383836040518060200160405280600081525061073b565b505050565b610821610d34565b61082a82610deb565b6106a78282610df3565b600061083e610edb565b507f360894a13ba1a3210667c828492db98dca3e2076cc3735a920a3ca505d382bbc90565b600061059882610c41565b60007f80bb2b638cc20bc4d0a60d66940f3ab4a00c1d7b313497ca82fb0b4ab00793006001600160a01b0383166108d4576040517f89c62b64000000000000000000000000000000000000000000000000000000008152600060048201526024016107bf565b6001600160a01b039092166000908152600390920160205250604090205490565b6108fd610ca6565b6109076000610f24565b565b6000610913610fa2565b805490915060ff68010000000000000000820416159067ffffffffffffffff166000811580156109405750825b905060008267ffffffffffffffff16600114801561095d5750303b155b90508115801561096b575080155b156109a2576040517ff92ee8a900000000000000000000000000000000000000000000000000000000815260040160405180910390fd5b845467ffffffffffffffff1916600117855583156109d657845468ff00000000000000001916680100000000000000001785555b610a4a6040518060400160405280601581526020017f426173654d6174636820416368696576656d656e7400000000000000000000008152506040518060400160405280600581526020017f424d414348000000000000000000000000000000000000000000000000000000815250610fcb565b610a5333610fdd565b610a5b610fee565b8315610aa657845468ff000000000000000019168555604051600181527fc7f505b2f371ae2175ee4913f4499e1f2633a7b5936321eed1cdaeb6115181d29060200160405180910390a15b5050505050565b7f80bb2b638cc20bc4d0a60d66940f3ab4a00c1d7b313497ca82fb0b4ab007930180546060917f80bb2b638cc20bc4d0a60d66940f3ab4a00c1d7b313497ca82fb0b4ab0079300916105d090611ed4565b6106a7338383610ff6565b6060610b1482610c41565b506000610b2c60408051602081019091526000815290565b90506000815111610b4c5760405180602001604052806000815250610b77565b80610b56846110d2565b604051602001610b67929190611f4e565b6040516020818303038152906040525b9392505050565b6001600160a01b038116600090815260016020908152604091829020805483518184028101840190945280845260609392830182828015610bde57602002820191906000526020600020905b815481526020019060010190808311610bca575b50505050509050919050565b610bf2610ca6565b6001600160a01b038116610c35576040517f1e4fbdf7000000000000000000000000000000000000000000000000000000008152600060048201526024016107bf565b610c3e81610f24565b50565b60008181527f80bb2b638cc20bc4d0a60d66940f3ab4a00c1d7b313497ca82fb0b4ab007930260205260408120546001600160a01b03168061059857604051637e27328960e01b8152600481018490526024016107bf565b6108148383836001611172565b33610cd87f9016d09d72d40fdae2fd8ceac6b6234c7706214fd39c1cd1e609a0528c199300546001600160a01b031690565b6001600160a01b031614610907576040517f118cdaa70000000000000000000000000000000000000000000000000000000081523360048201526024016107bf565b6106a78282604051806020016040528060008152506112fe565b306001600160a01b037f0000000000000000000000000000000000000000000000000000000000000000161480610dcd57507f00000000000000000000000000000000000000000000000000000000000000006001600160a01b0316610dc17f360894a13ba1a3210667c828492db98dca3e2076cc3735a920a3ca505d382bbc546001600160a01b031690565b6001600160a01b031614155b156109075760405163703e46dd60e11b815260040160405180910390fd5b610c3e610ca6565b816001600160a01b03166352d1902d6040518163ffffffff1660e01b8152600401602060405180830381865afa925050508015610e4d575060408051601f3d908101601f19168201909252610e4a91810190611f7d565b60015b610e7557604051634c9c8ce360e01b81526001600160a01b03831660048201526024016107bf565b7f360894a13ba1a3210667c828492db98dca3e2076cc3735a920a3ca505d382bbc8114610ed1576040517faa1d49a4000000000000000000000000000000000000000000000000000000008152600481018290526024016107bf565b6108148383611316565b306001600160a01b037f000000000000000000000000000000000000000000000000000000000000000016146109075760405163703e46dd60e11b815260040160405180910390fd5b7f9016d09d72d40fdae2fd8ceac6b6234c7706214fd39c1cd1e609a0528c199300805473ffffffffffffffffffffffffffffffffffffffff1981166001600160a01b03848116918217845560405192169182907f8be0079c531659141344cd1fd0a4f28419497f9722a3daafe3b4186f6b6457e090600090a3505050565b6000807ff0c57e16840df040f15088dc2f81fe391c3923bec73e23a9662efc9c229c6a00610598565b610fd361136c565b6106a782826113aa565b610fe561136c565b610c3e816113f3565b61090761136c565b7f80bb2b638cc20bc4d0a60d66940f3ab4a00c1d7b313497ca82fb0b4ab00793006001600160a01b038316611062576040517f5b08ba180000000000000000000000000000000000000000000000000000000081526001600160a01b03841660048201526024016107bf565b6001600160a01b038481166000818152600584016020908152604080832094881680845294825291829020805460ff191687151590811790915591519182527f17307eab39ab6107e8899845ad3d59bd9653f200f220920489ca2b5937696c31910160405180910390a350505050565b606060006110df836113fb565b600101905060008167ffffffffffffffff8111156110ff576110ff611c10565b6040519080825280601f01601f191660200182016040528015611129576020820181803683370190505b5090508181016020015b600019017f3031323334353637383961626364656600000000000000000000000000000000600a86061a8153600a850494508461113357509392505050565b7f80bb2b638cc20bc4d0a60d66940f3ab4a00c1d7b313497ca82fb0b4ab007930081806111a757506001600160a01b03831615155b156112c05760006111b785610c41565b90506001600160a01b038416158015906111e35750836001600160a01b0316816001600160a01b031614155b801561123457506001600160a01b0380821660009081527f80bb2b638cc20bc4d0a60d66940f3ab4a00c1d7b313497ca82fb0b4ab0079305602090815260408083209388168352929052205460ff16155b15611276576040517fa9fbf51f0000000000000000000000000000000000000000000000000000000081526001600160a01b03851660048201526024016107bf565b82156112be5784866001600160a01b0316826001600160a01b03167f8c5be1e5ebec7d5bd14f71427d1e84f3dd0314c0f7b2291e5b200ac8c7c3b92560405160405180910390a45b505b6000938452600401602052505060409020805473ffffffffffffffffffffffffffffffffffffffff19166001600160a01b0392909216919091179055565b61130883836114dd565b61081433600085858561155b565b61131f82611685565b6040516001600160a01b038316907fbc7cd75a20ee27fd9adebab32041f755214dbc6bffa90cc0225b39da2e5c2d3b90600090a2805115611364576108148282611709565b6106a761177f565b6113746117b7565b610907576040517fd7e6bcf800000000000000000000000000000000000000000000000000000000815260040160405180910390fd5b6113b261136c565b7f80bb2b638cc20bc4d0a60d66940f3ab4a00c1d7b313497ca82fb0b4ab0079300806113de8482611fde565b50600181016113ed8382611fde565b50505050565b610bf261136c565b6000807a184f03e93ff9f4daa797ed6e38ed64bf6a1f0100000000000000008310611444577a184f03e93ff9f4daa797ed6e38ed64bf6a1f010000000000000000830492506040015b6d04ee2d6d415b85acef81000000008310611470576d04ee2d6d415b85acef8100000000830492506020015b662386f26fc10000831061148e57662386f26fc10000830492506010015b6305f5e10083106114a6576305f5e100830492506008015b61271083106114ba57612710830492506004015b606483106114cc576064830492506002015b600a83106105985760010192915050565b6001600160a01b03821661150757604051633250574960e11b8152600060048201526024016107bf565b6000611515838360006117d6565b90506001600160a01b03811615610814576040517f73c6ac6e000000000000000000000000000000000000000000000000000000008152600060048201526024016107bf565b6001600160a01b0383163b15610aa657604051630a85bd0160e11b81526001600160a01b0384169063150b7a029061159d90889088908790879060040161209e565b6020604051808303816000875af19250505080156115d8575060408051601f3d908101601f191682019092526115d5918101906120da565b60015b611641573d808015611606576040519150601f19603f3d011682016040523d82523d6000602084013e61160b565b606091505b50805160000361163957604051633250574960e11b81526001600160a01b03851660048201526024016107bf565b805160208201fd5b6001600160e01b03198116630a85bd0160e11b1461167d57604051633250574960e11b81526001600160a01b03851660048201526024016107bf565b505050505050565b806001600160a01b03163b6000036116bb57604051634c9c8ce360e01b81526001600160a01b03821660048201526024016107bf565b7f360894a13ba1a3210667c828492db98dca3e2076cc3735a920a3ca505d382bbc805473ffffffffffffffffffffffffffffffffffffffff19166001600160a01b0392909216919091179055565b6060600080846001600160a01b03168460405161172691906120f7565b600060405180830381855af49150503d8060008114611761576040519150601f19603f3d011682016040523d82523d6000602084013e611766565b606091505b5091509150611776858383611924565b95945050505050565b3415610907576040517fb398979f00000000000000000000000000000000000000000000000000000000815260040160405180910390fd5b60006117c1610fa2565b5468010000000000000000900460ff16919050565b60008281527f80bb2b638cc20bc4d0a60d66940f3ab4a00c1d7b313497ca82fb0b4ab007930260205260408120547f80bb2b638cc20bc4d0a60d66940f3ab4a00c1d7b313497ca82fb0b4ab0079300906001600160a01b039081169084161561184457611844818587611999565b6001600160a01b0381161561188457611861600086600080611172565b6001600160a01b0381166000908152600383016020526040902080546000190190555b6001600160a01b038616156118b5576001600160a01b03861660009081526003830160205260409020805460010190555b6000858152600283016020526040808220805473ffffffffffffffffffffffffffffffffffffffff19166001600160a01b038a811691821790925591518893918516917fddf252ad1be2c89b69c2b068fc378daa952ba7f163c4a11628f55a4df523b3ef91a495945050505050565b6060826119395761193482611a16565b610b77565b815115801561195057506001600160a01b0384163b155b15611992576040517f9996b3150000000000000000000000000000000000000000000000000000000081526001600160a01b03851660048201526024016107bf565b5080610b77565b6119a4838383611a57565b610814576001600160a01b0383166119d257604051637e27328960e01b8152600481018290526024016107bf565b6040517f177e802f0000000000000000000000000000000000000000000000000000000081526001600160a01b0383166004820152602481018290526044016107bf565b805115611a2557805160208201fd5b6040517fd6bda27500000000000000000000000000000000000000000000000000000000815260040160405180910390fd5b60006001600160a01b03831615801590611b135750826001600160a01b0316846001600160a01b03161480611ad057506001600160a01b0380851660009081527f80bb2b638cc20bc4d0a60d66940f3ab4a00c1d7b313497ca82fb0b4ab0079305602090815260408083209387168352929052205460ff165b80611b13575060008281527f80bb2b638cc20bc4d0a60d66940f3ab4a00c1d7b313497ca82fb0b4ab007930460205260409020546001600160a01b038481169116145b949350505050565b6001600160e01b031981168114610c3e57600080fd5b600060208284031215611b4357600080fd5b8135610b7781611b1b565b60005b83811015611b69578181015183820152602001611b51565b50506000910152565b60008151808452611b8a816020860160208601611b4e565b601f01601f19169290920160200192915050565b602081526000610b776020830184611b72565b600060208284031215611bc357600080fd5b5035919050565b80356001600160a01b0381168114611be157600080fd5b919050565b60008060408385031215611bf957600080fd5b611c0283611bca565b946020939093013593505050565b634e487b7160e01b600052604160045260246000fd5b600067ffffffffffffffff80841115611c4157611c41611c10565b604051601f8501601f19908116603f01168101908282118183101715611c6957611c69611c10565b81604052809350858152868686011115611c8257600080fd5b858560208301376000602087830101525050509392505050565b60008060408385031215611caf57600080fd5b611cb883611bca565b9150602083013567ffffffffffffffff811115611cd457600080fd5b8301601f81018513611ce557600080fd5b611cf485823560208401611c26565b9150509250929050565b600080600060608486031215611d1357600080fd5b611d1c84611bca565b9250611d2a60208501611bca565b9150604084013590509250925092565b600082601f830112611d4b57600080fd5b610b7783833560208501611c26565b60008060408385031215611d6d57600080fd5b611d7683611bca565b9150602083013567ffffffffffffffff811115611d9257600080fd5b611cf485828601611d3a565b600060208284031215611db057600080fd5b610b7782611bca565b60008060408385031215611dcc57600080fd5b611dd583611bca565b915060208301358015158114611dea57600080fd5b809150509250929050565b60008060008060808587031215611e0b57600080fd5b611e1485611bca565b9350611e2260208601611bca565b925060408501359150606085013567ffffffffffffffff811115611e4557600080fd5b611e5187828801611d3a565b91505092959194509250565b60008060408385031215611e7057600080fd5b611e7983611bca565b9150611e8760208401611bca565b90509250929050565b6020808252825182820181905260009190848201906040850190845b81811015611ec857835183529284019291840191600101611eac565b50909695505050505050565b600181811c90821680611ee857607f821691505b602082108103611f0857634e487b7160e01b600052602260045260246000fd5b50919050565b600060018201611f2e57634e487b7160e01b600052601160045260246000fd5b5060010190565b828152604060208201526000611b136040830184611b72565b60008351611f60818460208801611b4e565b835190830190611f74818360208801611b4e565b01949350505050565b600060208284031215611f8f57600080fd5b5051919050565b601f821115610814576000816000526020600020601f850160051c81016020861015611fbf5750805b601f850160051c820191505b8181101561167d57828155600101611fcb565b815167ffffffffffffffff811115611ff857611ff8611c10565b61200c816120068454611ed4565b84611f96565b602080601f83116001811461204157600084156120295750858301515b600019600386901b1c1916600185901b17855561167d565b600085815260208120601f198616915b8281101561207057888601518255948401946001909101908401612051565b508582101561208e5787850151600019600388901b60f8161c191681555b5050505050600190811b01905550565b60006001600160a01b038087168352808616602084015250836040830152608060608301526120d06080830184611b72565b9695505050505050565b6000602082840312156120ec57600080fd5b8151610b7781611b1b565b60008251612109818460208701611b4e565b919091019291505056fea26469706673582212201a4c6178613acaf7bb19e2af120d9dc276e1b5438f605cd054bcc4d05e1bb37064736f6c63430008160033",
  "linkReferences": {},
  "deployedLinkReferences": {}
}