{
  "_format": "hh-sol-artifact-1",
  "contractName": "TimelockUpgradeController",
  "sourceName": "contracts/TimelockUpgradeController.sol",
  "abi": [
    {
      "inputs": [],
      "stateMutability": "nonpayable",
      "type": "constructor"
    },
    {
      "inputs": [
        {
          "internalType": "address",
          "name": "owner",
          "type": "address"
        }
      ],
      "name": "OwnableInvalidOwner",
      "type": "error"
    },
    {
      "inputs": [
        {
          "internalType": "address",
          "name": "account",
          "type": "address"
        }
      ],
      "name": "OwnableUnauthorizedAccount",
      "type": "error"
    },
    {
      "anonymous": false,
      "inputs": [
        {
          "indexed": true,
          "internalType": "address",
          "name": "previousOwner",
          "type": "address"
        },
        {
          "indexed": true,
          "internalType": "address",
          "name": "newOwner",
          "type": "address"
        }
      ],
      "name": "OwnershipTransferred",
      "type": "event"
    },
    {
      "anonymous": false,
      "inputs": [
        {
          "indexed": true,
          "internalType": "bytes32",
          "name": "proposalId",
          "type": "bytes32"
        }
      ],
      "name": "ProposalCancelled",
      "type": "event"
    },
    {
      "anonymous": false,
      "inputs": [
        {
          "indexed": true,
          "internalType": "bytes32",
          "name": "proposalId",
          "type": "bytes32"
        },
        {
          "indexed": true,
          "internalType": "address",
          "name": "target",
          "type": "address"
        },
        {
          "indexed": true,
          "internalType": "address",
          "name": "newImplementation",
          "type": "address"
        }
      ],
      "name": "UpgradeExecuted",
      "type": "event"
    },
    {
      "anonymous": false,
      "inputs": [
        {
          "indexed": true,
          "internalType": "bytes32",
          "name": "proposalId",
          "type": "bytes32"
        },
        {
          "indexed": true,
          "internalType": "address",
          "name": "target",
          "type": "address"
        },
        {
          "indexed": true,
          "internalType": "address",
          "name": "newImplementation",
          "type": "address"
        },
        {
          "indexed": false,
          "internalType": "uint256",
          "name": "eta",
          "type": "uint256"
        }
      ],
      "name": "UpgradeProposed",
      "type": "event"
    },
    {
      "inputs": [],
      "name": "UPGRADE_DELAY",
      "outputs": [
        {
          "internalType": "uint256",
          "name": "",
          "type": "uint256"
        }
      ],
      "stateMutability": "view",
      "type": "function"
    },
    {
      "inputs": [
        {
          "internalType": "bytes32",
          "name": "proposalId",
          "type": "bytes32"
        }
      ],
      "name": "cancelUpgrade",
      "outputs": [],
      "stateMutability": "nonpayable",
      "type": "function"
    },
    {
      "inputs": [
        {
          "internalType": "bytes32",
          "name": "proposalId",
          "type": "bytes32"
        }
      ],
      "name": "getProposal",
      "outputs": [
        {
          "internalType": "address",
          "name": "target",
          "type": "address"
        },
        {
          "internalType": "address",
          "name": "newImplementation",
          "type": "address"
        },
        {
          "internalType": "uint256",
          "name": "eta",
          "type": "uint256"
        },
        {
          "internalType": "bool",
          "name": "executed",
          "type": "bool"
        },
        {
          "internalType": "bool",
          "name": "cancelled",
          "type": "bool"
        }
      ],
      "stateMutability": "view",
      "type": "function"
    },
    {
      "inputs": [
        {
          "internalType": "bytes32",
          "name": "proposalId",
          "type": "bytes32"
        }
      ],
      "name": "getTimeUntilReady",
      "outputs": [
        {
          "internalType": "uint256",
          "name": "",
          "type": "uint256"
        }
      ],
      "stateMutability": "view",
      "type": "function"
    },
    {
      "inputs": [
        {
          "internalType": "bytes32",
          "name": "proposalId",
          "type": "bytes32"
        }
      ],
      "name": "isUpgradeReady",
      "outputs": [
        {
          "internalType": "bool",
          "name": "",
          "type": "bool"
        }
      ],
      "stateMutability": "view",
      "type": "function"
    },
    {
      "inputs": [],
      "name": "owner",
      "outputs": [
        {
          "internalType": "address",
          "name": "",
          "type": "address"
        }
      ],
      "stateMutability": "view",
      "type": "function"
    },
    {
      "inputs": [
        {
          "internalType": "bytes32",
          "name": "",
          "type": "bytes32"
        }
      ],
      "name": "proposals",
      "outputs": [
        {
          "internalType": "address",
          "name": "target",
          "type": "address"
        },
        {
          "internalType": "address",
          "name": "newImplementation",
          "type": "address"
        },
        {
          "internalType": "uint256",
          "name": "eta",
          "type": "uint256"
        },
        {
          "internalType": "bool",
          "name": "executed",
          "type": "bool"
        },
        {
          "internalType": "bool",
          "name": "cancelled",
          "type": "bool"
        }
      ],
      "stateMutability": "view",
      "type": "function"
    },
    {
      "inputs": [
        {
          "internalType": "address",
          "name": "target",
          "type": "address"
        },
        {
          "internalType": "address",
          "name": "newImplementation",
          "type": "address"
        }
      ],
      "name": "proposeUpgrade",
      "outputs": [
        {
          "internalType": "bytes32",
          "name": "",
          "type": "bytes32"
        }
      ],
      "stateMutability": "nonpayable",
      "type": "function"
    },
    {
      "inputs": [],
      "name": "renounceOwnership",
      "outputs": [],
      "stateMutability": "nonpayable",
      "type": "function"
    },
    {
      "inputs": [
        {
          "internalType": "address",
          "name": "newOwner",
          "type": "address"
        }
      ],
      "name": "transferOwnership",
      "outputs": [],
      "stateMutability": "nonpayable",
      "type": "function"
    }
  ],
  "bytecode": "0x608060405234801561000f575f80fd5b50338061003557604051631e4fbdf760e01b81525f600482015260240160405180910390fd5b61003e81610044565b50610093565b5f80546001600160a01b038381166001600160a01b0319831681178455604051919092169283917f8be0079c531659141344cd1fd0a4f28419497f9722a3daafe3b4186f6b6457e09190a35050565b6107cf806100a05f395ff3fe608060405234801561000f575f80fd5b50600436106100b9575f3560e01c806361dbda1f11610072578063887fbd1c11610058578063887fbd1c146102025780638da5cb5b14610215578063f2fde38b1461022f575f80fd5b806361dbda1f146101d7578063715018a6146101fa575f80fd5b8063337781ea116100a2578063337781ea14610169578063430694cf1461017e57806347fe8b1d146101cd575f80fd5b80631c7fd872146100bd57806332ed5b12146100e3575b5f80fd5b6100d06100cb3660046106ca565b610242565b6040519081526020015b60405180910390f35b6101326100f13660046106ca565b600160208190525f918252604090912080549181015460028201546003909201546001600160a01b0393841693909116919060ff8082169161010090041685565b604080516001600160a01b03968716815295909416602086015292840191909152151560608301521515608082015260a0016100da565b61017c6101773660046106ca565b610279565b005b61013261018c3660046106ca565b5f90815260016020819052604090912080549181015460028201546003909201546001600160a01b0393841694939091169260ff8083169261010090041690565b6100d06202a30081565b6101ea6101e53660046106ca565b610381565b60405190151581526020016100da565b61017c6103c1565b6100d06102103660046106fc565b6103d4565b5f546040516001600160a01b0390911681526020016100da565b61017c61023d36600461072d565b6105d3565b5f8181526001602052604081206002810154421061026257505f92915050565b4281600201546102729190610773565b9392505050565b610281610629565b5f818152600160205260409020600381015460ff16156102e85760405162461bcd60e51b815260206004820152601860248201527f5570677261646520616c7265616479206578656375746564000000000000000060448201526064015b60405180910390fd5b6003810154610100900460ff16156103425760405162461bcd60e51b815260206004820152601960248201527f5570677261646520616c72656164792063616e63656c6c65640000000000000060448201526064016102df565b60038101805461ff00191661010017905560405182907f7bf38ee614622e33a85c9c8b9f0dca88e471d781640cddbb75c90e2bdeb6e125905f90a25050565b5f818152600160205260408120600281015442108015906103a75750600381015460ff16155b8015610272575060030154610100900460ff161592915050565b6103c9610629565b6103d25f61066e565b565b5f6103dd610629565b6001600160a01b0383166104335760405162461bcd60e51b815260206004820152600e60248201527f496e76616c69642074617267657400000000000000000000000000000000000060448201526064016102df565b6001600160a01b0382166104895760405162461bcd60e51b815260206004820152601660248201527f496e76616c696420696d706c656d656e746174696f6e0000000000000000000060448201526064016102df565b6040516bffffffffffffffffffffffff19606085811b8216602084015284901b1660348201524260488201525f906068016040516020818303038152906040528051906020012090505f6202a300426104e29190610786565b6040805160a0810182526001600160a01b0388811680835288821660208085018281528587018881525f60608801818152608089018281528d83526001808752928b902099518a54908a1673ffffffffffffffffffffffffffffffffffffffff19918216178b559451928a018054939099169290941691909117909655516002870155935160039095018054945115156101000261ff00199615159690961661ffff19909516949094179490941790925592518481529394509285917f20c09f04a3c4660e03c3b1836e69bf88e5ea247b034cc4df083a89af1eb425ec910160405180910390a45090505b92915050565b6105db610629565b6001600160a01b03811661061d576040517f1e4fbdf70000000000000000000000000000000000000000000000000000000081525f60048201526024016102df565b6106268161066e565b50565b5f546001600160a01b031633146103d2576040517f118cdaa70000000000000000000000000000000000000000000000000000000081523360048201526024016102df565b5f80546001600160a01b0383811673ffffffffffffffffffffffffffffffffffffffff19831681178455604051919092169283917f8be0079c531659141344cd1fd0a4f28419497f9722a3daafe3b4186f6b6457e09190a35050565b5f602082840312156106da575f80fd5b5035919050565b80356001600160a01b03811681146106f7575f80fd5b919050565b5f806040838503121561070d575f80fd5b610716836106e1565b9150610724602084016106e1565b90509250929050565b5f6020828403121561073d575f80fd5b610272826106e1565b7f4e487b71000000000000000000000000000000000000000000000000000000005f52601160045260245ffd5b818103818111156105cd576105cd610746565b808201808211156105cd576105cd61074656fea2646970667358221220d0729bb94c68540eb03704826091eb835e69d7f2df864c3396403b4516e63c3d64736f6c63430008160033",
  "linkReferences": {},
  "deployedLinkReferences": {}
}