{
  "_format": "hh-sol-artifact-1",
  "contractName": "Staking",
  "sourceName": "contracts/Staking.sol",
  "abi": [
    {
      "inputs": [
        {
          "internalType": "address",
          "name": "target",
          "type": "address"
        }
      ],
      "name": "AddressEmptyCode",
      "type": "error"
    },
    {
      "inputs": [
        {
          "internalType": "address",
          "name": "implementation",
          "type": "address"
        }
      ],
      "name": "ERC1967InvalidImplementation",
      "type": "error"
    },
    {
      "inputs": [],
      "name": "ERC1967NonPayable",
      "type": "error"
    },
    {
      "inputs": [],
      "name": "FailedCall",
      "type": "error"
    },
    {
      "inputs": [],
      "name": "InvalidInitialization",
      "type": "error"
    },
    {
      "inputs": [],
      "name": "NotInitializing",
      "type": "error"
    },
    {
      "inputs": [
        {
          "internalType": "address",
          "name": "owner",
          "type": "address"
        }
      ],
      "name": "OwnableInvalidOwner",
      "type": "error"
    },
    {
      "inputs": [
        {
          "internalType": "address",
          "name": "account",
          "type": "address"
        }
      ],
      "name": "OwnableUnauthorizedAccount",
      "type": "error"
    },
    {
      "inputs": [],
      "name": "ReentrancyGuardReentrantCall",
      "type": "error"
    },
    {
      "inputs": [],
      "name": "UUPSUnauthorizedCallContext",
      "type": "error"
    },
    {
      "inputs": [
        {
          "internalType": "bytes32",
          "name": "slot",
          "type": "bytes32"
        }
      ],
      "name": "UUPSUnsupportedProxiableUUID",
      "type": "error"
    },
    {
      "anonymous": false,
      "inputs": [
        {
          "indexed": false,
          "internalType": "uint64",
          "name": "version",
          "type": "uint64"
        }
      ],
      "name": "Initialized",
      "type": "event"
    },
    {
      "anonymous": false,
      "inputs": [
        {
          "indexed": true,
          "internalType": "uint256",
          "name": "stakeId",
          "type": "uint256"
        },
        {
          "indexed": true,
          "internalType": "address",
          "name": "confirmer",
          "type": "address"
        },
        {
          "indexed": false,
          "internalType": "bool",
          "name": "iShowedUp",
          "type": "bool"
        },
        {
          "indexed": false,
          "internalType": "bool",
          "name": "theyShowedUp",
          "type": "bool"
        }
      ],
      "name": "MeetingConfirmed",
      "type": "event"
    },
    {
      "anonymous": false,
      "inputs": [
        {
          "indexed": true,
          "internalType": "address",
          "name": "previousOwner",
          "type": "address"
        },
        {
          "indexed": true,
          "internalType": "address",
          "name": "newOwner",
          "type": "address"
        }
      ],
      "name": "OwnershipTransferred",
      "type": "event"
    },
    {
      "anonymous": false,
      "inputs": [
        {
          "indexed": true,
          "internalType": "uint256",
          "name": "stakeId",
          "type": "uint256"
        },
        {
          "indexed": true,
          "internalType": "address",
          "name": "user2",
          "type": "address"
        },
        {
          "indexed": false,
          "internalType": "uint256",
          "name": "amount",
          "type": "uint256"
        }
      ],
      "name": "StakeAccepted",
      "type": "event"
    },
    {
      "anonymous": false,
      "inputs": [
        {
          "indexed": true,
          "internalType": "uint256",
          "name": "stakeId",
          "type": "uint256"
        },
        {
          "indexed": true,
          "internalType": "address",
          "name": "user1",
          "type": "address"
        },
        {
          "indexed": true,
          "internalType": "address",
          "name": "user2",
          "type": "address"
        },
        {
          "indexed": false,
          "internalType": "uint256",
          "name": "amount",
          "type": "uint256"
        },
        {
          "indexed": false,
          "internalType": "uint256",
          "name": "meetingTime",
          "type": "uint256"
        }
      ],
      "name": "StakeCreated",
      "type": "event"
    },
    {
      "anonymous": false,
      "inputs": [
        {
          "indexed": true,
          "internalType": "uint256",
          "name": "stakeId",
          "type": "uint256"
        },
        {
          "indexed": false,
          "internalType": "uint256",
          "name": "user1Payout",
          "type": "uint256"
        },
        {
          "indexed": false,
          "internalType": "uint256",
          "name": "user2Payout",
          "type": "uint256"
        },
        {
          "indexed": false,
          "internalType": "uint256",
          "name": "platformFee",
          "type": "uint256"
        },
        {
          "indexed": false,
          "internalType": "string",
          "name": "outcome",
          "type": "string"
        }
      ],
      "name": "StakeProcessed",
      "type": "event"
    },
    {
      "anonymous": false,
      "inputs": [
        {
          "indexed": true,
          "internalType": "address",
          "name": "implementation",
          "type": "address"
        }
      ],
      "name": "UpgradeCancelled",
      "type": "event"
    },
    {
      "anonymous": false,
      "inputs": [
        {
          "indexed": true,
          "internalType": "address",
          "name": "implementation",
          "type": "address"
        }
      ],
      "name": "UpgradeExecuted",
      "type": "event"
    },
    {
      "anonymous": false,
      "inputs": [
        {
          "indexed": true,
          "internalType": "address",
          "name": "implementation",
          "type": "address"
        },
        {
          "indexed": false,
          "internalType": "uint256",
          "name": "eta",
          "type": "uint256"
        }
      ],
      "name": "UpgradeProposed",
      "type": "event"
    },
    {
      "anonymous": false,
      "inputs": [
        {
          "indexed": true,
          "internalType": "address",
          "name": "implementation",
          "type": "address"
        }
      ],
      "name": "Upgraded",
      "type": "event"
    },
    {
      "inputs": [],
      "name": "COMPASSION_REFUND_PERCENT",
      "outputs": [
        {
          "internalType": "uint256",
          "name": "",
          "type": "uint256"
        }
      ],
      "stateMutability": "view",
      "type": "function"
    },
    {
      "inputs": [],
      "name": "CONFIRMATION_WINDOW",
      "outputs": [
        {
          "internalType": "uint256",
          "name": "",
          "type": "uint256"
        }
      ],
      "stateMutability": "view",
      "type": "function"
    },
    {
      "inputs": [],
      "name": "PLATFORM_FEE_PERCENT",
      "outputs": [
        {
          "internalType": "uint256",
          "name": "",
          "type": "uint256"
        }
      ],
      "stateMutability": "view",
      "type": "function"
    },
    {
      "inputs": [],
      "name": "UPGRADE_DELAY",
      "outputs": [
        {
          "internalType": "uint256",
          "name": "",
          "type": "uint256"
        }
      ],
      "stateMutability": "view",
      "type": "function"
    },
    {
      "inputs": [],
      "name": "UPGRADE_INTERFACE_VERSION",
      "outputs": [
        {
          "internalType": "string",
          "name": "",
          "type": "string"
        }
      ],
      "stateMutability": "view",
      "type": "function"
    },
    {
      "inputs": [
        {
          "internalType": "uint256",
          "name": "stakeId",
          "type": "uint256"
        }
      ],
      "name": "acceptStake",
      "outputs": [],
      "stateMutability": "nonpayable",
      "type": "function"
    },
    {
      "inputs": [
        {
          "internalType": "uint256",
          "name": "stakeId",
          "type": "uint256"
        }
      ],
      "name": "cancelStake",
      "outputs": [],
      "stateMutability": "nonpayable",
      "type": "function"
    },
    {
      "inputs": [],
      "name": "cancelUpgrade",
      "outputs": [],
      "stateMutability": "nonpayable",
      "type": "function"
    },
    {
      "inputs": [
        {
          "internalType": "uint256",
          "name": "stakeId",
          "type": "uint256"
        },
        {
          "internalType": "bool",
          "name": "iShowedUp",
          "type": "bool"
        },
        {
          "internalType": "bool",
          "name": "theyShowedUp",
          "type": "bool"
        }
      ],
      "name": "confirmMeeting",
      "outputs": [],
      "stateMutability": "nonpayable",
      "type": "function"
    },
    {
      "inputs": [
        {
          "internalType": "uint256",
          "name": "",
          "type": "uint256"
        },
        {
          "internalType": "address",
          "name": "",
          "type": "address"
        }
      ],
      "name": "confirmations",
      "outputs": [
        {
          "internalType": "bool",
          "name": "hasConfirmed",
          "type": "bool"
        },
        {
          "internalType": "bool",
          "name": "iShowedUp",
          "type": "bool"
        },
        {
          "internalType": "bool",
          "name": "theyShowedUp",
          "type": "bool"
        }
      ],
      "stateMutability": "view",
      "type": "function"
    },
    {
      "inputs": [
        {
          "internalType": "address",
          "name": "user2",
          "type": "address"
        },
        {
          "internalType": "uint256",
          "name": "amount",
          "type": "uint256"
        },
        {
          "internalType": "uint256",
          "name": "meetingTime",
          "type": "uint256"
        }
      ],
      "name": "createStake",
      "outputs": [
        {
          "internalType": "uint256",
          "name": "",
          "type": "uint256"
        }
      ],
      "stateMutability": "nonpayable",
      "type": "function"
    },
    {
      "inputs": [
        {
          "internalType": "uint256",
          "name": "stakeId",
          "type": "uint256"
        },
        {
          "internalType": "address",
          "name": "user",
          "type": "address"
        }
      ],
      "name": "getConfirmation",
      "outputs": [
        {
          "components": [
            {
              "internalType": "bool",
              "name": "hasConfirmed",
              "type": "bool"
            },
            {
              "internalType": "bool",
              "name": "iShowedUp",
              "type": "bool"
            },
            {
              "internalType": "bool",
              "name": "theyShowedUp",
              "type": "bool"
            }
          ],
          "internalType": "struct Staking.MeetingConfirmation",
          "name": "",
          "type": "tuple"
        }
      ],
      "stateMutability": "view",
      "type": "function"
    },
    {
      "inputs": [
        {
          "internalType": "uint256",
          "name": "stakeId",
          "type": "uint256"
        }
      ],
      "name": "getStake",
      "outputs": [
        {
          "components": [
            {
              "internalType": "address",
              "name": "user1",
              "type": "address"
            },
            {
              "internalType": "address",
              "name": "user2",
              "type": "address"
            },
            {
              "internalType": "uint256",
              "name": "user1Amount",
              "type": "uint256"
            },
            {
              "internalType": "uint256",
              "name": "user2Amount",
              "type": "uint256"
            },
            {
              "internalType": "uint256",
              "name": "totalStaked",
              "type": "uint256"
            },
            {
              "internalType": "uint256",
              "name": "meetingTime",
              "type": "uint256"
            },
            {
              "internalType": "bool",
              "name": "user1Staked",
              "type": "bool"
            },
            {
              "internalType": "bool",
              "name": "user2Staked",
              "type": "bool"
            },
            {
              "internalType": "bool",
              "name": "processed",
              "type": "bool"
            },
            {
              "internalType": "uint256",
              "name": "createdAt",
              "type": "uint256"
            }
          ],
          "internalType": "struct Staking.Stake",
          "name": "",
          "type": "tuple"
        }
      ],
      "stateMutability": "view",
      "type": "function"
    },
    {
      "inputs": [
        {
          "internalType": "address",
          "name": "_usdc",
          "type": "address"
        }
      ],
      "name": "initialize",
      "outputs": [],
      "stateMutability": "nonpayable",
      "type": "function"
    },
    {
      "inputs": [],
      "name": "owner",
      "outputs": [
        {
          "internalType": "address",
          "name": "",
          "type": "address"
        }
      ],
      "stateMutability": "view",
      "type": "function"
    },
    {
      "inputs": [],
      "name": "pendingImplementation",
      "outputs": [
        {
          "internalType": "address",
          "name": "",
          "type": "address"
        }
      ],
      "stateMutability": "view",
      "type": "function"
    },
    {
      "inputs": [
        {
          "internalType": "uint256",
          "name": "stakeId",
          "type": "uint256"
        }
      ],
      "name": "processExpiredStake",
      "outputs": [],
      "stateMutability": "nonpayable",
      "type": "function"
    },
    {
      "inputs": [
        {
          "internalType": "address",
          "name": "newImplementation",
          "type": "address"
        }
      ],
      "name": "proposeUpgrade",
      "outputs": [],
      "stateMutability": "nonpayable",
      "type": "function"
    },
    {
      "inputs": [],
      "name": "proxiableUUID",
      "outputs": [
        {
          "internalType": "bytes32",
          "name": "",
          "type": "bytes32"
        }
      ],
      "stateMutability": "view",
      "type": "function"
    },
    {
      "inputs": [],
      "name": "renounceOwnership",
      "outputs": [],
      "stateMutability": "nonpayable",
      "type": "function"
    },
    {
      "inputs": [],
      "name": "stakeCounter",
      "outputs": [
        {
          "internalType": "uint256",
          "name": "",
          "type": "uint256"
        }
      ],
      "stateMutability": "view",
      "type": "function"
    },
    {
      "inputs": [
        {
          "internalType": "uint256",
          "name": "",
          "type": "uint256"
        }
      ],
      "name": "stakes",
      "outputs": [
        {
          "internalType": "address",
          "name": "user1",
          "type": "address"
        },
        {
          "internalType": "address",
          "name": "user2",
          "type": "address"
        },
        {
          "internalType": "uint256",
          "name": "user1Amount",
          "type": "uint256"
        },
        {
          "internalType": "uint256",
          "name": "user2Amount",
          "type": "uint256"
        },
        {
          "internalType": "uint256",
          "name": "totalStaked",
          "type": "uint256"
        },
        {
          "internalType": "uint256",
          "name": "meetingTime",
          "type": "uint256"
        },
        {
          "internalType": "bool",
          "name": "user1Staked",
          "type": "bool"
        },
        {
          "internalType": "bool",
          "name": "user2Staked",
          "type": "bool"
        },
        {
          "internalType": "bool",
          "name": "processed",
          "type": "bool"
        },
        {
          "internalType": "uint256",
          "name": "createdAt",
          "type": "uint256"
        }
      ],
      "stateMutability": "view",
      "type": "function"
    },
    {
      "inputs": [
        {
          "internalType": "address",
          "name": "newOwner",
          "type": "address"
        }
      ],
      "name": "transferOwnership",
      "outputs": [],
      "stateMutability": "nonpayable",
      "type": "function"
    },
    {
      "inputs": [],
      "name": "upgradeETA",
      "outputs": [
        {
          "internalType": "uint256",
          "name": "",
          "type": "uint256"
        }
      ],
      "stateMutability": "view",
      "type": "function"
    },
    {
      "inputs": [
        {
          "internalType": "address",
          "name": "newImplementation",
          "type": "address"
        },
        {
          "internalType": "bytes",
          "name": "data",
          "type": "bytes"
        }
      ],
      "name": "upgradeToAndCall",
      "outputs": [],
      "stateMutability": "payable",
      "type": "function"
    },
    {
      "inputs": [],
      "name": "usdc",
      "outputs": [
        {
          "internalType": "contract IERC20",
          "name": "",
          "type": "address"
        }
      ],
      "stateMutability": "view",
      "type": "function"
    }
  ],
  "bytecode": "0x60a060405230608052348015610013575f80fd5b5060805161314261003a5f395f81816126520152818161267b015261294301526131425ff3fe608060405260043610610199575f3560e01c8063715018a6116100dc578063c915fc9311610087578063d5a44f8611610062578063d5a44f86146105bc578063d8de948014610699578063f2fde38b146106b8578063f7b17d10146106d7575f80fd5b8063c915fc9314610440578063ce325bf81461045f578063d0192e3714610575575f80fd5b80638da5cb5b116100b75780638da5cb5b14610390578063ad3cb1cc146103cc578063c4d66de814610421575f80fd5b8063715018a61461035d57806381a4952e1461037157806386e2d5df146102a3575f80fd5b80634e5548ce1161014757806352d1902d1161012257806352d1902d1461030c57806355f2916614610320578063560d52d41461033457806367a9e64c14610348575f80fd5b80634e5548ce146102b95780634ed11ea5146102da5780634f1ef286146102f9575f80fd5b80633e413bee116101775780633e413bee1461027157806341ab38571461028f57806347fe8b1d146102a3575f80fd5b80633411c81c1461019d578063396f7b231461020d5780633c09cfc614610244575b5f80fd5b3480156101a8575f80fd5b506101e96101b7366004612d68565b600260209081525f928352604080842090915290825290205460ff808216916101008104821691620100009091041683565b60408051931515845291151560208401521515908201526060015b60405180910390f35b348015610218575f80fd5b5060045461022c906001600160a01b031681565b6040516001600160a01b039091168152602001610204565b34801561024f575f80fd5b5061026361025e366004612d92565b6106ec565b604051908152602001610204565b34801561027c575f80fd5b505f5461022c906001600160a01b031681565b34801561029a575f80fd5b50610263601481565b3480156102ae575f80fd5b506102636202a30081565b3480156102c4575f80fd5b506102d86102d3366004612dc2565b610b07565b005b3480156102e5575f80fd5b506102d86102f4366004612de6565b610fc4565b6102d8610307366004612e39565b611370565b348015610317575f80fd5b5061026361138f565b34801561032b575f80fd5b506102d86113bd565b34801561033f575f80fd5b50610263600581565b348015610353575f80fd5b5061026360055481565b348015610368575f80fd5b506102d861146c565b34801561037c575f80fd5b506102d861038b366004612dc2565b61147f565b34801561039b575f80fd5b507f9016d09d72d40fdae2fd8ceac6b6234c7706214fd39c1cd1e609a0528c199300546001600160a01b031661022c565b3480156103d7575f80fd5b506104146040518060400160405280600581526020017f352e302e3000000000000000000000000000000000000000000000000000000081525081565b6040516102049190612f42565b34801561042c575f80fd5b506102d861043b366004612f54565b611799565b34801561044b575f80fd5b506102d861045a366004612f54565b6118e9565b34801561046a575f80fd5b50610568610479366004612dc2565b60408051610140810182525f80825260208201819052918101829052606081018290526080810182905260a0810182905260c0810182905260e081018290526101008101829052610120810191909152505f9081526001602081815260409283902083516101408101855281546001600160a01b03908116825293820154909316918301919091526002810154928201929092526003820154606082015260048201546080820152600582015460a0820152600682015460ff808216151560c08401526101008083048216151560e0850152620100009092041615159082015260079091015461012082015290565b6040516102049190612f6d565b348015610580575f80fd5b5061059461058f366004612d68565b6119b5565b6040805182511515815260208084015115159082015291810151151590820152606001610204565b3480156105c7575f80fd5b5061063e6105d6366004612dc2565b600160208190525f9182526040909120805491810154600282015460038301546004840154600585015460068601546007909601546001600160a01b039788169790951695939492939192909160ff808216926101008304821692620100009004909116908a565b604080516001600160a01b039b8c1681529a90991660208b0152978901969096526060880194909452608087019290925260a0860152151560c0850152151560e0840152151561010083015261012082015261014001610204565b3480156106a4575f80fd5b506102d86106b3366004612dc2565b611a27565b3480156106c3575f80fd5b506102d86106d2366004612f54565b611d11565b3480156106e2575f80fd5b5061026360035481565b5f6106f5611d64565b6001600160a01b0384166107505760405162461bcd60e51b815260206004820152601560248201527f496e76616c69642075736572322061646472657373000000000000000000000060448201526064015b60405180910390fd5b336001600160a01b038516036107a85760405162461bcd60e51b815260206004820152601a60248201527f43616e6e6f74207374616b65207769746820796f757273656c660000000000006044820152606401610747565b624c4b408310156107fb5760405162461bcd60e51b815260206004820152601760248201527f4d696e696d756d207374616b65206973203520555344430000000000000000006044820152606401610747565b42821161084a5760405162461bcd60e51b815260206004820152601960248201527f4d656574696e67206d75737420626520696e20667574757265000000000000006044820152606401610747565b600380545f918261085a8361301d565b909155505f546040516323b872dd60e01b8152336004820152306024820152604481018790529192506001600160a01b0316906323b872dd906064016020604051808303815f875af11580156108b2573d5f803e3d5ffd5b505050506040513d601f19601f820116820180604052508101906108d69190613035565b6109225760405162461bcd60e51b815260206004820152600f60248201527f5472616e73666572206661696c656400000000000000000000000000000000006044820152606401610747565b604051806101400160405280336001600160a01b03168152602001866001600160a01b031681526020018581526020015f81526020018581526020018481526020016001151581526020015f151581526020015f151581526020014281525060015f8381526020019081526020015f205f820151815f015f6101000a8154816001600160a01b0302191690836001600160a01b031602179055506020820151816001015f6101000a8154816001600160a01b0302191690836001600160a01b0316021790555060408201518160020155606082015181600301556080820151816004015560a0820151816005015560c0820151816006015f6101000a81548160ff02191690831515021790555060e08201518160060160016101000a81548160ff0219169083151502179055506101008201518160060160026101000a81548160ff0219169083151502179055506101208201518160070155905050846001600160a01b0316336001600160a01b0316827f8663756ecd3b02533219d14493197b44f4a0311d1dc833a2e3573ecdd6cd5bd88787604051610acd929190918252602082015260400190565b60405180910390a49050610b0060017f9b779b17422d0df92223018b32b4d1fa46e071723d6817e2486d003becc55f0055565b9392505050565b610b0f611d64565b5f818152600160205260409020600681015460ff168015610b3957506006810154610100900460ff165b610b855760405162461bcd60e51b815260206004820152601260248201527f5374616b65206e6f7420636f6d706c65746500000000000000000000000000006044820152606401610747565b600681015462010000900460ff1615610bd45760405162461bcd60e51b8152602060048201526011602482015270105b1c9958591e481c1c9bd8d95cdcd959607a1b6044820152606401610747565b6202a3008160050154610be79190613050565b4211610c355760405162461bcd60e51b815260206004820152601e60248201527f436f6e6669726d6174696f6e2077696e646f77207374696c6c206f70656e00006044820152606401610747565b5f60648260040154600a610c499190613063565b610c53919061307a565b90505f6002828460040154610c689190613099565b610c72919061307a565b60068401805462ff00001916620100001790555f54845460405163a9059cbb60e01b81526001600160a01b03918216600482015260248101849052929350169063a9059cbb906044016020604051808303815f875af1158015610cd7573d5f803e3d5ffd5b505050506040513d601f19601f82011682018060405250810190610cfb9190613035565b610d475760405162461bcd60e51b815260206004820152601560248201527f5573657231207472616e73666572206661696c656400000000000000000000006044820152606401610747565b5f54600184015460405163a9059cbb60e01b81526001600160a01b0391821660048201526024810184905291169063a9059cbb906044016020604051808303815f875af1158015610d9a573d5f803e3d5ffd5b505050506040513d601f19601f82011682018060405250810190610dbe9190613035565b610e0a5760405162461bcd60e51b815260206004820152601560248201527f5573657232207472616e73666572206661696c656400000000000000000000006044820152606401610747565b5f546001600160a01b031663a9059cbb610e4b7f9016d09d72d40fdae2fd8ceac6b6234c7706214fd39c1cd1e609a0528c199300546001600160a01b031690565b6040517fffffffff0000000000000000000000000000000000000000000000000000000060e084901b1681526001600160a01b039091166004820152602481018590526044016020604051808303815f875af1158015610ead573d5f803e3d5ffd5b505050506040513d601f19601f82011682018060405250810190610ed19190613035565b610f1d5760405162461bcd60e51b815260206004820152601360248201527f466565207472616e73666572206661696c6564000000000000000000000000006044820152606401610747565b60408051828152602081018390529081018390526080606082018190526007908201527f74696d656f75740000000000000000000000000000000000000000000000000060a082015284907ff46a7b5e78bde6aca13cbf04933204950fb860b4c1645abdc8dbf2d067dc17869060c00160405180910390a2505050610fc160017f9b779b17422d0df92223018b32b4d1fa46e071723d6817e2486d003becc55f0055565b50565b610fcc611d64565b5f83815260016020526040902080546001600160a01b0316331480610ffd575060018101546001600160a01b031633145b6110495760405162461bcd60e51b815260206004820152601160248201527f4e6f742061207061727469636970616e740000000000000000000000000000006044820152606401610747565b600681015460ff16801561106657506006810154610100900460ff165b6110b25760405162461bcd60e51b815260206004820152601260248201527f5374616b65206e6f7420636f6d706c65746500000000000000000000000000006044820152606401610747565b600681015462010000900460ff16156111015760405162461bcd60e51b8152602060048201526011602482015270105b1c9958591e481c1c9bd8d95cdcd959607a1b6044820152606401610747565b80600501544210156111555760405162461bcd60e51b815260206004820152601b60248201527f4d656574696e67206861736e2774206f636375727265642079657400000000006044820152606401610747565b6202a30081600501546111689190613050565b4211156111b75760405162461bcd60e51b815260206004820152601a60248201527f436f6e6669726d6174696f6e2077696e646f7720636c6f7365640000000000006044820152606401610747565b5f84815260026020908152604080832033845290915290205460ff16156112205760405162461bcd60e51b815260206004820152601160248201527f416c726561647920636f6e6669726d65640000000000000000000000000000006044820152606401610747565b604080516060810182526001815284151560208083019182528515158385019081525f8981526002835285812033808352935285902093518454935191511515620100000262ff0000199215156101000261ff00199215159290921661ffff1990951694909417171691909117909155905185907fc3f614fc872697fb99df5635708f7fb73e68af9e9e89a3ffc09206bb002501e1906112d0908790879091151582521515602082015260400190565b60405180910390a380545f906001600160a01b031633146112fb5781546001600160a01b031661130a565b60018201546001600160a01b03165b5f8681526002602090815260408083206001600160a01b038516845290915290205490915060ff16156113405761134085611ded565b505061136b60017f9b779b17422d0df92223018b32b4d1fa46e071723d6817e2486d003becc55f0055565b505050565b611378612647565b611381826126fe565b61138b8282612850565b5050565b5f611398612938565b507f360894a13ba1a3210667c828492db98dca3e2076cc3735a920a3ca505d382bbc90565b6113c5612981565b6004546001600160a01b031661141d5760405162461bcd60e51b815260206004820152601260248201527f4e6f2070656e64696e67207570677261646500000000000000000000000000006044820152606401610747565b600480546001600160a01b031981169091555f60058190556040516001600160a01b039092169182917f3198dc80249fcfedbd0d06e1ff49a7695a51b006592328ce0b127cdeab77e93691a250565b611474612981565b61147d5f6129f5565b565b611487611d64565b5f818152600160208190526040909120908101546001600160a01b031633146114f25760405162461bcd60e51b815260206004820152601460248201527f4e6f7420746865206d61746368656420757365720000000000000000000000006044820152606401610747565b600681015460ff166115465760405162461bcd60e51b815260206004820152601160248201527f5374616b65206e6f7420637265617465640000000000000000000000000000006044820152606401610747565b6006810154610100900460ff16156115a05760405162461bcd60e51b815260206004820152601060248201527f416c7265616479206163636570746564000000000000000000000000000000006044820152606401610747565b600681015462010000900460ff16156115ef5760405162461bcd60e51b8152602060048201526011602482015270105b1c9958591e481c1c9bd8d95cdcd959607a1b6044820152606401610747565b806005015442106116425760405162461bcd60e51b815260206004820152601360248201527f4d656574696e672074696d6520706173736564000000000000000000000000006044820152606401610747565b60028101545f546040516323b872dd60e01b8152336004820152306024820152604481018390526001600160a01b03909116906323b872dd906064016020604051808303815f875af115801561169a573d5f803e3d5ffd5b505050506040513d601f19601f820116820180604052508101906116be9190613035565b61170a5760405162461bcd60e51b815260206004820152600f60248201527f5472616e73666572206661696c656400000000000000000000000000000000006044820152606401610747565b6003820181905560068201805461ff0019166101001790556002820154611732908290613050565b6004830155604051818152339084907faf84b9a32c98be0e06d5f11733fed35e270c58d34c6986070b6f05d3cd9399779060200160405180910390a35050610fc160017f9b779b17422d0df92223018b32b4d1fa46e071723d6817e2486d003becc55f0055565b5f6117a2612a65565b805490915060ff68010000000000000000820416159067ffffffffffffffff165f811580156117ce5750825b90505f8267ffffffffffffffff1660011480156117ea5750303b155b9050811580156117f8575080155b1561182f576040517ff92ee8a900000000000000000000000000000000000000000000000000000000815260040160405180910390fd5b845467ffffffffffffffff19166001178555831561186357845468ff00000000000000001916680100000000000000001785555b61186c33612a8d565b611874612a9e565b61187c612aa6565b5f80546001600160a01b0319166001600160a01b03881617905583156118e157845468ff000000000000000019168555604051600181527fc7f505b2f371ae2175ee4913f4499e1f2633a7b5936321eed1cdaeb6115181d29060200160405180910390a15b505050505050565b6118f1612981565b6001600160a01b0381166119475760405162461bcd60e51b815260206004820152601660248201527f496e76616c696420696d706c656d656e746174696f6e000000000000000000006044820152606401610747565b600480546001600160a01b0319166001600160a01b03831617905561196f6202a30042613050565b60058190556040519081526001600160a01b038216907fea80d7bcdb5b960a75976c0e94d2d4b2077378cfea983c73b49501b8613da2249060200160405180910390a250565b60408051606080820183525f8083526020808401829052928401819052858152600283528381206001600160a01b03861682528352839020835191820184525460ff80821615158352610100820481161515938301939093526201000090049091161515918101919091525b92915050565b611a2f611d64565b5f81815260016020526040902080546001600160a01b03163314611a955760405162461bcd60e51b815260206004820152601760248201527f4f6e6c792063726561746f722063616e2063616e63656c0000000000000000006044820152606401610747565b600681015460ff16611ae95760405162461bcd60e51b815260206004820152601160248201527f5374616b65206e6f7420637265617465640000000000000000000000000000006044820152606401610747565b6006810154610100900460ff1615611b435760405162461bcd60e51b815260206004820152601060248201527f416c7265616479206163636570746564000000000000000000000000000000006044820152606401610747565b600681015462010000900460ff1615611b925760405162461bcd60e51b8152602060048201526011602482015270105b1c9958591e481c1c9bd8d95cdcd959607a1b6044820152606401610747565b60068101805462ff00001916620100001790555f548154600283015460405163a9059cbb60e01b81526001600160a01b039283166004820152602481019190915291169063a9059cbb906044016020604051808303815f875af1158015611bfb573d5f803e3d5ffd5b505050506040513d601f19601f82011682018060405250810190611c1f9190613035565b611c6b5760405162461bcd60e51b815260206004820152600d60248201527f526566756e64206661696c6564000000000000000000000000000000000000006044820152606401610747565b6002810154604080519182525f60208301819052908201526080606082018190526009908201527f63616e63656c6c6564000000000000000000000000000000000000000000000060a082015282907ff46a7b5e78bde6aca13cbf04933204950fb860b4c1645abdc8dbf2d067dc17869060c00160405180910390a250610fc160017f9b779b17422d0df92223018b32b4d1fa46e071723d6817e2486d003becc55f0055565b611d19612981565b6001600160a01b038116611d5b576040517f1e4fbdf70000000000000000000000000000000000000000000000000000000081525f6004820152602401610747565b610fc1816129f5565b7f9b779b17422d0df92223018b32b4d1fa46e071723d6817e2486d003becc55f00805460011901611dc1576040517f3ee5aeb500000000000000000000000000000000000000000000000000000000815260040160405180910390fd5b60029055565b60017f9b779b17422d0df92223018b32b4d1fa46e071723d6817e2486d003becc55f0055565b5f8181526001602081815260408084206002835281852081546001600160a01b039081168752818552838720845160608082018752915460ff8082161515835261010080830482161515848b01908152620100009384900483161515858b01529a8801549095168b52948852868a2087518085018952905480871615158252948504861615159881019890985290920490921615159385019390935293519094919382918291908015611ea1575085604001515b8015611eae575084602001515b8015611ebb575084604001515b15611f3f57606460058860040154611ed39190613063565b611edd919061307a565b91505f6002838960040154611ef29190613099565b611efc919061307a565b60408051808201909152600b81527f626f74685f73686f776564000000000000000000000000000000000000000000602082015290955085945091506123449050565b85602001518015611f5257508560400151155b8015611f6057508460200151155b8015611f6d575084604001515b1561204557606460148860030154611f859190613063565b611f8f919061307a565b92505f60028860030154611fa3919061307a565b90505f818960020154611fb69190613050565b90505f6064611fc6600584613063565b611fd0919061307a565b9050611fdc8183613099565b965085878b60040154611fef9190613099565b611ff99190613099565b6120039082613050565b94506040518060400160405280600c81526020017f75736572315f73686f77656400000000000000000000000000000000000000008152509350505050612344565b8560200151158015612058575085604001515b8015612065575084602001515b801561207357508460400151155b1561214b5760646014886002015461208b9190613063565b612095919061307a565b93505f600288600201546120a9919061307a565b90505f8189600301546120bc9190613050565b90505f60646120cc600584613063565b6120d6919061307a565b90506120e28183613099565b955085878b600401546120f59190613099565b6120ff9190613099565b6121099082613050565b94506040518060400160405280600c81526020017f75736572325f73686f77656400000000000000000000000000000000000000008152509350505050612344565b856020015115801561215f57508460200151155b801561216d57508560400151155b801561217b57508460400151155b15612218576064601488600201546121939190613063565b61219d919061307a565b93506064601488600301546121b29190613063565b6121bc919061307a565b9250828488600401546121cf9190613099565b6121d99190613099565b91506040518060400160405280600e81526020017f6e6569746865725f73686f7765640000000000000000000000000000000000008152509050612344565b8560200151801561222b57508560400151155b8015612238575084602001515b801561224657508460400151155b156122ca5760648760040154600a61225e9190613063565b612268919061307a565b91505f600283896004015461227d9190613099565b612287919061307a565b60408051808201909152600881527f636f6e666c696374000000000000000000000000000000000000000000000000602082015290955085945091506123449050565b60648760040154600a6122dd9190613063565b6122e7919061307a565b91505f60028389600401546122fc9190613099565b612306919061307a565b60408051808201909152600881527f6d69736d6174636800000000000000000000000000000000000000000000000060208201529095508594509150505b60068701805462ff0000191662010000179055831561241d575f54875460405163a9059cbb60e01b81526001600160a01b0391821660048201526024810187905291169063a9059cbb906044016020604051808303815f875af11580156123ad573d5f803e3d5ffd5b505050506040513d601f19601f820116820180604052508101906123d19190613035565b61241d5760405162461bcd60e51b815260206004820152601560248201527f5573657231207472616e73666572206661696c656400000000000000000000006044820152606401610747565b82156124e6575f54600188015460405163a9059cbb60e01b81526001600160a01b0391821660048201526024810186905291169063a9059cbb906044016020604051808303815f875af1158015612476573d5f803e3d5ffd5b505050506040513d601f19601f8201168201806040525081019061249a9190613035565b6124e65760405162461bcd60e51b815260206004820152601560248201527f5573657232207472616e73666572206661696c656400000000000000000000006044820152606401610747565b81156125ff575f546001600160a01b031663a9059cbb61252d7f9016d09d72d40fdae2fd8ceac6b6234c7706214fd39c1cd1e609a0528c199300546001600160a01b031690565b6040517fffffffff0000000000000000000000000000000000000000000000000000000060e084901b1681526001600160a01b039091166004820152602481018590526044016020604051808303815f875af115801561258f573d5f803e3d5ffd5b505050506040513d601f19601f820116820180604052508101906125b39190613035565b6125ff5760405162461bcd60e51b815260206004820152601360248201527f466565207472616e73666572206661696c6564000000000000000000000000006044820152606401610747565b877ff46a7b5e78bde6aca13cbf04933204950fb860b4c1645abdc8dbf2d067dc17868585858560405161263594939291906130ac565b60405180910390a25050505050505050565b306001600160a01b037f00000000000000000000000000000000000000000000000000000000000000001614806126e057507f00000000000000000000000000000000000000000000000000000000000000006001600160a01b03166126d47f360894a13ba1a3210667c828492db98dca3e2076cc3735a920a3ca505d382bbc546001600160a01b031690565b6001600160a01b031614155b1561147d5760405163703e46dd60e11b815260040160405180910390fd5b612706612981565b6004546001600160a01b038281169116146127635760405162461bcd60e51b815260206004820152601f60248201527f4e6f74207468652070726f706f73656420696d706c656d656e746174696f6e006044820152606401610747565b6005544210156127b55760405162461bcd60e51b815260206004820152601560248201527f557067726164652064656c6179206e6f74206d657400000000000000000000006044820152606401610747565b6005545f036128065760405162461bcd60e51b815260206004820152601360248201527f4e6f20757067726164652070726f706f736564000000000000000000000000006044820152606401610747565b600480546001600160a01b03191690555f60058190556040516001600160a01b038316917ffd5a9ae7c73c11fde86dd61704e937a04c99e7eef668050f685aabc5d8a6b2e491a250565b816001600160a01b03166352d1902d6040518163ffffffff1660e01b8152600401602060405180830381865afa9250505080156128aa575060408051601f3d908101601f191682019092526128a7918101906130da565b60015b6128d257604051634c9c8ce360e01b81526001600160a01b0383166004820152602401610747565b7f360894a13ba1a3210667c828492db98dca3e2076cc3735a920a3ca505d382bbc811461292e576040517faa1d49a400000000000000000000000000000000000000000000000000000000815260048101829052602401610747565b61136b8383612ab6565b306001600160a01b037f0000000000000000000000000000000000000000000000000000000000000000161461147d5760405163703e46dd60e11b815260040160405180910390fd5b336129b37f9016d09d72d40fdae2fd8ceac6b6234c7706214fd39c1cd1e609a0528c199300546001600160a01b031690565b6001600160a01b03161461147d576040517f118cdaa7000000000000000000000000000000000000000000000000000000008152336004820152602401610747565b7f9016d09d72d40fdae2fd8ceac6b6234c7706214fd39c1cd1e609a0528c19930080546001600160a01b031981166001600160a01b03848116918217845560405192169182907f8be0079c531659141344cd1fd0a4f28419497f9722a3daafe3b4186f6b6457e0905f90a3505050565b5f807ff0c57e16840df040f15088dc2f81fe391c3923bec73e23a9662efc9c229c6a00611a21565b612a95612b0b565b610fc181612b49565b61147d612b0b565b612aae612b0b565b61147d612b51565b612abf82612b59565b6040516001600160a01b038316907fbc7cd75a20ee27fd9adebab32041f755214dbc6bffa90cc0225b39da2e5c2d3b905f90a2805115612b035761136b8282612bcf565b61138b612c41565b612b13612c79565b61147d576040517fd7e6bcf800000000000000000000000000000000000000000000000000000000815260040160405180910390fd5b611d19612b0b565b611dc7612b0b565b806001600160a01b03163b5f03612b8e57604051634c9c8ce360e01b81526001600160a01b0382166004820152602401610747565b7f360894a13ba1a3210667c828492db98dca3e2076cc3735a920a3ca505d382bbc80546001600160a01b0319166001600160a01b0392909216919091179055565b60605f80846001600160a01b031684604051612beb91906130f1565b5f60405180830381855af49150503d805f8114612c23576040519150601f19603f3d011682016040523d82523d5f602084013e612c28565b606091505b5091509150612c38858383612c97565b95945050505050565b341561147d576040517fb398979f00000000000000000000000000000000000000000000000000000000815260040160405180910390fd5b5f612c82612a65565b5468010000000000000000900460ff16919050565b606082612cac57612ca782612d0c565b610b00565b8151158015612cc357506001600160a01b0384163b155b15612d05576040517f9996b3150000000000000000000000000000000000000000000000000000000081526001600160a01b0385166004820152602401610747565b5080610b00565b805115612d1b57805160208201fd5b6040517fd6bda27500000000000000000000000000000000000000000000000000000000815260040160405180910390fd5b80356001600160a01b0381168114612d63575f80fd5b919050565b5f8060408385031215612d79575f80fd5b82359150612d8960208401612d4d565b90509250929050565b5f805f60608486031215612da4575f80fd5b612dad84612d4d565b95602085013595506040909401359392505050565b5f60208284031215612dd2575f80fd5b5035919050565b8015158114610fc1575f80fd5b5f805f60608486031215612df8575f80fd5b833592506020840135612e0a81612dd9565b91506040840135612e1a81612dd9565b809150509250925092565b634e487b7160e01b5f52604160045260245ffd5b5f8060408385031215612e4a575f80fd5b612e5383612d4d565b9150602083013567ffffffffffffffff80821115612e6f575f80fd5b818501915085601f830112612e82575f80fd5b813581811115612e9457612e94612e25565b604051601f8201601f19908116603f01168101908382118183101715612ebc57612ebc612e25565b81604052828152886020848701011115612ed4575f80fd5b826020860160208301375f6020848301015280955050505050509250929050565b5f5b83811015612f0f578181015183820152602001612ef7565b50505f910152565b5f8151808452612f2e816020860160208601612ef5565b601f01601f19169290920160200192915050565b602081525f610b006020830184612f17565b5f60208284031215612f64575f80fd5b610b0082612d4d565b81516001600160a01b0316815261014081016020830151612f9960208401826001600160a01b03169052565b5060408301516040830152606083015160608301526080830151608083015260a083015160a083015260c0830151612fd560c084018215159052565b5060e0830151612fe960e084018215159052565b506101008381015180151584830152505061012092830151919092015290565b634e487b7160e01b5f52601160045260245ffd5b5f6001820161302e5761302e613009565b5060010190565b5f60208284031215613045575f80fd5b8151610b0081612dd9565b80820180821115611a2157611a21613009565b8082028115828204841417611a2157611a21613009565b5f8261309457634e487b7160e01b5f52601260045260245ffd5b500490565b81810381811115611a2157611a21613009565b848152836020820152826040820152608060608201525f6130d06080830184612f17565b9695505050505050565b5f602082840312156130ea575f80fd5b5051919050565b5f8251613102818460208701612ef5565b919091019291505056fea264697066735822122089c18a0a0ed601dbee9d45f69119c65c355402ab1f009cdb3165449def58c43264736f6c63430008160033",
  "linkReferences": {},
  "deployedLinkReferences": {}
}