{
  "_format": "hh-sol-artifact-1",
  "contractName": "Staking",
  "sourceName": "contracts/Staking.sol",
  "abi": [
    {
      "inputs": [
        {
          "internalType": "address",
          "name": "target",
          "type": "address"
        }
      ],
      "name": "AddressEmptyCode",
      "type": "error"
    },
    {
      "inputs": [
        {
          "internalType": "address",
          "name": "implementation",
          "type": "address"
        }
      ],
      "name": "ERC1967InvalidImplementation",
      "type": "error"
    },
    {
      "inputs": [],
      "name": "ERC1967NonPayable",
      "type": "error"
    },
    {
      "inputs": [],
      "name": "FailedCall",
      "type": "error"
    },
    {
      "inputs": [],
      "name": "InvalidInitialization",
      "type": "error"
    },
    {
      "inputs": [],
      "name": "NotInitializing",
      "type": "error"
    },
    {
      "inputs": [
        {
          "internalType": "address",
          "name": "owner",
          "type": "address"
        }
      ],
      "name": "OwnableInvalidOwner",
      "type": "error"
    },
    {
      "inputs": [
        {
          "internalType": "address",
          "name": "account",
          "type": "address"
        }
      ],
      "name": "OwnableUnauthorizedAccount",
      "type": "error"
    },
    {
      "inputs": [],
      "name": "ReentrancyGuardReentrantCall",
      "type": "error"
    },
    {
      "inputs": [],
      "name": "UUPSUnauthorizedCallContext",
      "type": "error"
    },
    {
      "inputs": [
        {
          "internalType": "bytes32",
          "name": "slot",
          "type": "bytes32"
        }
      ],
      "name": "UUPSUnsupportedProxiableUUID",
      "type": "error"
    },
    {
      "anonymous": false,
      "inputs": [
        {
          "indexed": false,
          "internalType": "uint64",
          "name": "version",
          "type": "uint64"
        }
      ],
      "name": "Initialized",
      "type": "event"
    },
    {
      "anonymous": false,
      "inputs": [
        {
          "indexed": true,
          "internalType": "uint256",
          "name": "stakeId",
          "type": "uint256"
        },
        {
          "indexed": true,
          "internalType": "address",
          "name": "confirmer",
          "type": "address"
        },
        {
          "indexed": false,
          "internalType": "bool",
          "name": "iShowedUp",
          "type": "bool"
        },
        {
          "indexed": false,
          "internalType": "bool",
          "name": "theyShowedUp",
          "type": "bool"
        }
      ],
      "name": "MeetingConfirmed",
      "type": "event"
    },
    {
      "anonymous": false,
      "inputs": [
        {
          "indexed": true,
          "internalType": "address",
          "name": "previousOwner",
          "type": "address"
        },
        {
          "indexed": true,
          "internalType": "address",
          "name": "newOwner",
          "type": "address"
        }
      ],
      "name": "OwnershipTransferred",
      "type": "event"
    },
    {
      "anonymous": false,
      "inputs": [
        {
          "indexed": true,
          "internalType": "uint256",
          "name": "stakeId",
          "type": "uint256"
        },
        {
          "indexed": true,
          "internalType": "address",
          "name": "user2",
          "type": "address"
        },
        {
          "indexed": false,
          "internalType": "uint256",
          "name": "amount",
          "type": "uint256"
        }
      ],
      "name": "StakeAccepted",
      "type": "event"
    },
    {
      "anonymous": false,
      "inputs": [
        {
          "indexed": true,
          "internalType": "uint256",
          "name": "stakeId",
          "type": "uint256"
        },
        {
          "indexed": true,
          "internalType": "address",
          "name": "user1",
          "type": "address"
        },
        {
          "indexed": true,
          "internalType": "address",
          "name": "user2",
          "type": "address"
        },
        {
          "indexed": false,
          "internalType": "uint256",
          "name": "amount",
          "type": "uint256"
        },
        {
          "indexed": false,
          "internalType": "uint256",
          "name": "meetingTime",
          "type": "uint256"
        }
      ],
      "name": "StakeCreated",
      "type": "event"
    },
    {
      "anonymous": false,
      "inputs": [
        {
          "indexed": true,
          "internalType": "uint256",
          "name": "stakeId",
          "type": "uint256"
        },
        {
          "indexed": false,
          "internalType": "uint256",
          "name": "user1Payout",
          "type": "uint256"
        },
        {
          "indexed": false,
          "internalType": "uint256",
          "name": "user2Payout",
          "type": "uint256"
        },
        {
          "indexed": false,
          "internalType": "uint256",
          "name": "platformFee",
          "type": "uint256"
        },
        {
          "indexed": false,
          "internalType": "string",
          "name": "outcome",
          "type": "string"
        }
      ],
      "name": "StakeProcessed",
      "type": "event"
    },
    {
      "anonymous": false,
      "inputs": [
        {
          "indexed": true,
          "internalType": "address",
          "name": "implementation",
          "type": "address"
        }
      ],
      "name": "Upgraded",
      "type": "event"
    },
    {
      "inputs": [],
      "name": "COMPASSION_REFUND_PERCENT",
      "outputs": [
        {
          "internalType": "uint256",
          "name": "",
          "type": "uint256"
        }
      ],
      "stateMutability": "view",
      "type": "function"
    },
    {
      "inputs": [],
      "name": "CONFIRMATION_WINDOW",
      "outputs": [
        {
          "internalType": "uint256",
          "name": "",
          "type": "uint256"
        }
      ],
      "stateMutability": "view",
      "type": "function"
    },
    {
      "inputs": [],
      "name": "PLATFORM_FEE_PERCENT",
      "outputs": [
        {
          "internalType": "uint256",
          "name": "",
          "type": "uint256"
        }
      ],
      "stateMutability": "view",
      "type": "function"
    },
    {
      "inputs": [],
      "name": "UPGRADE_INTERFACE_VERSION",
      "outputs": [
        {
          "internalType": "string",
          "name": "",
          "type": "string"
        }
      ],
      "stateMutability": "view",
      "type": "function"
    },
    {
      "inputs": [
        {
          "internalType": "uint256",
          "name": "stakeId",
          "type": "uint256"
        }
      ],
      "name": "acceptStake",
      "outputs": [],
      "stateMutability": "nonpayable",
      "type": "function"
    },
    {
      "inputs": [
        {
          "internalType": "uint256",
          "name": "stakeId",
          "type": "uint256"
        }
      ],
      "name": "cancelStake",
      "outputs": [],
      "stateMutability": "nonpayable",
      "type": "function"
    },
    {
      "inputs": [
        {
          "internalType": "uint256",
          "name": "stakeId",
          "type": "uint256"
        },
        {
          "internalType": "bool",
          "name": "iShowedUp",
          "type": "bool"
        },
        {
          "internalType": "bool",
          "name": "theyShowedUp",
          "type": "bool"
        }
      ],
      "name": "confirmMeeting",
      "outputs": [],
      "stateMutability": "nonpayable",
      "type": "function"
    },
    {
      "inputs": [
        {
          "internalType": "uint256",
          "name": "",
          "type": "uint256"
        },
        {
          "internalType": "address",
          "name": "",
          "type": "address"
        }
      ],
      "name": "confirmations",
      "outputs": [
        {
          "internalType": "bool",
          "name": "hasConfirmed",
          "type": "bool"
        },
        {
          "internalType": "bool",
          "name": "iShowedUp",
          "type": "bool"
        },
        {
          "internalType": "bool",
          "name": "theyShowedUp",
          "type": "bool"
        }
      ],
      "stateMutability": "view",
      "type": "function"
    },
    {
      "inputs": [
        {
          "internalType": "address",
          "name": "user2",
          "type": "address"
        },
        {
          "internalType": "uint256",
          "name": "amount",
          "type": "uint256"
        },
        {
          "internalType": "uint256",
          "name": "meetingTime",
          "type": "uint256"
        }
      ],
      "name": "createStake",
      "outputs": [
        {
          "internalType": "uint256",
          "name": "",
          "type": "uint256"
        }
      ],
      "stateMutability": "nonpayable",
      "type": "function"
    },
    {
      "inputs": [
        {
          "internalType": "uint256",
          "name": "stakeId",
          "type": "uint256"
        },
        {
          "internalType": "address",
          "name": "user",
          "type": "address"
        }
      ],
      "name": "getConfirmation",
      "outputs": [
        {
          "components": [
            {
              "internalType": "bool",
              "name": "hasConfirmed",
              "type": "bool"
            },
            {
              "internalType": "bool",
              "name": "iShowedUp",
              "type": "bool"
            },
            {
              "internalType": "bool",
              "name": "theyShowedUp",
              "type": "bool"
            }
          ],
          "internalType": "struct Staking.MeetingConfirmation",
          "name": "",
          "type": "tuple"
        }
      ],
      "stateMutability": "view",
      "type": "function"
    },
    {
      "inputs": [
        {
          "internalType": "uint256",
          "name": "stakeId",
          "type": "uint256"
        }
      ],
      "name": "getStake",
      "outputs": [
        {
          "components": [
            {
              "internalType": "address",
              "name": "user1",
              "type": "address"
            },
            {
              "internalType": "address",
              "name": "user2",
              "type": "address"
            },
            {
              "internalType": "uint256",
              "name": "user1Amount",
              "type": "uint256"
            },
            {
              "internalType": "uint256",
              "name": "user2Amount",
              "type": "uint256"
            },
            {
              "internalType": "uint256",
              "name": "totalStaked",
              "type": "uint256"
            },
            {
              "internalType": "uint256",
              "name": "meetingTime",
              "type": "uint256"
            },
            {
              "internalType": "bool",
              "name": "user1Staked",
              "type": "bool"
            },
            {
              "internalType": "bool",
              "name": "user2Staked",
              "type": "bool"
            },
            {
              "internalType": "bool",
              "name": "processed",
              "type": "bool"
            },
            {
              "internalType": "uint256",
              "name": "createdAt",
              "type": "uint256"
            }
          ],
          "internalType": "struct Staking.Stake",
          "name": "",
          "type": "tuple"
        }
      ],
      "stateMutability": "view",
      "type": "function"
    },
    {
      "inputs": [
        {
          "internalType": "address",
          "name": "_usdc",
          "type": "address"
        }
      ],
      "name": "initialize",
      "outputs": [],
      "stateMutability": "nonpayable",
      "type": "function"
    },
    {
      "inputs": [],
      "name": "owner",
      "outputs": [
        {
          "internalType": "address",
          "name": "",
          "type": "address"
        }
      ],
      "stateMutability": "view",
      "type": "function"
    },
    {
      "inputs": [
        {
          "internalType": "uint256",
          "name": "stakeId",
          "type": "uint256"
        }
      ],
      "name": "processExpiredStake",
      "outputs": [],
      "stateMutability": "nonpayable",
      "type": "function"
    },
    {
      "inputs": [],
      "name": "proxiableUUID",
      "outputs": [
        {
          "internalType": "bytes32",
          "name": "",
          "type": "bytes32"
        }
      ],
      "stateMutability": "view",
      "type": "function"
    },
    {
      "inputs": [],
      "name": "renounceOwnership",
      "outputs": [],
      "stateMutability": "nonpayable",
      "type": "function"
    },
    {
      "inputs": [],
      "name": "stakeCounter",
      "outputs": [
        {
          "internalType": "uint256",
          "name": "",
          "type": "uint256"
        }
      ],
      "stateMutability": "view",
      "type": "function"
    },
    {
      "inputs": [
        {
          "internalType": "uint256",
          "name": "",
          "type": "uint256"
        }
      ],
      "name": "stakes",
      "outputs": [
        {
          "internalType": "address",
          "name": "user1",
          "type": "address"
        },
        {
          "internalType": "address",
          "name": "user2",
          "type": "address"
        },
        {
          "internalType": "uint256",
          "name": "user1Amount",
          "type": "uint256"
        },
        {
          "internalType": "uint256",
          "name": "user2Amount",
          "type": "uint256"
        },
        {
          "internalType": "uint256",
          "name": "totalStaked",
          "type": "uint256"
        },
        {
          "internalType": "uint256",
          "name": "meetingTime",
          "type": "uint256"
        },
        {
          "internalType": "bool",
          "name": "user1Staked",
          "type": "bool"
        },
        {
          "internalType": "bool",
          "name": "user2Staked",
          "type": "bool"
        },
        {
          "internalType": "bool",
          "name": "processed",
          "type": "bool"
        },
        {
          "internalType": "uint256",
          "name": "createdAt",
          "type": "uint256"
        }
      ],
      "stateMutability": "view",
      "type": "function"
    },
    {
      "inputs": [
        {
          "internalType": "address",
          "name": "newOwner",
          "type": "address"
        }
      ],
      "name": "transferOwnership",
      "outputs": [],
      "stateMutability": "nonpayable",
      "type": "function"
    },
    {
      "inputs": [
        {
          "internalType": "address",
          "name": "newImplementation",
          "type": "address"
        },
        {
          "internalType": "bytes",
          "name": "data",
          "type": "bytes"
        }
      ],
      "name": "upgradeToAndCall",
      "outputs": [],
      "stateMutability": "payable",
      "type": "function"
    },
    {
      "inputs": [],
      "name": "usdc",
      "outputs": [
        {
          "internalType": "contract IERC20",
          "name": "",
          "type": "address"
        }
      ],
      "stateMutability": "view",
      "type": "function"
    }
  ],
  "bytecode": "0x60a060405230608052348015610013575f80fd5b50608051612e0661003a5f395f81816124460152818161246f01526125ed0152612e065ff3fe608060405260043610610162575f3560e01c806381a4952e116100c6578063ce325bf81161007c578063d8de948011610057578063d8de9480146105fb578063f2fde38b1461061a578063f7b17d1014610639575f80fd5b8063ce325bf8146103c1578063d0192e37146104d7578063d5a44f861461051e575f80fd5b80638da5cb5b116100ac5780638da5cb5b14610311578063ad3cb1cc1461034d578063c4d66de8146103a2575f80fd5b806381a4952e146102dc57806386e2d5df146102fb575f80fd5b80634ed11ea51161011b57806352d1902d1161010157806352d1902d146102a0578063560d52d4146102b4578063715018a6146102c8575f80fd5b80634ed11ea51461026e5780634f1ef2861461028d575f80fd5b80633e413bee1161014b5780633e413bee1461020357806341ab3857146102395780634e5548ce1461024d575f80fd5b80633411c81c146101665780633c09cfc6146101d6575b5f80fd5b348015610171575f80fd5b506101b2610180366004612a2c565b600260209081525f928352604080842090915290825290205460ff808216916101008104821691620100009091041683565b60408051931515845291151560208401521515908201526060015b60405180910390f35b3480156101e1575f80fd5b506101f56101f0366004612a56565b61064e565b6040519081526020016101cd565b34801561020e575f80fd5b505f54610221906001600160a01b031681565b6040516001600160a01b0390911681526020016101cd565b348015610244575f80fd5b506101f5601481565b348015610258575f80fd5b5061026c610267366004612a86565b610a69565b005b348015610279575f80fd5b5061026c610288366004612aaa565b610f26565b61026c61029b366004612afd565b6112d2565b3480156102ab575f80fd5b506101f56112f1565b3480156102bf575f80fd5b506101f5600581565b3480156102d3575f80fd5b5061026c61131f565b3480156102e7575f80fd5b5061026c6102f6366004612a86565b611332565b348015610306575f80fd5b506101f56202a30081565b34801561031c575f80fd5b507f9016d09d72d40fdae2fd8ceac6b6234c7706214fd39c1cd1e609a0528c199300546001600160a01b0316610221565b348015610358575f80fd5b506103956040518060400160405280600581526020017f352e302e3000000000000000000000000000000000000000000000000000000081525081565b6040516101cd9190612c06565b3480156103ad575f80fd5b5061026c6103bc366004612c18565b61164c565b3480156103cc575f80fd5b506104ca6103db366004612a86565b60408051610140810182525f80825260208201819052918101829052606081018290526080810182905260a0810182905260c0810182905260e081018290526101008101829052610120810191909152505f9081526001602081815260409283902083516101408101855281546001600160a01b03908116825293820154909316918301919091526002810154928201929092526003820154606082015260048201546080820152600582015460a0820152600682015460ff808216151560c08401526101008083048216151560e0850152620100009092041615159082015260079091015461012082015290565b6040516101cd9190612c31565b3480156104e2575f80fd5b506104f66104f1366004612a2c565b6117a9565b60408051825115158152602080840151151590820152918101511515908201526060016101cd565b348015610529575f80fd5b506105a0610538366004612a86565b600160208190525f9182526040909120805491810154600282015460038301546004840154600585015460068601546007909601546001600160a01b039788169790951695939492939192909160ff808216926101008304821692620100009004909116908a565b604080516001600160a01b039b8c1681529a90991660208b0152978901969096526060880194909452608087019290925260a0860152151560c0850152151560e08401521515610100830152610120820152610140016101cd565b348015610606575f80fd5b5061026c610615366004612a86565b61181b565b348015610625575f80fd5b5061026c610634366004612c18565b611b05565b348015610644575f80fd5b506101f560035481565b5f610657611b58565b6001600160a01b0384166106b25760405162461bcd60e51b815260206004820152601560248201527f496e76616c69642075736572322061646472657373000000000000000000000060448201526064015b60405180910390fd5b336001600160a01b0385160361070a5760405162461bcd60e51b815260206004820152601a60248201527f43616e6e6f74207374616b65207769746820796f757273656c6600000000000060448201526064016106a9565b624c4b4083101561075d5760405162461bcd60e51b815260206004820152601760248201527f4d696e696d756d207374616b652069732035205553444300000000000000000060448201526064016106a9565b4282116107ac5760405162461bcd60e51b815260206004820152601960248201527f4d656574696e67206d75737420626520696e206675747572650000000000000060448201526064016106a9565b600380545f91826107bc83612ce1565b909155505f546040516323b872dd60e01b8152336004820152306024820152604481018790529192506001600160a01b0316906323b872dd906064016020604051808303815f875af1158015610814573d5f803e3d5ffd5b505050506040513d601f19601f820116820180604052508101906108389190612cf9565b6108845760405162461bcd60e51b815260206004820152600f60248201527f5472616e73666572206661696c6564000000000000000000000000000000000060448201526064016106a9565b604051806101400160405280336001600160a01b03168152602001866001600160a01b031681526020018581526020015f81526020018581526020018481526020016001151581526020015f151581526020015f151581526020014281525060015f8381526020019081526020015f205f820151815f015f6101000a8154816001600160a01b0302191690836001600160a01b031602179055506020820151816001015f6101000a8154816001600160a01b0302191690836001600160a01b0316021790555060408201518160020155606082015181600301556080820151816004015560a0820151816005015560c0820151816006015f6101000a81548160ff02191690831515021790555060e08201518160060160016101000a81548160ff0219169083151502179055506101008201518160060160026101000a81548160ff0219169083151502179055506101208201518160070155905050846001600160a01b0316336001600160a01b0316827f8663756ecd3b02533219d14493197b44f4a0311d1dc833a2e3573ecdd6cd5bd88787604051610a2f929190918252602082015260400190565b60405180910390a49050610a6260017f9b779b17422d0df92223018b32b4d1fa46e071723d6817e2486d003becc55f0055565b9392505050565b610a71611b58565b5f818152600160205260409020600681015460ff168015610a9b57506006810154610100900460ff165b610ae75760405162461bcd60e51b815260206004820152601260248201527f5374616b65206e6f7420636f6d706c657465000000000000000000000000000060448201526064016106a9565b600681015462010000900460ff1615610b365760405162461bcd60e51b8152602060048201526011602482015270105b1c9958591e481c1c9bd8d95cdcd959607a1b60448201526064016106a9565b6202a3008160050154610b499190612d14565b4211610b975760405162461bcd60e51b815260206004820152601e60248201527f436f6e6669726d6174696f6e2077696e646f77207374696c6c206f70656e000060448201526064016106a9565b5f60648260040154600a610bab9190612d27565b610bb59190612d3e565b90505f6002828460040154610bca9190612d5d565b610bd49190612d3e565b60068401805462ff00001916620100001790555f54845460405163a9059cbb60e01b81526001600160a01b03918216600482015260248101849052929350169063a9059cbb906044016020604051808303815f875af1158015610c39573d5f803e3d5ffd5b505050506040513d601f19601f82011682018060405250810190610c5d9190612cf9565b610ca95760405162461bcd60e51b815260206004820152601560248201527f5573657231207472616e73666572206661696c6564000000000000000000000060448201526064016106a9565b5f54600184015460405163a9059cbb60e01b81526001600160a01b0391821660048201526024810184905291169063a9059cbb906044016020604051808303815f875af1158015610cfc573d5f803e3d5ffd5b505050506040513d601f19601f82011682018060405250810190610d209190612cf9565b610d6c5760405162461bcd60e51b815260206004820152601560248201527f5573657232207472616e73666572206661696c6564000000000000000000000060448201526064016106a9565b5f546001600160a01b031663a9059cbb610dad7f9016d09d72d40fdae2fd8ceac6b6234c7706214fd39c1cd1e609a0528c199300546001600160a01b031690565b6040517fffffffff0000000000000000000000000000000000000000000000000000000060e084901b1681526001600160a01b039091166004820152602481018590526044016020604051808303815f875af1158015610e0f573d5f803e3d5ffd5b505050506040513d601f19601f82011682018060405250810190610e339190612cf9565b610e7f5760405162461bcd60e51b815260206004820152601360248201527f466565207472616e73666572206661696c65640000000000000000000000000060448201526064016106a9565b60408051828152602081018390529081018390526080606082018190526007908201527f74696d656f75740000000000000000000000000000000000000000000000000060a082015284907ff46a7b5e78bde6aca13cbf04933204950fb860b4c1645abdc8dbf2d067dc17869060c00160405180910390a2505050610f2360017f9b779b17422d0df92223018b32b4d1fa46e071723d6817e2486d003becc55f0055565b50565b610f2e611b58565b5f83815260016020526040902080546001600160a01b0316331480610f5f575060018101546001600160a01b031633145b610fab5760405162461bcd60e51b815260206004820152601160248201527f4e6f742061207061727469636970616e7400000000000000000000000000000060448201526064016106a9565b600681015460ff168015610fc857506006810154610100900460ff165b6110145760405162461bcd60e51b815260206004820152601260248201527f5374616b65206e6f7420636f6d706c657465000000000000000000000000000060448201526064016106a9565b600681015462010000900460ff16156110635760405162461bcd60e51b8152602060048201526011602482015270105b1c9958591e481c1c9bd8d95cdcd959607a1b60448201526064016106a9565b80600501544210156110b75760405162461bcd60e51b815260206004820152601b60248201527f4d656574696e67206861736e2774206f6363757272656420796574000000000060448201526064016106a9565b6202a30081600501546110ca9190612d14565b4211156111195760405162461bcd60e51b815260206004820152601a60248201527f436f6e6669726d6174696f6e2077696e646f7720636c6f73656400000000000060448201526064016106a9565b5f84815260026020908152604080832033845290915290205460ff16156111825760405162461bcd60e51b815260206004820152601160248201527f416c726561647920636f6e6669726d656400000000000000000000000000000060448201526064016106a9565b604080516060810182526001815284151560208083019182528515158385019081525f8981526002835285812033808352935285902093518454935191511515620100000262ff0000199215156101000261ff00199215159290921661ffff1990951694909417171691909117909155905185907fc3f614fc872697fb99df5635708f7fb73e68af9e9e89a3ffc09206bb002501e190611232908790879091151582521515602082015260400190565b60405180910390a380545f906001600160a01b0316331461125d5781546001600160a01b031661126c565b60018201546001600160a01b03165b5f8681526002602090815260408083206001600160a01b038516845290915290205490915060ff16156112a2576112a285611be1565b50506112cd60017f9b779b17422d0df92223018b32b4d1fa46e071723d6817e2486d003becc55f0055565b505050565b6112da61243b565b6112e3826124f2565b6112ed82826124fa565b5050565b5f6112fa6125e2565b507f360894a13ba1a3210667c828492db98dca3e2076cc3735a920a3ca505d382bbc90565b61132761262b565b6113305f61269f565b565b61133a611b58565b5f818152600160208190526040909120908101546001600160a01b031633146113a55760405162461bcd60e51b815260206004820152601460248201527f4e6f7420746865206d617463686564207573657200000000000000000000000060448201526064016106a9565b600681015460ff166113f95760405162461bcd60e51b815260206004820152601160248201527f5374616b65206e6f74206372656174656400000000000000000000000000000060448201526064016106a9565b6006810154610100900460ff16156114535760405162461bcd60e51b815260206004820152601060248201527f416c72656164792061636365707465640000000000000000000000000000000060448201526064016106a9565b600681015462010000900460ff16156114a25760405162461bcd60e51b8152602060048201526011602482015270105b1c9958591e481c1c9bd8d95cdcd959607a1b60448201526064016106a9565b806005015442106114f55760405162461bcd60e51b815260206004820152601360248201527f4d656574696e672074696d65207061737365640000000000000000000000000060448201526064016106a9565b60028101545f546040516323b872dd60e01b8152336004820152306024820152604481018390526001600160a01b03909116906323b872dd906064016020604051808303815f875af115801561154d573d5f803e3d5ffd5b505050506040513d601f19601f820116820180604052508101906115719190612cf9565b6115bd5760405162461bcd60e51b815260206004820152600f60248201527f5472616e73666572206661696c6564000000000000000000000000000000000060448201526064016106a9565b6003820181905560068201805461ff00191661010017905560028201546115e5908290612d14565b6004830155604051818152339084907faf84b9a32c98be0e06d5f11733fed35e270c58d34c6986070b6f05d3cd9399779060200160405180910390a35050610f2360017f9b779b17422d0df92223018b32b4d1fa46e071723d6817e2486d003becc55f0055565b5f61165561271c565b805490915060ff68010000000000000000820416159067ffffffffffffffff165f811580156116815750825b90505f8267ffffffffffffffff16600114801561169d5750303b155b9050811580156116ab575080155b156116e2576040517ff92ee8a900000000000000000000000000000000000000000000000000000000815260040160405180910390fd5b845467ffffffffffffffff19166001178555831561171657845468ff00000000000000001916680100000000000000001785555b61171f33612744565b611727612755565b61172f61275d565b5f805473ffffffffffffffffffffffffffffffffffffffff19166001600160a01b03881617905583156117a157845468ff000000000000000019168555604051600181527fc7f505b2f371ae2175ee4913f4499e1f2633a7b5936321eed1cdaeb6115181d29060200160405180910390a15b505050505050565b60408051606080820183525f8083526020808401829052928401819052858152600283528381206001600160a01b03861682528352839020835191820184525460ff80821615158352610100820481161515938301939093526201000090049091161515918101919091525b92915050565b611823611b58565b5f81815260016020526040902080546001600160a01b031633146118895760405162461bcd60e51b815260206004820152601760248201527f4f6e6c792063726561746f722063616e2063616e63656c00000000000000000060448201526064016106a9565b600681015460ff166118dd5760405162461bcd60e51b815260206004820152601160248201527f5374616b65206e6f74206372656174656400000000000000000000000000000060448201526064016106a9565b6006810154610100900460ff16156119375760405162461bcd60e51b815260206004820152601060248201527f416c72656164792061636365707465640000000000000000000000000000000060448201526064016106a9565b600681015462010000900460ff16156119865760405162461bcd60e51b8152602060048201526011602482015270105b1c9958591e481c1c9bd8d95cdcd959607a1b60448201526064016106a9565b60068101805462ff00001916620100001790555f548154600283015460405163a9059cbb60e01b81526001600160a01b039283166004820152602481019190915291169063a9059cbb906044016020604051808303815f875af11580156119ef573d5f803e3d5ffd5b505050506040513d601f19601f82011682018060405250810190611a139190612cf9565b611a5f5760405162461bcd60e51b815260206004820152600d60248201527f526566756e64206661696c65640000000000000000000000000000000000000060448201526064016106a9565b6002810154604080519182525f60208301819052908201526080606082018190526009908201527f63616e63656c6c6564000000000000000000000000000000000000000000000060a082015282907ff46a7b5e78bde6aca13cbf04933204950fb860b4c1645abdc8dbf2d067dc17869060c00160405180910390a250610f2360017f9b779b17422d0df92223018b32b4d1fa46e071723d6817e2486d003becc55f0055565b611b0d61262b565b6001600160a01b038116611b4f576040517f1e4fbdf70000000000000000000000000000000000000000000000000000000081525f60048201526024016106a9565b610f238161269f565b7f9b779b17422d0df92223018b32b4d1fa46e071723d6817e2486d003becc55f00805460011901611bb5576040517f3ee5aeb500000000000000000000000000000000000000000000000000000000815260040160405180910390fd5b60029055565b60017f9b779b17422d0df92223018b32b4d1fa46e071723d6817e2486d003becc55f0055565b5f8181526001602081815260408084206002835281852081546001600160a01b039081168752818552838720845160608082018752915460ff8082161515835261010080830482161515848b01908152620100009384900483161515858b01529a8801549095168b52948852868a2087518085018952905480871615158252948504861615159881019890985290920490921615159385019390935293519094919382918291908015611c95575085604001515b8015611ca2575084602001515b8015611caf575084604001515b15611d3357606460058860040154611cc79190612d27565b611cd19190612d3e565b91505f6002838960040154611ce69190612d5d565b611cf09190612d3e565b60408051808201909152600b81527f626f74685f73686f776564000000000000000000000000000000000000000000602082015290955085945091506121389050565b85602001518015611d4657508560400151155b8015611d5457508460200151155b8015611d61575084604001515b15611e3957606460148860030154611d799190612d27565b611d839190612d3e565b92505f60028860030154611d979190612d3e565b90505f818960020154611daa9190612d14565b90505f6064611dba600584612d27565b611dc49190612d3e565b9050611dd08183612d5d565b965085878b60040154611de39190612d5d565b611ded9190612d5d565b611df79082612d14565b94506040518060400160405280600c81526020017f75736572315f73686f77656400000000000000000000000000000000000000008152509350505050612138565b8560200151158015611e4c575085604001515b8015611e59575084602001515b8015611e6757508460400151155b15611f3f57606460148860020154611e7f9190612d27565b611e899190612d3e565b93505f60028860020154611e9d9190612d3e565b90505f818960030154611eb09190612d14565b90505f6064611ec0600584612d27565b611eca9190612d3e565b9050611ed68183612d5d565b955085878b60040154611ee99190612d5d565b611ef39190612d5d565b611efd9082612d14565b94506040518060400160405280600c81526020017f75736572325f73686f77656400000000000000000000000000000000000000008152509350505050612138565b8560200151158015611f5357508460200151155b8015611f6157508560400151155b8015611f6f57508460400151155b1561200c57606460148860020154611f879190612d27565b611f919190612d3e565b9350606460148860030154611fa69190612d27565b611fb09190612d3e565b925082848860040154611fc39190612d5d565b611fcd9190612d5d565b91506040518060400160405280600e81526020017f6e6569746865725f73686f7765640000000000000000000000000000000000008152509050612138565b8560200151801561201f57508560400151155b801561202c575084602001515b801561203a57508460400151155b156120be5760648760040154600a6120529190612d27565b61205c9190612d3e565b91505f60028389600401546120719190612d5d565b61207b9190612d3e565b60408051808201909152600881527f636f6e666c696374000000000000000000000000000000000000000000000000602082015290955085945091506121389050565b60648760040154600a6120d19190612d27565b6120db9190612d3e565b91505f60028389600401546120f09190612d5d565b6120fa9190612d3e565b60408051808201909152600881527f6d69736d6174636800000000000000000000000000000000000000000000000060208201529095508594509150505b60068701805462ff00001916620100001790558315612211575f54875460405163a9059cbb60e01b81526001600160a01b0391821660048201526024810187905291169063a9059cbb906044016020604051808303815f875af11580156121a1573d5f803e3d5ffd5b505050506040513d601f19601f820116820180604052508101906121c59190612cf9565b6122115760405162461bcd60e51b815260206004820152601560248201527f5573657231207472616e73666572206661696c6564000000000000000000000060448201526064016106a9565b82156122da575f54600188015460405163a9059cbb60e01b81526001600160a01b0391821660048201526024810186905291169063a9059cbb906044016020604051808303815f875af115801561226a573d5f803e3d5ffd5b505050506040513d601f19601f8201168201806040525081019061228e9190612cf9565b6122da5760405162461bcd60e51b815260206004820152601560248201527f5573657232207472616e73666572206661696c6564000000000000000000000060448201526064016106a9565b81156123f3575f546001600160a01b031663a9059cbb6123217f9016d09d72d40fdae2fd8ceac6b6234c7706214fd39c1cd1e609a0528c199300546001600160a01b031690565b6040517fffffffff0000000000000000000000000000000000000000000000000000000060e084901b1681526001600160a01b039091166004820152602481018590526044016020604051808303815f875af1158015612383573d5f803e3d5ffd5b505050506040513d601f19601f820116820180604052508101906123a79190612cf9565b6123f35760405162461bcd60e51b815260206004820152601360248201527f466565207472616e73666572206661696c65640000000000000000000000000060448201526064016106a9565b877ff46a7b5e78bde6aca13cbf04933204950fb860b4c1645abdc8dbf2d067dc1786858585856040516124299493929190612d70565b60405180910390a25050505050505050565b306001600160a01b037f00000000000000000000000000000000000000000000000000000000000000001614806124d457507f00000000000000000000000000000000000000000000000000000000000000006001600160a01b03166124c87f360894a13ba1a3210667c828492db98dca3e2076cc3735a920a3ca505d382bbc546001600160a01b031690565b6001600160a01b031614155b156113305760405163703e46dd60e11b815260040160405180910390fd5b610f2361262b565b816001600160a01b03166352d1902d6040518163ffffffff1660e01b8152600401602060405180830381865afa925050508015612554575060408051601f3d908101601f1916820190925261255191810190612d9e565b60015b61257c57604051634c9c8ce360e01b81526001600160a01b03831660048201526024016106a9565b7f360894a13ba1a3210667c828492db98dca3e2076cc3735a920a3ca505d382bbc81146125d8576040517faa1d49a4000000000000000000000000000000000000000000000000000000008152600481018290526024016106a9565b6112cd838361276d565b306001600160a01b037f000000000000000000000000000000000000000000000000000000000000000016146113305760405163703e46dd60e11b815260040160405180910390fd5b3361265d7f9016d09d72d40fdae2fd8ceac6b6234c7706214fd39c1cd1e609a0528c199300546001600160a01b031690565b6001600160a01b031614611330576040517f118cdaa70000000000000000000000000000000000000000000000000000000081523360048201526024016106a9565b7f9016d09d72d40fdae2fd8ceac6b6234c7706214fd39c1cd1e609a0528c199300805473ffffffffffffffffffffffffffffffffffffffff1981166001600160a01b03848116918217845560405192169182907f8be0079c531659141344cd1fd0a4f28419497f9722a3daafe3b4186f6b6457e0905f90a3505050565b5f807ff0c57e16840df040f15088dc2f81fe391c3923bec73e23a9662efc9c229c6a00611815565b61274c6127c2565b610f2381612800565b6113306127c2565b6127656127c2565b611330612808565b61277682612810565b6040516001600160a01b038316907fbc7cd75a20ee27fd9adebab32041f755214dbc6bffa90cc0225b39da2e5c2d3b905f90a28051156127ba576112cd8282612893565b6112ed612905565b6127ca61293d565b611330576040517fd7e6bcf800000000000000000000000000000000000000000000000000000000815260040160405180910390fd5b611b0d6127c2565b611bbb6127c2565b806001600160a01b03163b5f0361284557604051634c9c8ce360e01b81526001600160a01b03821660048201526024016106a9565b7f360894a13ba1a3210667c828492db98dca3e2076cc3735a920a3ca505d382bbc805473ffffffffffffffffffffffffffffffffffffffff19166001600160a01b0392909216919091179055565b60605f80846001600160a01b0316846040516128af9190612db5565b5f60405180830381855af49150503d805f81146128e7576040519150601f19603f3d011682016040523d82523d5f602084013e6128ec565b606091505b50915091506128fc85838361295b565b95945050505050565b3415611330576040517fb398979f00000000000000000000000000000000000000000000000000000000815260040160405180910390fd5b5f61294661271c565b5468010000000000000000900460ff16919050565b6060826129705761296b826129d0565b610a62565b815115801561298757506001600160a01b0384163b155b156129c9576040517f9996b3150000000000000000000000000000000000000000000000000000000081526001600160a01b03851660048201526024016106a9565b5080610a62565b8051156129df57805160208201fd5b6040517fd6bda27500000000000000000000000000000000000000000000000000000000815260040160405180910390fd5b80356001600160a01b0381168114612a27575f80fd5b919050565b5f8060408385031215612a3d575f80fd5b82359150612a4d60208401612a11565b90509250929050565b5f805f60608486031215612a68575f80fd5b612a7184612a11565b95602085013595506040909401359392505050565b5f60208284031215612a96575f80fd5b5035919050565b8015158114610f23575f80fd5b5f805f60608486031215612abc575f80fd5b833592506020840135612ace81612a9d565b91506040840135612ade81612a9d565b809150509250925092565b634e487b7160e01b5f52604160045260245ffd5b5f8060408385031215612b0e575f80fd5b612b1783612a11565b9150602083013567ffffffffffffffff80821115612b33575f80fd5b818501915085601f830112612b46575f80fd5b813581811115612b5857612b58612ae9565b604051601f8201601f19908116603f01168101908382118183101715612b8057612b80612ae9565b81604052828152886020848701011115612b98575f80fd5b826020860160208301375f6020848301015280955050505050509250929050565b5f5b83811015612bd3578181015183820152602001612bbb565b50505f910152565b5f8151808452612bf2816020860160208601612bb9565b601f01601f19169290920160200192915050565b602081525f610a626020830184612bdb565b5f60208284031215612c28575f80fd5b610a6282612a11565b81516001600160a01b0316815261014081016020830151612c5d60208401826001600160a01b03169052565b5060408301516040830152606083015160608301526080830151608083015260a083015160a083015260c0830151612c9960c084018215159052565b5060e0830151612cad60e084018215159052565b506101008381015180151584830152505061012092830151919092015290565b634e487b7160e01b5f52601160045260245ffd5b5f60018201612cf257612cf2612ccd565b5060010190565b5f60208284031215612d09575f80fd5b8151610a6281612a9d565b8082018082111561181557611815612ccd565b808202811582820484141761181557611815612ccd565b5f82612d5857634e487b7160e01b5f52601260045260245ffd5b500490565b8181038181111561181557611815612ccd565b848152836020820152826040820152608060608201525f612d946080830184612bdb565b9695505050505050565b5f60208284031215612dae575f80fd5b5051919050565b5f8251612dc6818460208701612bb9565b919091019291505056fea264697066735822122070b680a760470ff378307d2b5432ec9bb1cc635a57bbfa0454851336411b5ef764736f6c63430008160033",
  "linkReferences": {},
  "deployedLinkReferences": {}
}