{
  "_format": "hh-sol-artifact-1",
  "contractName": "Staking",
  "sourceName": "contracts/Staking.sol",
  "abi": [
    {
      "inputs": [
        {
          "internalType": "address",
          "name": "_usdc",
          "type": "address"
        },
        {
          "internalType": "address",
          "name": "_matching",
          "type": "address"
        }
      ],
      "stateMutability": "nonpayable",
      "type": "constructor"
    },
    {
      "inputs": [
        {
          "internalType": "address",
          "name": "target",
          "type": "address"
        }
      ],
      "name": "AddressEmptyCode",
      "type": "error"
    },
    {
      "inputs": [
        {
          "internalType": "address",
          "name": "implementation",
          "type": "address"
        }
      ],
      "name": "ERC1967InvalidImplementation",
      "type": "error"
    },
    {
      "inputs": [],
      "name": "ERC1967NonPayable",
      "type": "error"
    },
    {
      "inputs": [],
      "name": "FailedCall",
      "type": "error"
    },
    {
      "inputs": [],
      "name": "InvalidInitialization",
      "type": "error"
    },
    {
      "inputs": [],
      "name": "NotInitializing",
      "type": "error"
    },
    {
      "inputs": [
        {
          "internalType": "address",
          "name": "owner",
          "type": "address"
        }
      ],
      "name": "OwnableInvalidOwner",
      "type": "error"
    },
    {
      "inputs": [
        {
          "internalType": "address",
          "name": "account",
          "type": "address"
        }
      ],
      "name": "OwnableUnauthorizedAccount",
      "type": "error"
    },
    {
      "inputs": [],
      "name": "UUPSUnauthorizedCallContext",
      "type": "error"
    },
    {
      "inputs": [
        {
          "internalType": "bytes32",
          "name": "slot",
          "type": "bytes32"
        }
      ],
      "name": "UUPSUnsupportedProxiableUUID",
      "type": "error"
    },
    {
      "anonymous": false,
      "inputs": [
        {
          "indexed": false,
          "internalType": "uint64",
          "name": "version",
          "type": "uint64"
        }
      ],
      "name": "Initialized",
      "type": "event"
    },
    {
      "anonymous": false,
      "inputs": [
        {
          "indexed": true,
          "internalType": "address",
          "name": "user",
          "type": "address"
        },
        {
          "indexed": true,
          "internalType": "address",
          "name": "matchedUser",
          "type": "address"
        }
      ],
      "name": "MeetingConfirmed",
      "type": "event"
    },
    {
      "anonymous": false,
      "inputs": [
        {
          "indexed": true,
          "internalType": "address",
          "name": "previousOwner",
          "type": "address"
        },
        {
          "indexed": true,
          "internalType": "address",
          "name": "newOwner",
          "type": "address"
        }
      ],
      "name": "OwnershipTransferred",
      "type": "event"
    },
    {
      "anonymous": false,
      "inputs": [
        {
          "indexed": true,
          "internalType": "address",
          "name": "user1",
          "type": "address"
        },
        {
          "indexed": true,
          "internalType": "address",
          "name": "user2",
          "type": "address"
        },
        {
          "indexed": false,
          "internalType": "uint256",
          "name": "user1Amount",
          "type": "uint256"
        },
        {
          "indexed": false,
          "internalType": "uint256",
          "name": "user2Amount",
          "type": "uint256"
        }
      ],
      "name": "StakeClaimed",
      "type": "event"
    },
    {
      "anonymous": false,
      "inputs": [
        {
          "indexed": true,
          "internalType": "address",
          "name": "user1",
          "type": "address"
        },
        {
          "indexed": true,
          "internalType": "address",
          "name": "user2",
          "type": "address"
        },
        {
          "indexed": false,
          "internalType": "uint256",
          "name": "amount",
          "type": "uint256"
        },
        {
          "indexed": false,
          "internalType": "uint256",
          "name": "meetingTime",
          "type": "uint256"
        }
      ],
      "name": "StakeCreated",
      "type": "event"
    },
    {
      "anonymous": false,
      "inputs": [
        {
          "indexed": true,
          "internalType": "address",
          "name": "implementation",
          "type": "address"
        }
      ],
      "name": "Upgraded",
      "type": "event"
    },
    {
      "inputs": [],
      "name": "CONFIRMATION_WINDOW",
      "outputs": [
        {
          "internalType": "uint256",
          "name": "",
          "type": "uint256"
        }
      ],
      "stateMutability": "view",
      "type": "function"
    },
    {
      "inputs": [],
      "name": "PLATFORM_FEE",
      "outputs": [
        {
          "internalType": "uint256",
          "name": "",
          "type": "uint256"
        }
      ],
      "stateMutability": "view",
      "type": "function"
    },
    {
      "inputs": [],
      "name": "UPGRADE_INTERFACE_VERSION",
      "outputs": [
        {
          "internalType": "string",
          "name": "",
          "type": "string"
        }
      ],
      "stateMutability": "view",
      "type": "function"
    },
    {
      "inputs": [
        {
          "internalType": "address",
          "name": "matchedUser",
          "type": "address"
        }
      ],
      "name": "claimStake",
      "outputs": [],
      "stateMutability": "nonpayable",
      "type": "function"
    },
    {
      "inputs": [
        {
          "internalType": "address",
          "name": "matchedUser",
          "type": "address"
        }
      ],
      "name": "confirmMeeting",
      "outputs": [],
      "stateMutability": "nonpayable",
      "type": "function"
    },
    {
      "inputs": [
        {
          "internalType": "address",
          "name": "matchedUser",
          "type": "address"
        },
        {
          "internalType": "uint256",
          "name": "amount",
          "type": "uint256"
        },
        {
          "internalType": "uint256",
          "name": "meetingTime",
          "type": "uint256"
        }
      ],
      "name": "createStake",
      "outputs": [],
      "stateMutability": "nonpayable",
      "type": "function"
    },
    {
      "inputs": [
        {
          "internalType": "address",
          "name": "user1",
          "type": "address"
        },
        {
          "internalType": "address",
          "name": "user2",
          "type": "address"
        }
      ],
      "name": "getStake",
      "outputs": [
        {
          "components": [
            {
              "internalType": "uint256",
              "name": "amount",
              "type": "uint256"
            },
            {
              "internalType": "uint256",
              "name": "meetingTime",
              "type": "uint256"
            },
            {
              "internalType": "bool",
              "name": "user1Confirmed",
              "type": "bool"
            },
            {
              "internalType": "bool",
              "name": "user2Confirmed",
              "type": "bool"
            },
            {
              "internalType": "bool",
              "name": "claimed",
              "type": "bool"
            }
          ],
          "internalType": "struct Staking.Stake",
          "name": "",
          "type": "tuple"
        }
      ],
      "stateMutability": "view",
      "type": "function"
    },
    {
      "inputs": [
        {
          "internalType": "address",
          "name": "_usdc",
          "type": "address"
        },
        {
          "internalType": "address",
          "name": "_matching",
          "type": "address"
        }
      ],
      "name": "initialize",
      "outputs": [],
      "stateMutability": "nonpayable",
      "type": "function"
    },
    {
      "inputs": [],
      "name": "matching",
      "outputs": [
        {
          "internalType": "contract IMatching",
          "name": "",
          "type": "address"
        }
      ],
      "stateMutability": "view",
      "type": "function"
    },
    {
      "inputs": [],
      "name": "owner",
      "outputs": [
        {
          "internalType": "address",
          "name": "",
          "type": "address"
        }
      ],
      "stateMutability": "view",
      "type": "function"
    },
    {
      "inputs": [],
      "name": "proxiableUUID",
      "outputs": [
        {
          "internalType": "bytes32",
          "name": "",
          "type": "bytes32"
        }
      ],
      "stateMutability": "view",
      "type": "function"
    },
    {
      "inputs": [],
      "name": "renounceOwnership",
      "outputs": [],
      "stateMutability": "nonpayable",
      "type": "function"
    },
    {
      "inputs": [
        {
          "internalType": "address",
          "name": "",
          "type": "address"
        },
        {
          "internalType": "address",
          "name": "",
          "type": "address"
        }
      ],
      "name": "stakes",
      "outputs": [
        {
          "internalType": "uint256",
          "name": "amount",
          "type": "uint256"
        },
        {
          "internalType": "uint256",
          "name": "meetingTime",
          "type": "uint256"
        },
        {
          "internalType": "bool",
          "name": "user1Confirmed",
          "type": "bool"
        },
        {
          "internalType": "bool",
          "name": "user2Confirmed",
          "type": "bool"
        },
        {
          "internalType": "bool",
          "name": "claimed",
          "type": "bool"
        }
      ],
      "stateMutability": "view",
      "type": "function"
    },
    {
      "inputs": [
        {
          "internalType": "address",
          "name": "newOwner",
          "type": "address"
        }
      ],
      "name": "transferOwnership",
      "outputs": [],
      "stateMutability": "nonpayable",
      "type": "function"
    },
    {
      "inputs": [
        {
          "internalType": "address",
          "name": "newImplementation",
          "type": "address"
        },
        {
          "internalType": "bytes",
          "name": "data",
          "type": "bytes"
        }
      ],
      "name": "upgradeToAndCall",
      "outputs": [],
      "stateMutability": "payable",
      "type": "function"
    },
    {
      "inputs": [],
      "name": "usdc",
      "outputs": [
        {
          "internalType": "contract IERC20",
          "name": "",
          "type": "address"
        }
      ],
      "stateMutability": "view",
      "type": "function"
    }
  ],
  "bytecode": "0x60a0604052306080523480156200001557600080fd5b5060405162001c1438038062001c1483398101604081905262000038916200011b565b620000426200004a565b505062000153565b7ff0c57e16840df040f15088dc2f81fe391c3923bec73e23a9662efc9c229c6a00805468010000000000000000900460ff16156200009b5760405163f92ee8a960e01b815260040160405180910390fd5b80546001600160401b0390811614620000fb5780546001600160401b0319166001600160401b0390811782556040519081527fc7f505b2f371ae2175ee4913f4499e1f2633a7b5936321eed1cdaeb6115181d29060200160405180910390a15b50565b80516001600160a01b03811681146200011657600080fd5b919050565b600080604083850312156200012f57600080fd5b6200013a83620000fe565b91506200014a60208401620000fe565b90509250929050565b608051611a976200017d600039600081816112470152818161127001526113f30152611a976000f3fe6080604052600436106100f35760003560e01c806382dda22d1161008a578063ad3cb1cc11610059578063ad3cb1cc1461033c578063ae5ec2e914610392578063ee9a7680146103b2578063f2fde38b146103d257600080fd5b806382dda22d146101f757806386e2d5df1461025f5780638da5cb5b14610276578063a4e47b66146102b357600080fd5b80634f1ef286116100c65780634f1ef2861461019a57806352d1902d146101ad57806361fdd7df146101c2578063715018a6146101e257600080fd5b806334fbc9a1146100f85780633c09cfc6146101205780633e413bee14610142578063485cc9551461017a575b600080fd5b34801561010457600080fd5b5061010d600581565b6040519081526020015b60405180910390f35b34801561012c57600080fd5b5061014061013b3660046117e5565b6103f2565b005b34801561014e57600080fd5b50600054610162906001600160a01b031681565b6040516001600160a01b039091168152602001610117565b34801561018657600080fd5b50610140610195366004611818565b610778565b6101406101a8366004611861565b6108e7565b3480156101b957600080fd5b5061010d610906565b3480156101ce57600080fd5b506101406101dd366004611923565b610935565b3480156101ee57600080fd5b50610140610f14565b34801561020357600080fd5b50610217610212366004611818565b610f28565b6040516101179190600060a082019050825182526020830151602083015260408301511515604083015260608301511515606083015260808301511515608083015292915050565b34801561026b57600080fd5b5061010d6202a30081565b34801561028257600080fd5b507f9016d09d72d40fdae2fd8ceac6b6234c7706214fd39c1cd1e609a0528c199300546001600160a01b0316610162565b3480156102bf57600080fd5b5061030c6102ce366004611818565b6002602081815260009384526040808520909152918352912080546001820154919092015460ff808216916101008104821691620100009091041685565b6040805195865260208601949094529115159284019290925290151560608301521515608082015260a001610117565b34801561034857600080fd5b506103856040518060400160405280600581526020017f352e302e3000000000000000000000000000000000000000000000000000000081525081565b6040516101179190611962565b34801561039e57600080fd5b50600154610162906001600160a01b031681565b3480156103be57600080fd5b506101406103cd366004611923565b610fc9565b3480156103de57600080fd5b506101406103ed366004611923565b6111a3565b6001546040517fa5b748750000000000000000000000000000000000000000000000000000000081523360048201526001600160a01b0385811660248301529091169063a5b7487590604401602060405180830381865afa15801561045b573d6000803e3d6000fd5b505050506040513d601f19601f8201168201806040525081019061047f9190611995565b6104d05760405162461bcd60e51b815260206004820152600b60248201527f4e6f74206d61746368656400000000000000000000000000000000000000000060448201526064015b60405180910390fd5b624c4b408210156105235760405162461bcd60e51b815260206004820152601760248201527f4d696e696d756d207374616b652069732035205553444300000000000000000060448201526064016104c7565b4281116105985760405162461bcd60e51b815260206004820152602260248201527f4d656574696e672074696d65206d75737420626520696e20746865206675747560448201527f726500000000000000000000000000000000000000000000000000000000000060648201526084016104c7565b3360009081526002602090815260408083206001600160a01b0387168452909152902054156106095760405162461bcd60e51b815260206004820152601460248201527f5374616b6520616c72656164792065786973747300000000000000000000000060448201526064016104c7565b6000546040517f23b872dd000000000000000000000000000000000000000000000000000000008152336004820152306024820152604481018490526001600160a01b03909116906323b872dd906064016020604051808303816000875af1158015610679573d6000803e3d6000fd5b505050506040513d601f19601f8201168201806040525081019061069d9190611995565b506040805160a0810182528381526020808201848152600083850181815260608501828152608086018381523380855260028088528986206001600160a01b038e1680885298529489902097518855945160018801559151959092018054925191511515620100000262ff0000199215156101000261ff00199715159790971661ffff199094169390931795909517161790925591517fcb4f6987f2d5d044da82fdd1fe6442c0f8b64f18fa3da5bde360fcde9bb107c99061076b9086908690918252602082015260400190565b60405180910390a3505050565b60006107826111fa565b805490915060ff68010000000000000000820416159067ffffffffffffffff166000811580156107af5750825b905060008267ffffffffffffffff1660011480156107cc5750303b155b9050811580156107da575080155b15610811576040517ff92ee8a900000000000000000000000000000000000000000000000000000000815260040160405180910390fd5b845467ffffffffffffffff19166001178555831561084557845468ff00000000000000001916680100000000000000001785555b61084e33611223565b610856611234565b600080546001600160a01b03808a1673ffffffffffffffffffffffffffffffffffffffff1992831617909255600180549289169290911691909117905583156108de57845468ff000000000000000019168555604051600181527fc7f505b2f371ae2175ee4913f4499e1f2633a7b5936321eed1cdaeb6115181d29060200160405180910390a15b50505050505050565b6108ef61123c565b6108f8826112f3565b61090282826112fb565b5050565b60006109106113e8565b507f360894a13ba1a3210667c828492db98dca3e2076cc3735a920a3ca505d382bbc90565b3360008181526002602081815260408084206001600160a01b0387168552825280842092825280842094845293905291902081541515806109765750805415155b6109c25760405162461bcd60e51b815260206004820152600f60248201527f4e6f207374616b6520657869737473000000000000000000000000000000000060448201526064016104c7565b600282015462010000900460ff161580156109e85750600281015462010000900460ff16155b610a345760405162461bcd60e51b815260206004820152600f60248201527f416c726561647920636c61696d6564000000000000000000000000000000000060448201526064016104c7565b6202a3008260010154610a4791906119cd565b421180610a6557506202a3008160010154610a6291906119cd565b42115b610ab15760405162461bcd60e51b815260206004820152601d60248201527f436f6e6669726d6174696f6e2077696e646f77206e6f7420656e64656400000060448201526064016104c7565b81548154600280850180546201000062ff000019918216811783559286018054909116909217909155546000908190819060ff168015610afa57506002860154610100900460ff165b15610b605760006064610b0e6005886119e0565b610b1891906119f7565b905060006064610b296005886119e0565b610b3391906119f7565b9050610b3f8288611a19565b9450610b4b8187611a19565b9350610b5781836119cd565b92505050610c17565b600287015460ff168015610b7e57506002860154610100900460ff16155b15610bbc5760006064610b928660326119e0565b610b9c91906119f7565b9050610ba881876119cd565b9350610bb48186611a19565b925050610c17565b600287015460ff16158015610bda57506002860154610100900460ff165b15610c105760006064610bee8760326119e0565b610bf891906119f7565b9050610c048187611a19565b9350610bb481866119cd565b8492508391505b8215610cde5760005460405163a9059cbb60e01b8152336004820152602481018590526001600160a01b039091169063a9059cbb906044016020604051808303816000875af1158015610c6e573d6000803e3d6000fd5b505050506040513d601f19601f82011682018060405250810190610c929190611995565b610cde5760405162461bcd60e51b815260206004820152601560248201527f5573657231207472616e73666572206661696c6564000000000000000000000060448201526064016104c7565b8115610da75760005460405163a9059cbb60e01b81526001600160a01b038a81166004830152602482018590529091169063a9059cbb906044016020604051808303816000875af1158015610d37573d6000803e3d6000fd5b505050506040513d601f19601f82011682018060405250810190610d5b9190611995565b610da75760405162461bcd60e51b815260206004820152601560248201527f5573657232207472616e73666572206661696c6564000000000000000000000060448201526064016104c7565b8015610ec4576000546001600160a01b031663a9059cbb610def7f9016d09d72d40fdae2fd8ceac6b6234c7706214fd39c1cd1e609a0528c199300546001600160a01b031690565b6040517fffffffff0000000000000000000000000000000000000000000000000000000060e084901b1681526001600160a01b039091166004820152602481018490526044016020604051808303816000875af1158015610e54573d6000803e3d6000fd5b505050506040513d601f19601f82011682018060405250810190610e789190611995565b610ec45760405162461bcd60e51b815260206004820152601360248201527f466565207472616e73666572206661696c65640000000000000000000000000060448201526064016104c7565b60408051868152602081018690526001600160a01b038a169133917fc08c27d872ca12215b2df3f441676fe2c084a204a487086d7436a4ac433d417a910160405180910390a35050505050505050565b610f1c611431565b610f2660006114a5565b565b6040805160a081018252600080825260208201819052918101829052606081018290526080810191909152506001600160a01b038083166000908152600260208181526040808420948616845293815291839020835160a08101855281548152600182015493810193909352015460ff8082161515938301939093526101008104831615156060830152620100009004909116151560808201525b92915050565b3360008181526002602081815260408084206001600160a01b03871685528252808420928252808420948452939052919020815415158061100a5750805415155b6110565760405162461bcd60e51b815260206004820152600f60248201527f4e6f207374616b6520657869737473000000000000000000000000000000000060448201526064016104c7565b81600101544210158061106d575080600101544210155b6110b95760405162461bcd60e51b815260206004820152601860248201527f4d656574696e672074696d65206e6f742072656163686564000000000000000060448201526064016104c7565b6202a30082600101546110cc91906119cd565b421115806110ec57506202a30081600101546110e891906119cd565b4211155b6111385760405162461bcd60e51b815260206004820152601b60248201527f436f6e6669726d6174696f6e2077696e646f772065787069726564000000000060448201526064016104c7565b81541561114f5760028201805460ff191660011790555b8054156111685760028101805461ff0019166101001790555b6040516001600160a01b0384169033907fdaa69b084434b7abf25b97158c34fa47de4e65e6604a5476ece7178378ebdb6c90600090a3505050565b6111ab611431565b6001600160a01b0381166111ee576040517f1e4fbdf7000000000000000000000000000000000000000000000000000000008152600060048201526024016104c7565b6111f7816114a5565b50565b6000807ff0c57e16840df040f15088dc2f81fe391c3923bec73e23a9662efc9c229c6a00610fc3565b61122b611523565b6111f781611561565b610f26611523565b306001600160a01b037f00000000000000000000000000000000000000000000000000000000000000001614806112d557507f00000000000000000000000000000000000000000000000000000000000000006001600160a01b03166112c97f360894a13ba1a3210667c828492db98dca3e2076cc3735a920a3ca505d382bbc546001600160a01b031690565b6001600160a01b031614155b15610f265760405163703e46dd60e11b815260040160405180910390fd5b6111f7611431565b816001600160a01b03166352d1902d6040518163ffffffff1660e01b8152600401602060405180830381865afa925050508015611355575060408051601f3d908101601f1916820190925261135291810190611a2c565b60015b61137d57604051634c9c8ce360e01b81526001600160a01b03831660048201526024016104c7565b7f360894a13ba1a3210667c828492db98dca3e2076cc3735a920a3ca505d382bbc81146113d9576040517faa1d49a4000000000000000000000000000000000000000000000000000000008152600481018290526024016104c7565b6113e38383611569565b505050565b306001600160a01b037f00000000000000000000000000000000000000000000000000000000000000001614610f265760405163703e46dd60e11b815260040160405180910390fd5b336114637f9016d09d72d40fdae2fd8ceac6b6234c7706214fd39c1cd1e609a0528c199300546001600160a01b031690565b6001600160a01b031614610f26576040517f118cdaa70000000000000000000000000000000000000000000000000000000081523360048201526024016104c7565b7f9016d09d72d40fdae2fd8ceac6b6234c7706214fd39c1cd1e609a0528c199300805473ffffffffffffffffffffffffffffffffffffffff1981166001600160a01b03848116918217845560405192169182907f8be0079c531659141344cd1fd0a4f28419497f9722a3daafe3b4186f6b6457e090600090a3505050565b61152b6115bf565b610f26576040517fd7e6bcf800000000000000000000000000000000000000000000000000000000815260040160405180910390fd5b6111ab611523565b611572826115de565b6040516001600160a01b038316907fbc7cd75a20ee27fd9adebab32041f755214dbc6bffa90cc0225b39da2e5c2d3b90600090a28051156115b7576113e38282611662565b6109026116d8565b60006115c96111fa565b5468010000000000000000900460ff16919050565b806001600160a01b03163b60000361161457604051634c9c8ce360e01b81526001600160a01b03821660048201526024016104c7565b7f360894a13ba1a3210667c828492db98dca3e2076cc3735a920a3ca505d382bbc805473ffffffffffffffffffffffffffffffffffffffff19166001600160a01b0392909216919091179055565b6060600080846001600160a01b03168460405161167f9190611a45565b600060405180830381855af49150503d80600081146116ba576040519150601f19603f3d011682016040523d82523d6000602084013e6116bf565b606091505b50915091506116cf858383611710565b95945050505050565b3415610f26576040517fb398979f00000000000000000000000000000000000000000000000000000000815260040160405180910390fd5b6060826117255761172082611788565b611781565b815115801561173c57506001600160a01b0384163b155b1561177e576040517f9996b3150000000000000000000000000000000000000000000000000000000081526001600160a01b03851660048201526024016104c7565b50805b9392505050565b80511561179757805160208201fd5b6040517fd6bda27500000000000000000000000000000000000000000000000000000000815260040160405180910390fd5b80356001600160a01b03811681146117e057600080fd5b919050565b6000806000606084860312156117fa57600080fd5b611803846117c9565b95602085013595506040909401359392505050565b6000806040838503121561182b57600080fd5b611834836117c9565b9150611842602084016117c9565b90509250929050565b634e487b7160e01b600052604160045260246000fd5b6000806040838503121561187457600080fd5b61187d836117c9565b9150602083013567ffffffffffffffff8082111561189a57600080fd5b818501915085601f8301126118ae57600080fd5b8135818111156118c0576118c061184b565b604051601f8201601f19908116603f011681019083821181831017156118e8576118e861184b565b8160405282815288602084870101111561190157600080fd5b8260208601602083013760006020848301015280955050505050509250929050565b60006020828403121561193557600080fd5b611781826117c9565b60005b83811015611959578181015183820152602001611941565b50506000910152565b602081526000825180602084015261198181604085016020870161193e565b601f01601f19169190910160400192915050565b6000602082840312156119a757600080fd5b8151801515811461178157600080fd5b634e487b7160e01b600052601160045260246000fd5b80820180821115610fc357610fc36119b7565b8082028115828204841417610fc357610fc36119b7565b600082611a1457634e487b7160e01b600052601260045260246000fd5b500490565b81810381811115610fc357610fc36119b7565b600060208284031215611a3e57600080fd5b5051919050565b60008251611a5781846020870161193e565b919091019291505056fea2646970667358221220c99b9977ecd7b6bcc1e8d38de75d0e3a490b770378ae9332c701fa029f5b688c64736f6c63430008160033",
  "linkReferences": {},
  "deployedLinkReferences": {}
}