{
  "_format": "hh-sol-artifact-1",
  "contractName": "Staking",
  "sourceName": "contracts/Staking.sol",
  "abi": [
    {
      "inputs": [
        {
          "internalType": "address",
          "name": "_usdc",
          "type": "address"
        },
        {
          "internalType": "address",
          "name": "_matching",
          "type": "address"
        }
      ],
      "stateMutability": "nonpayable",
      "type": "constructor"
    },
    {
      "anonymous": false,
      "inputs": [
        {
          "indexed": true,
          "internalType": "address",
          "name": "user",
          "type": "address"
        },
        {
          "indexed": true,
          "internalType": "address",
          "name": "matchedUser",
          "type": "address"
        }
      ],
      "name": "MeetingConfirmed",
      "type": "event"
    },
    {
      "anonymous": false,
      "inputs": [
        {
          "indexed": true,
          "internalType": "address",
          "name": "previousOwner",
          "type": "address"
        },
        {
          "indexed": true,
          "internalType": "address",
          "name": "newOwner",
          "type": "address"
        }
      ],
      "name": "OwnershipTransferred",
      "type": "event"
    },
    {
      "anonymous": false,
      "inputs": [
        {
          "indexed": true,
          "internalType": "address",
          "name": "user1",
          "type": "address"
        },
        {
          "indexed": true,
          "internalType": "address",
          "name": "user2",
          "type": "address"
        },
        {
          "indexed": false,
          "internalType": "uint256",
          "name": "user1Amount",
          "type": "uint256"
        },
        {
          "indexed": false,
          "internalType": "uint256",
          "name": "user2Amount",
          "type": "uint256"
        }
      ],
      "name": "StakeClaimed",
      "type": "event"
    },
    {
      "anonymous": false,
      "inputs": [
        {
          "indexed": true,
          "internalType": "address",
          "name": "user1",
          "type": "address"
        },
        {
          "indexed": true,
          "internalType": "address",
          "name": "user2",
          "type": "address"
        },
        {
          "indexed": false,
          "internalType": "uint256",
          "name": "amount",
          "type": "uint256"
        },
        {
          "indexed": false,
          "internalType": "uint256",
          "name": "meetingTime",
          "type": "uint256"
        }
      ],
      "name": "StakeCreated",
      "type": "event"
    },
    {
      "inputs": [],
      "name": "CONFIRMATION_WINDOW",
      "outputs": [
        {
          "internalType": "uint256",
          "name": "",
          "type": "uint256"
        }
      ],
      "stateMutability": "view",
      "type": "function"
    },
    {
      "inputs": [],
      "name": "PLATFORM_FEE",
      "outputs": [
        {
          "internalType": "uint256",
          "name": "",
          "type": "uint256"
        }
      ],
      "stateMutability": "view",
      "type": "function"
    },
    {
      "inputs": [
        {
          "internalType": "address",
          "name": "matchedUser",
          "type": "address"
        }
      ],
      "name": "claimStake",
      "outputs": [],
      "stateMutability": "nonpayable",
      "type": "function"
    },
    {
      "inputs": [
        {
          "internalType": "address",
          "name": "matchedUser",
          "type": "address"
        }
      ],
      "name": "confirmMeeting",
      "outputs": [],
      "stateMutability": "nonpayable",
      "type": "function"
    },
    {
      "inputs": [
        {
          "internalType": "address",
          "name": "matchedUser",
          "type": "address"
        },
        {
          "internalType": "uint256",
          "name": "amount",
          "type": "uint256"
        },
        {
          "internalType": "uint256",
          "name": "meetingTime",
          "type": "uint256"
        }
      ],
      "name": "createStake",
      "outputs": [],
      "stateMutability": "nonpayable",
      "type": "function"
    },
    {
      "inputs": [
        {
          "internalType": "address",
          "name": "user1",
          "type": "address"
        },
        {
          "internalType": "address",
          "name": "user2",
          "type": "address"
        }
      ],
      "name": "getStake",
      "outputs": [
        {
          "components": [
            {
              "internalType": "uint256",
              "name": "amount",
              "type": "uint256"
            },
            {
              "internalType": "uint256",
              "name": "meetingTime",
              "type": "uint256"
            },
            {
              "internalType": "bool",
              "name": "user1Confirmed",
              "type": "bool"
            },
            {
              "internalType": "bool",
              "name": "user2Confirmed",
              "type": "bool"
            },
            {
              "internalType": "bool",
              "name": "claimed",
              "type": "bool"
            }
          ],
          "internalType": "struct Staking.Stake",
          "name": "",
          "type": "tuple"
        }
      ],
      "stateMutability": "view",
      "type": "function"
    },
    {
      "inputs": [],
      "name": "matching",
      "outputs": [
        {
          "internalType": "contract IMatching",
          "name": "",
          "type": "address"
        }
      ],
      "stateMutability": "view",
      "type": "function"
    },
    {
      "inputs": [],
      "name": "owner",
      "outputs": [
        {
          "internalType": "address",
          "name": "",
          "type": "address"
        }
      ],
      "stateMutability": "view",
      "type": "function"
    },
    {
      "inputs": [],
      "name": "renounceOwnership",
      "outputs": [],
      "stateMutability": "nonpayable",
      "type": "function"
    },
    {
      "inputs": [
        {
          "internalType": "address",
          "name": "",
          "type": "address"
        },
        {
          "internalType": "address",
          "name": "",
          "type": "address"
        }
      ],
      "name": "stakes",
      "outputs": [
        {
          "internalType": "uint256",
          "name": "amount",
          "type": "uint256"
        },
        {
          "internalType": "uint256",
          "name": "meetingTime",
          "type": "uint256"
        },
        {
          "internalType": "bool",
          "name": "user1Confirmed",
          "type": "bool"
        },
        {
          "internalType": "bool",
          "name": "user2Confirmed",
          "type": "bool"
        },
        {
          "internalType": "bool",
          "name": "claimed",
          "type": "bool"
        }
      ],
      "stateMutability": "view",
      "type": "function"
    },
    {
      "inputs": [
        {
          "internalType": "address",
          "name": "newOwner",
          "type": "address"
        }
      ],
      "name": "transferOwnership",
      "outputs": [],
      "stateMutability": "nonpayable",
      "type": "function"
    },
    {
      "inputs": [],
      "name": "usdc",
      "outputs": [
        {
          "internalType": "contract IERC20",
          "name": "",
          "type": "address"
        }
      ],
      "stateMutability": "view",
      "type": "function"
    }
  ],
  "bytecode": "0x608060405234801561001057600080fd5b5060405161121f38038061121f83398101604081905261002f916100d5565b61003833610069565b600180546001600160a01b039384166001600160a01b03199182161790915560028054929093169116179055610108565b600080546001600160a01b038381166001600160a01b0319831681178455604051919092169283917f8be0079c531659141344cd1fd0a4f28419497f9722a3daafe3b4186f6b6457e09190a35050565b80516001600160a01b03811681146100d057600080fd5b919050565b600080604083850312156100e857600080fd5b6100f1836100b9565b91506100ff602084016100b9565b90509250929050565b611108806101176000396000f3fe608060405234801561001057600080fd5b50600436106100d45760003560e01c806386e2d5df11610081578063ae5ec2e91161005b578063ae5ec2e914610245578063ee9a768014610258578063f2fde38b1461026b57600080fd5b806386e2d5df146101aa5780638da5cb5b146101b4578063a4e47b66146101c557600080fd5b806361fdd7df116100b257806361fdd7df14610134578063715018a61461014757806382dda22d1461014f57600080fd5b806334fbc9a1146100d95780633c09cfc6146100f45780633e413bee14610109575b600080fd5b6100e1600581565b6040519081526020015b60405180910390f35b610107610102366004610fb3565b61027e565b005b60015461011c906001600160a01b031681565b6040516001600160a01b0390911681526020016100eb565b610107610142366004610fe6565b6105fb565b610107610bbb565b61016261015d366004611008565b610bcf565b6040516100eb9190600060a082019050825182526020830151602083015260408301511515604083015260608301511515606083015260808301511515608083015292915050565b6100e16202a30081565b6000546001600160a01b031661011c565b6102156101d3366004611008565b600360209081526000928352604080842090915290825290208054600182015460029092015490919060ff808216916101008104821691620100009091041685565b6040805195865260208601949094529115159284019290925290151560608301521515608082015260a0016100eb565b60025461011c906001600160a01b031681565b610107610266366004610fe6565b610c6b565b610107610279366004610fe6565b610e45565b6002546040517fa5b748750000000000000000000000000000000000000000000000000000000081523360048201526001600160a01b0385811660248301529091169063a5b7487590604401602060405180830381865afa1580156102e7573d6000803e3d6000fd5b505050506040513d601f19601f8201168201806040525081019061030b919061103b565b61035c5760405162461bcd60e51b815260206004820152600b60248201527f4e6f74206d61746368656400000000000000000000000000000000000000000060448201526064015b60405180910390fd5b600082116103ac5760405162461bcd60e51b815260206004820152601d60248201527f416d6f756e74206d7573742062652067726561746572207468616e20300000006044820152606401610353565b4281116104215760405162461bcd60e51b815260206004820152602260248201527f4d656574696e672074696d65206d75737420626520696e20746865206675747560448201527f72650000000000000000000000000000000000000000000000000000000000006064820152608401610353565b3360009081526003602090815260408083206001600160a01b0387168452909152902054156104925760405162461bcd60e51b815260206004820152601460248201527f5374616b6520616c7265616479206578697374730000000000000000000000006044820152606401610353565b6001546040517f23b872dd000000000000000000000000000000000000000000000000000000008152336004820152306024820152604481018490526001600160a01b03909116906323b872dd906064016020604051808303816000875af1158015610502573d6000803e3d6000fd5b505050506040513d601f19601f82011682018060405250810190610526919061103b565b506040805160a08101825283815260208082018481526000838501818152606085018281526080860183815233808552600387528885206001600160a01b038d16808752908852948990209751885594516001880155915160029096018054915192511515620100000262ff0000199315156101000261ff00199815159890981661ffff1990931692909217969096179190911617909355835186815291820185905291927fcb4f6987f2d5d044da82fdd1fe6442c0f8b64f18fa3da5bde360fcde9bb107c9910160405180910390a3505050565b3360008181526003602081815260408084206001600160a01b03871685528252808420928252808420948452939052919020815415158061063c5750805415155b6106885760405162461bcd60e51b815260206004820152600f60248201527f4e6f207374616b652065786973747300000000000000000000000000000000006044820152606401610353565b600282015462010000900460ff161580156106ae5750600281015462010000900460ff16155b6106fa5760405162461bcd60e51b815260206004820152600f60248201527f416c726561647920636c61696d656400000000000000000000000000000000006044820152606401610353565b6202a300826001015461070d9190611073565b42118061072b57506202a30081600101546107289190611073565b42115b6107775760405162461bcd60e51b815260206004820152601d60248201527f436f6e6669726d6174696f6e2077696e646f77206e6f7420656e6465640000006044820152606401610353565b81548154600280850180546201000062ff000019918216811783559286018054909116909217909155546000908190819060ff1680156107c057506002860154610100900460ff165b1561082657600060646107d4600588611086565b6107de919061109d565b9050600060646107ef600588611086565b6107f9919061109d565b905061080582886110bf565b945061081181876110bf565b935061081d8183611073565b925050506108dd565b600287015460ff16801561084457506002860154610100900460ff16155b156108825760006064610858866032611086565b610862919061109d565b905061086e8187611073565b935061087a81866110bf565b9250506108dd565b600287015460ff161580156108a057506002860154610100900460ff165b156108d657600060646108b4876032611086565b6108be919061109d565b90506108ca81876110bf565b935061087a8186611073565b8492508391505b82156109a45760015460405163a9059cbb60e01b8152336004820152602481018590526001600160a01b039091169063a9059cbb906044016020604051808303816000875af1158015610934573d6000803e3d6000fd5b505050506040513d601f19601f82011682018060405250810190610958919061103b565b6109a45760405162461bcd60e51b815260206004820152601560248201527f5573657231207472616e73666572206661696c656400000000000000000000006044820152606401610353565b8115610a6d5760015460405163a9059cbb60e01b81526001600160a01b038a81166004830152602482018590529091169063a9059cbb906044016020604051808303816000875af11580156109fd573d6000803e3d6000fd5b505050506040513d601f19601f82011682018060405250810190610a21919061103b565b610a6d5760405162461bcd60e51b815260206004820152601560248201527f5573657232207472616e73666572206661696c656400000000000000000000006044820152606401610353565b8015610b6b576001546001600160a01b031663a9059cbb610a966000546001600160a01b031690565b6040517fffffffff0000000000000000000000000000000000000000000000000000000060e084901b1681526001600160a01b039091166004820152602481018490526044016020604051808303816000875af1158015610afb573d6000803e3d6000fd5b505050506040513d601f19601f82011682018060405250810190610b1f919061103b565b610b6b5760405162461bcd60e51b815260206004820152601360248201527f466565207472616e73666572206661696c6564000000000000000000000000006044820152606401610353565b60408051868152602081018690526001600160a01b038a169133917fc08c27d872ca12215b2df3f441676fe2c084a204a487086d7436a4ac433d417a910160405180910390a35050505050505050565b610bc3610ed5565b610bcd6000610f2f565b565b6040805160a0808201835260008083526020808401829052838501829052606080850183905260809485018390526001600160a01b03888116845260038352868420908816845282529185902085519384018652805484526001810154918401919091526002015460ff808216151595840195909552610100810485161515918301919091526201000090049092161515908201525b92915050565b3360008181526003602081815260408084206001600160a01b038716855282528084209282528084209484529390529190208154151580610cac5750805415155b610cf85760405162461bcd60e51b815260206004820152600f60248201527f4e6f207374616b652065786973747300000000000000000000000000000000006044820152606401610353565b816001015442101580610d0f575080600101544210155b610d5b5760405162461bcd60e51b815260206004820152601860248201527f4d656574696e672074696d65206e6f74207265616368656400000000000000006044820152606401610353565b6202a3008260010154610d6e9190611073565b42111580610d8e57506202a3008160010154610d8a9190611073565b4211155b610dda5760405162461bcd60e51b815260206004820152601b60248201527f436f6e6669726d6174696f6e2077696e646f77206578706972656400000000006044820152606401610353565b815415610df15760028201805460ff191660011790555b805415610e0a5760028101805461ff0019166101001790555b6040516001600160a01b0384169033907fdaa69b084434b7abf25b97158c34fa47de4e65e6604a5476ece7178378ebdb6c90600090a3505050565b610e4d610ed5565b6001600160a01b038116610ec95760405162461bcd60e51b815260206004820152602660248201527f4f776e61626c653a206e6577206f776e657220697320746865207a65726f206160448201527f64647265737300000000000000000000000000000000000000000000000000006064820152608401610353565b610ed281610f2f565b50565b6000546001600160a01b03163314610bcd5760405162461bcd60e51b815260206004820181905260248201527f4f776e61626c653a2063616c6c6572206973206e6f7420746865206f776e65726044820152606401610353565b600080546001600160a01b038381167fffffffffffffffffffffffff0000000000000000000000000000000000000000831681178455604051919092169283917f8be0079c531659141344cd1fd0a4f28419497f9722a3daafe3b4186f6b6457e09190a35050565b80356001600160a01b0381168114610fae57600080fd5b919050565b600080600060608486031215610fc857600080fd5b610fd184610f97565b95602085013595506040909401359392505050565b600060208284031215610ff857600080fd5b61100182610f97565b9392505050565b6000806040838503121561101b57600080fd5b61102483610f97565b915061103260208401610f97565b90509250929050565b60006020828403121561104d57600080fd5b8151801515811461100157600080fd5b634e487b7160e01b600052601160045260246000fd5b80820180821115610c6557610c6561105d565b8082028115828204841417610c6557610c6561105d565b6000826110ba57634e487b7160e01b600052601260045260246000fd5b500490565b81810381811115610c6557610c6561105d56fea2646970667358221220e9938b8d44bdb236eae4586f9a341154af1820cec42f95ceed9a96a4a80addd964736f6c63430008140033",
  "linkReferences": {},
  "deployedLinkReferences": {}
}