{
  "_format": "hh-sol-artifact-1",
  "contractName": "Reputation",
  "sourceName": "contracts/Reputation.sol",
  "abi": [
    {
      "inputs": [
        {
          "internalType": "address",
          "name": "target",
          "type": "address"
        }
      ],
      "name": "AddressEmptyCode",
      "type": "error"
    },
    {
      "inputs": [
        {
          "internalType": "address",
          "name": "implementation",
          "type": "address"
        }
      ],
      "name": "ERC1967InvalidImplementation",
      "type": "error"
    },
    {
      "inputs": [],
      "name": "ERC1967NonPayable",
      "type": "error"
    },
    {
      "inputs": [],
      "name": "FailedCall",
      "type": "error"
    },
    {
      "inputs": [],
      "name": "InvalidInitialization",
      "type": "error"
    },
    {
      "inputs": [],
      "name": "NotInitializing",
      "type": "error"
    },
    {
      "inputs": [
        {
          "internalType": "address",
          "name": "owner",
          "type": "address"
        }
      ],
      "name": "OwnableInvalidOwner",
      "type": "error"
    },
    {
      "inputs": [
        {
          "internalType": "address",
          "name": "account",
          "type": "address"
        }
      ],
      "name": "OwnableUnauthorizedAccount",
      "type": "error"
    },
    {
      "inputs": [],
      "name": "UUPSUnauthorizedCallContext",
      "type": "error"
    },
    {
      "inputs": [
        {
          "internalType": "bytes32",
          "name": "slot",
          "type": "bytes32"
        }
      ],
      "name": "UUPSUnsupportedProxiableUUID",
      "type": "error"
    },
    {
      "anonymous": false,
      "inputs": [
        {
          "indexed": false,
          "internalType": "uint64",
          "name": "version",
          "type": "uint64"
        }
      ],
      "name": "Initialized",
      "type": "event"
    },
    {
      "anonymous": false,
      "inputs": [
        {
          "indexed": true,
          "internalType": "address",
          "name": "previousOwner",
          "type": "address"
        },
        {
          "indexed": true,
          "internalType": "address",
          "name": "newOwner",
          "type": "address"
        }
      ],
      "name": "OwnershipTransferred",
      "type": "event"
    },
    {
      "anonymous": false,
      "inputs": [
        {
          "indexed": true,
          "internalType": "address",
          "name": "user",
          "type": "address"
        },
        {
          "indexed": false,
          "internalType": "uint256",
          "name": "newScore",
          "type": "uint256"
        }
      ],
      "name": "ReputationUpdated",
      "type": "event"
    },
    {
      "anonymous": false,
      "inputs": [
        {
          "indexed": true,
          "internalType": "address",
          "name": "implementation",
          "type": "address"
        }
      ],
      "name": "Upgraded",
      "type": "event"
    },
    {
      "anonymous": false,
      "inputs": [
        {
          "indexed": true,
          "internalType": "address",
          "name": "rater",
          "type": "address"
        },
        {
          "indexed": true,
          "internalType": "address",
          "name": "rated",
          "type": "address"
        },
        {
          "indexed": false,
          "internalType": "uint256",
          "name": "score",
          "type": "uint256"
        }
      ],
      "name": "UserRated",
      "type": "event"
    },
    {
      "inputs": [],
      "name": "UPGRADE_INTERFACE_VERSION",
      "outputs": [
        {
          "internalType": "string",
          "name": "",
          "type": "string"
        }
      ],
      "stateMutability": "view",
      "type": "function"
    },
    {
      "inputs": [
        {
          "internalType": "address",
          "name": "user",
          "type": "address"
        }
      ],
      "name": "getAverageRating",
      "outputs": [
        {
          "internalType": "uint256",
          "name": "",
          "type": "uint256"
        }
      ],
      "stateMutability": "view",
      "type": "function"
    },
    {
      "inputs": [
        {
          "internalType": "address",
          "name": "user",
          "type": "address"
        }
      ],
      "name": "getReputation",
      "outputs": [
        {
          "internalType": "uint256",
          "name": "totalDates",
          "type": "uint256"
        },
        {
          "internalType": "uint256",
          "name": "noShows",
          "type": "uint256"
        },
        {
          "internalType": "uint256",
          "name": "totalRating",
          "type": "uint256"
        },
        {
          "internalType": "uint256",
          "name": "ratingCount",
          "type": "uint256"
        }
      ],
      "stateMutability": "view",
      "type": "function"
    },
    {
      "inputs": [
        {
          "internalType": "address",
          "name": "",
          "type": "address"
        },
        {
          "internalType": "address",
          "name": "",
          "type": "address"
        }
      ],
      "name": "hasRated",
      "outputs": [
        {
          "internalType": "bool",
          "name": "",
          "type": "bool"
        }
      ],
      "stateMutability": "view",
      "type": "function"
    },
    {
      "inputs": [
        {
          "internalType": "address",
          "name": "_matching",
          "type": "address"
        }
      ],
      "name": "initialize",
      "outputs": [],
      "stateMutability": "nonpayable",
      "type": "function"
    },
    {
      "inputs": [],
      "name": "matching",
      "outputs": [
        {
          "internalType": "contract IMatching",
          "name": "",
          "type": "address"
        }
      ],
      "stateMutability": "view",
      "type": "function"
    },
    {
      "inputs": [],
      "name": "owner",
      "outputs": [
        {
          "internalType": "address",
          "name": "",
          "type": "address"
        }
      ],
      "stateMutability": "view",
      "type": "function"
    },
    {
      "inputs": [],
      "name": "proxiableUUID",
      "outputs": [
        {
          "internalType": "bytes32",
          "name": "",
          "type": "bytes32"
        }
      ],
      "stateMutability": "view",
      "type": "function"
    },
    {
      "inputs": [
        {
          "internalType": "address",
          "name": "ratedUser",
          "type": "address"
        },
        {
          "internalType": "uint8",
          "name": "rating",
          "type": "uint8"
        }
      ],
      "name": "rateUser",
      "outputs": [],
      "stateMutability": "nonpayable",
      "type": "function"
    },
    {
      "inputs": [
        {
          "internalType": "address",
          "name": "user",
          "type": "address"
        }
      ],
      "name": "recordDate",
      "outputs": [],
      "stateMutability": "nonpayable",
      "type": "function"
    },
    {
      "inputs": [
        {
          "internalType": "address",
          "name": "user",
          "type": "address"
        }
      ],
      "name": "recordNoShow",
      "outputs": [],
      "stateMutability": "nonpayable",
      "type": "function"
    },
    {
      "inputs": [],
      "name": "renounceOwnership",
      "outputs": [],
      "stateMutability": "nonpayable",
      "type": "function"
    },
    {
      "inputs": [
        {
          "internalType": "address",
          "name": "newOwner",
          "type": "address"
        }
      ],
      "name": "transferOwnership",
      "outputs": [],
      "stateMutability": "nonpayable",
      "type": "function"
    },
    {
      "inputs": [
        {
          "internalType": "address",
          "name": "newImplementation",
          "type": "address"
        },
        {
          "internalType": "bytes",
          "name": "data",
          "type": "bytes"
        }
      ],
      "name": "upgradeToAndCall",
      "outputs": [],
      "stateMutability": "payable",
      "type": "function"
    },
    {
      "inputs": [
        {
          "internalType": "address",
          "name": "",
          "type": "address"
        }
      ],
      "name": "userReputation",
      "outputs": [
        {
          "internalType": "uint256",
          "name": "totalRating",
          "type": "uint256"
        },
        {
          "internalType": "uint256",
          "name": "ratingCount",
          "type": "uint256"
        },
        {
          "internalType": "uint256",
          "name": "totalDates",
          "type": "uint256"
        },
        {
          "internalType": "uint256",
          "name": "noShows",
          "type": "uint256"
        },
        {
          "internalType": "uint256",
          "name": "lastUpdated",
          "type": "uint256"
        }
      ],
      "stateMutability": "view",
      "type": "function"
    }
  ],
  "bytecode": "0x60a060405230608052348015610013575f80fd5b5060805161119b61003a5f395f81816109cd015281816109f60152610b79015261119b5ff3fe6080604052600436106100e4575f3560e01c80639c89a0e211610087578063c4d66de811610057578063c4d66de814610309578063c8b6752214610328578063e503bb0514610347578063f2fde38b146103b6575f80fd5b80639c89a0e21461020f578063ad3cb1cc14610277578063ae5ec2e9146102cc578063bbb8e283146102ea575f80fd5b806352d1902d116100c257806352d1902d1461016a578063715018a61461018c5780638da5cb5b146101a057806397f3a1ab146101f0575f80fd5b80632c365df6146100e85780632e178032146101365780634f1ef28614610157575b5f80fd5b3480156100f3575f80fd5b50610121610102366004610f2e565b600260209081525f928352604080842090915290825290205460ff1681565b60405190151581526020015b60405180910390f35b348015610141575f80fd5b50610155610150366004610f5f565b6103d5565b005b610155610165366004610f8c565b610412565b348015610175575f80fd5b5061017e610431565b60405190815260200161012d565b348015610197575f80fd5b5061015561045f565b3480156101ab575f80fd5b507f9016d09d72d40fdae2fd8ceac6b6234c7706214fd39c1cd1e609a0528c199300546001600160a01b03165b6040516001600160a01b03909116815260200161012d565b3480156101fb575f80fd5b5061015561020a366004610f5f565b610472565b34801561021a575f80fd5b50610257610229366004610f5f565b6001600160a01b03165f90815260016020819052604090912060028101546003820154825492909301549093565b60408051948552602085019390935291830152606082015260800161012d565b348015610282575f80fd5b506102bf6040518060400160405280600581526020017f352e302e3000000000000000000000000000000000000000000000000000000081525081565b60405161012d919061106a565b3480156102d7575f80fd5b505f546101d8906001600160a01b031681565b3480156102f5575f80fd5b5061015561030436600461109c565b6104a7565b348015610314575f80fd5b50610155610323366004610f5f565b610760565b348015610333575f80fd5b5061017e610342366004610f5f565b6108b5565b348015610352575f80fd5b5061038e610361366004610f5f565b600160208190525f9182526040909120805491810154600282015460038301546004909301549192909185565b604080519586526020860194909452928401919091526060830152608082015260a00161012d565b3480156103c1575f80fd5b506101556103d0366004610f5f565b6108f8565b6103dd61094e565b6001600160a01b0381165f908152600160208190526040822060030180549192909161040a9084906110d6565b909155505050565b61041a6109c2565b61042382610a79565b61042d8282610a81565b5050565b5f61043a610b6e565b507f360894a13ba1a3210667c828492db98dca3e2076cc3735a920a3ca505d382bbc90565b61046761094e565b6104705f610bb7565b565b61047a61094e565b6001600160a01b0381165f908152600160208190526040822060020180549192909161040a9084906110d6565b5f546040517fa5b748750000000000000000000000000000000000000000000000000000000081523360048201526001600160a01b0384811660248301529091169063a5b7487590604401602060405180830381865afa15801561050d573d5f803e3d5ffd5b505050506040513d601f19601f8201168201806040525081019061053191906110f5565b6105825760405162461bcd60e51b815260206004820152601560248201527f557365727320617265206e6f74206d617463686564000000000000000000000060448201526064015b60405180910390fd5b60018160ff161015801561059a575060058160ff1611155b6105e65760405162461bcd60e51b815260206004820152601e60248201527f526174696e67206d757374206265206265747765656e203120616e64203500006044820152606401610579565b335f9081526002602090815260408083206001600160a01b038616845290915290205460ff16156106595760405162461bcd60e51b815260206004820152601760248201527f416c7265616479207261746564207468697320757365720000000000000000006044820152606401610579565b335f9081526002602090815260408083206001600160a01b03861684528252808320805460ff1916600190811790915590915281208054909160ff8416918391906106a59084906110d6565b9091555050600181810180545f906106be9084906110d6565b909155505042600482015560405160ff831681526001600160a01b0384169033907f5d7810bb85751be82d8965293f081a3833be22a320a0ad50eeae86b00251a5b39060200160405180910390a3826001600160a01b03167ffc577563f1b9a0461e24abef1e1fcc0d33d3d881f20b5df6dda59de4aae2c8218260010154835f015461074a9190611114565b60405190815260200160405180910390a2505050565b5f610769610c34565b805490915060ff68010000000000000000820416159067ffffffffffffffff165f811580156107955750825b90505f8267ffffffffffffffff1660011480156107b15750303b155b9050811580156107bf575080155b156107f6576040517ff92ee8a900000000000000000000000000000000000000000000000000000000815260040160405180910390fd5b845467ffffffffffffffff19166001178555831561082a57845468ff00000000000000001916680100000000000000001785555b61083333610c5e565b61083b610c6f565b5f805473ffffffffffffffffffffffffffffffffffffffff19166001600160a01b03881617905583156108ad57845468ff000000000000000019168555604051600181527fc7f505b2f371ae2175ee4913f4499e1f2633a7b5936321eed1cdaeb6115181d29060200160405180910390a15b505050505050565b6001600160a01b0381165f90815260016020819052604082209081015482036108e057505f92915050565b600181015481546108f19190611114565b9392505050565b61090061094e565b6001600160a01b038116610942576040517f1e4fbdf70000000000000000000000000000000000000000000000000000000081525f6004820152602401610579565b61094b81610bb7565b50565b336109807f9016d09d72d40fdae2fd8ceac6b6234c7706214fd39c1cd1e609a0528c199300546001600160a01b031690565b6001600160a01b031614610470576040517f118cdaa7000000000000000000000000000000000000000000000000000000008152336004820152602401610579565b306001600160a01b037f0000000000000000000000000000000000000000000000000000000000000000161480610a5b57507f00000000000000000000000000000000000000000000000000000000000000006001600160a01b0316610a4f7f360894a13ba1a3210667c828492db98dca3e2076cc3735a920a3ca505d382bbc546001600160a01b031690565b6001600160a01b031614155b156104705760405163703e46dd60e11b815260040160405180910390fd5b61094b61094e565b816001600160a01b03166352d1902d6040518163ffffffff1660e01b8152600401602060405180830381865afa925050508015610adb575060408051601f3d908101601f19168201909252610ad891810190611133565b60015b610b0357604051634c9c8ce360e01b81526001600160a01b0383166004820152602401610579565b7f360894a13ba1a3210667c828492db98dca3e2076cc3735a920a3ca505d382bbc8114610b5f576040517faa1d49a400000000000000000000000000000000000000000000000000000000815260048101829052602401610579565b610b698383610c77565b505050565b306001600160a01b037f000000000000000000000000000000000000000000000000000000000000000016146104705760405163703e46dd60e11b815260040160405180910390fd5b7f9016d09d72d40fdae2fd8ceac6b6234c7706214fd39c1cd1e609a0528c199300805473ffffffffffffffffffffffffffffffffffffffff1981166001600160a01b03848116918217845560405192169182907f8be0079c531659141344cd1fd0a4f28419497f9722a3daafe3b4186f6b6457e0905f90a3505050565b5f807ff0c57e16840df040f15088dc2f81fe391c3923bec73e23a9662efc9c229c6a005b92915050565b610c66610ccc565b61094b81610d0a565b610470610ccc565b610c8082610d12565b6040516001600160a01b038316907fbc7cd75a20ee27fd9adebab32041f755214dbc6bffa90cc0225b39da2e5c2d3b905f90a2805115610cc457610b698282610d95565b61042d610e07565b610cd4610e3f565b610470576040517fd7e6bcf800000000000000000000000000000000000000000000000000000000815260040160405180910390fd5b610900610ccc565b806001600160a01b03163b5f03610d4757604051634c9c8ce360e01b81526001600160a01b0382166004820152602401610579565b7f360894a13ba1a3210667c828492db98dca3e2076cc3735a920a3ca505d382bbc805473ffffffffffffffffffffffffffffffffffffffff19166001600160a01b0392909216919091179055565b60605f80846001600160a01b031684604051610db1919061114a565b5f60405180830381855af49150503d805f8114610de9576040519150601f19603f3d011682016040523d82523d5f602084013e610dee565b606091505b5091509150610dfe858383610e5d565b95945050505050565b3415610470576040517fb398979f00000000000000000000000000000000000000000000000000000000815260040160405180910390fd5b5f610e48610c34565b5468010000000000000000900460ff16919050565b606082610e7257610e6d82610ed2565b6108f1565b8151158015610e8957506001600160a01b0384163b155b15610ecb576040517f9996b3150000000000000000000000000000000000000000000000000000000081526001600160a01b0385166004820152602401610579565b5092915050565b805115610ee157805160208201fd5b6040517fd6bda27500000000000000000000000000000000000000000000000000000000815260040160405180910390fd5b80356001600160a01b0381168114610f29575f80fd5b919050565b5f8060408385031215610f3f575f80fd5b610f4883610f13565b9150610f5660208401610f13565b90509250929050565b5f60208284031215610f6f575f80fd5b6108f182610f13565b634e487b7160e01b5f52604160045260245ffd5b5f8060408385031215610f9d575f80fd5b610fa683610f13565b9150602083013567ffffffffffffffff80821115610fc2575f80fd5b818501915085601f830112610fd5575f80fd5b813581811115610fe757610fe7610f78565b604051601f8201601f19908116603f0116810190838211818310171561100f5761100f610f78565b81604052828152886020848701011115611027575f80fd5b826020860160208301375f6020848301015280955050505050509250929050565b5f5b8381101561106257818101518382015260200161104a565b50505f910152565b602081525f8251806020840152611088816040850160208701611048565b601f01601f19169190910160400192915050565b5f80604083850312156110ad575f80fd5b6110b683610f13565b9150602083013560ff811681146110cb575f80fd5b809150509250929050565b80820180821115610c5857634e487b7160e01b5f52601160045260245ffd5b5f60208284031215611105575f80fd5b815180151581146108f1575f80fd5b5f8261112e57634e487b7160e01b5f52601260045260245ffd5b500490565b5f60208284031215611143575f80fd5b5051919050565b5f825161115b818460208701611048565b919091019291505056fea2646970667358221220ce5062a260456a0567bf3bfc14b8d85730de35bb47ee9ed063400f1f375e1e5564736f6c63430008160033",
  "linkReferences": {},
  "deployedLinkReferences": {}
}