{
  "_format": "hh-sol-artifact-1",
  "contractName": "Reputation",
  "sourceName": "contracts/Reputation.sol",
  "abi": [
    {
      "inputs": [
        {
          "internalType": "address",
          "name": "_matching",
          "type": "address"
        }
      ],
      "stateMutability": "nonpayable",
      "type": "constructor"
    },
    {
      "anonymous": false,
      "inputs": [
        {
          "indexed": true,
          "internalType": "address",
          "name": "previousOwner",
          "type": "address"
        },
        {
          "indexed": true,
          "internalType": "address",
          "name": "newOwner",
          "type": "address"
        }
      ],
      "name": "OwnershipTransferred",
      "type": "event"
    },
    {
      "anonymous": false,
      "inputs": [
        {
          "indexed": true,
          "internalType": "address",
          "name": "user",
          "type": "address"
        },
        {
          "indexed": false,
          "internalType": "uint256",
          "name": "newScore",
          "type": "uint256"
        }
      ],
      "name": "ReputationUpdated",
      "type": "event"
    },
    {
      "anonymous": false,
      "inputs": [
        {
          "indexed": true,
          "internalType": "address",
          "name": "rater",
          "type": "address"
        },
        {
          "indexed": true,
          "internalType": "address",
          "name": "rated",
          "type": "address"
        },
        {
          "indexed": false,
          "internalType": "uint256",
          "name": "score",
          "type": "uint256"
        }
      ],
      "name": "UserRated",
      "type": "event"
    },
    {
      "inputs": [
        {
          "internalType": "address",
          "name": "user",
          "type": "address"
        }
      ],
      "name": "getAverageRating",
      "outputs": [
        {
          "internalType": "uint256",
          "name": "",
          "type": "uint256"
        }
      ],
      "stateMutability": "view",
      "type": "function"
    },
    {
      "inputs": [
        {
          "internalType": "address",
          "name": "user",
          "type": "address"
        }
      ],
      "name": "getReputation",
      "outputs": [
        {
          "internalType": "uint256",
          "name": "totalDates",
          "type": "uint256"
        },
        {
          "internalType": "uint256",
          "name": "noShows",
          "type": "uint256"
        },
        {
          "internalType": "uint256",
          "name": "totalRating",
          "type": "uint256"
        },
        {
          "internalType": "uint256",
          "name": "ratingCount",
          "type": "uint256"
        }
      ],
      "stateMutability": "view",
      "type": "function"
    },
    {
      "inputs": [
        {
          "internalType": "address",
          "name": "",
          "type": "address"
        },
        {
          "internalType": "address",
          "name": "",
          "type": "address"
        }
      ],
      "name": "hasRated",
      "outputs": [
        {
          "internalType": "bool",
          "name": "",
          "type": "bool"
        }
      ],
      "stateMutability": "view",
      "type": "function"
    },
    {
      "inputs": [],
      "name": "matching",
      "outputs": [
        {
          "internalType": "contract IMatching",
          "name": "",
          "type": "address"
        }
      ],
      "stateMutability": "view",
      "type": "function"
    },
    {
      "inputs": [],
      "name": "owner",
      "outputs": [
        {
          "internalType": "address",
          "name": "",
          "type": "address"
        }
      ],
      "stateMutability": "view",
      "type": "function"
    },
    {
      "inputs": [
        {
          "internalType": "address",
          "name": "ratedUser",
          "type": "address"
        },
        {
          "internalType": "uint8",
          "name": "rating",
          "type": "uint8"
        }
      ],
      "name": "rateUser",
      "outputs": [],
      "stateMutability": "nonpayable",
      "type": "function"
    },
    {
      "inputs": [
        {
          "internalType": "address",
          "name": "user",
          "type": "address"
        }
      ],
      "name": "recordDate",
      "outputs": [],
      "stateMutability": "nonpayable",
      "type": "function"
    },
    {
      "inputs": [
        {
          "internalType": "address",
          "name": "user",
          "type": "address"
        }
      ],
      "name": "recordNoShow",
      "outputs": [],
      "stateMutability": "nonpayable",
      "type": "function"
    },
    {
      "inputs": [],
      "name": "renounceOwnership",
      "outputs": [],
      "stateMutability": "nonpayable",
      "type": "function"
    },
    {
      "inputs": [
        {
          "internalType": "address",
          "name": "newOwner",
          "type": "address"
        }
      ],
      "name": "transferOwnership",
      "outputs": [],
      "stateMutability": "nonpayable",
      "type": "function"
    },
    {
      "inputs": [
        {
          "internalType": "address",
          "name": "",
          "type": "address"
        }
      ],
      "name": "userReputation",
      "outputs": [
        {
          "internalType": "uint256",
          "name": "totalRating",
          "type": "uint256"
        },
        {
          "internalType": "uint256",
          "name": "ratingCount",
          "type": "uint256"
        },
        {
          "internalType": "uint256",
          "name": "totalDates",
          "type": "uint256"
        },
        {
          "internalType": "uint256",
          "name": "noShows",
          "type": "uint256"
        },
        {
          "internalType": "uint256",
          "name": "lastUpdated",
          "type": "uint256"
        }
      ],
      "stateMutability": "view",
      "type": "function"
    }
  ],
  "bytecode": "0x608060405234801561001057600080fd5b5060405161099338038061099383398101604081905261002f916100ad565b6100383361005d565b600180546001600160a01b0319166001600160a01b03929092169190911790556100dd565b600080546001600160a01b038381166001600160a01b0319831681178455604051919092169283917f8be0079c531659141344cd1fd0a4f28419497f9722a3daafe3b4186f6b6457e09190a35050565b6000602082840312156100bf57600080fd5b81516001600160a01b03811681146100d657600080fd5b9392505050565b6108a7806100ec6000396000f3fe608060405234801561001057600080fd5b50600436106100c95760003560e01c80639c89a0e211610081578063c8b675221161005b578063c8b67522146101ed578063e503bb051461020e578063f2fde38b1461027357600080fd5b80639c89a0e214610166578063ae5ec2e9146101c7578063bbb8e283146101da57600080fd5b8063715018a6116100b2578063715018a6146101265780638da5cb5b1461012e57806397f3a1ab1461015357600080fd5b80632c365df6146100ce5780632e17803214610111575b600080fd5b6100fc6100dc36600461077b565b600360209081526000928352604080842090915290825290205460ff1681565b60405190151581526020015b60405180910390f35b61012461011f3660046107ae565b610286565b005b6101246102c2565b6000546001600160a01b03165b6040516001600160a01b039091168152602001610108565b6101246101613660046107ae565b6102d6565b6101a76101743660046107ae565b6001600160a01b031660009081526002602081905260409091209081015460038201548254600190930154919390929190565b604080519485526020850193909352918301526060820152608001610108565b60015461013b906001600160a01b031681565b6101246101e83660046107c9565b61030a565b6102006101fb3660046107ae565b6105c9565b604051908152602001610108565b61024b61021c3660046107ae565b600260208190526000918252604090912080546001820154928201546003830154600490930154919392909185565b604080519586526020860194909452928401919091526060830152608082015260a001610108565b6101246102813660046107ae565b61060d565b61028e61069d565b6001600160a01b03811660009081526002602052604081206003018054600192906102ba908490610806565b909155505050565b6102ca61069d565b6102d460006106f7565b565b6102de61069d565b6001600160a01b03811660009081526002602081905260408220018054600192906102ba908490610806565b6001546040517fa5b748750000000000000000000000000000000000000000000000000000000081523360048201526001600160a01b0384811660248301529091169063a5b7487590604401602060405180830381865afa158015610373573d6000803e3d6000fd5b505050506040513d601f19601f82011682018060405250810190610397919061082d565b6103e85760405162461bcd60e51b815260206004820152601560248201527f557365727320617265206e6f74206d617463686564000000000000000000000060448201526064015b60405180910390fd5b60018160ff1610158015610400575060058160ff1611155b61044c5760405162461bcd60e51b815260206004820152601e60248201527f526174696e67206d757374206265206265747765656e203120616e642035000060448201526064016103df565b3360009081526003602090815260408083206001600160a01b038616845290915290205460ff16156104c05760405162461bcd60e51b815260206004820152601760248201527f416c72656164792072617465642074686973207573657200000000000000000060448201526064016103df565b3360009081526003602090815260408083206001600160a01b03861684528252808320805460ff19166001179055600290915281208054909160ff84169183919061050c908490610806565b909155505060018181018054600090610526908490610806565b909155505042600482015560405160ff831681526001600160a01b0384169033907f5d7810bb85751be82d8965293f081a3833be22a320a0ad50eeae86b00251a5b39060200160405180910390a3826001600160a01b03167ffc577563f1b9a0461e24abef1e1fcc0d33d3d881f20b5df6dda59de4aae2c821826001015483600001546105b3919061084f565b60405190815260200160405180910390a2505050565b6001600160a01b0381166000908152600260205260408120600181015482036105f55750600092915050565b60018101548154610606919061084f565b9392505050565b61061561069d565b6001600160a01b0381166106915760405162461bcd60e51b815260206004820152602660248201527f4f776e61626c653a206e6577206f776e657220697320746865207a65726f206160448201527f646472657373000000000000000000000000000000000000000000000000000060648201526084016103df565b61069a816106f7565b50565b6000546001600160a01b031633146102d45760405162461bcd60e51b815260206004820181905260248201527f4f776e61626c653a2063616c6c6572206973206e6f7420746865206f776e657260448201526064016103df565b600080546001600160a01b038381167fffffffffffffffffffffffff0000000000000000000000000000000000000000831681178455604051919092169283917f8be0079c531659141344cd1fd0a4f28419497f9722a3daafe3b4186f6b6457e09190a35050565b80356001600160a01b038116811461077657600080fd5b919050565b6000806040838503121561078e57600080fd5b6107978361075f565b91506107a56020840161075f565b90509250929050565b6000602082840312156107c057600080fd5b6106068261075f565b600080604083850312156107dc57600080fd5b6107e58361075f565b9150602083013560ff811681146107fb57600080fd5b809150509250929050565b8082018082111561082757634e487b7160e01b600052601160045260246000fd5b92915050565b60006020828403121561083f57600080fd5b8151801515811461060657600080fd5b60008261086c57634e487b7160e01b600052601260045260246000fd5b50049056fea2646970667358221220dc85f92d656141b11b2c3f392a6cee1eeb871b2c6659914ca4d02515363e7bfe64736f6c63430008140033",
  "linkReferences": {},
  "deployedLinkReferences": {}
}