{
  "_format": "hh-sol-artifact-1",
  "contractName": "Reputation",
  "sourceName": "contracts/Reputation.sol",
  "abi": [
    {
      "inputs": [
        {
          "internalType": "address",
          "name": "_matching",
          "type": "address"
        }
      ],
      "stateMutability": "nonpayable",
      "type": "constructor"
    },
    {
      "inputs": [
        {
          "internalType": "address",
          "name": "target",
          "type": "address"
        }
      ],
      "name": "AddressEmptyCode",
      "type": "error"
    },
    {
      "inputs": [
        {
          "internalType": "address",
          "name": "implementation",
          "type": "address"
        }
      ],
      "name": "ERC1967InvalidImplementation",
      "type": "error"
    },
    {
      "inputs": [],
      "name": "ERC1967NonPayable",
      "type": "error"
    },
    {
      "inputs": [],
      "name": "FailedCall",
      "type": "error"
    },
    {
      "inputs": [],
      "name": "InvalidInitialization",
      "type": "error"
    },
    {
      "inputs": [],
      "name": "NotInitializing",
      "type": "error"
    },
    {
      "inputs": [
        {
          "internalType": "address",
          "name": "owner",
          "type": "address"
        }
      ],
      "name": "OwnableInvalidOwner",
      "type": "error"
    },
    {
      "inputs": [
        {
          "internalType": "address",
          "name": "account",
          "type": "address"
        }
      ],
      "name": "OwnableUnauthorizedAccount",
      "type": "error"
    },
    {
      "inputs": [],
      "name": "UUPSUnauthorizedCallContext",
      "type": "error"
    },
    {
      "inputs": [
        {
          "internalType": "bytes32",
          "name": "slot",
          "type": "bytes32"
        }
      ],
      "name": "UUPSUnsupportedProxiableUUID",
      "type": "error"
    },
    {
      "anonymous": false,
      "inputs": [
        {
          "indexed": false,
          "internalType": "uint64",
          "name": "version",
          "type": "uint64"
        }
      ],
      "name": "Initialized",
      "type": "event"
    },
    {
      "anonymous": false,
      "inputs": [
        {
          "indexed": true,
          "internalType": "address",
          "name": "previousOwner",
          "type": "address"
        },
        {
          "indexed": true,
          "internalType": "address",
          "name": "newOwner",
          "type": "address"
        }
      ],
      "name": "OwnershipTransferred",
      "type": "event"
    },
    {
      "anonymous": false,
      "inputs": [
        {
          "indexed": true,
          "internalType": "address",
          "name": "user",
          "type": "address"
        },
        {
          "indexed": false,
          "internalType": "uint256",
          "name": "newScore",
          "type": "uint256"
        }
      ],
      "name": "ReputationUpdated",
      "type": "event"
    },
    {
      "anonymous": false,
      "inputs": [
        {
          "indexed": true,
          "internalType": "address",
          "name": "implementation",
          "type": "address"
        }
      ],
      "name": "Upgraded",
      "type": "event"
    },
    {
      "anonymous": false,
      "inputs": [
        {
          "indexed": true,
          "internalType": "address",
          "name": "rater",
          "type": "address"
        },
        {
          "indexed": true,
          "internalType": "address",
          "name": "rated",
          "type": "address"
        },
        {
          "indexed": false,
          "internalType": "uint256",
          "name": "score",
          "type": "uint256"
        }
      ],
      "name": "UserRated",
      "type": "event"
    },
    {
      "inputs": [],
      "name": "UPGRADE_INTERFACE_VERSION",
      "outputs": [
        {
          "internalType": "string",
          "name": "",
          "type": "string"
        }
      ],
      "stateMutability": "view",
      "type": "function"
    },
    {
      "inputs": [
        {
          "internalType": "address",
          "name": "user",
          "type": "address"
        }
      ],
      "name": "getAverageRating",
      "outputs": [
        {
          "internalType": "uint256",
          "name": "",
          "type": "uint256"
        }
      ],
      "stateMutability": "view",
      "type": "function"
    },
    {
      "inputs": [
        {
          "internalType": "address",
          "name": "user",
          "type": "address"
        }
      ],
      "name": "getReputation",
      "outputs": [
        {
          "internalType": "uint256",
          "name": "totalDates",
          "type": "uint256"
        },
        {
          "internalType": "uint256",
          "name": "noShows",
          "type": "uint256"
        },
        {
          "internalType": "uint256",
          "name": "totalRating",
          "type": "uint256"
        },
        {
          "internalType": "uint256",
          "name": "ratingCount",
          "type": "uint256"
        }
      ],
      "stateMutability": "view",
      "type": "function"
    },
    {
      "inputs": [
        {
          "internalType": "address",
          "name": "",
          "type": "address"
        },
        {
          "internalType": "address",
          "name": "",
          "type": "address"
        }
      ],
      "name": "hasRated",
      "outputs": [
        {
          "internalType": "bool",
          "name": "",
          "type": "bool"
        }
      ],
      "stateMutability": "view",
      "type": "function"
    },
    {
      "inputs": [
        {
          "internalType": "address",
          "name": "_matching",
          "type": "address"
        }
      ],
      "name": "initialize",
      "outputs": [],
      "stateMutability": "nonpayable",
      "type": "function"
    },
    {
      "inputs": [],
      "name": "matching",
      "outputs": [
        {
          "internalType": "contract IMatching",
          "name": "",
          "type": "address"
        }
      ],
      "stateMutability": "view",
      "type": "function"
    },
    {
      "inputs": [],
      "name": "owner",
      "outputs": [
        {
          "internalType": "address",
          "name": "",
          "type": "address"
        }
      ],
      "stateMutability": "view",
      "type": "function"
    },
    {
      "inputs": [],
      "name": "proxiableUUID",
      "outputs": [
        {
          "internalType": "bytes32",
          "name": "",
          "type": "bytes32"
        }
      ],
      "stateMutability": "view",
      "type": "function"
    },
    {
      "inputs": [
        {
          "internalType": "address",
          "name": "ratedUser",
          "type": "address"
        },
        {
          "internalType": "uint8",
          "name": "rating",
          "type": "uint8"
        }
      ],
      "name": "rateUser",
      "outputs": [],
      "stateMutability": "nonpayable",
      "type": "function"
    },
    {
      "inputs": [
        {
          "internalType": "address",
          "name": "user",
          "type": "address"
        }
      ],
      "name": "recordDate",
      "outputs": [],
      "stateMutability": "nonpayable",
      "type": "function"
    },
    {
      "inputs": [
        {
          "internalType": "address",
          "name": "user",
          "type": "address"
        }
      ],
      "name": "recordNoShow",
      "outputs": [],
      "stateMutability": "nonpayable",
      "type": "function"
    },
    {
      "inputs": [],
      "name": "renounceOwnership",
      "outputs": [],
      "stateMutability": "nonpayable",
      "type": "function"
    },
    {
      "inputs": [
        {
          "internalType": "address",
          "name": "newOwner",
          "type": "address"
        }
      ],
      "name": "transferOwnership",
      "outputs": [],
      "stateMutability": "nonpayable",
      "type": "function"
    },
    {
      "inputs": [
        {
          "internalType": "address",
          "name": "newImplementation",
          "type": "address"
        },
        {
          "internalType": "bytes",
          "name": "data",
          "type": "bytes"
        }
      ],
      "name": "upgradeToAndCall",
      "outputs": [],
      "stateMutability": "payable",
      "type": "function"
    },
    {
      "inputs": [
        {
          "internalType": "address",
          "name": "",
          "type": "address"
        }
      ],
      "name": "userReputation",
      "outputs": [
        {
          "internalType": "uint256",
          "name": "totalRating",
          "type": "uint256"
        },
        {
          "internalType": "uint256",
          "name": "ratingCount",
          "type": "uint256"
        },
        {
          "internalType": "uint256",
          "name": "totalDates",
          "type": "uint256"
        },
        {
          "internalType": "uint256",
          "name": "noShows",
          "type": "uint256"
        },
        {
          "internalType": "uint256",
          "name": "lastUpdated",
          "type": "uint256"
        }
      ],
      "stateMutability": "view",
      "type": "function"
    }
  ],
  "bytecode": "0x60a06040523060805234801561001457600080fd5b50604051611337380380611337833981016040819052610033916100f3565b61003b610041565b50610123565b7ff0c57e16840df040f15088dc2f81fe391c3923bec73e23a9662efc9c229c6a00805468010000000000000000900460ff16156100915760405163f92ee8a960e01b815260040160405180910390fd5b80546001600160401b03908116146100f05780546001600160401b0319166001600160401b0390811782556040519081527fc7f505b2f371ae2175ee4913f4499e1f2633a7b5936321eed1cdaeb6115181d29060200160405180910390a15b50565b60006020828403121561010557600080fd5b81516001600160a01b038116811461011c57600080fd5b9392505050565b6080516111eb61014c600039600081816109f601528181610a1f0152610ba201526111eb6000f3fe6080604052600436106100e85760003560e01c80639c89a0e21161008a578063c4d66de811610059578063c4d66de81461031b578063c8b675221461033b578063e503bb051461035b578063f2fde38b146103cc57600080fd5b80639c89a0e21461021b578063ad3cb1cc14610285578063ae5ec2e9146102db578063bbb8e283146102fb57600080fd5b806352d1902d116100c657806352d1902d14610172578063715018a6146101955780638da5cb5b146101aa57806397f3a1ab146101fb57600080fd5b80632c365df6146100ed5780632e1780321461013d5780634f1ef2861461015f575b600080fd5b3480156100f957600080fd5b50610128610108366004610f61565b600260209081526000928352604080842090915290825290205460ff1681565b60405190151581526020015b60405180910390f35b34801561014957600080fd5b5061015d610158366004610f94565b6103ec565b005b61015d61016d366004610fc5565b61042a565b34801561017e57600080fd5b50610187610449565b604051908152602001610134565b3480156101a157600080fd5b5061015d610478565b3480156101b657600080fd5b507f9016d09d72d40fdae2fd8ceac6b6234c7706214fd39c1cd1e609a0528c199300546001600160a01b03165b6040516001600160a01b039091168152602001610134565b34801561020757600080fd5b5061015d610216366004610f94565b61048c565b34801561022757600080fd5b50610265610236366004610f94565b6001600160a01b0316600090815260016020819052604090912060028101546003820154825492909301549093565b604080519485526020850193909352918301526060820152608001610134565b34801561029157600080fd5b506102ce6040518060400160405280600581526020017f352e302e3000000000000000000000000000000000000000000000000000000081525081565b60405161013491906110ab565b3480156102e757600080fd5b506000546101e3906001600160a01b031681565b34801561030757600080fd5b5061015d6103163660046110de565b6104c2565b34801561032757600080fd5b5061015d610336366004610f94565b610782565b34801561034757600080fd5b50610187610356366004610f94565b6108db565b34801561036757600080fd5b506103a4610376366004610f94565b6001602081905260009182526040909120805491810154600282015460038301546004909301549192909185565b604080519586526020860194909452928401919091526060830152608082015260a001610134565b3480156103d857600080fd5b5061015d6103e7366004610f94565b610920565b6103f4610977565b6001600160a01b0381166000908152600160208190526040822060030180549192909161042290849061111b565b909155505050565b6104326109eb565b61043b82610aa2565b6104458282610aaa565b5050565b6000610453610b97565b507f360894a13ba1a3210667c828492db98dca3e2076cc3735a920a3ca505d382bbc90565b610480610977565b61048a6000610be0565b565b610494610977565b6001600160a01b0381166000908152600160208190526040822060020180549192909161042290849061111b565b6000546040517fa5b748750000000000000000000000000000000000000000000000000000000081523360048201526001600160a01b0384811660248301529091169063a5b7487590604401602060405180830381865afa15801561052b573d6000803e3d6000fd5b505050506040513d601f19601f8201168201806040525081019061054f919061113c565b6105a05760405162461bcd60e51b815260206004820152601560248201527f557365727320617265206e6f74206d617463686564000000000000000000000060448201526064015b60405180910390fd5b60018160ff16101580156105b8575060058160ff1611155b6106045760405162461bcd60e51b815260206004820152601e60248201527f526174696e67206d757374206265206265747765656e203120616e64203500006044820152606401610597565b3360009081526002602090815260408083206001600160a01b038616845290915290205460ff16156106785760405162461bcd60e51b815260206004820152601760248201527f416c7265616479207261746564207468697320757365720000000000000000006044820152606401610597565b3360009081526002602090815260408083206001600160a01b03861684528252808320805460ff1916600190811790915590915281208054909160ff8416918391906106c590849061111b565b9091555050600181810180546000906106df90849061111b565b909155505042600482015560405160ff831681526001600160a01b0384169033907f5d7810bb85751be82d8965293f081a3833be22a320a0ad50eeae86b00251a5b39060200160405180910390a3826001600160a01b03167ffc577563f1b9a0461e24abef1e1fcc0d33d3d881f20b5df6dda59de4aae2c8218260010154836000015461076c919061115e565b60405190815260200160405180910390a2505050565b600061078c610c5e565b805490915060ff68010000000000000000820416159067ffffffffffffffff166000811580156107b95750825b905060008267ffffffffffffffff1660011480156107d65750303b155b9050811580156107e4575080155b1561081b576040517ff92ee8a900000000000000000000000000000000000000000000000000000000815260040160405180910390fd5b845467ffffffffffffffff19166001178555831561084f57845468ff00000000000000001916680100000000000000001785555b61085833610c89565b610860610c9a565b6000805473ffffffffffffffffffffffffffffffffffffffff19166001600160a01b03881617905583156108d357845468ff000000000000000019168555604051600181527fc7f505b2f371ae2175ee4913f4499e1f2633a7b5936321eed1cdaeb6115181d29060200160405180910390a15b505050505050565b6001600160a01b038116600090815260016020819052604082209081015482036109085750600092915050565b60018101548154610919919061115e565b9392505050565b610928610977565b6001600160a01b03811661096b576040517f1e4fbdf700000000000000000000000000000000000000000000000000000000815260006004820152602401610597565b61097481610be0565b50565b336109a97f9016d09d72d40fdae2fd8ceac6b6234c7706214fd39c1cd1e609a0528c199300546001600160a01b031690565b6001600160a01b03161461048a576040517f118cdaa7000000000000000000000000000000000000000000000000000000008152336004820152602401610597565b306001600160a01b037f0000000000000000000000000000000000000000000000000000000000000000161480610a8457507f00000000000000000000000000000000000000000000000000000000000000006001600160a01b0316610a787f360894a13ba1a3210667c828492db98dca3e2076cc3735a920a3ca505d382bbc546001600160a01b031690565b6001600160a01b031614155b1561048a5760405163703e46dd60e11b815260040160405180910390fd5b610974610977565b816001600160a01b03166352d1902d6040518163ffffffff1660e01b8152600401602060405180830381865afa925050508015610b04575060408051601f3d908101601f19168201909252610b0191810190611180565b60015b610b2c57604051634c9c8ce360e01b81526001600160a01b0383166004820152602401610597565b7f360894a13ba1a3210667c828492db98dca3e2076cc3735a920a3ca505d382bbc8114610b88576040517faa1d49a400000000000000000000000000000000000000000000000000000000815260048101829052602401610597565b610b928383610ca2565b505050565b306001600160a01b037f0000000000000000000000000000000000000000000000000000000000000000161461048a5760405163703e46dd60e11b815260040160405180910390fd5b7f9016d09d72d40fdae2fd8ceac6b6234c7706214fd39c1cd1e609a0528c199300805473ffffffffffffffffffffffffffffffffffffffff1981166001600160a01b03848116918217845560405192169182907f8be0079c531659141344cd1fd0a4f28419497f9722a3daafe3b4186f6b6457e090600090a3505050565b6000807ff0c57e16840df040f15088dc2f81fe391c3923bec73e23a9662efc9c229c6a005b92915050565b610c91610cf8565b61097481610d36565b61048a610cf8565b610cab82610d3e565b6040516001600160a01b038316907fbc7cd75a20ee27fd9adebab32041f755214dbc6bffa90cc0225b39da2e5c2d3b90600090a2805115610cf057610b928282610dc2565b610445610e38565b610d00610e70565b61048a576040517fd7e6bcf800000000000000000000000000000000000000000000000000000000815260040160405180910390fd5b610928610cf8565b806001600160a01b03163b600003610d7457604051634c9c8ce360e01b81526001600160a01b0382166004820152602401610597565b7f360894a13ba1a3210667c828492db98dca3e2076cc3735a920a3ca505d382bbc805473ffffffffffffffffffffffffffffffffffffffff19166001600160a01b0392909216919091179055565b6060600080846001600160a01b031684604051610ddf9190611199565b600060405180830381855af49150503d8060008114610e1a576040519150601f19603f3d011682016040523d82523d6000602084013e610e1f565b606091505b5091509150610e2f858383610e8f565b95945050505050565b341561048a576040517fb398979f00000000000000000000000000000000000000000000000000000000815260040160405180910390fd5b6000610e7a610c5e565b5468010000000000000000900460ff16919050565b606082610ea457610e9f82610f04565b610919565b8151158015610ebb57506001600160a01b0384163b155b15610efd576040517f9996b3150000000000000000000000000000000000000000000000000000000081526001600160a01b0385166004820152602401610597565b5092915050565b805115610f1357805160208201fd5b6040517fd6bda27500000000000000000000000000000000000000000000000000000000815260040160405180910390fd5b80356001600160a01b0381168114610f5c57600080fd5b919050565b60008060408385031215610f7457600080fd5b610f7d83610f45565b9150610f8b60208401610f45565b90509250929050565b600060208284031215610fa657600080fd5b61091982610f45565b634e487b7160e01b600052604160045260246000fd5b60008060408385031215610fd857600080fd5b610fe183610f45565b9150602083013567ffffffffffffffff80821115610ffe57600080fd5b818501915085601f83011261101257600080fd5b81358181111561102457611024610faf565b604051601f8201601f19908116603f0116810190838211818310171561104c5761104c610faf565b8160405282815288602084870101111561106557600080fd5b8260208601602083013760006020848301015280955050505050509250929050565b60005b838110156110a257818101518382015260200161108a565b50506000910152565b60208152600082518060208401526110ca816040850160208701611087565b601f01601f19169190910160400192915050565b600080604083850312156110f157600080fd5b6110fa83610f45565b9150602083013560ff8116811461111057600080fd5b809150509250929050565b80820180821115610c8357634e487b7160e01b600052601160045260246000fd5b60006020828403121561114e57600080fd5b8151801515811461091957600080fd5b60008261117b57634e487b7160e01b600052601260045260246000fd5b500490565b60006020828403121561119257600080fd5b5051919050565b600082516111ab818460208701611087565b919091019291505056fea2646970667358221220d04bf9f1b88b8c7f1affddcc8faec566e216c8bbf17bc849ad4dae428cecbc5b64736f6c63430008160033",
  "linkReferences": {},
  "deployedLinkReferences": {}
}